{
  "contractName": "ExportManager",
  "abi": [
    {
      "inputs": [
        {
          "internalType": "address",
          "name": "tokenManagerAddress",
          "type": "address"
        },
        {
          "internalType": "address",
          "name": "verusBridgeAddress",
          "type": "address"
        }
      ],
      "stateMutability": "nonpayable",
      "type": "constructor"
    },
    {
      "inputs": [
        {
          "components": [
            {
              "internalType": "uint32",
              "name": "version",
              "type": "uint32"
            },
            {
              "components": [
                {
                  "internalType": "address",
                  "name": "currency",
                  "type": "address"
                },
                {
                  "internalType": "uint64",
                  "name": "amount",
                  "type": "uint64"
                }
              ],
              "internalType": "struct VerusObjects.CCurrencyValueMap",
              "name": "currencyvalue",
              "type": "tuple"
            },
            {
              "internalType": "uint32",
              "name": "flags",
              "type": "uint32"
            },
            {
              "internalType": "address",
              "name": "feecurrencyid",
              "type": "address"
            },
            {
              "internalType": "uint256",
              "name": "fees",
              "type": "uint256"
            },
            {
              "components": [
                {
                  "internalType": "uint8",
                  "name": "destinationtype",
                  "type": "uint8"
                },
                {
                  "internalType": "bytes",
                  "name": "destinationaddress",
                  "type": "bytes"
                }
              ],
              "internalType": "struct VerusObjectsCommon.CTransferDestination",
              "name": "destination",
              "type": "tuple"
            },
            {
              "internalType": "address",
              "name": "destcurrencyid",
              "type": "address"
            },
            {
              "internalType": "address",
              "name": "destsystemid",
              "type": "address"
            },
            {
              "internalType": "address",
              "name": "secondreserveid",
              "type": "address"
            }
          ],
          "internalType": "struct VerusObjects.CReserveTransfer",
          "name": "transfer",
          "type": "tuple"
        },
        {
          "internalType": "uint256",
          "name": "ETHSent",
          "type": "uint256"
        }
      ],
      "name": "checkExport",
      "outputs": [
        {
          "internalType": "uint256",
          "name": "fees",
          "type": "uint256"
        }
      ],
      "stateMutability": "view",
      "type": "function",
      "constant": true
    },
    {
      "inputs": [],
      "name": "checkReadyExports",
      "outputs": [
        {
          "internalType": "address",
          "name": "",
          "type": "address"
        }
      ],
      "stateMutability": "view",
      "type": "function",
      "constant": true
    },
    {
      "inputs": [
        {
          "internalType": "uint256",
          "name": "a",
          "type": "uint256"
        },
        {
          "internalType": "uint8",
          "name": "decimals",
          "type": "uint8"
        }
      ],
      "name": "convertFromVerusNumber",
      "outputs": [
        {
          "internalType": "uint256",
          "name": "",
          "type": "uint256"
        }
      ],
      "stateMutability": "pure",
      "type": "function",
      "constant": true
    },
    {
      "inputs": [
        {
          "components": [
            {
              "internalType": "uint32",
              "name": "version",
              "type": "uint32"
            },
            {
              "components": [
                {
                  "internalType": "address",
                  "name": "currency",
                  "type": "address"
                },
                {
                  "internalType": "uint64",
                  "name": "amount",
                  "type": "uint64"
                }
              ],
              "internalType": "struct VerusObjects.CCurrencyValueMap",
              "name": "currencyvalue",
              "type": "tuple"
            },
            {
              "internalType": "uint32",
              "name": "flags",
              "type": "uint32"
            },
            {
              "internalType": "address",
              "name": "feecurrencyid",
              "type": "address"
            },
            {
              "internalType": "uint256",
              "name": "fees",
              "type": "uint256"
            },
            {
              "components": [
                {
                  "internalType": "uint8",
                  "name": "destinationtype",
                  "type": "uint8"
                },
                {
                  "internalType": "bytes",
                  "name": "destinationaddress",
                  "type": "bytes"
                }
              ],
              "internalType": "struct VerusObjectsCommon.CTransferDestination",
              "name": "destination",
              "type": "tuple"
            },
            {
              "internalType": "address",
              "name": "destcurrencyid",
              "type": "address"
            },
            {
              "internalType": "address",
              "name": "destsystemid",
              "type": "address"
            },
            {
              "internalType": "address",
              "name": "secondreserveid",
              "type": "address"
            }
          ],
          "internalType": "struct VerusObjects.CReserveTransfer",
          "name": "transfer",
          "type": "tuple"
        }
      ],
      "name": "checkTransferFlags",
      "outputs": [
        {
          "internalType": "bool",
          "name": "",
          "type": "bool"
        }
      ],
      "stateMutability": "view",
      "type": "function",
      "constant": true
    }
  ],
  "bytecode": "0x60806040523480156200001157600080fd5b5060405162002251380380620022518339818101604052810190620000379190620000d7565b816000806101000a81548173ffffffffffffffffffffffffffffffffffffffff021916908373ffffffffffffffffffffffffffffffffffffffff16021790555080600160006101000a81548173ffffffffffffffffffffffffffffffffffffffff021916908373ffffffffffffffffffffffffffffffffffffffff160217905550505062000166565b600081519050620000d1816200014c565b92915050565b60008060408385031215620000eb57600080fd5b6000620000fb85828601620000c0565b92505060206200010e85828601620000c0565b9150509250929050565b600062000125826200012c565b9050919050565b600073ffffffffffffffffffffffffffffffffffffffff82169050919050565b620001578162000118565b81146200016357600080fd5b50565b6120db80620001766000396000f3fe608060405234801561001057600080fd5b506004361061004c5760003560e01c806329dcb40614610051578063b254aca014610081578063c05ace3f1461009f578063d5b91a92146100cf575b600080fd5b61006b6004803603810190610066919061183f565b6100ff565b6040516100789190611d20565b60405180910390f35b6100896106cf565b6040516100969190611d05565b60405180910390f35b6100b960048036038101906100b49190611880565b610846565b6040516100c69190611edb565b60405180910390f35b6100e960048036038101906100e49190611910565b6114d9565b6040516100f69190611edb565b60405180910390f35b60006001826000015163ffffffff1614158061013c575060006102006104006040600260010101010163ffffffff0383604001511663ffffffff16115b1561014a57600090506106ca565b600163ffffffff16600183604001511663ffffffff161461016e57600090506106ca565b600460ff168260a001516000015160ff1614806101995750600260ff168260a001516000015160ff16145b156101f8577367460c2f56774ed27eeb8685f29f6cec0b090b0073ffffffffffffffffffffffffffffffffffffffff168260c0015173ffffffffffffffffffffffffffffffffffffffff1614156101f357600090506106ca565b61033d565b600960ff1660098360a00151600001511660ff1614801561022a5750608060ff1660808360a00151600001511660ff16145b156103335773ffece948b8a38bbcc813411d2597f7f8485a068973ffffffffffffffffffffffffffffffffffffffff1682602001516000015173ffffffffffffffffffffffffffffffffffffffff1614156102d95773ffece948b8a38bbcc813411d2597f7f8485a068973ffffffffffffffffffffffffffffffffffffffff168260c0015173ffffffffffffffffffffffffffffffffffffffff1614156102d457600090506106ca565b61032e565b73ffece948b8a38bbcc813411d2597f7f8485a068973ffffffffffffffffffffffffffffffffffffffff168260c0015173ffffffffffffffffffffffffffffffffffffffff161461032d57600090506106ca565b5b61033c565b600090506106ca565b5b61020063ffffffff1661020083604001511663ffffffff161480610376575061040063ffffffff1661040083604001511663ffffffff16145b61049557600263ffffffff16600283604001511663ffffffff161461043f5773ffece948b8a38bbcc813411d2597f7f8485a068973ffffffffffffffffffffffffffffffffffffffff168260c0015173ffffffffffffffffffffffffffffffffffffffff1614158061042c575073a6ef9ea235635e328124ff3429db9f9e91b64e2d73ffffffffffffffffffffffffffffffffffffffff168260c0015173ffffffffffffffffffffffffffffffffffffffff1614155b1561043a57600090506106ca565b610494565b73ffece948b8a38bbcc813411d2597f7f8485a068973ffffffffffffffffffffffffffffffffffffffff168260c0015173ffffffffffffffffffffffffffffffffffffffff161461049357600090506106ca565b5b5b61020063ffffffff1661020083604001511663ffffffff1614156105485773ffece948b8a38bbcc813411d2597f7f8485a068973ffffffffffffffffffffffffffffffffffffffff168260c0015173ffffffffffffffffffffffffffffffffffffffff16148061051a575061040063ffffffff1661040083604001511663ffffffff16145b806105395750600263ffffffff16600283604001511663ffffffff1614155b1561054757600090506106ca565b5b61040063ffffffff1661040083604001511663ffffffff1614156106c55773ffece948b8a38bbcc813411d2597f7f8485a068973ffffffffffffffffffffffffffffffffffffffff168260c0015173ffffffffffffffffffffffffffffffffffffffff1614806105cd575061020063ffffffff1661020083604001511663ffffffff16145b806105ec5750600263ffffffff16600283604001511663ffffffff1614155b156105fa57600090506106ca565b608060ff1660808360a00151600001511660ff16141561066f5773ffece948b8a38bbcc813411d2597f7f8485a068973ffffffffffffffffffffffffffffffffffffffff1682610100015173ffffffffffffffffffffffffffffffffffffffff16141561066a57600090506106ca565b6106c4565b73ffece948b8a38bbcc813411d2597f7f8485a068973ffffffffffffffffffffffffffffffffffffffff168260c0015173ffffffffffffffffffffffffffffffffffffffff16146106c357600090506106ca565b5b5b600190505b919050565b6000806000600160009054906101000a900473ffffffffffffffffffffffffffffffffffffffff1673ffffffffffffffffffffffffffffffffffffffff1663c17a4eef436040518263ffffffff1660e01b815260040161072f9190611edb565b604080518083038186803b15801561074657600080fd5b505afa15801561075a573d6000803e3d6000fd5b505050506040513d601f19601f8201168201806040525081019061077e91906118d4565b91509150801561083c57600160009054906101000a900473ffffffffffffffffffffffffffffffffffffffff1673ffffffffffffffffffffffffffffffffffffffff16638e2ddf11836040518263ffffffff1660e01b81526004016107e39190611edb565b60206040518083038186803b1580156107fb57600080fd5b505afa15801561080f573d6000803e3d6000fd5b505050506040513d601f19601f8201168201806040525081019061083391906117ed565b92505050610843565b6000925050505b90565b60008060009054906101000a900473ffffffffffffffffffffffffffffffffffffffff1673ffffffffffffffffffffffffffffffffffffffff1663e4ce575d8460200151600001516040518263ffffffff1660e01b81526004016108aa9190611d05565b60206040518083038186803b1580156108c257600080fd5b505afa1580156108d6573d6000803e3d6000fd5b505050506040513d601f19601f820116820180604052508101906108fa9190611816565b80156109af575060008054906101000a900473ffffffffffffffffffffffffffffffffffffffff1673ffffffffffffffffffffffffffffffffffffffff1663e4ce575d84606001516040518263ffffffff1660e01b815260040161095e9190611d05565b60206040518083038186803b15801561097657600080fd5b505afa15801561098a573d6000803e3d6000fd5b505050506040513d601f19601f820116820180604052508101906109ae9190611816565b5b8015610a64575060008054906101000a900473ffffffffffffffffffffffffffffffffffffffff1673ffffffffffffffffffffffffffffffffffffffff1663e4ce575d8460c001516040518263ffffffff1660e01b8152600401610a139190611d05565b60206040518083038186803b158015610a2b57600080fd5b505afa158015610a3f573d6000803e3d6000fd5b505050506040513d601f19601f82011682018060405250810190610a639190611816565b5b8015610b56575060008054906101000a900473ffffffffffffffffffffffffffffffffffffffff1673ffffffffffffffffffffffffffffffffffffffff1663e4ce575d8461010001516040518263ffffffff1660e01b8152600401610ac99190611d05565b60206040518083038186803b158015610ae157600080fd5b505afa158015610af5573d6000803e3d6000fd5b505050506040513d601f19601f82011682018060405250810190610b199190611816565b80610b555750600073ffffffffffffffffffffffffffffffffffffffff1683610100015173ffffffffffffffffffffffffffffffffffffffff16145b5b610b95576040517f08c379a0000000000000000000000000000000000000000000000000000000008152600401610b8c90611dfb565b60405180910390fd5b6000660aa87bee53800090506000621e84809050600080603090506000603067ffffffffffffffff81118015610bca57600080fd5b506040519080825280601f01601f191660200182016040528015610bfd5781602001600182028036833780820191505090505b509050600080610c0c8a6100ff565b610c205760009750505050505050506114d3565b73a6ef9ea235635e328124ff3429db9f9e91b64e2d73ffffffffffffffffffffffffffffffffffffffff168a60e0015173ffffffffffffffffffffffffffffffffffffffff1614610ca6576040517f08c379a0000000000000000000000000000000000000000000000000000000008152600401610c9d90611d5b565b60405180910390fd5b6000610cb06106cf565b9050600073ffffffffffffffffffffffffffffffffffffffff168173ffffffffffffffffffffffffffffffffffffffff1614610d21578a60c0015173ffffffffffffffffffffffffffffffffffffffff168173ffffffffffffffffffffffffffffffffffffffff161415610d2057fe5b5b8a60a0015160200151935060148401519150600073ffffffffffffffffffffffffffffffffffffffff168273ffffffffffffffffffffffffffffffffffffffff161415610d79576000985050505050505050506114d3565b878a1015610dbc576040517f08c379a0000000000000000000000000000000000000000000000000000000008152600401610db390611d3b565b60405180910390fd5b7367460c2f56774ed27eeb8685f29f6cec0b090b0073ffffffffffffffffffffffffffffffffffffffff168b6060015173ffffffffffffffffffffffffffffffffffffffff161415610e5a5787610e188c6080015160126114d9565b1015610e59576040517f08c379a0000000000000000000000000000000000000000000000000000000008152600401610e5090611dbb565b60405180910390fd5b5b600160009054906101000a900473ffffffffffffffffffffffffffffffffffffffff1673ffffffffffffffffffffffffffffffffffffffff1663daabc8388c608001518d606001516040518363ffffffff1660e01b8152600401610ebf929190611ef6565b60206040518083038186803b158015610ed757600080fd5b505afa158015610eeb573d6000803e3d6000fd5b505050506040513d601f19601f82011682018060405250810190610f0f9190611816565b1561112157600260ff168b60a001516000015160ff161480610f3f5750600460ff168b60a001516000015160ff16145b610f54576000985050505050505050506114d3565b600073ffffffffffffffffffffffffffffffffffffffff168b610100015173ffffffffffffffffffffffffffffffffffffffff16148015610fd857507367460c2f56774ed27eeb8685f29f6cec0b090b0073ffffffffffffffffffffffffffffffffffffffff168b60c0015173ffffffffffffffffffffffffffffffffffffffff16145b610fed576000985050505050505050506114d3565b73a6ef9ea235635e328124ff3429db9f9e91b64e2d73ffffffffffffffffffffffffffffffffffffffff168b6060015173ffffffffffffffffffffffffffffffffffffffff1614156110da57866110498c6080015160126114d9565b14611089576040517f08c379a000000000000000000000000000000000000000000000000000000000815260040161108090611e5b565b60405180910390fd5b60148b60a001516020015151146110d5576040517f08c379a00000000000000000000000000000000000000000000000000000000081526004016110cc90611d9b565b60405180910390fd5b61111c565b600061111b576040517f08c379a000000000000000000000000000000000000000000000000000000000815260040161111290611e3b565b60405180910390fd5b5b6113cf565b7367460c2f56774ed27eeb8685f29f6cec0b090b0073ffffffffffffffffffffffffffffffffffffffff168b60e0015173ffffffffffffffffffffffffffffffffffffffff16146111a7576040517f08c379a000000000000000000000000000000000000000000000000000000000815260040161119e90611e9b565b60405180910390fd5b608060ff1660808c60a00151600001511660ff16141561137457600260801660ff168b60a001516000015160ff1614806111f25750600460801660ff168b60a001516000015160ff16145b8061120e5750600960801660ff168b60a001516000015160ff16145b611223576000985050505050505050506114d3565b60308b60a0015160200151511461126f576040517f08c379a000000000000000000000000000000000000000000000000000000000815260040161126690611e1b565b60405180910390fd5b8a60a00151602001519350602884015192508484015195507367460c2f56774ed27eeb8685f29f6cec0b090b0073ffffffffffffffffffffffffffffffffffffffff168373ffffffffffffffffffffffffffffffffffffffff16146112d057fe5b876112e68767ffffffffffffffff1660126114d9565b1015611327576040517f08c379a000000000000000000000000000000000000000000000000000000000815260040161131e90611e7b565b60405180910390fd5b8788019750878a101561136f576040517f08c379a000000000000000000000000000000000000000000000000000000000815260040161136690611ddb565b60405180910390fd5b6113ce565b600260ff168b60a001516000015160ff16148061139f5750600460ff168b60a001516000015160ff16145b806113b85750600960ff168b60a001516000015160ff16145b6113cd576000985050505050505050506114d3565b5b5b7367460c2f56774ed27eeb8685f29f6cec0b090b0073ffffffffffffffffffffffffffffffffffffffff168b602001516000015173ffffffffffffffffffffffffffffffffffffffff1614156114845761143c8b602001516020015167ffffffffffffffff1660126114d9565b88018a1461147f576040517f08c379a000000000000000000000000000000000000000000000000000000000815260040161147690611ebb565b60405180910390fd5b6114c7565b878a146114c6576040517f08c379a00000000000000000000000000000000000000000000000000000000081526004016114bd90611d7b565b60405180910390fd5b5b87985050505050505050505b92915050565b600080600a9050600084905060088460ff161115611507576008840391508160ff16600a0a8502905061152d565b60088460ff16101561152c578360080391508160ff16600a0a858161152857fe5b0490505b5b809250505092915050565b600061154b61154684611f50565b611f1f565b90508281526020810184848401111561156357600080fd5b61156e84828561200a565b509392505050565b6000813590506115858161201b565b92915050565b60008151905061159a8161201b565b92915050565b6000815190506115af81612032565b92915050565b600082601f8301126115c657600080fd5b81356115d6848260208601611538565b91505092915050565b6000604082840312156115f157600080fd5b6115fb6040611f1f565b9050600061160b84828501611576565b600083015250602061161f848285016117c3565b60208301525092915050565b6000610140828403121561163e57600080fd5b611649610120611f1f565b90506000611659848285016117ae565b600083015250602061166d848285016115df565b6020830152506060611681848285016117ae565b604083015250608061169584828501611576565b60608301525060a06116a984828501611784565b60808301525060c082013567ffffffffffffffff8111156116c957600080fd5b6116d584828501611720565b60a08301525060e06116e984828501611576565b60c0830152506101006116fe84828501611576565b60e08301525061012061171384828501611576565b6101008301525092915050565b60006040828403121561173257600080fd5b61173c6040611f1f565b9050600061174c848285016117d8565b600083015250602082013567ffffffffffffffff81111561176c57600080fd5b611778848285016115b5565b60208301525092915050565b60008135905061179381612049565b92915050565b6000815190506117a881612049565b92915050565b6000813590506117bd81612060565b92915050565b6000813590506117d281612077565b92915050565b6000813590506117e78161208e565b92915050565b6000602082840312156117ff57600080fd5b600061180d8482850161158b565b91505092915050565b60006020828403121561182857600080fd5b6000611836848285016115a0565b91505092915050565b60006020828403121561185157600080fd5b600082013567ffffffffffffffff81111561186b57600080fd5b6118778482850161162b565b91505092915050565b6000806040838503121561189357600080fd5b600083013567ffffffffffffffff8111156118ad57600080fd5b6118b98582860161162b565b92505060206118ca85828601611784565b9150509250929050565b600080604083850312156118e757600080fd5b60006118f585828601611799565b9250506020611906858286016115a0565b9150509250929050565b6000806040838503121561192357600080fd5b600061193185828601611784565b9250506020611942858286016117d8565b9150509250929050565b61195581611f91565b82525050565b61196481611fa3565b82525050565b6000611977601383611f80565b91507f455448206d7367206665657320746f206c6f77000000000000000000000000006000830152602082019050919050565b60006119b7601b83611f80565b91507f44657374696e6174696f6e2073797374656d206e6f74205652534300000000006000830152602082019050919050565b60006119f7601f83611f80565b91507f455448206665652073656e7420213d2028616d6f756e74202b206665657329006000830152602082019050919050565b6000611a37602083611f80565b91507f64657374696e6174696f6e2061646472657373206e6f742032302062797465736000830152602082019050919050565b6000611a77601d83611f80565b91507f4665652076616c756520696e207472616e7366657220746f6f206c6f770000006000830152602082019050919050565b6000611ab7600f83611f80565b91507f455448206665657320746f206c6f7700000000000000000000000000000000006000830152602082019050919050565b6000611af7602e83611f80565b91507f4f6e65206f72206d6f72652063757272656e6369657320686173206e6f74206260008301527f65656e20726567697374657265640000000000000000000000000000000000006020830152604082019050919050565b6000611b5d602083611f80565b91507f64657374696e6174696f6e2061646472657373206e6f742034382062797465736000830152602082019050919050565b6000611b9d602c83611f80565b91507f46656573206d75737420626520696e2056525343206265666f726520706f6f6c60008301527f206973206c61756e6368656400000000000000000000000000000000000000006020830152604082019050919050565b6000611c03601283611f80565b91507f565253432066656573206e6f7420302e303200000000000000000000000000006000830152602082019050919050565b6000611c43601b83611f80565b91507f52657475726e20666565206e6f74206c6172676520656e6f75676800000000006000830152602082019050919050565b6000611c83601583611f80565b91507f4665652043757272656e6379206e6f74207645544800000000000000000000006000830152602082019050919050565b6000611cc3601b83611f80565b91507f4554482073656e7420213d2028616d6f756e74202b20666565732900000000006000830152602082019050919050565b611cff81611fcf565b82525050565b6000602082019050611d1a600083018461194c565b92915050565b6000602082019050611d35600083018461195b565b92915050565b60006020820190508181036000830152611d548161196a565b9050919050565b60006020820190508181036000830152611d74816119aa565b9050919050565b60006020820190508181036000830152611d94816119ea565b9050919050565b60006020820190508181036000830152611db481611a2a565b9050919050565b60006020820190508181036000830152611dd481611a6a565b9050919050565b60006020820190508181036000830152611df481611aaa565b9050919050565b60006020820190508181036000830152611e1481611aea565b9050919050565b60006020820190508181036000830152611e3481611b50565b9050919050565b60006020820190508181036000830152611e5481611b90565b9050919050565b60006020820190508181036000830152611e7481611bf6565b9050919050565b60006020820190508181036000830152611e9481611c36565b9050919050565b60006020820190508181036000830152611eb481611c76565b9050919050565b60006020820190508181036000830152611ed481611cb6565b9050919050565b6000602082019050611ef06000830184611cf6565b92915050565b6000604082019050611f0b6000830185611cf6565b611f18602083018461194c565b9392505050565b6000604051905081810181811067ffffffffffffffff82111715611f4657611f45612019565b5b8060405250919050565b600067ffffffffffffffff821115611f6b57611f6a612019565b5b601f19601f8301169050602081019050919050565b600082825260208201905092915050565b6000611f9c82611faf565b9050919050565b60008115159050919050565b600073ffffffffffffffffffffffffffffffffffffffff82169050919050565b6000819050919050565b600063ffffffff82169050919050565b600067ffffffffffffffff82169050919050565b600060ff82169050919050565b82818337600083830152505050565bfe5b61202481611f91565b811461202f57600080fd5b50565b61203b81611fa3565b811461204657600080fd5b50565b61205281611fcf565b811461205d57600080fd5b50565b61206981611fd9565b811461207457600080fd5b50565b61208081611fe9565b811461208b57600080fd5b50565b61209781611ffd565b81146120a257600080fd5b5056fea26469706673582212200b0613a70bebd33e130d8ccfac81604808772542faddb905503d41415fe40fc164736f6c63430007060033",
  "immutableReferences": {},
  "source": "// SPDX-License-Identifier: MIT\n// Bridge between ethereum and verus\npragma solidity >=0.6.0 <0.9.0;\npragma experimental ABIEncoderV2;\n\nimport \"../Libraries/VerusObjects.sol\";\nimport \"../Libraries/VerusObjectsCommon.sol\";\nimport \"../Libraries/VerusConstants.sol\";\nimport \"./TokenManager.sol\";\nimport \"../VerusBridge/VerusBridge.sol\";\n\ncontract ExportManager {\n\n    TokenManager tokenManager;\n    VerusBridge verusBridge;\n\n    constructor(\n        address tokenManagerAddress,\n        address verusBridgeAddress) public {\n        tokenManager = TokenManager(tokenManagerAddress);\n        verusBridge = VerusBridge(verusBridgeAddress);\n    }\n\n    uint32 constant  VALID = 1;\n    uint32 constant  CONVERT = 2;\n    uint32 constant  CROSS_SYSTEM = 0x40;               \n    uint32 constant  IMPORT_TO_SOURCE = 0x200;          \n    uint32 constant  RESERVE_TO_RESERVE = 0x400; \n\n    uint32 constant INVALID_FLAGS = 0xffffffff - (VALID + CONVERT + CROSS_SYSTEM + RESERVE_TO_RESERVE + IMPORT_TO_SOURCE);\n\n    uint8 constant DEST_PKH = 2;\n    uint8 constant DEST_ID = 4;\n    uint8 constant DEST_ETH = 9;\n    uint8 constant FLAG_DEST_GATEWAY = 128;\n\n    function checkExport(VerusObjects.CReserveTransfer memory transfer, uint256 ETHSent) public view returns (uint256 fees){\n\n       // function returns 0 for low level errors, however uses requires for higher level errors.\n\n       require(tokenManager.ERC20Registered(transfer.currencyvalue.currency) && \n                tokenManager.ERC20Registered(transfer.feecurrencyid) &&\n                tokenManager.ERC20Registered(transfer.destcurrencyid) &&\n                (tokenManager.ERC20Registered(transfer.secondreserveid) || \n                transfer.secondreserveid == address(0)) ,\n                \"One or more currencies has not been registered\");\n\n        uint256 requiredFees =  VerusConstants.transactionFee;  //0.003 eth in WEI\n        uint256 verusFees = VerusConstants.verusTransactionFee; //0.02 verus in SATS\n        uint64 bounceBackFee;\n        uint8  FEE_OFFSET = 20 + 20 + 8;\n        bytes memory serializedDest = new bytes(20 + 20 + 8);\n        address gatewayID;\n        address destAddressID;\n\n        \n        if (!checkTransferFlags(transfer))\n            return 0;\n                                  \n        require(transfer.destsystemid == VerusConstants.VerusCurrencyId, \"Destination system not VRSC\"); //Always VRSCTEST\n\n        //TODO: We cant mix different transfer destinations together in the CCE assert on non same fields.\n        address exportID = checkReadyExports();\n        \n        if (exportID != address(0))\n        {\n               assert (exportID != transfer.destcurrencyid);\n\n        }\n\n        // Check destination address is not zero\n        serializedDest = transfer.destination.destinationaddress;  \n\n            assembly {\n                destAddressID := mload(add(serializedDest, 20))\n            }\n\n        if (destAddressID == address(0))\n            return 0;\n\n        // Check fees are correct, if pool unavailble vrsctest only fees, TODO:if pool availble vETH fees only for now\n\n        require(ETHSent >= requiredFees, \"ETH msg fees to low\"); //TODO:ETH fees always required for now\n\n        if(transfer.feecurrencyid == VerusConstants.VEth) {\n\n            require(convertFromVerusNumber(transfer.fees,18) >= requiredFees, \"Fee value in transfer too low\");\n\n        }\n\n        if (verusBridge.isPoolUnavailable(transfer.fees, transfer.feecurrencyid)) {\n\n            if(!(transfer.destination.destinationtype == DEST_PKH ||\n                   transfer.destination.destinationtype == DEST_ID))\n                    return 0;\n\n            if(!(transfer.secondreserveid == address(0) && transfer.destcurrencyid == VerusConstants.VEth))\n                return 0;\n\n            if(transfer.feecurrencyid == VerusConstants.VerusCurrencyId) {\n\n                require(convertFromVerusNumber(transfer.fees,18) == verusFees, \"VRSC fees not 0.02\");\n                require(transfer.destination.destinationaddress.length == 20, \"destination address not 20 bytes\");\n\n            } else {\n\n                require(false,\"Fees must be in VRSC before pool is launched\");\n\n            }\n\n        } else {\n\n            require(transfer.destsystemid == VerusConstants.VEth, \"Fee Currency not vETH\"); //TODO:Accept more fee currencies\n\n            if(transfer.destination.destinationtype & FLAG_DEST_GATEWAY == FLAG_DEST_GATEWAY) {\n\n                if(!(transfer.destination.destinationtype == (FLAG_DEST_GATEWAY & DEST_PKH )  ||\n                   transfer.destination.destinationtype == (FLAG_DEST_GATEWAY & DEST_ID )     ||\n                   transfer.destination.destinationtype == (FLAG_DEST_GATEWAY & DEST_ETH )))\n                    return 0;\n\n                require(transfer.destination.destinationaddress.length == (20 + 20 + 8), \"destination address not 48 bytes\");\n\n                serializedDest = transfer.destination.destinationaddress;   \n                assembly {\n                    gatewayID := mload(add(serializedDest, 40))\n                    bounceBackFee := mload(add(serializedDest, FEE_OFFSET))\n                }\n\n                assert(gatewayID == VerusConstants.VEth);\n                require(convertFromVerusNumber(bounceBackFee, 18) >= requiredFees, \"Return fee not large enough\");\n\n                requiredFees += requiredFees;  //TODO: bounceback fees required as well as send fees\n\n                 require(ETHSent >= requiredFees, \"ETH fees to low\"); //TODO:ETH fees always required for now\n\n            } else if (!(transfer.destination.destinationtype == DEST_PKH || transfer.destination.destinationtype == DEST_ID \n                        || transfer.destination.destinationtype == DEST_ETH )) {\n\n                return 0;\n\n            } \n\n        }\n\n        // Check fees are included in the ETH value if sending ETH, or are equal to the fee value for tokens.\n       \n        if(transfer.currencyvalue.currency == VerusConstants.VEth) {\n\n            require(ETHSent == (requiredFees + convertFromVerusNumber(transfer.currencyvalue.amount,18)), \"ETH sent != (amount + fees)\");\n      \n        } else {\n\n            require(ETHSent == requiredFees, \"ETH fee sent != (amount + fees)\");\n        }\n\n        return requiredFees;\n    }\n\n    function checkReadyExports() public view returns(address) {\n\n           \n        (uint created , bool readyBlock) = verusBridge.readyExportsByBlock(block.number);\n\n        if(readyBlock) {\n    \n            return verusBridge.getCreatedExport(created);\n\n        } else {\n\n            return address(0);\n        }\n\n    }\n\n    function convertFromVerusNumber(uint256 a,uint8 decimals) public pure returns (uint256) {\n        uint8 power = 10; //default value for 18\n        uint256 c = a;\n\n        if(decimals > 8 ) {\n            power = decimals - 8;// number of decimals in verus\n            c = a * (10 ** power);\n        }else if(decimals < 8){\n            power = 8 - decimals;// number of decimals in verus\n            c = a / (10 ** power);\n        }\n      \n        return c;\n    }\n\n    function checkTransferFlags(VerusObjects.CReserveTransfer memory transfer) public view returns(bool) {\n\n        if (transfer.version != 1 || (transfer.flags & INVALID_FLAGS) > 0)\n            return false;\n\n        if(!(transfer.flags & VALID == VALID))\n            return false;\n\n       \n        if(transfer.destination.destinationtype == DEST_ID || transfer.destination.destinationtype == DEST_PKH ) {\n\n            if(transfer.destcurrencyid == VerusConstants.VEth)\n                return false;\n\n        } else if (transfer.destination.destinationtype & DEST_ETH == DEST_ETH &&\n                   transfer.destination.destinationtype & FLAG_DEST_GATEWAY == FLAG_DEST_GATEWAY ) {\n\n            if(transfer.currencyvalue.currency == VerusConstants.VerusBridgeAddress) {\n\n                if(transfer.destcurrencyid == VerusConstants.VerusBridgeAddress)\n                    return false;\n\n            } else {\n\n                if(transfer.destcurrencyid != VerusConstants.VerusBridgeAddress)\n                    return false;\n\n            }\n\n        } else {\n\n            return false;\n\n        }\n\n        if(!(transfer.flags & IMPORT_TO_SOURCE == IMPORT_TO_SOURCE ||\n           transfer.flags & RESERVE_TO_RESERVE == RESERVE_TO_RESERVE)) {\n\n               if(transfer.flags & CONVERT != CONVERT) {\n                   if(transfer.destcurrencyid != VerusConstants.VerusBridgeAddress ||\n                       transfer.destcurrencyid != VerusConstants.VerusCurrencyId )\n                       return false;\n\n               } else {\n\n                    if(transfer.destcurrencyid != VerusConstants.VerusBridgeAddress)\n                       return false;\n\n               }\n        }\n\n        if(transfer.flags & IMPORT_TO_SOURCE == IMPORT_TO_SOURCE) {\n\n            if(transfer.destcurrencyid == VerusConstants.VerusBridgeAddress ||\n                transfer.flags & RESERVE_TO_RESERVE == RESERVE_TO_RESERVE ||\n                 transfer.flags & CONVERT != CONVERT )\n                return false;\n\n        }\n\n        if(transfer.flags & RESERVE_TO_RESERVE == RESERVE_TO_RESERVE) {\n\n            if(transfer.destcurrencyid == VerusConstants.VerusBridgeAddress ||\n                transfer.flags & IMPORT_TO_SOURCE == IMPORT_TO_SOURCE ||\n                 transfer.flags & CONVERT != CONVERT )\n                return false;\n\n            if(transfer.destination.destinationtype & FLAG_DEST_GATEWAY == FLAG_DEST_GATEWAY) { \n\n                if(transfer.secondreserveid == VerusConstants.VerusBridgeAddress )\n                    return false;\n\n            } else {\n\n                if(transfer.destcurrencyid != VerusConstants.VerusBridgeAddress )\n                    return false;\n\n            }\n\n        }\n   \n        return true;\n    }\n\n}",
  "sourcePath": "/home/chris/Verus-Ethereum-contracts/contracts/VerusBridge/ExportManager.sol",
  "compiler": {
    "name": "solc",
    "version": "0.7.6+commit.7338295f.Emscripten.clang"
  },
  "schemaVersion": "3.4.4",
  "updatedAt": "2022-03-01T15:45:15.396Z",
  "networkType": "ethereum",
  "devdoc": {
    "kind": "dev",
    "methods": {},
    "version": 1
  },
  "userdoc": {
    "kind": "user",
    "methods": {},
    "version": 1
  }
}