{
  "contractName": "VerusSerializer",
  "abi": [
    {
      "inputs": [
        {
          "internalType": "uint256",
          "name": "incoming",
          "type": "uint256"
        }
      ],
      "name": "writeVarInt",
      "outputs": [
        {
          "internalType": "bytes",
          "name": "",
          "type": "bytes"
        }
      ],
      "stateMutability": "pure",
      "type": "function",
      "constant": true
    },
    {
      "inputs": [
        {
          "internalType": "uint256",
          "name": "newNumber",
          "type": "uint256"
        }
      ],
      "name": "writeCompactSize",
      "outputs": [
        {
          "internalType": "bytes",
          "name": "",
          "type": "bytes"
        }
      ],
      "stateMutability": "pure",
      "type": "function",
      "constant": true
    },
    {
      "inputs": [
        {
          "internalType": "string",
          "name": "prefix",
          "type": "string"
        },
        {
          "internalType": "address",
          "name": "systemID",
          "type": "address"
        },
        {
          "internalType": "int64",
          "name": "blockHeight",
          "type": "int64"
        },
        {
          "internalType": "address",
          "name": "signingID",
          "type": "address"
        },
        {
          "internalType": "bytes",
          "name": "messageToHash",
          "type": "bytes"
        }
      ],
      "name": "verusHashPrefix",
      "outputs": [
        {
          "internalType": "bytes",
          "name": "",
          "type": "bytes"
        }
      ],
      "stateMutability": "pure",
      "type": "function",
      "constant": true
    },
    {
      "inputs": [
        {
          "internalType": "bool",
          "name": "anyBool",
          "type": "bool"
        }
      ],
      "name": "serializeBool",
      "outputs": [
        {
          "internalType": "bytes",
          "name": "",
          "type": "bytes"
        }
      ],
      "stateMutability": "pure",
      "type": "function",
      "constant": true
    },
    {
      "inputs": [
        {
          "internalType": "string",
          "name": "anyString",
          "type": "string"
        }
      ],
      "name": "serializeString",
      "outputs": [
        {
          "internalType": "bytes",
          "name": "",
          "type": "bytes"
        }
      ],
      "stateMutability": "pure",
      "type": "function",
      "constant": true
    },
    {
      "inputs": [
        {
          "internalType": "bytes20",
          "name": "anyBytes20",
          "type": "bytes20"
        }
      ],
      "name": "serializeBytes20",
      "outputs": [
        {
          "internalType": "bytes",
          "name": "",
          "type": "bytes"
        }
      ],
      "stateMutability": "pure",
      "type": "function",
      "constant": true
    },
    {
      "inputs": [
        {
          "internalType": "bytes32",
          "name": "anyBytes32",
          "type": "bytes32"
        }
      ],
      "name": "serializeBytes32",
      "outputs": [
        {
          "internalType": "bytes",
          "name": "",
          "type": "bytes"
        }
      ],
      "stateMutability": "pure",
      "type": "function",
      "constant": true
    },
    {
      "inputs": [
        {
          "internalType": "uint8",
          "name": "number",
          "type": "uint8"
        }
      ],
      "name": "serializeUint8",
      "outputs": [
        {
          "internalType": "bytes",
          "name": "",
          "type": "bytes"
        }
      ],
      "stateMutability": "pure",
      "type": "function",
      "constant": true
    },
    {
      "inputs": [
        {
          "internalType": "uint16",
          "name": "number",
          "type": "uint16"
        }
      ],
      "name": "serializeUint16",
      "outputs": [
        {
          "internalType": "bytes",
          "name": "",
          "type": "bytes"
        }
      ],
      "stateMutability": "pure",
      "type": "function",
      "constant": true
    },
    {
      "inputs": [
        {
          "internalType": "uint32",
          "name": "number",
          "type": "uint32"
        }
      ],
      "name": "serializeUint32",
      "outputs": [
        {
          "internalType": "bytes",
          "name": "",
          "type": "bytes"
        }
      ],
      "stateMutability": "pure",
      "type": "function",
      "constant": true
    },
    {
      "inputs": [
        {
          "internalType": "int16",
          "name": "number",
          "type": "int16"
        }
      ],
      "name": "serializeInt16",
      "outputs": [
        {
          "internalType": "bytes",
          "name": "",
          "type": "bytes"
        }
      ],
      "stateMutability": "pure",
      "type": "function",
      "constant": true
    },
    {
      "inputs": [
        {
          "internalType": "int32",
          "name": "number",
          "type": "int32"
        }
      ],
      "name": "serializeInt32",
      "outputs": [
        {
          "internalType": "bytes",
          "name": "",
          "type": "bytes"
        }
      ],
      "stateMutability": "pure",
      "type": "function",
      "constant": true
    },
    {
      "inputs": [
        {
          "internalType": "int64",
          "name": "number",
          "type": "int64"
        }
      ],
      "name": "serializeInt64",
      "outputs": [
        {
          "internalType": "bytes",
          "name": "",
          "type": "bytes"
        }
      ],
      "stateMutability": "pure",
      "type": "function",
      "constant": true
    },
    {
      "inputs": [
        {
          "internalType": "int32[]",
          "name": "numbers",
          "type": "int32[]"
        }
      ],
      "name": "serializeInt32Array",
      "outputs": [
        {
          "internalType": "bytes",
          "name": "",
          "type": "bytes"
        }
      ],
      "stateMutability": "pure",
      "type": "function",
      "constant": true
    },
    {
      "inputs": [
        {
          "internalType": "int64[]",
          "name": "numbers",
          "type": "int64[]"
        }
      ],
      "name": "serializeInt64Array",
      "outputs": [
        {
          "internalType": "bytes",
          "name": "",
          "type": "bytes"
        }
      ],
      "stateMutability": "pure",
      "type": "function",
      "constant": true
    },
    {
      "inputs": [
        {
          "internalType": "uint64",
          "name": "number",
          "type": "uint64"
        }
      ],
      "name": "serializeUint64",
      "outputs": [
        {
          "internalType": "bytes",
          "name": "",
          "type": "bytes"
        }
      ],
      "stateMutability": "pure",
      "type": "function",
      "constant": true
    },
    {
      "inputs": [
        {
          "internalType": "address",
          "name": "number",
          "type": "address"
        }
      ],
      "name": "serializeAddress",
      "outputs": [
        {
          "internalType": "bytes",
          "name": "",
          "type": "bytes"
        }
      ],
      "stateMutability": "pure",
      "type": "function",
      "constant": true
    },
    {
      "inputs": [
        {
          "internalType": "uint160[]",
          "name": "numbers",
          "type": "uint160[]"
        }
      ],
      "name": "serializeUint160Array",
      "outputs": [
        {
          "internalType": "bytes",
          "name": "",
          "type": "bytes"
        }
      ],
      "stateMutability": "pure",
      "type": "function",
      "constant": true
    },
    {
      "inputs": [
        {
          "internalType": "uint256",
          "name": "number",
          "type": "uint256"
        }
      ],
      "name": "serializeUint256",
      "outputs": [
        {
          "internalType": "bytes",
          "name": "",
          "type": "bytes"
        }
      ],
      "stateMutability": "pure",
      "type": "function",
      "constant": true
    },
    {
      "inputs": [
        {
          "components": [
            {
              "internalType": "uint8",
              "name": "destinationtype",
              "type": "uint8"
            },
            {
              "internalType": "bytes",
              "name": "destinationaddress",
              "type": "bytes"
            }
          ],
          "internalType": "struct VerusObjectsCommon.CTransferDestination",
          "name": "ctd",
          "type": "tuple"
        }
      ],
      "name": "serializeCTransferDestination",
      "outputs": [
        {
          "internalType": "bytes",
          "name": "",
          "type": "bytes"
        }
      ],
      "stateMutability": "pure",
      "type": "function",
      "constant": true
    },
    {
      "inputs": [
        {
          "components": [
            {
              "internalType": "address",
              "name": "currency",
              "type": "address"
            },
            {
              "internalType": "uint64",
              "name": "amount",
              "type": "uint64"
            }
          ],
          "internalType": "struct VerusObjects.CCurrencyValueMap",
          "name": "_ccvm",
          "type": "tuple"
        }
      ],
      "name": "serializeCCurrencyValueMap",
      "outputs": [
        {
          "internalType": "bytes",
          "name": "",
          "type": "bytes"
        }
      ],
      "stateMutability": "pure",
      "type": "function",
      "constant": true
    },
    {
      "inputs": [
        {
          "components": [
            {
              "internalType": "address",
              "name": "currency",
              "type": "address"
            },
            {
              "internalType": "uint64",
              "name": "amount",
              "type": "uint64"
            }
          ],
          "internalType": "struct VerusObjects.CCurrencyValueMap[]",
          "name": "_ccvms",
          "type": "tuple[]"
        }
      ],
      "name": "serializeCCurrencyValueMaps",
      "outputs": [
        {
          "internalType": "bytes",
          "name": "",
          "type": "bytes"
        }
      ],
      "stateMutability": "pure",
      "type": "function",
      "constant": true
    },
    {
      "inputs": [
        {
          "components": [
            {
              "internalType": "uint32",
              "name": "version",
              "type": "uint32"
            },
            {
              "components": [
                {
                  "internalType": "address",
                  "name": "currency",
                  "type": "address"
                },
                {
                  "internalType": "uint64",
                  "name": "amount",
                  "type": "uint64"
                }
              ],
              "internalType": "struct VerusObjects.CCurrencyValueMap",
              "name": "currencyvalue",
              "type": "tuple"
            },
            {
              "internalType": "uint32",
              "name": "flags",
              "type": "uint32"
            },
            {
              "internalType": "address",
              "name": "feecurrencyid",
              "type": "address"
            },
            {
              "internalType": "uint256",
              "name": "fees",
              "type": "uint256"
            },
            {
              "components": [
                {
                  "internalType": "uint8",
                  "name": "destinationtype",
                  "type": "uint8"
                },
                {
                  "internalType": "bytes",
                  "name": "destinationaddress",
                  "type": "bytes"
                }
              ],
              "internalType": "struct VerusObjectsCommon.CTransferDestination",
              "name": "destination",
              "type": "tuple"
            },
            {
              "internalType": "address",
              "name": "destcurrencyid",
              "type": "address"
            },
            {
              "internalType": "address",
              "name": "destsystemid",
              "type": "address"
            },
            {
              "internalType": "address",
              "name": "secondreserveid",
              "type": "address"
            }
          ],
          "internalType": "struct VerusObjects.CReserveTransfer",
          "name": "ct",
          "type": "tuple"
        }
      ],
      "name": "serializeCReserveTransfer",
      "outputs": [
        {
          "internalType": "bytes",
          "name": "",
          "type": "bytes"
        }
      ],
      "stateMutability": "pure",
      "type": "function",
      "constant": true
    },
    {
      "inputs": [
        {
          "components": [
            {
              "internalType": "uint32",
              "name": "version",
              "type": "uint32"
            },
            {
              "components": [
                {
                  "internalType": "address",
                  "name": "currency",
                  "type": "address"
                },
                {
                  "internalType": "uint64",
                  "name": "amount",
                  "type": "uint64"
                }
              ],
              "internalType": "struct VerusObjects.CCurrencyValueMap",
              "name": "currencyvalue",
              "type": "tuple"
            },
            {
              "internalType": "uint32",
              "name": "flags",
              "type": "uint32"
            },
            {
              "internalType": "address",
              "name": "feecurrencyid",
              "type": "address"
            },
            {
              "internalType": "uint256",
              "name": "fees",
              "type": "uint256"
            },
            {
              "components": [
                {
                  "internalType": "uint8",
                  "name": "destinationtype",
                  "type": "uint8"
                },
                {
                  "internalType": "bytes",
                  "name": "destinationaddress",
                  "type": "bytes"
                }
              ],
              "internalType": "struct VerusObjectsCommon.CTransferDestination",
              "name": "destination",
              "type": "tuple"
            },
            {
              "internalType": "address",
              "name": "destcurrencyid",
              "type": "address"
            },
            {
              "internalType": "address",
              "name": "destsystemid",
              "type": "address"
            },
            {
              "internalType": "address",
              "name": "secondreserveid",
              "type": "address"
            }
          ],
          "internalType": "struct VerusObjects.CReserveTransfer[]",
          "name": "_bts",
          "type": "tuple[]"
        },
        {
          "internalType": "bool",
          "name": "includeSize",
          "type": "bool"
        }
      ],
      "name": "serializeCReserveTransfers",
      "outputs": [
        {
          "internalType": "bytes",
          "name": "",
          "type": "bytes"
        }
      ],
      "stateMutability": "pure",
      "type": "function",
      "constant": true
    },
    {
      "inputs": [
        {
          "components": [
            {
              "internalType": "bytes32",
              "name": "hash",
              "type": "bytes32"
            },
            {
              "internalType": "uint32",
              "name": "n",
              "type": "uint32"
            }
          ],
          "internalType": "struct VerusObjectsNotarization.CUTXORef",
          "name": "_cutxo",
          "type": "tuple"
        }
      ],
      "name": "serializeCUTXORef",
      "outputs": [
        {
          "internalType": "bytes",
          "name": "",
          "type": "bytes"
        }
      ],
      "stateMutability": "pure",
      "type": "function",
      "constant": true
    },
    {
      "inputs": [
        {
          "components": [
            {
              "internalType": "int16",
              "name": "version",
              "type": "int16"
            },
            {
              "internalType": "int16",
              "name": "cprtype",
              "type": "int16"
            },
            {
              "internalType": "address",
              "name": "systemid",
              "type": "address"
            },
            {
              "internalType": "uint32",
              "name": "rootheight",
              "type": "uint32"
            },
            {
              "internalType": "bytes32",
              "name": "stateroot",
              "type": "bytes32"
            },
            {
              "internalType": "bytes32",
              "name": "blockhash",
              "type": "bytes32"
            },
            {
              "internalType": "bytes32",
              "name": "compactpower",
              "type": "bytes32"
            }
          ],
          "internalType": "struct VerusObjectsNotarization.CProofRoot",
          "name": "_cpr",
          "type": "tuple"
        }
      ],
      "name": "serializeCProofRoot",
      "outputs": [
        {
          "internalType": "bytes",
          "name": "",
          "type": "bytes"
        }
      ],
      "stateMutability": "pure",
      "type": "function",
      "constant": true
    },
    {
      "inputs": [
        {
          "components": [
            {
              "internalType": "address",
              "name": "currencyid",
              "type": "address"
            },
            {
              "components": [
                {
                  "internalType": "int16",
                  "name": "version",
                  "type": "int16"
                },
                {
                  "internalType": "int16",
                  "name": "cprtype",
                  "type": "int16"
                },
                {
                  "internalType": "address",
                  "name": "systemid",
                  "type": "address"
                },
                {
                  "internalType": "uint32",
                  "name": "rootheight",
                  "type": "uint32"
                },
                {
                  "internalType": "bytes32",
                  "name": "stateroot",
                  "type": "bytes32"
                },
                {
                  "internalType": "bytes32",
                  "name": "blockhash",
                  "type": "bytes32"
                },
                {
                  "internalType": "bytes32",
                  "name": "compactpower",
                  "type": "bytes32"
                }
              ],
              "internalType": "struct VerusObjectsNotarization.CProofRoot",
              "name": "proofroot",
              "type": "tuple"
            }
          ],
          "internalType": "struct VerusObjectsNotarization.ProofRoots",
          "name": "_prs",
          "type": "tuple"
        }
      ],
      "name": "serializeProofRoots",
      "outputs": [
        {
          "internalType": "bytes",
          "name": "",
          "type": "bytes"
        }
      ],
      "stateMutability": "pure",
      "type": "function",
      "constant": true
    },
    {
      "inputs": [
        {
          "components": [
            {
              "internalType": "address",
              "name": "currencyid",
              "type": "address"
            },
            {
              "components": [
                {
                  "internalType": "int16",
                  "name": "version",
                  "type": "int16"
                },
                {
                  "internalType": "int16",
                  "name": "cprtype",
                  "type": "int16"
                },
                {
                  "internalType": "address",
                  "name": "systemid",
                  "type": "address"
                },
                {
                  "internalType": "uint32",
                  "name": "rootheight",
                  "type": "uint32"
                },
                {
                  "internalType": "bytes32",
                  "name": "stateroot",
                  "type": "bytes32"
                },
                {
                  "internalType": "bytes32",
                  "name": "blockhash",
                  "type": "bytes32"
                },
                {
                  "internalType": "bytes32",
                  "name": "compactpower",
                  "type": "bytes32"
                }
              ],
              "internalType": "struct VerusObjectsNotarization.CProofRoot",
              "name": "proofroot",
              "type": "tuple"
            }
          ],
          "internalType": "struct VerusObjectsNotarization.ProofRoots[]",
          "name": "_prsa",
          "type": "tuple[]"
        }
      ],
      "name": "serializeProofRootsArray",
      "outputs": [
        {
          "internalType": "bytes",
          "name": "",
          "type": "bytes"
        }
      ],
      "stateMutability": "pure",
      "type": "function",
      "constant": true
    },
    {
      "inputs": [
        {
          "components": [
            {
              "internalType": "int16",
              "name": "version",
              "type": "int16"
            },
            {
              "internalType": "int16",
              "name": "cprtype",
              "type": "int16"
            },
            {
              "internalType": "address",
              "name": "systemid",
              "type": "address"
            },
            {
              "internalType": "uint32",
              "name": "rootheight",
              "type": "uint32"
            },
            {
              "internalType": "bytes32",
              "name": "stateroot",
              "type": "bytes32"
            },
            {
              "internalType": "bytes32",
              "name": "blockhash",
              "type": "bytes32"
            },
            {
              "internalType": "bytes32",
              "name": "compactpower",
              "type": "bytes32"
            }
          ],
          "internalType": "struct VerusObjectsNotarization.CProofRoot[]",
          "name": "_prsa",
          "type": "tuple[]"
        }
      ],
      "name": "serializeCProofRootArray",
      "outputs": [
        {
          "internalType": "bytes",
          "name": "",
          "type": "bytes"
        }
      ],
      "stateMutability": "pure",
      "type": "function",
      "constant": true
    },
    {
      "inputs": [
        {
          "components": [
            {
              "internalType": "uint16",
              "name": "version",
              "type": "uint16"
            },
            {
              "internalType": "uint16",
              "name": "flags",
              "type": "uint16"
            },
            {
              "internalType": "address",
              "name": "currencyid",
              "type": "address"
            },
            {
              "internalType": "uint160[]",
              "name": "currencies",
              "type": "uint160[]"
            },
            {
              "internalType": "int32[]",
              "name": "weights",
              "type": "int32[]"
            },
            {
              "internalType": "int64[]",
              "name": "reserves",
              "type": "int64[]"
            },
            {
              "internalType": "int64",
              "name": "initialsupply",
              "type": "int64"
            },
            {
              "internalType": "int64",
              "name": "emitted",
              "type": "int64"
            },
            {
              "internalType": "int64",
              "name": "supply",
              "type": "int64"
            },
            {
              "internalType": "int64",
              "name": "primarycurrencyout",
              "type": "int64"
            },
            {
              "internalType": "int64",
              "name": "preconvertedout",
              "type": "int64"
            },
            {
              "internalType": "int64",
              "name": "primarycurrencyfees",
              "type": "int64"
            },
            {
              "internalType": "int64",
              "name": "primarycurrencyconversionfees",
              "type": "int64"
            },
            {
              "internalType": "int64[]",
              "name": "reservein",
              "type": "int64[]"
            },
            {
              "internalType": "int64[]",
              "name": "primarycurrencyin",
              "type": "int64[]"
            },
            {
              "internalType": "int64[]",
              "name": "reserveout",
              "type": "int64[]"
            },
            {
              "internalType": "int64[]",
              "name": "conversionprice",
              "type": "int64[]"
            },
            {
              "internalType": "int64[]",
              "name": "viaconversionprice",
              "type": "int64[]"
            },
            {
              "internalType": "int64[]",
              "name": "fees",
              "type": "int64[]"
            },
            {
              "internalType": "int32[]",
              "name": "priorweights",
              "type": "int32[]"
            },
            {
              "internalType": "int64[]",
              "name": "conversionfees",
              "type": "int64[]"
            }
          ],
          "internalType": "struct VerusObjectsNotarization.CCoinbaseCurrencyState",
          "name": "_cccs",
          "type": "tuple"
        }
      ],
      "name": "serializeCCoinbaseCurrencyState",
      "outputs": [
        {
          "internalType": "bytes",
          "name": "",
          "type": "bytes"
        }
      ],
      "stateMutability": "pure",
      "type": "function",
      "constant": true
    },
    {
      "inputs": [
        {
          "components": [
            {
              "internalType": "address",
              "name": "currencyid",
              "type": "address"
            },
            {
              "components": [
                {
                  "internalType": "uint16",
                  "name": "version",
                  "type": "uint16"
                },
                {
                  "internalType": "uint16",
                  "name": "flags",
                  "type": "uint16"
                },
                {
                  "internalType": "address",
                  "name": "currencyid",
                  "type": "address"
                },
                {
                  "internalType": "uint160[]",
                  "name": "currencies",
                  "type": "uint160[]"
                },
                {
                  "internalType": "int32[]",
                  "name": "weights",
                  "type": "int32[]"
                },
                {
                  "internalType": "int64[]",
                  "name": "reserves",
                  "type": "int64[]"
                },
                {
                  "internalType": "int64",
                  "name": "initialsupply",
                  "type": "int64"
                },
                {
                  "internalType": "int64",
                  "name": "emitted",
                  "type": "int64"
                },
                {
                  "internalType": "int64",
                  "name": "supply",
                  "type": "int64"
                },
                {
                  "internalType": "int64",
                  "name": "primarycurrencyout",
                  "type": "int64"
                },
                {
                  "internalType": "int64",
                  "name": "preconvertedout",
                  "type": "int64"
                },
                {
                  "internalType": "int64",
                  "name": "primarycurrencyfees",
                  "type": "int64"
                },
                {
                  "internalType": "int64",
                  "name": "primarycurrencyconversionfees",
                  "type": "int64"
                },
                {
                  "internalType": "int64[]",
                  "name": "reservein",
                  "type": "int64[]"
                },
                {
                  "internalType": "int64[]",
                  "name": "primarycurrencyin",
                  "type": "int64[]"
                },
                {
                  "internalType": "int64[]",
                  "name": "reserveout",
                  "type": "int64[]"
                },
                {
                  "internalType": "int64[]",
                  "name": "conversionprice",
                  "type": "int64[]"
                },
                {
                  "internalType": "int64[]",
                  "name": "viaconversionprice",
                  "type": "int64[]"
                },
                {
                  "internalType": "int64[]",
                  "name": "fees",
                  "type": "int64[]"
                },
                {
                  "internalType": "int32[]",
                  "name": "priorweights",
                  "type": "int32[]"
                },
                {
                  "internalType": "int64[]",
                  "name": "conversionfees",
                  "type": "int64[]"
                }
              ],
              "internalType": "struct VerusObjectsNotarization.CCoinbaseCurrencyState",
              "name": "currencystate",
              "type": "tuple"
            }
          ],
          "internalType": "struct VerusObjectsNotarization.CurrencyStates",
          "name": "_cs",
          "type": "tuple"
        }
      ],
      "name": "serializeCurrencyStates",
      "outputs": [
        {
          "internalType": "bytes",
          "name": "",
          "type": "bytes"
        }
      ],
      "stateMutability": "pure",
      "type": "function",
      "constant": true
    },
    {
      "inputs": [
        {
          "components": [
            {
              "internalType": "address",
              "name": "currencyid",
              "type": "address"
            },
            {
              "components": [
                {
                  "internalType": "uint16",
                  "name": "version",
                  "type": "uint16"
                },
                {
                  "internalType": "uint16",
                  "name": "flags",
                  "type": "uint16"
                },
                {
                  "internalType": "address",
                  "name": "currencyid",
                  "type": "address"
                },
                {
                  "internalType": "uint160[]",
                  "name": "currencies",
                  "type": "uint160[]"
                },
                {
                  "internalType": "int32[]",
                  "name": "weights",
                  "type": "int32[]"
                },
                {
                  "internalType": "int64[]",
                  "name": "reserves",
                  "type": "int64[]"
                },
                {
                  "internalType": "int64",
                  "name": "initialsupply",
                  "type": "int64"
                },
                {
                  "internalType": "int64",
                  "name": "emitted",
                  "type": "int64"
                },
                {
                  "internalType": "int64",
                  "name": "supply",
                  "type": "int64"
                },
                {
                  "internalType": "int64",
                  "name": "primarycurrencyout",
                  "type": "int64"
                },
                {
                  "internalType": "int64",
                  "name": "preconvertedout",
                  "type": "int64"
                },
                {
                  "internalType": "int64",
                  "name": "primarycurrencyfees",
                  "type": "int64"
                },
                {
                  "internalType": "int64",
                  "name": "primarycurrencyconversionfees",
                  "type": "int64"
                },
                {
                  "internalType": "int64[]",
                  "name": "reservein",
                  "type": "int64[]"
                },
                {
                  "internalType": "int64[]",
                  "name": "primarycurrencyin",
                  "type": "int64[]"
                },
                {
                  "internalType": "int64[]",
                  "name": "reserveout",
                  "type": "int64[]"
                },
                {
                  "internalType": "int64[]",
                  "name": "conversionprice",
                  "type": "int64[]"
                },
                {
                  "internalType": "int64[]",
                  "name": "viaconversionprice",
                  "type": "int64[]"
                },
                {
                  "internalType": "int64[]",
                  "name": "fees",
                  "type": "int64[]"
                },
                {
                  "internalType": "int32[]",
                  "name": "priorweights",
                  "type": "int32[]"
                },
                {
                  "internalType": "int64[]",
                  "name": "conversionfees",
                  "type": "int64[]"
                }
              ],
              "internalType": "struct VerusObjectsNotarization.CCoinbaseCurrencyState",
              "name": "currencystate",
              "type": "tuple"
            }
          ],
          "internalType": "struct VerusObjectsNotarization.CurrencyStates[]",
          "name": "_csa",
          "type": "tuple[]"
        }
      ],
      "name": "serializeCurrencyStatesArray",
      "outputs": [
        {
          "internalType": "bytes",
          "name": "",
          "type": "bytes"
        }
      ],
      "stateMutability": "pure",
      "type": "function",
      "constant": true
    },
    {
      "inputs": [
        {
          "components": [
            {
              "internalType": "uint32",
              "name": "version",
              "type": "uint32"
            },
            {
              "internalType": "uint32",
              "name": "flags",
              "type": "uint32"
            },
            {
              "components": [
                {
                  "internalType": "uint8",
                  "name": "destinationtype",
                  "type": "uint8"
                },
                {
                  "internalType": "bytes",
                  "name": "destinationaddress",
                  "type": "bytes"
                }
              ],
              "internalType": "struct VerusObjectsCommon.CTransferDestination",
              "name": "proposer",
              "type": "tuple"
            },
            {
              "internalType": "address",
              "name": "currencyid",
              "type": "address"
            },
            {
              "components": [
                {
                  "internalType": "uint16",
                  "name": "version",
                  "type": "uint16"
                },
                {
                  "internalType": "uint16",
                  "name": "flags",
                  "type": "uint16"
                },
                {
                  "internalType": "address",
                  "name": "currencyid",
                  "type": "address"
                },
                {
                  "internalType": "uint160[]",
                  "name": "currencies",
                  "type": "uint160[]"
                },
                {
                  "internalType": "int32[]",
                  "name": "weights",
                  "type": "int32[]"
                },
                {
                  "internalType": "int64[]",
                  "name": "reserves",
                  "type": "int64[]"
                },
                {
                  "internalType": "int64",
                  "name": "initialsupply",
                  "type": "int64"
                },
                {
                  "internalType": "int64",
                  "name": "emitted",
                  "type": "int64"
                },
                {
                  "internalType": "int64",
                  "name": "supply",
                  "type": "int64"
                },
                {
                  "internalType": "int64",
                  "name": "primarycurrencyout",
                  "type": "int64"
                },
                {
                  "internalType": "int64",
                  "name": "preconvertedout",
                  "type": "int64"
                },
                {
                  "internalType": "int64",
                  "name": "primarycurrencyfees",
                  "type": "int64"
                },
                {
                  "internalType": "int64",
                  "name": "primarycurrencyconversionfees",
                  "type": "int64"
                },
                {
                  "internalType": "int64[]",
                  "name": "reservein",
                  "type": "int64[]"
                },
                {
                  "internalType": "int64[]",
                  "name": "primarycurrencyin",
                  "type": "int64[]"
                },
                {
                  "internalType": "int64[]",
                  "name": "reserveout",
                  "type": "int64[]"
                },
                {
                  "internalType": "int64[]",
                  "name": "conversionprice",
                  "type": "int64[]"
                },
                {
                  "internalType": "int64[]",
                  "name": "viaconversionprice",
                  "type": "int64[]"
                },
                {
                  "internalType": "int64[]",
                  "name": "fees",
                  "type": "int64[]"
                },
                {
                  "internalType": "int32[]",
                  "name": "priorweights",
                  "type": "int32[]"
                },
                {
                  "internalType": "int64[]",
                  "name": "conversionfees",
                  "type": "int64[]"
                }
              ],
              "internalType": "struct VerusObjectsNotarization.CCoinbaseCurrencyState",
              "name": "currencystate",
              "type": "tuple"
            },
            {
              "internalType": "uint32",
              "name": "notarizationheight",
              "type": "uint32"
            },
            {
              "components": [
                {
                  "internalType": "bytes32",
                  "name": "hash",
                  "type": "bytes32"
                },
                {
                  "internalType": "uint32",
                  "name": "n",
                  "type": "uint32"
                }
              ],
              "internalType": "struct VerusObjectsNotarization.CUTXORef",
              "name": "prevnotarization",
              "type": "tuple"
            },
            {
              "internalType": "bytes32",
              "name": "hashprevnotarization",
              "type": "bytes32"
            },
            {
              "internalType": "uint32",
              "name": "prevheight",
              "type": "uint32"
            },
            {
              "components": [
                {
                  "internalType": "address",
                  "name": "currencyid",
                  "type": "address"
                },
                {
                  "components": [
                    {
                      "internalType": "uint16",
                      "name": "version",
                      "type": "uint16"
                    },
                    {
                      "internalType": "uint16",
                      "name": "flags",
                      "type": "uint16"
                    },
                    {
                      "internalType": "address",
                      "name": "currencyid",
                      "type": "address"
                    },
                    {
                      "internalType": "uint160[]",
                      "name": "currencies",
                      "type": "uint160[]"
                    },
                    {
                      "internalType": "int32[]",
                      "name": "weights",
                      "type": "int32[]"
                    },
                    {
                      "internalType": "int64[]",
                      "name": "reserves",
                      "type": "int64[]"
                    },
                    {
                      "internalType": "int64",
                      "name": "initialsupply",
                      "type": "int64"
                    },
                    {
                      "internalType": "int64",
                      "name": "emitted",
                      "type": "int64"
                    },
                    {
                      "internalType": "int64",
                      "name": "supply",
                      "type": "int64"
                    },
                    {
                      "internalType": "int64",
                      "name": "primarycurrencyout",
                      "type": "int64"
                    },
                    {
                      "internalType": "int64",
                      "name": "preconvertedout",
                      "type": "int64"
                    },
                    {
                      "internalType": "int64",
                      "name": "primarycurrencyfees",
                      "type": "int64"
                    },
                    {
                      "internalType": "int64",
                      "name": "primarycurrencyconversionfees",
                      "type": "int64"
                    },
                    {
                      "internalType": "int64[]",
                      "name": "reservein",
                      "type": "int64[]"
                    },
                    {
                      "internalType": "int64[]",
                      "name": "primarycurrencyin",
                      "type": "int64[]"
                    },
                    {
                      "internalType": "int64[]",
                      "name": "reserveout",
                      "type": "int64[]"
                    },
                    {
                      "internalType": "int64[]",
                      "name": "conversionprice",
                      "type": "int64[]"
                    },
                    {
                      "internalType": "int64[]",
                      "name": "viaconversionprice",
                      "type": "int64[]"
                    },
                    {
                      "internalType": "int64[]",
                      "name": "fees",
                      "type": "int64[]"
                    },
                    {
                      "internalType": "int32[]",
                      "name": "priorweights",
                      "type": "int32[]"
                    },
                    {
                      "internalType": "int64[]",
                      "name": "conversionfees",
                      "type": "int64[]"
                    }
                  ],
                  "internalType": "struct VerusObjectsNotarization.CCoinbaseCurrencyState",
                  "name": "currencystate",
                  "type": "tuple"
                }
              ],
              "internalType": "struct VerusObjectsNotarization.CurrencyStates[]",
              "name": "currencystates",
              "type": "tuple[]"
            },
            {
              "components": [
                {
                  "internalType": "int16",
                  "name": "version",
                  "type": "int16"
                },
                {
                  "internalType": "int16",
                  "name": "cprtype",
                  "type": "int16"
                },
                {
                  "internalType": "address",
                  "name": "systemid",
                  "type": "address"
                },
                {
                  "internalType": "uint32",
                  "name": "rootheight",
                  "type": "uint32"
                },
                {
                  "internalType": "bytes32",
                  "name": "stateroot",
                  "type": "bytes32"
                },
                {
                  "internalType": "bytes32",
                  "name": "blockhash",
                  "type": "bytes32"
                },
                {
                  "internalType": "bytes32",
                  "name": "compactpower",
                  "type": "bytes32"
                }
              ],
              "internalType": "struct VerusObjectsNotarization.CProofRoot[]",
              "name": "proofroots",
              "type": "tuple[]"
            },
            {
              "components": [
                {
                  "internalType": "string",
                  "name": "networkaddress",
                  "type": "string"
                },
                {
                  "internalType": "address",
                  "name": "nodeidentity",
                  "type": "address"
                }
              ],
              "internalType": "struct VerusObjectsNotarization.CNodeData[]",
              "name": "nodes",
              "type": "tuple[]"
            }
          ],
          "internalType": "struct VerusObjectsNotarization.CPBaaSNotarization",
          "name": "_not",
          "type": "tuple"
        }
      ],
      "name": "serializeCPBaaSNotarization",
      "outputs": [
        {
          "internalType": "bytes",
          "name": "",
          "type": "bytes"
        }
      ],
      "stateMutability": "pure",
      "type": "function",
      "constant": true
    },
    {
      "inputs": [
        {
          "components": [
            {
              "internalType": "string",
              "name": "networkaddress",
              "type": "string"
            },
            {
              "internalType": "address",
              "name": "nodeidentity",
              "type": "address"
            }
          ],
          "internalType": "struct VerusObjectsNotarization.CNodeData[]",
          "name": "_cnds",
          "type": "tuple[]"
        }
      ],
      "name": "serializeNodes",
      "outputs": [
        {
          "internalType": "bytes",
          "name": "",
          "type": "bytes"
        }
      ],
      "stateMutability": "pure",
      "type": "function",
      "constant": true
    },
    {
      "inputs": [
        {
          "components": [
            {
              "internalType": "string",
              "name": "networkaddress",
              "type": "string"
            },
            {
              "internalType": "address",
              "name": "nodeidentity",
              "type": "address"
            }
          ],
          "internalType": "struct VerusObjectsNotarization.CNodeData",
          "name": "_cnd",
          "type": "tuple"
        }
      ],
      "name": "serializeCNodeData",
      "outputs": [
        {
          "internalType": "bytes",
          "name": "",
          "type": "bytes"
        }
      ],
      "stateMutability": "pure",
      "type": "function",
      "constant": true
    },
    {
      "inputs": [
        {
          "components": [
            {
              "internalType": "uint16",
              "name": "version",
              "type": "uint16"
            },
            {
              "internalType": "uint16",
              "name": "flags",
              "type": "uint16"
            },
            {
              "internalType": "address",
              "name": "sourcesystemid",
              "type": "address"
            },
            {
              "internalType": "uint32",
              "name": "sourceheightstart",
              "type": "uint32"
            },
            {
              "internalType": "uint32",
              "name": "sourceheightend",
              "type": "uint32"
            },
            {
              "internalType": "address",
              "name": "destinationsystemid",
              "type": "address"
            },
            {
              "internalType": "address",
              "name": "destinationcurrencyid",
              "type": "address"
            },
            {
              "internalType": "uint32",
              "name": "numinputs",
              "type": "uint32"
            },
            {
              "components": [
                {
                  "internalType": "address",
                  "name": "currency",
                  "type": "address"
                },
                {
                  "internalType": "uint64",
                  "name": "amount",
                  "type": "uint64"
                }
              ],
              "internalType": "struct VerusObjects.CCurrencyValueMap[]",
              "name": "totalamounts",
              "type": "tuple[]"
            },
            {
              "components": [
                {
                  "internalType": "address",
                  "name": "currency",
                  "type": "address"
                },
                {
                  "internalType": "uint64",
                  "name": "amount",
                  "type": "uint64"
                }
              ],
              "internalType": "struct VerusObjects.CCurrencyValueMap[]",
              "name": "totalfees",
              "type": "tuple[]"
            },
            {
              "internalType": "bytes32",
              "name": "hashtransfers",
              "type": "bytes32"
            },
            {
              "components": [
                {
                  "internalType": "address",
                  "name": "currency",
                  "type": "address"
                },
                {
                  "internalType": "uint64",
                  "name": "amount",
                  "type": "uint64"
                }
              ],
              "internalType": "struct VerusObjects.CCurrencyValueMap[]",
              "name": "totalburned",
              "type": "tuple[]"
            },
            {
              "components": [
                {
                  "internalType": "uint8",
                  "name": "destinationtype",
                  "type": "uint8"
                },
                {
                  "internalType": "bytes",
                  "name": "destinationaddress",
                  "type": "bytes"
                }
              ],
              "internalType": "struct VerusObjectsCommon.CTransferDestination",
              "name": "rewardaddress",
              "type": "tuple"
            },
            {
              "internalType": "int32",
              "name": "firstinput",
              "type": "int32"
            }
          ],
          "internalType": "struct VerusObjects.CCrossChainExport",
          "name": "_ccce",
          "type": "tuple"
        }
      ],
      "name": "serializeCCrossChainExport",
      "outputs": [
        {
          "internalType": "bytes",
          "name": "",
          "type": "bytes"
        }
      ],
      "stateMutability": "pure",
      "type": "function",
      "constant": true
    },
    {
      "inputs": [
        {
          "internalType": "bytes",
          "name": "incoming",
          "type": "bytes"
        }
      ],
      "name": "flipArray",
      "outputs": [
        {
          "internalType": "bytes",
          "name": "",
          "type": "bytes"
        }
      ],
      "stateMutability": "pure",
      "type": "function",
      "constant": true
    }
  ],
  "bytecode": "0x608060405234801561001057600080fd5b50614058806100206000396000f3fe608060405234801561001057600080fd5b50600436106102265760003560e01c80636fa0ee5711610130578063c93e58c8116100b8578063e4cba5471161007c578063e4cba5471461082b578063eba973e31461085b578063f20fb8301461088b578063f8217295146108bb578063fef5906a146108eb57610226565b8063c93e58c81461073b578063cecb30431461076b578063cfa84de91461079b578063dad935a1146107cb578063e0671111146107fb57610226565b8063a412bb29116100ff578063a412bb291461064b578063af832f091461067b578063b3a895f6146106ab578063b9f7f35a146106db578063c6abba5f1461070b57610226565b80636fa0ee571461058b5780637b92bd28146105bb578063941bb060146105eb5780639d487b471461061b57610226565b8063241d23b2116101b35780634625600711610182578063462560071461049b578063463276c3146104cb5780634df1c246146104fb5780636127b4ff1461052b57806368b4ae811461055b57610226565b8063241d23b2146103db57806333c45ab91461040b5780633b7cc0a21461043b57806344c789d11461046b57610226565b8063122e5ae7116101fa578063122e5ae7146102eb57806318c9bbfd1461031b57806319a7c17b1461034b5780631c3565321461037b578063200f6c2a146103ab57610226565b80629c81521461022b578063049e34901461025b5780630a803a861461028b5780631222d81a146102bb575b600080fd5b61024560048036038101906102409190612d6c565b61091b565b60405161025291906139f9565b60405180910390f35b61027560048036038101906102709190612bd3565b610944565b60405161028291906139f9565b60405180910390f35b6102a560048036038101906102a09190612f8b565b6109b5565b6040516102b291906139f9565b60405180910390f35b6102d560048036038101906102d09190612de7565b610b62565b6040516102e291906139f9565b60405180910390f35b61030560048036038101906103009190613272565b610c33565b60405161031291906139f9565b60405180910390f35b610335600480360381019061033091906130b8565b610c6a565b60405161034291906139f9565b60405180910390f35b61036560048036038101906103609190612d2b565b610d01565b60405161037291906139f9565b60405180910390f35b61039560048036038101906103909190613163565b610d89565b6040516103a291906139f9565b60405180910390f35b6103c560048036038101906103c09190612ca9565b610dcc565b6040516103d291906139f9565b60405180910390f35b6103f560048036038101906103f09190612ae7565b610e3d565b60405161040291906139f9565b60405180910390f35b610425600480360381019061042091906131cd565b610e6c565b60405161043291906139f9565b60405180910390f35b61045560048036038101906104509190612c55565b610eaf565b60405161046291906139f9565b60405180910390f35b61048560048036038101906104809190613036565b610f28565b60405161049291906139f9565b60405180910390f35b6104b560048036038101906104b09190612e28565b610f6b565b6040516104c291906139f9565b60405180910390f35b6104e560048036038101906104e09190612d95565b610fa2565b6040516104f291906139f9565b60405180910390f35b610515600480360381019061051091906130e1565b610fcb565b60405161052291906139f9565b60405180910390f35b6105456004803603810190610540919061329b565b611135565b60405161055291906139f9565b60405180910390f35b61057560048036038101906105709190612ea3565b61116c565b60405161058291906139f9565b60405180910390f35b6105a560048036038101906105a09190612fcc565b6111c4565b6040516105b291906139f9565b60405180910390f35b6105d560048036038101906105d09190612cea565b611319565b6040516105e291906139f9565b60405180910390f35b61060560048036038101906106009190612b92565b61138a565b60405161061291906139f9565b60405180910390f35b61063560048036038101906106309190612b10565b6113fb565b60405161064291906139f9565b60405180910390f35b61066560048036038101906106609190612c14565b61146c565b60405161067291906139f9565b60405180910390f35b61069560048036038101906106909190612e7a565b6114dd565b6040516106a291906139f9565b60405180910390f35b6106c560048036038101906106c09190613220565b611514565b6040516106d291906139f9565b60405180910390f35b6106f560048036038101906106f09190612dbe565b61159c565b60405161070291906139f9565b60405180910390f35b61072560048036038101906107209190613122565b6115cd565b60405161073291906139f9565b60405180910390f35b61075560048036038101906107509190612ee4565b611613565b60405161076291906139f9565b60405180910390f35b61078560048036038101906107809190613249565b611668565b60405161079291906139f9565b60405180910390f35b6107b560048036038101906107b0919061300d565b61169f565b6040516107c291906139f9565b60405180910390f35b6107e560048036038101906107e09190613220565b6116e2565b6040516107f291906139f9565b60405180910390f35b6108156004803603810190610810919061318c565b6117b1565b60405161082291906139f9565b60405180910390f35b610845600480360381019061084091906131f7565b6117f4565b60405161085291906139f9565b60405180910390f35b61087560048036038101906108709190613077565b61182b565b60405161088291906139f9565b60405180910390f35b6108a560048036038101906108a09190613220565b61190a565b6040516108b291906139f9565b60405180910390f35b6108d560048036038101906108d09190612b51565b611941565b6040516108e291906139f9565b60405180910390f35b61090560048036038101906109009190612e51565b6119d1565b60405161091291906139f9565b60405180910390f35b60608160405160200161092e91906134bc565b6040516020818303038152906040529050919050565b60608061095183516116e2565b905060005b83518110156109ab578161097c85838151811061096f57fe5b6020026020010151610f28565b60405160200161098d929190613535565b60405160208183030381529060405291508080600101915050610956565b5080915050919050565b606060006109c683600001516117f4565b6109d384602001516117f4565b6109e08560400151610e3d565b6109ed8660600151610d01565b6109fa87608001516113fb565b610a078860a00151611941565b610a178960c0015160070b611514565b610a278a60e0015160070b611514565b610a388b610100015160070b611514565b604051602001610a5099989796959493929190613722565b60405160208183030381529060405290506000610a718461012001516114dd565b610a7f8561014001516114dd565b610a8d8661016001516114dd565b610a9b8761018001516114dd565b610aa9886101a00151611941565b610ab7896101c00151611941565b610ac58a6101e00151611941565b610ad38b6102000151611941565b610ae18c6102200151611941565b610aef8d6102400151611941565b610afd8e61026001516113fb565b610b0b8f6102800151611941565b604051602001610b269c9b9a999897969594939291906137a1565b60405160208183030381529060405290508181604051602001610b4a929190613535565b60405160208183030381529060405292505050919050565b606060008251905060008167ffffffffffffffff81118015610b8357600080fd5b506040519080825280601f01601f191660200182016040528015610bb65781602001600182028036833780820191505090505b50905060005b82811015610c28578460018285030381518110610bd557fe5b602001015160f81c60f81b828281518110610bec57fe5b60200101907effffffffffffffffffffffffffffffffffffffffffffffffffffffffffffff1916908160001a9053508080600101915050610bbc565b819350505050919050565b6060600082604051602001610c48919061393f565b6040516020818303038152906040529050610c6281610b62565b915050919050565b6060610c798260400151610e3d565b610c868360000151610f6b565b610c938460200151610f6b565b610ca08560400151610e3d565b610cad8660600151611668565b610cba876080015161159c565b610cc78860a0015161159c565b610cd48960c0015161159c565b604051602001610ceb9897969594939291906136b0565b6040516020818303038152906040529050919050565b606080610d0e83516116e2565b905060005b8351811015610d7f5781848281518110610d2957fe5b6020026020010151604051602001610d4191906138d3565b604051602081830303815290604052604051602001610d61929190613535565b60405160208183030381529060405291508080600101915050610d13565b5080915050919050565b6060610d98826000015161159c565b610da58360200151611668565b604051602001610db6929190613535565b6040516020818303038152906040529050919050565b606080610dd983516116e2565b905060005b8351811015610e335781610e04858381518110610df757fe5b60200260200101516117b1565b604051602001610e15929190613535565b60405160208183030381529060405291508080600101915050610dde565b5080915050919050565b6060600082604051602001610e5291906134a1565b604051602081830303815290604052905080915050919050565b6060610e7b8260000151610e3d565b610e888360200151610c6a565b604051602001610e99929190613535565b6040516020818303038152906040529050919050565b6060808215610ec557610ec284516116e2565b90505b60005b8451811015610f1d5781610eee868381518110610ee157fe5b6020026020010151610fcb565b604051602001610eff929190613535565b60405160208183030381529060405291508080600101915050610ec8565b508091505092915050565b6060610f37826000015161116c565b610f448360200151610e3d565b604051602001610f55929190613535565b6040516020818303038152906040529050919050565b6060600082604051602001610f80919061386b565b6040516020818303038152906040529050610f9a81610b62565b915050919050565b606081604051602001610fb591906134d7565b6040516020818303038152906040529050919050565b60606000610fe2836000015163ffffffff16611514565b610ff3846020015160000151610e3d565b61100e85602001516020015167ffffffffffffffff16611514565b60405160200161101f929190613535565b604051602081830303815290604052611041856040015163ffffffff16611514565b61104e8660600151610e3d565b61105b8760800151611514565b6110688860a001516115cd565b6110758960c00151610e3d565b60405160200161108b97969594939291906135d5565b6040516020818303038152906040529050600061040084604001511663ffffffff1611156110e557806110c2846101000151610e3d565b6040516020016110d3929190613535565b60405160208183030381529060405290505b6000604084604001511663ffffffff16111561112c57806111098460e00151610e3d565b60405160200161111a929190613535565b60405160208183030381529060405290505b80915050919050565b606060008260405160200161114a919061395a565b604051602081830303815290604052905061116481610b62565b915050919050565b6060808260405160200161118091906138bc565b604051602081830303815290604052905061119b81516116e2565b836040516020016111ad929190613847565b604051602081830303815290604052915050919050565b606060006111d583600001516117f4565b6111e284602001516117f4565b6111ef8560400151610e3d565b611202866060015163ffffffff16611514565b611215876080015163ffffffff16611514565b6112228860a00151610e3d565b61122f8960c00151610e3d565b60405160200161124597969594939291906135d5565b604051602081830303815290604052905060006112658460e00151611668565b61127385610100015161138a565b61128186610120015161138a565b61129761129288610140015161159c565b610b62565b6112a588610160015161138a565b6112b38961018001516115cd565b6112c18a6101a001516119d1565b600060f81b6040516020016112dd98979695949392919061363a565b60405160208183030381529060405290508181604051602001611301929190613535565b60405160208183030381529060405292505050919050565b60608061132683516116e2565b905060005b8351811015611380578161135185838151811061134457fe5b6020026020010151610e6c565b604051602001611362929190613535565b6040516020818303038152906040529150808060010191505061132b565b5080915050919050565b6060806113978351611514565b905060005b83518110156113f157816113c28583815181106113b557fe5b602002602001015161169f565b6040516020016113d3929190613535565b6040516020818303038152906040529150808060010191505061139c565b5080915050919050565b60608061140883516116e2565b905060005b8351811015611462578161143385838151811061142657fe5b60200260200101516119d1565b604051602001611444929190613535565b6040516020818303038152906040529150808060010191505061140d565b5080915050919050565b60608061147983516116e2565b905060005b83518110156114d357816114a485838151811061149757fe5b6020026020010151610c6a565b6040516020016114b5929190613535565b6040516020818303038152906040529150808060010191505061147e565b5080915050919050565b60606000826040516020016114f291906138a1565b604051602081830303815290604052905061150c81610b62565b915050919050565b60606000606060005b600115611589576000811415611534576000611537565b60805b607f86161760f81b9250818360405160200161155492919061350d565b6040516020818303038152906040529150607f851161157257611589565b6001600786901c039450808060010191505061151d565b61159282610b62565b9350505050919050565b60606115c6826040516020016115b291906134f2565b604051602081830303815290604052610b62565b9050919050565b60606115dc8260000151611135565b6115e660146116e2565b83602001516040516020016115fd93929190613559565b6040516020818303038152906040529050919050565b606061161e8661116c565b61162786610e3d565b611630866114dd565b61163986610e3d565b8560405160200161164e95949392919061358a565b604051602081830303815290604052905095945050505050565b606060008260405160200161167d9190613924565b604051602081830303815290604052905061169781610b62565b915050919050565b60606116ae8260000151610e3d565b6116bb8360200151610c33565b6040516020016116cc929190613535565b6040516020818303038152906040529050919050565b60608060fd60ff168310156117185782604051602001611702919061395a565b60405160208183030381529060405290506117a8565b61ffff831161174b5760fd83604051602001611735929190613975565b60405160208183030381529060405290506117a7565b63ffffffff83116117805760fe8360405160200161176a9291906139a1565b60405160208183030381529060405290506117a6565b60ff836040516020016117949291906139cd565b60405160208183030381529060405290505b5b5b80915050919050565b60606117c08260000151610e3d565b6117cd83602001516109b5565b6040516020016117de929190613535565b6040516020818303038152906040529050919050565b606060008260405160200161180991906138ee565b604051602081830303815290604052905061182381610b62565b915050919050565b6060611840826000015163ffffffff16611514565b611853836020015163ffffffff16611514565b61186084604001516115cd565b61186d8560600151610e3d565b61187a86608001516109b5565b6118878760a00151611668565b6118948860c00151610d89565b6118a18960e0015161159c565b6118af8a6101000151611668565b6118bd8b6101200151610dcc565b6118cb8c610140015161146c565b6118d98d6101600151610944565b6040516020016118f49c9b9a999897969594939291906137a1565b6040516020818303038152906040529050919050565b606060008260405160200161191f9190613909565b604051602081830303815290604052905061193981610b62565b915050919050565b60608061194e83516116e2565b905060005b83518110156119c7578161199885838151811061196c57fe5b602002602001015160405160200161198491906138a1565b604051602081830303815290604052610b62565b6040516020016119a9929190613535565b60405160208183030381529060405291508080600101915050611953565b5080915050919050565b60606000826040516020016119e69190613886565b6040516020818303038152906040529050611a0081610b62565b915050919050565b6000611a1b611a1684613a4c565b613a1b565b90508083825260208201905082856020860282011115611a3a57600080fd5b60005b85811015611a6a5781611a508882612032565b845260208401935060208301925050600181019050611a3d565b5050509392505050565b6000611a87611a8284613a78565b613a1b565b90508083825260208201905082856020860282011115611aa657600080fd5b60005b85811015611ad65781611abc8882612047565b845260208401935060208301925050600181019050611aa9565b5050509392505050565b6000611af3611aee84613aa4565b613a1b565b90508083825260208201905082856040860282011115611b1257600080fd5b60005b85811015611b425781611b28888261251c565b845260208401935060408301925050600181019050611b15565b5050509392505050565b6000611b5f611b5a84613ad0565b613a1b565b9050808382526020820190508260005b85811015611b9f5781358501611b858882612568565b845260208401935060208301925050600181019050611b6f565b5050509392505050565b6000611bbc611bb784613afc565b613a1b565b905080838252602082019050828560e0860282011115611bdb57600080fd5b60005b85811015611c0b5781611bf18882612763565b845260208401935060e08301925050600181019050611bde565b5050509392505050565b6000611c28611c2384613b28565b613a1b565b9050808382526020820190508260005b85811015611c685781358501611c4e8882612813565b845260208401935060208301925050600181019050611c38565b5050509392505050565b6000611c85611c8084613b54565b613a1b565b9050808382526020820190508260005b85811015611cc55781358501611cab88826129b8565b845260208401935060208301925050600181019050611c95565b5050509392505050565b6000611ce2611cdd84613b80565b613a1b565b9050808382526020820190508285610100860282011115611d0257600080fd5b60005b85811015611d335781611d188882612a1c565b84526020840193506101008301925050600181019050611d05565b5050509392505050565b6000611d50611d4b84613bac565b613a1b565b90508083825260208201905082856020860282011115611d6f57600080fd5b60005b85811015611d9f5781611d858882612a7e565b845260208401935060208301925050600181019050611d72565b5050509392505050565b6000611dbc611db784613bd8565b613a1b565b905082815260208101848484011115611dd457600080fd5b611ddf848285613d85565b509392505050565b6000611dfa611df584613c08565b613a1b565b905082815260208101848484011115611e1257600080fd5b611e1d848285613d85565b509392505050565b600081359050611e3481613ef7565b92915050565b600082601f830112611e4b57600080fd5b8135611e5b848260208601611a08565b91505092915050565b600082601f830112611e7557600080fd5b8135611e85848260208601611a74565b91505092915050565b600082601f830112611e9f57600080fd5b8135611eaf848260208601611ae0565b91505092915050565b600082601f830112611ec957600080fd5b8135611ed9848260208601611b4c565b91505092915050565b600082601f830112611ef357600080fd5b8135611f03848260208601611ba9565b91505092915050565b600082601f830112611f1d57600080fd5b8135611f2d848260208601611c15565b91505092915050565b600082601f830112611f4757600080fd5b8135611f57848260208601611c72565b91505092915050565b600082601f830112611f7157600080fd5b8135611f81848260208601611ccf565b91505092915050565b600082601f830112611f9b57600080fd5b8135611fab848260208601611d3d565b91505092915050565b600081359050611fc381613f0e565b92915050565b600081359050611fd881613f25565b92915050565b600081359050611fed81613f3c565b92915050565b600082601f83011261200457600080fd5b8135612014848260208601611da9565b91505092915050565b60008135905061202c81613f53565b92915050565b60008135905061204181613f6a565b92915050565b60008135905061205681613f81565b92915050565b600082601f83011261206d57600080fd5b813561207d848260208601611de7565b91505092915050565b60006102a0828403121561209957600080fd5b6120a46102a0613a1b565b905060006120b484828501612a69565b60008301525060206120c884828501612a69565b60208301525060406120dc84828501611e25565b604083015250606082013567ffffffffffffffff8111156120fc57600080fd5b61210884828501611f8a565b606083015250608082013567ffffffffffffffff81111561212857600080fd5b61213484828501611e3a565b60808301525060a082013567ffffffffffffffff81111561215457600080fd5b61216084828501611e64565b60a08301525060c061217484828501612047565b60c08301525060e061218884828501612047565b60e08301525061010061219d84828501612047565b610100830152506101206121b384828501612047565b610120830152506101406121c984828501612047565b610140830152506101606121df84828501612047565b610160830152506101806121f584828501612047565b610180830152506101a082013567ffffffffffffffff81111561221757600080fd5b61222384828501611e64565b6101a0830152506101c082013567ffffffffffffffff81111561224557600080fd5b61225184828501611e64565b6101c0830152506101e082013567ffffffffffffffff81111561227357600080fd5b61227f84828501611e64565b6101e08301525061020082013567ffffffffffffffff8111156122a157600080fd5b6122ad84828501611e64565b6102008301525061022082013567ffffffffffffffff8111156122cf57600080fd5b6122db84828501611e64565b6102208301525061024082013567ffffffffffffffff8111156122fd57600080fd5b61230984828501611e64565b6102408301525061026082013567ffffffffffffffff81111561232b57600080fd5b61233784828501611e3a565b6102608301525061028082013567ffffffffffffffff81111561235957600080fd5b61236584828501611e64565b6102808301525092915050565b60006101c0828403121561238557600080fd5b6123906101c0613a1b565b905060006123a084828501612a69565b60008301525060206123b484828501612a69565b60208301525060406123c884828501611e25565b60408301525060606123dc84828501612aa8565b60608301525060806123f084828501612aa8565b60808301525060a061240484828501611e25565b60a08301525060c061241884828501611e25565b60c08301525060e061242c84828501612aa8565b60e08301525061010082013567ffffffffffffffff81111561244d57600080fd5b61245984828501611e8e565b6101008301525061012082013567ffffffffffffffff81111561247b57600080fd5b61248784828501611e8e565b6101208301525061014061249d84828501611fde565b6101408301525061016082013567ffffffffffffffff8111156124bf57600080fd5b6124cb84828501611e8e565b6101608301525061018082013567ffffffffffffffff8111156124ed57600080fd5b6124f984828501612908565b610180830152506101a061250f84828501612032565b6101a08301525092915050565b60006040828403121561252e57600080fd5b6125386040613a1b565b9050600061254884828501611e25565b600083015250602061255c84828501612abd565b60208301525092915050565b60006040828403121561257a57600080fd5b6125846040613a1b565b9050600082013567ffffffffffffffff8111156125a057600080fd5b6125ac8482850161205c565b60008301525060206125c084828501611e25565b60208301525092915050565b60006101a082840312156125df57600080fd5b6125ea610180613a1b565b905060006125fa84828501612aa8565b600083015250602061260e84828501612aa8565b602083015250604082013567ffffffffffffffff81111561262e57600080fd5b61263a84828501612908565b604083015250606061264e84828501611e25565b606083015250608082013567ffffffffffffffff81111561266e57600080fd5b61267a84828501612086565b60808301525060a061268e84828501612aa8565b60a08301525060c06126a28482850161296c565b60c0830152506101006126b784828501611fde565b60e0830152506101206126cc84828501612aa8565b6101008301525061014082013567ffffffffffffffff8111156126ee57600080fd5b6126fa84828501611f36565b6101208301525061016082013567ffffffffffffffff81111561271c57600080fd5b61272884828501611ee2565b6101408301525061018082013567ffffffffffffffff81111561274a57600080fd5b61275684828501611eb8565b6101608301525092915050565b600060e0828403121561277557600080fd5b61277f60e0613a1b565b9050600061278f8482850161201d565b60008301525060206127a38482850161201d565b60208301525060406127b784828501611e25565b60408301525060606127cb84828501612aa8565b60608301525060806127df84828501611fde565b60808301525060a06127f384828501611fde565b60a08301525060c061280784828501611fde565b60c08301525092915050565b6000610140828403121561282657600080fd5b612831610120613a1b565b9050600061284184828501612aa8565b60008301525060206128558482850161251c565b602083015250606061286984828501612aa8565b604083015250608061287d84828501611e25565b60608301525060a061289184828501612a93565b60808301525060c082013567ffffffffffffffff8111156128b157600080fd5b6128bd84828501612908565b60a08301525060e06128d184828501611e25565b60c0830152506101006128e684828501611e25565b60e0830152506101206128fb84828501611e25565b6101008301525092915050565b60006040828403121561291a57600080fd5b6129246040613a1b565b9050600061293484828501612ad2565b600083015250602082013567ffffffffffffffff81111561295457600080fd5b61296084828501611ff3565b60208301525092915050565b60006040828403121561297e57600080fd5b6129886040613a1b565b9050600061299884828501611fde565b60008301525060206129ac84828501612aa8565b60208301525092915050565b6000604082840312156129ca57600080fd5b6129d46040613a1b565b905060006129e484828501611e25565b600083015250602082013567ffffffffffffffff811115612a0457600080fd5b612a1084828501612086565b60208301525092915050565b60006101008284031215612a2f57600080fd5b612a396040613a1b565b90506000612a4984828501611e25565b6000830152506020612a5d84828501612763565b60208301525092915050565b600081359050612a7881613f98565b92915050565b600081359050612a8d81613faf565b92915050565b600081359050612aa281613fc6565b92915050565b600081359050612ab781613fdd565b92915050565b600081359050612acc81613ff4565b92915050565b600081359050612ae18161400b565b92915050565b600060208284031215612af957600080fd5b6000612b0784828501611e25565b91505092915050565b600060208284031215612b2257600080fd5b600082013567ffffffffffffffff811115612b3c57600080fd5b612b4884828501611e3a565b91505092915050565b600060208284031215612b6357600080fd5b600082013567ffffffffffffffff811115612b7d57600080fd5b612b8984828501611e64565b91505092915050565b600060208284031215612ba457600080fd5b600082013567ffffffffffffffff811115612bbe57600080fd5b612bca84828501611e8e565b91505092915050565b600060208284031215612be557600080fd5b600082013567ffffffffffffffff811115612bff57600080fd5b612c0b84828501611eb8565b91505092915050565b600060208284031215612c2657600080fd5b600082013567ffffffffffffffff811115612c4057600080fd5b612c4c84828501611ee2565b91505092915050565b60008060408385031215612c6857600080fd5b600083013567ffffffffffffffff811115612c8257600080fd5b612c8e85828601611f0c565b9250506020612c9f85828601611fb4565b9150509250929050565b600060208284031215612cbb57600080fd5b600082013567ffffffffffffffff811115612cd557600080fd5b612ce184828501611f36565b91505092915050565b600060208284031215612cfc57600080fd5b600082013567ffffffffffffffff811115612d1657600080fd5b612d2284828501611f60565b91505092915050565b600060208284031215612d3d57600080fd5b600082013567ffffffffffffffff811115612d5757600080fd5b612d6384828501611f8a565b91505092915050565b600060208284031215612d7e57600080fd5b6000612d8c84828501611fb4565b91505092915050565b600060208284031215612da757600080fd5b6000612db584828501611fc9565b91505092915050565b600060208284031215612dd057600080fd5b6000612dde84828501611fde565b91505092915050565b600060208284031215612df957600080fd5b600082013567ffffffffffffffff811115612e1357600080fd5b612e1f84828501611ff3565b91505092915050565b600060208284031215612e3a57600080fd5b6000612e488482850161201d565b91505092915050565b600060208284031215612e6357600080fd5b6000612e7184828501612032565b91505092915050565b600060208284031215612e8c57600080fd5b6000612e9a84828501612047565b91505092915050565b600060208284031215612eb557600080fd5b600082013567ffffffffffffffff811115612ecf57600080fd5b612edb8482850161205c565b91505092915050565b600080600080600060a08688031215612efc57600080fd5b600086013567ffffffffffffffff811115612f1657600080fd5b612f228882890161205c565b9550506020612f3388828901611e25565b9450506040612f4488828901612047565b9350506060612f5588828901611e25565b925050608086013567ffffffffffffffff811115612f7257600080fd5b612f7e88828901611ff3565b9150509295509295909350565b600060208284031215612f9d57600080fd5b600082013567ffffffffffffffff811115612fb757600080fd5b612fc384828501612086565b91505092915050565b600060208284031215612fde57600080fd5b600082013567ffffffffffffffff811115612ff857600080fd5b61300484828501612372565b91505092915050565b60006040828403121561301f57600080fd5b600061302d8482850161251c565b91505092915050565b60006020828403121561304857600080fd5b600082013567ffffffffffffffff81111561306257600080fd5b61306e84828501612568565b91505092915050565b60006020828403121561308957600080fd5b600082013567ffffffffffffffff8111156130a357600080fd5b6130af848285016125cc565b91505092915050565b600060e082840312156130ca57600080fd5b60006130d884828501612763565b91505092915050565b6000602082840312156130f357600080fd5b600082013567ffffffffffffffff81111561310d57600080fd5b61311984828501612813565b91505092915050565b60006020828403121561313457600080fd5b600082013567ffffffffffffffff81111561314e57600080fd5b61315a84828501612908565b91505092915050565b60006040828403121561317557600080fd5b60006131838482850161296c565b91505092915050565b60006020828403121561319e57600080fd5b600082013567ffffffffffffffff8111156131b857600080fd5b6131c4848285016129b8565b91505092915050565b600061010082840312156131e057600080fd5b60006131ee84828501612a1c565b91505092915050565b60006020828403121561320957600080fd5b600061321784828501612a69565b91505092915050565b60006020828403121561323257600080fd5b600061324084828501612a93565b91505092915050565b60006020828403121561325b57600080fd5b600061326984828501612aa8565b91505092915050565b60006020828403121561328457600080fd5b600061329284828501612abd565b91505092915050565b6000602082840312156132ad57600080fd5b60006132bb84828501612ad2565b91505092915050565b6132d56132d082613c75565b613dc7565b82525050565b6132ec6132e782613c87565b613dd9565b82525050565b6133036132fe82613c93565b613deb565b82525050565b61331a61331582613cbf565b613df5565b82525050565b61333161332c82613ceb565b613dff565b82525050565b600061334282613c38565b61334c8185613c4e565b935061335c818560208601613d94565b61336581613ea5565b840191505092915050565b600061337b82613c38565b6133858185613c5f565b9350613395818560208601613d94565b80840191505092915050565b6133b26133ad82613cf5565b613e09565b82525050565b6133c96133c482613d02565b613e1b565b82525050565b6133e06133db82613d0f565b613e2d565b82525050565b60006133f182613c43565b6133fb8185613c6a565b935061340b818560208601613d94565b80840191505092915050565b61342861342382613d2a565b613e51565b82525050565b61343f61343a82613d1c565b613e3f565b82525050565b61345661345182613d4a565b613e63565b82525050565b61346d61346882613d54565b613e6d565b82525050565b61348461347f82613d64565b613e7f565b82525050565b61349b61349682613d78565b613e91565b82525050565b60006134ad82846132c4565b60148201915081905092915050565b60006134c882846132db565b60018201915081905092915050565b60006134e38284613309565b60148201915081905092915050565b60006134fe8284613320565b60208201915081905092915050565b60006135198285613370565b915061352582846132f2565b6001820191508190509392505050565b60006135418285613370565b915061354d8284613370565b91508190509392505050565b60006135658286613370565b91506135718285613370565b915061357d8284613370565b9150819050949350505050565b60006135968288613370565b91506135a28287613370565b91506135ae8286613370565b91506135ba8285613370565b91506135c68284613370565b91508190509695505050505050565b60006135e1828a613370565b91506135ed8289613370565b91506135f98288613370565b91506136058287613370565b91506136118286613370565b915061361d8285613370565b91506136298284613370565b915081905098975050505050505050565b6000613646828b613370565b9150613652828a613370565b915061365e8289613370565b915061366a8288613370565b91506136768287613370565b91506136828286613370565b915061368e8285613370565b915061369a82846132f2565b6001820191508190509998505050505050505050565b60006136bc828b613370565b91506136c8828a613370565b91506136d48289613370565b91506136e08288613370565b91506136ec8287613370565b91506136f88286613370565b91506137048285613370565b91506137108284613370565b91508190509998505050505050505050565b600061372e828c613370565b915061373a828b613370565b9150613746828a613370565b91506137528289613370565b915061375e8288613370565b915061376a8287613370565b91506137768286613370565b91506137828285613370565b915061378e8284613370565b91508190509a9950505050505050505050565b60006137ad828f613370565b91506137b9828e613370565b91506137c5828d613370565b91506137d1828c613370565b91506137dd828b613370565b91506137e9828a613370565b91506137f58289613370565b91506138018288613370565b915061380d8287613370565b91506138198286613370565b91506138258285613370565b91506138318284613370565b91508190509d9c50505050505050505050505050565b60006138538285613370565b915061385f82846133e6565b91508190509392505050565b600061387782846133a1565b60028201915081905092915050565b600061389282846133b8565b60048201915081905092915050565b60006138ad82846133cf565b60088201915081905092915050565b60006138c882846133e6565b915081905092915050565b60006138df8284613417565b60148201915081905092915050565b60006138fa828461342e565b60028201915081905092915050565b60006139158284613445565b60208201915081905092915050565b6000613930828461345c565b60048201915081905092915050565b600061394b8284613473565b60088201915081905092915050565b6000613966828461348a565b60018201915081905092915050565b6000613981828561348a565b600182019150613991828461342e565b6002820191508190509392505050565b60006139ad828561348a565b6001820191506139bd828461345c565b6004820191508190509392505050565b60006139d9828561348a565b6001820191506139e98284613473565b6008820191508190509392505050565b60006020820190508181036000830152613a138184613337565b905092915050565b6000604051905081810181811067ffffffffffffffff82111715613a4257613a41613ea3565b5b8060405250919050565b600067ffffffffffffffff821115613a6757613a66613ea3565b5b602082029050602081019050919050565b600067ffffffffffffffff821115613a9357613a92613ea3565b5b602082029050602081019050919050565b600067ffffffffffffffff821115613abf57613abe613ea3565b5b602082029050602081019050919050565b600067ffffffffffffffff821115613aeb57613aea613ea3565b5b602082029050602081019050919050565b600067ffffffffffffffff821115613b1757613b16613ea3565b5b602082029050602081019050919050565b600067ffffffffffffffff821115613b4357613b42613ea3565b5b602082029050602081019050919050565b600067ffffffffffffffff821115613b6f57613b6e613ea3565b5b602082029050602081019050919050565b600067ffffffffffffffff821115613b9b57613b9a613ea3565b5b602082029050602081019050919050565b600067ffffffffffffffff821115613bc757613bc6613ea3565b5b602082029050602081019050919050565b600067ffffffffffffffff821115613bf357613bf2613ea3565b5b601f19601f8301169050602081019050919050565b600067ffffffffffffffff821115613c2357613c22613ea3565b5b601f19601f8301169050602081019050919050565b600081519050919050565b600081519050919050565b600082825260208201905092915050565b600081905092915050565b600081905092915050565b6000613c8082613d2a565b9050919050565b60008115159050919050565b60007fff0000000000000000000000000000000000000000000000000000000000000082169050919050565b60007fffffffffffffffffffffffffffffffffffffffff00000000000000000000000082169050919050565b6000819050919050565b60008160010b9050919050565b60008160030b9050919050565b60008160070b9050919050565b600061ffff82169050919050565b600073ffffffffffffffffffffffffffffffffffffffff82169050919050565b6000819050919050565b600063ffffffff82169050919050565b600067ffffffffffffffff82169050919050565b600060ff82169050919050565b82818337600083830152505050565b60005b83811015613db2578082015181840152602081019050613d97565b83811115613dc1576000848401525b50505050565b6000613dd282613e51565b9050919050565b6000613de482613e91565b9050919050565b6000819050919050565b6000819050919050565b6000819050919050565b6000613e1482613ed0565b9050919050565b6000613e2682613ec3565b9050919050565b6000613e3882613eb6565b9050919050565b6000613e4a82613ed0565b9050919050565b6000613e5c82613eea565b9050919050565b6000819050919050565b6000613e7882613ec3565b9050919050565b6000613e8a82613eb6565b9050919050565b6000613e9c82613edd565b9050919050565bfe5b6000601f19601f8301169050919050565b60008160c01b9050919050565b60008160e01b9050919050565b60008160f01b9050919050565b60008160f81b9050919050565b60008160601b9050919050565b613f0081613c75565b8114613f0b57600080fd5b50565b613f1781613c87565b8114613f2257600080fd5b50565b613f2e81613cbf565b8114613f3957600080fd5b50565b613f4581613ceb565b8114613f5057600080fd5b50565b613f5c81613cf5565b8114613f6757600080fd5b50565b613f7381613d02565b8114613f7e57600080fd5b50565b613f8a81613d0f565b8114613f9557600080fd5b50565b613fa181613d1c565b8114613fac57600080fd5b50565b613fb881613d2a565b8114613fc357600080fd5b50565b613fcf81613d4a565b8114613fda57600080fd5b50565b613fe681613d54565b8114613ff157600080fd5b50565b613ffd81613d64565b811461400857600080fd5b50565b61401481613d78565b811461401f57600080fd5b5056fea264697066735822122005589a67ba3bbd3b926045e1eb6394436b3e2d1d82f6962c26d7699e99a5232064736f6c63430007060033",
  "immutableReferences": {},
  "source": "// SPDX-License-Identifier: MIT\r\n// Bridge between ethereum and verus\r\n\r\npragma solidity >=0.6.0 < 0.9.0;\r\npragma experimental ABIEncoderV2;   \r\nimport \"../Libraries/VerusObjects.sol\";\r\nimport \"../Libraries/VerusObjectsNotarization.sol\";\r\n\r\ncontract VerusSerializer {\r\n\r\n    //hashing functions\r\n\r\n    function writeVarInt(uint256 incoming) public pure returns(bytes memory) {\r\n        bytes1 inProgress;\r\n        bytes memory output;\r\n        uint len = 0;\r\n        while(true){\r\n            inProgress = bytes1(uint8(incoming & 0x7f) | (len!=0 ? 0x80:0x00));\r\n            output = abi.encodePacked(output,inProgress);\r\n            if(incoming <= 0x7f) break;\r\n            incoming = (incoming >> 7) -1;\r\n            len++;\r\n        }\r\n        return flipArray(output);\r\n    }\r\n    \r\n    function writeCompactSize(uint newNumber) public pure returns(bytes memory) {\r\n        bytes memory output;\r\n        if (newNumber < uint8(253))\r\n        {   \r\n            output = abi.encodePacked(uint8(newNumber));\r\n        }\r\n        else if (newNumber <= 0xFFFF)\r\n        {   \r\n            output = abi.encodePacked(uint8(253),uint16(newNumber));\r\n        }\r\n        else if (newNumber <= 0xFFFFFFFF)\r\n        {   \r\n            output = abi.encodePacked(uint8(254),uint32(newNumber));\r\n        }\r\n        else\r\n        {\r\n            output = abi.encodePacked(uint8(255),uint64(newNumber));\r\n        }\r\n        return output;\r\n    }\r\n\r\n    \r\n    function verusHashPrefix(string memory prefix,address systemID,int64 blockHeight,address signingID, bytes memory messageToHash) public pure returns(bytes memory){\r\n        return abi.encodePacked(serializeString(prefix),serializeAddress(systemID),serializeInt64(blockHeight),serializeAddress(signingID),messageToHash);    \r\n    }\r\n    \r\n    //serialize functions\r\n\r\n    function serializeBool(bool anyBool) public pure returns(bytes memory){\r\n        return abi.encodePacked(anyBool);\r\n    }\r\n    \r\n    function serializeString(string memory anyString) public pure returns(bytes memory){\r\n        //naturally BigEndian\r\n        bytes memory be;\r\n        be = abi.encodePacked(anyString);\r\n        return abi.encodePacked(writeCompactSize(be.length),anyString);\r\n        //return abi.encodePacked(anyString);\r\n    }\r\n\r\n    function serializeBytes20(bytes20 anyBytes20) public pure returns(bytes memory){\r\n        //naturally BigEndian\r\n        return abi.encodePacked(anyBytes20);\r\n    }\r\n    function serializeBytes32(bytes32 anyBytes32) public pure returns(bytes memory){\r\n        //naturally BigEndian\r\n        return flipArray(abi.encodePacked(anyBytes32));\r\n    }\r\n\r\n    function serializeUint8(uint8 number) public pure returns(bytes memory){\r\n        bytes memory be = abi.encodePacked(number);\r\n        return(flipArray(be));\r\n    }\r\n    \r\n    function serializeUint16(uint16 number) public pure returns(bytes memory){\r\n        bytes memory be = abi.encodePacked(number);\r\n        return(flipArray(be));\r\n    }\r\n    \r\n    function serializeUint32(uint32 number) public pure returns(bytes memory){\r\n        bytes memory be = abi.encodePacked(number);\r\n        return(flipArray(be));\r\n    }\r\n\r\n    function serializeInt16(int16 number) public pure returns(bytes memory){\r\n        bytes memory be = abi.encodePacked(number);\r\n        return(flipArray(be));\r\n    }\r\n    \r\n    function serializeInt32(int32 number) public pure returns(bytes memory){\r\n        bytes memory be = abi.encodePacked(number);\r\n        return(flipArray(be));\r\n    }\r\n    \r\n    function serializeInt64(int64 number) public pure returns(bytes memory){\r\n        bytes memory be = abi.encodePacked(number);\r\n        return(flipArray(be));\r\n    }\r\n\r\n    function serializeInt32Array(int32[] memory numbers) public pure returns(bytes memory){\r\n        bytes memory be;\r\n        be = writeCompactSize((numbers.length));\r\n        for(uint i = 0;i < numbers.length; i++){\r\n            be = abi.encodePacked(be,serializeInt32(numbers[i]));\r\n        }\r\n        return be;\r\n    }\r\n\r\n    function serializeInt64Array(int64[] memory numbers) public pure returns(bytes memory){\r\n        bytes memory be;\r\n        be = writeCompactSize((numbers.length));\r\n        for(uint i = 0;i < numbers.length; i++){\r\n            be = abi.encodePacked(be,flipArray(abi.encodePacked(numbers[i])));\r\n        }\r\n        return be;\r\n    }\r\n\r\n    function serializeUint64(uint64 number) public pure returns(bytes memory){\r\n        bytes memory be = abi.encodePacked(number);\r\n        return(flipArray(be));\r\n    }\r\n\r\n    function serializeAddress(address number) public pure returns(bytes memory){\r\n        bytes memory be = abi.encodePacked(number);\r\n        return be;\r\n        \r\n    }\r\n    \r\n    function serializeUint160Array(uint160[] memory numbers) public pure returns(bytes memory){\r\n        bytes memory be;\r\n        be = writeCompactSize((numbers.length));\r\n        for(uint i = 0;i < numbers.length; i++){\r\n            be = abi.encodePacked(be,abi.encodePacked(numbers[i]));\r\n        }\r\n        return(be);\r\n    }\r\n\r\n\r\n    function serializeUint256(uint256 number) public pure returns(bytes memory){\r\n        bytes memory be = abi.encodePacked(number);\r\n        return(flipArray(be));\r\n    }\r\n    \r\nfunction serializeCTransferDestination(VerusObjectsCommon.CTransferDestination memory ctd) public pure returns(bytes memory){\r\n        \r\n         return abi.encodePacked(serializeUint8(ctd.destinationtype),writeCompactSize(20),ctd.destinationaddress);\r\n       \r\n    }    \r\n\r\n    function serializeCCurrencyValueMap(VerusObjects.CCurrencyValueMap memory _ccvm) public pure returns(bytes memory){\r\n         return abi.encodePacked(serializeAddress(_ccvm.currency),serializeUint64(_ccvm.amount));\r\n    }\r\n    \r\n    function serializeCCurrencyValueMaps(VerusObjects.CCurrencyValueMap[] memory _ccvms) public pure returns(bytes memory){\r\n        bytes memory inProgress;\r\n        inProgress = writeVarInt(_ccvms.length);\r\n        for(uint i=0; i < _ccvms.length; i++){\r\n            inProgress = abi.encodePacked(inProgress,serializeCCurrencyValueMap(_ccvms[i]));\r\n        }\r\n        return inProgress;\r\n    }\r\n\r\n    function serializeCReserveTransfer(VerusObjects.CReserveTransfer memory ct) public pure returns(bytes memory){\r\n        \r\n        bytes memory output =  abi.encodePacked(\r\n            writeVarInt(ct.version),\r\n            abi.encodePacked(serializeAddress(ct.currencyvalue.currency),writeVarInt(ct.currencyvalue.amount)),//special interpretation of a ccurrencyvalue\r\n            writeVarInt(ct.flags),\r\n            serializeAddress(ct.feecurrencyid),\r\n            writeVarInt(ct.fees),\r\n            serializeCTransferDestination(ct.destination),\r\n            serializeAddress(ct.destcurrencyid)\r\n           );\r\n           \r\n        if((ct.flags & 0x400)>0) output = abi.encodePacked(output,serializeAddress(ct.secondreserveid));           \r\n         //see if its got a cross_system flag\r\n        if((ct.flags & 0x40)>0) output = abi.encodePacked(output,serializeAddress(ct.destsystemid));\r\n        \r\n        return output;\r\n    }\r\n    \r\n    function serializeCReserveTransfers(VerusObjects.CReserveTransfer[] memory _bts,bool includeSize) public pure returns(bytes memory){\r\n        bytes memory inProgress;\r\n        \r\n        if(includeSize) inProgress =writeCompactSize(_bts.length);\r\n        \r\n        for(uint i=0; i < _bts.length; i++){\r\n            inProgress = abi.encodePacked(inProgress,serializeCReserveTransfer(_bts[i]));\r\n        }\r\n        return inProgress;\r\n    }\r\n\r\n    function serializeCUTXORef(VerusObjectsNotarization.CUTXORef memory _cutxo) public pure returns(bytes memory){\r\n        return abi.encodePacked(\r\n            serializeBytes32(_cutxo.hash),\r\n            serializeUint32(_cutxo.n)\r\n        );\r\n    }\r\n\r\n    function serializeCProofRoot(VerusObjectsNotarization.CProofRoot memory _cpr) public pure returns(bytes memory){\r\n        return abi.encodePacked(\r\n            serializeAddress(_cpr.systemid),\r\n            serializeInt16(_cpr.version),\r\n            serializeInt16(_cpr.cprtype),\r\n            serializeAddress(_cpr.systemid),\r\n            serializeUint32(_cpr.rootheight),\r\n            serializeBytes32(_cpr.stateroot),\r\n            serializeBytes32(_cpr.blockhash),\r\n            serializeBytes32(_cpr.compactpower)\r\n            );\r\n    }\r\n\r\n    function serializeProofRoots(VerusObjectsNotarization.ProofRoots memory _prs) public pure returns(bytes memory){\r\n        return abi.encodePacked(\r\n            serializeAddress(_prs.currencyid),\r\n            serializeCProofRoot(_prs.proofroot)\r\n        );  \r\n    }\r\n\r\n    function serializeProofRootsArray(VerusObjectsNotarization.ProofRoots[] memory _prsa) public pure returns(bytes memory){\r\n        bytes memory inProgress;\r\n        \r\n        inProgress = writeCompactSize(_prsa.length);\r\n        for(uint i=0; i < _prsa.length; i++){\r\n            inProgress = abi.encodePacked(inProgress,serializeProofRoots(_prsa[i]));\r\n        }\r\n        return inProgress;\r\n    }\r\n    \r\n    function serializeCProofRootArray(VerusObjectsNotarization.CProofRoot[] memory _prsa) public pure returns(bytes memory){\r\n        bytes memory inProgress;\r\n        \r\n        inProgress = writeCompactSize(_prsa.length);\r\n        for(uint i=0; i < _prsa.length; i++){\r\n            inProgress = abi.encodePacked(inProgress,serializeCProofRoot(_prsa[i]));\r\n        }\r\n        return inProgress;\r\n    }\r\n    \r\n\r\n    function serializeCCoinbaseCurrencyState(VerusObjectsNotarization.CCoinbaseCurrencyState memory _cccs) public pure returns(bytes memory){\r\n        bytes memory part1 = abi.encodePacked(\r\n            serializeUint16(_cccs.version),\r\n            serializeUint16(_cccs.flags),\r\n            serializeAddress(_cccs.currencyid),\r\n            serializeUint160Array(_cccs.currencies),\r\n            serializeInt32Array(_cccs.weights),\r\n            serializeInt64Array(_cccs.reserves),\r\n            writeVarInt(uint256(_cccs.initialsupply)),\r\n            writeVarInt(uint256(_cccs.emitted)),\r\n            writeVarInt(uint256(_cccs.supply))\r\n        );\r\n        bytes memory part2 = abi.encodePacked(\r\n            serializeInt64(_cccs.primarycurrencyout),\r\n            serializeInt64(_cccs.preconvertedout),\r\n            serializeInt64(_cccs.primarycurrencyfees),\r\n            serializeInt64(_cccs.primarycurrencyconversionfees),\r\n            serializeInt64Array(_cccs.reservein),\r\n            serializeInt64Array(_cccs.primarycurrencyin),\r\n            serializeInt64Array(_cccs.reserveout),\r\n            serializeInt64Array(_cccs.conversionprice),\r\n            serializeInt64Array(_cccs.viaconversionprice),\r\n            serializeInt64Array(_cccs.fees),\r\n            serializeInt32Array(_cccs.priorweights),\r\n            serializeInt64Array(_cccs.conversionfees)\r\n        );\r\n        \r\n        return abi.encodePacked(part1,part2);\r\n    }\r\n\r\n    function serializeCurrencyStates(VerusObjectsNotarization.CurrencyStates memory _cs) public pure returns(bytes memory){\r\n        return abi.encodePacked(\r\n            serializeAddress(_cs.currencyid),\r\n            serializeCCoinbaseCurrencyState(_cs.currencystate)\r\n        );\r\n    }\r\n\r\n    function serializeCurrencyStatesArray(VerusObjectsNotarization.CurrencyStates[] memory _csa) public pure returns(bytes memory){\r\n        bytes memory inProgress;\r\n        inProgress = writeCompactSize(_csa.length);\r\n        for(uint i=0; i < _csa.length; i++){\r\n            inProgress = abi.encodePacked(inProgress,serializeCurrencyStates(_csa[i]));\r\n        }\r\n        return inProgress;\r\n    }\r\n\r\n    function serializeCPBaaSNotarization(VerusObjectsNotarization.CPBaaSNotarization memory _not) public pure returns(bytes memory){\r\n        return abi.encodePacked(\r\n            writeVarInt(_not.version),\r\n            writeVarInt(_not.flags),\r\n            serializeCTransferDestination(_not.proposer),\r\n            serializeAddress(_not.currencyid),\r\n            serializeCCoinbaseCurrencyState(_not.currencystate),\r\n            serializeUint32(_not.notarizationheight),\r\n            serializeCUTXORef(_not.prevnotarization),\r\n            serializeBytes32(_not.hashprevnotarization),\r\n            serializeUint32(_not.prevheight),\r\n            serializeCurrencyStatesArray(_not.currencystates),\r\n            serializeCProofRootArray(_not.proofroots),\r\n            serializeNodes(_not.nodes)\r\n        );\r\n    }\r\n    \r\n    function serializeNodes(VerusObjectsNotarization.CNodeData[] memory _cnds) public pure returns(bytes memory){\r\n        bytes memory inProgress;\r\n        inProgress = writeCompactSize(_cnds.length);\r\n        for(uint i=0; i < _cnds.length; i++){\r\n            inProgress = abi.encodePacked(inProgress,serializeCNodeData(_cnds[i]));\r\n        }\r\n        return inProgress;\r\n    }\r\n\r\n    function serializeCNodeData(VerusObjectsNotarization.CNodeData memory _cnd) public pure returns(bytes memory){\r\n        \r\n        return abi.encodePacked(\r\n            serializeString(_cnd.networkaddress),\r\n            serializeAddress(_cnd.nodeidentity)\r\n        );\r\n    }\r\n\r\n    function serializeCCrossChainExport(VerusObjects.CCrossChainExport memory _ccce) public pure returns(bytes memory){\r\n        bytes memory part1 = abi.encodePacked(\r\n            serializeUint16(_ccce.version),\r\n            serializeUint16(_ccce.flags),\r\n            serializeAddress(_ccce.sourcesystemid),\r\n            writeVarInt(_ccce.sourceheightstart),\r\n            writeVarInt(_ccce.sourceheightend),\r\n            serializeAddress(_ccce.destinationsystemid),\r\n            serializeAddress(_ccce.destinationcurrencyid));\r\n        bytes memory part2 = abi.encodePacked(serializeUint32(_ccce.numinputs),\r\n            serializeCCurrencyValueMaps(_ccce.totalamounts),\r\n            serializeCCurrencyValueMaps(_ccce.totalfees),\r\n            flipArray(serializeBytes32(_ccce.hashtransfers)),\r\n            serializeCCurrencyValueMaps(_ccce.totalburned),\r\n            serializeCTransferDestination(_ccce.rewardaddress),\r\n            serializeInt32(_ccce.firstinput),bytes1(0x00));\r\n        return abi.encodePacked(part1,part2);\r\n    }\r\n\r\n    function flipArray(bytes memory incoming) public pure returns(bytes memory){\r\n        uint256 len;\r\n        len = incoming.length;\r\n        bytes memory output = new bytes(len);\r\n        uint256 pos = 0;\r\n        while(pos < len){\r\n            output[pos] = incoming[len - pos - 1];\r\n            pos++;\r\n        }\r\n        return output;\r\n    }\r\n\r\n}",
  "sourcePath": "D:\\dev\\Ethereum-verus-notarisation\\contracts\\VerusBridge\\VerusSerializer.sol",
  "compiler": {
    "name": "solc",
    "version": "0.7.6+commit.7338295f.Emscripten.clang"
  },
  "schemaVersion": "3.4.3",
  "updatedAt": "2021-10-10T14:42:27.408Z",
  "networkType": "ethereum",
  "devdoc": {
    "kind": "dev",
    "methods": {},
    "version": 1
  },
  "userdoc": {
    "kind": "user",
    "methods": {},
    "version": 1
  }
}