{
  "contractName": "VerusBlake2b",
  "abi": [
    {
      "inputs": [
        {
          "internalType": "bytes",
          "name": "input",
          "type": "bytes"
        }
      ],
      "name": "createHash",
      "outputs": [
        {
          "internalType": "bytes32",
          "name": "",
          "type": "bytes32"
        }
      ],
      "stateMutability": "view",
      "type": "function",
      "constant": true
    },
    {
      "inputs": [
        {
          "internalType": "bytes",
          "name": "b",
          "type": "bytes"
        },
        {
          "internalType": "uint256",
          "name": "offset",
          "type": "uint256"
        }
      ],
      "name": "bytesToBytes32",
      "outputs": [
        {
          "internalType": "bytes32",
          "name": "",
          "type": "bytes32"
        }
      ],
      "stateMutability": "pure",
      "type": "function",
      "constant": true
    },
    {
      "inputs": [
        {
          "internalType": "bytes",
          "name": "b",
          "type": "bytes"
        }
      ],
      "name": "bytesToBytes32",
      "outputs": [
        {
          "internalType": "bytes32",
          "name": "",
          "type": "bytes32"
        }
      ],
      "stateMutability": "pure",
      "type": "function",
      "constant": true
    }
  ],
  "bytecode": "0x608060405234801561001057600080fd5b5061085f806100206000396000f3fe608060405234801561001057600080fd5b50600436106100415760003560e01c80632cd0cff2146100465780635358493914610076578063bfe370d9146100a6575b600080fd5b610060600480360381019061005b91906105f8565b6100d6565b60405161006d919061069c565b60405180910390f35b610090600480360381019061008b9190610639565b61011a565b60405161009d919061069c565b60405180910390f35b6100c060048036038101906100bb91906105f8565b61018c565b6040516100cd919061069c565b60405180910390f35b6000806100f36040518060200160405280600081525060206101a0565b905061011261010b84836101b990919063ffffffff16565b600061011a565b915050919050565b60008060005b6020811015610181576008810260ff60f81b868387018151811061014057fe5b602001015160f81c60f81b167effffffffffffffffffffffffffffffffffffffffffffffffffffffffffffff1916901c821791508080600101915050610120565b508091505092915050565b600061019982600061011a565b9050919050565b6101a861055a565b6101b38184846102f9565b92915050565b606060008251905060008114806101db57506000608082816101d757fe5b0614155b156102445761024183608083816101ee57fe5b0660800367ffffffffffffffff8111801561020857600080fd5b506040519080825280601f01601f19166020018201604052801561023b5781602001600182028036833780820191505090505b5061038d565b92505b6000608084518161025157fe5b061461025957fe5b6102668484836001610417565b600084600001519050846020015167ffffffffffffffff8111801561028a57600080fd5b506040519080825280601f01601f1916602001820160405280156102bd5781602001600182028036833780820191505090505b5092506020856020015114156102dc57602481015160208401526102f1565b60248101516020840152604481015160408401525b505092915050565b80836020018181525050600083604001818152505060405180610100016040528060d5815260200161075560d5913983600001819052506000836000015190506000835190506024820180518460f81b8360f01b1780821891508183525050506000811115610386576040811461036f57600080fd5b608084511461037a57fe5b610385858583610506565b5b5050505050565b6060806040519050835180825260208201818101602087015b818310156103c357805183526020830192506020810190506103a6565b50855192508351830184528091508282019050602086015b818310156103f857805183526020830192506020810190506103db565b50601f19601f8851850115830101166040525050508091505092915050565b600084600001519050600085604001519050600060648301905060006020870190506000875190505b60008111156104f157608081106104ad5781518352602082019150815160208401526020820191508151604084015260208201915081516060840152602082019150608081039050608087101561049b5786840193506104a8565b6080870396506080840193505b6104b2565b600080fd5b60ff841660e486015360ff8460081c1660e586015360ff8460101c1660e686015360008114156104e3578560f48601535b6104ec89610530565b610440565b83896040018181525050505050505050505050565b6000608083518161051357fe5b061461051e57600080fd5b61052b8383836000610417565b505050565b6000816000015190506020810160406004820160d5836009600019fa61055557600080fd5b505050565b60405180606001604052806060815260200160008152602001600081525090565b600061058e610589846106e8565b6106b7565b9050828152602081018484840111156105a657600080fd5b6105b184828561072c565b509392505050565b600082601f8301126105ca57600080fd5b81356105da84826020860161057b565b91505092915050565b6000813590506105f28161073d565b92915050565b60006020828403121561060a57600080fd5b600082013567ffffffffffffffff81111561062457600080fd5b610630848285016105b9565b91505092915050565b6000806040838503121561064c57600080fd5b600083013567ffffffffffffffff81111561066657600080fd5b610672858286016105b9565b9250506020610683858286016105e3565b9150509250929050565b61069681610718565b82525050565b60006020820190506106b1600083018461068d565b92915050565b6000604051905081810181811067ffffffffffffffff821117156106de576106dd61073b565b5b8060405250919050565b600067ffffffffffffffff8211156107035761070261073b565b5b601f19601f8301169050602081019050919050565b6000819050919050565b6000819050919050565b82818337600083830152505050565bfe5b61074681610722565b811461075157600080fd5b5056fe0000000c08c9bdf267e6096a3ba7ca8485ae67bb2bf894fe72f36e3cf1361d5f3af54fa5d182e6ad7f520e511f6c3e2b8c68059b3dd8338ed89de6791854126751ac933300000000000000000000000000000000000000000000000000000000000000000000000000000000000000000000000000000000000000000000000000000000000000000000000000000000000000000000000000000000000000000000000000000000000000000000000000000000000000000000000000000000000000000000000000000000000000000000000000a2646970667358221220aaafff2397da94c0d2e20375572d63bad29946e87559713e8296c8361f2d3b2864736f6c63430007060033",
  "immutableReferences": {},
  "source": "// SPDX-License-Identifier: MIT\n\npragma solidity >=0.6.0 <0.9.0;\npragma experimental ABIEncoderV2;\n\nimport \"./Blake2b.sol\";\n\ncontract VerusBlake2b {\n    using Blake2b for Blake2b.Instance;\n\n    function createHash(bytes memory input) public view returns (bytes32) {\n      Blake2b.Instance memory instance = Blake2b.init(hex\"\", 32);\n      return bytesToBytes32(instance.finalize(input), 0);\n    }\n\n    function bytesToBytes32(bytes memory b, uint256 offset)\n        public\n        pure\n        returns (bytes32)\n    {\n        bytes32 out;\n\n        for (uint256 i = 0; i < 32; i++) {\n            out |= bytes32(b[offset + (i)] & 0xFF) >> (i * 8);\n        }\n        return out;\n    }\n    \n    function bytesToBytes32(bytes memory b) public pure returns (bytes32){\n        return bytesToBytes32(b,0);\n    }\n}",
  "sourcePath": "/home/chris/Verus-Ethereum-contracts/contracts/MMR/VerusBlake2b.sol",
  "compiler": {
    "name": "solc",
    "version": "0.7.6+commit.7338295f.Emscripten.clang"
  },
  "schemaVersion": "3.4.4",
  "updatedAt": "2022-02-04T09:51:56.032Z",
  "networkType": "ethereum",
  "devdoc": {
    "kind": "dev",
    "methods": {},
    "version": 1
  },
  "userdoc": {
    "kind": "user",
    "methods": {},
    "version": 1
  }
}