{
  "contractName": "VerusBridge",
  "abi": [
    {
      "inputs": [
        {
          "internalType": "address",
          "name": "verusProofAddress",
          "type": "address"
        },
        {
          "internalType": "address",
          "name": "tokenManagerAddress",
          "type": "address"
        },
        {
          "internalType": "address",
          "name": "verusSerializerAddress",
          "type": "address"
        },
        {
          "internalType": "address",
          "name": "verusNotarizerAddress",
          "type": "address"
        },
        {
          "internalType": "address",
          "name": "verusCCEAddress",
          "type": "address"
        },
        {
          "internalType": "uint256",
          "name": "_poolSize",
          "type": "uint256"
        }
      ],
      "stateMutability": "nonpayable",
      "type": "constructor"
    },
    {
      "anonymous": false,
      "inputs": [
        {
          "indexed": false,
          "internalType": "address",
          "name": "newAddress",
          "type": "address"
        }
      ],
      "name": "Deprecate",
      "type": "event"
    },
    {
      "inputs": [
        {
          "internalType": "uint256",
          "name": "",
          "type": "uint256"
        }
      ],
      "name": "SerializedCCEs",
      "outputs": [
        {
          "internalType": "bytes",
          "name": "",
          "type": "bytes"
        }
      ],
      "stateMutability": "view",
      "type": "function",
      "constant": true
    },
    {
      "inputs": [
        {
          "internalType": "uint256",
          "name": "",
          "type": "uint256"
        }
      ],
      "name": "SerializedCRTs",
      "outputs": [
        {
          "internalType": "bytes",
          "name": "",
          "type": "bytes"
        }
      ],
      "stateMutability": "view",
      "type": "function",
      "constant": true
    },
    {
      "inputs": [
        {
          "internalType": "uint256",
          "name": "",
          "type": "uint256"
        },
        {
          "internalType": "uint256",
          "name": "",
          "type": "uint256"
        }
      ],
      "name": "_readyExports",
      "outputs": [
        {
          "internalType": "uint32",
          "name": "version",
          "type": "uint32"
        },
        {
          "components": [
            {
              "internalType": "address",
              "name": "currency",
              "type": "address"
            },
            {
              "internalType": "uint64",
              "name": "amount",
              "type": "uint64"
            }
          ],
          "internalType": "struct VerusObjects.CCurrencyValueMap",
          "name": "currencyvalue",
          "type": "tuple"
        },
        {
          "internalType": "uint32",
          "name": "flags",
          "type": "uint32"
        },
        {
          "internalType": "address",
          "name": "feecurrencyid",
          "type": "address"
        },
        {
          "internalType": "uint256",
          "name": "fees",
          "type": "uint256"
        },
        {
          "components": [
            {
              "internalType": "uint8",
              "name": "destinationtype",
              "type": "uint8"
            },
            {
              "internalType": "address",
              "name": "destinationaddress",
              "type": "address"
            }
          ],
          "internalType": "struct VerusObjectsCommon.CTransferDestination",
          "name": "destination",
          "type": "tuple"
        },
        {
          "internalType": "address",
          "name": "destcurrencyid",
          "type": "address"
        },
        {
          "internalType": "address",
          "name": "destsystemid",
          "type": "address"
        },
        {
          "internalType": "address",
          "name": "secondreserveid",
          "type": "address"
        }
      ],
      "stateMutability": "view",
      "type": "function",
      "constant": true
    },
    {
      "inputs": [
        {
          "internalType": "address",
          "name": "",
          "type": "address"
        }
      ],
      "name": "claimableFees",
      "outputs": [
        {
          "internalType": "uint256",
          "name": "",
          "type": "uint256"
        }
      ],
      "stateMutability": "view",
      "type": "function",
      "constant": true
    },
    {
      "inputs": [],
      "name": "deprecated",
      "outputs": [
        {
          "internalType": "bool",
          "name": "",
          "type": "bool"
        }
      ],
      "stateMutability": "view",
      "type": "function",
      "constant": true
    },
    {
      "inputs": [],
      "name": "ethHeld",
      "outputs": [
        {
          "internalType": "uint256",
          "name": "",
          "type": "uint256"
        }
      ],
      "stateMutability": "view",
      "type": "function",
      "constant": true
    },
    {
      "inputs": [],
      "name": "feesHeld",
      "outputs": [
        {
          "internalType": "uint256",
          "name": "",
          "type": "uint256"
        }
      ],
      "stateMutability": "view",
      "type": "function",
      "constant": true
    },
    {
      "inputs": [],
      "name": "firstBlock",
      "outputs": [
        {
          "internalType": "uint256",
          "name": "",
          "type": "uint256"
        }
      ],
      "stateMutability": "view",
      "type": "function",
      "constant": true
    },
    {
      "inputs": [
        {
          "internalType": "uint256",
          "name": "",
          "type": "uint256"
        }
      ],
      "name": "hashedCRTs",
      "outputs": [
        {
          "internalType": "bytes32",
          "name": "",
          "type": "bytes32"
        }
      ],
      "stateMutability": "view",
      "type": "function",
      "constant": true
    },
    {
      "inputs": [],
      "name": "lastTxidimport",
      "outputs": [
        {
          "internalType": "uint256",
          "name": "",
          "type": "uint256"
        }
      ],
      "stateMutability": "view",
      "type": "function",
      "constant": true
    },
    {
      "inputs": [],
      "name": "lastimport",
      "outputs": [
        {
          "internalType": "uint256",
          "name": "height",
          "type": "uint256"
        },
        {
          "internalType": "bytes32",
          "name": "txid",
          "type": "bytes32"
        }
      ],
      "stateMutability": "view",
      "type": "function",
      "constant": true
    },
    {
      "inputs": [],
      "name": "poolSize",
      "outputs": [
        {
          "internalType": "uint256",
          "name": "",
          "type": "uint256"
        }
      ],
      "stateMutability": "view",
      "type": "function",
      "constant": true
    },
    {
      "inputs": [
        {
          "internalType": "bytes32",
          "name": "",
          "type": "bytes32"
        }
      ],
      "name": "processedTxids",
      "outputs": [
        {
          "internalType": "bool",
          "name": "",
          "type": "bool"
        }
      ],
      "stateMutability": "view",
      "type": "function",
      "constant": true
    },
    {
      "inputs": [
        {
          "internalType": "uint256",
          "name": "",
          "type": "uint256"
        }
      ],
      "name": "readyExportHashes",
      "outputs": [
        {
          "internalType": "bytes32",
          "name": "",
          "type": "bytes32"
        }
      ],
      "stateMutability": "view",
      "type": "function",
      "constant": true
    },
    {
      "inputs": [
        {
          "internalType": "uint256",
          "name": "",
          "type": "uint256"
        }
      ],
      "name": "readyExportsByBlock",
      "outputs": [
        {
          "internalType": "uint256",
          "name": "index",
          "type": "uint256"
        },
        {
          "internalType": "bool",
          "name": "created",
          "type": "bool"
        }
      ],
      "stateMutability": "view",
      "type": "function",
      "constant": true
    },
    {
      "inputs": [],
      "name": "upgradedAddress",
      "outputs": [
        {
          "internalType": "address",
          "name": "",
          "type": "address"
        }
      ],
      "stateMutability": "view",
      "type": "function",
      "constant": true
    },
    {
      "inputs": [
        {
          "internalType": "uint256",
          "name": "a",
          "type": "uint256"
        },
        {
          "internalType": "uint8",
          "name": "decimals",
          "type": "uint8"
        }
      ],
      "name": "convertFromVerusNumber",
      "outputs": [
        {
          "internalType": "uint256",
          "name": "",
          "type": "uint256"
        }
      ],
      "stateMutability": "pure",
      "type": "function",
      "constant": true
    },
    {
      "inputs": [
        {
          "internalType": "uint256",
          "name": "a",
          "type": "uint256"
        },
        {
          "internalType": "uint8",
          "name": "decimals",
          "type": "uint8"
        }
      ],
      "name": "convertToVerusNumber",
      "outputs": [
        {
          "internalType": "uint64",
          "name": "",
          "type": "uint64"
        }
      ],
      "stateMutability": "pure",
      "type": "function",
      "constant": true
    },
    {
      "inputs": [
        {
          "components": [
            {
              "internalType": "uint32",
              "name": "version",
              "type": "uint32"
            },
            {
              "components": [
                {
                  "internalType": "address",
                  "name": "currency",
                  "type": "address"
                },
                {
                  "internalType": "uint64",
                  "name": "amount",
                  "type": "uint64"
                }
              ],
              "internalType": "struct VerusObjects.CCurrencyValueMap",
              "name": "currencyvalue",
              "type": "tuple"
            },
            {
              "internalType": "uint32",
              "name": "flags",
              "type": "uint32"
            },
            {
              "internalType": "address",
              "name": "feecurrencyid",
              "type": "address"
            },
            {
              "internalType": "uint256",
              "name": "fees",
              "type": "uint256"
            },
            {
              "components": [
                {
                  "internalType": "uint8",
                  "name": "destinationtype",
                  "type": "uint8"
                },
                {
                  "internalType": "address",
                  "name": "destinationaddress",
                  "type": "address"
                }
              ],
              "internalType": "struct VerusObjectsCommon.CTransferDestination",
              "name": "destination",
              "type": "tuple"
            },
            {
              "internalType": "address",
              "name": "destcurrencyid",
              "type": "address"
            },
            {
              "internalType": "address",
              "name": "destsystemid",
              "type": "address"
            },
            {
              "internalType": "address",
              "name": "secondreserveid",
              "type": "address"
            }
          ],
          "internalType": "struct VerusObjects.CReserveTransfer",
          "name": "transfer",
          "type": "tuple"
        }
      ],
      "name": "export",
      "outputs": [],
      "stateMutability": "payable",
      "type": "function",
      "payable": true
    },
    {
      "inputs": [],
      "name": "getlastimportheight",
      "outputs": [
        {
          "internalType": "uint256",
          "name": "",
          "type": "uint256"
        }
      ],
      "stateMutability": "view",
      "type": "function",
      "constant": true
    },
    {
      "inputs": [
        {
          "internalType": "bytes32[]",
          "name": "_imports",
          "type": "bytes32[]"
        }
      ],
      "name": "checkImports",
      "outputs": [
        {
          "internalType": "bytes32[]",
          "name": "",
          "type": "bytes32[]"
        }
      ],
      "stateMutability": "view",
      "type": "function",
      "constant": true
    },
    {
      "inputs": [
        {
          "components": [
            {
              "internalType": "uint256",
              "name": "height",
              "type": "uint256"
            },
            {
              "internalType": "bytes32",
              "name": "txid",
              "type": "bytes32"
            },
            {
              "internalType": "uint256",
              "name": "txoutnum",
              "type": "uint256"
            },
            {
              "components": [
                {
                  "internalType": "uint16",
                  "name": "version",
                  "type": "uint16"
                },
                {
                  "internalType": "uint16",
                  "name": "flags",
                  "type": "uint16"
                },
                {
                  "internalType": "address",
                  "name": "sourcesystemid",
                  "type": "address"
                },
                {
                  "internalType": "uint32",
                  "name": "sourceheightstart",
                  "type": "uint32"
                },
                {
                  "internalType": "uint32",
                  "name": "sourceheightend",
                  "type": "uint32"
                },
                {
                  "internalType": "address",
                  "name": "destinationsystemid",
                  "type": "address"
                },
                {
                  "internalType": "address",
                  "name": "destinationcurrencyid",
                  "type": "address"
                },
                {
                  "internalType": "uint32",
                  "name": "numinputs",
                  "type": "uint32"
                },
                {
                  "components": [
                    {
                      "internalType": "address",
                      "name": "currency",
                      "type": "address"
                    },
                    {
                      "internalType": "uint64",
                      "name": "amount",
                      "type": "uint64"
                    }
                  ],
                  "internalType": "struct VerusObjects.CCurrencyValueMap[]",
                  "name": "totalamounts",
                  "type": "tuple[]"
                },
                {
                  "components": [
                    {
                      "internalType": "address",
                      "name": "currency",
                      "type": "address"
                    },
                    {
                      "internalType": "uint64",
                      "name": "amount",
                      "type": "uint64"
                    }
                  ],
                  "internalType": "struct VerusObjects.CCurrencyValueMap[]",
                  "name": "totalfees",
                  "type": "tuple[]"
                },
                {
                  "internalType": "bytes32",
                  "name": "hashtransfers",
                  "type": "bytes32"
                },
                {
                  "components": [
                    {
                      "internalType": "address",
                      "name": "currency",
                      "type": "address"
                    },
                    {
                      "internalType": "uint64",
                      "name": "amount",
                      "type": "uint64"
                    }
                  ],
                  "internalType": "struct VerusObjects.CCurrencyValueMap[]",
                  "name": "totalburned",
                  "type": "tuple[]"
                },
                {
                  "components": [
                    {
                      "internalType": "uint8",
                      "name": "destinationtype",
                      "type": "uint8"
                    },
                    {
                      "internalType": "address",
                      "name": "destinationaddress",
                      "type": "address"
                    }
                  ],
                  "internalType": "struct VerusObjectsCommon.CTransferDestination",
                  "name": "rewardaddress",
                  "type": "tuple"
                },
                {
                  "internalType": "int32",
                  "name": "firstinput",
                  "type": "int32"
                }
              ],
              "internalType": "struct VerusObjects.CCrossChainExport",
              "name": "exportinfo",
              "type": "tuple"
            },
            {
              "components": [
                {
                  "internalType": "uint8",
                  "name": "version",
                  "type": "uint8"
                },
                {
                  "internalType": "uint8",
                  "name": "typeC",
                  "type": "uint8"
                },
                {
                  "components": [
                    {
                      "internalType": "uint8",
                      "name": "branchType",
                      "type": "uint8"
                    },
                    {
                      "components": [
                        {
                          "internalType": "uint8",
                          "name": "CMerkleBranchBase",
                          "type": "uint8"
                        },
                        {
                          "internalType": "uint32",
                          "name": "nIndex",
                          "type": "uint32"
                        },
                        {
                          "internalType": "uint32",
                          "name": "nSize",
                          "type": "uint32"
                        },
                        {
                          "internalType": "bytes32[]",
                          "name": "branch",
                          "type": "bytes32[]"
                        }
                      ],
                      "internalType": "struct VerusObjects.CMerkleBranch",
                      "name": "proofSequence",
                      "type": "tuple"
                    }
                  ],
                  "internalType": "struct VerusObjects.CTXProof[]",
                  "name": "txproof",
                  "type": "tuple[]"
                },
                {
                  "components": [
                    {
                      "internalType": "uint8",
                      "name": "elType",
                      "type": "uint8"
                    },
                    {
                      "internalType": "uint8",
                      "name": "elIdx",
                      "type": "uint8"
                    },
                    {
                      "internalType": "bytes",
                      "name": "elVchObj",
                      "type": "bytes"
                    },
                    {
                      "components": [
                        {
                          "internalType": "uint8",
                          "name": "branchType",
                          "type": "uint8"
                        },
                        {
                          "components": [
                            {
                              "internalType": "uint8",
                              "name": "CMerkleBranchBase",
                              "type": "uint8"
                            },
                            {
                              "internalType": "uint32",
                              "name": "nIndex",
                              "type": "uint32"
                            },
                            {
                              "internalType": "uint32",
                              "name": "nSize",
                              "type": "uint32"
                            },
                            {
                              "internalType": "bytes32[]",
                              "name": "branch",
                              "type": "bytes32[]"
                            }
                          ],
                          "internalType": "struct VerusObjects.CMerkleBranch",
                          "name": "proofSequence",
                          "type": "tuple"
                        }
                      ],
                      "internalType": "struct VerusObjects.CTXProof[]",
                      "name": "elProof",
                      "type": "tuple[]"
                    },
                    {
                      "internalType": "uint32",
                      "name": "VchObjIndex",
                      "type": "uint32"
                    }
                  ],
                  "internalType": "struct VerusObjects.CComponents[]",
                  "name": "components",
                  "type": "tuple[]"
                }
              ],
              "internalType": "struct VerusObjects.CPtransactionproof",
              "name": "partialtransactionproof",
              "type": "tuple"
            },
            {
              "components": [
                {
                  "internalType": "uint32",
                  "name": "version",
                  "type": "uint32"
                },
                {
                  "components": [
                    {
                      "internalType": "address",
                      "name": "currency",
                      "type": "address"
                    },
                    {
                      "internalType": "uint64",
                      "name": "amount",
                      "type": "uint64"
                    }
                  ],
                  "internalType": "struct VerusObjects.CCurrencyValueMap",
                  "name": "currencyvalue",
                  "type": "tuple"
                },
                {
                  "internalType": "uint32",
                  "name": "flags",
                  "type": "uint32"
                },
                {
                  "internalType": "address",
                  "name": "feecurrencyid",
                  "type": "address"
                },
                {
                  "internalType": "uint256",
                  "name": "fees",
                  "type": "uint256"
                },
                {
                  "components": [
                    {
                      "internalType": "uint8",
                      "name": "destinationtype",
                      "type": "uint8"
                    },
                    {
                      "internalType": "address",
                      "name": "destinationaddress",
                      "type": "address"
                    }
                  ],
                  "internalType": "struct VerusObjectsCommon.CTransferDestination",
                  "name": "destination",
                  "type": "tuple"
                },
                {
                  "internalType": "address",
                  "name": "destcurrencyid",
                  "type": "address"
                },
                {
                  "internalType": "address",
                  "name": "destsystemid",
                  "type": "address"
                },
                {
                  "internalType": "address",
                  "name": "secondreserveid",
                  "type": "address"
                }
              ],
              "internalType": "struct VerusObjects.CReserveTransfer[]",
              "name": "transfers",
              "type": "tuple[]"
            }
          ],
          "internalType": "struct VerusObjects.CReserveTransferImport[]",
          "name": "_imports",
          "type": "tuple[]"
        }
      ],
      "name": "submitImports",
      "outputs": [],
      "stateMutability": "nonpayable",
      "type": "function"
    },
    {
      "inputs": [
        {
          "components": [
            {
              "internalType": "uint256",
              "name": "height",
              "type": "uint256"
            },
            {
              "internalType": "bytes32",
              "name": "txid",
              "type": "bytes32"
            },
            {
              "internalType": "uint256",
              "name": "txoutnum",
              "type": "uint256"
            },
            {
              "components": [
                {
                  "internalType": "uint16",
                  "name": "version",
                  "type": "uint16"
                },
                {
                  "internalType": "uint16",
                  "name": "flags",
                  "type": "uint16"
                },
                {
                  "internalType": "address",
                  "name": "sourcesystemid",
                  "type": "address"
                },
                {
                  "internalType": "uint32",
                  "name": "sourceheightstart",
                  "type": "uint32"
                },
                {
                  "internalType": "uint32",
                  "name": "sourceheightend",
                  "type": "uint32"
                },
                {
                  "internalType": "address",
                  "name": "destinationsystemid",
                  "type": "address"
                },
                {
                  "internalType": "address",
                  "name": "destinationcurrencyid",
                  "type": "address"
                },
                {
                  "internalType": "uint32",
                  "name": "numinputs",
                  "type": "uint32"
                },
                {
                  "components": [
                    {
                      "internalType": "address",
                      "name": "currency",
                      "type": "address"
                    },
                    {
                      "internalType": "uint64",
                      "name": "amount",
                      "type": "uint64"
                    }
                  ],
                  "internalType": "struct VerusObjects.CCurrencyValueMap[]",
                  "name": "totalamounts",
                  "type": "tuple[]"
                },
                {
                  "components": [
                    {
                      "internalType": "address",
                      "name": "currency",
                      "type": "address"
                    },
                    {
                      "internalType": "uint64",
                      "name": "amount",
                      "type": "uint64"
                    }
                  ],
                  "internalType": "struct VerusObjects.CCurrencyValueMap[]",
                  "name": "totalfees",
                  "type": "tuple[]"
                },
                {
                  "internalType": "bytes32",
                  "name": "hashtransfers",
                  "type": "bytes32"
                },
                {
                  "components": [
                    {
                      "internalType": "address",
                      "name": "currency",
                      "type": "address"
                    },
                    {
                      "internalType": "uint64",
                      "name": "amount",
                      "type": "uint64"
                    }
                  ],
                  "internalType": "struct VerusObjects.CCurrencyValueMap[]",
                  "name": "totalburned",
                  "type": "tuple[]"
                },
                {
                  "components": [
                    {
                      "internalType": "uint8",
                      "name": "destinationtype",
                      "type": "uint8"
                    },
                    {
                      "internalType": "address",
                      "name": "destinationaddress",
                      "type": "address"
                    }
                  ],
                  "internalType": "struct VerusObjectsCommon.CTransferDestination",
                  "name": "rewardaddress",
                  "type": "tuple"
                },
                {
                  "internalType": "int32",
                  "name": "firstinput",
                  "type": "int32"
                }
              ],
              "internalType": "struct VerusObjects.CCrossChainExport",
              "name": "exportinfo",
              "type": "tuple"
            },
            {
              "components": [
                {
                  "internalType": "uint8",
                  "name": "version",
                  "type": "uint8"
                },
                {
                  "internalType": "uint8",
                  "name": "typeC",
                  "type": "uint8"
                },
                {
                  "components": [
                    {
                      "internalType": "uint8",
                      "name": "branchType",
                      "type": "uint8"
                    },
                    {
                      "components": [
                        {
                          "internalType": "uint8",
                          "name": "CMerkleBranchBase",
                          "type": "uint8"
                        },
                        {
                          "internalType": "uint32",
                          "name": "nIndex",
                          "type": "uint32"
                        },
                        {
                          "internalType": "uint32",
                          "name": "nSize",
                          "type": "uint32"
                        },
                        {
                          "internalType": "bytes32[]",
                          "name": "branch",
                          "type": "bytes32[]"
                        }
                      ],
                      "internalType": "struct VerusObjects.CMerkleBranch",
                      "name": "proofSequence",
                      "type": "tuple"
                    }
                  ],
                  "internalType": "struct VerusObjects.CTXProof[]",
                  "name": "txproof",
                  "type": "tuple[]"
                },
                {
                  "components": [
                    {
                      "internalType": "uint8",
                      "name": "elType",
                      "type": "uint8"
                    },
                    {
                      "internalType": "uint8",
                      "name": "elIdx",
                      "type": "uint8"
                    },
                    {
                      "internalType": "bytes",
                      "name": "elVchObj",
                      "type": "bytes"
                    },
                    {
                      "components": [
                        {
                          "internalType": "uint8",
                          "name": "branchType",
                          "type": "uint8"
                        },
                        {
                          "components": [
                            {
                              "internalType": "uint8",
                              "name": "CMerkleBranchBase",
                              "type": "uint8"
                            },
                            {
                              "internalType": "uint32",
                              "name": "nIndex",
                              "type": "uint32"
                            },
                            {
                              "internalType": "uint32",
                              "name": "nSize",
                              "type": "uint32"
                            },
                            {
                              "internalType": "bytes32[]",
                              "name": "branch",
                              "type": "bytes32[]"
                            }
                          ],
                          "internalType": "struct VerusObjects.CMerkleBranch",
                          "name": "proofSequence",
                          "type": "tuple"
                        }
                      ],
                      "internalType": "struct VerusObjects.CTXProof[]",
                      "name": "elProof",
                      "type": "tuple[]"
                    },
                    {
                      "internalType": "uint32",
                      "name": "VchObjIndex",
                      "type": "uint32"
                    }
                  ],
                  "internalType": "struct VerusObjects.CComponents[]",
                  "name": "components",
                  "type": "tuple[]"
                }
              ],
              "internalType": "struct VerusObjects.CPtransactionproof",
              "name": "partialtransactionproof",
              "type": "tuple"
            },
            {
              "components": [
                {
                  "internalType": "uint32",
                  "name": "version",
                  "type": "uint32"
                },
                {
                  "components": [
                    {
                      "internalType": "address",
                      "name": "currency",
                      "type": "address"
                    },
                    {
                      "internalType": "uint64",
                      "name": "amount",
                      "type": "uint64"
                    }
                  ],
                  "internalType": "struct VerusObjects.CCurrencyValueMap",
                  "name": "currencyvalue",
                  "type": "tuple"
                },
                {
                  "internalType": "uint32",
                  "name": "flags",
                  "type": "uint32"
                },
                {
                  "internalType": "address",
                  "name": "feecurrencyid",
                  "type": "address"
                },
                {
                  "internalType": "uint256",
                  "name": "fees",
                  "type": "uint256"
                },
                {
                  "components": [
                    {
                      "internalType": "uint8",
                      "name": "destinationtype",
                      "type": "uint8"
                    },
                    {
                      "internalType": "address",
                      "name": "destinationaddress",
                      "type": "address"
                    }
                  ],
                  "internalType": "struct VerusObjectsCommon.CTransferDestination",
                  "name": "destination",
                  "type": "tuple"
                },
                {
                  "internalType": "address",
                  "name": "destcurrencyid",
                  "type": "address"
                },
                {
                  "internalType": "address",
                  "name": "destsystemid",
                  "type": "address"
                },
                {
                  "internalType": "address",
                  "name": "secondreserveid",
                  "type": "address"
                }
              ],
              "internalType": "struct VerusObjects.CReserveTransfer[]",
              "name": "transfers",
              "type": "tuple[]"
            }
          ],
          "internalType": "struct VerusObjects.CReserveTransferImport",
          "name": "_import",
          "type": "tuple"
        }
      ],
      "name": "_createImports",
      "outputs": [
        {
          "internalType": "bool",
          "name": "",
          "type": "bool"
        }
      ],
      "stateMutability": "nonpayable",
      "type": "function"
    },
    {
      "inputs": [
        {
          "internalType": "uint256",
          "name": "_blockNumber",
          "type": "uint256"
        }
      ],
      "name": "getReadyExportsByBlock",
      "outputs": [
        {
          "components": [
            {
              "internalType": "uint256",
              "name": "position",
              "type": "uint256"
            },
            {
              "internalType": "uint256",
              "name": "blockHeight",
              "type": "uint256"
            },
            {
              "internalType": "bytes32",
              "name": "exportHash",
              "type": "bytes32"
            },
            {
              "components": [
                {
                  "internalType": "uint32",
                  "name": "version",
                  "type": "uint32"
                },
                {
                  "components": [
                    {
                      "internalType": "address",
                      "name": "currency",
                      "type": "address"
                    },
                    {
                      "internalType": "uint64",
                      "name": "amount",
                      "type": "uint64"
                    }
                  ],
                  "internalType": "struct VerusObjects.CCurrencyValueMap",
                  "name": "currencyvalue",
                  "type": "tuple"
                },
                {
                  "internalType": "uint32",
                  "name": "flags",
                  "type": "uint32"
                },
                {
                  "internalType": "address",
                  "name": "feecurrencyid",
                  "type": "address"
                },
                {
                  "internalType": "uint256",
                  "name": "fees",
                  "type": "uint256"
                },
                {
                  "components": [
                    {
                      "internalType": "uint8",
                      "name": "destinationtype",
                      "type": "uint8"
                    },
                    {
                      "internalType": "address",
                      "name": "destinationaddress",
                      "type": "address"
                    }
                  ],
                  "internalType": "struct VerusObjectsCommon.CTransferDestination",
                  "name": "destination",
                  "type": "tuple"
                },
                {
                  "internalType": "address",
                  "name": "destcurrencyid",
                  "type": "address"
                },
                {
                  "internalType": "address",
                  "name": "destsystemid",
                  "type": "address"
                },
                {
                  "internalType": "address",
                  "name": "secondreserveid",
                  "type": "address"
                }
              ],
              "internalType": "struct VerusObjects.CReserveTransfer[]",
              "name": "transfers",
              "type": "tuple[]"
            }
          ],
          "internalType": "struct VerusObjects.CReserveTransferSet",
          "name": "",
          "type": "tuple"
        }
      ],
      "stateMutability": "view",
      "type": "function",
      "constant": true
    },
    {
      "inputs": [
        {
          "internalType": "uint256",
          "name": "_startBlock",
          "type": "uint256"
        },
        {
          "internalType": "uint256",
          "name": "_endBlock",
          "type": "uint256"
        }
      ],
      "name": "getReadyExportsByRange",
      "outputs": [
        {
          "components": [
            {
              "internalType": "uint256",
              "name": "position",
              "type": "uint256"
            },
            {
              "internalType": "uint256",
              "name": "blockHeight",
              "type": "uint256"
            },
            {
              "internalType": "bytes32",
              "name": "exportHash",
              "type": "bytes32"
            },
            {
              "components": [
                {
                  "internalType": "uint32",
                  "name": "version",
                  "type": "uint32"
                },
                {
                  "components": [
                    {
                      "internalType": "address",
                      "name": "currency",
                      "type": "address"
                    },
                    {
                      "internalType": "uint64",
                      "name": "amount",
                      "type": "uint64"
                    }
                  ],
                  "internalType": "struct VerusObjects.CCurrencyValueMap",
                  "name": "currencyvalue",
                  "type": "tuple"
                },
                {
                  "internalType": "uint32",
                  "name": "flags",
                  "type": "uint32"
                },
                {
                  "internalType": "address",
                  "name": "feecurrencyid",
                  "type": "address"
                },
                {
                  "internalType": "uint256",
                  "name": "fees",
                  "type": "uint256"
                },
                {
                  "components": [
                    {
                      "internalType": "uint8",
                      "name": "destinationtype",
                      "type": "uint8"
                    },
                    {
                      "internalType": "address",
                      "name": "destinationaddress",
                      "type": "address"
                    }
                  ],
                  "internalType": "struct VerusObjectsCommon.CTransferDestination",
                  "name": "destination",
                  "type": "tuple"
                },
                {
                  "internalType": "address",
                  "name": "destcurrencyid",
                  "type": "address"
                },
                {
                  "internalType": "address",
                  "name": "destsystemid",
                  "type": "address"
                },
                {
                  "internalType": "address",
                  "name": "secondreserveid",
                  "type": "address"
                }
              ],
              "internalType": "struct VerusObjects.CReserveTransfer[]",
              "name": "transfers",
              "type": "tuple[]"
            }
          ],
          "internalType": "struct VerusObjects.CReserveTransferSet[]",
          "name": "",
          "type": "tuple[]"
        }
      ],
      "stateMutability": "view",
      "type": "function",
      "constant": true
    },
    {
      "inputs": [],
      "name": "claimFees",
      "outputs": [
        {
          "internalType": "uint256",
          "name": "",
          "type": "uint256"
        }
      ],
      "stateMutability": "nonpayable",
      "type": "function"
    }
  ],
  "bytecode": "0x60806040526000600560146101000a81548160ff0219169083151502179055506000600755600060085560006009556000600a553480156200004057600080fd5b506040516200628138038062006281833981810160405281019062000066919062000244565b33600560006101000a81548173ffffffffffffffffffffffffffffffffffffffff021916908373ffffffffffffffffffffffffffffffffffffffff16021790555085600260006101000a81548173ffffffffffffffffffffffffffffffffffffffff021916908373ffffffffffffffffffffffffffffffffffffffff160217905550846000806101000a81548173ffffffffffffffffffffffffffffffffffffffff021916908373ffffffffffffffffffffffffffffffffffffffff16021790555083600160006101000a81548173ffffffffffffffffffffffffffffffffffffffff021916908373ffffffffffffffffffffffffffffffffffffffff16021790555082600360006101000a81548173ffffffffffffffffffffffffffffffffffffffff021916908373ffffffffffffffffffffffffffffffffffffffff16021790555081600460006101000a81548173ffffffffffffffffffffffffffffffffffffffff021916908373ffffffffffffffffffffffffffffffffffffffff160217905550806009819055506000600e600001819055506000801b600e600101819055505050505050506200034c565b600081519050620002278162000318565b92915050565b6000815190506200023e8162000332565b92915050565b60008060008060008060c087890312156200025e57600080fd5b60006200026e89828a0162000216565b96505060206200028189828a0162000216565b95505060406200029489828a0162000216565b9450506060620002a789828a0162000216565b9350506080620002ba89828a0162000216565b92505060a0620002cd89828a016200022d565b9150509295509295509295565b6000620002e782620002ee565b9050919050565b600073ffffffffffffffffffffffffffffffffffffffff82169050919050565b6000819050919050565b6200032381620002da565b81146200032f57600080fd5b50565b6200033d816200030e565b81146200034957600080fd5b50565b615f25806200035c6000396000f3fe6080604052600436106101815760003560e01c80635f2edcbe116100d1578063d5b91a921161008a578063e45b909d11610064578063e45b909d14610609578063e4804abc14610646578063e4f30a9f14610683578063e9fc7ae7146106ae57610181565b8063d5b91a9214610566578063d83aa63c146105a3578063df7dc506146105e057610181565b80635f2edcbe146104125780637e0b24921461043e5780637e3e661b1461047b578063b85c0acb146104c0578063c17a4eef146104fd578063d294f0931461053b57610181565b806333bc02fa1161013e5780633f067b20116101185780633f067b201461035457806342ce50111461037f57806344e5ffd3146103aa5780634ec18db9146103e757610181565b806333bc02fa1461029d57806338eb07e1146102da5780633ee2ce851461031757610181565b80630e136b1914610186578063231b0268146101b157806326976e3f146101dc5780632a9e72a6146102075780632d5beadc14610244578063327d426314610260575b600080fd5b34801561019257600080fd5b5061019b6106d9565b6040516101a8919061555c565b60405180910390f35b3480156101bd57600080fd5b506101c66106ec565b6040516101d3919061573a565b60405180910390f35b3480156101e857600080fd5b506101f16106f2565b6040516101fe91906153eb565b60405180910390f35b34801561021357600080fd5b5061022e600480360381019061022991906141a6565b610718565b60405161023b9190615718565b60405180910390f35b61025e6004803603810190610259919061417c565b610abf565b005b34801561026c57600080fd5b5061028760048036038101906102829190614090565b611089565b604051610294919061555c565b60405180910390f35b3480156102a957600080fd5b506102c460048036038101906102bf919061413b565b6110a9565b6040516102d1919061555c565b60405180910390f35b3480156102e657600080fd5b5061030160048036038101906102fc9190614234565b6115f8565b60405161030e9190615836565b60405180910390f35b34801561032357600080fd5b5061033e600480360381019061033991906141a6565b611630565b60405161034b9190615592565b60405180910390f35b34801561036057600080fd5b506103696116ec565b604051610376919061573a565b60405180910390f35b34801561038b57600080fd5b506103946116f2565b6040516103a1919061573a565b60405180910390f35b3480156103b657600080fd5b506103d160048036038101906103cc91906141a6565b6116f8565b6040516103de9190615577565b60405180910390f35b3480156103f357600080fd5b506103fc61171c565b604051610409919061573a565b60405180910390f35b34801561041e57600080fd5b50610427611722565b60405161043592919061577e565b60405180910390f35b34801561044a57600080fd5b5061046560048036038101906104609190613f6d565b611734565b604051610472919061573a565b60405180910390f35b34801561048757600080fd5b506104a2600480360381019061049d91906141f8565b61174c565b6040516104b7999897969594939291906157a7565b60405180910390f35b3480156104cc57600080fd5b506104e760048036038101906104e29190613fe5565b611972565b6040516104f491906154c6565b60405180910390f35b34801561050957600080fd5b50610524600480360381019061051f91906141a6565b611a5d565b604051610532929190615755565b60405180910390f35b34801561054757600080fd5b50610550611a8e565b60405161055d919061573a565b60405180910390f35b34801561057257600080fd5b5061058d60048036038101906105889190614234565b611bb7565b60405161059a919061573a565b60405180910390f35b3480156105af57600080fd5b506105ca60048036038101906105c591906141a6565b611be8565b6040516105d79190615592565b60405180910390f35b3480156105ec57600080fd5b5061060760048036038101906106029190614026565b611ca4565b005b34801561061557600080fd5b50610630600480360381019061062b91906141a6565b611cde565b60405161063d9190615577565b60405180910390f35b34801561065257600080fd5b5061066d600480360381019061066891906141f8565b611d02565b60405161067a91906154e8565b60405180910390f35b34801561068f57600080fd5b50610698611e31565b6040516106a5919061573a565b60405180910390f35b3480156106ba57600080fd5b506106c3611e3b565b6040516106d0919061573a565b60405180910390f35b600560149054906101000a900460ff1681565b600a5481565b600660009054906101000a900473ffffffffffffffffffffffffffffffffffffffff1681565b610720612aba565b60006011600084815260200190815260200160002060000154905060006040518060800160405280838152602001858152602001600b848154811061076157fe5b90600052602060002001548152602001600d848154811061077e57fe5b90600052602060002001805480602002602001604051908101604052809291908181526020016000905b82821015610aac5783829060005260206000209060080201604051806101200160405290816000820160009054906101000a900463ffffffff1663ffffffff1663ffffffff168152602001600182016040518060400160405290816000820160009054906101000a900473ffffffffffffffffffffffffffffffffffffffff1673ffffffffffffffffffffffffffffffffffffffff1673ffffffffffffffffffffffffffffffffffffffff1681526020016000820160149054906101000a900467ffffffffffffffff1667ffffffffffffffff1667ffffffffffffffff168152505081526020016002820160009054906101000a900463ffffffff1663ffffffff1663ffffffff1681526020016002820160049054906101000a900473ffffffffffffffffffffffffffffffffffffffff1673ffffffffffffffffffffffffffffffffffffffff1673ffffffffffffffffffffffffffffffffffffffff16815260200160038201548152602001600482016040518060400160405290816000820160009054906101000a900460ff1660ff1660ff1681526020016000820160019054906101000a900473ffffffffffffffffffffffffffffffffffffffff1673ffffffffffffffffffffffffffffffffffffffff1673ffffffffffffffffffffffffffffffffffffffff168152505081526020016005820160009054906101000a900473ffffffffffffffffffffffffffffffffffffffff1673ffffffffffffffffffffffffffffffffffffffff1673ffffffffffffffffffffffffffffffffffffffff1681526020016006820160009054906101000a900473ffffffffffffffffffffffffffffffffffffffff1673ffffffffffffffffffffffffffffffffffffffff1673ffffffffffffffffffffffffffffffffffffffff1681526020016007820160009054906101000a900473ffffffffffffffffffffffffffffffffffffffff1673ffffffffffffffffffffffffffffffffffffffff1673ffffffffffffffffffffffffffffffffffffffff1681525050815260200190600101906107a8565b5050505081525090508092505050919050565b600560149054906101000a900460ff1615610b0f576040517f08c379a0000000000000000000000000000000000000000000000000000000008152600401610b06906155d4565b60405180910390fd5b806080015167ffffffffffffffff16655af3107a400001341015610b68576040517f08c379a0000000000000000000000000000000000000000000000000000000008152600401610b5f906156b4565b60405180910390fd5b7367460c2f56774ed27eeb8685f29f6cec0b090b0073ffffffffffffffffffffffffffffffffffffffff1681602001516000015173ffffffffffffffffffffffffffffffffffffffff161461100e573460076000828254019250508190555060008060008060009054906101000a900473ffffffffffffffffffffffffffffffffffffffff1673ffffffffffffffffffffffffffffffffffffffff1663b17f15a28560200151600001516040518263ffffffff1660e01b8152600401610c2e91906153eb565b60606040518083038186803b158015610c4657600080fd5b505afa158015610c5a573d6000803e3d6000fd5b505050506040513d601f19601f82011682018060405250810190610c7e9190613f96565b92509250925080610cc4576040517f08c379a0000000000000000000000000000000000000000000000000000000008152600401610cbb90615674565b60405180910390fd5b600083905060008173ffffffffffffffffffffffffffffffffffffffff1663dd62ed3e33306040518363ffffffff1660e01b8152600401610d06929190615406565b60206040518083038186803b158015610d1e57600080fd5b505afa158015610d32573d6000803e3d6000fd5b505050506040513d601f19601f82011682018060405250810190610d5691906141cf565b90506000610df387602001516020015167ffffffffffffffff168473ffffffffffffffffffffffffffffffffffffffff1663313ce5676040518163ffffffff1660e01b815260040160206040518083038186803b158015610db657600080fd5b505afa158015610dca573d6000803e3d6000fd5b505050506040513d601f19601f82011682018060405250810190610dee9190614270565b611bb7565b905080821015610e38576040517f08c379a0000000000000000000000000000000000000000000000000000000008152600401610e2f90615694565b60405180910390fd5b8273ffffffffffffffffffffffffffffffffffffffff166323b872dd3330846040518463ffffffff1660e01b8152600401610e759392919061542f565b602060405180830381600087803b158015610e8f57600080fd5b505af1158015610ea3573d6000803e3d6000fd5b505050506040513d601f19601f82011682018060405250810190610ec79190614067565b508273ffffffffffffffffffffffffffffffffffffffff1663095ea7b360008054906101000a900473ffffffffffffffffffffffffffffffffffffffff16836040518363ffffffff1660e01b8152600401610f23929190615466565b602060405180830381600087803b158015610f3d57600080fd5b505af1158015610f51573d6000803e3d6000fd5b505050506040513d601f19601f82011682018060405250810190610f759190614067565b5060008054906101000a900473ffffffffffffffffffffffffffffffffffffffff1673ffffffffffffffffffffffffffffffffffffffff16639033ef3f87836040518363ffffffff1660e01b8152600401610fd1929190615466565b600060405180830381600087803b158015610feb57600080fd5b505af1158015610fff573d6000803e3d6000fd5b5050505050505050505061107d565b611021655af3107a4000340360126115f8565b81602001516020019067ffffffffffffffff16908167ffffffffffffffff168152505080602001516020015167ffffffffffffffff16600860008282540192505081905550655af3107a40006007600082825401925050819055505b61108681611e41565b50565b60106020528060005260406000206000915054906101000a900460ff1681565b600060011515601060008460200151815260200190815260200160002060009054906101000a900460ff16151514156110e557600090506115f3565b6000808360800151606001516000815181106110fd57fe5b60200260200101516040015190506020810151915081846020015114611158576040517f08c379a000000000000000000000000000000000000000000000000000000000815260040161114f906155f4565b60405180910390fd5b6000600260009054906101000a900473ffffffffffffffffffffffffffffffffffffffff1673ffffffffffffffffffffffffffffffffffffffff16638f59b004866040518263ffffffff1660e01b81526004016111b591906156f6565b60206040518083038186803b1580156111cd57600080fd5b505afa1580156111e1573d6000803e3d6000fd5b505050506040513d601f19601f820116820180604052508101906112059190614067565b905080611247576040517f08c379a000000000000000000000000000000000000000000000000000000000815260040161123e90615614565b60405180910390fd5b6001601060008760200151815260200190815260200160002060006101000a81548160ff021916908315150217905550846000015160165410156112915784600001516016819055505b600080600090505b8660a00151518110156115e9576112da8760a0015182815181106112b957fe5b6020026020010151602001516020015167ffffffffffffffff166012611bb7565b91507367460c2f56774ed27eeb8685f29f6cec0b090b0073ffffffffffffffffffffffffffffffffffffffff168760a00151828151811061131757fe5b6020026020010151602001516000015173ffffffffffffffffffffffffffffffffffffffff1614156113c45747821115611386576040517f08c379a000000000000000000000000000000000000000000000000000000000815260040161137d90615634565b60405180910390fd5b6113af828860a00151838151811061139a57fe5b602002602001015160a001516020015161289c565b816008600082825403925050819055506114b1565b60008054906101000a900473ffffffffffffffffffffffffffffffffffffffff1673ffffffffffffffffffffffffffffffffffffffff1663abe900e48860a00151838151811061141057fe5b602002602001015160200151600001518960a00151848151811061143057fe5b602002602001015160200151602001518a60a00151858151811061145057fe5b602002602001015160a00151602001516040518463ffffffff1660e01b815260040161147e9392919061548f565b600060405180830381600087803b15801561149857600080fd5b505af11580156114ac573d6000803e3d6000fd5b505050505b60008760a0015182815181106114c357fe5b60200260200101516080015111801561153657507367460c2f56774ed27eeb8685f29f6cec0b090b0073ffffffffffffffffffffffffffffffffffffffff168760a00151828151811061151257fe5b60200260200101516060015173ffffffffffffffffffffffffffffffffffffffff16145b156115dc578660a00151818151811061154b57fe5b602002602001015160800151601260003373ffffffffffffffffffffffffffffffffffffffff1673ffffffffffffffffffffffffffffffffffffffff1681526020019081526020016000205401601260003373ffffffffffffffffffffffffffffffffffffffff1673ffffffffffffffffffffffffffffffffffffffff168152602001908152602001600020819055505b8080600101915050611299565b5060019450505050505b919050565b600080600a905060128360ff1611611611576008830390505b60008160ff16600a0a858161162257fe5b049050809250505092915050565b6014818154811061164057600080fd5b906000526020600020016000915090508054600181600116156101000203166002900480601f0160208091040260200160405190810160405280929190818152602001828054600181600116156101000203166002900480156116e45780601f106116b9576101008083540402835291602001916116e4565b820191906000526020600020905b8154815290600101906020018083116116c757829003601f168201915b505050505081565b60075481565b60085481565b6015818154811061170857600080fd5b906000526020600020016000915090505481565b60095481565b600e8060000154908060010154905082565b60126020528060005260406000206000915090505481565b600d828154811061175c57600080fd5b90600052602060002001818154811061177457600080fd5b9060005260206000209060080201600091509150508060000160009054906101000a900463ffffffff1690806001016040518060400160405290816000820160009054906101000a900473ffffffffffffffffffffffffffffffffffffffff1673ffffffffffffffffffffffffffffffffffffffff1673ffffffffffffffffffffffffffffffffffffffff1681526020016000820160149054906101000a900467ffffffffffffffff1667ffffffffffffffff1667ffffffffffffffff1681525050908060020160009054906101000a900463ffffffff16908060020160049054906101000a900473ffffffffffffffffffffffffffffffffffffffff1690806003015490806004016040518060400160405290816000820160009054906101000a900460ff1660ff1660ff1681526020016000820160019054906101000a900473ffffffffffffffffffffffffffffffffffffffff1673ffffffffffffffffffffffffffffffffffffffff1673ffffffffffffffffffffffffffffffffffffffff1681525050908060050160009054906101000a900473ffffffffffffffffffffffffffffffffffffffff16908060060160009054906101000a900473ffffffffffffffffffffffffffffffffffffffff16908060070160009054906101000a900473ffffffffffffffffffffffffffffffffffffffff16905089565b60606000825167ffffffffffffffff8111801561198e57600080fd5b506040519080825280602002602001820160405280156119bd5781602001602082028036833780820191505090505b509050600080600090505b8451811015611a525760011515601060008784815181106119e557fe5b6020026020010151815260200190815260200160002060009054906101000a900460ff16151514611a4557848181518110611a1c57fe5b6020026020010151838381518110611a3057fe5b60200260200101818152505081806001019250505b80806001019150506119c8565b508192505050919050565b60116020528060005260406000206000915090508060000154908060010160009054906101000a900460ff16905082565b6000600560149054906101000a900460ff1615611ae0576040517f08c379a0000000000000000000000000000000000000000000000000000000008152600401611ad7906155d4565b60405180910390fd5b6000601260003373ffffffffffffffffffffffffffffffffffffffff1673ffffffffffffffffffffffffffffffffffffffff168152602001908152602001600020541115611b7257611b71601260003373ffffffffffffffffffffffffffffffffffffffff1673ffffffffffffffffffffffffffffffffffffffff168152602001908152602001600020543361289c565b5b601260003373ffffffffffffffffffffffffffffffffffffffff1673ffffffffffffffffffffffffffffffffffffffff16815260200190815260200160002054905090565b600080600a905060128360ff1611611bd0576008830390505b60008160ff16600a0a85029050809250505092915050565b60138181548110611bf857600080fd5b906000526020600020016000915090508054600181600116156101000203166002900480601f016020809104026020016040519081016040528092919081815260200182805460018160011615610100020316600290048015611c9c5780601f10611c7157610100808354040283529160200191611c9c565b820191906000526020600020905b815481529060010190602001808311611c7f57829003601f168201915b505050505081565b60005b8151811015611cda57611ccc828281518110611cbf57fe5b60200260200101516110a9565b508080600101915050611ca7565b5050565b600b8181548110611cee57600080fd5b906000526020600020016000915090505481565b60606000600a54841015611d1657600a5493505b60008490505b838111611d60576011600082815260200190815260200160002060010160009054906101000a900460ff1615611d53576001820191505b8080600101915050611d1c565b5060008167ffffffffffffffff81118015611d7a57600080fd5b50604051908082528060200260200182016040528015611db457816020015b611da1612aba565b815260200190600190039081611d995790505b5090506000808690505b858111611e24576011600082815260200190815260200160002060010160009054906101000a900460ff1615611e1757611df781610718565b838381518110611e0357fe5b602002602001018190525081806001019250505b8080600101915050611dbe565b5081935050505092915050565b6000601654905090565b60165481565b6000439050600080611e5b84608001518560600151612937565b15611e755783608001516009600082825403925050819055505b6011600084815260200190815260200160002060010160009054906101000a900460ff161561216c5760116000848152602001908152602001600020600001549150600d8281548110611ec457fe5b9060005260206000200184908060018154018082558091505060019003906000526020600020906008020160009091909190915060008201518160000160006101000a81548163ffffffff021916908363ffffffff16021790555060208201518160010160008201518160000160006101000a81548173ffffffffffffffffffffffffffffffffffffffff021916908373ffffffffffffffffffffffffffffffffffffffff16021790555060208201518160000160146101000a81548167ffffffffffffffff021916908367ffffffffffffffff160217905550505060408201518160020160006101000a81548163ffffffff021916908363ffffffff16021790555060608201518160020160046101000a81548173ffffffffffffffffffffffffffffffffffffffff021916908373ffffffffffffffffffffffffffffffffffffffff1602179055506080820151816003015560a08201518160040160008201518160000160006101000a81548160ff021916908360ff16021790555060208201518160000160016101000a81548173ffffffffffffffffffffffffffffffffffffffff021916908373ffffffffffffffffffffffffffffffffffffffff160217905550505060c08201518160050160006101000a81548173ffffffffffffffffffffffffffffffffffffffff021916908373ffffffffffffffffffffffffffffffffffffffff16021790555060e08201518160060160006101000a81548173ffffffffffffffffffffffffffffffffffffffff021916908373ffffffffffffffffffffffffffffffffffffffff1602179055506101008201518160070160006101000a81548173ffffffffffffffffffffffffffffffffffffffff021916908373ffffffffffffffffffffffffffffffffffffffff1602179055505050600090506124b1565b600c84908060018154018082558091505060019003906000526020600020906008020160009091909190915060008201518160000160006101000a81548163ffffffff021916908363ffffffff16021790555060208201518160010160008201518160000160006101000a81548173ffffffffffffffffffffffffffffffffffffffff021916908373ffffffffffffffffffffffffffffffffffffffff16021790555060208201518160000160146101000a81548167ffffffffffffffff021916908367ffffffffffffffff160217905550505060408201518160020160006101000a81548163ffffffff021916908363ffffffff16021790555060608201518160020160046101000a81548173ffffffffffffffffffffffffffffffffffffffff021916908373ffffffffffffffffffffffffffffffffffffffff1602179055506080820151816003015560a08201518160040160008201518160000160006101000a81548160ff021916908360ff16021790555060208201518160000160016101000a81548173ffffffffffffffffffffffffffffffffffffffff021916908373ffffffffffffffffffffffffffffffffffffffff160217905550505060c08201518160050160006101000a81548173ffffffffffffffffffffffffffffffffffffffff021916908373ffffffffffffffffffffffffffffffffffffffff16021790555060e08201518160060160006101000a81548173ffffffffffffffffffffffffffffffffffffffff021916908373ffffffffffffffffffffffffffffffffffffffff1602179055506101008201518160070160006101000a81548173ffffffffffffffffffffffffffffffffffffffff021916908373ffffffffffffffffffffffffffffffffffffffff1602179055505050600d600c9080600181540180825580915050600190039060005260206000200160009091909190915090805461243a929190612ae5565b506001600d80549050039150604051806040016040528083815260200160011515815250601160008581526020019081526020016000206000820151816000015560208201518160010160006101000a81548160ff021916908315150217905550905050600c60006124ac9190612ea4565b600190505b6000600460009054906101000a900473ffffffffffffffffffffffffffffffffffffffff1673ffffffffffffffffffffffffffffffffffffffff1663bdfcfddd600d85815481106124fe57fe5b906000526020600020016040518263ffffffff1660e01b8152600401612524919061550a565b600060405180830381600087803b15801561253e57600080fd5b505af1158015612552573d6000803e3d6000fd5b505050506040513d6000823e3d601f19601f8201168201806040525081019061257b91906140fa565b90506000600160009054906101000a900473ffffffffffffffffffffffffffffffffffffffff1673ffffffffffffffffffffffffffffffffffffffff1663343bee60836040518263ffffffff1660e01b81526004016125da91906156d4565b60006040518083038186803b1580156125f257600080fd5b505afa158015612606573d6000803e3d6000fd5b505050506040513d6000823e3d601f19601f8201168201806040525081019061262f91906140b9565b90506000600160009054906101000a900473ffffffffffffffffffffffffffffffffffffffff1673ffffffffffffffffffffffffffffffffffffffff16632a4edd70600d878154811061267e57fe5b9060005260206000200160006040518363ffffffff1660e01b81526004016126a792919061552c565b60006040518083038186803b1580156126bf57600080fd5b505afa1580156126d3573d6000803e3d6000fd5b505050506040513d6000823e3d601f19601f820116820180604052508101906126fc91906140b9565b9050601381908060018154018082558091505060019003906000526020600020016000909190919091509080519060200190612739929190612ec8565b506000818051906020012090506000838360405160200161275b9291906153c7565b60405160208183030381529060405290506014819080600181540180825580915050600190039060005260206000200160009091909190915090805190602001906127a7929190612ec8565b5060158290806001815401808255809150506001900390600052602060002001600090919091909150556000806000801b90506000891461280057600b60018a03815481106127f257fe5b906000526020600020015490505b858160405160200161281392919061539f565b604051602081830303815290604052805190602001209150871561285f57600b82908060018154018082558091505060019003906000526020600020016000909190919091505561287c565b81600b8a8154811061286d57fe5b90600052602060002001819055505b6000600a54141561288f5789600a819055505b5050505050505050505050565b600560149054906101000a900460ff16156128ec576040517f08c379a00000000000000000000000000000000000000000000000000000000081526004016128e3906155d4565b60405180910390fd5b8073ffffffffffffffffffffffffffffffffffffffff166108fc839081150290604051600060405180830381858888f19350505050158015612932573d6000803e3d6000fd5b505050565b60006001600360009054906101000a900473ffffffffffffffffffffffffffffffffffffffff1673ffffffffffffffffffffffffffffffffffffffff1663ec48ae3c6040518163ffffffff1660e01b815260040160206040518083038186803b1580156129a357600080fd5b505afa1580156129b7573d6000803e3d6000fd5b505050506040513d601f19601f820116820180604052508101906129db91906141cf565b106129e95760009050612ab4565b73a6ef9ea235635e328124ff3429db9f9e91b64e2d73ffffffffffffffffffffffffffffffffffffffff168273ffffffffffffffffffffffffffffffffffffffff1614612a6b576040517f08c379a0000000000000000000000000000000000000000000000000000000008152600401612a62906155b4565b60405180910390fd5b8260095411612aaf576040517f08c379a0000000000000000000000000000000000000000000000000000000008152600401612aa690615654565b60405180910390fd5b600190505b92915050565b6040518060800160405280600081526020016000815260200160008019168152602001606081525090565b828054828255906000526020600020906008028101928215612e935760005260206000209160080282015b82811115612e925782826000820160009054906101000a900463ffffffff168160000160006101000a81548163ffffffff021916908363ffffffff16021790555060018201816001016000820160009054906101000a900473ffffffffffffffffffffffffffffffffffffffff168160000160006101000a81548173ffffffffffffffffffffffffffffffffffffffff021916908373ffffffffffffffffffffffffffffffffffffffff1602179055506000820160149054906101000a900467ffffffffffffffff168160000160146101000a81548167ffffffffffffffff021916908367ffffffffffffffff16021790555050506002820160009054906101000a900463ffffffff168160020160006101000a81548163ffffffff021916908363ffffffff1602179055506002820160049054906101000a900473ffffffffffffffffffffffffffffffffffffffff168160020160046101000a81548173ffffffffffffffffffffffffffffffffffffffff021916908373ffffffffffffffffffffffffffffffffffffffff1602179055506003820154816003015560048201816004016000820160009054906101000a900460ff168160000160006101000a81548160ff021916908360ff1602179055506000820160019054906101000a900473ffffffffffffffffffffffffffffffffffffffff168160000160016101000a81548173ffffffffffffffffffffffffffffffffffffffff021916908373ffffffffffffffffffffffffffffffffffffffff16021790555050506005820160009054906101000a900473ffffffffffffffffffffffffffffffffffffffff168160050160006101000a81548173ffffffffffffffffffffffffffffffffffffffff021916908373ffffffffffffffffffffffffffffffffffffffff1602179055506006820160009054906101000a900473ffffffffffffffffffffffffffffffffffffffff168160060160006101000a81548173ffffffffffffffffffffffffffffffffffffffff021916908373ffffffffffffffffffffffffffffffffffffffff1602179055506007820160009054906101000a900473ffffffffffffffffffffffffffffffffffffffff168160070160006101000a81548173ffffffffffffffffffffffffffffffffffffffff021916908373ffffffffffffffffffffffffffffffffffffffff160217905550505091600801919060080190612b10565b5b509050612ea09190612f56565b5090565b5080546000825560080290600052602060002090810190612ec59190612f56565b50565b828054600181600116156101000203166002900490600052602060002090601f016020900481019282612efe5760008555612f45565b82601f10612f1757805160ff1916838001178555612f45565b82800160010185558215612f45579182015b82811115612f44578251825591602001919060010190612f29565b5b509050612f5291906130ca565b5090565b5b808211156130c657600080820160006101000a81549063ffffffff021916905560018201600080820160006101000a81549073ffffffffffffffffffffffffffffffffffffffff02191690556000820160146101000a81549067ffffffffffffffff021916905550506002820160006101000a81549063ffffffff02191690556002820160046101000a81549073ffffffffffffffffffffffffffffffffffffffff0219169055600382016000905560048201600080820160006101000a81549060ff02191690556000820160016101000a81549073ffffffffffffffffffffffffffffffffffffffff021916905550506005820160006101000a81549073ffffffffffffffffffffffffffffffffffffffff02191690556006820160006101000a81549073ffffffffffffffffffffffffffffffffffffffff02191690556007820160006101000a81549073ffffffffffffffffffffffffffffffffffffffff021916905550600801612f57565b5090565b5b808211156130e35760008160009055506001016130cb565b5090565b60006130fa6130f584615882565b615851565b9050808382526020820190508285602086028201111561311957600080fd5b60005b85811015613149578161312f8882613591565b84526020840193506020830192505060018101905061311c565b5050509392505050565b6000613166613161846158ae565b615851565b9050808382526020820190508260005b858110156131a6578135850161318c8882613639565b845260208401935060208301925050600181019050613176565b5050509392505050565b60006131c36131be846158da565b615851565b905080838252602082019050828560408602820111156131e257600080fd5b60005b8581101561321257816131f88882613a15565b8452602084019350604083019250506001810190506131e5565b5050509392505050565b600061322f61322a846158da565b615851565b9050808382526020820190508285604086028201111561324e57600080fd5b60005b8581101561327e57816132648882613a61565b845260208401935060408301925050600181019050613251565b5050509392505050565b600061329b61329684615906565b615851565b9050808382526020820190508260005b858110156132db57813585016132c18882613bdd565b8452602084019350602083019250506001810190506132ab565b5050509392505050565b60006132f86132f384615932565b615851565b905080838252602082019050828561016086028201111561331857600080fd5b60005b85811015613349578161332e8882613cc1565b8452602084019350610160830192505060018101905061331b565b5050509392505050565b60006133666133618461595e565b615851565b9050808382526020820190508260005b858110156133a6578135850161338c8882613d9f565b845260208401935060208301925050600181019050613376565b5050509392505050565b60006133c36133be8461598a565b615851565b9050828152602081018484840111156133db57600080fd5b6133e6848285615cd7565b509392505050565b60006134016133fc8461598a565b615851565b90508281526020810184848401111561341957600080fd5b613424848285615ce6565b509392505050565b60008135905061343b81615e20565b92915050565b60008151905061345081615e20565b92915050565b600082601f83011261346757600080fd5b81356134778482602086016130e7565b91505092915050565b600082601f83011261349157600080fd5b81356134a1848260208601613153565b91505092915050565b600082601f8301126134bb57600080fd5b81356134cb8482602086016131b0565b91505092915050565b600082601f8301126134e557600080fd5b81516134f584826020860161321c565b91505092915050565b600082601f83011261350f57600080fd5b813561351f848260208601613288565b91505092915050565b600082601f83011261353957600080fd5b81356135498482602086016132e5565b91505092915050565b600082601f83011261356357600080fd5b8135613573848260208601613353565b91505092915050565b60008151905061358b81615e37565b92915050565b6000813590506135a081615e4e565b92915050565b6000815190506135b581615e4e565b92915050565b600082601f8301126135cc57600080fd5b81356135dc8482602086016133b0565b91505092915050565b600082601f8301126135f657600080fd5b81516136068482602086016133ee565b91505092915050565b60008135905061361e81615e65565b92915050565b60008151905061363381615e65565b92915050565b600060a0828403121561364b57600080fd5b61365560a0615851565b9050600061366584828501613f43565b600083015250602061367984828501613f43565b602083015250604082013567ffffffffffffffff81111561369957600080fd5b6136a5848285016135bb565b604083015250606082013567ffffffffffffffff8111156136c557600080fd5b6136d184828501613552565b60608301525060806136e584828501613eef565b60808301525092915050565b60006101e0828403121561370457600080fd5b61370f6101c0615851565b9050600061371f84828501613e9b565b600083015250602061373384828501613e9b565b60208301525060406137478482850161342c565b604083015250606061375b84828501613eef565b606083015250608061376f84828501613eef565b60808301525060a06137838482850161342c565b60a08301525060c06137978482850161342c565b60c08301525060e06137ab84828501613eef565b60e08301525061010082013567ffffffffffffffff8111156137cc57600080fd5b6137d8848285016134aa565b6101008301525061012082013567ffffffffffffffff8111156137fa57600080fd5b613806848285016134aa565b6101208301525061014061381c84828501613591565b6101408301525061016082013567ffffffffffffffff81111561383e57600080fd5b61384a848285016134aa565b6101608301525061018061386084828501613e03565b610180830152506101c06138768482850161360f565b6101a08301525092915050565b60006101e0828403121561389657600080fd5b6138a16101c0615851565b905060006138b184828501613eb0565b60008301525060206138c584828501613eb0565b60208301525060406138d984828501613441565b60408301525060606138ed84828501613f04565b606083015250608061390184828501613f04565b60808301525060a061391584828501613441565b60a08301525060c061392984828501613441565b60c08301525060e061393d84828501613f04565b60e08301525061010082015167ffffffffffffffff81111561395e57600080fd5b61396a848285016134d4565b6101008301525061012082015167ffffffffffffffff81111561398c57600080fd5b613998848285016134d4565b610120830152506101406139ae848285016135a6565b6101408301525061016082015167ffffffffffffffff8111156139d057600080fd5b6139dc848285016134d4565b610160830152506101806139f284828501613e4f565b610180830152506101c0613a0884828501613624565b6101a08301525092915050565b600060408284031215613a2757600080fd5b613a316040615851565b90506000613a418482850161342c565b6000830152506020613a5584828501613f19565b60208301525092915050565b600060408284031215613a7357600080fd5b613a7d6040615851565b90506000613a8d84828501613441565b6000830152506020613aa184828501613f2e565b60208301525092915050565b600060808284031215613abf57600080fd5b613ac96080615851565b90506000613ad984828501613f43565b6000830152506020613aed84828501613eef565b6020830152506040613b0184828501613eef565b604083015250606082013567ffffffffffffffff811115613b2157600080fd5b613b2d84828501613456565b60608301525092915050565b600060808284031215613b4b57600080fd5b613b556080615851565b90506000613b6584828501613f43565b6000830152506020613b7984828501613f43565b602083015250604082013567ffffffffffffffff811115613b9957600080fd5b613ba584828501613552565b604083015250606082013567ffffffffffffffff811115613bc557600080fd5b613bd184828501613480565b60608301525092915050565b600060c08284031215613bef57600080fd5b613bf960c0615851565b90506000613c0984828501613ec5565b6000830152506020613c1d84828501613591565b6020830152506040613c3184828501613ec5565b604083015250606082013567ffffffffffffffff811115613c5157600080fd5b613c5d848285016136f1565b606083015250608082013567ffffffffffffffff811115613c7d57600080fd5b613c8984828501613b39565b60808301525060a082013567ffffffffffffffff811115613ca957600080fd5b613cb584828501613528565b60a08301525092915050565b60006101608284031215613cd457600080fd5b613cdf610120615851565b90506000613cef84828501613eef565b6000830152506020613d0384828501613a15565b6020830152506060613d1784828501613eef565b6040830152506080613d2b8482850161342c565b60608301525060a0613d3f84828501613ec5565b60808301525060c0613d5384828501613e03565b60a083015250610100613d688482850161342c565b60c083015250610120613d7d8482850161342c565b60e083015250610140613d928482850161342c565b6101008301525092915050565b600060408284031215613db157600080fd5b613dbb6040615851565b90506000613dcb84828501613f43565b600083015250602082013567ffffffffffffffff811115613deb57600080fd5b613df784828501613aad565b60208301525092915050565b600060408284031215613e1557600080fd5b613e1f6040615851565b90506000613e2f84828501613f43565b6000830152506020613e438482850161342c565b60208301525092915050565b600060408284031215613e6157600080fd5b613e6b6040615851565b90506000613e7b84828501613f58565b6000830152506020613e8f84828501613441565b60208301525092915050565b600081359050613eaa81615e7c565b92915050565b600081519050613ebf81615e7c565b92915050565b600081359050613ed481615e93565b92915050565b600081519050613ee981615e93565b92915050565b600081359050613efe81615eaa565b92915050565b600081519050613f1381615eaa565b92915050565b600081359050613f2881615ec1565b92915050565b600081519050613f3d81615ec1565b92915050565b600081359050613f5281615ed8565b92915050565b600081519050613f6781615ed8565b92915050565b600060208284031215613f7f57600080fd5b6000613f8d8482850161342c565b91505092915050565b600080600060608486031215613fab57600080fd5b6000613fb986828701613441565b9350506020613fca8682870161357c565b9250506040613fdb8682870161357c565b9150509250925092565b600060208284031215613ff757600080fd5b600082013567ffffffffffffffff81111561401157600080fd5b61401d84828501613456565b91505092915050565b60006020828403121561403857600080fd5b600082013567ffffffffffffffff81111561405257600080fd5b61405e848285016134fe565b91505092915050565b60006020828403121561407957600080fd5b60006140878482850161357c565b91505092915050565b6000602082840312156140a257600080fd5b60006140b084828501613591565b91505092915050565b6000602082840312156140cb57600080fd5b600082015167ffffffffffffffff8111156140e557600080fd5b6140f1848285016135e5565b91505092915050565b60006020828403121561410c57600080fd5b600082015167ffffffffffffffff81111561412657600080fd5b61413284828501613883565b91505092915050565b60006020828403121561414d57600080fd5b600082013567ffffffffffffffff81111561416757600080fd5b61417384828501613bdd565b91505092915050565b6000610160828403121561418f57600080fd5b600061419d84828501613cc1565b91505092915050565b6000602082840312156141b857600080fd5b60006141c684828501613ec5565b91505092915050565b6000602082840312156141e157600080fd5b60006141ef84828501613eda565b91505092915050565b6000806040838503121561420b57600080fd5b600061421985828601613ec5565b925050602061422a85828601613ec5565b9150509250929050565b6000806040838503121561424757600080fd5b600061425585828601613ec5565b925050602061426685828601613f43565b9150509250929050565b60006020828403121561428257600080fd5b600061429084828501613f58565b91505092915050565b60006142a583836146a7565b60208301905092915050565b60006142bd8383614ad8565b905092915050565b60006142d18383614dcd565b60408301905092915050565b60006142e98383614fcf565b905092915050565b60006142fd8383615095565b6101608301905092915050565b6000614316838361514e565b6101608301905092915050565b600061432f838361524c565b905092915050565b61434081615ca1565b82525050565b61434f81615c03565b82525050565b61435e81615c03565b82525050565b600061436f82615a2f565b6143798185615ae2565b9350614384836159ba565b8060005b838110156143b557815161439c8882614299565b97506143a783615a87565b925050600181019050614388565b5085935050505092915050565b60006143cd82615a2f565b6143d78185615af3565b93506143e2836159ba565b8060005b838110156144135781516143fa8882614299565b975061440583615a87565b9250506001810190506143e6565b5085935050505092915050565b600061442b82615a3a565b6144358185615b04565b935083602082028501614447856159ca565b8060005b85811015614483578484038952815161446485826142b1565b945061446f83615a94565b925060208a0199505060018101905061444b565b50829750879550505050505092915050565b60006144a082615a45565b6144aa8185615b15565b93506144b5836159da565b8060005b838110156144e65781516144cd88826142c5565b97506144d883615aa1565b9250506001810190506144b9565b5085935050505092915050565b60006144fe82615a50565b6145088185615b26565b93508360208202850161451a856159ea565b8060005b85811015614556578484038952815161453785826142dd565b945061454283615aae565b925060208a0199505060018101905061451e565b50829750879550505050505092915050565b600061457382615a5b565b61457d8185615b37565b9350614588836159fa565b8060005b838110156145b95781516145a088826142f1565b97506145ab83615abb565b92505060018101905061458c565b5085935050505092915050565b60006145d182615a66565b6145db8185615b48565b93506145e683615a0a565b8060005b8381101561461657816145fd888261430a565b975061460883615ac8565b9250506001810190506145ea565b5085935050505092915050565b600061462e82615a71565b6146388185615b59565b93508360208202850161464a85615a1f565b8060005b8581101561468657848403895281516146678582614323565b945061467283615ad5565b925060208a0199505060018101905061464e565b50829750879550505050505092915050565b6146a181615c15565b82525050565b6146b081615c21565b82525050565b6146bf81615c21565b82525050565b6146d66146d182615c21565b615dcf565b82525050565b60006146e782615a7c565b6146f18185615b6a565b9350614701818560208601615ce6565b61470a81615ddb565b840191505092915050565b600061472082615a7c565b61472a8185615b7b565b935061473a818560208601615ce6565b61474381615ddb565b840191505092915050565b600061475982615a7c565b6147638185615b8c565b9350614773818560208601615ce6565b80840191505092915050565b61478881615c2b565b82525050565b600061479b603b83615b97565b91507f427269646765206973206e6f742079657420617661696c61626c65206f6e6c7960008301527f2056657275732063616e206265207573656420666f72206665657300000000006020830152604082019050919050565b6000614801601c83615b97565b91507f436f6e747261637420686173206265656e2064657072656361746564000000006000830152602082019050919050565b6000614841601a83615b97565b91507f54786964206e6f7420636f727265637420696e206865616465720000000000006000830152602082019050919050565b6000614881603483615b97565b91507f5472616e736665727320646f206e6f742070726f766520616761696e7374207460008301527f6865206c617374206e6f746172697a6174696f6e0000000000000000000000006020830152604082019050919050565b60006148e7602983615b97565b91507f52657175657374656420616d6f756e74206578636565647320636f6e7472616360008301527f742062616c616e636500000000000000000000000000000000000000000000006020830152604082019050919050565b600061494d603d83615b97565b91507f427269646765206973206e6f742079657420617661696c61626c65206665657360008301527f2063616e6e6f7420657863656564206578697374696e6720706f6f6c2e0000006020830152604082019050919050565b60006149b3601b83615b97565b91507f54686520746f6b656e206973206e6f74207265676973746572656400000000006000830152602082019050919050565b60006149f3605583615b97565b91507f5468697320636f6e7472616374206d757374206861766520616e20616c6c6f7760008301527f616e6365206f662067726561746572207468616e206f7220657175616c20746f60208301527f20746865206e756d626572206f6620746f6b656e7300000000000000000000006040830152606082019050919050565b6000614a7f602c83615b97565b91507f506c656173652073656e642074686520617070726f707269617465207472616e60008301527f73616374696f6e206665652e00000000000000000000000000000000000000006020830152604082019050919050565b600060a083016000830151614af06000860182615390565b506020830151614b036020860182615390565b5060408301518482036040860152614b1b82826146dc565b91505060608301518482036060860152614b358282614623565b9150506080830151614b4a6080860182615354565b508091505092915050565b60006101e083016000830151614b6e6000860182615327565b506020830151614b816020860182615327565b506040830151614b946040860182614346565b506060830151614ba76060860182615354565b506080830151614bba6080860182615354565b5060a0830151614bcd60a0860182614346565b5060c0830151614be060c0860182614346565b5060e0830151614bf360e0860182615354565b50610100830151848203610100860152614c0d8282614495565b915050610120830151848203610120860152614c298282614495565b915050610140830151614c406101408601826146a7565b50610160830151848203610160860152614c5a8282614495565b915050610180830151614c71610180860182615289565b506101a0830151614c866101c086018261477f565b508091505092915050565b60006101e083016000830151614caa6000860182615327565b506020830151614cbd6020860182615327565b506040830151614cd06040860182614346565b506060830151614ce36060860182615354565b506080830151614cf66080860182615354565b5060a0830151614d0960a0860182614346565b5060c0830151614d1c60c0860182614346565b5060e0830151614d2f60e0860182615354565b50610100830151848203610100860152614d498282614495565b915050610120830151848203610120860152614d658282614495565b915050610140830151614d7c6101408601826146a7565b50610160830151848203610160860152614d968282614495565b915050610180830151614dad610180860182615289565b506101a0830151614dc26101c086018261477f565b508091505092915050565b604082016000820151614de36000850182614346565b506020820151614df66020850182615372565b50505050565b604082016000820151614e126000850182614346565b506020820151614e256020850182615372565b50505050565b604082016000808301549050614e4081615d19565b614e4d6000860182614346565b50614e5781615d9b565b614e646020860182615372565b5050505050565b6000608083016000830151614e836000860182615390565b506020830151614e966020860182615354565b506040830151614ea96040860182615354565b5060608301518482036060860152614ec18282614364565b9150508091505092915050565b6000608083016000830151614ee66000860182615390565b506020830151614ef96020860182615390565b5060408301518482036040860152614f118282614623565b91505060608301518482036060860152614f2b8282614420565b9150508091505092915050565b600060c083016000830151614f506000860182615336565b506020830151614f6360208601826146a7565b506040830151614f766040860182615336565b5060608301518482036060860152614f8e8282614b55565b91505060808301518482036080860152614fa88282614ece565b91505060a083015184820360a0860152614fc28282614568565b9150508091505092915050565b6000608083016000830151614fe76000860182615336565b506020830151614ffa6020860182615336565b50604083015161500d60408601826146a7565b50606083015184820360608601526150258282614568565b9150508091505092915050565b600060808301600083015161504a6000860182615336565b50602083015161505d6020860182615336565b50604083015161507060408601826146a7565b50606083015184820360608601526150888282614568565b9150508091505092915050565b610160820160008201516150ac6000850182615354565b5060208201516150bf6020850182614dcd565b5060408201516150d26060850182615354565b5060608201516150e56080850182614346565b5060808201516150f860a0850182615336565b5060a082015161510b60c0850182615289565b5060c082015161511f610100850182614346565b5060e0820151615133610120850182614346565b50610100820151615148610140850182614346565b50505050565b6101608201600080830154905061516481615d4d565b6151716000860182615354565b50600183016151836020860182614e2b565b506002830154905061519481615d4d565b6151a16060860182615354565b506151ab81615db5565b6151b86080860182614346565b50600383015490506151c981615d33565b6151d660a0860182615336565b50600483016151e860c08601826152e7565b50600583015490506151f981615d19565b615207610100860182614346565b506006830154905061521881615d19565b615226610120860182614346565b506007830154905061523781615d19565b615245610140860182614346565b5050505050565b60006040830160008301516152646000860182615390565b506020830151848203602086015261527c8282614e6b565b9150508091505092915050565b60408201600082015161529f6000850182615390565b5060208201516152b26020850182614346565b50505050565b6040820160008201516152ce6000850182615390565b5060208201516152e16020850182614346565b50505050565b6040820160008083015490506152fc81615d67565b6153096000860182615390565b5061531381615d81565b6153206020860182614346565b5050505050565b61533081615c38565b82525050565b61533f81615c66565b82525050565b61534e81615c66565b82525050565b61535d81615c70565b82525050565b61536c81615c70565b82525050565b61537b81615c80565b82525050565b61538a81615c80565b82525050565b61539981615c94565b82525050565b60006153ab828561474e565b91506153b782846146c5565b6020820191508190509392505050565b60006153d3828561474e565b91506153df828461474e565b91508190509392505050565b60006020820190506154006000830184614355565b92915050565b600060408201905061541b6000830185614337565b6154286020830184614355565b9392505050565b60006060820190506154446000830186614337565b6154516020830185614355565b61545e6040830184615345565b949350505050565b600060408201905061547b6000830185614355565b6154886020830184615345565b9392505050565b60006060820190506154a46000830186614355565b6154b16020830185615381565b6154be6040830184614355565b949350505050565b600060208201905081810360008301526154e081846143c2565b905092915050565b6000602082019050818103600083015261550281846144f3565b905092915050565b6000602082019050818103600083015261552481846145c6565b905092915050565b6000604082019050818103600083015261554681856145c6565b90506155556020830184614698565b9392505050565b60006020820190506155716000830184614698565b92915050565b600060208201905061558c60008301846146b6565b92915050565b600060208201905081810360008301526155ac8184614715565b905092915050565b600060208201905081810360008301526155cd8161478e565b9050919050565b600060208201905081810360008301526155ed816147f4565b9050919050565b6000602082019050818103600083015261560d81614834565b9050919050565b6000602082019050818103600083015261562d81614874565b9050919050565b6000602082019050818103600083015261564d816148da565b9050919050565b6000602082019050818103600083015261566d81614940565b9050919050565b6000602082019050818103600083015261568d816149a6565b9050919050565b600060208201905081810360008301526156ad816149e6565b9050919050565b600060208201905081810360008301526156cd81614a72565b9050919050565b600060208201905081810360008301526156ee8184614c91565b905092915050565b600060208201905081810360008301526157108184614f38565b905092915050565b600060208201905081810360008301526157328184615032565b905092915050565b600060208201905061574f6000830184615345565b92915050565b600060408201905061576a6000830185615345565b6157776020830184614698565b9392505050565b60006040820190506157936000830185615345565b6157a060208301846146b6565b9392505050565b6000610160820190506157bd600083018c615363565b6157ca602083018b614dfc565b6157d7606083018a615363565b6157e46080830189614355565b6157f160a0830188615345565b6157fe60c08301876152b8565b61580c610100830186614355565b61581a610120830185614355565b615828610140830184614355565b9a9950505050505050505050565b600060208201905061584b6000830184615381565b92915050565b6000604051905081810181811067ffffffffffffffff8211171561587857615877615dd9565b5b8060405250919050565b600067ffffffffffffffff82111561589d5761589c615dd9565b5b602082029050602081019050919050565b600067ffffffffffffffff8211156158c9576158c8615dd9565b5b602082029050602081019050919050565b600067ffffffffffffffff8211156158f5576158f4615dd9565b5b602082029050602081019050919050565b600067ffffffffffffffff82111561592157615920615dd9565b5b602082029050602081019050919050565b600067ffffffffffffffff82111561594d5761594c615dd9565b5b602082029050602081019050919050565b600067ffffffffffffffff82111561597957615978615dd9565b5b602082029050602081019050919050565b600067ffffffffffffffff8211156159a5576159a4615dd9565b5b601f19601f8301169050602081019050919050565b6000819050602082019050919050565b6000819050602082019050919050565b6000819050602082019050919050565b6000819050602082019050919050565b6000819050602082019050919050565b60008190508160005260206000209050919050565b6000819050602082019050919050565b600081519050919050565b600081519050919050565b600081519050919050565b600081519050919050565b600081519050919050565b600081549050919050565b600081519050919050565b600081519050919050565b6000602082019050919050565b6000602082019050919050565b6000602082019050919050565b6000602082019050919050565b6000602082019050919050565b6000600882019050919050565b6000602082019050919050565b600082825260208201905092915050565b600082825260208201905092915050565b600082825260208201905092915050565b600082825260208201905092915050565b600082825260208201905092915050565b600082825260208201905092915050565b600082825260208201905092915050565b600082825260208201905092915050565b600082825260208201905092915050565b600082825260208201905092915050565b600081905092915050565b600082825260208201905092915050565b600073ffffffffffffffffffffffffffffffffffffffff82169050919050565b6000819050919050565b600063ffffffff82169050919050565b600067ffffffffffffffff82169050919050565b600060ff82169050919050565b6000615c0e82615c46565b9050919050565b60008115159050919050565b6000819050919050565b60008160030b9050919050565b600061ffff82169050919050565b600073ffffffffffffffffffffffffffffffffffffffff82169050919050565b6000819050919050565b600063ffffffff82169050919050565b600067ffffffffffffffff82169050919050565b600060ff82169050919050565b6000615cac82615cb3565b9050919050565b6000615cbe82615cc5565b9050919050565b6000615cd082615c46565b9050919050565b82818337600083830152505050565b60005b83811015615d04578082015181840152602081019050615ce9565b83811115615d13576000848401525b50505050565b6000615d2c615d2783615dec565b615ba8565b9050919050565b6000615d46615d4183615dec565b615bc8565b9050919050565b6000615d60615d5b83615dec565b615bd2565b9050919050565b6000615d7a615d7583615dec565b615bf6565b9050919050565b6000615d94615d8f83615e13565b615ba8565b9050919050565b6000615dae615da983615df9565b615be2565b9050919050565b6000615dc8615dc383615e06565b615ba8565b9050919050565b6000819050919050565bfe5b6000601f19601f8301169050919050565b60008160001c9050919050565b60008160a01c9050919050565b60008160201c9050919050565b60008160081c9050919050565b615e2981615c03565b8114615e3457600080fd5b50565b615e4081615c15565b8114615e4b57600080fd5b50565b615e5781615c21565b8114615e6257600080fd5b50565b615e6e81615c2b565b8114615e7957600080fd5b50565b615e8581615c38565b8114615e9057600080fd5b50565b615e9c81615c66565b8114615ea757600080fd5b50565b615eb381615c70565b8114615ebe57600080fd5b50565b615eca81615c80565b8114615ed557600080fd5b50565b615ee181615c94565b8114615eec57600080fd5b5056fea26469706673582212207202616db0b5844901185534606470b00872451ca890f9bf126e383c57ee718c64736f6c63430007060033",
  "immutableReferences": {},
  "source": "// SPDX-License-Identifier: MIT\r\n// Bridge between ethereum and verus\r\n\r\npragma solidity >=0.6.0 <0.9.0;\r\npragma experimental ABIEncoderV2;\r\n\r\nimport \"../Libraries/VerusObjects.sol\";\r\nimport \"../Libraries/VerusObjectsCommon.sol\";\r\nimport \"../Libraries/VerusConstants.sol\";\r\nimport \"./TokenManager.sol\";\r\nimport \"../MMR/VerusProof.sol\";\r\nimport \"./Token.sol\";\r\nimport \"./VerusSerializer.sol\";\r\nimport \"../VerusNotarizer/VerusNotarizer.sol\";\r\nimport \"./VerusCrossChainExport.sol\";\r\n\r\ncontract VerusBridge {\r\n\r\n    //list of erc20 tokens that can be accessed,\r\n    //the contract must be able to mint and burn coins on the contract\r\n    //defines the tokenManager which creates the erc20\r\n    TokenManager tokenManager;\r\n    VerusSerializer verusSerializer;\r\n    VerusProof verusProof;\r\n    VerusNotarizer verusNotarizer;\r\n    VerusCrossChainExport verusCCE;\r\n\r\n    //THE CONTRACT OWNER NEEDS TO BE REPLACED BY A SET OF NOTARIES\r\n    address contractOwner;\r\n    bool public deprecated = false; //indicates if the cotnract is deprecated\r\n    address public upgradedAddress;\r\n    uint256 public feesHeld = 0;\r\n    uint256 public ethHeld = 0;\r\n    uint256 public poolSize = 0;\r\n    uint public firstBlock = 0;\r\n\r\n    //used to prove the transfers the index of this corresponds to the index of the \r\n    bytes32[] public readyExportHashes;\r\n    //DO NOT ADD ANY VARIABLES ABOVE THIS POINT\r\n    //used to store a list of currencies and an amount\r\n    VerusObjects.CReserveTransfer[] private _pendingExports;\r\n    \r\n    //stores the blockheight of each pending transfer\r\n    //the export set holds the summary of a set of exports\r\n    VerusObjects.CReserveTransfer[][] public _readyExports;\r\n    \r\n    //stores the index corresponds to the block\r\n    VerusObjects.LastImport public lastimport;\r\n    mapping(bytes32 => bool) public processedTxids;\r\n    mapping (uint => VerusObjects.blockCreated) public readyExportsByBlock;\r\n    mapping (address => uint256) public claimableFees;\r\n    \r\n    bytes[] public SerializedCRTs;\r\n    bytes[] public SerializedCCEs;\r\n    bytes32[] public hashedCRTs;\r\n    uint public lastTxidimport;\r\n    \r\n    \r\n    event Deprecate(address newAddress);\r\n    \r\n    constructor(address verusProofAddress,\r\n        address tokenManagerAddress,\r\n        address verusSerializerAddress,\r\n        address verusNotarizerAddress,\r\n        address verusCCEAddress,\r\n        uint256 _poolSize) public {\r\n        contractOwner = msg.sender; \r\n        verusProof =  VerusProof(verusProofAddress);\r\n        tokenManager = TokenManager(tokenManagerAddress);\r\n        verusSerializer = VerusSerializer(verusSerializerAddress);\r\n        verusNotarizer = VerusNotarizer(verusNotarizerAddress);\r\n        verusCCE = VerusCrossChainExport(verusCCEAddress);\r\n        poolSize = _poolSize;\r\n        lastimport.height = 0;\r\n        lastimport.txid = 0x00000000000000000000000000000000;\r\n    }\r\n\r\n    function isPoolAvailable(uint256 _feesAmount,address _feeCurrencyID) private view returns(bool){\r\n        if(verusNotarizer.numNotarizedBlocks() >= 1) {\r\n            //the bridge has been activated\r\n            return false;\r\n        } else {\r\n            require(_feeCurrencyID == VerusConstants.VerusCurrencyId,\"Bridge is not yet available only Verus can be used for fees\");\r\n            require(poolSize > _feesAmount,\"Bridge is not yet available fees cannot exceed existing pool.\");\r\n            return true;\r\n        }\r\n    }\r\n\r\n    function convertFromVerusNumber(uint256 a,uint8 decimals) public pure returns (uint256) {\r\n         uint8 power = 10; //default value for 18\r\n        if(decimals <= 18 ) {\r\n            power = decimals - 8;// number of decimals in verus\r\n        }\r\n        uint256 c = a * 10 ** power;\r\n        return c;\r\n    }\r\n\r\n    function convertToVerusNumber(uint256 a,uint8 decimals) public pure returns (uint64) {\r\n        uint8 power = 10; //default value for 18\r\n        if(decimals <= 18 ) {\r\n            power = decimals - 8;// number of decimals in verus\r\n        }\r\n        uint256 c = a / 10 ** power;\r\n        return uint64(c);\r\n    }\r\n \r\n    function export(VerusObjects.CReserveTransfer memory transfer) public payable{\r\n        require(!deprecated,\"Contract has been deprecated\");\r\n        require(msg.value >= VerusConstants.transactionFee + uint64(transfer.fees),\"Please send the appropriate transaction fee.\");\r\n        if(transfer.currencyvalue.currency != VerusConstants.VEth){\r\n            //check there are enough fees sent\r\n            feesHeld += msg.value;\r\n            //check that the token is registered\r\n            (address ERC20TokenAddress, bool VerusOwned, bool isRegistered) = tokenManager.verusToERC20mapping(transfer.currencyvalue.currency);\r\n            require(isRegistered, \"The token is not registered\");\r\n            Token token = Token(ERC20TokenAddress);\r\n            uint256 allowedTokens = token.allowance(msg.sender,address(this));\r\n            uint256 tokenAmount = convertFromVerusNumber(transfer.currencyvalue.amount,token.decimals()); //convert to wei from verus satoshis\r\n            require( allowedTokens >= tokenAmount,\"This contract must have an allowance of greater than or equal to the number of tokens\");\r\n            //transfer the tokens to this contract\r\n            token.transferFrom(msg.sender,address(this),tokenAmount); \r\n            token.approve(address(tokenManager),tokenAmount);\r\n            //give an approval for the tokenmanagerinstance to spend the tokens\r\n            tokenManager.exportERC20Tokens(ERC20TokenAddress, tokenAmount);  //total amount kept as wei until export to verus\r\n        } else {\r\n            //handle a vEth transfer\r\n            transfer.currencyvalue.amount = convertToVerusNumber(msg.value - VerusConstants.transactionFee,18);\r\n            ethHeld += transfer.currencyvalue.amount;\r\n            feesHeld += VerusConstants.transactionFee;\r\n        }\r\n        _createExports(transfer);\r\n    }\r\n\r\n    function _createExports(VerusObjects.CReserveTransfer memory newTransaction) private {\r\n        uint currentHeight = block.number;\r\n        uint exportIndex;\r\n        bool newHash;\r\n\r\n        //if there is fees in the pool spend those and not the amount that\r\n        if(isPoolAvailable(newTransaction.fees,newTransaction.feecurrencyid)) {\r\n            poolSize -= newTransaction.fees;\r\n        }\r\n\r\n        //check if the current block height has a set of transfers associated with it if so add to the existing array\r\n        if(readyExportsByBlock[currentHeight].created) {\r\n            //append to an existing array of transfers\r\n            exportIndex = readyExportsByBlock[currentHeight].index;\r\n            _readyExports[exportIndex].push(newTransaction);\r\n            newHash = false;\r\n        }\r\n        else {\r\n            _pendingExports.push(newTransaction);\r\n            _readyExports.push(_pendingExports);\r\n            exportIndex = _readyExports.length - 1;\r\n            readyExportsByBlock[currentHeight] = VerusObjects.blockCreated(exportIndex,true);\r\n            delete _pendingExports;\r\n            newHash = true;\r\n        }\r\n       \r\n        //create a cross chain export, serialize it and hash it\r\n        \r\n        VerusObjects.CCrossChainExport memory CCCE = verusCCE.generateCCE(_readyExports[exportIndex]);\r\n        //create a hash of the CCCE\r\n        \r\n        bytes memory serializedCCE = verusSerializer.serializeCCrossChainExport(CCCE);\r\n        bytes memory serializedTransfers = verusSerializer.serializeCReserveTransfers(_readyExports[exportIndex],false);\r\n        SerializedCRTs.push(serializedTransfers);\r\n        bytes32 hashedTransfers = keccak256(serializedTransfers);\r\n        bytes memory toHash = abi.encodePacked(serializedCCE,serializedTransfers);\r\n        SerializedCCEs.push(toHash);\r\n        hashedCRTs.push(hashedTransfers);\r\n        //bytes32 hashedTransfers = keccak256(serializedTransfers);\r\n        //bytes memory toHash = abi.encodePacked(serializedCCE,serializedTransfers);\r\n        bytes32 hashedCCE;\r\n        bytes32 lastProofRoot = 0;\r\n        if(exportIndex != 0)  lastProofRoot = readyExportHashes[exportIndex -1];\r\n        hashedCCE = keccak256(abi.encodePacked(serializedCCE,lastProofRoot));\r\n        \r\n        //add the hashed value\r\n        if(newHash) readyExportHashes.push(hashedCCE);\r\n        else readyExportHashes[exportIndex] = hashedCCE;\r\n        if(firstBlock == 0) firstBlock = currentHeight;\r\n        \r\n    }\r\n\r\n    function getlastimportheight() public view returns(uint) {\r\n        return lastTxidimport;\r\n    }\r\n    /***\r\n     * Import from Verus functions\r\n     ***/\r\n      function checkImports(bytes32[] memory _imports) public view returns(bytes32[] memory) {\r\n        //loop through the transfers and return a list of unprocessed\r\n        bytes32[] memory txidList = new bytes32[](_imports.length);\r\n        uint iterator;\r\n        for(uint i = 0; i < _imports.length; i++){\r\n            if(processedTxids[_imports[i]] != true){\r\n                txidList[iterator] = _imports[i];\r\n                iterator++;\r\n            }\r\n        }\r\n        return txidList;\r\n    }\r\n\r\n    function submitImports(VerusObjects.CReserveTransferImport[] memory _imports) public {\r\n        //loop through the transfers and process\r\n        for(uint i = 0; i < _imports.length; i++){\r\n           _createImports(_imports[i]);\r\n        }\r\n    }\r\n\r\n    function _createImports(VerusObjects.CReserveTransferImport memory _import) public returns(bool){\r\n\r\n        if(processedTxids[_import.txid] == true) return false; \r\n        bytes32 txidfound;\r\n        bytes memory sliced = _import.partialtransactionproof.components[0].elVchObj;\r\n        assembly {\r\n            txidfound := mload(add(sliced, 32))\r\n        }\r\n        require(_import.txid == txidfound, \"Txid not correct in header\"); //the txid should be present in the header\r\n        bool proved = verusProof.proveImports(_import);\r\n        require(proved,\"Transfers do not prove against the last notarization\");\r\n        processedTxids[_import.txid] = true;\r\n        if(lastTxidimport < _import.height)\r\n            lastTxidimport = _import.height;\r\n        uint256 amount;\r\n        //check the transfers were in the hash.\r\n        for(uint i = 0; i < _import.transfers.length; i++){\r\n            //handle eth transactions\r\n            amount = convertFromVerusNumber(uint256(_import.transfers[i].currencyvalue.amount),18);\r\n            if(_import.transfers[i].currencyvalue.currency == VerusConstants.VEth) {\r\n                //cast the destination as an ethAddress\r\n                    require(amount <= address(this).balance,\"Requested amount exceeds contract balance\");\r\n                    sendEth(amount,payable(address(_import.transfers[i].destination.destinationaddress)));\r\n                    ethHeld -= amount;\r\n        \r\n           } else {\r\n                //handle erc20 transactions  \r\n                //amount convesrion is handled in token manager\r\n                tokenManager.importERC20Tokens(_import.transfers[i].currencyvalue.currency,\r\n                    _import.transfers[i].currencyvalue.amount,\r\n                    _import.transfers[i].destination.destinationaddress);\r\n           }\r\n            //handle the distributions of the fees\r\n            //add them into the fees array to be claimed by the message sender\r\n            if(_import.transfers[i].fees > 0 && _import.transfers[i].feecurrencyid == VerusConstants.VEth){\r\n                claimableFees[msg.sender] = claimableFees[msg.sender] + _import.transfers[i].fees;\r\n            }\r\n        }\r\n        return true;\r\n    }\r\n    \r\n    function getReadyExportsByBlock(uint _blockNumber) public view returns(VerusObjects.CReserveTransferSet memory){\r\n        //need a transferset for each position not each block\r\n        //retrieve a block get the indexes, create a transfer set for each index add those to the array\r\n        uint eIndex = readyExportsByBlock[_blockNumber].index;\r\n        VerusObjects.CReserveTransferSet memory output = VerusObjects.CReserveTransferSet(\r\n            eIndex, //position in array\r\n            _blockNumber, //blockHeight\r\n            //readyExportHashes[eIndex],\r\n            //DO WE NEED TO DO THIS\r\n            readyExportHashes[eIndex],\r\n            _readyExports[eIndex]\r\n        );\r\n        return output;\r\n    }\r\n\r\n    function getReadyExportsByRange(uint _startBlock,uint _endBlock) public view returns(VerusObjects.CReserveTransferSet[] memory){\r\n        //calculate the size that the return array will be to initialise it\r\n        uint outputSize = 0;\r\n        if(_startBlock < firstBlock) _startBlock = firstBlock;\r\n        for(uint i = _startBlock; i <= _endBlock; i++){\r\n            if(readyExportsByBlock[i].created) outputSize += 1;\r\n        }\r\n\r\n        VerusObjects.CReserveTransferSet[] memory output = new VerusObjects.CReserveTransferSet[](outputSize);\r\n        uint outputPosition = 0;\r\n        for(uint blockNumber = _startBlock;blockNumber <= _endBlock;blockNumber++){\r\n            if(readyExportsByBlock[blockNumber].created) {\r\n                output[outputPosition] = getReadyExportsByBlock(blockNumber);\r\n                outputPosition++;\r\n            }\r\n        }\r\n        return output;        \r\n    }\r\n \r\n    function sendEth(uint256 _ethAmount,address payable _ethAddress) private {\r\n        require(!deprecated,\"Contract has been deprecated\");\r\n        //do we take fees here????\r\n        \r\n        _ethAddress.transfer(_ethAmount);\r\n    }\r\n   \r\n    function claimFees() public returns(uint256){\r\n        require(!deprecated,\"Contract has been deprecated\");\r\n        if(claimableFees[msg.sender] > 0 ){\r\n            sendEth(claimableFees[msg.sender],msg.sender);\r\n        }\r\n        return claimableFees[msg.sender];\r\n\r\n    }\r\n/*\r\n    function deprecate(address _upgradedAddress,bytes32 _addressHash,uint8[] memory _vs,bytes32[] memory _rs,bytes32[] memory _ss) public{\r\n        if(verusNotarizer.notarizedDeprecation(_upgradedAddress, _addressHash, _vs, _rs, _ss)){\r\n            deprecated = true;\r\n            upgradedAddress = _upgradedAddress;\r\n            Deprecate(_upgradedAddress);\r\n        }\r\n    }\r\n*/\r\n\r\n}\r\n",
  "sourcePath": "D:\\dev\\Ethereum-verus-notarisation\\contracts\\VerusBridge\\VerusBridge.sol",
  "compiler": {
    "name": "solc",
    "version": "0.7.6+commit.7338295f.Emscripten.clang"
  },
  "schemaVersion": "3.4.3",
  "updatedAt": "2021-09-29T16:08:58.152Z",
  "networkType": "ethereum",
  "devdoc": {
    "kind": "dev",
    "methods": {},
    "version": 1
  },
  "userdoc": {
    "kind": "user",
    "methods": {},
    "version": 1
  }
}