{
  "contractName": "VerusSerializer",
  "abi": [
    {
      "inputs": [
        {
          "internalType": "bytes",
          "name": "incoming",
          "type": "bytes"
        },
        {
          "internalType": "uint32",
          "name": "offset",
          "type": "uint32"
        }
      ],
      "name": "readVarUintLE",
      "outputs": [
        {
          "components": [
            {
              "internalType": "uint32",
              "name": "offset",
              "type": "uint32"
            },
            {
              "internalType": "uint32",
              "name": "value",
              "type": "uint32"
            }
          ],
          "internalType": "struct VerusSerializer.UintReader",
          "name": "",
          "type": "tuple"
        }
      ],
      "stateMutability": "pure",
      "type": "function",
      "constant": true
    },
    {
      "inputs": [
        {
          "internalType": "bytes",
          "name": "incoming",
          "type": "bytes"
        },
        {
          "internalType": "uint32",
          "name": "offset",
          "type": "uint32"
        }
      ],
      "name": "readCompactSizeLE",
      "outputs": [
        {
          "components": [
            {
              "internalType": "uint32",
              "name": "offset",
              "type": "uint32"
            },
            {
              "internalType": "uint32",
              "name": "value",
              "type": "uint32"
            }
          ],
          "internalType": "struct VerusSerializer.UintReader",
          "name": "",
          "type": "tuple"
        }
      ],
      "stateMutability": "pure",
      "type": "function",
      "constant": true
    },
    {
      "inputs": [
        {
          "internalType": "uint256",
          "name": "incoming",
          "type": "uint256"
        }
      ],
      "name": "writeVarInt",
      "outputs": [
        {
          "internalType": "bytes",
          "name": "",
          "type": "bytes"
        }
      ],
      "stateMutability": "pure",
      "type": "function",
      "constant": true
    },
    {
      "inputs": [
        {
          "internalType": "uint256",
          "name": "newNumber",
          "type": "uint256"
        }
      ],
      "name": "writeCompactSize",
      "outputs": [
        {
          "internalType": "bytes",
          "name": "",
          "type": "bytes"
        }
      ],
      "stateMutability": "pure",
      "type": "function",
      "constant": true
    },
    {
      "inputs": [
        {
          "internalType": "string",
          "name": "prefix",
          "type": "string"
        },
        {
          "internalType": "address",
          "name": "systemID",
          "type": "address"
        },
        {
          "internalType": "int64",
          "name": "blockHeight",
          "type": "int64"
        },
        {
          "internalType": "address",
          "name": "signingID",
          "type": "address"
        },
        {
          "internalType": "bytes",
          "name": "messageToHash",
          "type": "bytes"
        }
      ],
      "name": "verusHashPrefix",
      "outputs": [
        {
          "internalType": "bytes",
          "name": "",
          "type": "bytes"
        }
      ],
      "stateMutability": "pure",
      "type": "function",
      "constant": true
    },
    {
      "inputs": [
        {
          "internalType": "bool",
          "name": "anyBool",
          "type": "bool"
        }
      ],
      "name": "serializeBool",
      "outputs": [
        {
          "internalType": "bytes",
          "name": "",
          "type": "bytes"
        }
      ],
      "stateMutability": "pure",
      "type": "function",
      "constant": true
    },
    {
      "inputs": [
        {
          "internalType": "string",
          "name": "anyString",
          "type": "string"
        }
      ],
      "name": "serializeString",
      "outputs": [
        {
          "internalType": "bytes",
          "name": "",
          "type": "bytes"
        }
      ],
      "stateMutability": "pure",
      "type": "function",
      "constant": true
    },
    {
      "inputs": [
        {
          "internalType": "bytes20",
          "name": "anyBytes20",
          "type": "bytes20"
        }
      ],
      "name": "serializeBytes20",
      "outputs": [
        {
          "internalType": "bytes",
          "name": "",
          "type": "bytes"
        }
      ],
      "stateMutability": "pure",
      "type": "function",
      "constant": true
    },
    {
      "inputs": [
        {
          "internalType": "bytes32",
          "name": "anyBytes32",
          "type": "bytes32"
        }
      ],
      "name": "serializeBytes32",
      "outputs": [
        {
          "internalType": "bytes",
          "name": "",
          "type": "bytes"
        }
      ],
      "stateMutability": "pure",
      "type": "function",
      "constant": true
    },
    {
      "inputs": [
        {
          "internalType": "uint8",
          "name": "number",
          "type": "uint8"
        }
      ],
      "name": "serializeUint8",
      "outputs": [
        {
          "internalType": "bytes",
          "name": "",
          "type": "bytes"
        }
      ],
      "stateMutability": "pure",
      "type": "function",
      "constant": true
    },
    {
      "inputs": [
        {
          "internalType": "uint16",
          "name": "number",
          "type": "uint16"
        }
      ],
      "name": "serializeUint16",
      "outputs": [
        {
          "internalType": "bytes",
          "name": "",
          "type": "bytes"
        }
      ],
      "stateMutability": "pure",
      "type": "function",
      "constant": true
    },
    {
      "inputs": [
        {
          "internalType": "uint32",
          "name": "number",
          "type": "uint32"
        }
      ],
      "name": "serializeUint32",
      "outputs": [
        {
          "internalType": "bytes",
          "name": "",
          "type": "bytes"
        }
      ],
      "stateMutability": "pure",
      "type": "function",
      "constant": true
    },
    {
      "inputs": [
        {
          "internalType": "int16",
          "name": "number",
          "type": "int16"
        }
      ],
      "name": "serializeInt16",
      "outputs": [
        {
          "internalType": "bytes",
          "name": "",
          "type": "bytes"
        }
      ],
      "stateMutability": "pure",
      "type": "function",
      "constant": true
    },
    {
      "inputs": [
        {
          "internalType": "int32",
          "name": "number",
          "type": "int32"
        }
      ],
      "name": "serializeInt32",
      "outputs": [
        {
          "internalType": "bytes",
          "name": "",
          "type": "bytes"
        }
      ],
      "stateMutability": "pure",
      "type": "function",
      "constant": true
    },
    {
      "inputs": [
        {
          "internalType": "int64",
          "name": "number",
          "type": "int64"
        }
      ],
      "name": "serializeInt64",
      "outputs": [
        {
          "internalType": "bytes",
          "name": "",
          "type": "bytes"
        }
      ],
      "stateMutability": "pure",
      "type": "function",
      "constant": true
    },
    {
      "inputs": [
        {
          "internalType": "int32[]",
          "name": "numbers",
          "type": "int32[]"
        }
      ],
      "name": "serializeInt32Array",
      "outputs": [
        {
          "internalType": "bytes",
          "name": "",
          "type": "bytes"
        }
      ],
      "stateMutability": "pure",
      "type": "function",
      "constant": true
    },
    {
      "inputs": [
        {
          "internalType": "int64[]",
          "name": "numbers",
          "type": "int64[]"
        }
      ],
      "name": "serializeInt64Array",
      "outputs": [
        {
          "internalType": "bytes",
          "name": "",
          "type": "bytes"
        }
      ],
      "stateMutability": "pure",
      "type": "function",
      "constant": true
    },
    {
      "inputs": [
        {
          "internalType": "uint64",
          "name": "number",
          "type": "uint64"
        }
      ],
      "name": "serializeUint64",
      "outputs": [
        {
          "internalType": "bytes",
          "name": "",
          "type": "bytes"
        }
      ],
      "stateMutability": "pure",
      "type": "function",
      "constant": true
    },
    {
      "inputs": [
        {
          "internalType": "address",
          "name": "number",
          "type": "address"
        }
      ],
      "name": "serializeAddress",
      "outputs": [
        {
          "internalType": "bytes",
          "name": "",
          "type": "bytes"
        }
      ],
      "stateMutability": "pure",
      "type": "function",
      "constant": true
    },
    {
      "inputs": [
        {
          "internalType": "uint160[]",
          "name": "numbers",
          "type": "uint160[]"
        }
      ],
      "name": "serializeUint160Array",
      "outputs": [
        {
          "internalType": "bytes",
          "name": "",
          "type": "bytes"
        }
      ],
      "stateMutability": "pure",
      "type": "function",
      "constant": true
    },
    {
      "inputs": [
        {
          "internalType": "uint256",
          "name": "number",
          "type": "uint256"
        }
      ],
      "name": "serializeUint256",
      "outputs": [
        {
          "internalType": "bytes",
          "name": "",
          "type": "bytes"
        }
      ],
      "stateMutability": "pure",
      "type": "function",
      "constant": true
    },
    {
      "inputs": [
        {
          "components": [
            {
              "internalType": "uint8",
              "name": "destinationtype",
              "type": "uint8"
            },
            {
              "internalType": "bytes",
              "name": "destinationaddress",
              "type": "bytes"
            }
          ],
          "internalType": "struct VerusObjectsCommon.CTransferDestination",
          "name": "ctd",
          "type": "tuple"
        }
      ],
      "name": "serializeCTransferDestination",
      "outputs": [
        {
          "internalType": "bytes",
          "name": "",
          "type": "bytes"
        }
      ],
      "stateMutability": "pure",
      "type": "function",
      "constant": true
    },
    {
      "inputs": [
        {
          "components": [
            {
              "internalType": "address",
              "name": "currency",
              "type": "address"
            },
            {
              "internalType": "uint64",
              "name": "amount",
              "type": "uint64"
            }
          ],
          "internalType": "struct VerusObjects.CCurrencyValueMap",
          "name": "_ccvm",
          "type": "tuple"
        }
      ],
      "name": "serializeCCurrencyValueMap",
      "outputs": [
        {
          "internalType": "bytes",
          "name": "",
          "type": "bytes"
        }
      ],
      "stateMutability": "pure",
      "type": "function",
      "constant": true
    },
    {
      "inputs": [
        {
          "components": [
            {
              "internalType": "address",
              "name": "currency",
              "type": "address"
            },
            {
              "internalType": "uint64",
              "name": "amount",
              "type": "uint64"
            }
          ],
          "internalType": "struct VerusObjects.CCurrencyValueMap[]",
          "name": "_ccvms",
          "type": "tuple[]"
        }
      ],
      "name": "serializeCCurrencyValueMaps",
      "outputs": [
        {
          "internalType": "bytes",
          "name": "",
          "type": "bytes"
        }
      ],
      "stateMutability": "pure",
      "type": "function",
      "constant": true
    },
    {
      "inputs": [
        {
          "components": [
            {
              "internalType": "uint32",
              "name": "version",
              "type": "uint32"
            },
            {
              "components": [
                {
                  "internalType": "address",
                  "name": "currency",
                  "type": "address"
                },
                {
                  "internalType": "uint64",
                  "name": "amount",
                  "type": "uint64"
                }
              ],
              "internalType": "struct VerusObjects.CCurrencyValueMap",
              "name": "currencyvalue",
              "type": "tuple"
            },
            {
              "internalType": "uint32",
              "name": "flags",
              "type": "uint32"
            },
            {
              "internalType": "address",
              "name": "feecurrencyid",
              "type": "address"
            },
            {
              "internalType": "uint256",
              "name": "fees",
              "type": "uint256"
            },
            {
              "components": [
                {
                  "internalType": "uint8",
                  "name": "destinationtype",
                  "type": "uint8"
                },
                {
                  "internalType": "bytes",
                  "name": "destinationaddress",
                  "type": "bytes"
                }
              ],
              "internalType": "struct VerusObjectsCommon.CTransferDestination",
              "name": "destination",
              "type": "tuple"
            },
            {
              "internalType": "address",
              "name": "destcurrencyid",
              "type": "address"
            },
            {
              "internalType": "address",
              "name": "destsystemid",
              "type": "address"
            },
            {
              "internalType": "address",
              "name": "secondreserveid",
              "type": "address"
            }
          ],
          "internalType": "struct VerusObjects.CReserveTransfer",
          "name": "ct",
          "type": "tuple"
        }
      ],
      "name": "serializeCReserveTransfer",
      "outputs": [
        {
          "internalType": "bytes",
          "name": "",
          "type": "bytes"
        }
      ],
      "stateMutability": "pure",
      "type": "function",
      "constant": true
    },
    {
      "inputs": [
        {
          "components": [
            {
              "internalType": "uint32",
              "name": "version",
              "type": "uint32"
            },
            {
              "components": [
                {
                  "internalType": "address",
                  "name": "currency",
                  "type": "address"
                },
                {
                  "internalType": "uint64",
                  "name": "amount",
                  "type": "uint64"
                }
              ],
              "internalType": "struct VerusObjects.CCurrencyValueMap",
              "name": "currencyvalue",
              "type": "tuple"
            },
            {
              "internalType": "uint32",
              "name": "flags",
              "type": "uint32"
            },
            {
              "internalType": "address",
              "name": "feecurrencyid",
              "type": "address"
            },
            {
              "internalType": "uint256",
              "name": "fees",
              "type": "uint256"
            },
            {
              "components": [
                {
                  "internalType": "uint8",
                  "name": "destinationtype",
                  "type": "uint8"
                },
                {
                  "internalType": "bytes",
                  "name": "destinationaddress",
                  "type": "bytes"
                }
              ],
              "internalType": "struct VerusObjectsCommon.CTransferDestination",
              "name": "destination",
              "type": "tuple"
            },
            {
              "internalType": "address",
              "name": "destcurrencyid",
              "type": "address"
            },
            {
              "internalType": "address",
              "name": "destsystemid",
              "type": "address"
            },
            {
              "internalType": "address",
              "name": "secondreserveid",
              "type": "address"
            }
          ],
          "internalType": "struct VerusObjects.CReserveTransfer[]",
          "name": "_bts",
          "type": "tuple[]"
        },
        {
          "internalType": "bool",
          "name": "includeSize",
          "type": "bool"
        }
      ],
      "name": "serializeCReserveTransfers",
      "outputs": [
        {
          "internalType": "bytes",
          "name": "",
          "type": "bytes"
        }
      ],
      "stateMutability": "pure",
      "type": "function",
      "constant": true
    },
    {
      "inputs": [
        {
          "components": [
            {
              "internalType": "bytes32",
              "name": "hash",
              "type": "bytes32"
            },
            {
              "internalType": "uint32",
              "name": "n",
              "type": "uint32"
            }
          ],
          "internalType": "struct VerusObjectsNotarization.CUTXORef",
          "name": "_cutxo",
          "type": "tuple"
        }
      ],
      "name": "serializeCUTXORef",
      "outputs": [
        {
          "internalType": "bytes",
          "name": "",
          "type": "bytes"
        }
      ],
      "stateMutability": "pure",
      "type": "function",
      "constant": true
    },
    {
      "inputs": [
        {
          "components": [
            {
              "internalType": "int16",
              "name": "version",
              "type": "int16"
            },
            {
              "internalType": "int16",
              "name": "cprtype",
              "type": "int16"
            },
            {
              "internalType": "address",
              "name": "systemid",
              "type": "address"
            },
            {
              "internalType": "uint32",
              "name": "rootheight",
              "type": "uint32"
            },
            {
              "internalType": "bytes32",
              "name": "stateroot",
              "type": "bytes32"
            },
            {
              "internalType": "bytes32",
              "name": "blockhash",
              "type": "bytes32"
            },
            {
              "internalType": "bytes32",
              "name": "compactpower",
              "type": "bytes32"
            }
          ],
          "internalType": "struct VerusObjectsNotarization.CProofRoot",
          "name": "_cpr",
          "type": "tuple"
        }
      ],
      "name": "serializeCProofRoot",
      "outputs": [
        {
          "internalType": "bytes",
          "name": "",
          "type": "bytes"
        }
      ],
      "stateMutability": "pure",
      "type": "function",
      "constant": true
    },
    {
      "inputs": [
        {
          "components": [
            {
              "internalType": "address",
              "name": "currencyid",
              "type": "address"
            },
            {
              "components": [
                {
                  "internalType": "int16",
                  "name": "version",
                  "type": "int16"
                },
                {
                  "internalType": "int16",
                  "name": "cprtype",
                  "type": "int16"
                },
                {
                  "internalType": "address",
                  "name": "systemid",
                  "type": "address"
                },
                {
                  "internalType": "uint32",
                  "name": "rootheight",
                  "type": "uint32"
                },
                {
                  "internalType": "bytes32",
                  "name": "stateroot",
                  "type": "bytes32"
                },
                {
                  "internalType": "bytes32",
                  "name": "blockhash",
                  "type": "bytes32"
                },
                {
                  "internalType": "bytes32",
                  "name": "compactpower",
                  "type": "bytes32"
                }
              ],
              "internalType": "struct VerusObjectsNotarization.CProofRoot",
              "name": "proofroot",
              "type": "tuple"
            }
          ],
          "internalType": "struct VerusObjectsNotarization.ProofRoots",
          "name": "_prs",
          "type": "tuple"
        }
      ],
      "name": "serializeProofRoots",
      "outputs": [
        {
          "internalType": "bytes",
          "name": "",
          "type": "bytes"
        }
      ],
      "stateMutability": "pure",
      "type": "function",
      "constant": true
    },
    {
      "inputs": [
        {
          "components": [
            {
              "internalType": "address",
              "name": "currencyid",
              "type": "address"
            },
            {
              "components": [
                {
                  "internalType": "int16",
                  "name": "version",
                  "type": "int16"
                },
                {
                  "internalType": "int16",
                  "name": "cprtype",
                  "type": "int16"
                },
                {
                  "internalType": "address",
                  "name": "systemid",
                  "type": "address"
                },
                {
                  "internalType": "uint32",
                  "name": "rootheight",
                  "type": "uint32"
                },
                {
                  "internalType": "bytes32",
                  "name": "stateroot",
                  "type": "bytes32"
                },
                {
                  "internalType": "bytes32",
                  "name": "blockhash",
                  "type": "bytes32"
                },
                {
                  "internalType": "bytes32",
                  "name": "compactpower",
                  "type": "bytes32"
                }
              ],
              "internalType": "struct VerusObjectsNotarization.CProofRoot",
              "name": "proofroot",
              "type": "tuple"
            }
          ],
          "internalType": "struct VerusObjectsNotarization.ProofRoots[]",
          "name": "_prsa",
          "type": "tuple[]"
        }
      ],
      "name": "serializeProofRootsArray",
      "outputs": [
        {
          "internalType": "bytes",
          "name": "",
          "type": "bytes"
        }
      ],
      "stateMutability": "pure",
      "type": "function",
      "constant": true
    },
    {
      "inputs": [
        {
          "components": [
            {
              "internalType": "int16",
              "name": "version",
              "type": "int16"
            },
            {
              "internalType": "int16",
              "name": "cprtype",
              "type": "int16"
            },
            {
              "internalType": "address",
              "name": "systemid",
              "type": "address"
            },
            {
              "internalType": "uint32",
              "name": "rootheight",
              "type": "uint32"
            },
            {
              "internalType": "bytes32",
              "name": "stateroot",
              "type": "bytes32"
            },
            {
              "internalType": "bytes32",
              "name": "blockhash",
              "type": "bytes32"
            },
            {
              "internalType": "bytes32",
              "name": "compactpower",
              "type": "bytes32"
            }
          ],
          "internalType": "struct VerusObjectsNotarization.CProofRoot[]",
          "name": "_prsa",
          "type": "tuple[]"
        }
      ],
      "name": "serializeCProofRootArray",
      "outputs": [
        {
          "internalType": "bytes",
          "name": "",
          "type": "bytes"
        }
      ],
      "stateMutability": "pure",
      "type": "function",
      "constant": true
    },
    {
      "inputs": [
        {
          "components": [
            {
              "internalType": "uint16",
              "name": "version",
              "type": "uint16"
            },
            {
              "internalType": "uint16",
              "name": "flags",
              "type": "uint16"
            },
            {
              "internalType": "address",
              "name": "currencyid",
              "type": "address"
            },
            {
              "internalType": "uint160[]",
              "name": "currencies",
              "type": "uint160[]"
            },
            {
              "internalType": "int32[]",
              "name": "weights",
              "type": "int32[]"
            },
            {
              "internalType": "int64[]",
              "name": "reserves",
              "type": "int64[]"
            },
            {
              "internalType": "int64",
              "name": "initialsupply",
              "type": "int64"
            },
            {
              "internalType": "int64",
              "name": "emitted",
              "type": "int64"
            },
            {
              "internalType": "int64",
              "name": "supply",
              "type": "int64"
            },
            {
              "internalType": "int64",
              "name": "primarycurrencyout",
              "type": "int64"
            },
            {
              "internalType": "int64",
              "name": "preconvertedout",
              "type": "int64"
            },
            {
              "internalType": "int64",
              "name": "primarycurrencyfees",
              "type": "int64"
            },
            {
              "internalType": "int64",
              "name": "primarycurrencyconversionfees",
              "type": "int64"
            },
            {
              "internalType": "int64[]",
              "name": "reservein",
              "type": "int64[]"
            },
            {
              "internalType": "int64[]",
              "name": "primarycurrencyin",
              "type": "int64[]"
            },
            {
              "internalType": "int64[]",
              "name": "reserveout",
              "type": "int64[]"
            },
            {
              "internalType": "int64[]",
              "name": "conversionprice",
              "type": "int64[]"
            },
            {
              "internalType": "int64[]",
              "name": "viaconversionprice",
              "type": "int64[]"
            },
            {
              "internalType": "int64[]",
              "name": "fees",
              "type": "int64[]"
            },
            {
              "internalType": "int32[]",
              "name": "priorweights",
              "type": "int32[]"
            },
            {
              "internalType": "int64[]",
              "name": "conversionfees",
              "type": "int64[]"
            }
          ],
          "internalType": "struct VerusObjectsNotarization.CCoinbaseCurrencyState",
          "name": "_cccs",
          "type": "tuple"
        }
      ],
      "name": "serializeCCoinbaseCurrencyState",
      "outputs": [
        {
          "internalType": "bytes",
          "name": "",
          "type": "bytes"
        }
      ],
      "stateMutability": "pure",
      "type": "function",
      "constant": true
    },
    {
      "inputs": [
        {
          "components": [
            {
              "internalType": "address",
              "name": "currencyid",
              "type": "address"
            },
            {
              "components": [
                {
                  "internalType": "uint16",
                  "name": "version",
                  "type": "uint16"
                },
                {
                  "internalType": "uint16",
                  "name": "flags",
                  "type": "uint16"
                },
                {
                  "internalType": "address",
                  "name": "currencyid",
                  "type": "address"
                },
                {
                  "internalType": "uint160[]",
                  "name": "currencies",
                  "type": "uint160[]"
                },
                {
                  "internalType": "int32[]",
                  "name": "weights",
                  "type": "int32[]"
                },
                {
                  "internalType": "int64[]",
                  "name": "reserves",
                  "type": "int64[]"
                },
                {
                  "internalType": "int64",
                  "name": "initialsupply",
                  "type": "int64"
                },
                {
                  "internalType": "int64",
                  "name": "emitted",
                  "type": "int64"
                },
                {
                  "internalType": "int64",
                  "name": "supply",
                  "type": "int64"
                },
                {
                  "internalType": "int64",
                  "name": "primarycurrencyout",
                  "type": "int64"
                },
                {
                  "internalType": "int64",
                  "name": "preconvertedout",
                  "type": "int64"
                },
                {
                  "internalType": "int64",
                  "name": "primarycurrencyfees",
                  "type": "int64"
                },
                {
                  "internalType": "int64",
                  "name": "primarycurrencyconversionfees",
                  "type": "int64"
                },
                {
                  "internalType": "int64[]",
                  "name": "reservein",
                  "type": "int64[]"
                },
                {
                  "internalType": "int64[]",
                  "name": "primarycurrencyin",
                  "type": "int64[]"
                },
                {
                  "internalType": "int64[]",
                  "name": "reserveout",
                  "type": "int64[]"
                },
                {
                  "internalType": "int64[]",
                  "name": "conversionprice",
                  "type": "int64[]"
                },
                {
                  "internalType": "int64[]",
                  "name": "viaconversionprice",
                  "type": "int64[]"
                },
                {
                  "internalType": "int64[]",
                  "name": "fees",
                  "type": "int64[]"
                },
                {
                  "internalType": "int32[]",
                  "name": "priorweights",
                  "type": "int32[]"
                },
                {
                  "internalType": "int64[]",
                  "name": "conversionfees",
                  "type": "int64[]"
                }
              ],
              "internalType": "struct VerusObjectsNotarization.CCoinbaseCurrencyState",
              "name": "currencystate",
              "type": "tuple"
            }
          ],
          "internalType": "struct VerusObjectsNotarization.CurrencyStates",
          "name": "_cs",
          "type": "tuple"
        }
      ],
      "name": "serializeCurrencyStates",
      "outputs": [
        {
          "internalType": "bytes",
          "name": "",
          "type": "bytes"
        }
      ],
      "stateMutability": "pure",
      "type": "function",
      "constant": true
    },
    {
      "inputs": [
        {
          "components": [
            {
              "internalType": "address",
              "name": "currencyid",
              "type": "address"
            },
            {
              "components": [
                {
                  "internalType": "uint16",
                  "name": "version",
                  "type": "uint16"
                },
                {
                  "internalType": "uint16",
                  "name": "flags",
                  "type": "uint16"
                },
                {
                  "internalType": "address",
                  "name": "currencyid",
                  "type": "address"
                },
                {
                  "internalType": "uint160[]",
                  "name": "currencies",
                  "type": "uint160[]"
                },
                {
                  "internalType": "int32[]",
                  "name": "weights",
                  "type": "int32[]"
                },
                {
                  "internalType": "int64[]",
                  "name": "reserves",
                  "type": "int64[]"
                },
                {
                  "internalType": "int64",
                  "name": "initialsupply",
                  "type": "int64"
                },
                {
                  "internalType": "int64",
                  "name": "emitted",
                  "type": "int64"
                },
                {
                  "internalType": "int64",
                  "name": "supply",
                  "type": "int64"
                },
                {
                  "internalType": "int64",
                  "name": "primarycurrencyout",
                  "type": "int64"
                },
                {
                  "internalType": "int64",
                  "name": "preconvertedout",
                  "type": "int64"
                },
                {
                  "internalType": "int64",
                  "name": "primarycurrencyfees",
                  "type": "int64"
                },
                {
                  "internalType": "int64",
                  "name": "primarycurrencyconversionfees",
                  "type": "int64"
                },
                {
                  "internalType": "int64[]",
                  "name": "reservein",
                  "type": "int64[]"
                },
                {
                  "internalType": "int64[]",
                  "name": "primarycurrencyin",
                  "type": "int64[]"
                },
                {
                  "internalType": "int64[]",
                  "name": "reserveout",
                  "type": "int64[]"
                },
                {
                  "internalType": "int64[]",
                  "name": "conversionprice",
                  "type": "int64[]"
                },
                {
                  "internalType": "int64[]",
                  "name": "viaconversionprice",
                  "type": "int64[]"
                },
                {
                  "internalType": "int64[]",
                  "name": "fees",
                  "type": "int64[]"
                },
                {
                  "internalType": "int32[]",
                  "name": "priorweights",
                  "type": "int32[]"
                },
                {
                  "internalType": "int64[]",
                  "name": "conversionfees",
                  "type": "int64[]"
                }
              ],
              "internalType": "struct VerusObjectsNotarization.CCoinbaseCurrencyState",
              "name": "currencystate",
              "type": "tuple"
            }
          ],
          "internalType": "struct VerusObjectsNotarization.CurrencyStates[]",
          "name": "_csa",
          "type": "tuple[]"
        }
      ],
      "name": "serializeCurrencyStatesArray",
      "outputs": [
        {
          "internalType": "bytes",
          "name": "",
          "type": "bytes"
        }
      ],
      "stateMutability": "pure",
      "type": "function",
      "constant": true
    },
    {
      "inputs": [
        {
          "components": [
            {
              "internalType": "uint32",
              "name": "version",
              "type": "uint32"
            },
            {
              "internalType": "uint32",
              "name": "flags",
              "type": "uint32"
            },
            {
              "components": [
                {
                  "internalType": "uint8",
                  "name": "destinationtype",
                  "type": "uint8"
                },
                {
                  "internalType": "bytes",
                  "name": "destinationaddress",
                  "type": "bytes"
                }
              ],
              "internalType": "struct VerusObjectsCommon.CTransferDestination",
              "name": "proposer",
              "type": "tuple"
            },
            {
              "internalType": "address",
              "name": "currencyid",
              "type": "address"
            },
            {
              "components": [
                {
                  "internalType": "uint16",
                  "name": "version",
                  "type": "uint16"
                },
                {
                  "internalType": "uint16",
                  "name": "flags",
                  "type": "uint16"
                },
                {
                  "internalType": "address",
                  "name": "currencyid",
                  "type": "address"
                },
                {
                  "internalType": "uint160[]",
                  "name": "currencies",
                  "type": "uint160[]"
                },
                {
                  "internalType": "int32[]",
                  "name": "weights",
                  "type": "int32[]"
                },
                {
                  "internalType": "int64[]",
                  "name": "reserves",
                  "type": "int64[]"
                },
                {
                  "internalType": "int64",
                  "name": "initialsupply",
                  "type": "int64"
                },
                {
                  "internalType": "int64",
                  "name": "emitted",
                  "type": "int64"
                },
                {
                  "internalType": "int64",
                  "name": "supply",
                  "type": "int64"
                },
                {
                  "internalType": "int64",
                  "name": "primarycurrencyout",
                  "type": "int64"
                },
                {
                  "internalType": "int64",
                  "name": "preconvertedout",
                  "type": "int64"
                },
                {
                  "internalType": "int64",
                  "name": "primarycurrencyfees",
                  "type": "int64"
                },
                {
                  "internalType": "int64",
                  "name": "primarycurrencyconversionfees",
                  "type": "int64"
                },
                {
                  "internalType": "int64[]",
                  "name": "reservein",
                  "type": "int64[]"
                },
                {
                  "internalType": "int64[]",
                  "name": "primarycurrencyin",
                  "type": "int64[]"
                },
                {
                  "internalType": "int64[]",
                  "name": "reserveout",
                  "type": "int64[]"
                },
                {
                  "internalType": "int64[]",
                  "name": "conversionprice",
                  "type": "int64[]"
                },
                {
                  "internalType": "int64[]",
                  "name": "viaconversionprice",
                  "type": "int64[]"
                },
                {
                  "internalType": "int64[]",
                  "name": "fees",
                  "type": "int64[]"
                },
                {
                  "internalType": "int32[]",
                  "name": "priorweights",
                  "type": "int32[]"
                },
                {
                  "internalType": "int64[]",
                  "name": "conversionfees",
                  "type": "int64[]"
                }
              ],
              "internalType": "struct VerusObjectsNotarization.CCoinbaseCurrencyState",
              "name": "currencystate",
              "type": "tuple"
            },
            {
              "internalType": "uint32",
              "name": "notarizationheight",
              "type": "uint32"
            },
            {
              "components": [
                {
                  "internalType": "bytes32",
                  "name": "hash",
                  "type": "bytes32"
                },
                {
                  "internalType": "uint32",
                  "name": "n",
                  "type": "uint32"
                }
              ],
              "internalType": "struct VerusObjectsNotarization.CUTXORef",
              "name": "prevnotarization",
              "type": "tuple"
            },
            {
              "internalType": "bytes32",
              "name": "hashprevnotarization",
              "type": "bytes32"
            },
            {
              "internalType": "uint32",
              "name": "prevheight",
              "type": "uint32"
            },
            {
              "components": [
                {
                  "internalType": "address",
                  "name": "currencyid",
                  "type": "address"
                },
                {
                  "components": [
                    {
                      "internalType": "uint16",
                      "name": "version",
                      "type": "uint16"
                    },
                    {
                      "internalType": "uint16",
                      "name": "flags",
                      "type": "uint16"
                    },
                    {
                      "internalType": "address",
                      "name": "currencyid",
                      "type": "address"
                    },
                    {
                      "internalType": "uint160[]",
                      "name": "currencies",
                      "type": "uint160[]"
                    },
                    {
                      "internalType": "int32[]",
                      "name": "weights",
                      "type": "int32[]"
                    },
                    {
                      "internalType": "int64[]",
                      "name": "reserves",
                      "type": "int64[]"
                    },
                    {
                      "internalType": "int64",
                      "name": "initialsupply",
                      "type": "int64"
                    },
                    {
                      "internalType": "int64",
                      "name": "emitted",
                      "type": "int64"
                    },
                    {
                      "internalType": "int64",
                      "name": "supply",
                      "type": "int64"
                    },
                    {
                      "internalType": "int64",
                      "name": "primarycurrencyout",
                      "type": "int64"
                    },
                    {
                      "internalType": "int64",
                      "name": "preconvertedout",
                      "type": "int64"
                    },
                    {
                      "internalType": "int64",
                      "name": "primarycurrencyfees",
                      "type": "int64"
                    },
                    {
                      "internalType": "int64",
                      "name": "primarycurrencyconversionfees",
                      "type": "int64"
                    },
                    {
                      "internalType": "int64[]",
                      "name": "reservein",
                      "type": "int64[]"
                    },
                    {
                      "internalType": "int64[]",
                      "name": "primarycurrencyin",
                      "type": "int64[]"
                    },
                    {
                      "internalType": "int64[]",
                      "name": "reserveout",
                      "type": "int64[]"
                    },
                    {
                      "internalType": "int64[]",
                      "name": "conversionprice",
                      "type": "int64[]"
                    },
                    {
                      "internalType": "int64[]",
                      "name": "viaconversionprice",
                      "type": "int64[]"
                    },
                    {
                      "internalType": "int64[]",
                      "name": "fees",
                      "type": "int64[]"
                    },
                    {
                      "internalType": "int32[]",
                      "name": "priorweights",
                      "type": "int32[]"
                    },
                    {
                      "internalType": "int64[]",
                      "name": "conversionfees",
                      "type": "int64[]"
                    }
                  ],
                  "internalType": "struct VerusObjectsNotarization.CCoinbaseCurrencyState",
                  "name": "currencystate",
                  "type": "tuple"
                }
              ],
              "internalType": "struct VerusObjectsNotarization.CurrencyStates[]",
              "name": "currencystates",
              "type": "tuple[]"
            },
            {
              "components": [
                {
                  "internalType": "int16",
                  "name": "version",
                  "type": "int16"
                },
                {
                  "internalType": "int16",
                  "name": "cprtype",
                  "type": "int16"
                },
                {
                  "internalType": "address",
                  "name": "systemid",
                  "type": "address"
                },
                {
                  "internalType": "uint32",
                  "name": "rootheight",
                  "type": "uint32"
                },
                {
                  "internalType": "bytes32",
                  "name": "stateroot",
                  "type": "bytes32"
                },
                {
                  "internalType": "bytes32",
                  "name": "blockhash",
                  "type": "bytes32"
                },
                {
                  "internalType": "bytes32",
                  "name": "compactpower",
                  "type": "bytes32"
                }
              ],
              "internalType": "struct VerusObjectsNotarization.CProofRoot[]",
              "name": "proofroots",
              "type": "tuple[]"
            },
            {
              "components": [
                {
                  "internalType": "string",
                  "name": "networkaddress",
                  "type": "string"
                },
                {
                  "internalType": "address",
                  "name": "nodeidentity",
                  "type": "address"
                }
              ],
              "internalType": "struct VerusObjectsNotarization.CNodeData[]",
              "name": "nodes",
              "type": "tuple[]"
            }
          ],
          "internalType": "struct VerusObjectsNotarization.CPBaaSNotarization",
          "name": "_not",
          "type": "tuple"
        }
      ],
      "name": "serializeCPBaaSNotarization",
      "outputs": [
        {
          "internalType": "bytes",
          "name": "",
          "type": "bytes"
        }
      ],
      "stateMutability": "pure",
      "type": "function",
      "constant": true
    },
    {
      "inputs": [
        {
          "components": [
            {
              "internalType": "string",
              "name": "networkaddress",
              "type": "string"
            },
            {
              "internalType": "address",
              "name": "nodeidentity",
              "type": "address"
            }
          ],
          "internalType": "struct VerusObjectsNotarization.CNodeData[]",
          "name": "_cnds",
          "type": "tuple[]"
        }
      ],
      "name": "serializeNodes",
      "outputs": [
        {
          "internalType": "bytes",
          "name": "",
          "type": "bytes"
        }
      ],
      "stateMutability": "pure",
      "type": "function",
      "constant": true
    },
    {
      "inputs": [
        {
          "components": [
            {
              "internalType": "string",
              "name": "networkaddress",
              "type": "string"
            },
            {
              "internalType": "address",
              "name": "nodeidentity",
              "type": "address"
            }
          ],
          "internalType": "struct VerusObjectsNotarization.CNodeData",
          "name": "_cnd",
          "type": "tuple"
        }
      ],
      "name": "serializeCNodeData",
      "outputs": [
        {
          "internalType": "bytes",
          "name": "",
          "type": "bytes"
        }
      ],
      "stateMutability": "pure",
      "type": "function",
      "constant": true
    },
    {
      "inputs": [
        {
          "components": [
            {
              "internalType": "uint16",
              "name": "version",
              "type": "uint16"
            },
            {
              "internalType": "uint16",
              "name": "flags",
              "type": "uint16"
            },
            {
              "internalType": "address",
              "name": "sourcesystemid",
              "type": "address"
            },
            {
              "internalType": "bytes32",
              "name": "hashtransfers",
              "type": "bytes32"
            },
            {
              "internalType": "uint32",
              "name": "sourceheightstart",
              "type": "uint32"
            },
            {
              "internalType": "uint32",
              "name": "sourceheightend",
              "type": "uint32"
            },
            {
              "internalType": "address",
              "name": "destinationsystemid",
              "type": "address"
            },
            {
              "internalType": "address",
              "name": "destinationcurrencyid",
              "type": "address"
            },
            {
              "internalType": "uint32",
              "name": "numinputs",
              "type": "uint32"
            },
            {
              "components": [
                {
                  "internalType": "address",
                  "name": "currency",
                  "type": "address"
                },
                {
                  "internalType": "uint64",
                  "name": "amount",
                  "type": "uint64"
                }
              ],
              "internalType": "struct VerusObjects.CCurrencyValueMap[]",
              "name": "totalamounts",
              "type": "tuple[]"
            },
            {
              "components": [
                {
                  "internalType": "address",
                  "name": "currency",
                  "type": "address"
                },
                {
                  "internalType": "uint64",
                  "name": "amount",
                  "type": "uint64"
                }
              ],
              "internalType": "struct VerusObjects.CCurrencyValueMap[]",
              "name": "totalfees",
              "type": "tuple[]"
            },
            {
              "components": [
                {
                  "internalType": "address",
                  "name": "currency",
                  "type": "address"
                },
                {
                  "internalType": "uint64",
                  "name": "amount",
                  "type": "uint64"
                }
              ],
              "internalType": "struct VerusObjects.CCurrencyValueMap[]",
              "name": "totalburned",
              "type": "tuple[]"
            },
            {
              "components": [
                {
                  "internalType": "uint8",
                  "name": "destinationtype",
                  "type": "uint8"
                },
                {
                  "internalType": "bytes",
                  "name": "destinationaddress",
                  "type": "bytes"
                }
              ],
              "internalType": "struct VerusObjectsCommon.CTransferDestination",
              "name": "rewardaddress",
              "type": "tuple"
            },
            {
              "internalType": "int32",
              "name": "firstinput",
              "type": "int32"
            }
          ],
          "internalType": "struct VerusObjects.CCrossChainExport",
          "name": "_ccce",
          "type": "tuple"
        }
      ],
      "name": "serializeCCrossChainExport",
      "outputs": [
        {
          "internalType": "bytes",
          "name": "",
          "type": "bytes"
        }
      ],
      "stateMutability": "pure",
      "type": "function",
      "constant": true
    },
    {
      "inputs": [
        {
          "internalType": "bytes",
          "name": "incoming",
          "type": "bytes"
        }
      ],
      "name": "flipArray",
      "outputs": [
        {
          "internalType": "bytes",
          "name": "",
          "type": "bytes"
        }
      ],
      "stateMutability": "pure",
      "type": "function",
      "constant": true
    }
  ],
  "bytecode": "0x608060405234801561001057600080fd5b5061436c806100206000396000f3fe608060405234801561001057600080fd5b506004361061023c5760003560e01c806368b4ae811161013b578063cecb3043116100b8578063eba973e31161007c578063eba973e3146108a1578063ec9bb1a0146108d1578063f20fb83014610901578063f821729514610931578063fef5906a146109615761023c565b8063cecb3043146107b1578063cfa84de9146107e1578063dad935a114610811578063e067111114610841578063e4cba547146108715761023c565b8063af832f09116100ff578063af832f09146106c1578063b3a895f6146106f1578063b9f7f35a14610721578063c6abba5f14610751578063c93e58c8146107815761023c565b806368b4ae81146105d15780637b92bd2814610601578063941bb060146106315780639d487b4714610661578063a412bb29146106915761023c565b8063241d23b2116101c9578063462560071161018d57806346256007146104e1578063463276c3146105115780634df1c246146105415780636003992a146105715780636127b4ff146105a15761023c565b8063241d23b2146103f157806333c45ab91461042157806338b10868146104515780633b7cc0a21461048157806344c789d1146104b15761023c565b8063122e5ae711610210578063122e5ae71461030157806318c9bbfd1461033157806319a7c17b146103615780631c35653214610391578063200f6c2a146103c15761023c565b80629c815214610241578063049e3490146102715780630a803a86146102a15780631222d81a146102d1575b600080fd5b61025b60048036038101906102569190612f6e565b610991565b6040516102689190613cf2565b60405180910390f35b61028b60048036038101906102869190612dd5565b6109ba565b6040516102989190613cf2565b60405180910390f35b6102bb60048036038101906102b691906131e1565b610a2b565b6040516102c89190613cf2565b60405180910390f35b6102eb60048036038101906102e69190612fe9565b610bd8565b6040516102f89190613cf2565b60405180910390f35b61031b600480360381019061031691906134c8565b610ca9565b6040516103289190613cf2565b60405180910390f35b61034b6004803603810190610346919061330e565b610ce0565b6040516103589190613cf2565b60405180910390f35b61037b60048036038101906103769190612f2d565b610d77565b6040516103889190613cf2565b60405180910390f35b6103ab60048036038101906103a691906133b9565b610dff565b6040516103b89190613cf2565b60405180910390f35b6103db60048036038101906103d69190612eab565b610e42565b6040516103e89190613cf2565b60405180910390f35b61040b60048036038101906104069190612ce9565b610eb3565b6040516104189190613cf2565b60405180910390f35b61043b60048036038101906104369190613423565b610ee2565b6040516104489190613cf2565b60405180910390f35b61046b6004803603810190610466919061302a565b610f25565b6040516104789190613d14565b60405180910390f35b61049b60048036038101906104969190612e57565b610fa5565b6040516104a89190613cf2565b60405180910390f35b6104cb60048036038101906104c6919061328c565b61101e565b6040516104d89190613cf2565b60405180910390f35b6104fb60048036038101906104f6919061307e565b611061565b6040516105089190613cf2565b60405180910390f35b61052b60048036038101906105269190612f97565b611098565b6040516105389190613cf2565b60405180910390f35b61055b60048036038101906105569190613337565b6110c1565b6040516105689190613cf2565b60405180910390f35b61058b60048036038101906105869190613222565b61122b565b6040516105989190613cf2565b60405180910390f35b6105bb60048036038101906105b691906134f1565b611380565b6040516105c89190613cf2565b60405180910390f35b6105eb60048036038101906105e691906130f9565b6113b7565b6040516105f89190613cf2565b60405180910390f35b61061b60048036038101906106169190612eec565b61140f565b6040516106289190613cf2565b60405180910390f35b61064b60048036038101906106469190612d94565b611480565b6040516106589190613cf2565b60405180910390f35b61067b60048036038101906106769190612d12565b6114f1565b6040516106889190613cf2565b60405180910390f35b6106ab60048036038101906106a69190612e16565b611562565b6040516106b89190613cf2565b60405180910390f35b6106db60048036038101906106d691906130d0565b6115d3565b6040516106e89190613cf2565b60405180910390f35b61070b60048036038101906107069190613476565b61160a565b6040516107189190613cf2565b60405180910390f35b61073b60048036038101906107369190612fc0565b611692565b6040516107489190613cf2565b60405180910390f35b61076b60048036038101906107669190613378565b6116c3565b6040516107789190613cf2565b60405180910390f35b61079b6004803603810190610796919061313a565b611709565b6040516107a89190613cf2565b60405180910390f35b6107cb60048036038101906107c6919061349f565b61175e565b6040516107d89190613cf2565b60405180910390f35b6107fb60048036038101906107f69190613263565b611795565b6040516108089190613cf2565b60405180910390f35b61082b60048036038101906108269190613476565b6117d8565b6040516108389190613cf2565b60405180910390f35b61085b600480360381019061085691906133e2565b6118a7565b6040516108689190613cf2565b60405180910390f35b61088b6004803603810190610886919061344d565b6118ea565b6040516108989190613cf2565b60405180910390f35b6108bb60048036038101906108b691906132cd565b611921565b6040516108c89190613cf2565b60405180910390f35b6108eb60048036038101906108e6919061302a565b611a00565b6040516108f89190613d14565b60405180910390f35b61091b60048036038101906109169190613476565b611ae6565b6040516109289190613cf2565b60405180910390f35b61094b60048036038101906109469190612d53565b611b1d565b6040516109589190613cf2565b60405180910390f35b61097b600480360381019061097691906130a7565b611bad565b6040516109889190613cf2565b60405180910390f35b6060816040516020016109a49190613750565b6040516020818303038152906040529050919050565b6060806109c783516117d8565b905060005b8351811015610a2157816109f28583815181106109e557fe5b602002602001015161101e565b604051602001610a039291906137c9565b604051602081830303815290604052915080806001019150506109cc565b5080915050919050565b60606000610a3c83600001516118ea565b610a4984602001516118ea565b610a568560400151610eb3565b610a638660600151610d77565b610a7087608001516114f1565b610a7d8860a00151611b1d565b610a8d8960c0015160070b61160a565b610a9d8a60e0015160070b61160a565b610aae8b610100015160070b61160a565b604051602001610ac699989796959493929190613a1b565b60405160208183030381529060405290506000610ae78461012001516115d3565b610af58561014001516115d3565b610b038661016001516115d3565b610b118761018001516115d3565b610b1f886101a00151611b1d565b610b2d896101c00151611b1d565b610b3b8a6101e00151611b1d565b610b498b6102000151611b1d565b610b578c6102200151611b1d565b610b658d6102400151611b1d565b610b738e61026001516114f1565b610b818f6102800151611b1d565b604051602001610b9c9c9b9a99989796959493929190613a9a565b60405160208183030381529060405290508181604051602001610bc09291906137c9565b60405160208183030381529060405292505050919050565b606060008251905060008167ffffffffffffffff81118015610bf957600080fd5b506040519080825280601f01601f191660200182016040528015610c2c5781602001600182028036833780820191505090505b50905060005b82811015610c9e578460018285030381518110610c4b57fe5b602001015160f81c60f81b828281518110610c6257fe5b60200101907effffffffffffffffffffffffffffffffffffffffffffffffffffffffffffff1916908160001a9053508080600101915050610c32565b819350505050919050565b6060600082604051602001610cbe9190613c38565b6040516020818303038152906040529050610cd881610bd8565b915050919050565b6060610cef8260400151610eb3565b610cfc8360000151611061565b610d098460200151611061565b610d168560400151610eb3565b610d23866060015161175e565b610d308760800151611692565b610d3d8860a00151611692565b610d4a8960c00151611692565b604051602001610d61989796959493929190613926565b6040516020818303038152906040529050919050565b606080610d8483516117d8565b905060005b8351811015610df55781848281518110610d9f57fe5b6020026020010151604051602001610db79190613bcc565b604051602081830303815290604052604051602001610dd79291906137c9565b60405160208183030381529060405291508080600101915050610d89565b5080915050919050565b6060610e0e8260000151611692565b610e1b836020015161175e565b604051602001610e2c9291906137c9565b6040516020818303038152906040529050919050565b606080610e4f83516117d8565b905060005b8351811015610ea95781610e7a858381518110610e6d57fe5b60200260200101516118a7565b604051602001610e8b9291906137c9565b60405160208183030381529060405291508080600101915050610e54565b5080915050919050565b6060600082604051602001610ec89190613735565b604051602081830303815290604052905080915050919050565b6060610ef18260000151610eb3565b610efe8360200151610ce0565b604051602001610f0f9291906137c9565b6040516020818303038152906040529050919050565b610f2d611be4565b60005b600115610f7b5760008385015190506007840263ffffffff16607f821660ff1663ffffffff16901b820191508380600101945050607f8160ff1611610f755750610f7b565b50610f30565b60405180604001604052808463ffffffff1681526020018263ffffffff1681525091505092915050565b6060808215610fbb57610fb884516117d8565b90505b60005b84518110156110135781610fe4868381518110610fd757fe5b60200260200101516110c1565b604051602001610ff59291906137c9565b60405160208183030381529060405291508080600101915050610fbe565b508091505092915050565b606061102d82600001516113b7565b61103a8360200151610eb3565b60405160200161104b9291906137c9565b6040516020818303038152906040529050919050565b60606000826040516020016110769190613b64565b604051602081830303815290604052905061109081610bd8565b915050919050565b6060816040516020016110ab919061376b565b6040516020818303038152906040529050919050565b606060006110d8836000015163ffffffff1661160a565b6110e9846020015160000151610eb3565b61110485602001516020015167ffffffffffffffff1661160a565b6040516020016111159291906137c9565b604051602081830303815290604052611137856040015163ffffffff1661160a565b6111448660600151610eb3565b611151876080015161160a565b61115e8860a001516116c3565b61116b8960c00151610eb3565b60405160200161118197969594939291906138c1565b6040516020818303038152906040529050600061040084604001511663ffffffff1611156111db57806111b8846101000151610eb3565b6040516020016111c99291906137c9565b60405160208183030381529060405290505b6000604084604001511663ffffffff16111561122257806111ff8460e00151610eb3565b6040516020016112109291906137c9565b60405160208183030381529060405290505b80915050919050565b6060600061123c83600001516118ea565b61124984602001516118ea565b6112568560400151610eb3565b61126b6112668760600151611692565b610bd8565b6112788760c00151610eb3565b6112858860e00151610eb3565b60405160200161129a96959493929190613869565b604051602081830303815290604052905060006112c0846080015163ffffffff1661160a565b6112d38560a0015163ffffffff1661160a565b6112e186610100015161175e565b6112ef876101200151611480565b6112fd886101400151611480565b61130b896101600151611480565b6113198a61018001516116c3565b6113278b6101a00151611bad565b600060f81b60405160200161134499989796959493929190613998565b604051602081830303815290604052905081816040516020016113689291906137c9565b60405160208183030381529060405292505050919050565b60606000826040516020016113959190613c53565b60405160208183030381529060405290506113af81610bd8565b915050919050565b606080826040516020016113cb9190613bb5565b60405160208183030381529060405290506113e681516117d8565b836040516020016113f8929190613b40565b604051602081830303815290604052915050919050565b60608061141c83516117d8565b905060005b8351811015611476578161144785838151811061143a57fe5b6020026020010151610ee2565b6040516020016114589291906137c9565b60405160208183030381529060405291508080600101915050611421565b5080915050919050565b60608061148d835161160a565b905060005b83518110156114e757816114b88583815181106114ab57fe5b6020026020010151611795565b6040516020016114c99291906137c9565b60405160208183030381529060405291508080600101915050611492565b5080915050919050565b6060806114fe83516117d8565b905060005b8351811015611558578161152985838151811061151c57fe5b6020026020010151611bad565b60405160200161153a9291906137c9565b60405160208183030381529060405291508080600101915050611503565b5080915050919050565b60608061156f83516117d8565b905060005b83518110156115c9578161159a85838151811061158d57fe5b6020026020010151610ce0565b6040516020016115ab9291906137c9565b60405160208183030381529060405291508080600101915050611574565b5080915050919050565b60606000826040516020016115e89190613b9a565b604051602081830303815290604052905061160281610bd8565b915050919050565b60606000606060005b60011561167f57600081141561162a57600061162d565b60805b607f86161760f81b9250818360405160200161164a9291906137a1565b6040516020818303038152906040529150607f85116116685761167f565b6001600786901c0394508080600101915050611613565b61168882610bd8565b9350505050919050565b60606116bc826040516020016116a89190613786565b604051602081830303815290604052610bd8565b9050919050565b60606116d28260000151611380565b6116dc60146117d8565b83602001516040516020016116f3939291906137ed565b6040516020818303038152906040529050919050565b6060611714866113b7565b61171d86610eb3565b611726866115d3565b61172f86610eb3565b8560405160200161174495949392919061381e565b604051602081830303815290604052905095945050505050565b60606000826040516020016117739190613c1d565b604051602081830303815290604052905061178d81610bd8565b915050919050565b60606117a48260000151610eb3565b6117b18360200151610ca9565b6040516020016117c29291906137c9565b6040516020818303038152906040529050919050565b60608060fd60ff1683101561180e57826040516020016117f89190613c53565b604051602081830303815290604052905061189e565b61ffff83116118415760fd8360405160200161182b929190613c6e565b604051602081830303815290604052905061189d565b63ffffffff83116118765760fe83604051602001611860929190613c9a565b604051602081830303815290604052905061189c565b60ff8360405160200161188a929190613cc6565b60405160208183030381529060405290505b5b5b80915050919050565b60606118b68260000151610eb3565b6118c38360200151610a2b565b6040516020016118d49291906137c9565b6040516020818303038152906040529050919050565b60606000826040516020016118ff9190613be7565b604051602081830303815290604052905061191981610bd8565b915050919050565b6060611936826000015163ffffffff1661160a565b611949836020015163ffffffff1661160a565b61195684604001516116c3565b6119638560600151610eb3565b6119708660800151610a2b565b61197d8760a0015161175e565b61198a8860c00151610dff565b6119978960e00151611692565b6119a58a610100015161175e565b6119b38b6101200151610e42565b6119c18c6101400151611562565b6119cf8d61016001516109ba565b6040516020016119ea9c9b9a99989796959493929190613a9a565b6040516020818303038152906040529050919050565b611a08611be4565b600080838501519050838060010194505060fd8160ff161015611a525760405180604001604052808563ffffffff1681526020018260ff1663ffffffff1681525092505050611ae0565b60fd8160ff161415611ab95783850151905060008160ff169050848060010195505084860151915060405180604001604052806001870163ffffffff1681526020018360ff1660088461ffff16901b0161ffff1663ffffffff168152509350505050611ae0565b60405180604001604052808563ffffffff168152602001600063ffffffff16815250925050505b92915050565b6060600082604051602001611afb9190613c02565b6040516020818303038152906040529050611b1581610bd8565b915050919050565b606080611b2a83516117d8565b905060005b8351811015611ba35781611b74858381518110611b4857fe5b6020026020010151604051602001611b609190613b9a565b604051602081830303815290604052610bd8565b604051602001611b859291906137c9565b60405160208183030381529060405291508080600101915050611b2f565b5080915050919050565b6060600082604051602001611bc29190613b7f565b6040516020818303038152906040529050611bdc81610bd8565b915050919050565b6040518060400160405280600063ffffffff168152602001600063ffffffff1681525090565b6000611c1d611c1884613d60565b613d2f565b90508083825260208201905082856020860282011115611c3c57600080fd5b60005b85811015611c6c5781611c528882612234565b845260208401935060208301925050600181019050611c3f565b5050509392505050565b6000611c89611c8484613d8c565b613d2f565b90508083825260208201905082856020860282011115611ca857600080fd5b60005b85811015611cd85781611cbe8882612249565b845260208401935060208301925050600181019050611cab565b5050509392505050565b6000611cf5611cf084613db8565b613d2f565b90508083825260208201905082856040860282011115611d1457600080fd5b60005b85811015611d445781611d2a888261271e565b845260208401935060408301925050600181019050611d17565b5050509392505050565b6000611d61611d5c84613de4565b613d2f565b9050808382526020820190508260005b85811015611da15781358501611d87888261276a565b845260208401935060208301925050600181019050611d71565b5050509392505050565b6000611dbe611db984613e10565b613d2f565b905080838252602082019050828560e0860282011115611ddd57600080fd5b60005b85811015611e0d5781611df38882612965565b845260208401935060e08301925050600181019050611de0565b5050509392505050565b6000611e2a611e2584613e3c565b613d2f565b9050808382526020820190508260005b85811015611e6a5781358501611e508882612a15565b845260208401935060208301925050600181019050611e3a565b5050509392505050565b6000611e87611e8284613e68565b613d2f565b9050808382526020820190508260005b85811015611ec75781358501611ead8882612bba565b845260208401935060208301925050600181019050611e97565b5050509392505050565b6000611ee4611edf84613e94565b613d2f565b9050808382526020820190508285610100860282011115611f0457600080fd5b60005b85811015611f355781611f1a8882612c1e565b84526020840193506101008301925050600181019050611f07565b5050509392505050565b6000611f52611f4d84613ec0565b613d2f565b90508083825260208201905082856020860282011115611f7157600080fd5b60005b85811015611fa15781611f878882612c80565b845260208401935060208301925050600181019050611f74565b5050509392505050565b6000611fbe611fb984613eec565b613d2f565b905082815260208101848484011115611fd657600080fd5b611fe1848285614099565b509392505050565b6000611ffc611ff784613f1c565b613d2f565b90508281526020810184848401111561201457600080fd5b61201f848285614099565b509392505050565b6000813590506120368161420b565b92915050565b600082601f83011261204d57600080fd5b813561205d848260208601611c0a565b91505092915050565b600082601f83011261207757600080fd5b8135612087848260208601611c76565b91505092915050565b600082601f8301126120a157600080fd5b81356120b1848260208601611ce2565b91505092915050565b600082601f8301126120cb57600080fd5b81356120db848260208601611d4e565b91505092915050565b600082601f8301126120f557600080fd5b8135612105848260208601611dab565b91505092915050565b600082601f83011261211f57600080fd5b813561212f848260208601611e17565b91505092915050565b600082601f83011261214957600080fd5b8135612159848260208601611e74565b91505092915050565b600082601f83011261217357600080fd5b8135612183848260208601611ed1565b91505092915050565b600082601f83011261219d57600080fd5b81356121ad848260208601611f3f565b91505092915050565b6000813590506121c581614222565b92915050565b6000813590506121da81614239565b92915050565b6000813590506121ef81614250565b92915050565b600082601f83011261220657600080fd5b8135612216848260208601611fab565b91505092915050565b60008135905061222e81614267565b92915050565b6000813590506122438161427e565b92915050565b60008135905061225881614295565b92915050565b600082601f83011261226f57600080fd5b813561227f848260208601611fe9565b91505092915050565b60006102a0828403121561229b57600080fd5b6122a66102a0613d2f565b905060006122b684828501612c6b565b60008301525060206122ca84828501612c6b565b60208301525060406122de84828501612027565b604083015250606082013567ffffffffffffffff8111156122fe57600080fd5b61230a8482850161218c565b606083015250608082013567ffffffffffffffff81111561232a57600080fd5b6123368482850161203c565b60808301525060a082013567ffffffffffffffff81111561235657600080fd5b61236284828501612066565b60a08301525060c061237684828501612249565b60c08301525060e061238a84828501612249565b60e08301525061010061239f84828501612249565b610100830152506101206123b584828501612249565b610120830152506101406123cb84828501612249565b610140830152506101606123e184828501612249565b610160830152506101806123f784828501612249565b610180830152506101a082013567ffffffffffffffff81111561241957600080fd5b61242584828501612066565b6101a0830152506101c082013567ffffffffffffffff81111561244757600080fd5b61245384828501612066565b6101c0830152506101e082013567ffffffffffffffff81111561247557600080fd5b61248184828501612066565b6101e08301525061020082013567ffffffffffffffff8111156124a357600080fd5b6124af84828501612066565b6102008301525061022082013567ffffffffffffffff8111156124d157600080fd5b6124dd84828501612066565b6102208301525061024082013567ffffffffffffffff8111156124ff57600080fd5b61250b84828501612066565b6102408301525061026082013567ffffffffffffffff81111561252d57600080fd5b6125398482850161203c565b6102608301525061028082013567ffffffffffffffff81111561255b57600080fd5b61256784828501612066565b6102808301525092915050565b60006101c0828403121561258757600080fd5b6125926101c0613d2f565b905060006125a284828501612c6b565b60008301525060206125b684828501612c6b565b60208301525060406125ca84828501612027565b60408301525060606125de848285016121e0565b60608301525060806125f284828501612caa565b60808301525060a061260684828501612caa565b60a08301525060c061261a84828501612027565b60c08301525060e061262e84828501612027565b60e08301525061010061264384828501612caa565b6101008301525061012082013567ffffffffffffffff81111561266557600080fd5b61267184828501612090565b6101208301525061014082013567ffffffffffffffff81111561269357600080fd5b61269f84828501612090565b6101408301525061016082013567ffffffffffffffff8111156126c157600080fd5b6126cd84828501612090565b6101608301525061018082013567ffffffffffffffff8111156126ef57600080fd5b6126fb84828501612b0a565b610180830152506101a061271184828501612234565b6101a08301525092915050565b60006040828403121561273057600080fd5b61273a6040613d2f565b9050600061274a84828501612027565b600083015250602061275e84828501612cbf565b60208301525092915050565b60006040828403121561277c57600080fd5b6127866040613d2f565b9050600082013567ffffffffffffffff8111156127a257600080fd5b6127ae8482850161225e565b60008301525060206127c284828501612027565b60208301525092915050565b60006101a082840312156127e157600080fd5b6127ec610180613d2f565b905060006127fc84828501612caa565b600083015250602061281084828501612caa565b602083015250604082013567ffffffffffffffff81111561283057600080fd5b61283c84828501612b0a565b604083015250606061285084828501612027565b606083015250608082013567ffffffffffffffff81111561287057600080fd5b61287c84828501612288565b60808301525060a061289084828501612caa565b60a08301525060c06128a484828501612b6e565b60c0830152506101006128b9848285016121e0565b60e0830152506101206128ce84828501612caa565b6101008301525061014082013567ffffffffffffffff8111156128f057600080fd5b6128fc84828501612138565b6101208301525061016082013567ffffffffffffffff81111561291e57600080fd5b61292a848285016120e4565b6101408301525061018082013567ffffffffffffffff81111561294c57600080fd5b612958848285016120ba565b6101608301525092915050565b600060e0828403121561297757600080fd5b61298160e0613d2f565b905060006129918482850161221f565b60008301525060206129a58482850161221f565b60208301525060406129b984828501612027565b60408301525060606129cd84828501612caa565b60608301525060806129e1848285016121e0565b60808301525060a06129f5848285016121e0565b60a08301525060c0612a09848285016121e0565b60c08301525092915050565b60006101408284031215612a2857600080fd5b612a33610120613d2f565b90506000612a4384828501612caa565b6000830152506020612a578482850161271e565b6020830152506060612a6b84828501612caa565b6040830152506080612a7f84828501612027565b60608301525060a0612a9384828501612c95565b60808301525060c082013567ffffffffffffffff811115612ab357600080fd5b612abf84828501612b0a565b60a08301525060e0612ad384828501612027565b60c083015250610100612ae884828501612027565b60e083015250610120612afd84828501612027565b6101008301525092915050565b600060408284031215612b1c57600080fd5b612b266040613d2f565b90506000612b3684828501612cd4565b600083015250602082013567ffffffffffffffff811115612b5657600080fd5b612b62848285016121f5565b60208301525092915050565b600060408284031215612b8057600080fd5b612b8a6040613d2f565b90506000612b9a848285016121e0565b6000830152506020612bae84828501612caa565b60208301525092915050565b600060408284031215612bcc57600080fd5b612bd66040613d2f565b90506000612be684828501612027565b600083015250602082013567ffffffffffffffff811115612c0657600080fd5b612c1284828501612288565b60208301525092915050565b60006101008284031215612c3157600080fd5b612c3b6040613d2f565b90506000612c4b84828501612027565b6000830152506020612c5f84828501612965565b60208301525092915050565b600081359050612c7a816142ac565b92915050565b600081359050612c8f816142c3565b92915050565b600081359050612ca4816142da565b92915050565b600081359050612cb9816142f1565b92915050565b600081359050612cce81614308565b92915050565b600081359050612ce38161431f565b92915050565b600060208284031215612cfb57600080fd5b6000612d0984828501612027565b91505092915050565b600060208284031215612d2457600080fd5b600082013567ffffffffffffffff811115612d3e57600080fd5b612d4a8482850161203c565b91505092915050565b600060208284031215612d6557600080fd5b600082013567ffffffffffffffff811115612d7f57600080fd5b612d8b84828501612066565b91505092915050565b600060208284031215612da657600080fd5b600082013567ffffffffffffffff811115612dc057600080fd5b612dcc84828501612090565b91505092915050565b600060208284031215612de757600080fd5b600082013567ffffffffffffffff811115612e0157600080fd5b612e0d848285016120ba565b91505092915050565b600060208284031215612e2857600080fd5b600082013567ffffffffffffffff811115612e4257600080fd5b612e4e848285016120e4565b91505092915050565b60008060408385031215612e6a57600080fd5b600083013567ffffffffffffffff811115612e8457600080fd5b612e908582860161210e565b9250506020612ea1858286016121b6565b9150509250929050565b600060208284031215612ebd57600080fd5b600082013567ffffffffffffffff811115612ed757600080fd5b612ee384828501612138565b91505092915050565b600060208284031215612efe57600080fd5b600082013567ffffffffffffffff811115612f1857600080fd5b612f2484828501612162565b91505092915050565b600060208284031215612f3f57600080fd5b600082013567ffffffffffffffff811115612f5957600080fd5b612f658482850161218c565b91505092915050565b600060208284031215612f8057600080fd5b6000612f8e848285016121b6565b91505092915050565b600060208284031215612fa957600080fd5b6000612fb7848285016121cb565b91505092915050565b600060208284031215612fd257600080fd5b6000612fe0848285016121e0565b91505092915050565b600060208284031215612ffb57600080fd5b600082013567ffffffffffffffff81111561301557600080fd5b613021848285016121f5565b91505092915050565b6000806040838503121561303d57600080fd5b600083013567ffffffffffffffff81111561305757600080fd5b613063858286016121f5565b925050602061307485828601612caa565b9150509250929050565b60006020828403121561309057600080fd5b600061309e8482850161221f565b91505092915050565b6000602082840312156130b957600080fd5b60006130c784828501612234565b91505092915050565b6000602082840312156130e257600080fd5b60006130f084828501612249565b91505092915050565b60006020828403121561310b57600080fd5b600082013567ffffffffffffffff81111561312557600080fd5b6131318482850161225e565b91505092915050565b600080600080600060a0868803121561315257600080fd5b600086013567ffffffffffffffff81111561316c57600080fd5b6131788882890161225e565b955050602061318988828901612027565b945050604061319a88828901612249565b93505060606131ab88828901612027565b925050608086013567ffffffffffffffff8111156131c857600080fd5b6131d4888289016121f5565b9150509295509295909350565b6000602082840312156131f357600080fd5b600082013567ffffffffffffffff81111561320d57600080fd5b61321984828501612288565b91505092915050565b60006020828403121561323457600080fd5b600082013567ffffffffffffffff81111561324e57600080fd5b61325a84828501612574565b91505092915050565b60006040828403121561327557600080fd5b60006132838482850161271e565b91505092915050565b60006020828403121561329e57600080fd5b600082013567ffffffffffffffff8111156132b857600080fd5b6132c48482850161276a565b91505092915050565b6000602082840312156132df57600080fd5b600082013567ffffffffffffffff8111156132f957600080fd5b613305848285016127ce565b91505092915050565b600060e0828403121561332057600080fd5b600061332e84828501612965565b91505092915050565b60006020828403121561334957600080fd5b600082013567ffffffffffffffff81111561336357600080fd5b61336f84828501612a15565b91505092915050565b60006020828403121561338a57600080fd5b600082013567ffffffffffffffff8111156133a457600080fd5b6133b084828501612b0a565b91505092915050565b6000604082840312156133cb57600080fd5b60006133d984828501612b6e565b91505092915050565b6000602082840312156133f457600080fd5b600082013567ffffffffffffffff81111561340e57600080fd5b61341a84828501612bba565b91505092915050565b6000610100828403121561343657600080fd5b600061344484828501612c1e565b91505092915050565b60006020828403121561345f57600080fd5b600061346d84828501612c6b565b91505092915050565b60006020828403121561348857600080fd5b600061349684828501612c95565b91505092915050565b6000602082840312156134b157600080fd5b60006134bf84828501612caa565b91505092915050565b6000602082840312156134da57600080fd5b60006134e884828501612cbf565b91505092915050565b60006020828403121561350357600080fd5b600061351184828501612cd4565b91505092915050565b61352b61352682613f89565b6140db565b82525050565b61354261353d82613f9b565b6140ed565b82525050565b61355961355482613fa7565b6140ff565b82525050565b61357061356b82613fd3565b614109565b82525050565b61358761358282613fff565b614113565b82525050565b600061359882613f4c565b6135a28185613f62565b93506135b28185602086016140a8565b6135bb816141b9565b840191505092915050565b60006135d182613f4c565b6135db8185613f73565b93506135eb8185602086016140a8565b80840191505092915050565b61360861360382614009565b61411d565b82525050565b61361f61361a82614016565b61412f565b82525050565b61363661363182614023565b614141565b82525050565b600061364782613f57565b6136518185613f7e565b93506136618185602086016140a8565b80840191505092915050565b60408201600082015161368360008501826136e1565b50602082015161369660208501826136e1565b50505050565b6136ad6136a88261403e565b614165565b82525050565b6136c46136bf82614030565b614153565b82525050565b6136db6136d68261405e565b614177565b82525050565b6136ea81614068565b82525050565b6137016136fc82614068565b614181565b82525050565b61371861371382614078565b614193565b82525050565b61372f61372a8261408c565b6141a5565b82525050565b6000613741828461351a565b60148201915081905092915050565b600061375c8284613531565b60018201915081905092915050565b6000613777828461355f565b60148201915081905092915050565b60006137928284613576565b60208201915081905092915050565b60006137ad82856135c6565b91506137b98284613548565b6001820191508190509392505050565b60006137d582856135c6565b91506137e182846135c6565b91508190509392505050565b60006137f982866135c6565b915061380582856135c6565b915061381182846135c6565b9150819050949350505050565b600061382a82886135c6565b915061383682876135c6565b915061384282866135c6565b915061384e82856135c6565b915061385a82846135c6565b91508190509695505050505050565b600061387582896135c6565b915061388182886135c6565b915061388d82876135c6565b915061389982866135c6565b91506138a582856135c6565b91506138b182846135c6565b9150819050979650505050505050565b60006138cd828a6135c6565b91506138d982896135c6565b91506138e582886135c6565b91506138f182876135c6565b91506138fd82866135c6565b915061390982856135c6565b915061391582846135c6565b915081905098975050505050505050565b6000613932828b6135c6565b915061393e828a6135c6565b915061394a82896135c6565b915061395682886135c6565b915061396282876135c6565b915061396e82866135c6565b915061397a82856135c6565b915061398682846135c6565b91508190509998505050505050505050565b60006139a4828c6135c6565b91506139b0828b6135c6565b91506139bc828a6135c6565b91506139c882896135c6565b91506139d482886135c6565b91506139e082876135c6565b91506139ec82866135c6565b91506139f882856135c6565b9150613a048284613548565b6001820191508190509a9950505050505050505050565b6000613a27828c6135c6565b9150613a33828b6135c6565b9150613a3f828a6135c6565b9150613a4b82896135c6565b9150613a5782886135c6565b9150613a6382876135c6565b9150613a6f82866135c6565b9150613a7b82856135c6565b9150613a8782846135c6565b91508190509a9950505050505050505050565b6000613aa6828f6135c6565b9150613ab2828e6135c6565b9150613abe828d6135c6565b9150613aca828c6135c6565b9150613ad6828b6135c6565b9150613ae2828a6135c6565b9150613aee82896135c6565b9150613afa82886135c6565b9150613b0682876135c6565b9150613b1282866135c6565b9150613b1e82856135c6565b9150613b2a82846135c6565b91508190509d9c50505050505050505050505050565b6000613b4c82856135c6565b9150613b58828461363c565b91508190509392505050565b6000613b7082846135f7565b60028201915081905092915050565b6000613b8b828461360e565b60048201915081905092915050565b6000613ba68284613625565b60088201915081905092915050565b6000613bc1828461363c565b915081905092915050565b6000613bd8828461369c565b60148201915081905092915050565b6000613bf382846136b3565b60028201915081905092915050565b6000613c0e82846136ca565b60208201915081905092915050565b6000613c2982846136f0565b60048201915081905092915050565b6000613c448284613707565b60088201915081905092915050565b6000613c5f828461371e565b60018201915081905092915050565b6000613c7a828561371e565b600182019150613c8a82846136b3565b6002820191508190509392505050565b6000613ca6828561371e565b600182019150613cb682846136f0565b6004820191508190509392505050565b6000613cd2828561371e565b600182019150613ce28284613707565b6008820191508190509392505050565b60006020820190508181036000830152613d0c818461358d565b905092915050565b6000604082019050613d29600083018461366d565b92915050565b6000604051905081810181811067ffffffffffffffff82111715613d5657613d556141b7565b5b8060405250919050565b600067ffffffffffffffff821115613d7b57613d7a6141b7565b5b602082029050602081019050919050565b600067ffffffffffffffff821115613da757613da66141b7565b5b602082029050602081019050919050565b600067ffffffffffffffff821115613dd357613dd26141b7565b5b602082029050602081019050919050565b600067ffffffffffffffff821115613dff57613dfe6141b7565b5b602082029050602081019050919050565b600067ffffffffffffffff821115613e2b57613e2a6141b7565b5b602082029050602081019050919050565b600067ffffffffffffffff821115613e5757613e566141b7565b5b602082029050602081019050919050565b600067ffffffffffffffff821115613e8357613e826141b7565b5b602082029050602081019050919050565b600067ffffffffffffffff821115613eaf57613eae6141b7565b5b602082029050602081019050919050565b600067ffffffffffffffff821115613edb57613eda6141b7565b5b602082029050602081019050919050565b600067ffffffffffffffff821115613f0757613f066141b7565b5b601f19601f8301169050602081019050919050565b600067ffffffffffffffff821115613f3757613f366141b7565b5b601f19601f8301169050602081019050919050565b600081519050919050565b600081519050919050565b600082825260208201905092915050565b600081905092915050565b600081905092915050565b6000613f948261403e565b9050919050565b60008115159050919050565b60007fff0000000000000000000000000000000000000000000000000000000000000082169050919050565b60007fffffffffffffffffffffffffffffffffffffffff00000000000000000000000082169050919050565b6000819050919050565b60008160010b9050919050565b60008160030b9050919050565b60008160070b9050919050565b600061ffff82169050919050565b600073ffffffffffffffffffffffffffffffffffffffff82169050919050565b6000819050919050565b600063ffffffff82169050919050565b600067ffffffffffffffff82169050919050565b600060ff82169050919050565b82818337600083830152505050565b60005b838110156140c65780820151818401526020810190506140ab565b838111156140d5576000848401525b50505050565b60006140e682614165565b9050919050565b60006140f8826141a5565b9050919050565b6000819050919050565b6000819050919050565b6000819050919050565b6000614128826141e4565b9050919050565b600061413a826141d7565b9050919050565b600061414c826141ca565b9050919050565b600061415e826141e4565b9050919050565b6000614170826141fe565b9050919050565b6000819050919050565b600061418c826141d7565b9050919050565b600061419e826141ca565b9050919050565b60006141b0826141f1565b9050919050565bfe5b6000601f19601f8301169050919050565b60008160c01b9050919050565b60008160e01b9050919050565b60008160f01b9050919050565b60008160f81b9050919050565b60008160601b9050919050565b61421481613f89565b811461421f57600080fd5b50565b61422b81613f9b565b811461423657600080fd5b50565b61424281613fd3565b811461424d57600080fd5b50565b61425981613fff565b811461426457600080fd5b50565b61427081614009565b811461427b57600080fd5b50565b61428781614016565b811461429257600080fd5b50565b61429e81614023565b81146142a957600080fd5b50565b6142b581614030565b81146142c057600080fd5b50565b6142cc8161403e565b81146142d757600080fd5b50565b6142e38161405e565b81146142ee57600080fd5b50565b6142fa81614068565b811461430557600080fd5b50565b61431181614078565b811461431c57600080fd5b50565b6143288161408c565b811461433357600080fd5b5056fea264697066735822122007333498122725af0deb758dde5c07c2d8ff183c21976d1f5204b3c1255ae90264736f6c63430007060033",
  "immutableReferences": {},
  "source": "// SPDX-License-Identifier: MIT\r\n// Bridge between ethereum and verus\r\n\r\npragma solidity >=0.6.0 < 0.9.0;\r\npragma experimental ABIEncoderV2;   \r\nimport \"../Libraries/VerusObjects.sol\";\r\nimport \"../Libraries/VerusObjectsNotarization.sol\";\r\n\r\ncontract VerusSerializer {\r\n\r\n    struct UintReader {\r\n        uint32 offset;\r\n        uint32 value;\r\n    }\r\n\r\n    function readVarUintLE(bytes memory incoming, uint32 offset) public pure returns(VerusSerializer.UintReader memory) {\r\n        uint32 retVal = 0;\r\n        while (true)\r\n        {\r\n            uint8 oneByte;\r\n            assembly {\r\n                oneByte := mload(add(incoming, offset))\r\n            }\r\n            retVal += (uint32)(oneByte & 0x7f) << (offset * 7);\r\n            offset++;\r\n            if (oneByte <= 0x7f)\r\n            {\r\n                break;\r\n            }\r\n        }\r\n        return UintReader(offset, retVal);\r\n    }\r\n\r\n    // uses the varint encoding from Bitcoin script pushes\r\n    // this does not support numbers larger than uint16, and if it encounters one or any invalid data, it returns a value of \r\n    // zero and the original offset\r\n    function readCompactSizeLE(bytes memory incoming, uint32 offset) public pure returns(VerusSerializer.UintReader memory) {\r\n        uint32 retVal = 0;\r\n        uint8 oneByte;\r\n        assembly {\r\n            oneByte := mload(add(incoming, offset))\r\n        }\r\n        offset++;\r\n        if (oneByte < 253)\r\n        {\r\n            return UintReader(offset, oneByte);\r\n        }\r\n        else if (oneByte == 253)\r\n        {\r\n            assembly {\r\n                oneByte := mload(add(incoming, offset))\r\n            }\r\n            uint16 twoByte = oneByte;\r\n            offset++;\r\n            assembly {\r\n                oneByte := mload(add(incoming, offset))\r\n            }\r\n            return UintReader(offset + 1, (twoByte << 8) + oneByte);\r\n        }\r\n        return UintReader(offset, 0);\r\n    }\r\n\r\n    function writeVarInt(uint256 incoming) public pure returns(bytes memory) {\r\n        bytes1 inProgress;\r\n        bytes memory output;\r\n        uint len = 0;\r\n        while(true){\r\n            inProgress = bytes1(uint8(incoming & 0x7f) | (len!=0 ? 0x80:0x00));\r\n            output = abi.encodePacked(output,inProgress);\r\n            if(incoming <= 0x7f) break;\r\n            incoming = (incoming >> 7) -1;\r\n            len++;\r\n        }\r\n        return flipArray(output);\r\n    }\r\n    \r\n    function writeCompactSize(uint newNumber) public pure returns(bytes memory) {\r\n        bytes memory output;\r\n        if (newNumber < uint8(253))\r\n        {   \r\n            output = abi.encodePacked(uint8(newNumber));\r\n        }\r\n        else if (newNumber <= 0xFFFF)\r\n        {   \r\n            output = abi.encodePacked(uint8(253),uint16(newNumber));\r\n        }\r\n        else if (newNumber <= 0xFFFFFFFF)\r\n        {   \r\n            output = abi.encodePacked(uint8(254),uint32(newNumber));\r\n        }\r\n        else\r\n        {\r\n            output = abi.encodePacked(uint8(255),uint64(newNumber));\r\n        }\r\n        return output;\r\n    }\r\n\r\n    \r\n    function verusHashPrefix(string memory prefix,address systemID,int64 blockHeight,address signingID, bytes memory messageToHash) public pure returns(bytes memory){\r\n        return abi.encodePacked(serializeString(prefix),serializeAddress(systemID),serializeInt64(blockHeight),serializeAddress(signingID),messageToHash);    \r\n    }\r\n    \r\n    //serialize functions\r\n\r\n    function serializeBool(bool anyBool) public pure returns(bytes memory){\r\n        return abi.encodePacked(anyBool);\r\n    }\r\n    \r\n    function serializeString(string memory anyString) public pure returns(bytes memory){\r\n        //naturally BigEndian\r\n        bytes memory be;\r\n        be = abi.encodePacked(anyString);\r\n        return abi.encodePacked(writeCompactSize(be.length),anyString);\r\n        //return abi.encodePacked(anyString);\r\n    }\r\n\r\n    function serializeBytes20(bytes20 anyBytes20) public pure returns(bytes memory){\r\n        //naturally BigEndian\r\n        return abi.encodePacked(anyBytes20);\r\n    }\r\n    function serializeBytes32(bytes32 anyBytes32) public pure returns(bytes memory){\r\n        //naturally BigEndian\r\n        return flipArray(abi.encodePacked(anyBytes32));\r\n    }\r\n\r\n    function serializeUint8(uint8 number) public pure returns(bytes memory){\r\n        bytes memory be = abi.encodePacked(number);\r\n        return(flipArray(be));\r\n    }\r\n    \r\n    function serializeUint16(uint16 number) public pure returns(bytes memory){\r\n        bytes memory be = abi.encodePacked(number);\r\n        return(flipArray(be));\r\n    }\r\n    \r\n    function serializeUint32(uint32 number) public pure returns(bytes memory){\r\n        bytes memory be = abi.encodePacked(number);\r\n        return(flipArray(be));\r\n    }\r\n\r\n    function serializeInt16(int16 number) public pure returns(bytes memory){\r\n        bytes memory be = abi.encodePacked(number);\r\n        return(flipArray(be));\r\n    }\r\n    \r\n    function serializeInt32(int32 number) public pure returns(bytes memory){\r\n        bytes memory be = abi.encodePacked(number);\r\n        return(flipArray(be));\r\n    }\r\n    \r\n    function serializeInt64(int64 number) public pure returns(bytes memory){\r\n        bytes memory be = abi.encodePacked(number);\r\n        return(flipArray(be));\r\n    }\r\n\r\n    function serializeInt32Array(int32[] memory numbers) public pure returns(bytes memory){\r\n        bytes memory be;\r\n        be = writeCompactSize((numbers.length));\r\n        for(uint i = 0;i < numbers.length; i++){\r\n            be = abi.encodePacked(be,serializeInt32(numbers[i]));\r\n        }\r\n        return be;\r\n    }\r\n\r\n    function serializeInt64Array(int64[] memory numbers) public pure returns(bytes memory){\r\n        bytes memory be;\r\n        be = writeCompactSize((numbers.length));\r\n        for(uint i = 0;i < numbers.length; i++){\r\n            be = abi.encodePacked(be,flipArray(abi.encodePacked(numbers[i])));\r\n        }\r\n        return be;\r\n    }\r\n\r\n    function serializeUint64(uint64 number) public pure returns(bytes memory){\r\n        bytes memory be = abi.encodePacked(number);\r\n        return(flipArray(be));\r\n    }\r\n\r\n    function serializeAddress(address number) public pure returns(bytes memory){\r\n        bytes memory be = abi.encodePacked(number);\r\n        return be;\r\n    }\r\n    \r\n    function serializeUint160Array(uint160[] memory numbers) public pure returns(bytes memory){\r\n        bytes memory be;\r\n        be = writeCompactSize((numbers.length));\r\n        for(uint i = 0;i < numbers.length; i++){\r\n            be = abi.encodePacked(be,abi.encodePacked(numbers[i]));\r\n        }\r\n        return(be);\r\n    }\r\n\r\n    function serializeUint256(uint256 number) public pure returns(bytes memory){\r\n        bytes memory be = abi.encodePacked(number);\r\n        return(flipArray(be));\r\n    }\r\n    \r\n    function serializeCTransferDestination(VerusObjectsCommon.CTransferDestination memory ctd) public pure returns(bytes memory){\r\n        return abi.encodePacked(serializeUint8(ctd.destinationtype),writeCompactSize(20),ctd.destinationaddress);\r\n    }    \r\n\r\n    function serializeCCurrencyValueMap(VerusObjects.CCurrencyValueMap memory _ccvm) public pure returns(bytes memory){\r\n         return abi.encodePacked(serializeAddress(_ccvm.currency),serializeUint64(_ccvm.amount));\r\n    }\r\n    \r\n    function serializeCCurrencyValueMaps(VerusObjects.CCurrencyValueMap[] memory _ccvms) public pure returns(bytes memory){\r\n        bytes memory inProgress;\r\n        inProgress = writeVarInt(_ccvms.length);\r\n        for(uint i=0; i < _ccvms.length; i++){\r\n            inProgress = abi.encodePacked(inProgress,serializeCCurrencyValueMap(_ccvms[i]));\r\n        }\r\n        return inProgress;\r\n    }\r\n\r\n    function serializeCReserveTransfer(VerusObjects.CReserveTransfer memory ct) public pure returns(bytes memory){\r\n        \r\n        bytes memory output =  abi.encodePacked(\r\n            writeVarInt(ct.version),\r\n            abi.encodePacked(serializeAddress(ct.currencyvalue.currency),writeVarInt(ct.currencyvalue.amount)),//special interpretation of a ccurrencyvalue\r\n            writeVarInt(ct.flags),\r\n            serializeAddress(ct.feecurrencyid),\r\n            writeVarInt(ct.fees),\r\n            serializeCTransferDestination(ct.destination),\r\n            serializeAddress(ct.destcurrencyid)\r\n           );\r\n           \r\n        if((ct.flags & 0x400)>0) output = abi.encodePacked(output,serializeAddress(ct.secondreserveid));           \r\n         //see if its got a cross_system flag\r\n        if((ct.flags & 0x40)>0) output = abi.encodePacked(output,serializeAddress(ct.destsystemid));\r\n        \r\n        return output;\r\n    }\r\n    \r\n    function serializeCReserveTransfers(VerusObjects.CReserveTransfer[] memory _bts, bool includeSize) public pure returns(bytes memory){\r\n        bytes memory inProgress;\r\n        \r\n        if (includeSize) inProgress = writeCompactSize(_bts.length);\r\n        \r\n        for(uint i=0; i < _bts.length; i++){\r\n            inProgress = abi.encodePacked(inProgress,serializeCReserveTransfer(_bts[i]));\r\n        }\r\n        return inProgress;\r\n    }\r\n\r\n    function serializeCUTXORef(VerusObjectsNotarization.CUTXORef memory _cutxo) public pure returns(bytes memory){\r\n        return abi.encodePacked(\r\n            serializeBytes32(_cutxo.hash),\r\n            serializeUint32(_cutxo.n)\r\n        );\r\n    }\r\n\r\n    function serializeCProofRoot(VerusObjectsNotarization.CProofRoot memory _cpr) public pure returns(bytes memory){\r\n        return abi.encodePacked(\r\n            serializeAddress(_cpr.systemid),\r\n            serializeInt16(_cpr.version),\r\n            serializeInt16(_cpr.cprtype),\r\n            serializeAddress(_cpr.systemid),\r\n            serializeUint32(_cpr.rootheight),\r\n            serializeBytes32(_cpr.stateroot),\r\n            serializeBytes32(_cpr.blockhash),\r\n            serializeBytes32(_cpr.compactpower)\r\n            );\r\n    }\r\n\r\n    function serializeProofRoots(VerusObjectsNotarization.ProofRoots memory _prs) public pure returns(bytes memory){\r\n        return abi.encodePacked(\r\n            serializeAddress(_prs.currencyid),\r\n            serializeCProofRoot(_prs.proofroot)\r\n        );  \r\n    }\r\n\r\n    function serializeProofRootsArray(VerusObjectsNotarization.ProofRoots[] memory _prsa) public pure returns(bytes memory){\r\n        bytes memory inProgress;\r\n        \r\n        inProgress = writeCompactSize(_prsa.length);\r\n        for(uint i=0; i < _prsa.length; i++){\r\n            inProgress = abi.encodePacked(inProgress,serializeProofRoots(_prsa[i]));\r\n        }\r\n        return inProgress;\r\n    }\r\n    \r\n    function serializeCProofRootArray(VerusObjectsNotarization.CProofRoot[] memory _prsa) public pure returns(bytes memory){\r\n        bytes memory inProgress;\r\n        \r\n        inProgress = writeCompactSize(_prsa.length);\r\n        for(uint i=0; i < _prsa.length; i++){\r\n            inProgress = abi.encodePacked(inProgress,serializeCProofRoot(_prsa[i]));\r\n        }\r\n        return inProgress;\r\n    }\r\n    \r\n\r\n    function serializeCCoinbaseCurrencyState(VerusObjectsNotarization.CCoinbaseCurrencyState memory _cccs) public pure returns(bytes memory){\r\n        bytes memory part1 = abi.encodePacked(\r\n            serializeUint16(_cccs.version),\r\n            serializeUint16(_cccs.flags),\r\n            serializeAddress(_cccs.currencyid),\r\n            serializeUint160Array(_cccs.currencies),\r\n            serializeInt32Array(_cccs.weights),\r\n            serializeInt64Array(_cccs.reserves),\r\n            writeVarInt(uint256(_cccs.initialsupply)),\r\n            writeVarInt(uint256(_cccs.emitted)),\r\n            writeVarInt(uint256(_cccs.supply))\r\n        );\r\n        bytes memory part2 = abi.encodePacked(\r\n            serializeInt64(_cccs.primarycurrencyout),\r\n            serializeInt64(_cccs.preconvertedout),\r\n            serializeInt64(_cccs.primarycurrencyfees),\r\n            serializeInt64(_cccs.primarycurrencyconversionfees),\r\n            serializeInt64Array(_cccs.reservein),\r\n            serializeInt64Array(_cccs.primarycurrencyin),\r\n            serializeInt64Array(_cccs.reserveout),\r\n            serializeInt64Array(_cccs.conversionprice),\r\n            serializeInt64Array(_cccs.viaconversionprice),\r\n            serializeInt64Array(_cccs.fees),\r\n            serializeInt32Array(_cccs.priorweights),\r\n            serializeInt64Array(_cccs.conversionfees)\r\n        );\r\n        \r\n        return abi.encodePacked(part1,part2);\r\n    }\r\n\r\n    function serializeCurrencyStates(VerusObjectsNotarization.CurrencyStates memory _cs) public pure returns(bytes memory){\r\n        return abi.encodePacked(\r\n            serializeAddress(_cs.currencyid),\r\n            serializeCCoinbaseCurrencyState(_cs.currencystate)\r\n        );\r\n    }\r\n\r\n    function serializeCurrencyStatesArray(VerusObjectsNotarization.CurrencyStates[] memory _csa) public pure returns(bytes memory){\r\n        bytes memory inProgress;\r\n        inProgress = writeCompactSize(_csa.length);\r\n        for(uint i=0; i < _csa.length; i++){\r\n            inProgress = abi.encodePacked(inProgress,serializeCurrencyStates(_csa[i]));\r\n        }\r\n        return inProgress;\r\n    }\r\n\r\n    function serializeCPBaaSNotarization(VerusObjectsNotarization.CPBaaSNotarization memory _not) public pure returns(bytes memory){\r\n        return abi.encodePacked(\r\n            writeVarInt(_not.version),\r\n            writeVarInt(_not.flags),\r\n            serializeCTransferDestination(_not.proposer),\r\n            serializeAddress(_not.currencyid),\r\n            serializeCCoinbaseCurrencyState(_not.currencystate),\r\n            serializeUint32(_not.notarizationheight),\r\n            serializeCUTXORef(_not.prevnotarization),\r\n            serializeBytes32(_not.hashprevnotarization),\r\n            serializeUint32(_not.prevheight),\r\n            serializeCurrencyStatesArray(_not.currencystates),\r\n            serializeCProofRootArray(_not.proofroots),\r\n            serializeNodes(_not.nodes)\r\n        );\r\n    }\r\n    \r\n    function serializeNodes(VerusObjectsNotarization.CNodeData[] memory _cnds) public pure returns(bytes memory){\r\n        bytes memory inProgress;\r\n        inProgress = writeCompactSize(_cnds.length);\r\n        for(uint i=0; i < _cnds.length; i++){\r\n            inProgress = abi.encodePacked(inProgress,serializeCNodeData(_cnds[i]));\r\n        }\r\n        return inProgress;\r\n    }\r\n\r\n    function serializeCNodeData(VerusObjectsNotarization.CNodeData memory _cnd) public pure returns(bytes memory){\r\n        \r\n        return abi.encodePacked(\r\n            serializeString(_cnd.networkaddress),\r\n            serializeAddress(_cnd.nodeidentity)\r\n        );\r\n    }\r\n\r\n    function serializeCCrossChainExport(VerusObjects.CCrossChainExport memory _ccce) public pure returns(bytes memory){\r\n        bytes memory part1 = abi.encodePacked(\r\n            serializeUint16(_ccce.version),\r\n            serializeUint16(_ccce.flags),\r\n            serializeAddress(_ccce.sourcesystemid),\r\n            flipArray(serializeBytes32(_ccce.hashtransfers)),\r\n            serializeAddress(_ccce.destinationsystemid),\r\n            serializeAddress(_ccce.destinationcurrencyid));\r\n        bytes memory part2 = abi.encodePacked(\r\n            writeVarInt(_ccce.sourceheightstart),\r\n            writeVarInt(_ccce.sourceheightend),\r\n            serializeUint32(_ccce.numinputs),\r\n            serializeCCurrencyValueMaps(_ccce.totalamounts),\r\n            serializeCCurrencyValueMaps(_ccce.totalfees),\r\n            serializeCCurrencyValueMaps(_ccce.totalburned),\r\n            serializeCTransferDestination(_ccce.rewardaddress),\r\n            serializeInt32(_ccce.firstinput),bytes1(0x00));\r\n        return abi.encodePacked(part1,part2);\r\n    }\r\n\r\n    function flipArray(bytes memory incoming) public pure returns(bytes memory){\r\n        uint256 len;\r\n        len = incoming.length;\r\n        bytes memory output = new bytes(len);\r\n        uint256 pos = 0;\r\n        while(pos < len){\r\n            output[pos] = incoming[len - pos - 1];\r\n            pos++;\r\n        }\r\n        return output;\r\n    }\r\n\r\n}",
  "sourcePath": "D:\\dev\\Ethereum-verus-notarisation\\contracts\\VerusBridge\\VerusSerializer.sol",
  "compiler": {
    "name": "solc",
    "version": "0.7.6+commit.7338295f.Emscripten.clang"
  },
  "schemaVersion": "3.4.3",
  "updatedAt": "2022-02-08T08:21:21.842Z",
  "networkType": "ethereum",
  "devdoc": {
    "kind": "dev",
    "methods": {},
    "version": 1
  },
  "userdoc": {
    "kind": "user",
    "methods": {},
    "version": 1
  }
}