{
  "contractName": "VerusNotarizer",
  "abi": [
    {
      "inputs": [
        {
          "internalType": "address",
          "name": "_verusBLAKE2bAddress",
          "type": "address"
        },
        {
          "internalType": "address",
          "name": "_verusSerializerAddress",
          "type": "address"
        },
        {
          "internalType": "address[]",
          "name": "_notaries",
          "type": "address[]"
        },
        {
          "internalType": "address[]",
          "name": "_notariesEthAddress",
          "type": "address[]"
        }
      ],
      "stateMutability": "nonpayable",
      "type": "constructor"
    },
    {
      "anonymous": false,
      "inputs": [
        {
          "indexed": false,
          "internalType": "address",
          "name": "newAddress",
          "type": "address"
        }
      ],
      "name": "Deprecate",
      "type": "event"
    },
    {
      "anonymous": false,
      "inputs": [
        {
          "components": [
            {
              "internalType": "uint32",
              "name": "version",
              "type": "uint32"
            },
            {
              "internalType": "uint32",
              "name": "flags",
              "type": "uint32"
            },
            {
              "components": [
                {
                  "internalType": "uint8",
                  "name": "destinationtype",
                  "type": "uint8"
                },
                {
                  "internalType": "address",
                  "name": "destinationaddress",
                  "type": "address"
                }
              ],
              "internalType": "struct VerusObjectsCommon.CTransferDestination",
              "name": "proposer",
              "type": "tuple"
            },
            {
              "internalType": "address",
              "name": "currencyid",
              "type": "address"
            },
            {
              "components": [
                {
                  "internalType": "uint16",
                  "name": "version",
                  "type": "uint16"
                },
                {
                  "internalType": "uint16",
                  "name": "flags",
                  "type": "uint16"
                },
                {
                  "internalType": "address",
                  "name": "currencyid",
                  "type": "address"
                },
                {
                  "internalType": "uint160[]",
                  "name": "currencies",
                  "type": "uint160[]"
                },
                {
                  "internalType": "int32[]",
                  "name": "weights",
                  "type": "int32[]"
                },
                {
                  "internalType": "int64[]",
                  "name": "reserves",
                  "type": "int64[]"
                },
                {
                  "internalType": "int64",
                  "name": "initialsupply",
                  "type": "int64"
                },
                {
                  "internalType": "int64",
                  "name": "emitted",
                  "type": "int64"
                },
                {
                  "internalType": "int64",
                  "name": "supply",
                  "type": "int64"
                },
                {
                  "internalType": "int64",
                  "name": "primarycurrencyout",
                  "type": "int64"
                },
                {
                  "internalType": "int64",
                  "name": "preconvertedout",
                  "type": "int64"
                },
                {
                  "internalType": "int64",
                  "name": "primarycurrencyfees",
                  "type": "int64"
                },
                {
                  "internalType": "int64",
                  "name": "primarycurrencyconversionfees",
                  "type": "int64"
                },
                {
                  "internalType": "int64[]",
                  "name": "reservein",
                  "type": "int64[]"
                },
                {
                  "internalType": "int64[]",
                  "name": "primarycurrencyin",
                  "type": "int64[]"
                },
                {
                  "internalType": "int64[]",
                  "name": "reserveout",
                  "type": "int64[]"
                },
                {
                  "internalType": "int64[]",
                  "name": "conversionprice",
                  "type": "int64[]"
                },
                {
                  "internalType": "int64[]",
                  "name": "viaconversionprice",
                  "type": "int64[]"
                },
                {
                  "internalType": "int64[]",
                  "name": "fees",
                  "type": "int64[]"
                },
                {
                  "internalType": "int32[]",
                  "name": "priorweights",
                  "type": "int32[]"
                },
                {
                  "internalType": "int64[]",
                  "name": "conversionfees",
                  "type": "int64[]"
                }
              ],
              "internalType": "struct VerusObjectsNotarization.CCoinbaseCurrencyState",
              "name": "currencystate",
              "type": "tuple"
            },
            {
              "internalType": "uint32",
              "name": "notarizationheight",
              "type": "uint32"
            },
            {
              "components": [
                {
                  "internalType": "bytes32",
                  "name": "hash",
                  "type": "bytes32"
                },
                {
                  "internalType": "uint32",
                  "name": "n",
                  "type": "uint32"
                }
              ],
              "internalType": "struct VerusObjectsNotarization.CUTXORef",
              "name": "prevnotarization",
              "type": "tuple"
            },
            {
              "internalType": "bytes32",
              "name": "hashprevnotarization",
              "type": "bytes32"
            },
            {
              "internalType": "uint32",
              "name": "prevheight",
              "type": "uint32"
            },
            {
              "components": [
                {
                  "internalType": "address",
                  "name": "currencyid",
                  "type": "address"
                },
                {
                  "components": [
                    {
                      "internalType": "uint16",
                      "name": "version",
                      "type": "uint16"
                    },
                    {
                      "internalType": "uint16",
                      "name": "flags",
                      "type": "uint16"
                    },
                    {
                      "internalType": "address",
                      "name": "currencyid",
                      "type": "address"
                    },
                    {
                      "internalType": "uint160[]",
                      "name": "currencies",
                      "type": "uint160[]"
                    },
                    {
                      "internalType": "int32[]",
                      "name": "weights",
                      "type": "int32[]"
                    },
                    {
                      "internalType": "int64[]",
                      "name": "reserves",
                      "type": "int64[]"
                    },
                    {
                      "internalType": "int64",
                      "name": "initialsupply",
                      "type": "int64"
                    },
                    {
                      "internalType": "int64",
                      "name": "emitted",
                      "type": "int64"
                    },
                    {
                      "internalType": "int64",
                      "name": "supply",
                      "type": "int64"
                    },
                    {
                      "internalType": "int64",
                      "name": "primarycurrencyout",
                      "type": "int64"
                    },
                    {
                      "internalType": "int64",
                      "name": "preconvertedout",
                      "type": "int64"
                    },
                    {
                      "internalType": "int64",
                      "name": "primarycurrencyfees",
                      "type": "int64"
                    },
                    {
                      "internalType": "int64",
                      "name": "primarycurrencyconversionfees",
                      "type": "int64"
                    },
                    {
                      "internalType": "int64[]",
                      "name": "reservein",
                      "type": "int64[]"
                    },
                    {
                      "internalType": "int64[]",
                      "name": "primarycurrencyin",
                      "type": "int64[]"
                    },
                    {
                      "internalType": "int64[]",
                      "name": "reserveout",
                      "type": "int64[]"
                    },
                    {
                      "internalType": "int64[]",
                      "name": "conversionprice",
                      "type": "int64[]"
                    },
                    {
                      "internalType": "int64[]",
                      "name": "viaconversionprice",
                      "type": "int64[]"
                    },
                    {
                      "internalType": "int64[]",
                      "name": "fees",
                      "type": "int64[]"
                    },
                    {
                      "internalType": "int32[]",
                      "name": "priorweights",
                      "type": "int32[]"
                    },
                    {
                      "internalType": "int64[]",
                      "name": "conversionfees",
                      "type": "int64[]"
                    }
                  ],
                  "internalType": "struct VerusObjectsNotarization.CCoinbaseCurrencyState",
                  "name": "currencystate",
                  "type": "tuple"
                }
              ],
              "internalType": "struct VerusObjectsNotarization.CurrencyStates[]",
              "name": "currencystates",
              "type": "tuple[]"
            },
            {
              "components": [
                {
                  "internalType": "int16",
                  "name": "version",
                  "type": "int16"
                },
                {
                  "internalType": "int16",
                  "name": "cprtype",
                  "type": "int16"
                },
                {
                  "internalType": "address",
                  "name": "systemid",
                  "type": "address"
                },
                {
                  "internalType": "uint32",
                  "name": "rootheight",
                  "type": "uint32"
                },
                {
                  "internalType": "bytes32",
                  "name": "stateroot",
                  "type": "bytes32"
                },
                {
                  "internalType": "bytes32",
                  "name": "blockhash",
                  "type": "bytes32"
                },
                {
                  "internalType": "bytes32",
                  "name": "compactpower",
                  "type": "bytes32"
                }
              ],
              "internalType": "struct VerusObjectsNotarization.CProofRoot[]",
              "name": "proofroots",
              "type": "tuple[]"
            },
            {
              "components": [
                {
                  "internalType": "string",
                  "name": "networkaddress",
                  "type": "string"
                },
                {
                  "internalType": "address",
                  "name": "nodeidentity",
                  "type": "address"
                }
              ],
              "internalType": "struct VerusObjectsNotarization.CNodeData[]",
              "name": "nodes",
              "type": "tuple[]"
            }
          ],
          "indexed": false,
          "internalType": "struct VerusObjectsNotarization.CPBaaSNotarization",
          "name": "",
          "type": "tuple"
        },
        {
          "indexed": false,
          "internalType": "uint32",
          "name": "notarizedDataHeight",
          "type": "uint32"
        }
      ],
      "name": "NewBlock",
      "type": "event"
    },
    {
      "inputs": [
        {
          "internalType": "uint256",
          "name": "",
          "type": "uint256"
        }
      ],
      "name": "blockHeights",
      "outputs": [
        {
          "internalType": "uint32",
          "name": "",
          "type": "uint32"
        }
      ],
      "stateMutability": "view",
      "type": "function",
      "constant": true
    },
    {
      "inputs": [],
      "name": "deprecated",
      "outputs": [
        {
          "internalType": "bool",
          "name": "",
          "type": "bool"
        }
      ],
      "stateMutability": "view",
      "type": "function",
      "constant": true
    },
    {
      "inputs": [
        {
          "internalType": "address",
          "name": "",
          "type": "address"
        }
      ],
      "name": "komodoNotaries",
      "outputs": [
        {
          "internalType": "bool",
          "name": "",
          "type": "bool"
        }
      ],
      "stateMutability": "view",
      "type": "function",
      "constant": true
    },
    {
      "inputs": [],
      "name": "lastBlockHeight",
      "outputs": [
        {
          "internalType": "uint32",
          "name": "",
          "type": "uint32"
        }
      ],
      "stateMutability": "view",
      "type": "function",
      "constant": true
    },
    {
      "inputs": [
        {
          "internalType": "uint32",
          "name": "",
          "type": "uint32"
        }
      ],
      "name": "notarizedProofRoots",
      "outputs": [
        {
          "internalType": "int16",
          "name": "version",
          "type": "int16"
        },
        {
          "internalType": "int16",
          "name": "cprtype",
          "type": "int16"
        },
        {
          "internalType": "address",
          "name": "systemid",
          "type": "address"
        },
        {
          "internalType": "uint32",
          "name": "rootheight",
          "type": "uint32"
        },
        {
          "internalType": "bytes32",
          "name": "stateroot",
          "type": "bytes32"
        },
        {
          "internalType": "bytes32",
          "name": "blockhash",
          "type": "bytes32"
        },
        {
          "internalType": "bytes32",
          "name": "compactpower",
          "type": "bytes32"
        }
      ],
      "stateMutability": "view",
      "type": "function",
      "constant": true
    },
    {
      "inputs": [
        {
          "internalType": "uint32",
          "name": "",
          "type": "uint32"
        }
      ],
      "name": "notarizedStateRoots",
      "outputs": [
        {
          "internalType": "bytes32",
          "name": "",
          "type": "bytes32"
        }
      ],
      "stateMutability": "view",
      "type": "function",
      "constant": true
    },
    {
      "inputs": [
        {
          "internalType": "address",
          "name": "",
          "type": "address"
        }
      ],
      "name": "notaryAddressMapping",
      "outputs": [
        {
          "internalType": "address",
          "name": "",
          "type": "address"
        }
      ],
      "stateMutability": "view",
      "type": "function",
      "constant": true
    },
    {
      "inputs": [
        {
          "internalType": "address",
          "name": "",
          "type": "address"
        }
      ],
      "name": "poolAvailable",
      "outputs": [
        {
          "internalType": "bool",
          "name": "",
          "type": "bool"
        }
      ],
      "stateMutability": "view",
      "type": "function",
      "constant": true
    },
    {
      "inputs": [],
      "name": "upgradedAddress",
      "outputs": [
        {
          "internalType": "address",
          "name": "",
          "type": "address"
        }
      ],
      "stateMutability": "view",
      "type": "function",
      "constant": true
    },
    {
      "inputs": [],
      "name": "getNotaries",
      "outputs": [
        {
          "internalType": "address[]",
          "name": "",
          "type": "address[]"
        }
      ],
      "stateMutability": "view",
      "type": "function",
      "constant": true
    },
    {
      "inputs": [
        {
          "internalType": "address",
          "name": "_notary",
          "type": "address"
        }
      ],
      "name": "isNotary",
      "outputs": [
        {
          "internalType": "bool",
          "name": "",
          "type": "bool"
        }
      ],
      "stateMutability": "view",
      "type": "function",
      "constant": true
    },
    {
      "inputs": [],
      "name": "currentNotariesRequired",
      "outputs": [
        {
          "internalType": "uint8",
          "name": "",
          "type": "uint8"
        }
      ],
      "stateMutability": "view",
      "type": "function",
      "constant": true
    },
    {
      "inputs": [
        {
          "internalType": "bytes32",
          "name": "_notarizedDataHash",
          "type": "bytes32"
        },
        {
          "internalType": "bytes32[]",
          "name": "_rs",
          "type": "bytes32[]"
        },
        {
          "internalType": "bytes32[]",
          "name": "_ss",
          "type": "bytes32[]"
        },
        {
          "internalType": "uint8[]",
          "name": "_vs",
          "type": "uint8[]"
        }
      ],
      "name": "isNotarized",
      "outputs": [
        {
          "internalType": "bool",
          "name": "",
          "type": "bool"
        }
      ],
      "stateMutability": "view",
      "type": "function",
      "constant": true
    },
    {
      "inputs": [
        {
          "components": [
            {
              "internalType": "uint32",
              "name": "version",
              "type": "uint32"
            },
            {
              "internalType": "uint32",
              "name": "flags",
              "type": "uint32"
            },
            {
              "components": [
                {
                  "internalType": "uint8",
                  "name": "destinationtype",
                  "type": "uint8"
                },
                {
                  "internalType": "address",
                  "name": "destinationaddress",
                  "type": "address"
                }
              ],
              "internalType": "struct VerusObjectsCommon.CTransferDestination",
              "name": "proposer",
              "type": "tuple"
            },
            {
              "internalType": "address",
              "name": "currencyid",
              "type": "address"
            },
            {
              "components": [
                {
                  "internalType": "uint16",
                  "name": "version",
                  "type": "uint16"
                },
                {
                  "internalType": "uint16",
                  "name": "flags",
                  "type": "uint16"
                },
                {
                  "internalType": "address",
                  "name": "currencyid",
                  "type": "address"
                },
                {
                  "internalType": "uint160[]",
                  "name": "currencies",
                  "type": "uint160[]"
                },
                {
                  "internalType": "int32[]",
                  "name": "weights",
                  "type": "int32[]"
                },
                {
                  "internalType": "int64[]",
                  "name": "reserves",
                  "type": "int64[]"
                },
                {
                  "internalType": "int64",
                  "name": "initialsupply",
                  "type": "int64"
                },
                {
                  "internalType": "int64",
                  "name": "emitted",
                  "type": "int64"
                },
                {
                  "internalType": "int64",
                  "name": "supply",
                  "type": "int64"
                },
                {
                  "internalType": "int64",
                  "name": "primarycurrencyout",
                  "type": "int64"
                },
                {
                  "internalType": "int64",
                  "name": "preconvertedout",
                  "type": "int64"
                },
                {
                  "internalType": "int64",
                  "name": "primarycurrencyfees",
                  "type": "int64"
                },
                {
                  "internalType": "int64",
                  "name": "primarycurrencyconversionfees",
                  "type": "int64"
                },
                {
                  "internalType": "int64[]",
                  "name": "reservein",
                  "type": "int64[]"
                },
                {
                  "internalType": "int64[]",
                  "name": "primarycurrencyin",
                  "type": "int64[]"
                },
                {
                  "internalType": "int64[]",
                  "name": "reserveout",
                  "type": "int64[]"
                },
                {
                  "internalType": "int64[]",
                  "name": "conversionprice",
                  "type": "int64[]"
                },
                {
                  "internalType": "int64[]",
                  "name": "viaconversionprice",
                  "type": "int64[]"
                },
                {
                  "internalType": "int64[]",
                  "name": "fees",
                  "type": "int64[]"
                },
                {
                  "internalType": "int32[]",
                  "name": "priorweights",
                  "type": "int32[]"
                },
                {
                  "internalType": "int64[]",
                  "name": "conversionfees",
                  "type": "int64[]"
                }
              ],
              "internalType": "struct VerusObjectsNotarization.CCoinbaseCurrencyState",
              "name": "currencystate",
              "type": "tuple"
            },
            {
              "internalType": "uint32",
              "name": "notarizationheight",
              "type": "uint32"
            },
            {
              "components": [
                {
                  "internalType": "bytes32",
                  "name": "hash",
                  "type": "bytes32"
                },
                {
                  "internalType": "uint32",
                  "name": "n",
                  "type": "uint32"
                }
              ],
              "internalType": "struct VerusObjectsNotarization.CUTXORef",
              "name": "prevnotarization",
              "type": "tuple"
            },
            {
              "internalType": "bytes32",
              "name": "hashprevnotarization",
              "type": "bytes32"
            },
            {
              "internalType": "uint32",
              "name": "prevheight",
              "type": "uint32"
            },
            {
              "components": [
                {
                  "internalType": "address",
                  "name": "currencyid",
                  "type": "address"
                },
                {
                  "components": [
                    {
                      "internalType": "uint16",
                      "name": "version",
                      "type": "uint16"
                    },
                    {
                      "internalType": "uint16",
                      "name": "flags",
                      "type": "uint16"
                    },
                    {
                      "internalType": "address",
                      "name": "currencyid",
                      "type": "address"
                    },
                    {
                      "internalType": "uint160[]",
                      "name": "currencies",
                      "type": "uint160[]"
                    },
                    {
                      "internalType": "int32[]",
                      "name": "weights",
                      "type": "int32[]"
                    },
                    {
                      "internalType": "int64[]",
                      "name": "reserves",
                      "type": "int64[]"
                    },
                    {
                      "internalType": "int64",
                      "name": "initialsupply",
                      "type": "int64"
                    },
                    {
                      "internalType": "int64",
                      "name": "emitted",
                      "type": "int64"
                    },
                    {
                      "internalType": "int64",
                      "name": "supply",
                      "type": "int64"
                    },
                    {
                      "internalType": "int64",
                      "name": "primarycurrencyout",
                      "type": "int64"
                    },
                    {
                      "internalType": "int64",
                      "name": "preconvertedout",
                      "type": "int64"
                    },
                    {
                      "internalType": "int64",
                      "name": "primarycurrencyfees",
                      "type": "int64"
                    },
                    {
                      "internalType": "int64",
                      "name": "primarycurrencyconversionfees",
                      "type": "int64"
                    },
                    {
                      "internalType": "int64[]",
                      "name": "reservein",
                      "type": "int64[]"
                    },
                    {
                      "internalType": "int64[]",
                      "name": "primarycurrencyin",
                      "type": "int64[]"
                    },
                    {
                      "internalType": "int64[]",
                      "name": "reserveout",
                      "type": "int64[]"
                    },
                    {
                      "internalType": "int64[]",
                      "name": "conversionprice",
                      "type": "int64[]"
                    },
                    {
                      "internalType": "int64[]",
                      "name": "viaconversionprice",
                      "type": "int64[]"
                    },
                    {
                      "internalType": "int64[]",
                      "name": "fees",
                      "type": "int64[]"
                    },
                    {
                      "internalType": "int32[]",
                      "name": "priorweights",
                      "type": "int32[]"
                    },
                    {
                      "internalType": "int64[]",
                      "name": "conversionfees",
                      "type": "int64[]"
                    }
                  ],
                  "internalType": "struct VerusObjectsNotarization.CCoinbaseCurrencyState",
                  "name": "currencystate",
                  "type": "tuple"
                }
              ],
              "internalType": "struct VerusObjectsNotarization.CurrencyStates[]",
              "name": "currencystates",
              "type": "tuple[]"
            },
            {
              "components": [
                {
                  "internalType": "int16",
                  "name": "version",
                  "type": "int16"
                },
                {
                  "internalType": "int16",
                  "name": "cprtype",
                  "type": "int16"
                },
                {
                  "internalType": "address",
                  "name": "systemid",
                  "type": "address"
                },
                {
                  "internalType": "uint32",
                  "name": "rootheight",
                  "type": "uint32"
                },
                {
                  "internalType": "bytes32",
                  "name": "stateroot",
                  "type": "bytes32"
                },
                {
                  "internalType": "bytes32",
                  "name": "blockhash",
                  "type": "bytes32"
                },
                {
                  "internalType": "bytes32",
                  "name": "compactpower",
                  "type": "bytes32"
                }
              ],
              "internalType": "struct VerusObjectsNotarization.CProofRoot[]",
              "name": "proofroots",
              "type": "tuple[]"
            },
            {
              "components": [
                {
                  "internalType": "string",
                  "name": "networkaddress",
                  "type": "string"
                },
                {
                  "internalType": "address",
                  "name": "nodeidentity",
                  "type": "address"
                }
              ],
              "internalType": "struct VerusObjectsNotarization.CNodeData[]",
              "name": "nodes",
              "type": "tuple[]"
            }
          ],
          "internalType": "struct VerusObjectsNotarization.CPBaaSNotarization",
          "name": "_pbaasNotarization",
          "type": "tuple"
        },
        {
          "internalType": "uint8[]",
          "name": "_vs",
          "type": "uint8[]"
        },
        {
          "internalType": "bytes32[]",
          "name": "_rs",
          "type": "bytes32[]"
        },
        {
          "internalType": "bytes32[]",
          "name": "_ss",
          "type": "bytes32[]"
        },
        {
          "internalType": "uint32[]",
          "name": "blockheights",
          "type": "uint32[]"
        },
        {
          "internalType": "address[]",
          "name": "notaryAddress",
          "type": "address[]"
        }
      ],
      "name": "setLatestData",
      "outputs": [
        {
          "internalType": "bool",
          "name": "output",
          "type": "bool"
        }
      ],
      "stateMutability": "nonpayable",
      "type": "function"
    },
    {
      "inputs": [
        {
          "internalType": "bytes32",
          "name": "_h",
          "type": "bytes32"
        },
        {
          "internalType": "uint8",
          "name": "_v",
          "type": "uint8"
        },
        {
          "internalType": "bytes32",
          "name": "_r",
          "type": "bytes32"
        },
        {
          "internalType": "bytes32",
          "name": "_s",
          "type": "bytes32"
        }
      ],
      "name": "recoverSigner",
      "outputs": [
        {
          "internalType": "address",
          "name": "",
          "type": "address"
        }
      ],
      "stateMutability": "pure",
      "type": "function",
      "constant": true
    },
    {
      "inputs": [],
      "name": "numNotarizedBlocks",
      "outputs": [
        {
          "internalType": "uint256",
          "name": "",
          "type": "uint256"
        }
      ],
      "stateMutability": "view",
      "type": "function",
      "constant": true
    },
    {
      "inputs": [],
      "name": "getLastProofRoot",
      "outputs": [
        {
          "components": [
            {
              "internalType": "int16",
              "name": "version",
              "type": "int16"
            },
            {
              "internalType": "int16",
              "name": "cprtype",
              "type": "int16"
            },
            {
              "internalType": "address",
              "name": "systemid",
              "type": "address"
            },
            {
              "internalType": "uint32",
              "name": "rootheight",
              "type": "uint32"
            },
            {
              "internalType": "bytes32",
              "name": "stateroot",
              "type": "bytes32"
            },
            {
              "internalType": "bytes32",
              "name": "blockhash",
              "type": "bytes32"
            },
            {
              "internalType": "bytes32",
              "name": "compactpower",
              "type": "bytes32"
            }
          ],
          "internalType": "struct VerusObjectsNotarization.CProofRoot",
          "name": "",
          "type": "tuple"
        }
      ],
      "stateMutability": "view",
      "type": "function",
      "constant": true
    },
    {
      "inputs": [
        {
          "internalType": "address",
          "name": "_upgradedAddress",
          "type": "address"
        },
        {
          "internalType": "bytes32",
          "name": "_addressHash",
          "type": "bytes32"
        },
        {
          "internalType": "uint8[]",
          "name": "_vs",
          "type": "uint8[]"
        },
        {
          "internalType": "bytes32[]",
          "name": "_rs",
          "type": "bytes32[]"
        },
        {
          "internalType": "bytes32[]",
          "name": "_ss",
          "type": "bytes32[]"
        }
      ],
      "name": "notarizedDeprecation",
      "outputs": [
        {
          "internalType": "bool",
          "name": "",
          "type": "bool"
        }
      ],
      "stateMutability": "view",
      "type": "function",
      "constant": true
    },
    {
      "inputs": [
        {
          "internalType": "address",
          "name": "_upgradedAddress",
          "type": "address"
        },
        {
          "internalType": "bytes32",
          "name": "_addressHash",
          "type": "bytes32"
        },
        {
          "internalType": "uint8[]",
          "name": "_vs",
          "type": "uint8[]"
        },
        {
          "internalType": "bytes32[]",
          "name": "_rs",
          "type": "bytes32[]"
        },
        {
          "internalType": "bytes32[]",
          "name": "_ss",
          "type": "bytes32[]"
        }
      ],
      "name": "deprecate",
      "outputs": [],
      "stateMutability": "nonpayable",
      "type": "function"
    }
  ],
  "bytecode": "0x6080604052600d600060196101000a81548160ff021916908360ff16021790555073367eaadd291e1976abc446a143f83c2d4d2c5a8460601b600360006101000a81548173ffffffffffffffffffffffffffffffffffffffff021916908360601c02179055503480156200007257600080fd5b50604051620043283803806200432883398181016040528101906200009891906200040b565b82600260006101000a81548173ffffffffffffffffffffffffffffffffffffffff021916908373ffffffffffffffffffffffffffffffffffffffff16021790555083600160006101000a81548173ffffffffffffffffffffffffffffffffffffffff021916908373ffffffffffffffffffffffffffffffffffffffff16021790555060008060046101000a81548160ff0219169083151502179055506000600b60006101000a81548160ff021916908360ff16021790555060008060006101000a81548163ffffffff021916908363ffffffff16021790555060005b825181101562000347576001600460008584815181106200019157fe5b602002602001015173ffffffffffffffffffffffffffffffffffffffff1673ffffffffffffffffffffffffffffffffffffffff16815260200190815260200160002060006101000a81548160ff021916908315150217905550818181518110620001f757fe5b6020026020010151600560008584815181106200021057fe5b602002602001015173ffffffffffffffffffffffffffffffffffffffff1673ffffffffffffffffffffffffffffffffffffffff16815260200190815260200160002060006101000a81548173ffffffffffffffffffffffffffffffffffffffff021916908373ffffffffffffffffffffffffffffffffffffffff16021790555060068382815181106200029f57fe5b60200260200101519080600181540180825580915050600190039060005260206000200160009091909190916101000a81548173ffffffffffffffffffffffffffffffffffffffff021916908373ffffffffffffffffffffffffffffffffffffffff160217905550600b600081819054906101000a900460ff168092919060010191906101000a81548160ff021916908360ff16021790555050808060010191505062000174565b50505050506200055c565b6000620003696200036384620004dd565b620004a9565b905080838252602082019050828560208602820111156200038957600080fd5b60005b85811015620003bd5781620003a28882620003c7565b8452602084019350602083019250506001810190506200038c565b5050509392505050565b600081519050620003d88162000542565b92915050565b600082601f830112620003f057600080fd5b81516200040284826020860162000352565b91505092915050565b600080600080608085870312156200042257600080fd5b60006200043287828801620003c7565b94505060206200044587828801620003c7565b935050604085015167ffffffffffffffff8111156200046357600080fd5b6200047187828801620003de565b925050606085015167ffffffffffffffff8111156200048f57600080fd5b6200049d87828801620003de565b91505092959194509250565b6000604051905081810181811067ffffffffffffffff82111715620004d357620004d262000540565b5b8060405250919050565b600067ffffffffffffffff821115620004fb57620004fa62000540565b5b602082029050602081019050919050565b6000620005198262000520565b9050919050565b600073ffffffffffffffffffffffffffffffffffffffff82169050919050565bfe5b6200054d816200050c565b81146200055957600080fd5b50565b613dbc806200056c6000396000f3fe608060405234801561001057600080fd5b50600436106101215760003560e01c806392a31082116100ad578063d45167d011610071578063d45167d01461035e578063d4e032331461038e578063e7b3c875146103ac578063ec48ae3c146103dc578063f13eed97146103fa57610121565b806392a310821461027a578063aaf34b94146102aa578063add21b3b146102c8578063b43fe1de146102fe578063b59de7061461032e57610121565b8063250dea53116100f4578063250dea53146101ae57806326976e3f146101de5780634b60ae63146101fc5780636e0808161461021a57806390ab64421461024a57610121565b80630bd4cec3146101265780630e136b191461015657806317c868751461017457806320cd6ba114610190575b600080fd5b610140600480360381019061013b9190612319565b61042a565b60405161014d9190613461565b60405180910390f35b61015e61044a565b60405161016b9190613461565b60405180910390f35b61018e60048036038101906101899190612342565b61045d565b005b61019861050a565b6040516101a591906136d0565b60405180910390f35b6101c860048036038101906101c39190612319565b6105ae565b6040516101d59190613424565b60405180910390f35b6101e66105e1565b6040516101f39190613424565b60405180910390f35b610204610607565b60405161021191906136b5565b60405180910390f35b610234600480360381019061022f9190612692565b61061b565b60405161024191906136b5565b60405180910390f35b610264600480360381019061025f919061242a565b610655565b6040516102719190613461565b60405180910390f35b610294600480360381019061028f9190612579565b61074a565b6040516102a19190613461565b60405180910390f35b6102b2610fc5565b6040516102bf919061343f565b60405180910390f35b6102e260048036038101906102dd91906126bb565b611053565b6040516102f597969594939291906134fe565b60405180910390f35b61031860048036038101906103139190612342565b6110df565b6040516103259190613461565b60405180910390f35b61034860048036038101906103439190612319565b611292565b6040516103559190613461565b60405180910390f35b610378600480360381019061037391906124d5565b6112b2565b6040516103859190613424565b60405180910390f35b610396611312565b6040516103a3919061367f565b60405180910390f35b6103c660048036038101906103c191906126bb565b61142e565b6040516103d3919061347c565b60405180910390f35b6103e4611446565b6040516103f1919061369a565b60405180910390f35b610414600480360381019061040f9190612319565b611453565b6040516104219190613461565b60405180910390f35b60096020528060005260406000206000915054906101000a900460ff1681565b600060049054906101000a900460ff1681565b61046a85858585856110df565b15610503576001600060046101000a81548160ff02191690831515021790555084600060056101000a81548173ffffffffffffffffffffffffffffffffffffffff021916908373ffffffffffffffffffffffffffffffffffffffff1602179055507fcc358699805e9a8b7f77b522628c7cb9abd07d9efb86b6fb616af1609036a99e856040516104fa9190613424565b60405180910390a15b5050505050565b60006001600b60009054906101000a900460ff1660ff16148061053f57506002600b60009054906101000a900460ff1660ff16145b1561054d57600190506105ab565b600060016002600b60009054906101000a900460ff1660ff168161056d57fe5b040160ff169050600060199054906101000a900460ff1660ff168111156105a657600060199054906101000a900460ff169150506105ab565b809150505b90565b60056020528060005260406000206000915054906101000a900473ffffffffffffffffffffffffffffffffffffffff1681565b600060059054906101000a900473ffffffffffffffffffffffffffffffffffffffff1681565b60008054906101000a900463ffffffff1681565b600a818154811061062b57600080fd5b9060005260206000209060089182820401919006600402915054906101000a900463ffffffff1681565b6000806000805b8651811015610714576106aa8886838151811061067557fe5b602002602001015189848151811061068957fe5b602002602001015189858151811061069d57fe5b60200260200101516112b2565b9250600460008473ffffffffffffffffffffffffffffffffffffffff1673ffffffffffffffffffffffffffffffffffffffff16815260200190815260200160002060009054906101000a900460ff16156107075781806001019250505b808060010191505061065c565b50600061071f61050a565b90508060ff168260ff161061073a5760019350505050610742565b600093505050505b949350505050565b60008060049054906101000a900460ff161561079b576040517f08c379a00000000000000000000000000000000000000000000000000000000081526004016107929061358d565b60405180910390fd5b835185511480156107ad575085518551145b6107ec576040517f08c379a00000000000000000000000000000000000000000000000000000000081526004016107e3906135cd565b60405180910390fd5b60008054906101000a900463ffffffff1663ffffffff168760a0015163ffffffff161161084e576040517f08c379a0000000000000000000000000000000000000000000000000000000008152600401610845906135ed565b60405180910390fd5b6000600260009054906101000a900473ffffffffffffffffffffffffffffffffffffffff1673ffffffffffffffffffffffffffffffffffffffff1663892e2937896040518263ffffffff1660e01b81526004016108ab919061362d565b60006040518083038186803b1580156108c357600080fd5b505afa1580156108d7573d6000803e3d6000fd5b505050506040513d6000823e3d601f19601f820116820180604052508101906109009190612538565b90506000806000606060005b8851811015610b91576001600360009054906101000a900460601b73a6ef9ea235635e328124ff3429db9f9e91b64e2d600260009054906101000a900473ffffffffffffffffffffffffffffffffffffffff1673ffffffffffffffffffffffffffffffffffffffff1663cecb30438d868151811061098657fe5b60200260200101516040518263ffffffff1660e01b81526004016109aa91906136b5565b60006040518083038186803b1580156109c257600080fd5b505afa1580156109d6573d6000803e3d6000fd5b505050506040513d6000823e3d601f19601f820116820180604052508101906109ff9190612538565b8b8581518110610a0b57fe5b60200260200101518a80519060200120604051602001610a2b91906133a1565b604051602081830303815290604052604051602001610a4f969594939291906133bc565b604051602081830303815290604052915081805190602001209450610ab28560048e8481518110610a7c57fe5b6020026020010151038d8481518110610a9157fe5b60200260200101518d8581518110610aa557fe5b60200260200101516112b2565b935060056000898381518110610ac457fe5b602002602001015173ffffffffffffffffffffffffffffffffffffffff1673ffffffffffffffffffffffffffffffffffffffff16815260200190815260200160002060009054906101000a900473ffffffffffffffffffffffffffffffffffffffff1673ffffffffffffffffffffffffffffffffffffffff168473ffffffffffffffffffffffffffffffffffffffff161415610b635782806001019350505b600060199054906101000a900460ff1660ff168360ff1610610b8457610b91565b808060010191505061090c565b50610b9a61050a565b60ff168260ff1610610fb15760005b8c610120015151811015610cdb57603160358e61012001518381518110610bcc57fe5b602002602001015160200151602001511661ffff16148015610c545750600960008e61012001518381518110610bfe57fe5b60200260200101516000015173ffffffffffffffffffffffffffffffffffffffff1673ffffffffffffffffffffffffffffffffffffffff16815260200190815260200160002060009054906101000a900460ff16155b15610cce576001600960008f61012001518481518110610c7057fe5b60200260200101516000015173ffffffffffffffffffffffffffffffffffffffff1673ffffffffffffffffffffffffffffffffffffffff16815260200190815260200160002060006101000a81548160ff0219169083151502179055505b8080600101915050610ba9565b5060005b8c610140015151811015610f595773a6ef9ea235635e328124ff3429db9f9e91b64e2d73ffffffffffffffffffffffffffffffffffffffff168d61014001518281518110610d2957fe5b60200260200101516040015173ffffffffffffffffffffffffffffffffffffffff161415610f4c578c61014001518181518110610d6257fe5b602002602001015160800151600860008f60a0015163ffffffff1663ffffffff168152602001908152602001600020819055508c61014001518181518110610da657fe5b6020026020010151600760008f60a0015163ffffffff1663ffffffff16815260200190815260200160002060008201518160000160006101000a81548161ffff021916908360010b61ffff16021790555060208201518160000160026101000a81548161ffff021916908360010b61ffff16021790555060408201518160000160046101000a81548173ffffffffffffffffffffffffffffffffffffffff021916908373ffffffffffffffffffffffffffffffffffffffff16021790555060608201518160000160186101000a81548163ffffffff021916908363ffffffff1602179055506080820151816001015560a0820151816002015560c08201518160030155905050600a8d60a0015190806001815401808255809150506001900390600052602060002090600891828204019190066004029091909190916101000a81548163ffffffff021916908363ffffffff1602179055508c60a0015163ffffffff1660008054906101000a900463ffffffff1663ffffffff161015610f4b578c60a001516000806101000a81548163ffffffff021916908363ffffffff1602179055505b5b8080600101915050610cdf565b507f3c3d32b52a6aef5732cab1fbc27156fba0fa8570f7a72c63571cab9a3ff66dab8c60008054906101000a900463ffffffff16604051610f9b92919061364f565b60405180910390a1600195505050505050610fbb565b6000955050505050505b9695505050505050565b6060600680548060200260200160405190810160405280929190818152602001828054801561104957602002820191906000526020600020905b8160009054906101000a900473ffffffffffffffffffffffffffffffffffffffff1673ffffffffffffffffffffffffffffffffffffffff1681526020019060010190808311610fff575b5050505050905090565b60076020528060005260406000206000915090508060000160009054906101000a900460010b908060000160029054906101000a900460010b908060000160049054906101000a900473ffffffffffffffffffffffffffffffffffffffff16908060000160189054906101000a900463ffffffff16908060010154908060020154908060030154905087565b60006110ea33611453565b611129576040517f08c379a00000000000000000000000000000000000000000000000000000000081526004016111209061356d565b60405180910390fd5b6000600160009054906101000a900473ffffffffffffffffffffffffffffffffffffffff1673ffffffffffffffffffffffffffffffffffffffff16632cd0cff28860405160200161117a9190613386565b6040516020818303038152906040526040518263ffffffff1660e01b81526004016111a591906134dc565b60206040518083038186803b1580156111bd57600080fd5b505afa1580156111d1573d6000803e3d6000fd5b505050506040513d601f19601f820116820180604052508101906111f59190612401565b9050858114611239576040517f08c379a00000000000000000000000000000000000000000000000000000000081526004016112309061360d565b60405180910390fd5b61124586858588610655565b611284576040517f08c379a000000000000000000000000000000000000000000000000000000000815260040161127b906135ad565b60405180910390fd5b600191505095945050505050565b60046020528060005260406000206000915054906101000a900460ff1681565b600080600186868686604051600081526020016040526040516112d89493929190613497565b6020604051602081039080840390855afa1580156112fa573d6000803e3d6000fd5b50505060206040510351905080915050949350505050565b61131a6114c1565b600760008060009054906101000a900463ffffffff1663ffffffff1663ffffffff1681526020019081526020016000206040518060e00160405290816000820160009054906101000a900460010b60010b60010b81526020016000820160029054906101000a900460010b60010b60010b81526020016000820160049054906101000a900473ffffffffffffffffffffffffffffffffffffffff1673ffffffffffffffffffffffffffffffffffffffff1673ffffffffffffffffffffffffffffffffffffffff1681526020016000820160189054906101000a900463ffffffff1663ffffffff1663ffffffff1681526020016001820154815260200160028201548152602001600382015481525050905090565b60086020528060005260406000206000915090505481565b6000600a80549050905090565b600060011515600460008473ffffffffffffffffffffffffffffffffffffffff1673ffffffffffffffffffffffffffffffffffffffff16815260200190815260200160002060009054906101000a900460ff16151514156114b757600190506114bc565b600090505b919050565b6040518060e00160405280600060010b8152602001600060010b8152602001600073ffffffffffffffffffffffffffffffffffffffff168152602001600063ffffffff1681526020016000801916815260200160008019168152602001600080191681525090565b600061153c6115378461371c565b6136eb565b9050808382526020820190508285602086028201111561155b57600080fd5b60005b8581101561158b578161157188826119bf565b84526020840193506020830192505060018101905061155e565b5050509392505050565b60006115a86115a384613748565b6136eb565b905080838252602082019050828560208602820111156115c757600080fd5b60005b858110156115f757816115dd8882611b78565b8452602084019350602083019250506001810190506115ca565b5050509392505050565b600061161461160f84613774565b6136eb565b9050808382526020820190508285602086028201111561163357600080fd5b60005b8581101561166357816116498882611be1565b845260208401935060208301925050600181019050611636565b5050509392505050565b600061168061167b846137a0565b6136eb565b9050808382526020820190508285602086028201111561169f57600080fd5b60005b858110156116cf57816116b58882611bf6565b8452602084019350602083019250506001810190506116a2565b5050509392505050565b60006116ec6116e7846137cc565b6136eb565b9050808382526020820190508260005b8581101561172c57813585016117128882611f21565b8452602084019350602083019250506001810190506116fc565b5050509392505050565b6000611749611744846137f8565b6136eb565b905080838252602082019050828560e086028201111561176857600080fd5b60005b85811015611798578161177e8882612104565b845260208401935060e0830192505060018101905061176b565b5050509392505050565b60006117b56117b084613824565b6136eb565b9050808382526020820190508260005b858110156117f557813585016117db888261224c565b8452602084019350602083019250506001810190506117c5565b5050509392505050565b600061181261180d84613850565b6136eb565b9050808382526020820190508285602086028201111561183157600080fd5b60005b85811015611861578161184788826122c5565b845260208401935060208301925050600181019050611834565b5050509392505050565b600061187e6118798461387c565b6136eb565b9050808382526020820190508285602086028201111561189d57600080fd5b60005b858110156118cd57816118b388826122ef565b8452602084019350602083019250506001810190506118a0565b5050509392505050565b60006118ea6118e5846138a8565b6136eb565b9050808382526020820190508285602086028201111561190957600080fd5b60005b85811015611939578161191f8882612304565b84526020840193506020830192505060018101905061190c565b5050509392505050565b6000611956611951846138d4565b6136eb565b90508281526020810184848401111561196e57600080fd5b611979848285613bf6565b509392505050565b600061199461198f84613904565b6136eb565b9050828152602081018484840111156119ac57600080fd5b6119b7848285613be7565b509392505050565b6000813590506119ce81613ca0565b92915050565b600082601f8301126119e557600080fd5b81356119f5848260208601611529565b91505092915050565b600082601f830112611a0f57600080fd5b8135611a1f848260208601611595565b91505092915050565b600082601f830112611a3957600080fd5b8135611a49848260208601611601565b91505092915050565b600082601f830112611a6357600080fd5b8135611a7384826020860161166d565b91505092915050565b600082601f830112611a8d57600080fd5b8135611a9d8482602086016116d9565b91505092915050565b600082601f830112611ab757600080fd5b8135611ac7848260208601611736565b91505092915050565b600082601f830112611ae157600080fd5b8135611af18482602086016117a2565b91505092915050565b600082601f830112611b0b57600080fd5b8135611b1b8482602086016117ff565b91505092915050565b600082601f830112611b3557600080fd5b8135611b4584826020860161186b565b91505092915050565b600082601f830112611b5f57600080fd5b8135611b6f8482602086016118d7565b91505092915050565b600081359050611b8781613cb7565b92915050565b600081519050611b9c81613cb7565b92915050565b600082601f830112611bb357600080fd5b8151611bc3848260208601611943565b91505092915050565b600081359050611bdb81613cce565b92915050565b600081359050611bf081613ce5565b92915050565b600081359050611c0581613cfc565b92915050565b600082601f830112611c1c57600080fd5b8135611c2c848260208601611981565b91505092915050565b60006102a08284031215611c4857600080fd5b611c536102a06136eb565b90506000611c63848285016122b0565b6000830152506020611c77848285016122b0565b6020830152506040611c8b848285016119bf565b604083015250606082013567ffffffffffffffff811115611cab57600080fd5b611cb784828501611afa565b606083015250608082013567ffffffffffffffff811115611cd757600080fd5b611ce384828501611a28565b60808301525060a082013567ffffffffffffffff811115611d0357600080fd5b611d0f84828501611a52565b60a08301525060c0611d2384828501611bf6565b60c08301525060e0611d3784828501611bf6565b60e083015250610100611d4c84828501611bf6565b61010083015250610120611d6284828501611bf6565b61012083015250610140611d7884828501611bf6565b61014083015250610160611d8e84828501611bf6565b61016083015250610180611da484828501611bf6565b610180830152506101a082013567ffffffffffffffff811115611dc657600080fd5b611dd284828501611a52565b6101a0830152506101c082013567ffffffffffffffff811115611df457600080fd5b611e0084828501611a52565b6101c0830152506101e082013567ffffffffffffffff811115611e2257600080fd5b611e2e84828501611a52565b6101e08301525061020082013567ffffffffffffffff811115611e5057600080fd5b611e5c84828501611a52565b6102008301525061022082013567ffffffffffffffff811115611e7e57600080fd5b611e8a84828501611a52565b6102208301525061024082013567ffffffffffffffff811115611eac57600080fd5b611eb884828501611a52565b6102408301525061026082013567ffffffffffffffff811115611eda57600080fd5b611ee684828501611a28565b6102608301525061028082013567ffffffffffffffff811115611f0857600080fd5b611f1484828501611a52565b6102808301525092915050565b600060408284031215611f3357600080fd5b611f3d60406136eb565b9050600082013567ffffffffffffffff811115611f5957600080fd5b611f6584828501611c0b565b6000830152506020611f79848285016119bf565b60208301525092915050565b60006101c08284031215611f9857600080fd5b611fa36101806136eb565b90506000611fb3848285016122ef565b6000830152506020611fc7848285016122ef565b6020830152506040611fdb848285016121b4565b6040830152506080611fef848285016119bf565b60608301525060a082013567ffffffffffffffff81111561200f57600080fd5b61201b84828501611c35565b60808301525060c061202f848285016122ef565b60a08301525060e061204384828501612200565b60c08301525061012061205884828501611b78565b60e08301525061014061206d848285016122ef565b6101008301525061016082013567ffffffffffffffff81111561208f57600080fd5b61209b84828501611ad0565b6101208301525061018082013567ffffffffffffffff8111156120bd57600080fd5b6120c984828501611aa6565b610140830152506101a082013567ffffffffffffffff8111156120eb57600080fd5b6120f784828501611a7c565b6101608301525092915050565b600060e0828403121561211657600080fd5b61212060e06136eb565b9050600061213084828501611bcc565b600083015250602061214484828501611bcc565b6020830152506040612158848285016119bf565b604083015250606061216c848285016122ef565b606083015250608061218084828501611b78565b60808301525060a061219484828501611b78565b60a08301525060c06121a884828501611b78565b60c08301525092915050565b6000604082840312156121c657600080fd5b6121d060406136eb565b905060006121e084828501612304565b60008301525060206121f4848285016119bf565b60208301525092915050565b60006040828403121561221257600080fd5b61221c60406136eb565b9050600061222c84828501611b78565b6000830152506020612240848285016122ef565b60208301525092915050565b60006040828403121561225e57600080fd5b61226860406136eb565b90506000612278848285016119bf565b600083015250602082013567ffffffffffffffff81111561229857600080fd5b6122a484828501611c35565b60208301525092915050565b6000813590506122bf81613d13565b92915050565b6000813590506122d481613d2a565b92915050565b6000813590506122e981613d41565b92915050565b6000813590506122fe81613d58565b92915050565b60008135905061231381613d6f565b92915050565b60006020828403121561232b57600080fd5b6000612339848285016119bf565b91505092915050565b600080600080600060a0868803121561235a57600080fd5b6000612368888289016119bf565b955050602061237988828901611b78565b945050604086013567ffffffffffffffff81111561239657600080fd5b6123a288828901611b4e565b935050606086013567ffffffffffffffff8111156123bf57600080fd5b6123cb888289016119fe565b925050608086013567ffffffffffffffff8111156123e857600080fd5b6123f4888289016119fe565b9150509295509295909350565b60006020828403121561241357600080fd5b600061242184828501611b8d565b91505092915050565b6000806000806080858703121561244057600080fd5b600061244e87828801611b78565b945050602085013567ffffffffffffffff81111561246b57600080fd5b612477878288016119fe565b935050604085013567ffffffffffffffff81111561249457600080fd5b6124a0878288016119fe565b925050606085013567ffffffffffffffff8111156124bd57600080fd5b6124c987828801611b4e565b91505092959194509250565b600080600080608085870312156124eb57600080fd5b60006124f987828801611b78565b945050602061250a87828801612304565b935050604061251b87828801611b78565b925050606061252c87828801611b78565b91505092959194509250565b60006020828403121561254a57600080fd5b600082015167ffffffffffffffff81111561256457600080fd5b61257084828501611ba2565b91505092915050565b60008060008060008060c0878903121561259257600080fd5b600087013567ffffffffffffffff8111156125ac57600080fd5b6125b889828a01611f85565b965050602087013567ffffffffffffffff8111156125d557600080fd5b6125e189828a01611b4e565b955050604087013567ffffffffffffffff8111156125fe57600080fd5b61260a89828a016119fe565b945050606087013567ffffffffffffffff81111561262757600080fd5b61263389828a016119fe565b935050608087013567ffffffffffffffff81111561265057600080fd5b61265c89828a01611b24565b92505060a087013567ffffffffffffffff81111561267957600080fd5b61268589828a016119d4565b9150509295509295509295565b6000602082840312156126a457600080fd5b60006126b2848285016122da565b91505092915050565b6000602082840312156126cd57600080fd5b60006126db848285016122ef565b91505092915050565b60006126f08383612784565b60208301905092915050565b60006127088383612b5c565b60208301905092915050565b60006127208383612b6b565b60208301905092915050565b60006127388383612ff8565b905092915050565b600061274c838361314f565b60e08301905092915050565b600061276483836132c9565b905092915050565b60006127788383613306565b60208301905092915050565b61278d81613b17565b82525050565b61279c81613b17565b82525050565b6127b36127ae82613b17565b613c29565b82525050565b60006127c4826139a4565b6127ce8185613a62565b93506127d983613934565b8060005b8381101561280a5781516127f188826126e4565b97506127fc83613a07565b9250506001810190506127dd565b5085935050505092915050565b6000612822826139af565b61282c8185613a73565b935061283783613944565b8060005b8381101561286857815161284f88826126fc565b975061285a83613a14565b92505060018101905061283b565b5085935050505092915050565b6000612880826139ba565b61288a8185613a84565b935061289583613954565b8060005b838110156128c65781516128ad8882612714565b97506128b883613a21565b925050600181019050612899565b5085935050505092915050565b60006128de826139c5565b6128e88185613a95565b9350836020820285016128fa85613964565b8060005b858110156129365784840389528151612917858261272c565b945061292283613a2e565b925060208a019950506001810190506128fe565b50829750879550505050505092915050565b6000612953826139d0565b61295d8185613aa6565b935061296883613974565b8060005b838110156129995781516129808882612740565b975061298b83613a3b565b92505060018101905061296c565b5085935050505092915050565b60006129b1826139db565b6129bb8185613ab7565b9350836020820285016129cd85613984565b8060005b85811015612a0957848403895281516129ea8582612758565b94506129f583613a48565b925060208a019950506001810190506129d1565b50829750879550505050505092915050565b6000612a26826139e6565b612a308185613ac8565b9350612a3b83613994565b8060005b83811015612a6c578151612a53888261276c565b9750612a5e83613a55565b925050600181019050612a3f565b5085935050505092915050565b612a8281613b29565b82525050565b612a99612a9482613b35565b613c3b565b82525050565b612aa881613b61565b82525050565b612ab781613b61565b82525050565b612ace612ac982613b61565b613c45565b82525050565b6000612adf826139f1565b612ae98185613ad9565b9350612af9818560208601613bf6565b612b0281613c75565b840191505092915050565b6000612b18826139f1565b612b228185613aea565b9350612b32818560208601613bf6565b80840191505092915050565b612b4781613b6b565b82525050565b612b5681613b6b565b82525050565b612b6581613b78565b82525050565b612b7481613b85565b82525050565b6000612b85826139fc565b612b8f8185613af5565b9350612b9f818560208601613bf6565b612ba881613c75565b840191505092915050565b6000612bc0602983613b06565b91507f4f6e6c792061206e6f746172792063616e20646570726563617465207468697360008301527f20636f6e747261637400000000000000000000000000000000000000000000006020830152604082019050919050565b6000612c26601c83613b06565b91507f436f6e747261637420686173206265656e2064657072656361746564000000006000830152602082019050919050565b6000612c66603083613b06565b91507f4465707265636174696f6e20726571756972657320746865206164647265737360008301527f20746f206265206e6f746172697a6564000000000000000000000000000000006020830152604082019050919050565b6000612ccc602883613b06565b91507f5369676e617475726520617272617973206d757374206265206f66206571756160008301527f6c206c656e6774680000000000000000000000000000000000000000000000006020830152604082019050919050565b6000612d32603683613b06565b91507f426c6f636b20486569676874206d75737420626520677265617465722074686160008301527f6e2063757272656e7420626c6f636b20686569676874000000000000000000006020830152604082019050919050565b6000612d98603483613b06565b91507f486173686564206164647265737320646f6573206e6f74206d6174636820616460008301527f647265737320686173682070617373656420696e0000000000000000000000006020830152604082019050919050565b60006102a083016000830151612e0a6000860182613315565b506020830151612e1d6020860182613315565b506040830151612e306040860182612784565b5060608301518482036060860152612e488282612a1b565b91505060808301518482036080860152612e628282612817565b91505060a083015184820360a0860152612e7c8282612875565b91505060c0830151612e9160c0860182612b6b565b5060e0830151612ea460e0860182612b6b565b50610100830151612eb9610100860182612b6b565b50610120830151612ece610120860182612b6b565b50610140830151612ee3610140860182612b6b565b50610160830151612ef8610160860182612b6b565b50610180830151612f0d610180860182612b6b565b506101a08301518482036101a0860152612f278282612875565b9150506101c08301518482036101c0860152612f438282612875565b9150506101e08301518482036101e0860152612f5f8282612875565b915050610200830151848203610200860152612f7b8282612875565b915050610220830151848203610220860152612f978282612875565b915050610240830151848203610240860152612fb38282612875565b915050610260830151848203610260860152612fcf8282612817565b915050610280830151848203610280860152612feb8282612875565b9150508091505092915050565b600060408301600083015184820360008601526130158282612b7a565b915050602083015161302a6020860182612784565b508091505092915050565b60006101c08301600083015161304e6000860182613333565b5060208301516130616020860182613333565b506040830151613074604086018261326b565b5060608301516130876080860182612784565b50608083015184820360a086015261309f8282612df1565b91505060a08301516130b460c0860182613333565b5060c08301516130c760e086018261329a565b5060e08301516130db610120860182612a9f565b506101008301516130f0610140860182613333565b5061012083015184820361016086015261310a82826129a6565b9150506101408301518482036101808601526131268282612948565b9150506101608301518482036101a086015261314282826128d3565b9150508091505092915050565b60e0820160008201516131656000850182612b3e565b5060208201516131786020850182612b3e565b50604082015161318b6040850182612784565b50606082015161319e6060850182613333565b5060808201516131b16080850182612a9f565b5060a08201516131c460a0850182612a9f565b5060c08201516131d760c0850182612a9f565b50505050565b60e0820160008201516131f36000850182612b3e565b5060208201516132066020850182612b3e565b5060408201516132196040850182612784565b50606082015161322c6060850182613333565b50608082015161323f6080850182612a9f565b5060a082015161325260a0850182612a9f565b5060c082015161326560c0850182612a9f565b50505050565b6040820160008201516132816000850182613351565b5060208201516132946020850182612784565b50505050565b6040820160008201516132b06000850182612a9f565b5060208201516132c36020850182613333565b50505050565b60006040830160008301516132e16000860182612784565b50602083015184820360208601526132f98282612df1565b9150508091505092915050565b61330f81613ba0565b82525050565b61331e81613b92565b82525050565b61332d81613bc0565b82525050565b61333c81613bca565b82525050565b61334b81613bca565b82525050565b61335a81613bda565b82525050565b61336981613bda565b82525050565b61338061337b82613bda565b613c61565b82525050565b600061339282846127a2565b60148201915081905092915050565b60006133ad8284612abd565b60208201915081905092915050565b60006133c8828961336f565b6001820191506133d88288612a88565b6014820191506133e882876127a2565b6014820191506133f88286612b0d565b915061340482856127a2565b6014820191506134148284612b0d565b9150819050979650505050505050565b60006020820190506134396000830184612793565b92915050565b6000602082019050818103600083015261345981846127b9565b905092915050565b60006020820190506134766000830184612a79565b92915050565b60006020820190506134916000830184612aae565b92915050565b60006080820190506134ac6000830187612aae565b6134b96020830186613360565b6134c66040830185612aae565b6134d36060830184612aae565b95945050505050565b600060208201905081810360008301526134f68184612ad4565b905092915050565b600060e082019050613513600083018a612b4d565b6135206020830189612b4d565b61352d6040830188612793565b61353a6060830187613342565b6135476080830186612aae565b61355460a0830185612aae565b61356160c0830184612aae565b98975050505050505050565b6000602082019050818103600083015261358681612bb3565b9050919050565b600060208201905081810360008301526135a681612c19565b9050919050565b600060208201905081810360008301526135c681612c59565b9050919050565b600060208201905081810360008301526135e681612cbf565b9050919050565b6000602082019050818103600083015261360681612d25565b9050919050565b6000602082019050818103600083015261362681612d8b565b9050919050565b600060208201905081810360008301526136478184613035565b905092915050565b600060408201905081810360008301526136698185613035565b90506136786020830184613342565b9392505050565b600060e08201905061369460008301846131dd565b92915050565b60006020820190506136af6000830184613324565b92915050565b60006020820190506136ca6000830184613342565b92915050565b60006020820190506136e56000830184613360565b92915050565b6000604051905081810181811067ffffffffffffffff8211171561371257613711613c73565b5b8060405250919050565b600067ffffffffffffffff82111561373757613736613c73565b5b602082029050602081019050919050565b600067ffffffffffffffff82111561376357613762613c73565b5b602082029050602081019050919050565b600067ffffffffffffffff82111561378f5761378e613c73565b5b602082029050602081019050919050565b600067ffffffffffffffff8211156137bb576137ba613c73565b5b602082029050602081019050919050565b600067ffffffffffffffff8211156137e7576137e6613c73565b5b602082029050602081019050919050565b600067ffffffffffffffff82111561381357613812613c73565b5b602082029050602081019050919050565b600067ffffffffffffffff82111561383f5761383e613c73565b5b602082029050602081019050919050565b600067ffffffffffffffff82111561386b5761386a613c73565b5b602082029050602081019050919050565b600067ffffffffffffffff82111561389757613896613c73565b5b602082029050602081019050919050565b600067ffffffffffffffff8211156138c3576138c2613c73565b5b602082029050602081019050919050565b600067ffffffffffffffff8211156138ef576138ee613c73565b5b601f19601f8301169050602081019050919050565b600067ffffffffffffffff82111561391f5761391e613c73565b5b601f19601f8301169050602081019050919050565b6000819050602082019050919050565b6000819050602082019050919050565b6000819050602082019050919050565b6000819050602082019050919050565b6000819050602082019050919050565b6000819050602082019050919050565b6000819050602082019050919050565b600081519050919050565b600081519050919050565b600081519050919050565b600081519050919050565b600081519050919050565b600081519050919050565b600081519050919050565b600081519050919050565b600081519050919050565b6000602082019050919050565b6000602082019050919050565b6000602082019050919050565b6000602082019050919050565b6000602082019050919050565b6000602082019050919050565b6000602082019050919050565b600082825260208201905092915050565b600082825260208201905092915050565b600082825260208201905092915050565b600082825260208201905092915050565b600082825260208201905092915050565b600082825260208201905092915050565b600082825260208201905092915050565b600082825260208201905092915050565b600081905092915050565b600082825260208201905092915050565b600082825260208201905092915050565b6000613b2282613ba0565b9050919050565b60008115159050919050565b60007fffffffffffffffffffffffffffffffffffffffff00000000000000000000000082169050919050565b6000819050919050565b60008160010b9050919050565b60008160030b9050919050565b60008160070b9050919050565b600061ffff82169050919050565b600073ffffffffffffffffffffffffffffffffffffffff82169050919050565b6000819050919050565b600063ffffffff82169050919050565b600060ff82169050919050565b82818337600083830152505050565b60005b83811015613c14578082015181840152602081019050613bf9565b83811115613c23576000848401525b50505050565b6000613c3482613c4f565b9050919050565b6000819050919050565b6000819050919050565b6000613c5a82613c93565b9050919050565b6000613c6c82613c86565b9050919050565bfe5b6000601f19601f8301169050919050565b60008160f81b9050919050565b60008160601b9050919050565b613ca981613b17565b8114613cb457600080fd5b50565b613cc081613b61565b8114613ccb57600080fd5b50565b613cd781613b6b565b8114613ce257600080fd5b50565b613cee81613b78565b8114613cf957600080fd5b50565b613d0581613b85565b8114613d1057600080fd5b50565b613d1c81613b92565b8114613d2757600080fd5b50565b613d3381613ba0565b8114613d3e57600080fd5b50565b613d4a81613bc0565b8114613d5557600080fd5b50565b613d6181613bca565b8114613d6c57600080fd5b50565b613d7881613bda565b8114613d8357600080fd5b5056fea2646970667358221220bb317243077db8ca199f7bbd9466e493a6df6014c30d808ab970ff1245b3fa1964736f6c63430007060033",
  "immutableReferences": {},
  "source": "// SPDX-License-Identifier: MIT\r\n// Bridge between ethereum and verus\r\n\r\npragma solidity >=0.6.0 <0.9.0;\r\npragma experimental ABIEncoderV2;\r\n\r\nimport \"../Libraries/VerusConstants.sol\";\r\nimport \"../Libraries/VerusObjectsNotarization.sol\";\r\nimport \"../VerusBridge/VerusSerializer.sol\";\r\nimport \"../MMR/VerusBlake2b.sol\";\r\n\r\ncontract VerusNotarizer{\r\n\r\n    //last notarized blockheight\r\n    uint32 public lastBlockHeight;\r\n    //CurrencyState private lastCurrencyState;\r\n    //allows for the contract to be upgradable\r\n    bool public deprecated;\r\n    address public upgradedAddress;\r\n    //number of notaries required\r\n    uint8 requiredNotaries = 13;\r\n    VerusBlake2b blake2b;\r\n    VerusSerializer verusSerializer;\r\n    bytes20 vdxfcode = bytes20(0x367Eaadd291E1976ABc446A143f83c2D4D2C5a84);\r\n\r\n    //list of all notarizers mapped to allow for quick searching\r\n    mapping (address => bool) public komodoNotaries;\r\n    mapping (address => address) public notaryAddressMapping;\r\n    address[] private notaries;\r\n    //mapped blockdetails\r\n    mapping (uint32 => VerusObjectsNotarization.CProofRoot) public notarizedProofRoots;\r\n    mapping (uint32 => bytes32) public notarizedStateRoots;\r\n    \r\n    mapping (address => bool) public poolAvailable;\r\n    \r\n    uint32[] public blockHeights;\r\n    //used to record the number of notaries\r\n    uint8 private notaryCount;\r\n\r\n    // Notifies when the contract is deprecated\r\n    event Deprecate(address newAddress);\r\n    // Notifies when a new block hash is published\r\n    event NewBlock(VerusObjectsNotarization.CPBaaSNotarization,uint32 notarizedDataHeight);\r\n\r\n    constructor(address _verusBLAKE2bAddress,address _verusSerializerAddress,address[] memory _notaries,address[] memory _notariesEthAddress) {\r\n        verusSerializer = VerusSerializer(_verusSerializerAddress);\r\n        blake2b = VerusBlake2b(_verusBLAKE2bAddress);\r\n        deprecated = false;\r\n        notaryCount = 0;\r\n        lastBlockHeight = 0;\r\n        //add in the owner as the first notary\r\n       // address msgSender = msg.sender;\r\n        for(uint i =0; i < _notaries.length; i++){\r\n            komodoNotaries[_notaries[i]] = true;\r\n            notaryAddressMapping[_notaries[i]] = _notariesEthAddress[i];\r\n            notaries.push(_notaries[i]);\r\n            notaryCount++;\r\n        }\r\n    }\r\n\r\n    modifier onlyNotary() {\r\n        address msgSender = msg.sender;\r\n        bytes memory errorMessage = abi.encodePacked(\"Caller is not a notary\",msgSender);\r\n        require(komodoNotaries[msgSender] == true, string(errorMessage));\r\n        _;\r\n    }\r\n    \r\n    function getNotaries() public view returns(address[] memory){\r\n        return notaries;\r\n    }\r\n        \r\n    function isNotary(address _notary) public view returns(bool) {\r\n        if(komodoNotaries[_notary] == true) return true;\r\n        else return false;\r\n    }\r\n\r\n    //this function allows for intially expanding out the number of notaries\r\n    function currentNotariesRequired() public view returns(uint8){\r\n        if(notaryCount == 1 || notaryCount == 2) return 1;\r\n        uint halfNotaryCount = (notaryCount/2) + 1;\r\n        if(halfNotaryCount > requiredNotaries) return requiredNotaries;\r\n        else return uint8(halfNotaryCount);\r\n    }\r\n\r\n    function isNotarized(bytes32 _notarizedDataHash,\r\n        bytes32[] memory _rs,\r\n        bytes32[] memory _ss,\r\n        uint8[] memory _vs) public view returns(bool){\r\n        \r\n        address signingAddress;\r\n        //total number of signatures that have been validated\r\n        uint8 numberOfSignatures = 0;\r\n\r\n        //loop through the arrays, check the following:\r\n        //does the hash in the hashedBlocks match the komodoBlockHash passed in\r\n        for(uint i = 0; i < _rs.length; i++){\r\n            //if the address is in the notary array increment the number of signatures\r\n            signingAddress = recoverSigner(_notarizedDataHash, _vs[i], _rs[i], _ss[i]);\r\n            if(komodoNotaries[signingAddress]) {\r\n                numberOfSignatures++;\r\n            }\r\n        }\r\n        uint8 _requiredNotaries = currentNotariesRequired();\r\n        if(numberOfSignatures >= _requiredNotaries){\r\n            return true;\r\n        } else return false;\r\n\r\n    }\r\n \r\n    function setLatestData(VerusObjectsNotarization.CPBaaSNotarization memory _pbaasNotarization,\r\n        uint8[] memory _vs,\r\n        bytes32[] memory _rs,\r\n        bytes32[] memory _ss,\r\n        uint32[] memory blockheights,\r\n        address[] memory notaryAddress\r\n        ) public returns(bool output){\r\n\r\n        require(!deprecated,\"Contract has been deprecated\");\r\n        require((_rs.length == _ss.length) && (_rs.length == _vs.length),\"Signature arrays must be of equal length\");\r\n        require(_pbaasNotarization.notarizationheight > lastBlockHeight,\"Block Height must be greater than current block height\");\r\n\r\n        bytes memory serializedNotarisation = verusSerializer.serializeCPBaaSNotarization(_pbaasNotarization);\r\n        \r\n        //add in the extra fields for the hashing\r\n        //add in the other pieces for encoding\r\n        bytes32 hashedNotarization;\r\n        address signer;\r\n        uint8 numberOfSignatures = 0;\r\n        bytes memory toHash;\r\n\r\n        for(uint i=0; i < blockheights.length;i++){\r\n            //build the hashing sequence\r\n            toHash = abi.encodePacked(uint8(1),\r\n                vdxfcode,VerusConstants.VerusSystemId,\r\n                verusSerializer.serializeUint32(blockheights[i]),\r\n                notaryAddress[i],\r\n                abi.encodePacked(keccak256(serializedNotarisation)));\r\n            \r\n            hashedNotarization = keccak256(toHash);\r\n            \r\n            signer = recoverSigner(hashedNotarization, _vs[i]-4, _rs[i], _ss[i]);\r\n            if(signer == notaryAddressMapping[notaryAddress[i]]){\r\n                   numberOfSignatures++;\r\n            }\r\n            if(numberOfSignatures >= requiredNotaries){\r\n                break;\r\n            }\r\n        }\r\n        if(numberOfSignatures >= currentNotariesRequired()){\r\n            //valid notarization\r\n            //loop through the currencystates and confirm if the bridge is active\r\n            for(uint k= 0; k < _pbaasNotarization.currencystates.length; k++){\r\n                // checks for launchconfrimed (flags & (FLAG_FRACTIONAL(1) + FLAG_REFUNDING(4) + FLAG_LAUNCHCONFIRMED(0x10) + FLAG_LAUNCHCOMPLETEMARKER(0x20))) \r\n                //== (1 + 0x10 + 0x20)\r\n                if(_pbaasNotarization.currencystates[k].currencystate.flags & (1 + 4 + 0x10 + 0x20) == (1 + 0x10 + 0x20)\r\n                    && !poolAvailable[_pbaasNotarization.currencystates[k].currencyid]){\r\n                    poolAvailable[_pbaasNotarization.currencystates[k].currencyid] = true;\r\n                }\r\n            }\r\n            \r\n            for(uint j = 0 ; j < _pbaasNotarization.proofroots.length;j++){\r\n                if(_pbaasNotarization.proofroots[j].systemid == VerusConstants.VerusCurrencyId){\r\n                    notarizedStateRoots[_pbaasNotarization.notarizationheight] =  _pbaasNotarization.proofroots[j].stateroot;       \r\n                    notarizedProofRoots[_pbaasNotarization.notarizationheight] = _pbaasNotarization.proofroots[j];\r\n                    blockHeights.push(_pbaasNotarization.notarizationheight);\r\n                    if(lastBlockHeight <_pbaasNotarization.notarizationheight){\r\n                        lastBlockHeight = _pbaasNotarization.notarizationheight;\r\n                    }\r\n                }\r\n            }\r\n            emit NewBlock(_pbaasNotarization,lastBlockHeight);\r\n            \r\n            return true;        \r\n        }\r\n      \r\n        return false;\r\n    }\r\n\r\n    function recoverSigner(bytes32 _h, uint8 _v, bytes32 _r, bytes32 _s) public pure returns (address) {\r\n        address addr = ecrecover(_h, _v, _r, _s);\r\n        return addr;\r\n    }\r\n\r\n    function numNotarizedBlocks() public view returns(uint){\r\n        return blockHeights.length;\r\n    }\r\n\r\n    function getLastProofRoot() public view returns(VerusObjectsNotarization.CProofRoot memory){\r\n        return notarizedProofRoots[lastBlockHeight];\r\n    }\r\n    \r\n    function notarizedDeprecation(address _upgradedAddress,bytes32 _addressHash,uint8[] memory _vs,bytes32[] memory _rs,bytes32[] memory _ss) public view returns(bool){\r\n        require(isNotary(msg.sender),\"Only a notary can deprecate this contract\");\r\n        bytes32 testingAddressHash = blake2b.createHash(abi.encodePacked(_upgradedAddress));\r\n        require(testingAddressHash == _addressHash,\"Hashed address does not match address hash passed in\");\r\n        require(isNotarized(_addressHash, _rs, _ss, _vs),\"Deprecation requires the address to be notarized\");\r\n        return(true);\r\n    }\r\n\r\n    function deprecate(address _upgradedAddress,bytes32 _addressHash,uint8[] memory _vs,bytes32[] memory _rs,bytes32[] memory _ss) public {\r\n        if(notarizedDeprecation(_upgradedAddress, _addressHash, _vs, _rs, _ss)){\r\n            deprecated = true;\r\n            upgradedAddress = _upgradedAddress;\r\n            Deprecate(_upgradedAddress);\r\n        }\r\n    }\r\n    \r\n    \r\n\r\n}\r\n",
  "sourcePath": "D:\\dev\\Ethereum-verus-notarisation\\contracts\\VerusNotarizer\\VerusNotarizer.sol",
  "compiler": {
    "name": "solc",
    "version": "0.7.6+commit.7338295f.Emscripten.clang"
  },
  "schemaVersion": "3.4.3",
  "updatedAt": "2021-10-04T10:06:56.684Z",
  "networkType": "ethereum",
  "devdoc": {
    "kind": "dev",
    "methods": {},
    "version": 1
  },
  "userdoc": {
    "kind": "user",
    "methods": {},
    "version": 1
  }
}