{
  "contractName": "VerusConstants",
  "abi": [
    {
      "inputs": [],
      "name": "EthSystemID",
      "outputs": [
        {
          "internalType": "address",
          "name": "",
          "type": "address"
        }
      ],
      "stateMutability": "view",
      "type": "function"
    },
    {
      "inputs": [],
      "name": "RewardAddress",
      "outputs": [
        {
          "internalType": "address",
          "name": "",
          "type": "address"
        }
      ],
      "stateMutability": "view",
      "type": "function"
    },
    {
      "inputs": [],
      "name": "RewardAddressType",
      "outputs": [
        {
          "internalType": "uint8",
          "name": "",
          "type": "uint8"
        }
      ],
      "stateMutability": "view",
      "type": "function"
    },
    {
      "inputs": [],
      "name": "VEth",
      "outputs": [
        {
          "internalType": "address",
          "name": "",
          "type": "address"
        }
      ],
      "stateMutability": "view",
      "type": "function"
    },
    {
      "inputs": [],
      "name": "VerusCurrencyId",
      "outputs": [
        {
          "internalType": "address",
          "name": "",
          "type": "address"
        }
      ],
      "stateMutability": "view",
      "type": "function"
    },
    {
      "inputs": [],
      "name": "VerusSystemId",
      "outputs": [
        {
          "internalType": "address",
          "name": "",
          "type": "address"
        }
      ],
      "stateMutability": "view",
      "type": "function"
    },
    {
      "inputs": [],
      "name": "currencyName",
      "outputs": [
        {
          "internalType": "string",
          "name": "",
          "type": "string"
        }
      ],
      "stateMutability": "view",
      "type": "function"
    },
    {
      "inputs": [],
      "name": "transactionFee",
      "outputs": [
        {
          "internalType": "uint256",
          "name": "",
          "type": "uint256"
        }
      ],
      "stateMutability": "view",
      "type": "function"
    },
    {
      "inputs": [],
      "name": "verusTransactionFee",
      "outputs": [
        {
          "internalType": "uint256",
          "name": "",
          "type": "uint256"
        }
      ],
      "stateMutability": "view",
      "type": "function"
    }
  ],
  "bytecode": "0x610432610026600b82828239805160001a60731461001957fe5b30600052607381538281f3fe730000000000000000000000000000000000000000301460806040526004361061009c5760003560e01c8063867011861161007057806386701186146101195780639ed3edf014610137578063b332d1e014610155578063e39f448a14610173578063e95a58ea146101915761009c565b80622d1b2c146100a157806334ed5057146100bf57806340b61d30146100dd5780636bbfff00146100fb575b600080fd5b6100a96101af565b6040516100b69190610338565b60405180910390f35b6100c76101b4565b6040516100d491906102e0565b60405180910390f35b6100e56101cc565b6040516100f291906102e0565b60405180910390f35b6101036101e4565b60405161011091906102e0565b60405180910390f35b6101216101fc565b60405161012e91906102fb565b60405180910390f35b61013f610235565b60405161014c919061031d565b60405180910390f35b61015d61023f565b60405161016a91906102e0565b60405180910390f35b61017b610257565b60405161018891906102e0565b60405180910390f35b61019961026f565b6040516101a6919061031d565b60405180910390f35b600481565b73a6ef9ea235635e328124ff3429db9f9e91b64e2d81565b7367460c2f56774ed27eeb8685f29f6cec0b090b0081565b73b26820ee0c9b1276aac834cf457026a575dfce8481565b6040518060400160405280600481526020017f564554480000000000000000000000000000000000000000000000000000000081525081565b655af3107a400081565b73a6ef9ea235635e328124ff3429db9f9e91b64e2d81565b7367460c2f56774ed27eeb8685f29f6cec0b090b0081565b66470de4df82000081565b6102838161036f565b82525050565b600061029482610353565b61029e818561035e565b93506102ae8185602086016103b8565b6102b7816103eb565b840191505092915050565b6102cb816103a1565b82525050565b6102da816103ab565b82525050565b60006020820190506102f5600083018461027a565b92915050565b600060208201905081810360008301526103158184610289565b905092915050565b600060208201905061033260008301846102c2565b92915050565b600060208201905061034d60008301846102d1565b92915050565b600081519050919050565b600082825260208201905092915050565b600061037a82610381565b9050919050565b600073ffffffffffffffffffffffffffffffffffffffff82169050919050565b6000819050919050565b600060ff82169050919050565b60005b838110156103d65780820151818401526020810190506103bb565b838111156103e5576000848401525b50505050565b6000601f19601f830116905091905056fea26469706673582212203e4612ee3056fdd6d8cbff8ed49c67db768628e51b2169f658b42dc4ca4e37af64736f6c63430007060033",
  "immutableReferences": {},
  "source": "// SPDX-License-Identifier: MIT\r\n// Bridge between ethereum and verus\r\n\r\npragma solidity >=0.6.0 < 0.9.0;\r\npragma experimental ABIEncoderV2;\r\n\r\nlibrary VerusConstants {\r\n    \r\n    address constant public VEth = 0x67460C2f56774eD27EeB8685f29f6CEC0B090B00;\r\n    address constant public EthSystemID = VEth;\r\n    address constant public VerusSystemId = 0xA6ef9ea235635E328124Ff3429dB9F9E91b64e2d;\r\n    address constant public VerusCurrencyId = 0xA6ef9ea235635E328124Ff3429dB9F9E91b64e2d;\r\n    //does this need to be set \r\n    address constant public RewardAddress = 0xB26820ee0C9b1276Aac834Cf457026a575dfCe84;\r\n    uint8 constant public RewardAddressType = 4;\r\n    uint256 constant public transactionFee = 100000000000000; //0.0001 eth\r\n    string constant public currencyName = \"VETH\";\r\n    uint256 constant public verusTransactionFee = 20000000000000000; //0.02 verus\r\n}",
  "sourcePath": "D:\\dev\\Ethereum-verus-notarisation\\contracts\\Libraries\\VerusConstants.sol",
  "compiler": {
    "name": "solc",
    "version": "0.7.6+commit.7338295f.Emscripten.clang"
  },
  "schemaVersion": "3.4.3",
  "updatedAt": "2021-10-10T14:35:39.493Z",
  "devdoc": {
    "kind": "dev",
    "methods": {},
    "version": 1
  },
  "userdoc": {
    "kind": "user",
    "methods": {},
    "version": 1
  }
}