{
  "contractName": "VerusBridge",
  "abi": [
    {
      "inputs": [
        {
          "internalType": "address",
          "name": "verusProofAddress",
          "type": "address"
        },
        {
          "internalType": "address",
          "name": "tokenManagerAddress",
          "type": "address"
        },
        {
          "internalType": "address",
          "name": "verusSerializerAddress",
          "type": "address"
        },
        {
          "internalType": "address",
          "name": "verusNotarizerAddress",
          "type": "address"
        },
        {
          "internalType": "address",
          "name": "verusCCEAddress",
          "type": "address"
        },
        {
          "internalType": "uint256",
          "name": "_poolSize",
          "type": "uint256"
        }
      ],
      "stateMutability": "nonpayable",
      "type": "constructor"
    },
    {
      "anonymous": false,
      "inputs": [
        {
          "indexed": false,
          "internalType": "address",
          "name": "newAddress",
          "type": "address"
        }
      ],
      "name": "Deprecate",
      "type": "event"
    },
    {
      "inputs": [
        {
          "internalType": "uint256",
          "name": "",
          "type": "uint256"
        },
        {
          "internalType": "uint256",
          "name": "",
          "type": "uint256"
        }
      ],
      "name": "_readyExports",
      "outputs": [
        {
          "internalType": "uint32",
          "name": "version",
          "type": "uint32"
        },
        {
          "components": [
            {
              "internalType": "address",
              "name": "currency",
              "type": "address"
            },
            {
              "internalType": "uint64",
              "name": "amount",
              "type": "uint64"
            }
          ],
          "internalType": "struct VerusObjects.CCurrencyValueMap",
          "name": "currencyvalue",
          "type": "tuple"
        },
        {
          "internalType": "uint32",
          "name": "flags",
          "type": "uint32"
        },
        {
          "internalType": "address",
          "name": "feecurrencyid",
          "type": "address"
        },
        {
          "internalType": "uint256",
          "name": "fees",
          "type": "uint256"
        },
        {
          "components": [
            {
              "internalType": "uint8",
              "name": "destinationtype",
              "type": "uint8"
            },
            {
              "internalType": "bytes",
              "name": "destinationaddress",
              "type": "bytes"
            }
          ],
          "internalType": "struct VerusObjectsCommon.CTransferDestination",
          "name": "destination",
          "type": "tuple"
        },
        {
          "internalType": "address",
          "name": "destcurrencyid",
          "type": "address"
        },
        {
          "internalType": "address",
          "name": "destsystemid",
          "type": "address"
        },
        {
          "internalType": "address",
          "name": "secondreserveid",
          "type": "address"
        }
      ],
      "stateMutability": "view",
      "type": "function",
      "constant": true
    },
    {
      "inputs": [
        {
          "internalType": "address",
          "name": "",
          "type": "address"
        }
      ],
      "name": "claimableFees",
      "outputs": [
        {
          "internalType": "uint256",
          "name": "",
          "type": "uint256"
        }
      ],
      "stateMutability": "view",
      "type": "function",
      "constant": true
    },
    {
      "inputs": [],
      "name": "deprecated",
      "outputs": [
        {
          "internalType": "bool",
          "name": "",
          "type": "bool"
        }
      ],
      "stateMutability": "view",
      "type": "function",
      "constant": true
    },
    {
      "inputs": [],
      "name": "ethHeld",
      "outputs": [
        {
          "internalType": "uint256",
          "name": "",
          "type": "uint256"
        }
      ],
      "stateMutability": "view",
      "type": "function",
      "constant": true
    },
    {
      "inputs": [],
      "name": "feesHeld",
      "outputs": [
        {
          "internalType": "uint256",
          "name": "",
          "type": "uint256"
        }
      ],
      "stateMutability": "view",
      "type": "function",
      "constant": true
    },
    {
      "inputs": [],
      "name": "firstBlock",
      "outputs": [
        {
          "internalType": "uint256",
          "name": "",
          "type": "uint256"
        }
      ],
      "stateMutability": "view",
      "type": "function",
      "constant": true
    },
    {
      "inputs": [],
      "name": "lastTxidimport",
      "outputs": [
        {
          "internalType": "uint256",
          "name": "",
          "type": "uint256"
        }
      ],
      "stateMutability": "view",
      "type": "function",
      "constant": true
    },
    {
      "inputs": [],
      "name": "lastimport",
      "outputs": [
        {
          "internalType": "uint256",
          "name": "height",
          "type": "uint256"
        },
        {
          "internalType": "bytes32",
          "name": "txid",
          "type": "bytes32"
        }
      ],
      "stateMutability": "view",
      "type": "function",
      "constant": true
    },
    {
      "inputs": [],
      "name": "poolSize",
      "outputs": [
        {
          "internalType": "uint256",
          "name": "",
          "type": "uint256"
        }
      ],
      "stateMutability": "view",
      "type": "function",
      "constant": true
    },
    {
      "inputs": [
        {
          "internalType": "bytes32",
          "name": "",
          "type": "bytes32"
        }
      ],
      "name": "processedTxids",
      "outputs": [
        {
          "internalType": "bool",
          "name": "",
          "type": "bool"
        }
      ],
      "stateMutability": "view",
      "type": "function",
      "constant": true
    },
    {
      "inputs": [
        {
          "internalType": "uint256",
          "name": "",
          "type": "uint256"
        }
      ],
      "name": "readyExportHashes",
      "outputs": [
        {
          "internalType": "bytes32",
          "name": "",
          "type": "bytes32"
        }
      ],
      "stateMutability": "view",
      "type": "function",
      "constant": true
    },
    {
      "inputs": [
        {
          "internalType": "uint256",
          "name": "",
          "type": "uint256"
        }
      ],
      "name": "readyExportsByBlock",
      "outputs": [
        {
          "internalType": "uint256",
          "name": "index",
          "type": "uint256"
        },
        {
          "internalType": "bool",
          "name": "created",
          "type": "bool"
        }
      ],
      "stateMutability": "view",
      "type": "function",
      "constant": true
    },
    {
      "inputs": [],
      "name": "upgradedAddress",
      "outputs": [
        {
          "internalType": "address",
          "name": "",
          "type": "address"
        }
      ],
      "stateMutability": "view",
      "type": "function",
      "constant": true
    },
    {
      "inputs": [
        {
          "internalType": "uint256",
          "name": "a",
          "type": "uint256"
        },
        {
          "internalType": "uint8",
          "name": "decimals",
          "type": "uint8"
        }
      ],
      "name": "convertFromVerusNumber",
      "outputs": [
        {
          "internalType": "uint256",
          "name": "",
          "type": "uint256"
        }
      ],
      "stateMutability": "pure",
      "type": "function",
      "constant": true
    },
    {
      "inputs": [
        {
          "internalType": "uint256",
          "name": "a",
          "type": "uint256"
        },
        {
          "internalType": "uint8",
          "name": "decimals",
          "type": "uint8"
        }
      ],
      "name": "convertToVerusNumber",
      "outputs": [
        {
          "internalType": "uint256",
          "name": "",
          "type": "uint256"
        }
      ],
      "stateMutability": "pure",
      "type": "function",
      "constant": true
    },
    {
      "inputs": [
        {
          "components": [
            {
              "internalType": "uint32",
              "name": "version",
              "type": "uint32"
            },
            {
              "components": [
                {
                  "internalType": "address",
                  "name": "currency",
                  "type": "address"
                },
                {
                  "internalType": "uint64",
                  "name": "amount",
                  "type": "uint64"
                }
              ],
              "internalType": "struct VerusObjects.CCurrencyValueMap",
              "name": "currencyvalue",
              "type": "tuple"
            },
            {
              "internalType": "uint32",
              "name": "flags",
              "type": "uint32"
            },
            {
              "internalType": "address",
              "name": "feecurrencyid",
              "type": "address"
            },
            {
              "internalType": "uint256",
              "name": "fees",
              "type": "uint256"
            },
            {
              "components": [
                {
                  "internalType": "uint8",
                  "name": "destinationtype",
                  "type": "uint8"
                },
                {
                  "internalType": "bytes",
                  "name": "destinationaddress",
                  "type": "bytes"
                }
              ],
              "internalType": "struct VerusObjectsCommon.CTransferDestination",
              "name": "destination",
              "type": "tuple"
            },
            {
              "internalType": "address",
              "name": "destcurrencyid",
              "type": "address"
            },
            {
              "internalType": "address",
              "name": "destsystemid",
              "type": "address"
            },
            {
              "internalType": "address",
              "name": "secondreserveid",
              "type": "address"
            }
          ],
          "internalType": "struct VerusObjects.CReserveTransfer",
          "name": "transfer",
          "type": "tuple"
        }
      ],
      "name": "export",
      "outputs": [],
      "stateMutability": "payable",
      "type": "function",
      "payable": true
    },
    {
      "inputs": [],
      "name": "getlastimportheight",
      "outputs": [
        {
          "internalType": "uint256",
          "name": "",
          "type": "uint256"
        }
      ],
      "stateMutability": "view",
      "type": "function",
      "constant": true
    },
    {
      "inputs": [
        {
          "internalType": "bytes32[]",
          "name": "_imports",
          "type": "bytes32[]"
        }
      ],
      "name": "checkImports",
      "outputs": [
        {
          "internalType": "bytes32[]",
          "name": "",
          "type": "bytes32[]"
        }
      ],
      "stateMutability": "view",
      "type": "function",
      "constant": true
    },
    {
      "inputs": [
        {
          "components": [
            {
              "internalType": "uint256",
              "name": "height",
              "type": "uint256"
            },
            {
              "internalType": "bytes32",
              "name": "txid",
              "type": "bytes32"
            },
            {
              "internalType": "uint256",
              "name": "txoutnum",
              "type": "uint256"
            },
            {
              "components": [
                {
                  "internalType": "uint16",
                  "name": "version",
                  "type": "uint16"
                },
                {
                  "internalType": "uint16",
                  "name": "flags",
                  "type": "uint16"
                },
                {
                  "internalType": "address",
                  "name": "sourcesystemid",
                  "type": "address"
                },
                {
                  "internalType": "uint32",
                  "name": "sourceheightstart",
                  "type": "uint32"
                },
                {
                  "internalType": "uint32",
                  "name": "sourceheightend",
                  "type": "uint32"
                },
                {
                  "internalType": "address",
                  "name": "destinationsystemid",
                  "type": "address"
                },
                {
                  "internalType": "address",
                  "name": "destinationcurrencyid",
                  "type": "address"
                },
                {
                  "internalType": "uint32",
                  "name": "numinputs",
                  "type": "uint32"
                },
                {
                  "components": [
                    {
                      "internalType": "address",
                      "name": "currency",
                      "type": "address"
                    },
                    {
                      "internalType": "uint64",
                      "name": "amount",
                      "type": "uint64"
                    }
                  ],
                  "internalType": "struct VerusObjects.CCurrencyValueMap[]",
                  "name": "totalamounts",
                  "type": "tuple[]"
                },
                {
                  "components": [
                    {
                      "internalType": "address",
                      "name": "currency",
                      "type": "address"
                    },
                    {
                      "internalType": "uint64",
                      "name": "amount",
                      "type": "uint64"
                    }
                  ],
                  "internalType": "struct VerusObjects.CCurrencyValueMap[]",
                  "name": "totalfees",
                  "type": "tuple[]"
                },
                {
                  "internalType": "bytes32",
                  "name": "hashtransfers",
                  "type": "bytes32"
                },
                {
                  "components": [
                    {
                      "internalType": "address",
                      "name": "currency",
                      "type": "address"
                    },
                    {
                      "internalType": "uint64",
                      "name": "amount",
                      "type": "uint64"
                    }
                  ],
                  "internalType": "struct VerusObjects.CCurrencyValueMap[]",
                  "name": "totalburned",
                  "type": "tuple[]"
                },
                {
                  "components": [
                    {
                      "internalType": "uint8",
                      "name": "destinationtype",
                      "type": "uint8"
                    },
                    {
                      "internalType": "bytes",
                      "name": "destinationaddress",
                      "type": "bytes"
                    }
                  ],
                  "internalType": "struct VerusObjectsCommon.CTransferDestination",
                  "name": "rewardaddress",
                  "type": "tuple"
                },
                {
                  "internalType": "int32",
                  "name": "firstinput",
                  "type": "int32"
                }
              ],
              "internalType": "struct VerusObjects.CCrossChainExport",
              "name": "exportinfo",
              "type": "tuple"
            },
            {
              "components": [
                {
                  "internalType": "uint8",
                  "name": "version",
                  "type": "uint8"
                },
                {
                  "internalType": "uint8",
                  "name": "typeC",
                  "type": "uint8"
                },
                {
                  "components": [
                    {
                      "internalType": "uint8",
                      "name": "branchType",
                      "type": "uint8"
                    },
                    {
                      "components": [
                        {
                          "internalType": "uint8",
                          "name": "CMerkleBranchBase",
                          "type": "uint8"
                        },
                        {
                          "internalType": "uint32",
                          "name": "nIndex",
                          "type": "uint32"
                        },
                        {
                          "internalType": "uint32",
                          "name": "nSize",
                          "type": "uint32"
                        },
                        {
                          "internalType": "bytes32[]",
                          "name": "branch",
                          "type": "bytes32[]"
                        }
                      ],
                      "internalType": "struct VerusObjects.CMerkleBranch",
                      "name": "proofSequence",
                      "type": "tuple"
                    }
                  ],
                  "internalType": "struct VerusObjects.CTXProof[]",
                  "name": "txproof",
                  "type": "tuple[]"
                },
                {
                  "components": [
                    {
                      "internalType": "uint8",
                      "name": "elType",
                      "type": "uint8"
                    },
                    {
                      "internalType": "uint8",
                      "name": "elIdx",
                      "type": "uint8"
                    },
                    {
                      "internalType": "bytes",
                      "name": "elVchObj",
                      "type": "bytes"
                    },
                    {
                      "components": [
                        {
                          "internalType": "uint8",
                          "name": "branchType",
                          "type": "uint8"
                        },
                        {
                          "components": [
                            {
                              "internalType": "uint8",
                              "name": "CMerkleBranchBase",
                              "type": "uint8"
                            },
                            {
                              "internalType": "uint32",
                              "name": "nIndex",
                              "type": "uint32"
                            },
                            {
                              "internalType": "uint32",
                              "name": "nSize",
                              "type": "uint32"
                            },
                            {
                              "internalType": "bytes32[]",
                              "name": "branch",
                              "type": "bytes32[]"
                            }
                          ],
                          "internalType": "struct VerusObjects.CMerkleBranch",
                          "name": "proofSequence",
                          "type": "tuple"
                        }
                      ],
                      "internalType": "struct VerusObjects.CTXProof[]",
                      "name": "elProof",
                      "type": "tuple[]"
                    },
                    {
                      "internalType": "uint32",
                      "name": "VchObjIndex",
                      "type": "uint32"
                    }
                  ],
                  "internalType": "struct VerusObjects.CComponents[]",
                  "name": "components",
                  "type": "tuple[]"
                }
              ],
              "internalType": "struct VerusObjects.CPtransactionproof",
              "name": "partialtransactionproof",
              "type": "tuple"
            },
            {
              "components": [
                {
                  "internalType": "uint32",
                  "name": "version",
                  "type": "uint32"
                },
                {
                  "components": [
                    {
                      "internalType": "address",
                      "name": "currency",
                      "type": "address"
                    },
                    {
                      "internalType": "uint64",
                      "name": "amount",
                      "type": "uint64"
                    }
                  ],
                  "internalType": "struct VerusObjects.CCurrencyValueMap",
                  "name": "currencyvalue",
                  "type": "tuple"
                },
                {
                  "internalType": "uint32",
                  "name": "flags",
                  "type": "uint32"
                },
                {
                  "internalType": "address",
                  "name": "feecurrencyid",
                  "type": "address"
                },
                {
                  "internalType": "uint256",
                  "name": "fees",
                  "type": "uint256"
                },
                {
                  "components": [
                    {
                      "internalType": "uint8",
                      "name": "destinationtype",
                      "type": "uint8"
                    },
                    {
                      "internalType": "bytes",
                      "name": "destinationaddress",
                      "type": "bytes"
                    }
                  ],
                  "internalType": "struct VerusObjectsCommon.CTransferDestination",
                  "name": "destination",
                  "type": "tuple"
                },
                {
                  "internalType": "address",
                  "name": "destcurrencyid",
                  "type": "address"
                },
                {
                  "internalType": "address",
                  "name": "destsystemid",
                  "type": "address"
                },
                {
                  "internalType": "address",
                  "name": "secondreserveid",
                  "type": "address"
                }
              ],
              "internalType": "struct VerusObjects.CReserveTransfer[]",
              "name": "transfers",
              "type": "tuple[]"
            }
          ],
          "internalType": "struct VerusObjects.CReserveTransferImport[]",
          "name": "_imports",
          "type": "tuple[]"
        }
      ],
      "name": "submitImports",
      "outputs": [],
      "stateMutability": "nonpayable",
      "type": "function"
    },
    {
      "inputs": [
        {
          "components": [
            {
              "internalType": "uint256",
              "name": "height",
              "type": "uint256"
            },
            {
              "internalType": "bytes32",
              "name": "txid",
              "type": "bytes32"
            },
            {
              "internalType": "uint256",
              "name": "txoutnum",
              "type": "uint256"
            },
            {
              "components": [
                {
                  "internalType": "uint16",
                  "name": "version",
                  "type": "uint16"
                },
                {
                  "internalType": "uint16",
                  "name": "flags",
                  "type": "uint16"
                },
                {
                  "internalType": "address",
                  "name": "sourcesystemid",
                  "type": "address"
                },
                {
                  "internalType": "uint32",
                  "name": "sourceheightstart",
                  "type": "uint32"
                },
                {
                  "internalType": "uint32",
                  "name": "sourceheightend",
                  "type": "uint32"
                },
                {
                  "internalType": "address",
                  "name": "destinationsystemid",
                  "type": "address"
                },
                {
                  "internalType": "address",
                  "name": "destinationcurrencyid",
                  "type": "address"
                },
                {
                  "internalType": "uint32",
                  "name": "numinputs",
                  "type": "uint32"
                },
                {
                  "components": [
                    {
                      "internalType": "address",
                      "name": "currency",
                      "type": "address"
                    },
                    {
                      "internalType": "uint64",
                      "name": "amount",
                      "type": "uint64"
                    }
                  ],
                  "internalType": "struct VerusObjects.CCurrencyValueMap[]",
                  "name": "totalamounts",
                  "type": "tuple[]"
                },
                {
                  "components": [
                    {
                      "internalType": "address",
                      "name": "currency",
                      "type": "address"
                    },
                    {
                      "internalType": "uint64",
                      "name": "amount",
                      "type": "uint64"
                    }
                  ],
                  "internalType": "struct VerusObjects.CCurrencyValueMap[]",
                  "name": "totalfees",
                  "type": "tuple[]"
                },
                {
                  "internalType": "bytes32",
                  "name": "hashtransfers",
                  "type": "bytes32"
                },
                {
                  "components": [
                    {
                      "internalType": "address",
                      "name": "currency",
                      "type": "address"
                    },
                    {
                      "internalType": "uint64",
                      "name": "amount",
                      "type": "uint64"
                    }
                  ],
                  "internalType": "struct VerusObjects.CCurrencyValueMap[]",
                  "name": "totalburned",
                  "type": "tuple[]"
                },
                {
                  "components": [
                    {
                      "internalType": "uint8",
                      "name": "destinationtype",
                      "type": "uint8"
                    },
                    {
                      "internalType": "bytes",
                      "name": "destinationaddress",
                      "type": "bytes"
                    }
                  ],
                  "internalType": "struct VerusObjectsCommon.CTransferDestination",
                  "name": "rewardaddress",
                  "type": "tuple"
                },
                {
                  "internalType": "int32",
                  "name": "firstinput",
                  "type": "int32"
                }
              ],
              "internalType": "struct VerusObjects.CCrossChainExport",
              "name": "exportinfo",
              "type": "tuple"
            },
            {
              "components": [
                {
                  "internalType": "uint8",
                  "name": "version",
                  "type": "uint8"
                },
                {
                  "internalType": "uint8",
                  "name": "typeC",
                  "type": "uint8"
                },
                {
                  "components": [
                    {
                      "internalType": "uint8",
                      "name": "branchType",
                      "type": "uint8"
                    },
                    {
                      "components": [
                        {
                          "internalType": "uint8",
                          "name": "CMerkleBranchBase",
                          "type": "uint8"
                        },
                        {
                          "internalType": "uint32",
                          "name": "nIndex",
                          "type": "uint32"
                        },
                        {
                          "internalType": "uint32",
                          "name": "nSize",
                          "type": "uint32"
                        },
                        {
                          "internalType": "bytes32[]",
                          "name": "branch",
                          "type": "bytes32[]"
                        }
                      ],
                      "internalType": "struct VerusObjects.CMerkleBranch",
                      "name": "proofSequence",
                      "type": "tuple"
                    }
                  ],
                  "internalType": "struct VerusObjects.CTXProof[]",
                  "name": "txproof",
                  "type": "tuple[]"
                },
                {
                  "components": [
                    {
                      "internalType": "uint8",
                      "name": "elType",
                      "type": "uint8"
                    },
                    {
                      "internalType": "uint8",
                      "name": "elIdx",
                      "type": "uint8"
                    },
                    {
                      "internalType": "bytes",
                      "name": "elVchObj",
                      "type": "bytes"
                    },
                    {
                      "components": [
                        {
                          "internalType": "uint8",
                          "name": "branchType",
                          "type": "uint8"
                        },
                        {
                          "components": [
                            {
                              "internalType": "uint8",
                              "name": "CMerkleBranchBase",
                              "type": "uint8"
                            },
                            {
                              "internalType": "uint32",
                              "name": "nIndex",
                              "type": "uint32"
                            },
                            {
                              "internalType": "uint32",
                              "name": "nSize",
                              "type": "uint32"
                            },
                            {
                              "internalType": "bytes32[]",
                              "name": "branch",
                              "type": "bytes32[]"
                            }
                          ],
                          "internalType": "struct VerusObjects.CMerkleBranch",
                          "name": "proofSequence",
                          "type": "tuple"
                        }
                      ],
                      "internalType": "struct VerusObjects.CTXProof[]",
                      "name": "elProof",
                      "type": "tuple[]"
                    },
                    {
                      "internalType": "uint32",
                      "name": "VchObjIndex",
                      "type": "uint32"
                    }
                  ],
                  "internalType": "struct VerusObjects.CComponents[]",
                  "name": "components",
                  "type": "tuple[]"
                }
              ],
              "internalType": "struct VerusObjects.CPtransactionproof",
              "name": "partialtransactionproof",
              "type": "tuple"
            },
            {
              "components": [
                {
                  "internalType": "uint32",
                  "name": "version",
                  "type": "uint32"
                },
                {
                  "components": [
                    {
                      "internalType": "address",
                      "name": "currency",
                      "type": "address"
                    },
                    {
                      "internalType": "uint64",
                      "name": "amount",
                      "type": "uint64"
                    }
                  ],
                  "internalType": "struct VerusObjects.CCurrencyValueMap",
                  "name": "currencyvalue",
                  "type": "tuple"
                },
                {
                  "internalType": "uint32",
                  "name": "flags",
                  "type": "uint32"
                },
                {
                  "internalType": "address",
                  "name": "feecurrencyid",
                  "type": "address"
                },
                {
                  "internalType": "uint256",
                  "name": "fees",
                  "type": "uint256"
                },
                {
                  "components": [
                    {
                      "internalType": "uint8",
                      "name": "destinationtype",
                      "type": "uint8"
                    },
                    {
                      "internalType": "bytes",
                      "name": "destinationaddress",
                      "type": "bytes"
                    }
                  ],
                  "internalType": "struct VerusObjectsCommon.CTransferDestination",
                  "name": "destination",
                  "type": "tuple"
                },
                {
                  "internalType": "address",
                  "name": "destcurrencyid",
                  "type": "address"
                },
                {
                  "internalType": "address",
                  "name": "destsystemid",
                  "type": "address"
                },
                {
                  "internalType": "address",
                  "name": "secondreserveid",
                  "type": "address"
                }
              ],
              "internalType": "struct VerusObjects.CReserveTransfer[]",
              "name": "transfers",
              "type": "tuple[]"
            }
          ],
          "internalType": "struct VerusObjects.CReserveTransferImport",
          "name": "_import",
          "type": "tuple"
        }
      ],
      "name": "_createImports",
      "outputs": [
        {
          "internalType": "bool",
          "name": "",
          "type": "bool"
        }
      ],
      "stateMutability": "nonpayable",
      "type": "function"
    },
    {
      "inputs": [
        {
          "internalType": "uint256",
          "name": "_blockNumber",
          "type": "uint256"
        }
      ],
      "name": "getReadyExportsByBlock",
      "outputs": [
        {
          "components": [
            {
              "internalType": "uint256",
              "name": "position",
              "type": "uint256"
            },
            {
              "internalType": "uint256",
              "name": "blockHeight",
              "type": "uint256"
            },
            {
              "internalType": "bytes32",
              "name": "exportHash",
              "type": "bytes32"
            },
            {
              "components": [
                {
                  "internalType": "uint32",
                  "name": "version",
                  "type": "uint32"
                },
                {
                  "components": [
                    {
                      "internalType": "address",
                      "name": "currency",
                      "type": "address"
                    },
                    {
                      "internalType": "uint64",
                      "name": "amount",
                      "type": "uint64"
                    }
                  ],
                  "internalType": "struct VerusObjects.CCurrencyValueMap",
                  "name": "currencyvalue",
                  "type": "tuple"
                },
                {
                  "internalType": "uint32",
                  "name": "flags",
                  "type": "uint32"
                },
                {
                  "internalType": "address",
                  "name": "feecurrencyid",
                  "type": "address"
                },
                {
                  "internalType": "uint256",
                  "name": "fees",
                  "type": "uint256"
                },
                {
                  "components": [
                    {
                      "internalType": "uint8",
                      "name": "destinationtype",
                      "type": "uint8"
                    },
                    {
                      "internalType": "bytes",
                      "name": "destinationaddress",
                      "type": "bytes"
                    }
                  ],
                  "internalType": "struct VerusObjectsCommon.CTransferDestination",
                  "name": "destination",
                  "type": "tuple"
                },
                {
                  "internalType": "address",
                  "name": "destcurrencyid",
                  "type": "address"
                },
                {
                  "internalType": "address",
                  "name": "destsystemid",
                  "type": "address"
                },
                {
                  "internalType": "address",
                  "name": "secondreserveid",
                  "type": "address"
                }
              ],
              "internalType": "struct VerusObjects.CReserveTransfer[]",
              "name": "transfers",
              "type": "tuple[]"
            }
          ],
          "internalType": "struct VerusObjects.CReserveTransferSet",
          "name": "",
          "type": "tuple"
        }
      ],
      "stateMutability": "view",
      "type": "function",
      "constant": true
    },
    {
      "inputs": [
        {
          "internalType": "uint256",
          "name": "_startBlock",
          "type": "uint256"
        },
        {
          "internalType": "uint256",
          "name": "_endBlock",
          "type": "uint256"
        }
      ],
      "name": "getReadyExportsByRange",
      "outputs": [
        {
          "components": [
            {
              "internalType": "uint256",
              "name": "position",
              "type": "uint256"
            },
            {
              "internalType": "uint256",
              "name": "blockHeight",
              "type": "uint256"
            },
            {
              "internalType": "bytes32",
              "name": "exportHash",
              "type": "bytes32"
            },
            {
              "components": [
                {
                  "internalType": "uint32",
                  "name": "version",
                  "type": "uint32"
                },
                {
                  "components": [
                    {
                      "internalType": "address",
                      "name": "currency",
                      "type": "address"
                    },
                    {
                      "internalType": "uint64",
                      "name": "amount",
                      "type": "uint64"
                    }
                  ],
                  "internalType": "struct VerusObjects.CCurrencyValueMap",
                  "name": "currencyvalue",
                  "type": "tuple"
                },
                {
                  "internalType": "uint32",
                  "name": "flags",
                  "type": "uint32"
                },
                {
                  "internalType": "address",
                  "name": "feecurrencyid",
                  "type": "address"
                },
                {
                  "internalType": "uint256",
                  "name": "fees",
                  "type": "uint256"
                },
                {
                  "components": [
                    {
                      "internalType": "uint8",
                      "name": "destinationtype",
                      "type": "uint8"
                    },
                    {
                      "internalType": "bytes",
                      "name": "destinationaddress",
                      "type": "bytes"
                    }
                  ],
                  "internalType": "struct VerusObjectsCommon.CTransferDestination",
                  "name": "destination",
                  "type": "tuple"
                },
                {
                  "internalType": "address",
                  "name": "destcurrencyid",
                  "type": "address"
                },
                {
                  "internalType": "address",
                  "name": "destsystemid",
                  "type": "address"
                },
                {
                  "internalType": "address",
                  "name": "secondreserveid",
                  "type": "address"
                }
              ],
              "internalType": "struct VerusObjects.CReserveTransfer[]",
              "name": "transfers",
              "type": "tuple[]"
            }
          ],
          "internalType": "struct VerusObjects.CReserveTransferSet[]",
          "name": "",
          "type": "tuple[]"
        }
      ],
      "stateMutability": "view",
      "type": "function",
      "constant": true
    },
    {
      "inputs": [],
      "name": "claimFees",
      "outputs": [
        {
          "internalType": "uint256",
          "name": "",
          "type": "uint256"
        }
      ],
      "stateMutability": "nonpayable",
      "type": "function"
    }
  ],
  "bytecode": "0x60806040526000600560146101000a81548160ff0219169083151502179055506000600755600060085560006009556000600a553480156200004057600080fd5b5060405162005ed338038062005ed3833981810160405281019062000066919062000244565b33600560006101000a81548173ffffffffffffffffffffffffffffffffffffffff021916908373ffffffffffffffffffffffffffffffffffffffff16021790555085600260006101000a81548173ffffffffffffffffffffffffffffffffffffffff021916908373ffffffffffffffffffffffffffffffffffffffff160217905550846000806101000a81548173ffffffffffffffffffffffffffffffffffffffff021916908373ffffffffffffffffffffffffffffffffffffffff16021790555083600160006101000a81548173ffffffffffffffffffffffffffffffffffffffff021916908373ffffffffffffffffffffffffffffffffffffffff16021790555082600360006101000a81548173ffffffffffffffffffffffffffffffffffffffff021916908373ffffffffffffffffffffffffffffffffffffffff16021790555081600460006101000a81548173ffffffffffffffffffffffffffffffffffffffff021916908373ffffffffffffffffffffffffffffffffffffffff160217905550806009819055506000600e600001819055506000801b600e600101819055505050505050506200034c565b600081519050620002278162000318565b92915050565b6000815190506200023e8162000332565b92915050565b60008060008060008060c087890312156200025e57600080fd5b60006200026e89828a0162000216565b96505060206200028189828a0162000216565b95505060406200029489828a0162000216565b9450506060620002a789828a0162000216565b9350506080620002ba89828a0162000216565b92505060a0620002cd89828a016200022d565b9150509295509295509295565b6000620002e782620002ee565b9050919050565b600073ffffffffffffffffffffffffffffffffffffffff82169050919050565b6000819050919050565b6200032381620002da565b81146200032f57600080fd5b50565b6200033d816200030e565b81146200034957600080fd5b50565b615b77806200035c6000396000f3fe6080604052600436106101405760003560e01c80637e0b2492116100b6578063d294f0931161006f578063d294f093146104a9578063d5b91a92146104d4578063e45b909d14610511578063e4804abc1461054e578063e4f30a9f1461058b578063e9fc7ae7146105b657610140565b80637e0b2492146103675780637e3e661b146103a457806388b2621b146103e9578063a8714f6114610405578063b85c0acb1461042e578063c17a4eef1461046b57610140565b8063327d426311610108578063327d42631461024057806338eb07e11461027d5780633f067b20146102ba57806342ce5011146102e55780634ec18db9146103105780635f2edcbe1461033b57610140565b80630c6bf972146101455780630e136b1914610182578063231b0268146101ad57806326976e3f146101d85780632a9e72a614610203575b600080fd5b34801561015157600080fd5b5061016c60048036038101906101679190614186565b6105e1565b6040516101799190615310565b60405180910390f35b34801561018e57600080fd5b50610197610a95565b6040516101a49190615310565b60405180910390f35b3480156101b957600080fd5b506101c2610aa8565b6040516101cf91906153ac565b60405180910390f35b3480156101e457600080fd5b506101ed610aae565b6040516101fa91906151cf565b60405180910390f35b34801561020f57600080fd5b5061022a60048036038101906102259190614208565b610ad4565b604051610237919061538a565b60405180910390f35b34801561024c57600080fd5b50610267600480360381019061026291906140b2565b610ec7565b6040516102749190615310565b60405180910390f35b34801561028957600080fd5b506102a4600480360381019061029f9190614296565b610ee7565b6040516102b191906153ac565b60405180910390f35b3480156102c657600080fd5b506102cf610f46565b6040516102dc91906153ac565b60405180910390f35b3480156102f157600080fd5b506102fa610f4c565b60405161030791906153ac565b60405180910390f35b34801561031c57600080fd5b50610325610f52565b60405161033291906153ac565b60405180910390f35b34801561034757600080fd5b50610350610f58565b60405161035e9291906153f0565b60405180910390f35b34801561037357600080fd5b5061038e60048036038101906103899190613fde565b610f6a565b60405161039b91906153ac565b60405180910390f35b3480156103b057600080fd5b506103cb60048036038101906103c6919061425a565b610f82565b6040516103e099989796959493929190615419565b60405180910390f35b61040360048036038101906103fe91906141c7565b6111f4565b005b34801561041157600080fd5b5061042c60048036038101906104279190614048565b611b72565b005b34801561043a57600080fd5b5061045560048036038101906104509190614007565b611bac565b60405161046291906152aa565b60405180910390f35b34801561047757600080fd5b50610492600480360381019061048d9190614208565b611c97565b6040516104a09291906153c7565b60405180910390f35b3480156104b557600080fd5b506104be611cc8565b6040516104cb91906153ac565b60405180910390f35b3480156104e057600080fd5b506104fb60048036038101906104f69190614296565b611db8565b60405161050891906153ac565b60405180910390f35b34801561051d57600080fd5b5061053860048036038101906105339190614208565b611e17565b604051610545919061532b565b60405180910390f35b34801561055a57600080fd5b506105756004803603810190610570919061425a565b611e3b565b60405161058291906152cc565b60405180910390f35b34801561059757600080fd5b506105a0611f6a565b6040516105ad91906153ac565b60405180910390f35b3480156105c257600080fd5b506105cb611f74565b6040516105d891906153ac565b60405180910390f35b600060011515601060008460200151815260200190815260200160002060009054906101000a900460ff161515141561061d5760009050610a90565b60008083608001516060015160008151811061063557fe5b6020026020010151604001519050602081015191508184602001511461065757fe5b6000600260009054906101000a900473ffffffffffffffffffffffffffffffffffffffff1673ffffffffffffffffffffffffffffffffffffffff166399344c88866040518263ffffffff1660e01b81526004016106b49190615368565b60206040518083038186803b1580156106cc57600080fd5b505afa1580156106e0573d6000803e3d6000fd5b505050506040513d601f19601f820116820180604052508101906107049190614089565b90508061070d57fe5b6001601060008760200151815260200190815260200160002060006101000a81548160ff021916908315150217905550846000015160135410156107575784600001516013819055505b600080600090505b8660a0015151811015610a86576107a08760a00151828151811061077f57fe5b6020026020010151602001516020015167ffffffffffffffff166012611db8565b91507367460c2f56774ed27eeb8685f29f6cec0b090b0073ffffffffffffffffffffffffffffffffffffffff168760a0015182815181106107dd57fe5b6020026020010151602001516000015173ffffffffffffffffffffffffffffffffffffffff161415610859574782111561081357fe5b6108448261083f8960a00151848151811061082a57fe5b602002602001015160a0015160200151611f7a565b611f88565b8160086000828254039250508190555061094e565b60008054906101000a900473ffffffffffffffffffffffffffffffffffffffff1673ffffffffffffffffffffffffffffffffffffffff1663abe900e48860a0015183815181106108a557fe5b602002602001015160200151600001518960a0015184815181106108c557fe5b602002602001015160200151602001516108fd8b60a0015186815181106108e857fe5b602002602001015160a0015160200151611f7a565b6040518463ffffffff1660e01b815260040161091b93929190615273565b600060405180830381600087803b15801561093557600080fd5b505af1158015610949573d6000803e3d6000fd5b505050505b60008760a00151828151811061096057fe5b6020026020010151608001511180156109d357507367460c2f56774ed27eeb8685f29f6cec0b090b0073ffffffffffffffffffffffffffffffffffffffff168760a0015182815181106109af57fe5b60200260200101516060015173ffffffffffffffffffffffffffffffffffffffff16145b15610a79578660a0015181815181106109e857fe5b602002602001015160800151601260003373ffffffffffffffffffffffffffffffffffffffff1673ffffffffffffffffffffffffffffffffffffffff1681526020019081526020016000205401601260003373ffffffffffffffffffffffffffffffffffffffff1673ffffffffffffffffffffffffffffffffffffffff168152602001908152602001600020819055505b808060010191505061075f565b5060019450505050505b919050565b600560149054906101000a900460ff1681565b600a5481565b600660009054906101000a900473ffffffffffffffffffffffffffffffffffffffff1681565b610adc612a29565b60006011600084815260200190815260200160002060000154905060006040518060800160405280838152602001858152602001600b8481548110610b1d57fe5b90600052602060002001548152602001600d8481548110610b3a57fe5b90600052602060002001805480602002602001604051908101604052809291908181526020016000905b82821015610eb45783829060005260206000209060090201604051806101200160405290816000820160009054906101000a900463ffffffff1663ffffffff1663ffffffff168152602001600182016040518060400160405290816000820160009054906101000a900473ffffffffffffffffffffffffffffffffffffffff1673ffffffffffffffffffffffffffffffffffffffff1673ffffffffffffffffffffffffffffffffffffffff1681526020016000820160149054906101000a900467ffffffffffffffff1667ffffffffffffffff1667ffffffffffffffff168152505081526020016002820160009054906101000a900463ffffffff1663ffffffff1663ffffffff1681526020016002820160049054906101000a900473ffffffffffffffffffffffffffffffffffffffff1673ffffffffffffffffffffffffffffffffffffffff1673ffffffffffffffffffffffffffffffffffffffff16815260200160038201548152602001600482016040518060400160405290816000820160009054906101000a900460ff1660ff1660ff168152602001600182018054600181600116156101000203166002900480601f016020809104026020016040519081016040528092919081815260200182805460018160011615610100020316600290048015610d965780601f10610d6b57610100808354040283529160200191610d96565b820191906000526020600020905b815481529060010190602001808311610d7957829003601f168201915b50505050508152505081526020016006820160009054906101000a900473ffffffffffffffffffffffffffffffffffffffff1673ffffffffffffffffffffffffffffffffffffffff1673ffffffffffffffffffffffffffffffffffffffff1681526020016007820160009054906101000a900473ffffffffffffffffffffffffffffffffffffffff1673ffffffffffffffffffffffffffffffffffffffff1673ffffffffffffffffffffffffffffffffffffffff1681526020016008820160009054906101000a900473ffffffffffffffffffffffffffffffffffffffff1673ffffffffffffffffffffffffffffffffffffffff1673ffffffffffffffffffffffffffffffffffffffff168152505081526020019060010190610b64565b5050505081525090508092505050919050565b60106020528060005260406000206000915054906101000a900460ff1681565b600080600a9050600084905060088460ff161115610f1c576008840391508160ff16600a0a8581610f1457fe5b049050610f3b565b60088460ff161015610f3a578360080391508160ff16600a0a850290505b5b809250505092915050565b60075481565b60085481565b60095481565b600e8060000154908060010154905082565b60126020528060005260406000206000915090505481565b600d8281548110610f9257600080fd5b906000526020600020018181548110610faa57600080fd5b9060005260206000209060090201600091509150508060000160009054906101000a900463ffffffff1690806001016040518060400160405290816000820160009054906101000a900473ffffffffffffffffffffffffffffffffffffffff1673ffffffffffffffffffffffffffffffffffffffff1673ffffffffffffffffffffffffffffffffffffffff1681526020016000820160149054906101000a900467ffffffffffffffff1667ffffffffffffffff1667ffffffffffffffff1681525050908060020160009054906101000a900463ffffffff16908060020160049054906101000a900473ffffffffffffffffffffffffffffffffffffffff1690806003015490806004016040518060400160405290816000820160009054906101000a900460ff1660ff1660ff168152602001600182018054600181600116156101000203166002900480601f0160208091040260200160405190810160405280929190818152602001828054600181600116156101000203166002900480156111745780601f1061114957610100808354040283529160200191611174565b820191906000526020600020905b81548152906001019060200180831161115757829003601f168201915b505050505081525050908060060160009054906101000a900473ffffffffffffffffffffffffffffffffffffffff16908060070160009054906101000a900473ffffffffffffffffffffffffffffffffffffffff16908060080160009054906101000a900473ffffffffffffffffffffffffffffffffffffffff16905089565b600560149054906101000a900460ff161561120b57fe5b6000655af3107a400090506000621e848090506011600043815260200190815260200160002060010160009054906101000a900460ff16156112f1576000601160004381526020019081526020016000206000015490508360c0015173ffffffffffffffffffffffffffffffffffffffff16600d828154811061128a57fe5b906000526020600020016000815481106112a057fe5b906000526020600020906009020160060160009054906101000a900473ffffffffffffffffffffffffffffffffffffffff1673ffffffffffffffffffffffffffffffffffffffff16146112ef57fe5b505b61130383608001518460600151611fea565b1561132057621e84806009600082825403925050819055506116d7565b73a6ef9ea235635e328124ff3429db9f9e91b64e2d73ffffffffffffffffffffffffffffffffffffffff16836060015173ffffffffffffffffffffffffffffffffffffffff1614806113b557507367460c2f56774ed27eeb8685f29f6cec0b090b0073ffffffffffffffffffffffffffffffffffffffff16836060015173ffffffffffffffffffffffffffffffffffffffff16145b6113bb57fe5b73a6ef9ea235635e328124ff3429db9f9e91b64e2d73ffffffffffffffffffffffffffffffffffffffff16836060015173ffffffffffffffffffffffffffffffffffffffff1614156116685760008060009054906101000a900473ffffffffffffffffffffffffffffffffffffffff1673ffffffffffffffffffffffffffffffffffffffff1663f79338de85606001516040518263ffffffff1660e01b815260040161146791906151cf565b60206040518083038186803b15801561147f57600080fd5b505afa158015611493573d6000803e3d6000fd5b505050506040513d601f19601f820116820180604052508101906114b7919061411c565b905060008173ffffffffffffffffffffffffffffffffffffffff1663dd62ed3e33306040518363ffffffff1660e01b81526004016114f69291906151ea565b60206040518083038186803b15801561150e57600080fd5b505afa158015611522573d6000803e3d6000fd5b505050506040513d601f19601f820116820180604052508101906115469190614231565b9050611553836012611db8565b81101561155c57fe5b8173ffffffffffffffffffffffffffffffffffffffff166323b872dd3330611585876012611db8565b6040518463ffffffff1660e01b81526004016115a393929190615213565b602060405180830381600087803b1580156115bd57600080fd5b505af11580156115d1573d6000803e3d6000fd5b505050506040513d601f19601f820116820180604052508101906115f59190614089565b508173ffffffffffffffffffffffffffffffffffffffff166342966c68846040518263ffffffff1660e01b815260040161162f91906153ac565b600060405180830381600087803b15801561164957600080fd5b505af115801561165d573d6000803e3d6000fd5b5050505050506116d6565b7367460c2f56774ed27eeb8685f29f6cec0b090b0073ffffffffffffffffffffffffffffffffffffffff16836060015173ffffffffffffffffffffffffffffffffffffffff1614156116d5576003820291506116c983608001516012611db8565b82013410156116d457fe5b5b5b5b7367460c2f56774ed27eeb8685f29f6cec0b090b0073ffffffffffffffffffffffffffffffffffffffff1683602001516000015173ffffffffffffffffffffffffffffffffffffffff1614611af5573460076000828254019250508190555060008060009054906101000a900473ffffffffffffffffffffffffffffffffffffffff1673ffffffffffffffffffffffffffffffffffffffff1663f79338de8560200151600001516040518263ffffffff1660e01b815260040161179a91906151cf565b60206040518083038186803b1580156117b257600080fd5b505afa1580156117c6573d6000803e3d6000fd5b505050506040513d601f19601f820116820180604052508101906117ea919061411c565b905060008173ffffffffffffffffffffffffffffffffffffffff1663dd62ed3e33306040518363ffffffff1660e01b81526004016118299291906151ea565b60206040518083038186803b15801561184157600080fd5b505afa158015611855573d6000803e3d6000fd5b505050506040513d601f19601f820116820180604052508101906118799190614231565b9050600061191686602001516020015167ffffffffffffffff168473ffffffffffffffffffffffffffffffffffffffff1663313ce5676040518163ffffffff1660e01b815260040160206040518083038186803b1580156118d957600080fd5b505afa1580156118ed573d6000803e3d6000fd5b505050506040513d601f19601f8201168201806040525081019061191191906142fb565b611db8565b90508082101561192257fe5b8273ffffffffffffffffffffffffffffffffffffffff166323b872dd3330846040518463ffffffff1660e01b815260040161195f93929190615213565b602060405180830381600087803b15801561197957600080fd5b505af115801561198d573d6000803e3d6000fd5b505050506040513d601f19601f820116820180604052508101906119b19190614089565b508273ffffffffffffffffffffffffffffffffffffffff1663095ea7b360008054906101000a900473ffffffffffffffffffffffffffffffffffffffff16836040518363ffffffff1660e01b8152600401611a0d92919061524a565b602060405180830381600087803b158015611a2757600080fd5b505af1158015611a3b573d6000803e3d6000fd5b505050506040513d601f19601f82011682018060405250810190611a5f9190614089565b5060008054906101000a900473ffffffffffffffffffffffffffffffffffffffff1673ffffffffffffffffffffffffffffffffffffffff16639033ef3f84836040518363ffffffff1660e01b8152600401611abb92919061524a565b600060405180830381600087803b158015611ad557600080fd5b505af1158015611ae9573d6000803e3d6000fd5b50505050505050611b64565b611b08655af3107a400034036012610ee7565b83602001516020019067ffffffffffffffff16908167ffffffffffffffff168152505082602001516020015167ffffffffffffffff16600860008282540192505081905550655af3107a40006007600082825401925050819055505b611b6d836121f7565b505050565b60005b8151811015611ba857611b9a828281518110611b8d57fe5b60200260200101516105e1565b508080600101915050611b75565b5050565b60606000825167ffffffffffffffff81118015611bc857600080fd5b50604051908082528060200260200182016040528015611bf75781602001602082028036833780820191505090505b509050600080600090505b8451811015611c8c576001151560106000878481518110611c1f57fe5b6020026020010151815260200190815260200160002060009054906101000a900460ff16151514611c7f57848181518110611c5657fe5b6020026020010151838381518110611c6a57fe5b60200260200101818152505081806001019250505b8080600101915050611c02565b508192505050919050565b60116020528060005260406000206000915090508060000154908060010160009054906101000a900460ff16905082565b6000600560149054906101000a900460ff1615611ce157fe5b6000601260003373ffffffffffffffffffffffffffffffffffffffff1673ffffffffffffffffffffffffffffffffffffffff168152602001908152602001600020541115611d7357611d72601260003373ffffffffffffffffffffffffffffffffffffffff1673ffffffffffffffffffffffffffffffffffffffff1681526020019081526020016000205433611f88565b5b601260003373ffffffffffffffffffffffffffffffffffffffff1673ffffffffffffffffffffffffffffffffffffffff16815260200190815260200160002054905090565b600080600a9050600084905060088460ff161115611de6576008840391508160ff16600a0a85029050611e0c565b60088460ff161015611e0b578360080391508160ff16600a0a8581611e0757fe5b0490505b5b809250505092915050565b600b8181548110611e2757600080fd5b906000526020600020016000915090505481565b60606000600a54841015611e4f57600a5493505b60008490505b838111611e99576011600082815260200190815260200160002060010160009054906101000a900460ff1615611e8c576001820191505b8080600101915050611e55565b5060008167ffffffffffffffff81118015611eb357600080fd5b50604051908082528060200260200182016040528015611eed57816020015b611eda612a29565b815260200190600190039081611ed25790505b5090506000808690505b858111611f5d576011600082815260200190815260200160002060010160009054906101000a900460ff1615611f5057611f3081610ad4565b838381518110611f3c57fe5b602002602001018190525081806001019250505b8080600101915050611ef7565b5081935050505092915050565b6000601354905090565b60135481565b600060148201519050919050565b600560149054906101000a900460ff1615611f9f57fe5b8073ffffffffffffffffffffffffffffffffffffffff166108fc839081150290604051600060405180830381858888f19350505050158015611fe5573d6000803e3d6000fd5b505050565b6000600360009054906101000a900473ffffffffffffffffffffffffffffffffffffffff1673ffffffffffffffffffffffffffffffffffffffff16630bd4cec373ffece948b8a38bbcc813411d2597f7f8485a06896040518263ffffffff1660e01b815260040161205b91906151cf565b60206040518083038186803b15801561207357600080fd5b505afa158015612087573d6000803e3d6000fd5b505050506040513d601f19601f820116820180604052508101906120ab91906142d2565b63ffffffff16600010801561218957504363ffffffff16600360009054906101000a900473ffffffffffffffffffffffffffffffffffffffff1673ffffffffffffffffffffffffffffffffffffffff16630bd4cec373ffece948b8a38bbcc813411d2597f7f8485a06896040518263ffffffff1660e01b815260040161213191906151cf565b60206040518083038186803b15801561214957600080fd5b505afa15801561215d573d6000803e3d6000fd5b505050506040513d601f19601f8201168201806040525081019061218191906142d2565b63ffffffff16105b1561219757600090506121f1565b73a6ef9ea235635e328124ff3429db9f9e91b64e2d73ffffffffffffffffffffffffffffffffffffffff168273ffffffffffffffffffffffffffffffffffffffff16146121e057fe5b8260095410156121ec57fe5b600190505b92915050565b60004390506000806011600084815260200190815260200160002060010160009054906101000a900460ff16156124cc5760116000848152602001908152602001600020600001549150600d828154811061224e57fe5b9060005260206000200184908060018154018082558091505060019003906000526020600020906009020160009091909190915060008201518160000160006101000a81548163ffffffff021916908363ffffffff16021790555060208201518160010160008201518160000160006101000a81548173ffffffffffffffffffffffffffffffffffffffff021916908373ffffffffffffffffffffffffffffffffffffffff16021790555060208201518160000160146101000a81548167ffffffffffffffff021916908367ffffffffffffffff160217905550505060408201518160020160006101000a81548163ffffffff021916908363ffffffff16021790555060608201518160020160046101000a81548173ffffffffffffffffffffffffffffffffffffffff021916908373ffffffffffffffffffffffffffffffffffffffff1602179055506080820151816003015560a08201518160040160008201518160000160006101000a81548160ff021916908360ff16021790555060208201518160010190805190602001906123e8929190612a54565b50505060c08201518160060160006101000a81548173ffffffffffffffffffffffffffffffffffffffff021916908373ffffffffffffffffffffffffffffffffffffffff16021790555060e08201518160070160006101000a81548173ffffffffffffffffffffffffffffffffffffffff021916908373ffffffffffffffffffffffffffffffffffffffff1602179055506101008201518160080160006101000a81548173ffffffffffffffffffffffffffffffffffffffff021916908373ffffffffffffffffffffffffffffffffffffffff1602179055505050600090506127e7565b600c84908060018154018082558091505060019003906000526020600020906009020160009091909190915060008201518160000160006101000a81548163ffffffff021916908363ffffffff16021790555060208201518160010160008201518160000160006101000a81548173ffffffffffffffffffffffffffffffffffffffff021916908373ffffffffffffffffffffffffffffffffffffffff16021790555060208201518160000160146101000a81548167ffffffffffffffff021916908367ffffffffffffffff160217905550505060408201518160020160006101000a81548163ffffffff021916908363ffffffff16021790555060608201518160020160046101000a81548173ffffffffffffffffffffffffffffffffffffffff021916908373ffffffffffffffffffffffffffffffffffffffff1602179055506080820151816003015560a08201518160040160008201518160000160006101000a81548160ff021916908360ff160217905550602082015181600101908051906020019061265e929190612a54565b50505060c08201518160060160006101000a81548173ffffffffffffffffffffffffffffffffffffffff021916908373ffffffffffffffffffffffffffffffffffffffff16021790555060e08201518160070160006101000a81548173ffffffffffffffffffffffffffffffffffffffff021916908373ffffffffffffffffffffffffffffffffffffffff1602179055506101008201518160080160006101000a81548173ffffffffffffffffffffffffffffffffffffffff021916908373ffffffffffffffffffffffffffffffffffffffff1602179055505050600d600c90806001815401808255809150506001900390600052602060002001600090919091909150908054612770929190612ae2565b506001600d80549050039150604051806040016040528083815260200160011515815250601160008581526020019081526020016000206000820151816000015560208201518160010160006101000a81548160ff021916908315150217905550905050600c60006127e29190612e62565b600190505b6000600160009054906101000a900473ffffffffffffffffffffffffffffffffffffffff1673ffffffffffffffffffffffffffffffffffffffff16636fa0ee57600460009054906101000a900473ffffffffffffffffffffffffffffffffffffffff1673ffffffffffffffffffffffffffffffffffffffff1663a031aa4d600d878154811061287257fe5b906000526020600020016040518263ffffffff1660e01b815260040161289891906152ee565b600060405180830381600087803b1580156128b257600080fd5b505af11580156128c6573d6000803e3d6000fd5b505050506040513d6000823e3d601f19601f820116820180604052508101906128ef9190614145565b6040518263ffffffff1660e01b815260040161290b9190615346565b60006040518083038186803b15801561292357600080fd5b505afa158015612937573d6000803e3d6000fd5b505050506040513d6000823e3d601f19601f8201168201806040525081019061296091906140db565b90506000806000801b90506000851461299157600b600186038154811061298357fe5b906000526020600020015490505b82816040516020016129a49291906151a7565b60405160208183030381529060405280519060200120915083156129f057600b829080600181540180825580915050600190039060005260206000200160009091909190915055612a0d565b81600b86815481106129fe57fe5b90600052602060002001819055505b6000600a541415612a205785600a819055505b50505050505050565b6040518060800160405280600081526020016000815260200160008019168152602001606081525090565b828054600181600116156101000203166002900490600052602060002090601f016020900481019282612a8a5760008555612ad1565b82601f10612aa357805160ff1916838001178555612ad1565b82800160010185558215612ad1579182015b82811115612ad0578251825591602001919060010190612ab5565b5b509050612ade9190612e86565b5090565b828054828255906000526020600020906009028101928215612e515760005260206000209160090282015b82811115612e505782826000820160009054906101000a900463ffffffff168160000160006101000a81548163ffffffff021916908363ffffffff16021790555060018201816001016000820160009054906101000a900473ffffffffffffffffffffffffffffffffffffffff168160000160006101000a81548173ffffffffffffffffffffffffffffffffffffffff021916908373ffffffffffffffffffffffffffffffffffffffff1602179055506000820160149054906101000a900467ffffffffffffffff168160000160146101000a81548167ffffffffffffffff021916908367ffffffffffffffff16021790555050506002820160009054906101000a900463ffffffff168160020160006101000a81548163ffffffff021916908363ffffffff1602179055506002820160049054906101000a900473ffffffffffffffffffffffffffffffffffffffff168160020160046101000a81548173ffffffffffffffffffffffffffffffffffffffff021916908373ffffffffffffffffffffffffffffffffffffffff1602179055506003820154816003015560048201816004016000820160009054906101000a900460ff168160000160006101000a81548160ff021916908360ff16021790555060018201816001019080546001816001161561010002031660029004612d07929190612ea3565b5050506006820160009054906101000a900473ffffffffffffffffffffffffffffffffffffffff168160060160006101000a81548173ffffffffffffffffffffffffffffffffffffffff021916908373ffffffffffffffffffffffffffffffffffffffff1602179055506007820160009054906101000a900473ffffffffffffffffffffffffffffffffffffffff168160070160006101000a81548173ffffffffffffffffffffffffffffffffffffffff021916908373ffffffffffffffffffffffffffffffffffffffff1602179055506008820160009054906101000a900473ffffffffffffffffffffffffffffffffffffffff168160080160006101000a81548173ffffffffffffffffffffffffffffffffffffffff021916908373ffffffffffffffffffffffffffffffffffffffff160217905550505091600901919060090190612b0d565b5b509050612e5e9190612f38565b5090565b5080546000825560090290600052602060002090810190612e839190612f38565b50565b5b80821115612e9f576000816000905550600101612e87565b5090565b828054600181600116156101000203166002900490600052602060002090601f016020900481019282612ed95760008555612f27565b82601f10612eea5780548555612f27565b82800160010185558215612f2757600052602060002091601f016020900482015b82811115612f26578254825591600101919060010190612f0b565b5b509050612f349190612e86565b5090565b5b8082111561309157600080820160006101000a81549063ffffffff021916905560018201600080820160006101000a81549073ffffffffffffffffffffffffffffffffffffffff02191690556000820160146101000a81549067ffffffffffffffff021916905550506002820160006101000a81549063ffffffff02191690556002820160046101000a81549073ffffffffffffffffffffffffffffffffffffffff0219169055600382016000905560048201600080820160006101000a81549060ff02191690556001820160006130119190613095565b50506006820160006101000a81549073ffffffffffffffffffffffffffffffffffffffff02191690556007820160006101000a81549073ffffffffffffffffffffffffffffffffffffffff02191690556008820160006101000a81549073ffffffffffffffffffffffffffffffffffffffff021916905550600901612f39565b5090565b50805460018160011615610100020316600290046000825580601f106130bb57506130da565b601f0160209004906000526020600020908101906130d99190612e86565b5b50565b60006130f06130eb846154df565b6154ae565b9050808382526020820190508285602086028201111561310f57600080fd5b60005b8581101561313f57816131258882613576565b845260208401935060208301925050600181019050613112565b5050509392505050565b600061315c6131578461550b565b6154ae565b9050808382526020820190508260005b8581101561319c57813585016131828882613633565b84526020840193506020830192505060018101905061316c565b5050509392505050565b60006131b96131b484615537565b6154ae565b905080838252602082019050828560408602820111156131d857600080fd5b60005b8581101561320857816131ee8882613a3f565b8452602084019350604083019250506001810190506131db565b5050509392505050565b600061322561322084615537565b6154ae565b9050808382526020820190508285604086028201111561324457600080fd5b60005b85811015613274578161325a8882613a8b565b845260208401935060408301925050600181019050613247565b5050509392505050565b600061329161328c84615563565b6154ae565b9050808382526020820190508260005b858110156132d157813585016132b78882613c07565b8452602084019350602083019250506001810190506132a1565b5050509392505050565b60006132ee6132e98461558f565b6154ae565b9050808382526020820190508260005b8581101561332e57813585016133148882613ceb565b8452602084019350602083019250506001810190506132fe565b5050509392505050565b600061334b613346846155bb565b6154ae565b9050808382526020820190508260005b8581101561338b57813585016133718882613de0565b84526020840193506020830192505060018101905061335b565b5050509392505050565b60006133a86133a3846155e7565b6154ae565b9050828152602081018484840111156133c057600080fd5b6133cb848285615939565b509392505050565b60006133e66133e1846155e7565b6154ae565b9050828152602081018484840111156133fe57600080fd5b613409848285615948565b509392505050565b60008135905061342081615a5b565b92915050565b60008151905061343581615a5b565b92915050565b600082601f83011261344c57600080fd5b813561345c8482602086016130dd565b91505092915050565b600082601f83011261347657600080fd5b8135613486848260208601613149565b91505092915050565b600082601f8301126134a057600080fd5b81356134b08482602086016131a6565b91505092915050565b600082601f8301126134ca57600080fd5b81516134da848260208601613212565b91505092915050565b600082601f8301126134f457600080fd5b813561350484826020860161327e565b91505092915050565b600082601f83011261351e57600080fd5b813561352e8482602086016132db565b91505092915050565b600082601f83011261354857600080fd5b8135613558848260208601613338565b91505092915050565b60008151905061357081615a72565b92915050565b60008135905061358581615a89565b92915050565b60008151905061359a81615a89565b92915050565b600082601f8301126135b157600080fd5b81356135c1848260208601613395565b91505092915050565b600082601f8301126135db57600080fd5b81516135eb8482602086016133d3565b91505092915050565b60008151905061360381615aa0565b92915050565b60008135905061361881615ab7565b92915050565b60008151905061362d81615ab7565b92915050565b600060a0828403121561364557600080fd5b61364f60a06154ae565b9050600061365f84828501613fb4565b600083015250602061367384828501613fb4565b602083015250604082013567ffffffffffffffff81111561369357600080fd5b61369f848285016135a0565b604083015250606082013567ffffffffffffffff8111156136bf57600080fd5b6136cb84828501613537565b60608301525060806136df84828501613f60565b60808301525092915050565b60006101c082840312156136fe57600080fd5b6137096101c06154ae565b9050600061371984828501613f0c565b600083015250602061372d84828501613f0c565b602083015250604061374184828501613411565b604083015250606061375584828501613f60565b606083015250608061376984828501613f60565b60808301525060a061377d84828501613411565b60a08301525060c061379184828501613411565b60c08301525060e06137a584828501613f60565b60e08301525061010082013567ffffffffffffffff8111156137c657600080fd5b6137d28482850161348f565b6101008301525061012082013567ffffffffffffffff8111156137f457600080fd5b6138008482850161348f565b6101208301525061014061381684828501613576565b6101408301525061016082013567ffffffffffffffff81111561383857600080fd5b6138448482850161348f565b6101608301525061018082013567ffffffffffffffff81111561386657600080fd5b61387284828501613e44565b610180830152506101a061388884828501613609565b6101a08301525092915050565b60006101c082840312156138a857600080fd5b6138b36101c06154ae565b905060006138c384828501613f21565b60008301525060206138d784828501613f21565b60208301525060406138eb84828501613426565b60408301525060606138ff84828501613f75565b606083015250608061391384828501613f75565b60808301525060a061392784828501613426565b60a08301525060c061393b84828501613426565b60c08301525060e061394f84828501613f75565b60e08301525061010082015167ffffffffffffffff81111561397057600080fd5b61397c848285016134b9565b6101008301525061012082015167ffffffffffffffff81111561399e57600080fd5b6139aa848285016134b9565b610120830152506101406139c08482850161358b565b6101408301525061016082015167ffffffffffffffff8111156139e257600080fd5b6139ee848285016134b9565b6101608301525061018082015167ffffffffffffffff811115613a1057600080fd5b613a1c84828501613ea8565b610180830152506101a0613a328482850161361e565b6101a08301525092915050565b600060408284031215613a5157600080fd5b613a5b60406154ae565b90506000613a6b84828501613411565b6000830152506020613a7f84828501613f8a565b60208301525092915050565b600060408284031215613a9d57600080fd5b613aa760406154ae565b90506000613ab784828501613426565b6000830152506020613acb84828501613f9f565b60208301525092915050565b600060808284031215613ae957600080fd5b613af360806154ae565b90506000613b0384828501613fb4565b6000830152506020613b1784828501613f60565b6020830152506040613b2b84828501613f60565b604083015250606082013567ffffffffffffffff811115613b4b57600080fd5b613b578482850161343b565b60608301525092915050565b600060808284031215613b7557600080fd5b613b7f60806154ae565b90506000613b8f84828501613fb4565b6000830152506020613ba384828501613fb4565b602083015250604082013567ffffffffffffffff811115613bc357600080fd5b613bcf84828501613537565b604083015250606082013567ffffffffffffffff811115613bef57600080fd5b613bfb84828501613465565b60608301525092915050565b600060c08284031215613c1957600080fd5b613c2360c06154ae565b90506000613c3384828501613f36565b6000830152506020613c4784828501613576565b6020830152506040613c5b84828501613f36565b604083015250606082013567ffffffffffffffff811115613c7b57600080fd5b613c87848285016136eb565b606083015250608082013567ffffffffffffffff811115613ca757600080fd5b613cb384828501613b63565b60808301525060a082013567ffffffffffffffff811115613cd357600080fd5b613cdf8482850161350d565b60a08301525092915050565b60006101408284031215613cfe57600080fd5b613d096101206154ae565b90506000613d1984828501613f60565b6000830152506020613d2d84828501613a3f565b6020830152506060613d4184828501613f60565b6040830152506080613d5584828501613411565b60608301525060a0613d6984828501613f36565b60808301525060c082013567ffffffffffffffff811115613d8957600080fd5b613d9584828501613e44565b60a08301525060e0613da984828501613411565b60c083015250610100613dbe84828501613411565b60e083015250610120613dd384828501613411565b6101008301525092915050565b600060408284031215613df257600080fd5b613dfc60406154ae565b90506000613e0c84828501613fb4565b600083015250602082013567ffffffffffffffff811115613e2c57600080fd5b613e3884828501613ad7565b60208301525092915050565b600060408284031215613e5657600080fd5b613e6060406154ae565b90506000613e7084828501613fb4565b600083015250602082013567ffffffffffffffff811115613e9057600080fd5b613e9c848285016135a0565b60208301525092915050565b600060408284031215613eba57600080fd5b613ec460406154ae565b90506000613ed484828501613fc9565b600083015250602082015167ffffffffffffffff811115613ef457600080fd5b613f00848285016135ca565b60208301525092915050565b600081359050613f1b81615ace565b92915050565b600081519050613f3081615ace565b92915050565b600081359050613f4581615ae5565b92915050565b600081519050613f5a81615ae5565b92915050565b600081359050613f6f81615afc565b92915050565b600081519050613f8481615afc565b92915050565b600081359050613f9981615b13565b92915050565b600081519050613fae81615b13565b92915050565b600081359050613fc381615b2a565b92915050565b600081519050613fd881615b2a565b92915050565b600060208284031215613ff057600080fd5b6000613ffe84828501613411565b91505092915050565b60006020828403121561401957600080fd5b600082013567ffffffffffffffff81111561403357600080fd5b61403f8482850161343b565b91505092915050565b60006020828403121561405a57600080fd5b600082013567ffffffffffffffff81111561407457600080fd5b614080848285016134e3565b91505092915050565b60006020828403121561409b57600080fd5b60006140a984828501613561565b91505092915050565b6000602082840312156140c457600080fd5b60006140d284828501613576565b91505092915050565b6000602082840312156140ed57600080fd5b600082015167ffffffffffffffff81111561410757600080fd5b614113848285016135ca565b91505092915050565b60006020828403121561412e57600080fd5b600061413c848285016135f4565b91505092915050565b60006020828403121561415757600080fd5b600082015167ffffffffffffffff81111561417157600080fd5b61417d84828501613895565b91505092915050565b60006020828403121561419857600080fd5b600082013567ffffffffffffffff8111156141b257600080fd5b6141be84828501613c07565b91505092915050565b6000602082840312156141d957600080fd5b600082013567ffffffffffffffff8111156141f357600080fd5b6141ff84828501613ceb565b91505092915050565b60006020828403121561421a57600080fd5b600061422884828501613f36565b91505092915050565b60006020828403121561424357600080fd5b600061425184828501613f4b565b91505092915050565b6000806040838503121561426d57600080fd5b600061427b85828601613f36565b925050602061428c85828601613f36565b9150509250929050565b600080604083850312156142a957600080fd5b60006142b785828601613f36565b92505060206142c885828601613fb4565b9150509250929050565b6000602082840312156142e457600080fd5b60006142f284828501613f75565b91505092915050565b60006020828403121561430d57600080fd5b600061431b84828501613fc9565b91505092915050565b60006143308383614756565b60208301905092915050565b60006143488383614893565b905092915050565b600061435c8383614b96565b60408301905092915050565b60006143748383614d98565b905092915050565b60006143888383614e5e565b905092915050565b600061439c8383614f24565b905092915050565b60006143b0838361502f565b905092915050565b6143c181615903565b82525050565b6143d081615853565b82525050565b6143df81615853565b82525050565b60006143f0826156a1565b6143fa8185615754565b935061440583615617565b8060005b8381101561443657815161441d8882614324565b9750614428836156f9565b925050600181019050614409565b5085935050505092915050565b600061444e826156a1565b6144588185615765565b935061446383615617565b8060005b8381101561449457815161447b8882614324565b9750614486836156f9565b925050600181019050614467565b5085935050505092915050565b60006144ac826156ac565b6144b68185615776565b9350836020820285016144c885615627565b8060005b8581101561450457848403895281516144e5858261433c565b94506144f083615706565b925060208a019950506001810190506144cc565b50829750879550505050505092915050565b6000614521826156b7565b61452b8185615787565b935061453683615637565b8060005b8381101561456757815161454e8882614350565b975061455983615713565b92505060018101905061453a565b5085935050505092915050565b600061457f826156c2565b6145898185615798565b93508360208202850161459b85615647565b8060005b858110156145d757848403895281516145b88582614368565b94506145c383615720565b925060208a0199505060018101905061459f565b50829750879550505050505092915050565b60006145f4826156cd565b6145fe81856157a9565b93508360208202850161461085615657565b8060005b8581101561464c578484038952815161462d858261437c565b94506146388361572d565b925060208a01995050600181019050614614565b50829750879550505050505092915050565b6000614669826156d8565b61467381856157ba565b93508360208202850161468585615667565b8060005b858110156146c0578484038952816146a18582614390565b94506146ac8361573a565b925060208a01995050600181019050614689565b50829750879550505050505092915050565b60006146dd826156e3565b6146e781856157cb565b9350836020820285016146f98561567c565b8060005b85811015614735578484038952815161471685826143a4565b945061472183615747565b925060208a019950506001810190506146fd565b50829750879550505050505092915050565b61475081615865565b82525050565b61475f81615871565b82525050565b61476e81615871565b82525050565b61478561478082615871565b615a17565b82525050565b6000614796826156ee565b6147a081856157dc565b93506147b0818560208601615948565b6147b981615a23565b840191505092915050565b60006147cf826156ee565b6147d981856157ed565b93506147e9818560208601615948565b80840191505092915050565b60008154600181166000811461481257600181146148385761487c565b607f600283041661482381876157dc565b955060ff19831686526020860193505061487c565b6002820461484681876157dc565b95506148518561568c565b60005b8281101561487357815481890152600182019150602081019050614854565b80880195505050505b505092915050565b61488d8161588d565b82525050565b600060a0830160008301516148ab6000860182615198565b5060208301516148be6020860182615198565b50604083015184820360408601526148d6828261478b565b915050606083015184820360608601526148f082826146d2565b9150506080830151614905608086018261515c565b508091505092915050565b60006101c083016000830151614929600086018261512f565b50602083015161493c602086018261512f565b50604083015161494f60408601826143c7565b506060830151614962606086018261515c565b506080830151614975608086018261515c565b5060a083015161498860a08601826143c7565b5060c083015161499b60c08601826143c7565b5060e08301516149ae60e086018261515c565b506101008301518482036101008601526149c88282614516565b9150506101208301518482036101208601526149e48282614516565b9150506101408301516149fb610140860182614756565b50610160830151848203610160860152614a158282614516565b915050610180830151848203610180860152614a31828261506c565b9150506101a0830151614a486101a0860182614884565b508091505092915050565b60006101c083016000830151614a6c600086018261512f565b506020830151614a7f602086018261512f565b506040830151614a9260408601826143c7565b506060830151614aa5606086018261515c565b506080830151614ab8608086018261515c565b5060a0830151614acb60a08601826143c7565b5060c0830151614ade60c08601826143c7565b5060e0830151614af160e086018261515c565b50610100830151848203610100860152614b0b8282614516565b915050610120830151848203610120860152614b278282614516565b915050610140830151614b3e610140860182614756565b50610160830151848203610160860152614b588282614516565b915050610180830151848203610180860152614b74828261506c565b9150506101a0830151614b8b6101a0860182614884565b508091505092915050565b604082016000820151614bac60008501826143c7565b506020820151614bbf602085018261517a565b50505050565b604082016000820151614bdb60008501826143c7565b506020820151614bee602085018261517a565b50505050565b604082016000808301549050614c098161597b565b614c1660008601826143c7565b50614c20816159e3565b614c2d602086018261517a565b5050505050565b6000608083016000830151614c4c6000860182615198565b506020830151614c5f602086018261515c565b506040830151614c72604086018261515c565b5060608301518482036060860152614c8a82826143e5565b9150508091505092915050565b6000608083016000830151614caf6000860182615198565b506020830151614cc26020860182615198565b5060408301518482036040860152614cda82826146d2565b91505060608301518482036060860152614cf482826144a1565b9150508091505092915050565b600060c083016000830151614d19600086018261513e565b506020830151614d2c6020860182614756565b506040830151614d3f604086018261513e565b5060608301518482036060860152614d578282614910565b91505060808301518482036080860152614d718282614c97565b91505060a083015184820360a0860152614d8b82826145e9565b9150508091505092915050565b6000608083016000830151614db0600086018261513e565b506020830151614dc3602086018261513e565b506040830151614dd66040860182614756565b5060608301518482036060860152614dee82826145e9565b9150508091505092915050565b6000608083016000830151614e13600086018261513e565b506020830151614e26602086018261513e565b506040830151614e396040860182614756565b5060608301518482036060860152614e5182826145e9565b9150508091505092915050565b600061014083016000830151614e77600086018261515c565b506020830151614e8a6020860182614b96565b506040830151614e9d606086018261515c565b506060830151614eb060808601826143c7565b506080830151614ec360a086018261513e565b5060a083015184820360c0860152614edb828261506c565b91505060c0830151614ef060e08601826143c7565b5060e0830151614f046101008601826143c7565b50610100830151614f196101208601826143c7565b508091505092915050565b600061014083016000808401549050614f3c816159af565b614f49600087018261515c565b5060018401614f5b6020870182614bf4565b5060028401549050614f6c816159af565b614f79606087018261515c565b50614f83816159fd565b614f9060808701826143c7565b5060038401549050614fa181615995565b614fae60a087018261513e565b506004840185830360c0870152614fc583826150e6565b92505060068401549050614fd88161597b565b614fe560e08701826143c7565b5060078401549050614ff68161597b565b6150046101008701826143c7565b50600884015490506150158161597b565b6150236101208701826143c7565b50819250505092915050565b60006040830160008301516150476000860182615198565b506020830151848203602086015261505f8282614c34565b9150508091505092915050565b60006040830160008301516150846000860182615198565b506020830151848203602086015261509c828261478b565b9150508091505092915050565b60006040830160008301516150c16000860182615198565b50602083015184820360208601526150d9828261478b565b9150508091505092915050565b60006040830160008084015490506150fd816159c9565b61510a6000870182615198565b5060018401858303602087015261512183826147f5565b925050819250505092915050565b6151388161589a565b82525050565b615147816158c8565b82525050565b615156816158c8565b82525050565b615165816158d2565b82525050565b615174816158d2565b82525050565b615183816158e2565b82525050565b615192816158e2565b82525050565b6151a1816158f6565b82525050565b60006151b382856147c4565b91506151bf8284614774565b6020820191508190509392505050565b60006020820190506151e460008301846143d6565b92915050565b60006040820190506151ff60008301856143b8565b61520c60208301846143d6565b9392505050565b600060608201905061522860008301866143b8565b61523560208301856143d6565b615242604083018461514d565b949350505050565b600060408201905061525f60008301856143d6565b61526c602083018461514d565b9392505050565b600060608201905061528860008301866143d6565b6152956020830185615189565b6152a260408301846143d6565b949350505050565b600060208201905081810360008301526152c48184614443565b905092915050565b600060208201905081810360008301526152e68184614574565b905092915050565b60006020820190508181036000830152615308818461465e565b905092915050565b60006020820190506153256000830184614747565b92915050565b60006020820190506153406000830184614765565b92915050565b600060208201905081810360008301526153608184614a53565b905092915050565b600060208201905081810360008301526153828184614d01565b905092915050565b600060208201905081810360008301526153a48184614dfb565b905092915050565b60006020820190506153c1600083018461514d565b92915050565b60006040820190506153dc600083018561514d565b6153e96020830184614747565b9392505050565b6000604082019050615405600083018561514d565b6154126020830184614765565b9392505050565b60006101408201905061542f600083018c61516b565b61543c602083018b614bc5565b615449606083018a61516b565b61545660808301896143d6565b61546360a083018861514d565b81810360c083015261547581876150a9565b905061548460e08301866143d6565b6154926101008301856143d6565b6154a06101208301846143d6565b9a9950505050505050505050565b6000604051905081810181811067ffffffffffffffff821117156154d5576154d4615a21565b5b8060405250919050565b600067ffffffffffffffff8211156154fa576154f9615a21565b5b602082029050602081019050919050565b600067ffffffffffffffff82111561552657615525615a21565b5b602082029050602081019050919050565b600067ffffffffffffffff82111561555257615551615a21565b5b602082029050602081019050919050565b600067ffffffffffffffff82111561557e5761557d615a21565b5b602082029050602081019050919050565b600067ffffffffffffffff8211156155aa576155a9615a21565b5b602082029050602081019050919050565b600067ffffffffffffffff8211156155d6576155d5615a21565b5b602082029050602081019050919050565b600067ffffffffffffffff82111561560257615601615a21565b5b601f19601f8301169050602081019050919050565b6000819050602082019050919050565b6000819050602082019050919050565b6000819050602082019050919050565b6000819050602082019050919050565b6000819050602082019050919050565b60008190508160005260206000209050919050565b6000819050602082019050919050565b60008190508160005260206000209050919050565b600081519050919050565b600081519050919050565b600081519050919050565b600081519050919050565b600081519050919050565b600081549050919050565b600081519050919050565b600081519050919050565b6000602082019050919050565b6000602082019050919050565b6000602082019050919050565b6000602082019050919050565b6000602082019050919050565b6000600982019050919050565b6000602082019050919050565b600082825260208201905092915050565b600082825260208201905092915050565b600082825260208201905092915050565b600082825260208201905092915050565b600082825260208201905092915050565b600082825260208201905092915050565b600082825260208201905092915050565b600082825260208201905092915050565b600082825260208201905092915050565b600081905092915050565b600073ffffffffffffffffffffffffffffffffffffffff82169050919050565b6000819050919050565b600063ffffffff82169050919050565b600067ffffffffffffffff82169050919050565b600060ff82169050919050565b600061585e826158a8565b9050919050565b60008115159050919050565b6000819050919050565b600061588682615853565b9050919050565b60008160030b9050919050565b600061ffff82169050919050565b600073ffffffffffffffffffffffffffffffffffffffff82169050919050565b6000819050919050565b600063ffffffff82169050919050565b600067ffffffffffffffff82169050919050565b600060ff82169050919050565b600061590e82615915565b9050919050565b600061592082615927565b9050919050565b6000615932826158a8565b9050919050565b82818337600083830152505050565b60005b8381101561596657808201518184015260208101905061594b565b83811115615975576000848401525b50505050565b600061598e61598983615a34565b6157f8565b9050919050565b60006159a86159a383615a34565b615818565b9050919050565b60006159c26159bd83615a34565b615822565b9050919050565b60006159dc6159d783615a34565b615846565b9050919050565b60006159f66159f183615a41565b615832565b9050919050565b6000615a10615a0b83615a4e565b6157f8565b9050919050565b6000819050919050565bfe5b6000601f19601f8301169050919050565b60008160001c9050919050565b60008160a01c9050919050565b60008160201c9050919050565b615a6481615853565b8114615a6f57600080fd5b50565b615a7b81615865565b8114615a8657600080fd5b50565b615a9281615871565b8114615a9d57600080fd5b50565b615aa98161587b565b8114615ab457600080fd5b50565b615ac08161588d565b8114615acb57600080fd5b50565b615ad78161589a565b8114615ae257600080fd5b50565b615aee816158c8565b8114615af957600080fd5b50565b615b05816158d2565b8114615b1057600080fd5b50565b615b1c816158e2565b8114615b2757600080fd5b50565b615b33816158f6565b8114615b3e57600080fd5b5056fea2646970667358221220ddad22959cddbc7adfab5f5bd09981ddf078440af95517d3b7a71377f3e1ec3864736f6c63430007060033",
  "immutableReferences": {},
  "source": "// SPDX-License-Identifier: MIT\r\n// Bridge between ethereum and verus\r\n\r\npragma solidity >=0.6.0 <0.9.0;\r\npragma experimental ABIEncoderV2;\r\n\r\nimport \"../Libraries/VerusObjects.sol\";\r\nimport \"../Libraries/VerusObjectsCommon.sol\";\r\nimport \"../Libraries/VerusConstants.sol\";\r\nimport \"./TokenManager.sol\";\r\nimport \"../MMR/VerusProof.sol\";\r\nimport \"./Token.sol\";\r\nimport \"./VerusSerializer.sol\";\r\nimport \"../VerusNotarizer/VerusNotarizer.sol\";\r\nimport \"./VerusCrossChainExport.sol\";\r\n\r\ncontract VerusBridge {\r\n\r\n    //list of erc20 tokens that can be accessed,\r\n    //the contract must be able to mint and burn coins on the contract\r\n    //defines the tokenManager which creates the erc20\r\n    TokenManager tokenManager;\r\n    VerusSerializer verusSerializer;\r\n    VerusProof verusProof;\r\n    VerusNotarizer verusNotarizer;\r\n    VerusCrossChainExport verusCCE;\r\n\r\n    //THE CONTRACT OWNER NEEDS TO BE REPLACED BY A SET OF NOTARIES\r\n    address contractOwner;\r\n    bool public deprecated = false; //indicates if the cotnract is deprecated\r\n    address public upgradedAddress;\r\n    uint256 public feesHeld = 0;\r\n    uint256 public ethHeld = 0;\r\n    uint256 public poolSize = 0;\r\n    uint public firstBlock = 0;\r\n\r\n    //used to prove the transfers the index of this corresponds to the index of the \r\n    bytes32[] public readyExportHashes;\r\n    //DO NOT ADD ANY VARIABLES ABOVE THIS POINT\r\n    //used to store a list of currencies and an amount\r\n    VerusObjects.CReserveTransfer[] private _pendingExports;\r\n    \r\n    //stores the blockheight of each pending transfer\r\n    //the export set holds the summary of a set of exports\r\n    VerusObjects.CReserveTransfer[][] public _readyExports;\r\n    \r\n    //stores the index corresponds to the block\r\n    VerusObjects.LastImport public lastimport;\r\n    mapping(bytes32 => bool) public processedTxids;\r\n    mapping (uint => VerusObjects.blockCreated) public readyExportsByBlock;\r\n    mapping (address => uint256) public claimableFees;\r\n    \r\n  //  bytes[] public SerializedCRTs;\r\n  //  bytes[] public SerializedCCEs;\r\n  //  bytes32[] public hashedCRTs;\r\n    uint public lastTxidimport;\r\n    \r\n    \r\n    event Deprecate(address newAddress);\r\n    \r\n    constructor(address verusProofAddress,\r\n        address tokenManagerAddress,\r\n        address verusSerializerAddress,\r\n        address verusNotarizerAddress,\r\n        address verusCCEAddress,\r\n        uint256 _poolSize) public {\r\n        contractOwner = msg.sender; \r\n        verusProof =  VerusProof(verusProofAddress);\r\n        tokenManager = TokenManager(tokenManagerAddress);\r\n        verusSerializer = VerusSerializer(verusSerializerAddress);\r\n        verusNotarizer = VerusNotarizer(verusNotarizerAddress);\r\n        verusCCE = VerusCrossChainExport(verusCCEAddress);\r\n        poolSize = _poolSize;\r\n        lastimport.height = 0;\r\n        lastimport.txid = 0x00000000000000000000000000000000;\r\n    }\r\n\r\n    function isPoolAvailable(uint256 _feesAmount,address _feeCurrencyID) private view returns(bool){\r\n\r\n        if(0 < verusNotarizer.poolAvailable(VerusConstants.VerusBridgeAddress) &&\r\n            verusNotarizer.poolAvailable(VerusConstants.VerusBridgeAddress) < uint32(block.number)) {\r\n            //the bridge has been activated\r\n            return false;\r\n        } else {\r\n            assert(_feeCurrencyID == VerusConstants.VerusCurrencyId);\r\n            assert(poolSize >= _feesAmount);\r\n            return true;\r\n        }\r\n    }\r\n\r\n    function convertFromVerusNumber(uint256 a,uint8 decimals) public pure returns (uint256) {\r\n         uint8 power = 10; //default value for 18\r\n         uint256 c = a;\r\n        if(decimals > 8 ) {\r\n            power = decimals - 8;// number of decimals in verus\r\n            c = a * (10 ** power);\r\n        }else if(decimals < 8){\r\n            power = 8 - decimals;// number of decimals in verus\r\n            c = a / (10 ** power);\r\n        }\r\n      \r\n        return c;\r\n    }\r\n\r\n    function convertToVerusNumber(uint256 a,uint8 decimals) public pure returns (uint256) {\r\n         uint8 power = 10; //default value for 18\r\n         uint256 c = a;\r\n        if(decimals > 8 ) {\r\n            power = decimals - 8;// number of decimals in verus\r\n            c = a / (10 ** power);\r\n        }else if(decimals < 8){\r\n            power = 8 - decimals;// number of decimals in verus\r\n            c = a * (10 ** power);\r\n        }\r\n      \r\n        return c;\r\n    }\r\n \r\n    function export(VerusObjects.CReserveTransfer memory transfer) public payable{\r\n        assert(!deprecated);\r\n        uint256 requiredFees =  VerusConstants.transactionFee;\r\n        uint256 verusFees = VerusConstants.verusTransactionFee;\r\n\r\n       if(readyExportsByBlock[block.number].created){\r\n           uint exportIndex = readyExportsByBlock[block.number].index;\r\n          assert( _readyExports[exportIndex][0].destcurrencyid == transfer.destcurrencyid);\r\n         \r\n        }\r\n\r\n        //if there is fees in the pool spend those and not the amount that\r\n        if(isPoolAvailable(transfer.fees,transfer.feecurrencyid)) {\r\n            poolSize -= VerusConstants.verusTransactionFee;\r\n        } else {\r\n            //if fees are being paid in verustest we need to take it from the msg sender\r\n            assert(transfer.feecurrencyid == VerusConstants.VerusCurrencyId || transfer.feecurrencyid == VerusConstants.VEth);\r\n            if(transfer.feecurrencyid == VerusConstants.VerusCurrencyId) {\r\n                \r\n                //burn the required amount of vrsctest from the user\r\n                Token token = tokenManager.getTokenERC20(transfer.feecurrencyid);\r\n                uint256 VRSTallowedTokens = token.allowance(msg.sender,address(this));\r\n                assert( VRSTallowedTokens >= convertFromVerusNumber(verusFees,18));\r\n                token.transferFrom(msg.sender,address(this), convertFromVerusNumber(verusFees,18)); \r\n                //transfer the tokens to this contract\r\n                token.burn(verusFees); \r\n            \r\n            } else if(transfer.feecurrencyid == VerusConstants.VEth){\r\n                requiredFees = requiredFees * 3;\r\n                assert(msg.value >= requiredFees + convertFromVerusNumber(transfer.fees,18));    \r\n            }\r\n            //if the fees are being paid in veth then require the user to send it\r\n            //fees need to be paid for verus as well\r\n            \r\n        }\r\n               \r\n        if(transfer.currencyvalue.currency != VerusConstants.VEth){\r\n            //check there are enough fees sent\r\n            feesHeld += msg.value;\r\n            //check that the token is registered\r\n            Token token = tokenManager.getTokenERC20(transfer.currencyvalue.currency);\r\n            uint256 allowedTokens = token.allowance(msg.sender,address(this));\r\n            uint256 tokenAmount = convertFromVerusNumber(transfer.currencyvalue.amount,token.decimals()); //convert to wei from verus satoshis\r\n            assert( allowedTokens >= tokenAmount);\r\n            //transfer the tokens to this contract\r\n            token.transferFrom(msg.sender,address(this),tokenAmount); \r\n            token.approve(address(tokenManager),tokenAmount);\r\n            //give an approval for the tokenmanagerinstance to spend the tokens\r\n            tokenManager.exportERC20Tokens(address(token), tokenAmount);  //total amount kept as wei until export to verus\r\n        } else {\r\n            //handle a vEth transfer\r\n            transfer.currencyvalue.amount = uint64(convertToVerusNumber(msg.value - VerusConstants.transactionFee,18));\r\n            ethHeld += transfer.currencyvalue.amount;  \r\n            feesHeld += VerusConstants.transactionFee;\r\n        }\r\n        _createExports(transfer);\r\n    }\r\n\r\n    function _createExports(VerusObjects.CReserveTransfer memory newTransaction) private {\r\n        uint currentHeight = block.number;\r\n        uint exportIndex;\r\n        bool newHash;\r\n\r\n        //check if the current block height has a set of transfers associated with it if so add to the existing array\r\n        if(readyExportsByBlock[currentHeight].created) {\r\n            //append to an existing array of transfers\r\n            exportIndex = readyExportsByBlock[currentHeight].index;\r\n            _readyExports[exportIndex].push(newTransaction);\r\n            newHash = false;\r\n        }\r\n        else {\r\n            _pendingExports.push(newTransaction);\r\n            _readyExports.push(_pendingExports);\r\n            exportIndex = _readyExports.length - 1;\r\n            readyExportsByBlock[currentHeight] = VerusObjects.blockCreated(exportIndex,true);\r\n            delete _pendingExports;\r\n            newHash = true;\r\n        }\r\n       \r\n        //create a cross chain export, serialize it and hash it\r\n        \r\n     //   VerusObjects.CCrossChainExport memory CCCE = ;\r\n        //create a hash of the CCCE\r\n        \r\n        bytes memory serializedCCE = verusSerializer.serializeCCrossChainExport(verusCCE.generateCCE(_readyExports[exportIndex]));\r\n       // bytes memory serializedTransfers = verusSerializer.serializeCReserveTransfers(_readyExports[exportIndex],false);\r\n      //  SerializedCRTs.push(serializedTransfers);\r\n        //bytes32 hashedTransfers = keccak256(serializedTransfers);\r\n       // bytes memory toHash = abi.encodePacked(serializedCCE,serializedTransfers);\r\n       // SerializedCCEs.push(toHash);\r\n      //  hashedCRTs.push(hashedTransfers);\r\n        //bytes32 hashedTransfers = keccak256(serializedTransfers);\r\n        //bytes memory toHash = abi.encodePacked(serializedCCE,serializedTransfers);\r\n        bytes32 hashedCCE;\r\n        bytes32 lastProofRoot = 0;\r\n        if(exportIndex != 0)  lastProofRoot = readyExportHashes[exportIndex -1];\r\n        hashedCCE = keccak256(abi.encodePacked(serializedCCE,lastProofRoot));\r\n        \r\n        //add the hashed value\r\n        if(newHash) readyExportHashes.push(hashedCCE);\r\n        else readyExportHashes[exportIndex] = hashedCCE;\r\n        if(firstBlock == 0) firstBlock = currentHeight;\r\n        \r\n    }\r\n\r\n    function getlastimportheight() public view returns(uint) {\r\n        return lastTxidimport;\r\n    }\r\n    /***\r\n     * Import from Verus functions\r\n     ***/\r\n      function checkImports(bytes32[] memory _imports) public view returns(bytes32[] memory) {\r\n        //loop through the transfers and return a list of unprocessed\r\n        bytes32[] memory txidList = new bytes32[](_imports.length);\r\n        uint iterator;\r\n        for(uint i = 0; i < _imports.length; i++){\r\n            if(processedTxids[_imports[i]] != true){\r\n                txidList[iterator] = _imports[i];\r\n                iterator++;\r\n            }\r\n        }\r\n        return txidList;\r\n    }\r\n\r\n    function submitImports(VerusObjects.CReserveTransferImport[] memory _imports) public {\r\n        //loop through the transfers and process\r\n        for(uint i = 0; i < _imports.length; i++){\r\n           _createImports(_imports[i]);\r\n        }\r\n    }\r\n\r\n    function bytesToAddress(bytes memory bys) private pure returns (address addr) {\r\n    assembly {\r\n      addr := mload(add(bys,20))\r\n    } \r\n}\r\n\r\n    function _createImports(VerusObjects.CReserveTransferImport memory _import) public returns(bool){\r\n\r\n        if(processedTxids[_import.txid] == true) return false; \r\n        bytes32 txidfound;\r\n        bytes memory sliced = _import.partialtransactionproof.components[0].elVchObj;\r\n        assembly {\r\n            txidfound := mload(add(sliced, 32))\r\n        }\r\n        assert(_import.txid == txidfound); //the txid should be present in the header\r\n        bool proved = verusProof.proveImports(_import);\r\n        assert(proved);\r\n        processedTxids[_import.txid] = true;\r\n        if(lastTxidimport < _import.height)\r\n            lastTxidimport = _import.height;\r\n        uint256 amount;\r\n        //check the transfers were in the hash.\r\n        for(uint i = 0; i < _import.transfers.length; i++){\r\n            //handle eth transactions\r\n            amount = convertFromVerusNumber(uint256(_import.transfers[i].currencyvalue.amount),18);\r\n            if(_import.transfers[i].currencyvalue.currency == VerusConstants.VEth) {\r\n                //cast the destination as an ethAddress\r\n                    assert(amount <= address(this).balance);\r\n                    sendEth(amount,payable(bytesToAddress(_import.transfers[i].destination.destinationaddress)));\r\n                    ethHeld -= amount;\r\n        \r\n           } else {\r\n                //handle erc20 transactions  \r\n                //amount convesrion is handled in token manager\r\n                tokenManager.importERC20Tokens(_import.transfers[i].currencyvalue.currency,\r\n                    _import.transfers[i].currencyvalue.amount,\r\n                    bytesToAddress(_import.transfers[i].destination.destinationaddress));\r\n           }\r\n            //handle the distributions of the fees\r\n            //add them into the fees array to be claimed by the message sender\r\n            if(_import.transfers[i].fees > 0 && _import.transfers[i].feecurrencyid == VerusConstants.VEth){\r\n                claimableFees[msg.sender] = claimableFees[msg.sender] + _import.transfers[i].fees;\r\n            }\r\n        }\r\n        return true;\r\n    }\r\n    \r\n    function getReadyExportsByBlock(uint _blockNumber) public view returns(VerusObjects.CReserveTransferSet memory){\r\n        //need a transferset for each position not each block\r\n        //retrieve a block get the indexes, create a transfer set for each index add those to the array\r\n        uint eIndex = readyExportsByBlock[_blockNumber].index;\r\n        VerusObjects.CReserveTransferSet memory output = VerusObjects.CReserveTransferSet(\r\n            eIndex, //position in array\r\n            _blockNumber, //blockHeight\r\n            //readyExportHashes[eIndex],\r\n            //DO WE NEED TO DO THIS\r\n            readyExportHashes[eIndex],\r\n            _readyExports[eIndex]\r\n        );\r\n        return output;\r\n    }\r\n\r\n    function getReadyExportsByRange(uint _startBlock,uint _endBlock) public view returns(VerusObjects.CReserveTransferSet[] memory){\r\n        //calculate the size that the return array will be to initialise it\r\n        uint outputSize = 0;\r\n        if(_startBlock < firstBlock) _startBlock = firstBlock;\r\n        for(uint i = _startBlock; i <= _endBlock; i++){\r\n            if(readyExportsByBlock[i].created) outputSize += 1;\r\n        }\r\n\r\n        VerusObjects.CReserveTransferSet[] memory output = new VerusObjects.CReserveTransferSet[](outputSize);\r\n        uint outputPosition = 0;\r\n        for(uint blockNumber = _startBlock;blockNumber <= _endBlock;blockNumber++){\r\n            if(readyExportsByBlock[blockNumber].created) {\r\n                output[outputPosition] = getReadyExportsByBlock(blockNumber);\r\n                outputPosition++;\r\n            }\r\n        }\r\n        return output;        \r\n    }\r\n \r\n    function sendEth(uint256 _ethAmount,address payable _ethAddress) private {\r\n        assert(!deprecated);\r\n        //do we take fees here????\r\n        \r\n        _ethAddress.transfer(_ethAmount);\r\n    }\r\n   \r\n    function claimFees() public returns(uint256){\r\n        assert(!deprecated);\r\n        if(claimableFees[msg.sender] > 0 ){\r\n            sendEth(claimableFees[msg.sender],msg.sender);\r\n        }\r\n        return claimableFees[msg.sender];\r\n\r\n    }\r\n/*\r\n    function deprecate(address _upgradedAddress,bytes32 _addressHash,uint8[] memory _vs,bytes32[] memory _rs,bytes32[] memory _ss) public{\r\n        if(verusNotarizer.notarizedDeprecation(_upgradedAddress, _addressHash, _vs, _rs, _ss)){\r\n            deprecated = true;\r\n            upgradedAddress = _upgradedAddress;\r\n            Deprecate(_upgradedAddress);\r\n        }\r\n    }\r\n*/\r\n\r\n}\r\n",
  "sourcePath": "D:\\dev\\Ethereum-verus-notarisation\\contracts\\VerusBridge\\VerusBridge.sol",
  "compiler": {
    "name": "solc",
    "version": "0.7.6+commit.7338295f.Emscripten.clang"
  },
  "schemaVersion": "3.4.3",
  "updatedAt": "2021-10-12T07:58:32.380Z",
  "networkType": "ethereum",
  "devdoc": {
    "kind": "dev",
    "methods": {},
    "version": 1
  },
  "userdoc": {
    "kind": "user",
    "methods": {},
    "version": 1
  }
}