{
  "contractName": "VerusNotarizer",
  "abi": [
    {
      "inputs": [
        {
          "internalType": "address",
          "name": "_verusBLAKE2bAddress",
          "type": "address"
        },
        {
          "internalType": "address",
          "name": "_verusSerializerAddress",
          "type": "address"
        },
        {
          "internalType": "address[]",
          "name": "_notaries",
          "type": "address[]"
        },
        {
          "internalType": "address[]",
          "name": "_notariesEthAddress",
          "type": "address[]"
        }
      ],
      "stateMutability": "nonpayable",
      "type": "constructor"
    },
    {
      "anonymous": false,
      "inputs": [
        {
          "indexed": false,
          "internalType": "address",
          "name": "newAddress",
          "type": "address"
        }
      ],
      "name": "Deprecate",
      "type": "event"
    },
    {
      "anonymous": false,
      "inputs": [
        {
          "components": [
            {
              "internalType": "uint32",
              "name": "version",
              "type": "uint32"
            },
            {
              "internalType": "uint32",
              "name": "flags",
              "type": "uint32"
            },
            {
              "components": [
                {
                  "internalType": "uint8",
                  "name": "destinationtype",
                  "type": "uint8"
                },
                {
                  "internalType": "bytes",
                  "name": "destinationaddress",
                  "type": "bytes"
                }
              ],
              "internalType": "struct VerusObjectsCommon.CTransferDestination",
              "name": "proposer",
              "type": "tuple"
            },
            {
              "internalType": "address",
              "name": "currencyid",
              "type": "address"
            },
            {
              "components": [
                {
                  "internalType": "uint16",
                  "name": "version",
                  "type": "uint16"
                },
                {
                  "internalType": "uint16",
                  "name": "flags",
                  "type": "uint16"
                },
                {
                  "internalType": "address",
                  "name": "currencyid",
                  "type": "address"
                },
                {
                  "internalType": "uint160[]",
                  "name": "currencies",
                  "type": "uint160[]"
                },
                {
                  "internalType": "int32[]",
                  "name": "weights",
                  "type": "int32[]"
                },
                {
                  "internalType": "int64[]",
                  "name": "reserves",
                  "type": "int64[]"
                },
                {
                  "internalType": "int64",
                  "name": "initialsupply",
                  "type": "int64"
                },
                {
                  "internalType": "int64",
                  "name": "emitted",
                  "type": "int64"
                },
                {
                  "internalType": "int64",
                  "name": "supply",
                  "type": "int64"
                },
                {
                  "internalType": "int64",
                  "name": "primarycurrencyout",
                  "type": "int64"
                },
                {
                  "internalType": "int64",
                  "name": "preconvertedout",
                  "type": "int64"
                },
                {
                  "internalType": "int64",
                  "name": "primarycurrencyfees",
                  "type": "int64"
                },
                {
                  "internalType": "int64",
                  "name": "primarycurrencyconversionfees",
                  "type": "int64"
                },
                {
                  "internalType": "int64[]",
                  "name": "reservein",
                  "type": "int64[]"
                },
                {
                  "internalType": "int64[]",
                  "name": "primarycurrencyin",
                  "type": "int64[]"
                },
                {
                  "internalType": "int64[]",
                  "name": "reserveout",
                  "type": "int64[]"
                },
                {
                  "internalType": "int64[]",
                  "name": "conversionprice",
                  "type": "int64[]"
                },
                {
                  "internalType": "int64[]",
                  "name": "viaconversionprice",
                  "type": "int64[]"
                },
                {
                  "internalType": "int64[]",
                  "name": "fees",
                  "type": "int64[]"
                },
                {
                  "internalType": "int32[]",
                  "name": "priorweights",
                  "type": "int32[]"
                },
                {
                  "internalType": "int64[]",
                  "name": "conversionfees",
                  "type": "int64[]"
                }
              ],
              "internalType": "struct VerusObjectsNotarization.CCoinbaseCurrencyState",
              "name": "currencystate",
              "type": "tuple"
            },
            {
              "internalType": "uint32",
              "name": "notarizationheight",
              "type": "uint32"
            },
            {
              "components": [
                {
                  "internalType": "bytes32",
                  "name": "hash",
                  "type": "bytes32"
                },
                {
                  "internalType": "uint32",
                  "name": "n",
                  "type": "uint32"
                }
              ],
              "internalType": "struct VerusObjectsNotarization.CUTXORef",
              "name": "prevnotarization",
              "type": "tuple"
            },
            {
              "internalType": "bytes32",
              "name": "hashprevnotarization",
              "type": "bytes32"
            },
            {
              "internalType": "uint32",
              "name": "prevheight",
              "type": "uint32"
            },
            {
              "components": [
                {
                  "internalType": "address",
                  "name": "currencyid",
                  "type": "address"
                },
                {
                  "components": [
                    {
                      "internalType": "uint16",
                      "name": "version",
                      "type": "uint16"
                    },
                    {
                      "internalType": "uint16",
                      "name": "flags",
                      "type": "uint16"
                    },
                    {
                      "internalType": "address",
                      "name": "currencyid",
                      "type": "address"
                    },
                    {
                      "internalType": "uint160[]",
                      "name": "currencies",
                      "type": "uint160[]"
                    },
                    {
                      "internalType": "int32[]",
                      "name": "weights",
                      "type": "int32[]"
                    },
                    {
                      "internalType": "int64[]",
                      "name": "reserves",
                      "type": "int64[]"
                    },
                    {
                      "internalType": "int64",
                      "name": "initialsupply",
                      "type": "int64"
                    },
                    {
                      "internalType": "int64",
                      "name": "emitted",
                      "type": "int64"
                    },
                    {
                      "internalType": "int64",
                      "name": "supply",
                      "type": "int64"
                    },
                    {
                      "internalType": "int64",
                      "name": "primarycurrencyout",
                      "type": "int64"
                    },
                    {
                      "internalType": "int64",
                      "name": "preconvertedout",
                      "type": "int64"
                    },
                    {
                      "internalType": "int64",
                      "name": "primarycurrencyfees",
                      "type": "int64"
                    },
                    {
                      "internalType": "int64",
                      "name": "primarycurrencyconversionfees",
                      "type": "int64"
                    },
                    {
                      "internalType": "int64[]",
                      "name": "reservein",
                      "type": "int64[]"
                    },
                    {
                      "internalType": "int64[]",
                      "name": "primarycurrencyin",
                      "type": "int64[]"
                    },
                    {
                      "internalType": "int64[]",
                      "name": "reserveout",
                      "type": "int64[]"
                    },
                    {
                      "internalType": "int64[]",
                      "name": "conversionprice",
                      "type": "int64[]"
                    },
                    {
                      "internalType": "int64[]",
                      "name": "viaconversionprice",
                      "type": "int64[]"
                    },
                    {
                      "internalType": "int64[]",
                      "name": "fees",
                      "type": "int64[]"
                    },
                    {
                      "internalType": "int32[]",
                      "name": "priorweights",
                      "type": "int32[]"
                    },
                    {
                      "internalType": "int64[]",
                      "name": "conversionfees",
                      "type": "int64[]"
                    }
                  ],
                  "internalType": "struct VerusObjectsNotarization.CCoinbaseCurrencyState",
                  "name": "currencystate",
                  "type": "tuple"
                }
              ],
              "internalType": "struct VerusObjectsNotarization.CurrencyStates[]",
              "name": "currencystates",
              "type": "tuple[]"
            },
            {
              "components": [
                {
                  "internalType": "int16",
                  "name": "version",
                  "type": "int16"
                },
                {
                  "internalType": "int16",
                  "name": "cprtype",
                  "type": "int16"
                },
                {
                  "internalType": "address",
                  "name": "systemid",
                  "type": "address"
                },
                {
                  "internalType": "uint32",
                  "name": "rootheight",
                  "type": "uint32"
                },
                {
                  "internalType": "bytes32",
                  "name": "stateroot",
                  "type": "bytes32"
                },
                {
                  "internalType": "bytes32",
                  "name": "blockhash",
                  "type": "bytes32"
                },
                {
                  "internalType": "bytes32",
                  "name": "compactpower",
                  "type": "bytes32"
                }
              ],
              "internalType": "struct VerusObjectsNotarization.CProofRoot[]",
              "name": "proofroots",
              "type": "tuple[]"
            },
            {
              "components": [
                {
                  "internalType": "string",
                  "name": "networkaddress",
                  "type": "string"
                },
                {
                  "internalType": "address",
                  "name": "nodeidentity",
                  "type": "address"
                }
              ],
              "internalType": "struct VerusObjectsNotarization.CNodeData[]",
              "name": "nodes",
              "type": "tuple[]"
            }
          ],
          "indexed": false,
          "internalType": "struct VerusObjectsNotarization.CPBaaSNotarization",
          "name": "",
          "type": "tuple"
        },
        {
          "indexed": false,
          "internalType": "uint32",
          "name": "notarizedDataHeight",
          "type": "uint32"
        }
      ],
      "name": "NewBlock",
      "type": "event"
    },
    {
      "inputs": [
        {
          "internalType": "uint256",
          "name": "",
          "type": "uint256"
        }
      ],
      "name": "blockHeights",
      "outputs": [
        {
          "internalType": "uint32",
          "name": "",
          "type": "uint32"
        }
      ],
      "stateMutability": "view",
      "type": "function",
      "constant": true
    },
    {
      "inputs": [],
      "name": "deprecated",
      "outputs": [
        {
          "internalType": "bool",
          "name": "",
          "type": "bool"
        }
      ],
      "stateMutability": "view",
      "type": "function",
      "constant": true
    },
    {
      "inputs": [
        {
          "internalType": "address",
          "name": "",
          "type": "address"
        }
      ],
      "name": "komodoNotaries",
      "outputs": [
        {
          "internalType": "bool",
          "name": "",
          "type": "bool"
        }
      ],
      "stateMutability": "view",
      "type": "function",
      "constant": true
    },
    {
      "inputs": [],
      "name": "lastBlockHeight",
      "outputs": [
        {
          "internalType": "uint32",
          "name": "",
          "type": "uint32"
        }
      ],
      "stateMutability": "view",
      "type": "function",
      "constant": true
    },
    {
      "inputs": [
        {
          "internalType": "uint32",
          "name": "",
          "type": "uint32"
        }
      ],
      "name": "notarizedProofRoots",
      "outputs": [
        {
          "internalType": "int16",
          "name": "version",
          "type": "int16"
        },
        {
          "internalType": "int16",
          "name": "cprtype",
          "type": "int16"
        },
        {
          "internalType": "address",
          "name": "systemid",
          "type": "address"
        },
        {
          "internalType": "uint32",
          "name": "rootheight",
          "type": "uint32"
        },
        {
          "internalType": "bytes32",
          "name": "stateroot",
          "type": "bytes32"
        },
        {
          "internalType": "bytes32",
          "name": "blockhash",
          "type": "bytes32"
        },
        {
          "internalType": "bytes32",
          "name": "compactpower",
          "type": "bytes32"
        }
      ],
      "stateMutability": "view",
      "type": "function",
      "constant": true
    },
    {
      "inputs": [
        {
          "internalType": "uint32",
          "name": "",
          "type": "uint32"
        }
      ],
      "name": "notarizedStateRoots",
      "outputs": [
        {
          "internalType": "bytes32",
          "name": "",
          "type": "bytes32"
        }
      ],
      "stateMutability": "view",
      "type": "function",
      "constant": true
    },
    {
      "inputs": [
        {
          "internalType": "address",
          "name": "",
          "type": "address"
        }
      ],
      "name": "notaryAddressMapping",
      "outputs": [
        {
          "internalType": "address",
          "name": "",
          "type": "address"
        }
      ],
      "stateMutability": "view",
      "type": "function",
      "constant": true
    },
    {
      "inputs": [
        {
          "internalType": "address",
          "name": "",
          "type": "address"
        }
      ],
      "name": "poolAvailable",
      "outputs": [
        {
          "internalType": "uint32",
          "name": "",
          "type": "uint32"
        }
      ],
      "stateMutability": "view",
      "type": "function",
      "constant": true
    },
    {
      "inputs": [],
      "name": "upgradedAddress",
      "outputs": [
        {
          "internalType": "address",
          "name": "",
          "type": "address"
        }
      ],
      "stateMutability": "view",
      "type": "function",
      "constant": true
    },
    {
      "inputs": [],
      "name": "getNotaries",
      "outputs": [
        {
          "internalType": "address[]",
          "name": "",
          "type": "address[]"
        }
      ],
      "stateMutability": "view",
      "type": "function",
      "constant": true
    },
    {
      "inputs": [
        {
          "internalType": "address",
          "name": "_notary",
          "type": "address"
        }
      ],
      "name": "isNotary",
      "outputs": [
        {
          "internalType": "bool",
          "name": "",
          "type": "bool"
        }
      ],
      "stateMutability": "view",
      "type": "function",
      "constant": true
    },
    {
      "inputs": [],
      "name": "currentNotariesRequired",
      "outputs": [
        {
          "internalType": "uint8",
          "name": "",
          "type": "uint8"
        }
      ],
      "stateMutability": "view",
      "type": "function",
      "constant": true
    },
    {
      "inputs": [
        {
          "internalType": "bytes32",
          "name": "_notarizedDataHash",
          "type": "bytes32"
        },
        {
          "internalType": "bytes32[]",
          "name": "_rs",
          "type": "bytes32[]"
        },
        {
          "internalType": "bytes32[]",
          "name": "_ss",
          "type": "bytes32[]"
        },
        {
          "internalType": "uint8[]",
          "name": "_vs",
          "type": "uint8[]"
        }
      ],
      "name": "isNotarized",
      "outputs": [
        {
          "internalType": "bool",
          "name": "",
          "type": "bool"
        }
      ],
      "stateMutability": "view",
      "type": "function",
      "constant": true
    },
    {
      "inputs": [
        {
          "components": [
            {
              "internalType": "uint32",
              "name": "version",
              "type": "uint32"
            },
            {
              "internalType": "uint32",
              "name": "flags",
              "type": "uint32"
            },
            {
              "components": [
                {
                  "internalType": "uint8",
                  "name": "destinationtype",
                  "type": "uint8"
                },
                {
                  "internalType": "bytes",
                  "name": "destinationaddress",
                  "type": "bytes"
                }
              ],
              "internalType": "struct VerusObjectsCommon.CTransferDestination",
              "name": "proposer",
              "type": "tuple"
            },
            {
              "internalType": "address",
              "name": "currencyid",
              "type": "address"
            },
            {
              "components": [
                {
                  "internalType": "uint16",
                  "name": "version",
                  "type": "uint16"
                },
                {
                  "internalType": "uint16",
                  "name": "flags",
                  "type": "uint16"
                },
                {
                  "internalType": "address",
                  "name": "currencyid",
                  "type": "address"
                },
                {
                  "internalType": "uint160[]",
                  "name": "currencies",
                  "type": "uint160[]"
                },
                {
                  "internalType": "int32[]",
                  "name": "weights",
                  "type": "int32[]"
                },
                {
                  "internalType": "int64[]",
                  "name": "reserves",
                  "type": "int64[]"
                },
                {
                  "internalType": "int64",
                  "name": "initialsupply",
                  "type": "int64"
                },
                {
                  "internalType": "int64",
                  "name": "emitted",
                  "type": "int64"
                },
                {
                  "internalType": "int64",
                  "name": "supply",
                  "type": "int64"
                },
                {
                  "internalType": "int64",
                  "name": "primarycurrencyout",
                  "type": "int64"
                },
                {
                  "internalType": "int64",
                  "name": "preconvertedout",
                  "type": "int64"
                },
                {
                  "internalType": "int64",
                  "name": "primarycurrencyfees",
                  "type": "int64"
                },
                {
                  "internalType": "int64",
                  "name": "primarycurrencyconversionfees",
                  "type": "int64"
                },
                {
                  "internalType": "int64[]",
                  "name": "reservein",
                  "type": "int64[]"
                },
                {
                  "internalType": "int64[]",
                  "name": "primarycurrencyin",
                  "type": "int64[]"
                },
                {
                  "internalType": "int64[]",
                  "name": "reserveout",
                  "type": "int64[]"
                },
                {
                  "internalType": "int64[]",
                  "name": "conversionprice",
                  "type": "int64[]"
                },
                {
                  "internalType": "int64[]",
                  "name": "viaconversionprice",
                  "type": "int64[]"
                },
                {
                  "internalType": "int64[]",
                  "name": "fees",
                  "type": "int64[]"
                },
                {
                  "internalType": "int32[]",
                  "name": "priorweights",
                  "type": "int32[]"
                },
                {
                  "internalType": "int64[]",
                  "name": "conversionfees",
                  "type": "int64[]"
                }
              ],
              "internalType": "struct VerusObjectsNotarization.CCoinbaseCurrencyState",
              "name": "currencystate",
              "type": "tuple"
            },
            {
              "internalType": "uint32",
              "name": "notarizationheight",
              "type": "uint32"
            },
            {
              "components": [
                {
                  "internalType": "bytes32",
                  "name": "hash",
                  "type": "bytes32"
                },
                {
                  "internalType": "uint32",
                  "name": "n",
                  "type": "uint32"
                }
              ],
              "internalType": "struct VerusObjectsNotarization.CUTXORef",
              "name": "prevnotarization",
              "type": "tuple"
            },
            {
              "internalType": "bytes32",
              "name": "hashprevnotarization",
              "type": "bytes32"
            },
            {
              "internalType": "uint32",
              "name": "prevheight",
              "type": "uint32"
            },
            {
              "components": [
                {
                  "internalType": "address",
                  "name": "currencyid",
                  "type": "address"
                },
                {
                  "components": [
                    {
                      "internalType": "uint16",
                      "name": "version",
                      "type": "uint16"
                    },
                    {
                      "internalType": "uint16",
                      "name": "flags",
                      "type": "uint16"
                    },
                    {
                      "internalType": "address",
                      "name": "currencyid",
                      "type": "address"
                    },
                    {
                      "internalType": "uint160[]",
                      "name": "currencies",
                      "type": "uint160[]"
                    },
                    {
                      "internalType": "int32[]",
                      "name": "weights",
                      "type": "int32[]"
                    },
                    {
                      "internalType": "int64[]",
                      "name": "reserves",
                      "type": "int64[]"
                    },
                    {
                      "internalType": "int64",
                      "name": "initialsupply",
                      "type": "int64"
                    },
                    {
                      "internalType": "int64",
                      "name": "emitted",
                      "type": "int64"
                    },
                    {
                      "internalType": "int64",
                      "name": "supply",
                      "type": "int64"
                    },
                    {
                      "internalType": "int64",
                      "name": "primarycurrencyout",
                      "type": "int64"
                    },
                    {
                      "internalType": "int64",
                      "name": "preconvertedout",
                      "type": "int64"
                    },
                    {
                      "internalType": "int64",
                      "name": "primarycurrencyfees",
                      "type": "int64"
                    },
                    {
                      "internalType": "int64",
                      "name": "primarycurrencyconversionfees",
                      "type": "int64"
                    },
                    {
                      "internalType": "int64[]",
                      "name": "reservein",
                      "type": "int64[]"
                    },
                    {
                      "internalType": "int64[]",
                      "name": "primarycurrencyin",
                      "type": "int64[]"
                    },
                    {
                      "internalType": "int64[]",
                      "name": "reserveout",
                      "type": "int64[]"
                    },
                    {
                      "internalType": "int64[]",
                      "name": "conversionprice",
                      "type": "int64[]"
                    },
                    {
                      "internalType": "int64[]",
                      "name": "viaconversionprice",
                      "type": "int64[]"
                    },
                    {
                      "internalType": "int64[]",
                      "name": "fees",
                      "type": "int64[]"
                    },
                    {
                      "internalType": "int32[]",
                      "name": "priorweights",
                      "type": "int32[]"
                    },
                    {
                      "internalType": "int64[]",
                      "name": "conversionfees",
                      "type": "int64[]"
                    }
                  ],
                  "internalType": "struct VerusObjectsNotarization.CCoinbaseCurrencyState",
                  "name": "currencystate",
                  "type": "tuple"
                }
              ],
              "internalType": "struct VerusObjectsNotarization.CurrencyStates[]",
              "name": "currencystates",
              "type": "tuple[]"
            },
            {
              "components": [
                {
                  "internalType": "int16",
                  "name": "version",
                  "type": "int16"
                },
                {
                  "internalType": "int16",
                  "name": "cprtype",
                  "type": "int16"
                },
                {
                  "internalType": "address",
                  "name": "systemid",
                  "type": "address"
                },
                {
                  "internalType": "uint32",
                  "name": "rootheight",
                  "type": "uint32"
                },
                {
                  "internalType": "bytes32",
                  "name": "stateroot",
                  "type": "bytes32"
                },
                {
                  "internalType": "bytes32",
                  "name": "blockhash",
                  "type": "bytes32"
                },
                {
                  "internalType": "bytes32",
                  "name": "compactpower",
                  "type": "bytes32"
                }
              ],
              "internalType": "struct VerusObjectsNotarization.CProofRoot[]",
              "name": "proofroots",
              "type": "tuple[]"
            },
            {
              "components": [
                {
                  "internalType": "string",
                  "name": "networkaddress",
                  "type": "string"
                },
                {
                  "internalType": "address",
                  "name": "nodeidentity",
                  "type": "address"
                }
              ],
              "internalType": "struct VerusObjectsNotarization.CNodeData[]",
              "name": "nodes",
              "type": "tuple[]"
            }
          ],
          "internalType": "struct VerusObjectsNotarization.CPBaaSNotarization",
          "name": "_pbaasNotarization",
          "type": "tuple"
        },
        {
          "internalType": "uint8[]",
          "name": "_vs",
          "type": "uint8[]"
        },
        {
          "internalType": "bytes32[]",
          "name": "_rs",
          "type": "bytes32[]"
        },
        {
          "internalType": "bytes32[]",
          "name": "_ss",
          "type": "bytes32[]"
        },
        {
          "internalType": "uint32[]",
          "name": "blockheights",
          "type": "uint32[]"
        },
        {
          "internalType": "address[]",
          "name": "notaryAddress",
          "type": "address[]"
        }
      ],
      "name": "setLatestData",
      "outputs": [
        {
          "internalType": "bool",
          "name": "output",
          "type": "bool"
        }
      ],
      "stateMutability": "nonpayable",
      "type": "function"
    },
    {
      "inputs": [
        {
          "internalType": "bytes32",
          "name": "_h",
          "type": "bytes32"
        },
        {
          "internalType": "uint8",
          "name": "_v",
          "type": "uint8"
        },
        {
          "internalType": "bytes32",
          "name": "_r",
          "type": "bytes32"
        },
        {
          "internalType": "bytes32",
          "name": "_s",
          "type": "bytes32"
        }
      ],
      "name": "recoverSigner",
      "outputs": [
        {
          "internalType": "address",
          "name": "",
          "type": "address"
        }
      ],
      "stateMutability": "pure",
      "type": "function",
      "constant": true
    },
    {
      "inputs": [],
      "name": "numNotarizedBlocks",
      "outputs": [
        {
          "internalType": "uint256",
          "name": "",
          "type": "uint256"
        }
      ],
      "stateMutability": "view",
      "type": "function",
      "constant": true
    },
    {
      "inputs": [],
      "name": "getLastProofRoot",
      "outputs": [
        {
          "components": [
            {
              "internalType": "int16",
              "name": "version",
              "type": "int16"
            },
            {
              "internalType": "int16",
              "name": "cprtype",
              "type": "int16"
            },
            {
              "internalType": "address",
              "name": "systemid",
              "type": "address"
            },
            {
              "internalType": "uint32",
              "name": "rootheight",
              "type": "uint32"
            },
            {
              "internalType": "bytes32",
              "name": "stateroot",
              "type": "bytes32"
            },
            {
              "internalType": "bytes32",
              "name": "blockhash",
              "type": "bytes32"
            },
            {
              "internalType": "bytes32",
              "name": "compactpower",
              "type": "bytes32"
            }
          ],
          "internalType": "struct VerusObjectsNotarization.CProofRoot",
          "name": "",
          "type": "tuple"
        }
      ],
      "stateMutability": "view",
      "type": "function",
      "constant": true
    },
    {
      "inputs": [
        {
          "internalType": "address",
          "name": "_upgradedAddress",
          "type": "address"
        },
        {
          "internalType": "bytes32",
          "name": "_addressHash",
          "type": "bytes32"
        },
        {
          "internalType": "uint8[]",
          "name": "_vs",
          "type": "uint8[]"
        },
        {
          "internalType": "bytes32[]",
          "name": "_rs",
          "type": "bytes32[]"
        },
        {
          "internalType": "bytes32[]",
          "name": "_ss",
          "type": "bytes32[]"
        }
      ],
      "name": "notarizedDeprecation",
      "outputs": [
        {
          "internalType": "bool",
          "name": "",
          "type": "bool"
        }
      ],
      "stateMutability": "view",
      "type": "function",
      "constant": true
    },
    {
      "inputs": [
        {
          "internalType": "address",
          "name": "_upgradedAddress",
          "type": "address"
        },
        {
          "internalType": "bytes32",
          "name": "_addressHash",
          "type": "bytes32"
        },
        {
          "internalType": "uint8[]",
          "name": "_vs",
          "type": "uint8[]"
        },
        {
          "internalType": "bytes32[]",
          "name": "_rs",
          "type": "bytes32[]"
        },
        {
          "internalType": "bytes32[]",
          "name": "_ss",
          "type": "bytes32[]"
        }
      ],
      "name": "deprecate",
      "outputs": [],
      "stateMutability": "nonpayable",
      "type": "function"
    }
  ],
  "bytecode": "0x6080604052600d600060196101000a81548160ff021916908360ff16021790555073367eaadd291e1976abc446a143f83c2d4d2c5a8460601b600360006101000a81548173ffffffffffffffffffffffffffffffffffffffff021916908360601c02179055503480156200007257600080fd5b50604051620044333803806200443383398181016040528101906200009891906200040b565b82600260006101000a81548173ffffffffffffffffffffffffffffffffffffffff021916908373ffffffffffffffffffffffffffffffffffffffff16021790555083600160006101000a81548173ffffffffffffffffffffffffffffffffffffffff021916908373ffffffffffffffffffffffffffffffffffffffff16021790555060008060046101000a81548160ff0219169083151502179055506000600b60006101000a81548160ff021916908360ff16021790555060008060006101000a81548163ffffffff021916908363ffffffff16021790555060005b825181101562000347576001600460008584815181106200019157fe5b602002602001015173ffffffffffffffffffffffffffffffffffffffff1673ffffffffffffffffffffffffffffffffffffffff16815260200190815260200160002060006101000a81548160ff021916908315150217905550818181518110620001f757fe5b6020026020010151600560008584815181106200021057fe5b602002602001015173ffffffffffffffffffffffffffffffffffffffff1673ffffffffffffffffffffffffffffffffffffffff16815260200190815260200160002060006101000a81548173ffffffffffffffffffffffffffffffffffffffff021916908373ffffffffffffffffffffffffffffffffffffffff16021790555060068382815181106200029f57fe5b60200260200101519080600181540180825580915050600190039060005260206000200160009091909190916101000a81548173ffffffffffffffffffffffffffffffffffffffff021916908373ffffffffffffffffffffffffffffffffffffffff160217905550600b600081819054906101000a900460ff168092919060010191906101000a81548160ff021916908360ff16021790555050808060010191505062000174565b50505050506200055c565b6000620003696200036384620004dd565b620004a9565b905080838252602082019050828560208602820111156200038957600080fd5b60005b85811015620003bd5781620003a28882620003c7565b8452602084019350602083019250506001810190506200038c565b5050509392505050565b600081519050620003d88162000542565b92915050565b600082601f830112620003f057600080fd5b81516200040284826020860162000352565b91505092915050565b600080600080608085870312156200042257600080fd5b60006200043287828801620003c7565b94505060206200044587828801620003c7565b935050604085015167ffffffffffffffff8111156200046357600080fd5b6200047187828801620003de565b925050606085015167ffffffffffffffff8111156200048f57600080fd5b6200049d87828801620003de565b91505092959194509250565b6000604051905081810181811067ffffffffffffffff82111715620004d357620004d262000540565b5b8060405250919050565b600067ffffffffffffffff821115620004fb57620004fa62000540565b5b602082029050602081019050919050565b6000620005198262000520565b9050919050565b600073ffffffffffffffffffffffffffffffffffffffff82169050919050565bfe5b6200054d816200050c565b81146200055957600080fd5b50565b613ec7806200056c6000396000f3fe608060405234801561001057600080fd5b50600436106101215760003560e01c806390ab6442116100ad578063d45167d011610071578063d45167d01461035e578063d4e032331461038e578063e7b3c875146103ac578063ec48ae3c146103dc578063f13eed97146103fa57610121565b806390ab64421461027a578063aaf34b94146102aa578063add21b3b146102c8578063b43fe1de146102fe578063b59de7061461032e57610121565b806320cd6ba1116100f457806320cd6ba1146101c0578063250dea53146101de57806326976e3f1461020e5780634b60ae631461022c5780636e0808161461024a57610121565b80630bd4cec3146101265780630e136b19146101565780631305ea631461017457806317c86875146101a4575b600080fd5b610140600480360381019061013b91906123c5565b61042a565b60405161014d91906137af565b60405180910390f35b61015e61044d565b60405161016b919061355b565b60405180910390f35b61018e60048036038101906101899190612625565b610460565b60405161019b919061355b565b60405180910390f35b6101be60048036038101906101b991906123ee565b610cec565b005b6101c8610d99565b6040516101d591906137ca565b60405180910390f35b6101f860048036038101906101f391906123c5565b610e3d565b604051610205919061351e565b60405180910390f35b610216610e70565b604051610223919061351e565b60405180910390f35b610234610e96565b60405161024191906137af565b60405180910390f35b610264600480360381019061025f919061273e565b610eaa565b60405161027191906137af565b60405180910390f35b610294600480360381019061028f91906124d6565b610ee4565b6040516102a1919061355b565b60405180910390f35b6102b2610fd9565b6040516102bf9190613539565b60405180910390f35b6102e260048036038101906102dd9190612767565b611067565b6040516102f597969594939291906135f8565b60405180910390f35b610318600480360381019061031391906123ee565b6110f3565b604051610325919061355b565b60405180910390f35b610348600480360381019061034391906123c5565b6112a6565b604051610355919061355b565b60405180910390f35b61037860048036038101906103739190612581565b6112c6565b604051610385919061351e565b60405180910390f35b610396611326565b6040516103a39190613779565b60405180910390f35b6103c660048036038101906103c19190612767565b611442565b6040516103d39190613576565b60405180910390f35b6103e461145a565b6040516103f19190613794565b60405180910390f35b610414600480360381019061040f91906123c5565b611467565b604051610421919061355b565b60405180910390f35b60096020528060005260406000206000915054906101000a900463ffffffff1681565b600060049054906101000a900460ff1681565b60008060049054906101000a900460ff16156104b1576040517f08c379a00000000000000000000000000000000000000000000000000000000081526004016104a890613687565b60405180910390fd5b835185511480156104c3575085518551145b610502576040517f08c379a00000000000000000000000000000000000000000000000000000000081526004016104f9906136c7565b60405180910390fd5b60008054906101000a900463ffffffff1663ffffffff168760a0015163ffffffff1611610564576040517f08c379a000000000000000000000000000000000000000000000000000000000815260040161055b906136e7565b60405180910390fd5b6000600260009054906101000a900473ffffffffffffffffffffffffffffffffffffffff1673ffffffffffffffffffffffffffffffffffffffff1663eba973e3896040518263ffffffff1660e01b81526004016105c19190613727565b60006040518083038186803b1580156105d957600080fd5b505afa1580156105ed573d6000803e3d6000fd5b505050506040513d6000823e3d601f19601f8201168201806040525081019061061691906125e4565b90506000806000606060005b88518110156108a7576001600360009054906101000a900460601b73a6ef9ea235635e328124ff3429db9f9e91b64e2d600260009054906101000a900473ffffffffffffffffffffffffffffffffffffffff1673ffffffffffffffffffffffffffffffffffffffff1663cecb30438d868151811061069c57fe5b60200260200101516040518263ffffffff1660e01b81526004016106c091906137af565b60006040518083038186803b1580156106d857600080fd5b505afa1580156106ec573d6000803e3d6000fd5b505050506040513d6000823e3d601f19601f8201168201806040525081019061071591906125e4565b8b858151811061072157fe5b60200260200101518a80519060200120604051602001610741919061349b565b604051602081830303815290604052604051602001610765969594939291906134b6565b6040516020818303038152906040529150818051906020012094506107c88560048e848151811061079257fe5b6020026020010151038d84815181106107a757fe5b60200260200101518d85815181106107bb57fe5b60200260200101516112c6565b9350600560008983815181106107da57fe5b602002602001015173ffffffffffffffffffffffffffffffffffffffff1673ffffffffffffffffffffffffffffffffffffffff16815260200190815260200160002060009054906101000a900473ffffffffffffffffffffffffffffffffffffffff1673ffffffffffffffffffffffffffffffffffffffff168473ffffffffffffffffffffffffffffffffffffffff1614156108795782806001019350505b600060199054906101000a900460ff1660ff168360ff161061089a576108a7565b8080600101915050610622565b506108b0610d99565b60ff168260ff1610610cd85760005b8c610120015151811015610a0257603160358e610120015183815181106108e257fe5b602002602001015160200151602001511661ffff1614801561097557506000600960008f6101200151848151811061091657fe5b60200260200101516000015173ffffffffffffffffffffffffffffffffffffffff1673ffffffffffffffffffffffffffffffffffffffff16815260200190815260200160002060009054906101000a900463ffffffff1663ffffffff16145b156109f55743600960008f6101200151848151811061099057fe5b60200260200101516000015173ffffffffffffffffffffffffffffffffffffffff1673ffffffffffffffffffffffffffffffffffffffff16815260200190815260200160002060006101000a81548163ffffffff021916908363ffffffff1602179055505b80806001019150506108bf565b5060005b8c610140015151811015610c805773a6ef9ea235635e328124ff3429db9f9e91b64e2d73ffffffffffffffffffffffffffffffffffffffff168d61014001518281518110610a5057fe5b60200260200101516040015173ffffffffffffffffffffffffffffffffffffffff161415610c73578c61014001518181518110610a8957fe5b602002602001015160800151600860008f60a0015163ffffffff1663ffffffff168152602001908152602001600020819055508c61014001518181518110610acd57fe5b6020026020010151600760008f60a0015163ffffffff1663ffffffff16815260200190815260200160002060008201518160000160006101000a81548161ffff021916908360010b61ffff16021790555060208201518160000160026101000a81548161ffff021916908360010b61ffff16021790555060408201518160000160046101000a81548173ffffffffffffffffffffffffffffffffffffffff021916908373ffffffffffffffffffffffffffffffffffffffff16021790555060608201518160000160186101000a81548163ffffffff021916908363ffffffff1602179055506080820151816001015560a0820151816002015560c08201518160030155905050600a8d60a0015190806001815401808255809150506001900390600052602060002090600891828204019190066004029091909190916101000a81548163ffffffff021916908363ffffffff1602179055508c60a0015163ffffffff1660008054906101000a900463ffffffff1663ffffffff161015610c72578c60a001516000806101000a81548163ffffffff021916908363ffffffff1602179055505b5b8080600101915050610a06565b507fc9736e50581107bfa480a96311c69439859109d190da814a525c46e2b3c567ad8c60008054906101000a900463ffffffff16604051610cc2929190613749565b60405180910390a1600195505050505050610ce2565b6000955050505050505b9695505050505050565b610cf985858585856110f3565b15610d92576001600060046101000a81548160ff02191690831515021790555084600060056101000a81548173ffffffffffffffffffffffffffffffffffffffff021916908373ffffffffffffffffffffffffffffffffffffffff1602179055507fcc358699805e9a8b7f77b522628c7cb9abd07d9efb86b6fb616af1609036a99e85604051610d89919061351e565b60405180910390a15b5050505050565b60006001600b60009054906101000a900460ff1660ff161480610dce57506002600b60009054906101000a900460ff1660ff16145b15610ddc5760019050610e3a565b600060016002600b60009054906101000a900460ff1660ff1681610dfc57fe5b040160ff169050600060199054906101000a900460ff1660ff16811115610e3557600060199054906101000a900460ff16915050610e3a565b809150505b90565b60056020528060005260406000206000915054906101000a900473ffffffffffffffffffffffffffffffffffffffff1681565b600060059054906101000a900473ffffffffffffffffffffffffffffffffffffffff1681565b60008054906101000a900463ffffffff1681565b600a8181548110610eba57600080fd5b9060005260206000209060089182820401919006600402915054906101000a900463ffffffff1681565b6000806000805b8651811015610fa357610f3988868381518110610f0457fe5b6020026020010151898481518110610f1857fe5b6020026020010151898581518110610f2c57fe5b60200260200101516112c6565b9250600460008473ffffffffffffffffffffffffffffffffffffffff1673ffffffffffffffffffffffffffffffffffffffff16815260200190815260200160002060009054906101000a900460ff1615610f965781806001019250505b8080600101915050610eeb565b506000610fae610d99565b90508060ff168260ff1610610fc95760019350505050610fd1565b600093505050505b949350505050565b6060600680548060200260200160405190810160405280929190818152602001828054801561105d57602002820191906000526020600020905b8160009054906101000a900473ffffffffffffffffffffffffffffffffffffffff1673ffffffffffffffffffffffffffffffffffffffff1681526020019060010190808311611013575b5050505050905090565b60076020528060005260406000206000915090508060000160009054906101000a900460010b908060000160029054906101000a900460010b908060000160049054906101000a900473ffffffffffffffffffffffffffffffffffffffff16908060000160189054906101000a900463ffffffff16908060010154908060020154908060030154905087565b60006110fe33611467565b61113d576040517f08c379a000000000000000000000000000000000000000000000000000000000815260040161113490613667565b60405180910390fd5b6000600160009054906101000a900473ffffffffffffffffffffffffffffffffffffffff1673ffffffffffffffffffffffffffffffffffffffff16632cd0cff28860405160200161118e9190613480565b6040516020818303038152906040526040518263ffffffff1660e01b81526004016111b991906135d6565b60206040518083038186803b1580156111d157600080fd5b505afa1580156111e5573d6000803e3d6000fd5b505050506040513d601f19601f8201168201806040525081019061120991906124ad565b905085811461124d576040517f08c379a000000000000000000000000000000000000000000000000000000000815260040161124490613707565b60405180910390fd5b61125986858588610ee4565b611298576040517f08c379a000000000000000000000000000000000000000000000000000000000815260040161128f906136a7565b60405180910390fd5b600191505095945050505050565b60046020528060005260406000206000915054906101000a900460ff1681565b600080600186868686604051600081526020016040526040516112ec9493929190613591565b6020604051602081039080840390855afa15801561130e573d6000803e3d6000fd5b50505060206040510351905080915050949350505050565b61132e6114d5565b600760008060009054906101000a900463ffffffff1663ffffffff1663ffffffff1681526020019081526020016000206040518060e00160405290816000820160009054906101000a900460010b60010b60010b81526020016000820160029054906101000a900460010b60010b60010b81526020016000820160049054906101000a900473ffffffffffffffffffffffffffffffffffffffff1673ffffffffffffffffffffffffffffffffffffffff1673ffffffffffffffffffffffffffffffffffffffff1681526020016000820160189054906101000a900463ffffffff1663ffffffff1663ffffffff1681526020016001820154815260200160028201548152602001600382015481525050905090565b60086020528060005260406000206000915090505481565b6000600a80549050905090565b600060011515600460008473ffffffffffffffffffffffffffffffffffffffff1673ffffffffffffffffffffffffffffffffffffffff16815260200190815260200160002060009054906101000a900460ff16151514156114cb57600190506114d0565b600090505b919050565b6040518060e00160405280600060010b8152602001600060010b8152602001600073ffffffffffffffffffffffffffffffffffffffff168152602001600063ffffffff1681526020016000801916815260200160008019168152602001600080191681525090565b600061155061154b84613816565b6137e5565b9050808382526020820190508285602086028201111561156f57600080fd5b60005b8581101561159f57816115858882611a11565b845260208401935060208301925050600181019050611572565b5050509392505050565b60006115bc6115b784613842565b6137e5565b905080838252602082019050828560208602820111156115db57600080fd5b60005b8581101561160b57816115f18882611bca565b8452602084019350602083019250506001810190506115de565b5050509392505050565b60006116286116238461386e565b6137e5565b9050808382526020820190508285602086028201111561164757600080fd5b60005b85811015611677578161165d8882611c5d565b84526020840193506020830192505060018101905061164a565b5050509392505050565b600061169461168f8461389a565b6137e5565b905080838252602082019050828560208602820111156116b357600080fd5b60005b858110156116e357816116c98882611c72565b8452602084019350602083019250506001810190506116b6565b5050509392505050565b60006117006116fb846138c6565b6137e5565b9050808382526020820190508260005b8581101561174057813585016117268882611f9d565b845260208401935060208301925050600181019050611710565b5050509392505050565b600061175d611758846138f2565b6137e5565b905080838252602082019050828560e086028201111561177c57600080fd5b60005b858110156117ac57816117928882612198565b845260208401935060e0830192505060018101905061177f565b5050509392505050565b60006117c96117c48461391e565b6137e5565b9050808382526020820190508260005b8581101561180957813585016117ef88826122f8565b8452602084019350602083019250506001810190506117d9565b5050509392505050565b60006118266118218461394a565b6137e5565b9050808382526020820190508285602086028201111561184557600080fd5b60005b85811015611875578161185b8882612371565b845260208401935060208301925050600181019050611848565b5050509392505050565b600061189261188d84613976565b6137e5565b905080838252602082019050828560208602820111156118b157600080fd5b60005b858110156118e157816118c7888261239b565b8452602084019350602083019250506001810190506118b4565b5050509392505050565b60006118fe6118f9846139a2565b6137e5565b9050808382526020820190508285602086028201111561191d57600080fd5b60005b8581101561194d578161193388826123b0565b845260208401935060208301925050600181019050611920565b5050509392505050565b600061196a611965846139ce565b6137e5565b90508281526020810184848401111561198257600080fd5b61198d848285613cf2565b509392505050565b60006119a86119a3846139ce565b6137e5565b9050828152602081018484840111156119c057600080fd5b6119cb848285613d01565b509392505050565b60006119e66119e1846139fe565b6137e5565b9050828152602081018484840111156119fe57600080fd5b611a09848285613cf2565b509392505050565b600081359050611a2081613dab565b92915050565b600082601f830112611a3757600080fd5b8135611a4784826020860161153d565b91505092915050565b600082601f830112611a6157600080fd5b8135611a718482602086016115a9565b91505092915050565b600082601f830112611a8b57600080fd5b8135611a9b848260208601611615565b91505092915050565b600082601f830112611ab557600080fd5b8135611ac5848260208601611681565b91505092915050565b600082601f830112611adf57600080fd5b8135611aef8482602086016116ed565b91505092915050565b600082601f830112611b0957600080fd5b8135611b1984826020860161174a565b91505092915050565b600082601f830112611b3357600080fd5b8135611b438482602086016117b6565b91505092915050565b600082601f830112611b5d57600080fd5b8135611b6d848260208601611813565b91505092915050565b600082601f830112611b8757600080fd5b8135611b9784826020860161187f565b91505092915050565b600082601f830112611bb157600080fd5b8135611bc18482602086016118eb565b91505092915050565b600081359050611bd981613dc2565b92915050565b600081519050611bee81613dc2565b92915050565b600082601f830112611c0557600080fd5b8135611c15848260208601611957565b91505092915050565b600082601f830112611c2f57600080fd5b8151611c3f848260208601611995565b91505092915050565b600081359050611c5781613dd9565b92915050565b600081359050611c6c81613df0565b92915050565b600081359050611c8181613e07565b92915050565b600082601f830112611c9857600080fd5b8135611ca88482602086016119d3565b91505092915050565b60006102a08284031215611cc457600080fd5b611ccf6102a06137e5565b90506000611cdf8482850161235c565b6000830152506020611cf38482850161235c565b6020830152506040611d0784828501611a11565b604083015250606082013567ffffffffffffffff811115611d2757600080fd5b611d3384828501611b4c565b606083015250608082013567ffffffffffffffff811115611d5357600080fd5b611d5f84828501611a7a565b60808301525060a082013567ffffffffffffffff811115611d7f57600080fd5b611d8b84828501611aa4565b60a08301525060c0611d9f84828501611c72565b60c08301525060e0611db384828501611c72565b60e083015250610100611dc884828501611c72565b61010083015250610120611dde84828501611c72565b61012083015250610140611df484828501611c72565b61014083015250610160611e0a84828501611c72565b61016083015250610180611e2084828501611c72565b610180830152506101a082013567ffffffffffffffff811115611e4257600080fd5b611e4e84828501611aa4565b6101a0830152506101c082013567ffffffffffffffff811115611e7057600080fd5b611e7c84828501611aa4565b6101c0830152506101e082013567ffffffffffffffff811115611e9e57600080fd5b611eaa84828501611aa4565b6101e08301525061020082013567ffffffffffffffff811115611ecc57600080fd5b611ed884828501611aa4565b6102008301525061022082013567ffffffffffffffff811115611efa57600080fd5b611f0684828501611aa4565b6102208301525061024082013567ffffffffffffffff811115611f2857600080fd5b611f3484828501611aa4565b6102408301525061026082013567ffffffffffffffff811115611f5657600080fd5b611f6284828501611a7a565b6102608301525061028082013567ffffffffffffffff811115611f8457600080fd5b611f9084828501611aa4565b6102808301525092915050565b600060408284031215611faf57600080fd5b611fb960406137e5565b9050600082013567ffffffffffffffff811115611fd557600080fd5b611fe184828501611c87565b6000830152506020611ff584828501611a11565b60208301525092915050565b60006101a0828403121561201457600080fd5b61201f6101806137e5565b9050600061202f8482850161239b565b60008301525060206120438482850161239b565b602083015250604082013567ffffffffffffffff81111561206357600080fd5b61206f84828501612248565b604083015250606061208384828501611a11565b606083015250608082013567ffffffffffffffff8111156120a357600080fd5b6120af84828501611cb1565b60808301525060a06120c38482850161239b565b60a08301525060c06120d7848285016122ac565b60c0830152506101006120ec84828501611bca565b60e0830152506101206121018482850161239b565b6101008301525061014082013567ffffffffffffffff81111561212357600080fd5b61212f84828501611b22565b6101208301525061016082013567ffffffffffffffff81111561215157600080fd5b61215d84828501611af8565b6101408301525061018082013567ffffffffffffffff81111561217f57600080fd5b61218b84828501611ace565b6101608301525092915050565b600060e082840312156121aa57600080fd5b6121b460e06137e5565b905060006121c484828501611c48565b60008301525060206121d884828501611c48565b60208301525060406121ec84828501611a11565b60408301525060606122008482850161239b565b606083015250608061221484828501611bca565b60808301525060a061222884828501611bca565b60a08301525060c061223c84828501611bca565b60c08301525092915050565b60006040828403121561225a57600080fd5b61226460406137e5565b90506000612274848285016123b0565b600083015250602082013567ffffffffffffffff81111561229457600080fd5b6122a084828501611bf4565b60208301525092915050565b6000604082840312156122be57600080fd5b6122c860406137e5565b905060006122d884828501611bca565b60008301525060206122ec8482850161239b565b60208301525092915050565b60006040828403121561230a57600080fd5b61231460406137e5565b9050600061232484828501611a11565b600083015250602082013567ffffffffffffffff81111561234457600080fd5b61235084828501611cb1565b60208301525092915050565b60008135905061236b81613e1e565b92915050565b60008135905061238081613e35565b92915050565b60008135905061239581613e4c565b92915050565b6000813590506123aa81613e63565b92915050565b6000813590506123bf81613e7a565b92915050565b6000602082840312156123d757600080fd5b60006123e584828501611a11565b91505092915050565b600080600080600060a0868803121561240657600080fd5b600061241488828901611a11565b955050602061242588828901611bca565b945050604086013567ffffffffffffffff81111561244257600080fd5b61244e88828901611ba0565b935050606086013567ffffffffffffffff81111561246b57600080fd5b61247788828901611a50565b925050608086013567ffffffffffffffff81111561249457600080fd5b6124a088828901611a50565b9150509295509295909350565b6000602082840312156124bf57600080fd5b60006124cd84828501611bdf565b91505092915050565b600080600080608085870312156124ec57600080fd5b60006124fa87828801611bca565b945050602085013567ffffffffffffffff81111561251757600080fd5b61252387828801611a50565b935050604085013567ffffffffffffffff81111561254057600080fd5b61254c87828801611a50565b925050606085013567ffffffffffffffff81111561256957600080fd5b61257587828801611ba0565b91505092959194509250565b6000806000806080858703121561259757600080fd5b60006125a587828801611bca565b94505060206125b6878288016123b0565b93505060406125c787828801611bca565b92505060606125d887828801611bca565b91505092959194509250565b6000602082840312156125f657600080fd5b600082015167ffffffffffffffff81111561261057600080fd5b61261c84828501611c1e565b91505092915050565b60008060008060008060c0878903121561263e57600080fd5b600087013567ffffffffffffffff81111561265857600080fd5b61266489828a01612001565b965050602087013567ffffffffffffffff81111561268157600080fd5b61268d89828a01611ba0565b955050604087013567ffffffffffffffff8111156126aa57600080fd5b6126b689828a01611a50565b945050606087013567ffffffffffffffff8111156126d357600080fd5b6126df89828a01611a50565b935050608087013567ffffffffffffffff8111156126fc57600080fd5b61270889828a01611b76565b92505060a087013567ffffffffffffffff81111561272557600080fd5b61273189828a01611a26565b9150509295509295509295565b60006020828403121561275057600080fd5b600061275e84828501612386565b91505092915050565b60006020828403121561277957600080fd5b60006127878482850161239b565b91505092915050565b600061279c8383612830565b60208301905092915050565b60006127b48383612c41565b60208301905092915050565b60006127cc8383612c50565b60208301905092915050565b60006127e483836130dd565b905092915050565b60006127f8838361323b565b60e08301905092915050565b600061281083836133c3565b905092915050565b60006128248383613400565b60208301905092915050565b61283981613c22565b82525050565b61284881613c22565b82525050565b61285f61285a82613c22565b613d34565b82525050565b600061287082613a9e565b61287a8185613b5c565b935061288583613a2e565b8060005b838110156128b657815161289d8882612790565b97506128a883613b01565b925050600181019050612889565b5085935050505092915050565b60006128ce82613aa9565b6128d88185613b6d565b93506128e383613a3e565b8060005b838110156129145781516128fb88826127a8565b975061290683613b0e565b9250506001810190506128e7565b5085935050505092915050565b600061292c82613ab4565b6129368185613b7e565b935061294183613a4e565b8060005b8381101561297257815161295988826127c0565b975061296483613b1b565b925050600181019050612945565b5085935050505092915050565b600061298a82613abf565b6129948185613b8f565b9350836020820285016129a685613a5e565b8060005b858110156129e257848403895281516129c385826127d8565b94506129ce83613b28565b925060208a019950506001810190506129aa565b50829750879550505050505092915050565b60006129ff82613aca565b612a098185613ba0565b9350612a1483613a6e565b8060005b83811015612a45578151612a2c88826127ec565b9750612a3783613b35565b925050600181019050612a18565b5085935050505092915050565b6000612a5d82613ad5565b612a678185613bb1565b935083602082028501612a7985613a7e565b8060005b85811015612ab55784840389528151612a968582612804565b9450612aa183613b42565b925060208a01995050600181019050612a7d565b50829750879550505050505092915050565b6000612ad282613ae0565b612adc8185613bc2565b9350612ae783613a8e565b8060005b83811015612b18578151612aff8882612818565b9750612b0a83613b4f565b925050600181019050612aeb565b5085935050505092915050565b612b2e81613c34565b82525050565b612b45612b4082613c40565b613d46565b82525050565b612b5481613c6c565b82525050565b612b6381613c6c565b82525050565b612b7a612b7582613c6c565b613d50565b82525050565b6000612b8b82613aeb565b612b958185613bd3565b9350612ba5818560208601613d01565b612bae81613d80565b840191505092915050565b6000612bc482613aeb565b612bce8185613be4565b9350612bde818560208601613d01565b612be781613d80565b840191505092915050565b6000612bfd82613aeb565b612c078185613bf5565b9350612c17818560208601613d01565b80840191505092915050565b612c2c81613c76565b82525050565b612c3b81613c76565b82525050565b612c4a81613c83565b82525050565b612c5981613c90565b82525050565b6000612c6a82613af6565b612c748185613c00565b9350612c84818560208601613d01565b612c8d81613d80565b840191505092915050565b6000612ca5602983613c11565b91507f4f6e6c792061206e6f746172792063616e20646570726563617465207468697360008301527f20636f6e747261637400000000000000000000000000000000000000000000006020830152604082019050919050565b6000612d0b601c83613c11565b91507f436f6e747261637420686173206265656e2064657072656361746564000000006000830152602082019050919050565b6000612d4b603083613c11565b91507f4465707265636174696f6e20726571756972657320746865206164647265737360008301527f20746f206265206e6f746172697a6564000000000000000000000000000000006020830152604082019050919050565b6000612db1602883613c11565b91507f5369676e617475726520617272617973206d757374206265206f66206571756160008301527f6c206c656e6774680000000000000000000000000000000000000000000000006020830152604082019050919050565b6000612e17603683613c11565b91507f426c6f636b20486569676874206d75737420626520677265617465722074686160008301527f6e2063757272656e7420626c6f636b20686569676874000000000000000000006020830152604082019050919050565b6000612e7d603483613c11565b91507f486173686564206164647265737320646f6573206e6f74206d6174636820616460008301527f647265737320686173682070617373656420696e0000000000000000000000006020830152604082019050919050565b60006102a083016000830151612eef600086018261340f565b506020830151612f02602086018261340f565b506040830151612f156040860182612830565b5060608301518482036060860152612f2d8282612ac7565b91505060808301518482036080860152612f4782826128c3565b91505060a083015184820360a0860152612f618282612921565b91505060c0830151612f7660c0860182612c50565b5060e0830151612f8960e0860182612c50565b50610100830151612f9e610100860182612c50565b50610120830151612fb3610120860182612c50565b50610140830151612fc8610140860182612c50565b50610160830151612fdd610160860182612c50565b50610180830151612ff2610180860182612c50565b506101a08301518482036101a086015261300c8282612921565b9150506101c08301518482036101c08601526130288282612921565b9150506101e08301518482036101e08601526130448282612921565b9150506102008301518482036102008601526130608282612921565b91505061022083015184820361022086015261307c8282612921565b9150506102408301518482036102408601526130988282612921565b9150506102608301518482036102608601526130b482826128c3565b9150506102808301518482036102808601526130d08282612921565b9150508091505092915050565b600060408301600083015184820360008601526130fa8282612c5f565b915050602083015161310f6020860182612830565b508091505092915050565b60006101a083016000830151613133600086018261342d565b506020830151613146602086018261342d565b506040830151848203604086015261315e8282613357565b91505060608301516131736060860182612830565b506080830151848203608086015261318b8282612ed6565b91505060a08301516131a060a086018261342d565b5060c08301516131b360c0860182613394565b5060e08301516131c7610100860182612b4b565b506101008301516131dc61012086018261342d565b506101208301518482036101408601526131f68282612a52565b91505061014083015184820361016086015261321282826129f4565b91505061016083015184820361018086015261322e828261297f565b9150508091505092915050565b60e0820160008201516132516000850182612c23565b5060208201516132646020850182612c23565b5060408201516132776040850182612830565b50606082015161328a606085018261342d565b50608082015161329d6080850182612b4b565b5060a08201516132b060a0850182612b4b565b5060c08201516132c360c0850182612b4b565b50505050565b60e0820160008201516132df6000850182612c23565b5060208201516132f26020850182612c23565b5060408201516133056040850182612830565b506060820151613318606085018261342d565b50608082015161332b6080850182612b4b565b5060a082015161333e60a0850182612b4b565b5060c082015161335160c0850182612b4b565b50505050565b600060408301600083015161336f600086018261344b565b50602083015184820360208601526133878282612b80565b9150508091505092915050565b6040820160008201516133aa6000850182612b4b565b5060208201516133bd602085018261342d565b50505050565b60006040830160008301516133db6000860182612830565b50602083015184820360208601526133f38282612ed6565b9150508091505092915050565b61340981613cab565b82525050565b61341881613c9d565b82525050565b61342781613ccb565b82525050565b61343681613cd5565b82525050565b61344581613cd5565b82525050565b61345481613ce5565b82525050565b61346381613ce5565b82525050565b61347a61347582613ce5565b613d6c565b82525050565b600061348c828461284e565b60148201915081905092915050565b60006134a78284612b69565b60208201915081905092915050565b60006134c28289613469565b6001820191506134d28288612b34565b6014820191506134e2828761284e565b6014820191506134f28286612bf2565b91506134fe828561284e565b60148201915061350e8284612bf2565b9150819050979650505050505050565b6000602082019050613533600083018461283f565b92915050565b600060208201905081810360008301526135538184612865565b905092915050565b60006020820190506135706000830184612b25565b92915050565b600060208201905061358b6000830184612b5a565b92915050565b60006080820190506135a66000830187612b5a565b6135b3602083018661345a565b6135c06040830185612b5a565b6135cd6060830184612b5a565b95945050505050565b600060208201905081810360008301526135f08184612bb9565b905092915050565b600060e08201905061360d600083018a612c32565b61361a6020830189612c32565b613627604083018861283f565b613634606083018761343c565b6136416080830186612b5a565b61364e60a0830185612b5a565b61365b60c0830184612b5a565b98975050505050505050565b6000602082019050818103600083015261368081612c98565b9050919050565b600060208201905081810360008301526136a081612cfe565b9050919050565b600060208201905081810360008301526136c081612d3e565b9050919050565b600060208201905081810360008301526136e081612da4565b9050919050565b6000602082019050818103600083015261370081612e0a565b9050919050565b6000602082019050818103600083015261372081612e70565b9050919050565b60006020820190508181036000830152613741818461311a565b905092915050565b60006040820190508181036000830152613763818561311a565b9050613772602083018461343c565b9392505050565b600060e08201905061378e60008301846132c9565b92915050565b60006020820190506137a9600083018461341e565b92915050565b60006020820190506137c4600083018461343c565b92915050565b60006020820190506137df600083018461345a565b92915050565b6000604051905081810181811067ffffffffffffffff8211171561380c5761380b613d7e565b5b8060405250919050565b600067ffffffffffffffff82111561383157613830613d7e565b5b602082029050602081019050919050565b600067ffffffffffffffff82111561385d5761385c613d7e565b5b602082029050602081019050919050565b600067ffffffffffffffff82111561388957613888613d7e565b5b602082029050602081019050919050565b600067ffffffffffffffff8211156138b5576138b4613d7e565b5b602082029050602081019050919050565b600067ffffffffffffffff8211156138e1576138e0613d7e565b5b602082029050602081019050919050565b600067ffffffffffffffff82111561390d5761390c613d7e565b5b602082029050602081019050919050565b600067ffffffffffffffff82111561393957613938613d7e565b5b602082029050602081019050919050565b600067ffffffffffffffff82111561396557613964613d7e565b5b602082029050602081019050919050565b600067ffffffffffffffff82111561399157613990613d7e565b5b602082029050602081019050919050565b600067ffffffffffffffff8211156139bd576139bc613d7e565b5b602082029050602081019050919050565b600067ffffffffffffffff8211156139e9576139e8613d7e565b5b601f19601f8301169050602081019050919050565b600067ffffffffffffffff821115613a1957613a18613d7e565b5b601f19601f8301169050602081019050919050565b6000819050602082019050919050565b6000819050602082019050919050565b6000819050602082019050919050565b6000819050602082019050919050565b6000819050602082019050919050565b6000819050602082019050919050565b6000819050602082019050919050565b600081519050919050565b600081519050919050565b600081519050919050565b600081519050919050565b600081519050919050565b600081519050919050565b600081519050919050565b600081519050919050565b600081519050919050565b6000602082019050919050565b6000602082019050919050565b6000602082019050919050565b6000602082019050919050565b6000602082019050919050565b6000602082019050919050565b6000602082019050919050565b600082825260208201905092915050565b600082825260208201905092915050565b600082825260208201905092915050565b600082825260208201905092915050565b600082825260208201905092915050565b600082825260208201905092915050565b600082825260208201905092915050565b600082825260208201905092915050565b600082825260208201905092915050565b600081905092915050565b600082825260208201905092915050565b600082825260208201905092915050565b6000613c2d82613cab565b9050919050565b60008115159050919050565b60007fffffffffffffffffffffffffffffffffffffffff00000000000000000000000082169050919050565b6000819050919050565b60008160010b9050919050565b60008160030b9050919050565b60008160070b9050919050565b600061ffff82169050919050565b600073ffffffffffffffffffffffffffffffffffffffff82169050919050565b6000819050919050565b600063ffffffff82169050919050565b600060ff82169050919050565b82818337600083830152505050565b60005b83811015613d1f578082015181840152602081019050613d04565b83811115613d2e576000848401525b50505050565b6000613d3f82613d5a565b9050919050565b6000819050919050565b6000819050919050565b6000613d6582613d9e565b9050919050565b6000613d7782613d91565b9050919050565bfe5b6000601f19601f8301169050919050565b60008160f81b9050919050565b60008160601b9050919050565b613db481613c22565b8114613dbf57600080fd5b50565b613dcb81613c6c565b8114613dd657600080fd5b50565b613de281613c76565b8114613ded57600080fd5b50565b613df981613c83565b8114613e0457600080fd5b50565b613e1081613c90565b8114613e1b57600080fd5b50565b613e2781613c9d565b8114613e3257600080fd5b50565b613e3e81613cab565b8114613e4957600080fd5b50565b613e5581613ccb565b8114613e6057600080fd5b50565b613e6c81613cd5565b8114613e7757600080fd5b50565b613e8381613ce5565b8114613e8e57600080fd5b5056fea26469706673582212201e30e7cb7aaff2613af64078db458e31cf6199a0f517692566ed1fed7859988564736f6c63430007060033",
  "immutableReferences": {},
  "source": "// SPDX-License-Identifier: MIT\r\n// Bridge between ethereum and verus\r\n\r\npragma solidity >=0.6.0 <0.9.0;\r\npragma experimental ABIEncoderV2;\r\n\r\nimport \"../Libraries/VerusConstants.sol\";\r\nimport \"../Libraries/VerusObjectsNotarization.sol\";\r\nimport \"../VerusBridge/VerusSerializer.sol\";\r\nimport \"../MMR/VerusBlake2b.sol\";\r\n\r\ncontract VerusNotarizer{\r\n\r\n    //last notarized blockheight\r\n    uint32 public lastBlockHeight;\r\n    //CurrencyState private lastCurrencyState;\r\n    //allows for the contract to be upgradable\r\n    bool public deprecated;\r\n    address public upgradedAddress;\r\n    //number of notaries required\r\n    uint8 requiredNotaries = 13;\r\n    VerusBlake2b blake2b;\r\n    VerusSerializer verusSerializer;\r\n    bytes20 vdxfcode = bytes20(0x367Eaadd291E1976ABc446A143f83c2D4D2C5a84);\r\n\r\n    //list of all notarizers mapped to allow for quick searching\r\n    mapping (address => bool) public komodoNotaries;\r\n    mapping (address => address) public notaryAddressMapping;\r\n    address[] private notaries;\r\n    //mapped blockdetails\r\n    mapping (uint32 => VerusObjectsNotarization.CProofRoot) public notarizedProofRoots;\r\n    mapping (uint32 => bytes32) public notarizedStateRoots;\r\n    \r\n    mapping (address => uint32) public poolAvailable;\r\n    \r\n    uint32[] public blockHeights;\r\n    //used to record the number of notaries\r\n    uint8 private notaryCount;\r\n\r\n    // Notifies when the contract is deprecated\r\n    event Deprecate(address newAddress);\r\n    // Notifies when a new block hash is published\r\n    event NewBlock(VerusObjectsNotarization.CPBaaSNotarization,uint32 notarizedDataHeight);\r\n\r\n    constructor(address _verusBLAKE2bAddress,address _verusSerializerAddress,address[] memory _notaries,address[] memory _notariesEthAddress) public {\r\n        verusSerializer = VerusSerializer(_verusSerializerAddress);\r\n        blake2b = VerusBlake2b(_verusBLAKE2bAddress);\r\n        deprecated = false;\r\n        notaryCount = 0;\r\n        lastBlockHeight = 0;\r\n        //add in the owner as the first notary\r\n       // address msgSender = msg.sender;\r\n        for(uint i =0; i < _notaries.length; i++){\r\n            komodoNotaries[_notaries[i]] = true;\r\n            notaryAddressMapping[_notaries[i]] = _notariesEthAddress[i];\r\n            notaries.push(_notaries[i]);\r\n            notaryCount++;\r\n        }\r\n    }\r\n\r\n    modifier onlyNotary() {\r\n        address msgSender = msg.sender;\r\n        bytes memory errorMessage = abi.encodePacked(\"Caller is not a notary\",msgSender);\r\n        require(komodoNotaries[msgSender] == true, string(errorMessage));\r\n        _;\r\n    }\r\n    \r\n    function getNotaries() public view returns(address[] memory){\r\n        return notaries;\r\n    }\r\n        \r\n    function isNotary(address _notary) public view returns(bool) {\r\n        if(komodoNotaries[_notary] == true) return true;\r\n        else return false;\r\n    }\r\n\r\n    //this function allows for intially expanding out the number of notaries\r\n    function currentNotariesRequired() public view returns(uint8){\r\n        if(notaryCount == 1 || notaryCount == 2) return 1;\r\n        uint halfNotaryCount = (notaryCount/2) + 1;\r\n        if(halfNotaryCount > requiredNotaries) return requiredNotaries;\r\n        else return uint8(halfNotaryCount);\r\n    }\r\n\r\n    function isNotarized(bytes32 _notarizedDataHash,\r\n        bytes32[] memory _rs,\r\n        bytes32[] memory _ss,\r\n        uint8[] memory _vs) public view returns(bool){\r\n        \r\n        address signingAddress;\r\n        //total number of signatures that have been validated\r\n        uint8 numberOfSignatures = 0;\r\n\r\n        //loop through the arrays, check the following:\r\n        //does the hash in the hashedBlocks match the komodoBlockHash passed in\r\n        for(uint i = 0; i < _rs.length; i++){\r\n            //if the address is in the notary array increment the number of signatures\r\n            signingAddress = recoverSigner(_notarizedDataHash, _vs[i], _rs[i], _ss[i]);\r\n            if(komodoNotaries[signingAddress]) {\r\n                numberOfSignatures++;\r\n            }\r\n        }\r\n        uint8 _requiredNotaries = currentNotariesRequired();\r\n        if(numberOfSignatures >= _requiredNotaries){\r\n            return true;\r\n        } else return false;\r\n\r\n    }\r\n \r\n    function setLatestData(VerusObjectsNotarization.CPBaaSNotarization memory _pbaasNotarization,\r\n        uint8[] memory _vs,\r\n        bytes32[] memory _rs,\r\n        bytes32[] memory _ss,\r\n        uint32[] memory blockheights,\r\n        address[] memory notaryAddress\r\n        ) public returns(bool output){\r\n\r\n        require(!deprecated,\"Contract has been deprecated\");\r\n        require((_rs.length == _ss.length) && (_rs.length == _vs.length),\"Signature arrays must be of equal length\");\r\n        require(_pbaasNotarization.notarizationheight > lastBlockHeight,\"Block Height must be greater than current block height\");\r\n\r\n        bytes memory serializedNotarisation = verusSerializer.serializeCPBaaSNotarization(_pbaasNotarization);\r\n        \r\n        //add in the extra fields for the hashing\r\n        //add in the other pieces for encoding\r\n        bytes32 hashedNotarization;\r\n        address signer;\r\n        uint8 numberOfSignatures = 0;\r\n        bytes memory toHash;\r\n\r\n        for(uint i=0; i < blockheights.length;i++){\r\n            //build the hashing sequence\r\n            toHash = abi.encodePacked(uint8(1),\r\n                vdxfcode,VerusConstants.VerusSystemId,\r\n                verusSerializer.serializeUint32(blockheights[i]),\r\n                notaryAddress[i],\r\n                abi.encodePacked(keccak256(serializedNotarisation)));\r\n            \r\n            hashedNotarization = keccak256(toHash);\r\n            \r\n            signer = recoverSigner(hashedNotarization, _vs[i]-4, _rs[i], _ss[i]);\r\n            if(signer == notaryAddressMapping[notaryAddress[i]]){\r\n                   numberOfSignatures++;\r\n            }\r\n            if(numberOfSignatures >= requiredNotaries){\r\n                break;\r\n            }\r\n        }\r\n        if(numberOfSignatures >= currentNotariesRequired()){\r\n            //valid notarization\r\n            //loop through the currencystates and confirm if the bridge is active\r\n            for(uint k= 0; k < _pbaasNotarization.currencystates.length; k++){\r\n                // checks for launchconfrimed (flags & (FLAG_FRACTIONAL(1) + FLAG_REFUNDING(4) + FLAG_LAUNCHCONFIRMED(0x10) + FLAG_LAUNCHCOMPLETEMARKER(0x20))) \r\n                //== (1 + 0x10 + 0x20)\r\n                if(_pbaasNotarization.currencystates[k].currencystate.flags & (1 + 4 + 0x10 + 0x20) == (1 + 0x10 + 0x20)\r\n                    && poolAvailable[_pbaasNotarization.currencystates[k].currencyid] == 0){\r\n                    poolAvailable[_pbaasNotarization.currencystates[k].currencyid] = uint32(block.number);\r\n                }\r\n            }\r\n            \r\n            for(uint j = 0 ; j < _pbaasNotarization.proofroots.length;j++){\r\n                if(_pbaasNotarization.proofroots[j].systemid == VerusConstants.VerusCurrencyId){\r\n                    notarizedStateRoots[_pbaasNotarization.notarizationheight] =  _pbaasNotarization.proofroots[j].stateroot;       \r\n                    notarizedProofRoots[_pbaasNotarization.notarizationheight] = _pbaasNotarization.proofroots[j];\r\n                    blockHeights.push(_pbaasNotarization.notarizationheight);\r\n                    if(lastBlockHeight <_pbaasNotarization.notarizationheight){\r\n                        lastBlockHeight = _pbaasNotarization.notarizationheight;\r\n                    }\r\n                }\r\n            }\r\n            emit NewBlock(_pbaasNotarization,lastBlockHeight);\r\n            \r\n            return true;        \r\n        }\r\n      \r\n        return false;\r\n    }\r\n\r\n    function recoverSigner(bytes32 _h, uint8 _v, bytes32 _r, bytes32 _s) public pure returns (address) {\r\n        address addr = ecrecover(_h, _v, _r, _s);\r\n        return addr;\r\n    }\r\n\r\n    function numNotarizedBlocks() public view returns(uint){\r\n        return blockHeights.length;\r\n    }\r\n\r\n    function getLastProofRoot() public view returns(VerusObjectsNotarization.CProofRoot memory){\r\n        return notarizedProofRoots[lastBlockHeight];\r\n    }\r\n    \r\n    function notarizedDeprecation(address _upgradedAddress,bytes32 _addressHash,uint8[] memory _vs,bytes32[] memory _rs,bytes32[] memory _ss) public view returns(bool){\r\n        require(isNotary(msg.sender),\"Only a notary can deprecate this contract\");\r\n        bytes32 testingAddressHash = blake2b.createHash(abi.encodePacked(_upgradedAddress));\r\n        require(testingAddressHash == _addressHash,\"Hashed address does not match address hash passed in\");\r\n        require(isNotarized(_addressHash, _rs, _ss, _vs),\"Deprecation requires the address to be notarized\");\r\n        return(true);\r\n    }\r\n\r\n    function deprecate(address _upgradedAddress,bytes32 _addressHash,uint8[] memory _vs,bytes32[] memory _rs,bytes32[] memory _ss) public {\r\n        if(notarizedDeprecation(_upgradedAddress, _addressHash, _vs, _rs, _ss)){\r\n            deprecated = true;\r\n            upgradedAddress = _upgradedAddress;\r\n            Deprecate(_upgradedAddress);\r\n        }\r\n    }\r\n    \r\n    \r\n\r\n}\r\n",
  "sourcePath": "D:\\dev\\Ethereum-verus-notarisation\\contracts\\VerusNotarizer\\VerusNotarizer.sol",
  "compiler": {
    "name": "solc",
    "version": "0.7.6+commit.7338295f.Emscripten.clang"
  },
  "schemaVersion": "3.4.3",
  "updatedAt": "2021-10-12T07:58:32.292Z",
  "networkType": "ethereum",
  "devdoc": {
    "kind": "dev",
    "methods": {},
    "version": 1
  },
  "userdoc": {
    "kind": "user",
    "methods": {},
    "version": 1
  }
}