{
  "contractName": "VerusProof",
  "abi": [
    {
      "inputs": [
        {
          "internalType": "address",
          "name": "notarizerAddress",
          "type": "address"
        },
        {
          "internalType": "address",
          "name": "verusBLAKE2b",
          "type": "address"
        },
        {
          "internalType": "address",
          "name": "verusSerializerAddress",
          "type": "address"
        }
      ],
      "stateMutability": "nonpayable",
      "type": "constructor"
    },
    {
      "anonymous": false,
      "inputs": [
        {
          "indexed": false,
          "internalType": "bytes32",
          "name": "newHash",
          "type": "bytes32"
        },
        {
          "indexed": false,
          "internalType": "uint8",
          "name": "eventType",
          "type": "uint8"
        }
      ],
      "name": "HashEvent",
      "type": "event"
    },
    {
      "inputs": [
        {
          "internalType": "uint256",
          "name": "",
          "type": "uint256"
        }
      ],
      "name": "computedValues",
      "outputs": [
        {
          "internalType": "bytes32",
          "name": "",
          "type": "bytes32"
        }
      ],
      "stateMutability": "view",
      "type": "function",
      "constant": true
    },
    {
      "inputs": [],
      "name": "testHashedTransfers",
      "outputs": [
        {
          "internalType": "bytes32",
          "name": "",
          "type": "bytes32"
        }
      ],
      "stateMutability": "view",
      "type": "function",
      "constant": true
    },
    {
      "inputs": [],
      "name": "testResult",
      "outputs": [
        {
          "internalType": "bool",
          "name": "",
          "type": "bool"
        }
      ],
      "stateMutability": "view",
      "type": "function",
      "constant": true
    },
    {
      "inputs": [],
      "name": "testTransfers",
      "outputs": [
        {
          "internalType": "bytes",
          "name": "",
          "type": "bytes"
        }
      ],
      "stateMutability": "view",
      "type": "function",
      "constant": true
    },
    {
      "inputs": [],
      "name": "txValue",
      "outputs": [
        {
          "internalType": "bytes32",
          "name": "",
          "type": "bytes32"
        }
      ],
      "stateMutability": "view",
      "type": "function",
      "constant": true
    },
    {
      "inputs": [
        {
          "components": [
            {
              "internalType": "uint32",
              "name": "version",
              "type": "uint32"
            },
            {
              "components": [
                {
                  "internalType": "address",
                  "name": "currency",
                  "type": "address"
                },
                {
                  "internalType": "uint64",
                  "name": "amount",
                  "type": "uint64"
                }
              ],
              "internalType": "struct VerusObjects.CCurrencyValueMap",
              "name": "currencyvalue",
              "type": "tuple"
            },
            {
              "internalType": "uint32",
              "name": "flags",
              "type": "uint32"
            },
            {
              "internalType": "address",
              "name": "feecurrencyid",
              "type": "address"
            },
            {
              "internalType": "uint256",
              "name": "fees",
              "type": "uint256"
            },
            {
              "components": [
                {
                  "internalType": "uint8",
                  "name": "destinationtype",
                  "type": "uint8"
                },
                {
                  "internalType": "bytes",
                  "name": "destinationaddress",
                  "type": "bytes"
                }
              ],
              "internalType": "struct VerusObjectsCommon.CTransferDestination",
              "name": "destination",
              "type": "tuple"
            },
            {
              "internalType": "address",
              "name": "destcurrencyid",
              "type": "address"
            },
            {
              "internalType": "address",
              "name": "destsystemid",
              "type": "address"
            },
            {
              "internalType": "address",
              "name": "secondreserveid",
              "type": "address"
            }
          ],
          "internalType": "struct VerusObjects.CReserveTransfer[]",
          "name": "_transfers",
          "type": "tuple[]"
        }
      ],
      "name": "hashTransfers",
      "outputs": [
        {
          "internalType": "bytes32",
          "name": "",
          "type": "bytes32"
        }
      ],
      "stateMutability": "view",
      "type": "function",
      "constant": true
    },
    {
      "inputs": [
        {
          "internalType": "bytes32",
          "name": "hashToProve",
          "type": "bytes32"
        },
        {
          "components": [
            {
              "internalType": "uint8",
              "name": "branchType",
              "type": "uint8"
            },
            {
              "components": [
                {
                  "internalType": "uint8",
                  "name": "CMerkleBranchBase",
                  "type": "uint8"
                },
                {
                  "internalType": "uint32",
                  "name": "nIndex",
                  "type": "uint32"
                },
                {
                  "internalType": "uint32",
                  "name": "nSize",
                  "type": "uint32"
                },
                {
                  "internalType": "bytes32[]",
                  "name": "branch",
                  "type": "bytes32[]"
                }
              ],
              "internalType": "struct VerusObjects.CMerkleBranch",
              "name": "proofSequence",
              "type": "tuple"
            }
          ],
          "internalType": "struct VerusObjects.CTXProof[]",
          "name": "_branches",
          "type": "tuple[]"
        }
      ],
      "name": "checkProof",
      "outputs": [
        {
          "internalType": "bytes32",
          "name": "",
          "type": "bytes32"
        }
      ],
      "stateMutability": "view",
      "type": "function",
      "constant": true
    },
    {
      "inputs": [
        {
          "internalType": "bytes32",
          "name": "_hashToCheck",
          "type": "bytes32"
        },
        {
          "components": [
            {
              "internalType": "uint8",
              "name": "CMerkleBranchBase",
              "type": "uint8"
            },
            {
              "internalType": "uint32",
              "name": "nIndex",
              "type": "uint32"
            },
            {
              "internalType": "uint32",
              "name": "nSize",
              "type": "uint32"
            },
            {
              "internalType": "bytes32[]",
              "name": "branch",
              "type": "bytes32[]"
            }
          ],
          "internalType": "struct VerusObjects.CMerkleBranch",
          "name": "_branch",
          "type": "tuple"
        }
      ],
      "name": "checkBranch",
      "outputs": [
        {
          "internalType": "bytes32",
          "name": "",
          "type": "bytes32"
        }
      ],
      "stateMutability": "view",
      "type": "function",
      "constant": true
    },
    {
      "inputs": [
        {
          "components": [
            {
              "internalType": "uint256",
              "name": "height",
              "type": "uint256"
            },
            {
              "internalType": "bytes32",
              "name": "txid",
              "type": "bytes32"
            },
            {
              "internalType": "uint256",
              "name": "txoutnum",
              "type": "uint256"
            },
            {
              "components": [
                {
                  "internalType": "uint16",
                  "name": "version",
                  "type": "uint16"
                },
                {
                  "internalType": "uint16",
                  "name": "flags",
                  "type": "uint16"
                },
                {
                  "internalType": "address",
                  "name": "sourcesystemid",
                  "type": "address"
                },
                {
                  "internalType": "uint32",
                  "name": "sourceheightstart",
                  "type": "uint32"
                },
                {
                  "internalType": "uint32",
                  "name": "sourceheightend",
                  "type": "uint32"
                },
                {
                  "internalType": "address",
                  "name": "destinationsystemid",
                  "type": "address"
                },
                {
                  "internalType": "address",
                  "name": "destinationcurrencyid",
                  "type": "address"
                },
                {
                  "internalType": "uint32",
                  "name": "numinputs",
                  "type": "uint32"
                },
                {
                  "components": [
                    {
                      "internalType": "address",
                      "name": "currency",
                      "type": "address"
                    },
                    {
                      "internalType": "uint64",
                      "name": "amount",
                      "type": "uint64"
                    }
                  ],
                  "internalType": "struct VerusObjects.CCurrencyValueMap[]",
                  "name": "totalamounts",
                  "type": "tuple[]"
                },
                {
                  "components": [
                    {
                      "internalType": "address",
                      "name": "currency",
                      "type": "address"
                    },
                    {
                      "internalType": "uint64",
                      "name": "amount",
                      "type": "uint64"
                    }
                  ],
                  "internalType": "struct VerusObjects.CCurrencyValueMap[]",
                  "name": "totalfees",
                  "type": "tuple[]"
                },
                {
                  "internalType": "bytes32",
                  "name": "hashtransfers",
                  "type": "bytes32"
                },
                {
                  "components": [
                    {
                      "internalType": "address",
                      "name": "currency",
                      "type": "address"
                    },
                    {
                      "internalType": "uint64",
                      "name": "amount",
                      "type": "uint64"
                    }
                  ],
                  "internalType": "struct VerusObjects.CCurrencyValueMap[]",
                  "name": "totalburned",
                  "type": "tuple[]"
                },
                {
                  "components": [
                    {
                      "internalType": "uint8",
                      "name": "destinationtype",
                      "type": "uint8"
                    },
                    {
                      "internalType": "bytes",
                      "name": "destinationaddress",
                      "type": "bytes"
                    }
                  ],
                  "internalType": "struct VerusObjectsCommon.CTransferDestination",
                  "name": "rewardaddress",
                  "type": "tuple"
                },
                {
                  "internalType": "int32",
                  "name": "firstinput",
                  "type": "int32"
                }
              ],
              "internalType": "struct VerusObjects.CCrossChainExport",
              "name": "exportinfo",
              "type": "tuple"
            },
            {
              "components": [
                {
                  "internalType": "uint8",
                  "name": "version",
                  "type": "uint8"
                },
                {
                  "internalType": "uint8",
                  "name": "typeC",
                  "type": "uint8"
                },
                {
                  "components": [
                    {
                      "internalType": "uint8",
                      "name": "branchType",
                      "type": "uint8"
                    },
                    {
                      "components": [
                        {
                          "internalType": "uint8",
                          "name": "CMerkleBranchBase",
                          "type": "uint8"
                        },
                        {
                          "internalType": "uint32",
                          "name": "nIndex",
                          "type": "uint32"
                        },
                        {
                          "internalType": "uint32",
                          "name": "nSize",
                          "type": "uint32"
                        },
                        {
                          "internalType": "bytes32[]",
                          "name": "branch",
                          "type": "bytes32[]"
                        }
                      ],
                      "internalType": "struct VerusObjects.CMerkleBranch",
                      "name": "proofSequence",
                      "type": "tuple"
                    }
                  ],
                  "internalType": "struct VerusObjects.CTXProof[]",
                  "name": "txproof",
                  "type": "tuple[]"
                },
                {
                  "components": [
                    {
                      "internalType": "uint8",
                      "name": "elType",
                      "type": "uint8"
                    },
                    {
                      "internalType": "uint8",
                      "name": "elIdx",
                      "type": "uint8"
                    },
                    {
                      "internalType": "bytes",
                      "name": "elVchObj",
                      "type": "bytes"
                    },
                    {
                      "components": [
                        {
                          "internalType": "uint8",
                          "name": "branchType",
                          "type": "uint8"
                        },
                        {
                          "components": [
                            {
                              "internalType": "uint8",
                              "name": "CMerkleBranchBase",
                              "type": "uint8"
                            },
                            {
                              "internalType": "uint32",
                              "name": "nIndex",
                              "type": "uint32"
                            },
                            {
                              "internalType": "uint32",
                              "name": "nSize",
                              "type": "uint32"
                            },
                            {
                              "internalType": "bytes32[]",
                              "name": "branch",
                              "type": "bytes32[]"
                            }
                          ],
                          "internalType": "struct VerusObjects.CMerkleBranch",
                          "name": "proofSequence",
                          "type": "tuple"
                        }
                      ],
                      "internalType": "struct VerusObjects.CTXProof[]",
                      "name": "elProof",
                      "type": "tuple[]"
                    },
                    {
                      "internalType": "uint32",
                      "name": "VchObjIndex",
                      "type": "uint32"
                    }
                  ],
                  "internalType": "struct VerusObjects.CComponents[]",
                  "name": "components",
                  "type": "tuple[]"
                }
              ],
              "internalType": "struct VerusObjects.CPtransactionproof",
              "name": "partialtransactionproof",
              "type": "tuple"
            },
            {
              "components": [
                {
                  "internalType": "uint32",
                  "name": "version",
                  "type": "uint32"
                },
                {
                  "components": [
                    {
                      "internalType": "address",
                      "name": "currency",
                      "type": "address"
                    },
                    {
                      "internalType": "uint64",
                      "name": "amount",
                      "type": "uint64"
                    }
                  ],
                  "internalType": "struct VerusObjects.CCurrencyValueMap",
                  "name": "currencyvalue",
                  "type": "tuple"
                },
                {
                  "internalType": "uint32",
                  "name": "flags",
                  "type": "uint32"
                },
                {
                  "internalType": "address",
                  "name": "feecurrencyid",
                  "type": "address"
                },
                {
                  "internalType": "uint256",
                  "name": "fees",
                  "type": "uint256"
                },
                {
                  "components": [
                    {
                      "internalType": "uint8",
                      "name": "destinationtype",
                      "type": "uint8"
                    },
                    {
                      "internalType": "bytes",
                      "name": "destinationaddress",
                      "type": "bytes"
                    }
                  ],
                  "internalType": "struct VerusObjectsCommon.CTransferDestination",
                  "name": "destination",
                  "type": "tuple"
                },
                {
                  "internalType": "address",
                  "name": "destcurrencyid",
                  "type": "address"
                },
                {
                  "internalType": "address",
                  "name": "destsystemid",
                  "type": "address"
                },
                {
                  "internalType": "address",
                  "name": "secondreserveid",
                  "type": "address"
                }
              ],
              "internalType": "struct VerusObjects.CReserveTransfer[]",
              "name": "transfers",
              "type": "tuple[]"
            }
          ],
          "internalType": "struct VerusObjects.CReserveTransferImport",
          "name": "_import",
          "type": "tuple"
        }
      ],
      "name": "checkTransfers",
      "outputs": [
        {
          "internalType": "bool",
          "name": "",
          "type": "bool"
        }
      ],
      "stateMutability": "view",
      "type": "function",
      "constant": true
    },
    {
      "inputs": [
        {
          "components": [
            {
              "internalType": "uint256",
              "name": "height",
              "type": "uint256"
            },
            {
              "internalType": "bytes32",
              "name": "txid",
              "type": "bytes32"
            },
            {
              "internalType": "uint256",
              "name": "txoutnum",
              "type": "uint256"
            },
            {
              "components": [
                {
                  "internalType": "uint16",
                  "name": "version",
                  "type": "uint16"
                },
                {
                  "internalType": "uint16",
                  "name": "flags",
                  "type": "uint16"
                },
                {
                  "internalType": "address",
                  "name": "sourcesystemid",
                  "type": "address"
                },
                {
                  "internalType": "uint32",
                  "name": "sourceheightstart",
                  "type": "uint32"
                },
                {
                  "internalType": "uint32",
                  "name": "sourceheightend",
                  "type": "uint32"
                },
                {
                  "internalType": "address",
                  "name": "destinationsystemid",
                  "type": "address"
                },
                {
                  "internalType": "address",
                  "name": "destinationcurrencyid",
                  "type": "address"
                },
                {
                  "internalType": "uint32",
                  "name": "numinputs",
                  "type": "uint32"
                },
                {
                  "components": [
                    {
                      "internalType": "address",
                      "name": "currency",
                      "type": "address"
                    },
                    {
                      "internalType": "uint64",
                      "name": "amount",
                      "type": "uint64"
                    }
                  ],
                  "internalType": "struct VerusObjects.CCurrencyValueMap[]",
                  "name": "totalamounts",
                  "type": "tuple[]"
                },
                {
                  "components": [
                    {
                      "internalType": "address",
                      "name": "currency",
                      "type": "address"
                    },
                    {
                      "internalType": "uint64",
                      "name": "amount",
                      "type": "uint64"
                    }
                  ],
                  "internalType": "struct VerusObjects.CCurrencyValueMap[]",
                  "name": "totalfees",
                  "type": "tuple[]"
                },
                {
                  "internalType": "bytes32",
                  "name": "hashtransfers",
                  "type": "bytes32"
                },
                {
                  "components": [
                    {
                      "internalType": "address",
                      "name": "currency",
                      "type": "address"
                    },
                    {
                      "internalType": "uint64",
                      "name": "amount",
                      "type": "uint64"
                    }
                  ],
                  "internalType": "struct VerusObjects.CCurrencyValueMap[]",
                  "name": "totalburned",
                  "type": "tuple[]"
                },
                {
                  "components": [
                    {
                      "internalType": "uint8",
                      "name": "destinationtype",
                      "type": "uint8"
                    },
                    {
                      "internalType": "bytes",
                      "name": "destinationaddress",
                      "type": "bytes"
                    }
                  ],
                  "internalType": "struct VerusObjectsCommon.CTransferDestination",
                  "name": "rewardaddress",
                  "type": "tuple"
                },
                {
                  "internalType": "int32",
                  "name": "firstinput",
                  "type": "int32"
                }
              ],
              "internalType": "struct VerusObjects.CCrossChainExport",
              "name": "exportinfo",
              "type": "tuple"
            },
            {
              "components": [
                {
                  "internalType": "uint8",
                  "name": "version",
                  "type": "uint8"
                },
                {
                  "internalType": "uint8",
                  "name": "typeC",
                  "type": "uint8"
                },
                {
                  "components": [
                    {
                      "internalType": "uint8",
                      "name": "branchType",
                      "type": "uint8"
                    },
                    {
                      "components": [
                        {
                          "internalType": "uint8",
                          "name": "CMerkleBranchBase",
                          "type": "uint8"
                        },
                        {
                          "internalType": "uint32",
                          "name": "nIndex",
                          "type": "uint32"
                        },
                        {
                          "internalType": "uint32",
                          "name": "nSize",
                          "type": "uint32"
                        },
                        {
                          "internalType": "bytes32[]",
                          "name": "branch",
                          "type": "bytes32[]"
                        }
                      ],
                      "internalType": "struct VerusObjects.CMerkleBranch",
                      "name": "proofSequence",
                      "type": "tuple"
                    }
                  ],
                  "internalType": "struct VerusObjects.CTXProof[]",
                  "name": "txproof",
                  "type": "tuple[]"
                },
                {
                  "components": [
                    {
                      "internalType": "uint8",
                      "name": "elType",
                      "type": "uint8"
                    },
                    {
                      "internalType": "uint8",
                      "name": "elIdx",
                      "type": "uint8"
                    },
                    {
                      "internalType": "bytes",
                      "name": "elVchObj",
                      "type": "bytes"
                    },
                    {
                      "components": [
                        {
                          "internalType": "uint8",
                          "name": "branchType",
                          "type": "uint8"
                        },
                        {
                          "components": [
                            {
                              "internalType": "uint8",
                              "name": "CMerkleBranchBase",
                              "type": "uint8"
                            },
                            {
                              "internalType": "uint32",
                              "name": "nIndex",
                              "type": "uint32"
                            },
                            {
                              "internalType": "uint32",
                              "name": "nSize",
                              "type": "uint32"
                            },
                            {
                              "internalType": "bytes32[]",
                              "name": "branch",
                              "type": "bytes32[]"
                            }
                          ],
                          "internalType": "struct VerusObjects.CMerkleBranch",
                          "name": "proofSequence",
                          "type": "tuple"
                        }
                      ],
                      "internalType": "struct VerusObjects.CTXProof[]",
                      "name": "elProof",
                      "type": "tuple[]"
                    },
                    {
                      "internalType": "uint32",
                      "name": "VchObjIndex",
                      "type": "uint32"
                    }
                  ],
                  "internalType": "struct VerusObjects.CComponents[]",
                  "name": "components",
                  "type": "tuple[]"
                }
              ],
              "internalType": "struct VerusObjects.CPtransactionproof",
              "name": "partialtransactionproof",
              "type": "tuple"
            },
            {
              "components": [
                {
                  "internalType": "uint32",
                  "name": "version",
                  "type": "uint32"
                },
                {
                  "components": [
                    {
                      "internalType": "address",
                      "name": "currency",
                      "type": "address"
                    },
                    {
                      "internalType": "uint64",
                      "name": "amount",
                      "type": "uint64"
                    }
                  ],
                  "internalType": "struct VerusObjects.CCurrencyValueMap",
                  "name": "currencyvalue",
                  "type": "tuple"
                },
                {
                  "internalType": "uint32",
                  "name": "flags",
                  "type": "uint32"
                },
                {
                  "internalType": "address",
                  "name": "feecurrencyid",
                  "type": "address"
                },
                {
                  "internalType": "uint256",
                  "name": "fees",
                  "type": "uint256"
                },
                {
                  "components": [
                    {
                      "internalType": "uint8",
                      "name": "destinationtype",
                      "type": "uint8"
                    },
                    {
                      "internalType": "bytes",
                      "name": "destinationaddress",
                      "type": "bytes"
                    }
                  ],
                  "internalType": "struct VerusObjectsCommon.CTransferDestination",
                  "name": "destination",
                  "type": "tuple"
                },
                {
                  "internalType": "address",
                  "name": "destcurrencyid",
                  "type": "address"
                },
                {
                  "internalType": "address",
                  "name": "destsystemid",
                  "type": "address"
                },
                {
                  "internalType": "address",
                  "name": "secondreserveid",
                  "type": "address"
                }
              ],
              "internalType": "struct VerusObjects.CReserveTransfer[]",
              "name": "transfers",
              "type": "tuple[]"
            }
          ],
          "internalType": "struct VerusObjects.CReserveTransferImport",
          "name": "_import",
          "type": "tuple"
        }
      ],
      "name": "proveComponents",
      "outputs": [
        {
          "internalType": "bytes32",
          "name": "txRoot",
          "type": "bytes32"
        }
      ],
      "stateMutability": "view",
      "type": "function",
      "constant": true
    },
    {
      "inputs": [
        {
          "components": [
            {
              "internalType": "uint256",
              "name": "height",
              "type": "uint256"
            },
            {
              "internalType": "bytes32",
              "name": "txid",
              "type": "bytes32"
            },
            {
              "internalType": "uint256",
              "name": "txoutnum",
              "type": "uint256"
            },
            {
              "components": [
                {
                  "internalType": "uint16",
                  "name": "version",
                  "type": "uint16"
                },
                {
                  "internalType": "uint16",
                  "name": "flags",
                  "type": "uint16"
                },
                {
                  "internalType": "address",
                  "name": "sourcesystemid",
                  "type": "address"
                },
                {
                  "internalType": "uint32",
                  "name": "sourceheightstart",
                  "type": "uint32"
                },
                {
                  "internalType": "uint32",
                  "name": "sourceheightend",
                  "type": "uint32"
                },
                {
                  "internalType": "address",
                  "name": "destinationsystemid",
                  "type": "address"
                },
                {
                  "internalType": "address",
                  "name": "destinationcurrencyid",
                  "type": "address"
                },
                {
                  "internalType": "uint32",
                  "name": "numinputs",
                  "type": "uint32"
                },
                {
                  "components": [
                    {
                      "internalType": "address",
                      "name": "currency",
                      "type": "address"
                    },
                    {
                      "internalType": "uint64",
                      "name": "amount",
                      "type": "uint64"
                    }
                  ],
                  "internalType": "struct VerusObjects.CCurrencyValueMap[]",
                  "name": "totalamounts",
                  "type": "tuple[]"
                },
                {
                  "components": [
                    {
                      "internalType": "address",
                      "name": "currency",
                      "type": "address"
                    },
                    {
                      "internalType": "uint64",
                      "name": "amount",
                      "type": "uint64"
                    }
                  ],
                  "internalType": "struct VerusObjects.CCurrencyValueMap[]",
                  "name": "totalfees",
                  "type": "tuple[]"
                },
                {
                  "internalType": "bytes32",
                  "name": "hashtransfers",
                  "type": "bytes32"
                },
                {
                  "components": [
                    {
                      "internalType": "address",
                      "name": "currency",
                      "type": "address"
                    },
                    {
                      "internalType": "uint64",
                      "name": "amount",
                      "type": "uint64"
                    }
                  ],
                  "internalType": "struct VerusObjects.CCurrencyValueMap[]",
                  "name": "totalburned",
                  "type": "tuple[]"
                },
                {
                  "components": [
                    {
                      "internalType": "uint8",
                      "name": "destinationtype",
                      "type": "uint8"
                    },
                    {
                      "internalType": "bytes",
                      "name": "destinationaddress",
                      "type": "bytes"
                    }
                  ],
                  "internalType": "struct VerusObjectsCommon.CTransferDestination",
                  "name": "rewardaddress",
                  "type": "tuple"
                },
                {
                  "internalType": "int32",
                  "name": "firstinput",
                  "type": "int32"
                }
              ],
              "internalType": "struct VerusObjects.CCrossChainExport",
              "name": "exportinfo",
              "type": "tuple"
            },
            {
              "components": [
                {
                  "internalType": "uint8",
                  "name": "version",
                  "type": "uint8"
                },
                {
                  "internalType": "uint8",
                  "name": "typeC",
                  "type": "uint8"
                },
                {
                  "components": [
                    {
                      "internalType": "uint8",
                      "name": "branchType",
                      "type": "uint8"
                    },
                    {
                      "components": [
                        {
                          "internalType": "uint8",
                          "name": "CMerkleBranchBase",
                          "type": "uint8"
                        },
                        {
                          "internalType": "uint32",
                          "name": "nIndex",
                          "type": "uint32"
                        },
                        {
                          "internalType": "uint32",
                          "name": "nSize",
                          "type": "uint32"
                        },
                        {
                          "internalType": "bytes32[]",
                          "name": "branch",
                          "type": "bytes32[]"
                        }
                      ],
                      "internalType": "struct VerusObjects.CMerkleBranch",
                      "name": "proofSequence",
                      "type": "tuple"
                    }
                  ],
                  "internalType": "struct VerusObjects.CTXProof[]",
                  "name": "txproof",
                  "type": "tuple[]"
                },
                {
                  "components": [
                    {
                      "internalType": "uint8",
                      "name": "elType",
                      "type": "uint8"
                    },
                    {
                      "internalType": "uint8",
                      "name": "elIdx",
                      "type": "uint8"
                    },
                    {
                      "internalType": "bytes",
                      "name": "elVchObj",
                      "type": "bytes"
                    },
                    {
                      "components": [
                        {
                          "internalType": "uint8",
                          "name": "branchType",
                          "type": "uint8"
                        },
                        {
                          "components": [
                            {
                              "internalType": "uint8",
                              "name": "CMerkleBranchBase",
                              "type": "uint8"
                            },
                            {
                              "internalType": "uint32",
                              "name": "nIndex",
                              "type": "uint32"
                            },
                            {
                              "internalType": "uint32",
                              "name": "nSize",
                              "type": "uint32"
                            },
                            {
                              "internalType": "bytes32[]",
                              "name": "branch",
                              "type": "bytes32[]"
                            }
                          ],
                          "internalType": "struct VerusObjects.CMerkleBranch",
                          "name": "proofSequence",
                          "type": "tuple"
                        }
                      ],
                      "internalType": "struct VerusObjects.CTXProof[]",
                      "name": "elProof",
                      "type": "tuple[]"
                    },
                    {
                      "internalType": "uint32",
                      "name": "VchObjIndex",
                      "type": "uint32"
                    }
                  ],
                  "internalType": "struct VerusObjects.CComponents[]",
                  "name": "components",
                  "type": "tuple[]"
                }
              ],
              "internalType": "struct VerusObjects.CPtransactionproof",
              "name": "partialtransactionproof",
              "type": "tuple"
            },
            {
              "components": [
                {
                  "internalType": "uint32",
                  "name": "version",
                  "type": "uint32"
                },
                {
                  "components": [
                    {
                      "internalType": "address",
                      "name": "currency",
                      "type": "address"
                    },
                    {
                      "internalType": "uint64",
                      "name": "amount",
                      "type": "uint64"
                    }
                  ],
                  "internalType": "struct VerusObjects.CCurrencyValueMap",
                  "name": "currencyvalue",
                  "type": "tuple"
                },
                {
                  "internalType": "uint32",
                  "name": "flags",
                  "type": "uint32"
                },
                {
                  "internalType": "address",
                  "name": "feecurrencyid",
                  "type": "address"
                },
                {
                  "internalType": "uint256",
                  "name": "fees",
                  "type": "uint256"
                },
                {
                  "components": [
                    {
                      "internalType": "uint8",
                      "name": "destinationtype",
                      "type": "uint8"
                    },
                    {
                      "internalType": "bytes",
                      "name": "destinationaddress",
                      "type": "bytes"
                    }
                  ],
                  "internalType": "struct VerusObjectsCommon.CTransferDestination",
                  "name": "destination",
                  "type": "tuple"
                },
                {
                  "internalType": "address",
                  "name": "destcurrencyid",
                  "type": "address"
                },
                {
                  "internalType": "address",
                  "name": "destsystemid",
                  "type": "address"
                },
                {
                  "internalType": "address",
                  "name": "secondreserveid",
                  "type": "address"
                }
              ],
              "internalType": "struct VerusObjects.CReserveTransfer[]",
              "name": "transfers",
              "type": "tuple[]"
            }
          ],
          "internalType": "struct VerusObjects.CReserveTransferImport",
          "name": "_import",
          "type": "tuple"
        }
      ],
      "name": "proveTransaction",
      "outputs": [
        {
          "internalType": "bytes32",
          "name": "stateRoot",
          "type": "bytes32"
        }
      ],
      "stateMutability": "view",
      "type": "function",
      "constant": true
    },
    {
      "inputs": [
        {
          "components": [
            {
              "internalType": "uint256",
              "name": "height",
              "type": "uint256"
            },
            {
              "internalType": "bytes32",
              "name": "txid",
              "type": "bytes32"
            },
            {
              "internalType": "uint256",
              "name": "txoutnum",
              "type": "uint256"
            },
            {
              "components": [
                {
                  "internalType": "uint16",
                  "name": "version",
                  "type": "uint16"
                },
                {
                  "internalType": "uint16",
                  "name": "flags",
                  "type": "uint16"
                },
                {
                  "internalType": "address",
                  "name": "sourcesystemid",
                  "type": "address"
                },
                {
                  "internalType": "uint32",
                  "name": "sourceheightstart",
                  "type": "uint32"
                },
                {
                  "internalType": "uint32",
                  "name": "sourceheightend",
                  "type": "uint32"
                },
                {
                  "internalType": "address",
                  "name": "destinationsystemid",
                  "type": "address"
                },
                {
                  "internalType": "address",
                  "name": "destinationcurrencyid",
                  "type": "address"
                },
                {
                  "internalType": "uint32",
                  "name": "numinputs",
                  "type": "uint32"
                },
                {
                  "components": [
                    {
                      "internalType": "address",
                      "name": "currency",
                      "type": "address"
                    },
                    {
                      "internalType": "uint64",
                      "name": "amount",
                      "type": "uint64"
                    }
                  ],
                  "internalType": "struct VerusObjects.CCurrencyValueMap[]",
                  "name": "totalamounts",
                  "type": "tuple[]"
                },
                {
                  "components": [
                    {
                      "internalType": "address",
                      "name": "currency",
                      "type": "address"
                    },
                    {
                      "internalType": "uint64",
                      "name": "amount",
                      "type": "uint64"
                    }
                  ],
                  "internalType": "struct VerusObjects.CCurrencyValueMap[]",
                  "name": "totalfees",
                  "type": "tuple[]"
                },
                {
                  "internalType": "bytes32",
                  "name": "hashtransfers",
                  "type": "bytes32"
                },
                {
                  "components": [
                    {
                      "internalType": "address",
                      "name": "currency",
                      "type": "address"
                    },
                    {
                      "internalType": "uint64",
                      "name": "amount",
                      "type": "uint64"
                    }
                  ],
                  "internalType": "struct VerusObjects.CCurrencyValueMap[]",
                  "name": "totalburned",
                  "type": "tuple[]"
                },
                {
                  "components": [
                    {
                      "internalType": "uint8",
                      "name": "destinationtype",
                      "type": "uint8"
                    },
                    {
                      "internalType": "bytes",
                      "name": "destinationaddress",
                      "type": "bytes"
                    }
                  ],
                  "internalType": "struct VerusObjectsCommon.CTransferDestination",
                  "name": "rewardaddress",
                  "type": "tuple"
                },
                {
                  "internalType": "int32",
                  "name": "firstinput",
                  "type": "int32"
                }
              ],
              "internalType": "struct VerusObjects.CCrossChainExport",
              "name": "exportinfo",
              "type": "tuple"
            },
            {
              "components": [
                {
                  "internalType": "uint8",
                  "name": "version",
                  "type": "uint8"
                },
                {
                  "internalType": "uint8",
                  "name": "typeC",
                  "type": "uint8"
                },
                {
                  "components": [
                    {
                      "internalType": "uint8",
                      "name": "branchType",
                      "type": "uint8"
                    },
                    {
                      "components": [
                        {
                          "internalType": "uint8",
                          "name": "CMerkleBranchBase",
                          "type": "uint8"
                        },
                        {
                          "internalType": "uint32",
                          "name": "nIndex",
                          "type": "uint32"
                        },
                        {
                          "internalType": "uint32",
                          "name": "nSize",
                          "type": "uint32"
                        },
                        {
                          "internalType": "bytes32[]",
                          "name": "branch",
                          "type": "bytes32[]"
                        }
                      ],
                      "internalType": "struct VerusObjects.CMerkleBranch",
                      "name": "proofSequence",
                      "type": "tuple"
                    }
                  ],
                  "internalType": "struct VerusObjects.CTXProof[]",
                  "name": "txproof",
                  "type": "tuple[]"
                },
                {
                  "components": [
                    {
                      "internalType": "uint8",
                      "name": "elType",
                      "type": "uint8"
                    },
                    {
                      "internalType": "uint8",
                      "name": "elIdx",
                      "type": "uint8"
                    },
                    {
                      "internalType": "bytes",
                      "name": "elVchObj",
                      "type": "bytes"
                    },
                    {
                      "components": [
                        {
                          "internalType": "uint8",
                          "name": "branchType",
                          "type": "uint8"
                        },
                        {
                          "components": [
                            {
                              "internalType": "uint8",
                              "name": "CMerkleBranchBase",
                              "type": "uint8"
                            },
                            {
                              "internalType": "uint32",
                              "name": "nIndex",
                              "type": "uint32"
                            },
                            {
                              "internalType": "uint32",
                              "name": "nSize",
                              "type": "uint32"
                            },
                            {
                              "internalType": "bytes32[]",
                              "name": "branch",
                              "type": "bytes32[]"
                            }
                          ],
                          "internalType": "struct VerusObjects.CMerkleBranch",
                          "name": "proofSequence",
                          "type": "tuple"
                        }
                      ],
                      "internalType": "struct VerusObjects.CTXProof[]",
                      "name": "elProof",
                      "type": "tuple[]"
                    },
                    {
                      "internalType": "uint32",
                      "name": "VchObjIndex",
                      "type": "uint32"
                    }
                  ],
                  "internalType": "struct VerusObjects.CComponents[]",
                  "name": "components",
                  "type": "tuple[]"
                }
              ],
              "internalType": "struct VerusObjects.CPtransactionproof",
              "name": "partialtransactionproof",
              "type": "tuple"
            },
            {
              "components": [
                {
                  "internalType": "uint32",
                  "name": "version",
                  "type": "uint32"
                },
                {
                  "components": [
                    {
                      "internalType": "address",
                      "name": "currency",
                      "type": "address"
                    },
                    {
                      "internalType": "uint64",
                      "name": "amount",
                      "type": "uint64"
                    }
                  ],
                  "internalType": "struct VerusObjects.CCurrencyValueMap",
                  "name": "currencyvalue",
                  "type": "tuple"
                },
                {
                  "internalType": "uint32",
                  "name": "flags",
                  "type": "uint32"
                },
                {
                  "internalType": "address",
                  "name": "feecurrencyid",
                  "type": "address"
                },
                {
                  "internalType": "uint256",
                  "name": "fees",
                  "type": "uint256"
                },
                {
                  "components": [
                    {
                      "internalType": "uint8",
                      "name": "destinationtype",
                      "type": "uint8"
                    },
                    {
                      "internalType": "bytes",
                      "name": "destinationaddress",
                      "type": "bytes"
                    }
                  ],
                  "internalType": "struct VerusObjectsCommon.CTransferDestination",
                  "name": "destination",
                  "type": "tuple"
                },
                {
                  "internalType": "address",
                  "name": "destcurrencyid",
                  "type": "address"
                },
                {
                  "internalType": "address",
                  "name": "destsystemid",
                  "type": "address"
                },
                {
                  "internalType": "address",
                  "name": "secondreserveid",
                  "type": "address"
                }
              ],
              "internalType": "struct VerusObjects.CReserveTransfer[]",
              "name": "transfers",
              "type": "tuple[]"
            }
          ],
          "internalType": "struct VerusObjects.CReserveTransferImport",
          "name": "_import",
          "type": "tuple"
        }
      ],
      "name": "proveImports",
      "outputs": [
        {
          "internalType": "bool",
          "name": "",
          "type": "bool"
        }
      ],
      "stateMutability": "view",
      "type": "function",
      "constant": true
    },
    {
      "inputs": [
        {
          "internalType": "bytes32",
          "name": "input",
          "type": "bytes32"
        }
      ],
      "name": "flipBytes32",
      "outputs": [
        {
          "internalType": "bytes32",
          "name": "",
          "type": "bytes32"
        }
      ],
      "stateMutability": "pure",
      "type": "function",
      "constant": true
    }
  ],
  "bytecode": "0x60806040523480156200001157600080fd5b50604051620027693803806200276983398181016040528101906200003791906200011a565b81600160006101000a81548173ffffffffffffffffffffffffffffffffffffffff021916908373ffffffffffffffffffffffffffffffffffffffff16021790555080600360006101000a81548173ffffffffffffffffffffffffffffffffffffffff021916908373ffffffffffffffffffffffffffffffffffffffff16021790555082600260006101000a81548173ffffffffffffffffffffffffffffffffffffffff021916908373ffffffffffffffffffffffffffffffffffffffff160217905550505050620001be565b6000815190506200011481620001a4565b92915050565b6000806000606084860312156200013057600080fd5b6000620001408682870162000103565b9350506020620001538682870162000103565b9250506040620001668682870162000103565b9150509250925092565b60006200017d8262000184565b9050919050565b600073ffffffffffffffffffffffffffffffffffffffff82169050919050565b620001af8162000170565b8114620001bb57600080fd5b50565b61259b80620001ce6000396000f3fe608060405234801561001057600080fd5b50600436106100cf5760003560e01c8063a38b3d3f1161008c578063bc736c1411610066578063bc736c141461024e578063c1d718581461027e578063e89d7c321461029c578063f8ba7192146102cc576100cf565b8063a38b3d3f146101d0578063b023187514610200578063b740965f14610230576100cf565b8063317e325b146100d45780633192148c146100f25780635981d41b146101225780638413751e146101525780638f1db79b1461018257806399344c88146101a0575b600080fd5b6100dc6102fc565b6040516100e9919061211f565b60405180910390f35b61010c60048036038101906101079190611c19565b61039a565b6040516101199190612104565b60405180910390f35b61013c60048036038101906101379190611b43565b6103be565b6040516101499190612104565b60405180910390f35b61016c60048036038101906101679190611bd8565b610631565b6040516101799190612104565b60405180910390f35b61018a6108a4565b60405161019791906120e9565b60405180910390f35b6101ba60048036038101906101b59190611bd8565b6108b7565b6040516101c791906120e9565b60405180910390f35b6101ea60048036038101906101e59190611bd8565b610a41565b6040516101f79190612104565b60405180910390f35b61021a60048036038101906102159190611a5c565b610a94565b6040516102279190612104565b60405180910390f35b610238610b5c565b6040516102459190612104565b60405180910390f35b61026860048036038101906102639190611a9d565b610b62565b6040516102759190612104565b60405180910390f35b610286610b7a565b6040516102939190612104565b60405180910390f35b6102b660048036038101906102b19190611bd8565b610b80565b6040516102c391906120e9565b60405180910390f35b6102e660048036038101906102e19190611aef565b610cd5565b6040516102f39190612104565b60405180910390f35b60078054600181600116156101000203166002900480601f0160208091040260200160405190810160405280929190818152602001828054600181600116156101000203166002900480156103925780601f1061036757610100808354040283529160200191610392565b820191906000526020600020905b81548152906001019060200180831161037557829003601f168201915b505050505081565b600481815481106103aa57600080fd5b906000526020600020016000915090505481565b600080826020015163ffffffff16101561040d576040517f08c379a0000000000000000000000000000000000000000000000000000000008152600401610404906121c1565b60405180910390fd5b600082606001515111610455576040517f08c379a000000000000000000000000000000000000000000000000000000000815260040161044c90612141565b60405180910390fd5b60008260600151519050600084905060606000856020015163ffffffff16905060005b8481101561062357600060018316111561052657878760600151828151811061049d57fe5b602002602001015114156104e6576040517f08c379a00000000000000000000000000000000000000000000000000000000081526004016104dd90612181565b60405180910390fd5b866060015181815181106104f657fe5b60200260200101518460405160200161051092919061208d565b6040516020818303038152906040529250610562565b838760600151828151811061053757fe5b602002602001015160405160200161055092919061208d565b60405160208183030381529060405292505b600160009054906101000a900473ffffffffffffffffffffffffffffffffffffffff1673ffffffffffffffffffffffffffffffffffffffff16632cd0cff2846040518263ffffffff1660e01b81526004016105bd919061211f565b60206040518083038186803b1580156105d557600080fd5b505afa1580156105e9573d6000803e3d6000fd5b505050506040513d601f19601f8201168201806040525081019061060d9190611ac6565b9350600182901c91508080600101915050610478565b508294505050505092915050565b60008060008084608001516060015151111561076e57600160009054906101000a900473ffffffffffffffffffffffffffffffffffffffff1673ffffffffffffffffffffffffffffffffffffffff16632cd0cff285608001516060015160008151811061069a57fe5b6020026020010151604001516040518263ffffffff1660e01b81526004016106c2919061211f565b60206040518083038186803b1580156106da57600080fd5b505afa1580156106ee573d6000803e3d6000fd5b505050506040513d601f19601f820116820180604052508101906107129190611ac6565b9150600184608001516060015160008151811061072b57fe5b60200260200101516000015160ff16141561076d5761076a8285608001516060015160008151811061075957fe5b602002602001015160600151610cd5565b92505b5b6000600190505b8460800151606001515181101561089c57600160009054906101000a900473ffffffffffffffffffffffffffffffffffffffff1673ffffffffffffffffffffffffffffffffffffffff16632cd0cff286608001516060015183815181106107d857fe5b6020026020010151604001516040518263ffffffff1660e01b8152600401610800919061211f565b60206040518083038186803b15801561081857600080fd5b505afa15801561082c573d6000803e3d6000fd5b505050506040513d601f19601f820116820180604052508101906108509190611ac6565b925061087b83866080015160600151838151811061086a57fe5b602002602001015160600151610cd5565b915081841461088f576000801b935061089c565b8080600101915050610775565b505050919050565b600860009054906101000a900460ff1681565b6000806108c383610a41565b90506000600260009054906101000a900473ffffffffffffffffffffffffffffffffffffffff1673ffffffffffffffffffffffffffffffffffffffff16634b60ae636040518163ffffffff1660e01b815260040160206040518083038186803b15801561092f57600080fd5b505afa158015610943573d6000803e3d6000fd5b505050506040513d601f19601f820116820180604052508101906109679190611c42565b90506000610a1e600260009054906101000a900473ffffffffffffffffffffffffffffffffffffffff1673ffffffffffffffffffffffffffffffffffffffff1663e7b3c875846040518263ffffffff1660e01b81526004016109c991906121e1565b60206040518083038186803b1580156109e157600080fd5b505afa1580156109f5573d6000803e3d6000fd5b505050506040513d601f19601f82011682018060405250810190610a199190611ac6565b610b62565b905080831415610a345760019350505050610a3c565b600093505050505b919050565b60008060001b9050610a5282610b80565b610a5b57610a8f565b6000610a6683610631565b90506000801b811415610a795750610a8f565b610a8b81846080015160400151610cd5565b9150505b919050565b600080600360009054906101000a900473ffffffffffffffffffffffffffffffffffffffff1673ffffffffffffffffffffffffffffffffffffffff16633b7cc0a28460006040518363ffffffff1660e01b8152600401610af59291906120b9565b60006040518083038186803b158015610b0d57600080fd5b505afa158015610b21573d6000803e3d6000fd5b505050506040513d6000823e3d601f19601f82011682018060405250810190610b4a9190611b97565b90508080519060200120915050919050565b60055481565b6000610b708260001c610d22565b60001b9050919050565b60065481565b600080610b908360a00151610a94565b905060008360800151606001516001856080015160600151510381518110610bb457fe5b60200260200101516080015163ffffffff16905060008460800151606001516001866080015160600151510381518110610bea57fe5b60200260200101516040015190506000600160009054906101000a900473ffffffffffffffffffffffffffffffffffffffff1673ffffffffffffffffffffffffffffffffffffffff1663bfe370d9610c4484866020610e6e565b6040518263ffffffff1660e01b8152600401610c60919061211f565b60206040518083038186803b158015610c7857600080fd5b505afa158015610c8c573d6000803e3d6000fd5b505050506040513d601f19601f82011682018060405250810190610cb09190611ac6565b905080841415610cc7576001945050505050610cd0565b60009450505050505b919050565b60008083905060005b8351811015610d1757610d0882858381518110610cf757fe5b6020026020010151602001516103be565b91508080600101915050610cde565b508091505092915050565b600081905060087eff00ff00ff00ff00ff00ff00ff00ff00ff00ff00ff00ff00ff00ff00ff00ff8216901b60087fff00ff00ff00ff00ff00ff00ff00ff00ff00ff00ff00ff00ff00ff00ff00ff008316901c17905060107dffff0000ffff0000ffff0000ffff0000ffff0000ffff0000ffff0000ffff8216901b60107fffff0000ffff0000ffff0000ffff0000ffff0000ffff0000ffff0000ffff00008316901c17905060207bffffffff00000000ffffffff00000000ffffffff00000000ffffffff8216901b60207fffffffff00000000ffffffff00000000ffffffff00000000ffffffff000000008316901c179050604077ffffffffffffffff0000000000000000ffffffffffffffff8216901b60407fffffffffffffffff0000000000000000ffffffffffffffff00000000000000008316901c179050608081901b608082901c179050919050565b606081601f83011015610eb6576040517f08c379a0000000000000000000000000000000000000000000000000000000008152600401610ead90612161565b60405180910390fd5b81830184511015610efc576040517f08c379a0000000000000000000000000000000000000000000000000000000008152600401610ef3906121a1565b60405180910390fd5b6060821560008114610f1d5760405191506000825260208201604052610f6e565b6040519150601f8416801560200281840101858101878315602002848b0101015b81831015610f5b5780518352602083019250602081019050610f3e565b50868552601f19601f8301166040525050505b50809150509392505050565b6000610f8d610f888461222d565b6121fc565b90508083825260208201905082856020860282011115610fac57600080fd5b60005b85811015610fdc5781610fc288826112cc565b845260208401935060208301925050600181019050610faf565b5050509392505050565b6000610ff9610ff484612259565b6121fc565b9050808382526020820190508260005b85811015611039578135850161101f888261135f565b845260208401935060208301925050600181019050611009565b5050509392505050565b600061105661105184612285565b6121fc565b9050808382526020820190508285604086028201111561107557600080fd5b60005b858110156110a5578161108b88826115c1565b845260208401935060408301925050600181019050611078565b5050509392505050565b60006110c26110bd846122b1565b6121fc565b9050808382526020820190508260005b8581101561110257813585016110e88882611821565b8452602084019350602083019250506001810190506110d2565b5050509392505050565b600061111f61111a846122dd565b6121fc565b9050808382526020820190508260005b8581101561115f57813585016111458882611916565b84526020840193506020830192505060018101905061112f565b5050509392505050565b600061117c61117784612309565b6121fc565b90508281526020810184848401111561119457600080fd5b61119f84828561244e565b509392505050565b60006111ba6111b584612309565b6121fc565b9050828152602081018484840111156111d257600080fd5b6111dd84828561245d565b509392505050565b6000813590506111f4816124ad565b92915050565b600082601f83011261120b57600080fd5b813561121b848260208601610f7a565b91505092915050565b600082601f83011261123557600080fd5b8135611245848260208601610fe6565b91505092915050565b600082601f83011261125f57600080fd5b813561126f848260208601611043565b91505092915050565b600082601f83011261128957600080fd5b81356112998482602086016110af565b91505092915050565b600082601f8301126112b357600080fd5b81356112c384826020860161110c565b91505092915050565b6000813590506112db816124c4565b92915050565b6000815190506112f0816124c4565b92915050565b600082601f83011261130757600080fd5b8135611317848260208601611169565b91505092915050565b600082601f83011261133157600080fd5b81516113418482602086016111a7565b91505092915050565b600081359050611359816124db565b92915050565b600060a0828403121561137157600080fd5b61137b60a06121fc565b9050600061138b84828501611a47565b600083015250602061139f84828501611a47565b602083015250604082013567ffffffffffffffff8111156113bf57600080fd5b6113cb848285016112f6565b604083015250606082013567ffffffffffffffff8111156113eb57600080fd5b6113f7848285016112a2565b606083015250608061140b84828501611a08565b60808301525092915050565b60006101c0828403121561142a57600080fd5b6114356101c06121fc565b90506000611445848285016119de565b6000830152506020611459848285016119de565b602083015250604061146d848285016111e5565b604083015250606061148184828501611a08565b606083015250608061149584828501611a08565b60808301525060a06114a9848285016111e5565b60a08301525060c06114bd848285016111e5565b60c08301525060e06114d184828501611a08565b60e08301525061010082013567ffffffffffffffff8111156114f257600080fd5b6114fe8482850161124e565b6101008301525061012082013567ffffffffffffffff81111561152057600080fd5b61152c8482850161124e565b61012083015250610140611542848285016112cc565b6101408301525061016082013567ffffffffffffffff81111561156457600080fd5b6115708482850161124e565b6101608301525061018082013567ffffffffffffffff81111561159257600080fd5b61159e8482850161197a565b610180830152506101a06115b48482850161134a565b6101a08301525092915050565b6000604082840312156115d357600080fd5b6115dd60406121fc565b905060006115ed848285016111e5565b600083015250602061160184828501611a32565b60208301525092915050565b60006080828403121561161f57600080fd5b61162960806121fc565b9050600061163984828501611a47565b600083015250602061164d84828501611a08565b602083015250604061166184828501611a08565b604083015250606082013567ffffffffffffffff81111561168157600080fd5b61168d848285016111fa565b60608301525092915050565b6000608082840312156116ab57600080fd5b6116b560806121fc565b905060006116c584828501611a47565b60008301525060206116d984828501611a47565b602083015250604082013567ffffffffffffffff8111156116f957600080fd5b611705848285016112a2565b604083015250606082013567ffffffffffffffff81111561172557600080fd5b61173184828501611224565b60608301525092915050565b600060c0828403121561174f57600080fd5b61175960c06121fc565b90506000611769848285016119f3565b600083015250602061177d848285016112cc565b6020830152506040611791848285016119f3565b604083015250606082013567ffffffffffffffff8111156117b157600080fd5b6117bd84828501611417565b606083015250608082013567ffffffffffffffff8111156117dd57600080fd5b6117e984828501611699565b60808301525060a082013567ffffffffffffffff81111561180957600080fd5b61181584828501611278565b60a08301525092915050565b6000610140828403121561183457600080fd5b61183f6101206121fc565b9050600061184f84828501611a08565b6000830152506020611863848285016115c1565b602083015250606061187784828501611a08565b604083015250608061188b848285016111e5565b60608301525060a061189f848285016119f3565b60808301525060c082013567ffffffffffffffff8111156118bf57600080fd5b6118cb8482850161197a565b60a08301525060e06118df848285016111e5565b60c0830152506101006118f4848285016111e5565b60e083015250610120611909848285016111e5565b6101008301525092915050565b60006040828403121561192857600080fd5b61193260406121fc565b9050600061194284828501611a47565b600083015250602082013567ffffffffffffffff81111561196257600080fd5b61196e8482850161160d565b60208301525092915050565b60006040828403121561198c57600080fd5b61199660406121fc565b905060006119a684828501611a47565b600083015250602082013567ffffffffffffffff8111156119c657600080fd5b6119d2848285016112f6565b60208301525092915050565b6000813590506119ed816124f2565b92915050565b600081359050611a0281612509565b92915050565b600081359050611a1781612520565b92915050565b600081519050611a2c81612520565b92915050565b600081359050611a4181612537565b92915050565b600081359050611a568161254e565b92915050565b600060208284031215611a6e57600080fd5b600082013567ffffffffffffffff811115611a8857600080fd5b611a9484828501611278565b91505092915050565b600060208284031215611aaf57600080fd5b6000611abd848285016112cc565b91505092915050565b600060208284031215611ad857600080fd5b6000611ae6848285016112e1565b91505092915050565b60008060408385031215611b0257600080fd5b6000611b10858286016112cc565b925050602083013567ffffffffffffffff811115611b2d57600080fd5b611b39858286016112a2565b9150509250929050565b60008060408385031215611b5657600080fd5b6000611b64858286016112cc565b925050602083013567ffffffffffffffff811115611b8157600080fd5b611b8d8582860161160d565b9150509250929050565b600060208284031215611ba957600080fd5b600082015167ffffffffffffffff811115611bc357600080fd5b611bcf84828501611320565b91505092915050565b600060208284031215611bea57600080fd5b600082013567ffffffffffffffff811115611c0457600080fd5b611c108482850161173d565b91505092915050565b600060208284031215611c2b57600080fd5b6000611c39848285016119f3565b91505092915050565b600060208284031215611c5457600080fd5b6000611c6284828501611a1d565b91505092915050565b6000611c778383611f3f565b905092915050565b611c88816123b0565b82525050565b6000611c9982612349565b611ca3818561236c565b935083602082028501611cb585612339565b8060005b85811015611cf15784840389528151611cd28582611c6b565b9450611cdd8361235f565b925060208a01995050600181019050611cb9565b50829750879550505050505092915050565b611d0c816123c2565b82525050565b611d1b816123ce565b82525050565b611d32611d2d826123ce565b612490565b82525050565b6000611d4382612354565b611d4d818561237d565b9350611d5d81856020860161245d565b611d668161249c565b840191505092915050565b6000611d7c82612354565b611d86818561238e565b9350611d9681856020860161245d565b611d9f8161249c565b840191505092915050565b6000611db7601c8361239f565b91507f4272616e6368206d757374206265206c6f6e676572207468616e2030000000006000830152602082019050919050565b6000611df7600e8361239f565b91507f736c6963655f6f766572666c6f770000000000000000000000000000000000006000830152602082019050919050565b6000611e3760318361239f565b91507f56616c75652063616e20626520657175616c20746f206e6f646520627574206e60008301527f65766572206f6e207468652072696768740000000000000000000000000000006020830152604082019050919050565b6000611e9d60118361239f565b91507f736c6963655f6f75744f66426f756e64730000000000000000000000000000006000830152602082019050919050565b6000611edd601b8361239f565b91507f496e6465782063616e6e6f74206265206c657373207468616e203000000000006000830152602082019050919050565b604082016000820151611f266000850182611c7f565b506020820151611f39602085018261206f565b50505050565b600061014083016000830151611f586000860182612051565b506020830151611f6b6020860182611f10565b506040830151611f7e6060860182612051565b506060830151611f916080860182611c7f565b506080830151611fa460a0860182612042565b5060a083015184820360c0860152611fbc8282612005565b91505060c0830151611fd160e0860182611c7f565b5060e0830151611fe5610100860182611c7f565b50610100830151611ffa610120860182611c7f565b508091505092915050565b600060408301600083015161201d600086018261207e565b50602083015184820360208601526120358282611d38565b9150508091505092915050565b61204b81612413565b82525050565b61205a8161241d565b82525050565b6120698161241d565b82525050565b6120788161242d565b82525050565b61208781612441565b82525050565b60006120998285611d21565b6020820191506120a98284611d21565b6020820191508190509392505050565b600060408201905081810360008301526120d38185611c8e565b90506120e26020830184611d03565b9392505050565b60006020820190506120fe6000830184611d03565b92915050565b60006020820190506121196000830184611d12565b92915050565b600060208201905081810360008301526121398184611d71565b905092915050565b6000602082019050818103600083015261215a81611daa565b9050919050565b6000602082019050818103600083015261217a81611dea565b9050919050565b6000602082019050818103600083015261219a81611e2a565b9050919050565b600060208201905081810360008301526121ba81611e90565b9050919050565b600060208201905081810360008301526121da81611ed0565b9050919050565b60006020820190506121f66000830184612060565b92915050565b6000604051905081810181811067ffffffffffffffff821117156122235761222261249a565b5b8060405250919050565b600067ffffffffffffffff8211156122485761224761249a565b5b602082029050602081019050919050565b600067ffffffffffffffff8211156122745761227361249a565b5b602082029050602081019050919050565b600067ffffffffffffffff8211156122a05761229f61249a565b5b602082029050602081019050919050565b600067ffffffffffffffff8211156122cc576122cb61249a565b5b602082029050602081019050919050565b600067ffffffffffffffff8211156122f8576122f761249a565b5b602082029050602081019050919050565b600067ffffffffffffffff8211156123245761232361249a565b5b601f19601f8301169050602081019050919050565b6000819050602082019050919050565b600081519050919050565b600081519050919050565b6000602082019050919050565b600082825260208201905092915050565b600082825260208201905092915050565b600082825260208201905092915050565b600082825260208201905092915050565b60006123bb826123f3565b9050919050565b60008115159050919050565b6000819050919050565b60008160030b9050919050565b600061ffff82169050919050565b600073ffffffffffffffffffffffffffffffffffffffff82169050919050565b6000819050919050565b600063ffffffff82169050919050565b600067ffffffffffffffff82169050919050565b600060ff82169050919050565b82818337600083830152505050565b60005b8381101561247b578082015181840152602081019050612460565b8381111561248a576000848401525b50505050565b6000819050919050565bfe5b6000601f19601f8301169050919050565b6124b6816123b0565b81146124c157600080fd5b50565b6124cd816123ce565b81146124d857600080fd5b50565b6124e4816123d8565b81146124ef57600080fd5b50565b6124fb816123e5565b811461250657600080fd5b50565b61251281612413565b811461251d57600080fd5b50565b6125298161241d565b811461253457600080fd5b50565b6125408161242d565b811461254b57600080fd5b50565b61255781612441565b811461256257600080fd5b5056fea2646970667358221220e43d72cb90bb3395960d8f1fdc67046988ddd1c632dd1f9b7c0878f644f3f04864736f6c63430007060033",
  "immutableReferences": {},
  "source": "// SPDX-License-Identifier: MIT\n// Bridge between ethereum and verus\n\npragma solidity >=0.6.0;\npragma experimental ABIEncoderV2;\nimport \"../Libraries/VerusObjects.sol\";\nimport \"./VerusBlake2b.sol\";\nimport \"../VerusBridge/VerusSerializer.sol\";\nimport \"../VerusNotarizer/VerusNotarizer.sol\";\n\ncontract VerusProof{\n\n    uint256 mmrRoot;\n    VerusBlake2b blake2b;\n    VerusNotarizer verusNotarizer;\n    VerusSerializer verusSerializer;\n    \n    bytes32[] public computedValues;\n    bytes32 public testHashedTransfers;\n    bytes32 public txValue;\n    bytes public testTransfers;\n    bool public testResult;\n    \n    event HashEvent(bytes32 newHash,uint8 eventType);\n\n    constructor(address notarizerAddress,address verusBLAKE2b,address verusSerializerAddress) {\n        blake2b = VerusBlake2b(verusBLAKE2b);\n        verusSerializer = VerusSerializer(verusSerializerAddress);\n        verusNotarizer = VerusNotarizer(notarizerAddress);   \n    }\n\n    function hashTransfers(VerusObjects.CReserveTransfer[] memory _transfers) public view returns (bytes32){\n        bytes memory sTransfers = verusSerializer.serializeCReserveTransfers(_transfers,false);\n        return keccak256(sTransfers);\n    }\n\n    function checkProof(bytes32 hashToProve, VerusObjects.CTXProof[] memory _branches) public view returns(bytes32){\n        //loop through the branches from bottom to top\n        bytes32 hashInProgress = hashToProve;\n        for(uint i = 0; i < _branches.length; i++){\n            hashInProgress = checkBranch(hashInProgress,_branches[i].proofSequence);\n        }\n        return hashInProgress;\n    }\n\n    function checkBranch(bytes32 _hashToCheck,VerusObjects.CMerkleBranch memory _branch) public view returns(bytes32){\n        \n        require(_branch.nIndex >= 0,\"Index cannot be less than 0\");\n        require(_branch.branch.length > 0,\"Branch must be longer than 0\");\n        uint branchLength = _branch.branch.length;\n        bytes32 hashInProgress = _hashToCheck;\n        bytes memory joined;\n        //hashInProgress = blake2b.bytesToBytes32(abi.encodePacked(_hashToCheck));\n        uint hashIndex = _branch.nIndex;\n        \n       for(uint i = 0;i < branchLength; i++){\n            if(hashIndex & 1 > 0){\n                require(_branch.branch[i] != _hashToCheck,\"Value can be equal to node but never on the right\");\n                //join the two arrays and pass to blake2b\n                joined = abi.encodePacked(_branch.branch[i],hashInProgress);\n            } else {\n                joined = abi.encodePacked(hashInProgress,_branch.branch[i]);\n            }\n            hashInProgress = blake2b.createHash(joined);\n            hashIndex >>= 1;\n        }\n\n        return hashInProgress;\n\n    }\n    \n    function checkTransfers(VerusObjects.CReserveTransferImport memory _import) public view returns (bool){\n        //identify if the hashed transfers are in the \n        bytes32 hashedTransfers = hashTransfers(_import.transfers);\n        //check they occur in the last elVchObj\n        uint transfersIndex = _import.partialtransactionproof.components[_import.partialtransactionproof.components.length -1].VchObjIndex;\n        bytes memory toCheck = _import.partialtransactionproof.components[_import.partialtransactionproof.components.length -1].elVchObj;\n        bytes32 incomingValue = blake2b.bytesToBytes32(slice(toCheck,transfersIndex,32));\n        if(hashedTransfers == incomingValue) return true;\n        else return false;\n    }\n    \n    \n    //roll through each proveComponents\n    function proveComponents(VerusObjects.CReserveTransferImport memory _import) public view returns(bytes32 txRoot){\n        //delete computedValues\n        bytes32 hashInProgress;\n        bytes32 testHash;\n        \n        if (_import.partialtransactionproof.components.length > 0)\n        {   \n             hashInProgress = blake2b.createHash(_import.partialtransactionproof.components[0].elVchObj);\n            if (_import.partialtransactionproof.components[0].elType == 1 )\n            {\n                txRoot = checkProof(hashInProgress,_import.partialtransactionproof.components[0].elProof);           \n            }\n        }\n        \n        for(uint i = 1; i < _import.partialtransactionproof.components.length; i++){\n            hashInProgress = blake2b.createHash(_import.partialtransactionproof.components[i].elVchObj);\n            testHash = checkProof(hashInProgress,_import.partialtransactionproof.components[i].elProof);\n        \n           if(txRoot != testHash){\n               txRoot = 0x0000000000000000000000000000000000000000000000000000000000000000;\n               break;\n           }          \n        }\n        \n        \n        return txRoot;\n        \n    }\n    \n    function proveTransaction(VerusObjects.CReserveTransferImport memory _import) public view returns(bytes32 stateRoot){\n        stateRoot = 0x000000000000000000000000000000000000000000000000000000000000000;\n        if(!checkTransfers(_import)) return stateRoot;\n        \n        bytes32 txRoot = proveComponents(_import);\n        if(txRoot == 0x0000000000000000000000000000000000000000000000000000000000000000) return stateRoot;\n        \n        stateRoot = checkProof(txRoot,_import.partialtransactionproof.txproof);\n        return stateRoot;\n    }\n    \n    function proveImports(VerusObjects.CReserveTransferImport memory _import) public view returns(bool){\n        bytes32 predictedRootHash;\n        predictedRootHash = proveTransaction(_import);\n        uint32 lastBlockHeight = verusNotarizer.lastBlockHeight();\n        bytes32 predictedStateRoot = flipBytes32(verusNotarizer.notarizedStateRoots(lastBlockHeight));\n        if(predictedRootHash == predictedStateRoot) {\n            return true;\n        } else return false;\n    \n    }\n\n    \n/*\n    function proveTransaction(bytes32 mmrRootHash,bytes32 notarisationHash,bytes32[] memory _transfersProof,uint32 _hashIndex) public view returns(bool){\n        if (mmrRootHash == predictedRootHash(notarisationHash,_hashIndex,_transfersProof)) return true;\n        else return false;\n    }\n\n    function predictedRootHash(bytes32 _hashToCheck,uint _hashIndex,bytes32[] memory _branch) public view returns(bytes32){\n        \n        require(_hashIndex >= 0,\"Index cannot be less than 0\");\n        require(_branch.length > 0,\"Branch must be longer than 0\");\n        uint branchLength = _branch.length;\n        bytes32 hashInProgress;\n        bytes memory joined;\n        hashInProgress = blake2b.bytesToBytes32(abi.encodePacked(_hashToCheck));\n\n       for(uint i = 0;i < branchLength; i++){\n            if(_hashIndex & 1 > 0){\n                require(_branch[i] != _hashToCheck,\"Value can be equal to node but never on the right\");\n                //join the two arrays and pass to blake2b\n                joined = abi.encodePacked(_branch[i],hashInProgress);\n            } else {\n                joined = abi.encodePacked(hashInProgress,_branch[i]);\n            }\n            hashInProgress = blake2b.createHash(joined);\n            _hashIndex >>= 1;\n        }\n\n        return hashInProgress;\n\n    }\n\n    function checkHashInRoot(bytes32 _mmrRoot,bytes32 _hashToCheck,uint _hashIndex,bytes32[] memory _branch) public view returns(bool){\n        bytes32 calculatedHash = predictedRootHash(_hashToCheck,_hashIndex,_branch);\n        if(_mmrRoot == calculatedHash) return true;\n        else return false;\n    }*/\n    \n    function flipBytes32(bytes32 input) public pure returns (bytes32){\n        return bytes32(reverseuint256(uint256(input)));\n    }\n    \n    function reverseuint256(uint256 input) internal pure returns (uint256 v) {\n        v = input;\n    \n        // swap bytes\n        v = ((v & 0xFF00FF00FF00FF00FF00FF00FF00FF00FF00FF00FF00FF00FF00FF00FF00FF00) >> 8) |\n            ((v & 0x00FF00FF00FF00FF00FF00FF00FF00FF00FF00FF00FF00FF00FF00FF00FF00FF) << 8);\n    \n        // swap 2-byte long pairs\n        v = ((v & 0xFFFF0000FFFF0000FFFF0000FFFF0000FFFF0000FFFF0000FFFF0000FFFF0000) >> 16) |\n            ((v & 0x0000FFFF0000FFFF0000FFFF0000FFFF0000FFFF0000FFFF0000FFFF0000FFFF) << 16);\n    \n        // swap 4-byte long pairs\n        v = ((v & 0xFFFFFFFF00000000FFFFFFFF00000000FFFFFFFF00000000FFFFFFFF00000000) >> 32) |\n            ((v & 0x00000000FFFFFFFF00000000FFFFFFFF00000000FFFFFFFF00000000FFFFFFFF) << 32);\n    \n        // swap 8-byte long pairs\n        v = ((v & 0xFFFFFFFFFFFFFFFF0000000000000000FFFFFFFFFFFFFFFF0000000000000000) >> 64) |\n            ((v & 0x0000000000000000FFFFFFFFFFFFFFFF0000000000000000FFFFFFFFFFFFFFFF) << 64);\n    \n        // swap 16-byte long pairs\n        v = (v >> 128) | (v << 128);\n    }\n    \n    function slice(bytes memory _bytes,uint256 _start,uint256 _length\n    )\n        internal\n        pure\n        returns (bytes memory)\n    {\n        require(_length + 31 >= _length, \"slice_overflow\");\n        require(_bytes.length >= _start + _length, \"slice_outOfBounds\");\n\n        bytes memory tempBytes;\n\n        assembly {\n            switch iszero(_length)\n            case 0 {\n                // Get a location of some free memory and store it in tempBytes as\n                // Solidity does for memory variables.\n                tempBytes := mload(0x40)\n\n                // The first word of the slice result is potentially a partial\n                // word read from the original array. To read it, we calculate\n                // the length of that partial word and start copying that many\n                // bytes into the array. The first word we copy will start with\n                // data we don't care about, but the last `lengthmod` bytes will\n                // land at the beginning of the contents of the new array. When\n                // we're done copying, we overwrite the full first word with\n                // the actual length of the slice.\n                let lengthmod := and(_length, 31)\n\n                // The multiplication in the next line is necessary\n                // because when slicing multiples of 32 bytes (lengthmod == 0)\n                // the following copy loop was copying the origin's length\n                // and then ending prematurely not copying everything it should.\n                let mc := add(add(tempBytes, lengthmod), mul(0x20, iszero(lengthmod)))\n                let end := add(mc, _length)\n\n                for {\n                    // The multiplication in the next line has the same exact purpose\n                    // as the one above.\n                    let cc := add(add(add(_bytes, lengthmod), mul(0x20, iszero(lengthmod))), _start)\n                } lt(mc, end) {\n                    mc := add(mc, 0x20)\n                    cc := add(cc, 0x20)\n                } {\n                    mstore(mc, mload(cc))\n                }\n\n                mstore(tempBytes, _length)\n\n                //update free-memory pointer\n                //allocating the array padded to 32 bytes like the compiler does now\n                mstore(0x40, and(add(mc, 31), not(31)))\n            }\n            //if we want a zero-length slice let's just return a zero-length array\n            default {\n                tempBytes := mload(0x40)\n                //zero out the 32 bytes slice we are about to return\n                //we need to do it because Solidity does not garbage collect\n                mstore(tempBytes, 0)\n\n                mstore(0x40, add(tempBytes, 0x20))\n            }\n        }\n\n        return tempBytes;\n    }\n    \n}\n\n\n",
  "sourcePath": "/home/chris/Verus-Ethereum-contracts/contracts/MMR/VerusProof.sol",
  "compiler": {
    "name": "solc",
    "version": "0.7.6+commit.7338295f.Emscripten.clang"
  },
  "schemaVersion": "3.4.4",
  "updatedAt": "2022-02-04T09:51:56.118Z",
  "networkType": "ethereum",
  "devdoc": {
    "kind": "dev",
    "methods": {},
    "version": 1
  },
  "userdoc": {
    "kind": "user",
    "methods": {},
    "version": 1
  }
}