{
  "contractName": "VerusCrossChainExport",
  "abi": [
    {
      "inputs": [
        {
          "internalType": "address",
          "name": "verusSerializerAddress",
          "type": "address"
        },
        {
          "internalType": "address",
          "name": "verusBridgeMasterAddress",
          "type": "address"
        }
      ],
      "stateMutability": "nonpayable",
      "type": "constructor"
    },
    {
      "inputs": [
        {
          "internalType": "address",
          "name": "contractAddress",
          "type": "address"
        }
      ],
      "name": "setContract",
      "outputs": [],
      "stateMutability": "nonpayable",
      "type": "function"
    },
    {
      "inputs": [
        {
          "components": [
            {
              "internalType": "uint32",
              "name": "version",
              "type": "uint32"
            },
            {
              "components": [
                {
                  "internalType": "address",
                  "name": "currency",
                  "type": "address"
                },
                {
                  "internalType": "uint64",
                  "name": "amount",
                  "type": "uint64"
                }
              ],
              "internalType": "struct VerusObjects.CCurrencyValueMap",
              "name": "currencyvalue",
              "type": "tuple"
            },
            {
              "internalType": "uint32",
              "name": "flags",
              "type": "uint32"
            },
            {
              "internalType": "address",
              "name": "feecurrencyid",
              "type": "address"
            },
            {
              "internalType": "uint256",
              "name": "fees",
              "type": "uint256"
            },
            {
              "components": [
                {
                  "internalType": "uint8",
                  "name": "destinationtype",
                  "type": "uint8"
                },
                {
                  "internalType": "bytes",
                  "name": "destinationaddress",
                  "type": "bytes"
                }
              ],
              "internalType": "struct VerusObjectsCommon.CTransferDestination",
              "name": "destination",
              "type": "tuple"
            },
            {
              "internalType": "address",
              "name": "destcurrencyid",
              "type": "address"
            },
            {
              "internalType": "address",
              "name": "destsystemid",
              "type": "address"
            },
            {
              "internalType": "address",
              "name": "secondreserveid",
              "type": "address"
            }
          ],
          "internalType": "struct VerusObjects.CReserveTransfer[]",
          "name": "transfers",
          "type": "tuple[]"
        },
        {
          "internalType": "bool",
          "name": "bridgeReady",
          "type": "bool"
        }
      ],
      "name": "generateCCE",
      "outputs": [
        {
          "components": [
            {
              "internalType": "uint16",
              "name": "version",
              "type": "uint16"
            },
            {
              "internalType": "uint16",
              "name": "flags",
              "type": "uint16"
            },
            {
              "internalType": "address",
              "name": "sourcesystemid",
              "type": "address"
            },
            {
              "internalType": "bytes32",
              "name": "hashtransfers",
              "type": "bytes32"
            },
            {
              "internalType": "uint32",
              "name": "sourceheightstart",
              "type": "uint32"
            },
            {
              "internalType": "uint32",
              "name": "sourceheightend",
              "type": "uint32"
            },
            {
              "internalType": "address",
              "name": "destinationsystemid",
              "type": "address"
            },
            {
              "internalType": "address",
              "name": "destinationcurrencyid",
              "type": "address"
            },
            {
              "internalType": "uint32",
              "name": "numinputs",
              "type": "uint32"
            },
            {
              "components": [
                {
                  "internalType": "address",
                  "name": "currency",
                  "type": "address"
                },
                {
                  "internalType": "uint64",
                  "name": "amount",
                  "type": "uint64"
                }
              ],
              "internalType": "struct VerusObjects.CCurrencyValueMap[]",
              "name": "totalamounts",
              "type": "tuple[]"
            },
            {
              "components": [
                {
                  "internalType": "address",
                  "name": "currency",
                  "type": "address"
                },
                {
                  "internalType": "uint64",
                  "name": "amount",
                  "type": "uint64"
                }
              ],
              "internalType": "struct VerusObjects.CCurrencyValueMap[]",
              "name": "totalfees",
              "type": "tuple[]"
            },
            {
              "components": [
                {
                  "internalType": "address",
                  "name": "currency",
                  "type": "address"
                },
                {
                  "internalType": "uint64",
                  "name": "amount",
                  "type": "uint64"
                }
              ],
              "internalType": "struct VerusObjects.CCurrencyValueMap[]",
              "name": "totalburned",
              "type": "tuple[]"
            },
            {
              "components": [
                {
                  "internalType": "uint8",
                  "name": "destinationtype",
                  "type": "uint8"
                },
                {
                  "internalType": "bytes",
                  "name": "destinationaddress",
                  "type": "bytes"
                }
              ],
              "internalType": "struct VerusObjectsCommon.CTransferDestination",
              "name": "rewardaddress",
              "type": "tuple"
            },
            {
              "internalType": "int32",
              "name": "firstinput",
              "type": "int32"
            }
          ],
          "internalType": "struct VerusObjects.CCrossChainExport",
          "name": "",
          "type": "tuple"
        }
      ],
      "stateMutability": "nonpayable",
      "type": "function"
    }
  ],
  "bytecode": "0x60806040523480156200001157600080fd5b50604051620026513803806200265183398181016040528101906200003791906200012b565b81600260006101000a81548173ffffffffffffffffffffffffffffffffffffffff021916908373ffffffffffffffffffffffffffffffffffffffff16021790555080600360006101000a81548173ffffffffffffffffffffffffffffffffffffffff021916908373ffffffffffffffffffffffffffffffffffffffff160217905550505062000172565b600080fd5b600073ffffffffffffffffffffffffffffffffffffffff82169050919050565b6000620000f382620000c6565b9050919050565b6200010581620000e6565b81146200011157600080fd5b50565b6000815190506200012581620000fa565b92915050565b60008060408385031215620001455762000144620000c1565b5b6000620001558582860162000114565b9250506020620001688582860162000114565b9150509250929050565b6124cf80620001826000396000f3fe608060405234801561001057600080fd5b50600436106100365760003560e01c806375f890ab1461003b578063bb6ff4b614610057575b600080fd5b6100556004803603810190610050919061147e565b610087565b005b610071600480360381019061006c91906119bd565b610129565b60405161007e9190611d8d565b60405180910390f35b600360009054906101000a900473ffffffffffffffffffffffffffffffffffffffff1673ffffffffffffffffffffffffffffffffffffffff163373ffffffffffffffffffffffffffffffffffffffff16146100e5576100e4611daf565b5b80600260006101000a81548173ffffffffffffffffffffffffffffffffffffffff021916908373ffffffffffffffffffffffffffffffffffffffff16021790555050565b610131611264565b610139611264565b6000600260009054906101000a900473ffffffffffffffffffffffffffffffffffffffff1673ffffffffffffffffffffffffffffffffffffffff16633b7cc0a28660006040518363ffffffff1660e01b8152600401610199929190611f84565b600060405180830381865afa1580156101b6573d6000803e3d6000fd5b505050506040513d6000823e3d601f19601f820116820180604052508101906101df9190612024565b90506000818051906020012090506001836000019061ffff16908161ffff16815250506002836020019061ffff16908161ffff168152505043836080019063ffffffff16908163ffffffff1681525050438360a0019063ffffffff16908163ffffffff16815250507367460c2f56774ed27eeb8685f29f6cec0b090b00836040019073ffffffffffffffffffffffffffffffffffffffff16908173ffffffffffffffffffffffffffffffffffffffff16815250508083606001818152505073a6ef9ea235635e328124ff3429db9f9e91b64e2d8360c0019073ffffffffffffffffffffffffffffffffffffffff16908173ffffffffffffffffffffffffffffffffffffffff168152505084156103405773ffece948b8a38bbcc813411d2597f7f8485a06898360e0019073ffffffffffffffffffffffffffffffffffffffff16908173ffffffffffffffffffffffffffffffffffffffff168152505061038d565b73a6ef9ea235635e328124ff3429db9f9e91b64e2d8360e0019073ffffffffffffffffffffffffffffffffffffffff16908173ffffffffffffffffffffffffffffffffffffffff16815250505b855183610100019063ffffffff16908163ffffffff1681525050600080600080600090505b8951811015610971576103e68a82815181106103d1576103d061206d565b5b60200260200101516020015160000151610cc8565b9350600084111561048e578981815181106104045761040361206d565b5b60200260200101516020015160200151600060018661042391906120cb565b815481106104345761043361206d565b5b9060005260206000200160000160148282829054906101000a900467ffffffffffffffff1661046391906120ff565b92506101000a81548167ffffffffffffffff021916908367ffffffffffffffff1602179055506105a7565b600060405180604001604052808c84815181106104ae576104ad61206d565b5b6020026020010151602001516000015173ffffffffffffffffffffffffffffffffffffffff1681526020018c84815181106104ec576104eb61206d565b5b6020026020010151602001516020015167ffffffffffffffff168152509080600181540180825580915050600190039060005260206000200160009091909190915060008201518160000160006101000a81548173ffffffffffffffffffffffffffffffffffffffff021916908373ffffffffffffffffffffffffffffffffffffffff16021790555060208201518160000160146101000a81548167ffffffffffffffff021916908367ffffffffffffffff16021790555050505b6105ce8a82815181106105bd576105bc61206d565b5b602002602001015160600151610cc8565b92506000831115610672578981815181106105ec576105eb61206d565b5b602002602001015160800151600060018561060791906120cb565b815481106106185761061761206d565b5b9060005260206000200160000160148282829054906101000a900467ffffffffffffffff1661064791906120ff565b92506101000a81548167ffffffffffffffff021916908367ffffffffffffffff160217905550610783565b600060405180604001604052808c84815181106106925761069161206d565b5b60200260200101516060015173ffffffffffffffffffffffffffffffffffffffff1681526020018c84815181106106cc576106cb61206d565b5b60200260200101516080015167ffffffffffffffff168152509080600181540180825580915050600190039060005260206000200160009091909190915060008201518160000160006101000a81548173ffffffffffffffffffffffffffffffffffffffff021916908373ffffffffffffffffffffffffffffffffffffffff16021790555060208201518160000160146101000a81548167ffffffffffffffff021916908367ffffffffffffffff16021790555050505b6107aa8a82815181106107995761079861206d565b5b602002602001015160600151610d84565b9150600082111561084d578981815181106107c8576107c761206d565b5b602002602001015160800151600180846107e291906120cb565b815481106107f3576107f261206d565b5b9060005260206000200160000160148282829054906101000a900467ffffffffffffffff1661082291906120ff565b92506101000a81548167ffffffffffffffff021916908367ffffffffffffffff16021790555061095e565b600160405180604001604052808c848151811061086d5761086c61206d565b5b60200260200101516060015173ffffffffffffffffffffffffffffffffffffffff1681526020018c84815181106108a7576108a661206d565b5b60200260200101516080015167ffffffffffffffff168152509080600181540180825580915050600190039060005260206000200160009091909190915060008201518160000160006101000a81548173ffffffffffffffffffffffffffffffffffffffff021916908373ffffffffffffffffffffffffffffffffffffffff16021790555060208201518160000160146101000a81548167ffffffffffffffff021916908367ffffffffffffffff16021790555050505b80806109699061213d565b9150506103b2565b5061098f600080600160008054905061098a91906120cb565b610e40565b6109ac60016000600180805490506109a791906120cb565b610e40565b6000805480602002602001604051908101604052809291908181526020016000905b82821015610a84578382906000526020600020016040518060400160405290816000820160009054906101000a900473ffffffffffffffffffffffffffffffffffffffff1673ffffffffffffffffffffffffffffffffffffffff1673ffffffffffffffffffffffffffffffffffffffff1681526020016000820160149054906101000a900467ffffffffffffffff1667ffffffffffffffff1667ffffffffffffffff1681525050815260200190600101906109ce565b505050508661012001819052506001805480602002602001604051908101604052809291908181526020016000905b82821015610b69578382906000526020600020016040518060400160405290816000820160009054906101000a900473ffffffffffffffffffffffffffffffffffffffff1673ffffffffffffffffffffffffffffffffffffffff1673ffffffffffffffffffffffffffffffffffffffff1681526020016000820160149054906101000a900467ffffffffffffffff1667ffffffffffffffff1667ffffffffffffffff168152505081526020019060010190610ab3565b5050505086610140018190525060006040518060400160405280600073ffffffffffffffffffffffffffffffffffffffff168152602001600067ffffffffffffffff168152509050600167ffffffffffffffff811115610bcc57610bcb6114c1565b5b604051908082528060200260200182016040528015610c0557816020015b610bf261133b565b815260200190600190039081610bea5790505b5087610160018190525080876101600151600081518110610c2957610c2861206d565b5b60200260200101819052506040518060400160405280600460ff16815260200173b26820ee0c9b1276aac834cf457026a575dfce84604051602001610c6e91906121cd565b6040516020818303038152906040528152508761018001819052506001876101a0019060030b908160030b81525050600080610caa9190611375565b60016000610cb89190611375565b8697505050505050505092915050565b600080600090505b600080549050811015610d79578273ffffffffffffffffffffffffffffffffffffffff1660008281548110610d0857610d0761206d565b5b9060005260206000200160000160009054906101000a900473ffffffffffffffffffffffffffffffffffffffff1673ffffffffffffffffffffffffffffffffffffffff1603610d6657600181610d5e91906121e8565b915050610d7f565b8080610d719061213d565b915050610cd0565b50600090505b919050565b600080600090505b600180549050811015610e35578273ffffffffffffffffffffffffffffffffffffffff1660018281548110610dc457610dc361206d565b5b9060005260206000200160000160009054906101000a900473ffffffffffffffffffffffffffffffffffffffff1673ffffffffffffffffffffffffffffffffffffffff1603610e2257600181610e1a91906121e8565b915050610e3b565b8080610e2d9061213d565b915050610d8c565b50600090505b919050565b60008290506000829050808203610e5857505061125f565b60008560028686610e699190612248565b610e73919061230b565b86610e7e9190612375565b81548110610e8f57610e8e61206d565b5b9060005260206000200160000160009054906101000a900473ffffffffffffffffffffffffffffffffffffffff1690505b818313611233575b8073ffffffffffffffffffffffffffffffffffffffff16868481548110610ef257610ef161206d565b5b9060005260206000200160000160009054906101000a900473ffffffffffffffffffffffffffffffffffffffff1673ffffffffffffffffffffffffffffffffffffffff161015610f4f578280610f4790612409565b935050610ec8565b5b858281548110610f6357610f6261206d565b5b9060005260206000200160000160009054906101000a900473ffffffffffffffffffffffffffffffffffffffff1673ffffffffffffffffffffffffffffffffffffffff168173ffffffffffffffffffffffffffffffffffffffff161015610fd7578180610fcf90612451565b925050610f50565b81831361122e576000868481548110610ff357610ff261206d565b5b906000526020600020016040518060400160405290816000820160009054906101000a900473ffffffffffffffffffffffffffffffffffffffff1673ffffffffffffffffffffffffffffffffffffffff1673ffffffffffffffffffffffffffffffffffffffff1681526020016000820160149054906101000a900467ffffffffffffffff1667ffffffffffffffff1667ffffffffffffffff168152505090508683815481106110a5576110a461206d565b5b906000526020600020018785815481106110c2576110c161206d565b5b906000526020600020016000820160009054906101000a900473ffffffffffffffffffffffffffffffffffffffff168160000160006101000a81548173ffffffffffffffffffffffffffffffffffffffff021916908373ffffffffffffffffffffffffffffffffffffffff1602179055506000820160149054906101000a900467ffffffffffffffff168160000160146101000a81548167ffffffffffffffff021916908367ffffffffffffffff1602179055509050508087848154811061118d5761118c61206d565b5b9060005260206000200160008201518160000160006101000a81548173ffffffffffffffffffffffffffffffffffffffff021916908373ffffffffffffffffffffffffffffffffffffffff16021790555060208201518160000160146101000a81548167ffffffffffffffff021916908367ffffffffffffffff160217905550905050838061121b90612409565b945050828061122990612451565b935050505b610ec0565b8185121561124757611246868684610e40565b5b8383121561125b5761125a868486610e40565b5b5050505b505050565b604051806101c00160405280600061ffff168152602001600061ffff168152602001600073ffffffffffffffffffffffffffffffffffffffff16815260200160008019168152602001600063ffffffff168152602001600063ffffffff168152602001600073ffffffffffffffffffffffffffffffffffffffff168152602001600073ffffffffffffffffffffffffffffffffffffffff168152602001600063ffffffff16815260200160608152602001606081526020016060815260200161132b611396565b8152602001600060030b81525090565b6040518060400160405280600073ffffffffffffffffffffffffffffffffffffffff168152602001600067ffffffffffffffff1681525090565b508054600082559060005260206000209081019061139391906113b3565b50565b6040518060400160405280600060ff168152602001606081525090565b5b8082111561140857600080820160006101000a81549073ffffffffffffffffffffffffffffffffffffffff02191690556000820160146101000a81549067ffffffffffffffff0219169055506001016113b4565b5090565b6000604051905090565b600080fd5b600080fd5b600073ffffffffffffffffffffffffffffffffffffffff82169050919050565b600061144b82611420565b9050919050565b61145b81611440565b811461146657600080fd5b50565b60008135905061147881611452565b92915050565b60006020828403121561149457611493611416565b5b60006114a284828501611469565b91505092915050565b600080fd5b6000601f19601f8301169050919050565b7f4e487b7100000000000000000000000000000000000000000000000000000000600052604160045260246000fd5b6114f9826114b0565b810181811067ffffffffffffffff82111715611518576115176114c1565b5b80604052505050565b600061152b61140c565b905061153782826114f0565b919050565b600067ffffffffffffffff821115611557576115566114c1565b5b602082029050602081019050919050565b600080fd5b600080fd5b600080fd5b600063ffffffff82169050919050565b61159081611577565b811461159b57600080fd5b50565b6000813590506115ad81611587565b92915050565b600067ffffffffffffffff82169050919050565b6115d0816115b3565b81146115db57600080fd5b50565b6000813590506115ed816115c7565b92915050565b6000604082840312156116095761160861156d565b5b6116136040611521565b9050600061162384828501611469565b6000830152506020611637848285016115de565b60208301525092915050565b6000819050919050565b61165681611643565b811461166157600080fd5b50565b6000813590506116738161164d565b92915050565b600060ff82169050919050565b61168f81611679565b811461169a57600080fd5b50565b6000813590506116ac81611686565b92915050565b600080fd5b600067ffffffffffffffff8211156116d2576116d16114c1565b5b6116db826114b0565b9050602081019050919050565b82818337600083830152505050565b600061170a611705846116b7565b611521565b905082815260208101848484011115611726576117256116b2565b5b6117318482856116e8565b509392505050565b600082601f83011261174e5761174d6114ab565b5b813561175e8482602086016116f7565b91505092915050565b60006040828403121561177d5761177c61156d565b5b6117876040611521565b905060006117978482850161169d565b600083015250602082013567ffffffffffffffff8111156117bb576117ba611572565b5b6117c784828501611739565b60208301525092915050565b600061014082840312156117ea576117e961156d565b5b6117f5610120611521565b905060006118058482850161159e565b6000830152506020611819848285016115f3565b602083015250606061182d8482850161159e565b604083015250608061184184828501611469565b60608301525060a061185584828501611664565b60808301525060c082013567ffffffffffffffff81111561187957611878611572565b5b61188584828501611767565b60a08301525060e061189984828501611469565b60c0830152506101006118ae84828501611469565b60e0830152506101206118c384828501611469565b6101008301525092915050565b60006118e36118de8461153c565b611521565b9050808382526020820190506020840283018581111561190657611905611568565b5b835b8181101561194d57803567ffffffffffffffff81111561192b5761192a6114ab565b5b80860161193889826117d3565b85526020850194505050602081019050611908565b5050509392505050565b600082601f83011261196c5761196b6114ab565b5b813561197c8482602086016118d0565b91505092915050565b60008115159050919050565b61199a81611985565b81146119a557600080fd5b50565b6000813590506119b781611991565b92915050565b600080604083850312156119d4576119d3611416565b5b600083013567ffffffffffffffff8111156119f2576119f161141b565b5b6119fe85828601611957565b9250506020611a0f858286016119a8565b9150509250929050565b600061ffff82169050919050565b611a3081611a19565b82525050565b611a3f81611440565b82525050565b6000819050919050565b611a5881611a45565b82525050565b611a6781611577565b82525050565b600081519050919050565b600082825260208201905092915050565b6000819050602082019050919050565b611aa2816115b3565b82525050565b604082016000820151611abe6000850182611a36565b506020820151611ad16020850182611a99565b50505050565b6000611ae38383611aa8565b60408301905092915050565b6000602082019050919050565b6000611b0782611a6d565b611b118185611a78565b9350611b1c83611a89565b8060005b83811015611b4d578151611b348882611ad7565b9750611b3f83611aef565b925050600181019050611b20565b5085935050505092915050565b611b6381611679565b82525050565b600081519050919050565b600082825260208201905092915050565b60005b83811015611ba3578082015181840152602081019050611b88565b83811115611bb2576000848401525b50505050565b6000611bc382611b69565b611bcd8185611b74565b9350611bdd818560208601611b85565b611be6816114b0565b840191505092915050565b6000604083016000830151611c096000860182611b5a565b5060208301518482036020860152611c218282611bb8565b9150508091505092915050565b60008160030b9050919050565b611c4481611c2e565b82525050565b60006101c083016000830151611c636000860182611a27565b506020830151611c766020860182611a27565b506040830151611c896040860182611a36565b506060830151611c9c6060860182611a4f565b506080830151611caf6080860182611a5e565b5060a0830151611cc260a0860182611a5e565b5060c0830151611cd560c0860182611a36565b5060e0830151611ce860e0860182611a36565b50610100830151611cfd610100860182611a5e565b50610120830151848203610120860152611d178282611afc565b915050610140830151848203610140860152611d338282611afc565b915050610160830151848203610160860152611d4f8282611afc565b915050610180830151848203610180860152611d6b8282611bf1565b9150506101a0830151611d826101a0860182611c3b565b508091505092915050565b60006020820190508181036000830152611da78184611c4a565b905092915050565b7f4e487b7100000000000000000000000000000000000000000000000000000000600052600160045260246000fd5b600081519050919050565b600082825260208201905092915050565b6000819050602082019050919050565b611e1381611643565b82525050565b600061014083016000830151611e326000860182611a5e565b506020830151611e456020860182611aa8565b506040830151611e586060860182611a5e565b506060830151611e6b6080860182611a36565b506080830151611e7e60a0860182611e0a565b5060a083015184820360c0860152611e968282611bf1565b91505060c0830151611eab60e0860182611a36565b5060e0830151611ebf610100860182611a36565b50610100830151611ed4610120860182611a36565b508091505092915050565b6000611eeb8383611e19565b905092915050565b6000602082019050919050565b6000611f0b82611dde565b611f158185611de9565b935083602082028501611f2785611dfa565b8060005b85811015611f635784840389528151611f448582611edf565b9450611f4f83611ef3565b925060208a01995050600181019050611f2b565b50829750879550505050505092915050565b611f7e81611985565b82525050565b60006040820190508181036000830152611f9e8185611f00565b9050611fad6020830184611f75565b9392505050565b6000611fc7611fc2846116b7565b611521565b905082815260208101848484011115611fe357611fe26116b2565b5b611fee848285611b85565b509392505050565b600082601f83011261200b5761200a6114ab565b5b815161201b848260208601611fb4565b91505092915050565b60006020828403121561203a57612039611416565b5b600082015167ffffffffffffffff8111156120585761205761141b565b5b61206484828501611ff6565b91505092915050565b7f4e487b7100000000000000000000000000000000000000000000000000000000600052603260045260246000fd5b7f4e487b7100000000000000000000000000000000000000000000000000000000600052601160045260246000fd5b60006120d682611643565b91506120e183611643565b9250828210156120f4576120f361209c565b5b828203905092915050565b600061210a826115b3565b9150612115836115b3565b92508267ffffffffffffffff038211156121325761213161209c565b5b828201905092915050565b600061214882611643565b91507fffffffffffffffffffffffffffffffffffffffffffffffffffffffffffffffff820361217a5761217961209c565b5b600182019050919050565b60008160601b9050919050565b600061219d82612185565b9050919050565b60006121af82612192565b9050919050565b6121c76121c282611440565b6121a4565b82525050565b60006121d982846121b6565b60148201915081905092915050565b60006121f382611643565b91506121fe83611643565b9250827fffffffffffffffffffffffffffffffffffffffffffffffffffffffffffffffff038211156122335761223261209c565b5b828201905092915050565b6000819050919050565b60006122538261223e565b915061225e8361223e565b9250827f8000000000000000000000000000000000000000000000000000000000000000018212600084121516156122995761229861209c565b5b827f7fffffffffffffffffffffffffffffffffffffffffffffffffffffffffffffff0182136000841216156122d1576122d061209c565b5b828203905092915050565b7f4e487b7100000000000000000000000000000000000000000000000000000000600052601260045260246000fd5b60006123168261223e565b91506123218361223e565b925082612331576123306122dc565b5b600160000383147f80000000000000000000000000000000000000000000000000000000000000008314161561236a5761236961209c565b5b828205905092915050565b60006123808261223e565b915061238b8361223e565b9250817f7fffffffffffffffffffffffffffffffffffffffffffffffffffffffffffffff038313600083121516156123c6576123c561209c565b5b817f80000000000000000000000000000000000000000000000000000000000000000383126000831216156123fe576123fd61209c565b5b828201905092915050565b60006124148261223e565b91507f7fffffffffffffffffffffffffffffffffffffffffffffffffffffffffffffff82036124465761244561209c565b5b600182019050919050565b600061245c8261223e565b91507f8000000000000000000000000000000000000000000000000000000000000000820361248e5761248d61209c565b5b60018203905091905056fea26469706673582212203171fee4418f339fbbd8e481a06954dcf969183747b6beb2cdba1eec0ffd682964736f6c634300080d0033",
  "immutableReferences": {},
  "source": "// SPDX-License-Identifier: MIT\n// Bridge between ethereum and verus\n\npragma solidity >=0.6.0 <0.9.0;\npragma experimental ABIEncoderV2;\n\nimport \"../Libraries/VerusObjects.sol\";\nimport \"../Libraries/VerusConstants.sol\";\nimport \"../VerusBridge/VerusSerializer.sol\";\n\ncontract VerusCrossChainExport{\n\n    VerusObjects.CCurrencyValueMap[] currencies;\n    VerusObjects.CCurrencyValueMap[] fees;\n    VerusSerializer verusSerializer;\n\n    address verusBridgeMaster;\n\n    constructor(address verusSerializerAddress, address verusBridgeMasterAddress) {\n        verusSerializer = VerusSerializer(verusSerializerAddress);\n        verusBridgeMaster = verusBridgeMasterAddress;\n    }\n\n    function setContract(address contractAddress) public {\n\n        assert(msg.sender == address(verusBridgeMaster));\n\n        verusSerializer = VerusSerializer(contractAddress);\n\n    }\n\n    function quickSort(VerusObjects.CCurrencyValueMap[] storage currencey, int left, int right) private {\n        int i = left;\n        int j = right;\n        if (i == j) return;\n        uint160 pivot = uint160(currencey[uint256(left + (right - left) / 2)].currency);\n        while (i <= j) {\n            while (uint160(currencey[uint256(i)].currency) < pivot) i++;\n            while (pivot < uint160(currencey[uint256(j)].currency)) j--;\n            if (i <= j) {\n                VerusObjects.CCurrencyValueMap memory temp = currencey[uint256(i)];\n\n                currencey[uint256(i)] = currencey[uint256(j)];\n                currencey[uint256(j)] = temp;\n                i++;\n                j--;\n            }\n        }\n        if (left < j)\n            quickSort(currencey, left, j);\n        if (i < right)\n            quickSort(currencey, i, right);\n    }\n\n    function inCurrencies(address checkCurrency) private view returns(uint256){\n        for(uint256 i = 0; i < currencies.length; i++){\n            if(currencies[i].currency == checkCurrency) return i + 1;\n        }\n        return 0;\n    }\n\n    function inFees(address checkFeesCurrency) private view returns(uint256){\n        for(uint256 i = 0; i < fees.length; i++){\n            if(fees[i].currency == checkFeesCurrency) return i + 1;\n        }\n        return 0;\n    }\n\n    function generateCCE(VerusObjects.CReserveTransfer[] memory transfers, bool bridgeReady) public returns(VerusObjects.CCrossChainExport memory){\n\n        VerusObjects.CCrossChainExport memory workingCCE;\n        //create a hash of the transfers and then \n        bytes memory serializedTransfers = verusSerializer.serializeCReserveTransfers(transfers, false);\n        bytes32 hashedTransfers = keccak256(serializedTransfers);\n\n        //create the Cross ChainExport to then serialize and hash\n        \n        workingCCE.version = 1;\n        workingCCE.flags = 2;\n        workingCCE.sourceheightstart = uint32(block.number);\n        workingCCE.sourceheightend = uint32(block.number);\n        workingCCE.sourcesystemid = VerusConstants.VEth;\n        workingCCE.hashtransfers = hashedTransfers;\n        workingCCE.destinationsystemid = VerusConstants.VerusSystemId;\n\n        if (bridgeReady) { // RESERVETORESERVE FLAG\n            workingCCE.destinationcurrencyid = VerusConstants.VerusBridgeAddress;  //TODO:transfers are bundled by type\n        } else {\n            workingCCE.destinationcurrencyid = VerusConstants.VerusCurrencyId; //TODO:transfers are bundled by type\n        }\n\n        workingCCE.numinputs = uint32(transfers.length);\n        //loop through the array and create totals of the amounts and fees\n        \n        uint256 currencyExists;\n        uint256 feeExistsInTotals;\n        uint256 feeExists;\n\n        for(uint i = 0; i < transfers.length; i++){\n            currencyExists = inCurrencies(transfers[i].currencyvalue.currency);\n            if(currencyExists > 0){\n                currencies[currencyExists - 1].amount += transfers[i].currencyvalue.amount;\n            } else {\n                currencies.push(VerusObjects.CCurrencyValueMap(transfers[i].currencyvalue.currency,transfers[i].currencyvalue.amount));\n            }\n            \n            //add the fees into the totalamounts too \n            feeExistsInTotals = inCurrencies(transfers[i].feecurrencyid); \n            if(feeExistsInTotals > 0){\n                currencies[feeExistsInTotals - 1].amount += uint64(transfers[i].fees);\n            } else {\n                currencies.push(VerusObjects.CCurrencyValueMap(transfers[i].feecurrencyid,uint64(transfers[i].fees)));\n            }\n\n            feeExists = inFees(transfers[i].feecurrencyid); \n            if(feeExists > 0){\n                fees[feeExists - 1].amount += uint64(transfers[i].fees);\n            } else {\n                fees.push(VerusObjects.CCurrencyValueMap(transfers[i].feecurrencyid,uint64(transfers[i].fees)));\n            }\n            \n        }\n        \n        quickSort(currencies, int(0), int(currencies.length - 1));\n        quickSort(fees, int(0), int(fees.length - 1));\n               \n        workingCCE.totalamounts = currencies;\n        workingCCE.totalfees = fees; \n\n        VerusObjects.CCurrencyValueMap memory totalburnedCCVM = VerusObjects.CCurrencyValueMap(0x0000000000000000000000000000000000000000,0);\n\n        workingCCE.totalburned = new VerusObjects.CCurrencyValueMap[](1);\n        workingCCE.totalburned[0] = totalburnedCCVM;\n        workingCCE.rewardaddress = VerusObjectsCommon.CTransferDestination(VerusConstants.RewardAddressType, abi.encodePacked(VerusConstants.RewardAddress));\n        workingCCE.firstinput = 1;\n\n        // clear the arrays\n        delete currencies;\n        delete fees;\n\n        // emit test1(workingCCE);\n        return workingCCE;\n\n    }\n    \n}",
  "sourcePath": "/home/chris/Verus-Ethereum-contracts/contracts/VerusBridge/VerusCrossChainExport.sol",
  "compiler": {
    "name": "solc",
    "version": "0.8.13+commit.abaa5c0e.Emscripten.clang"
  },
  "schemaVersion": "3.4.4",
  "updatedAt": "2022-03-30T16:14:31.495Z",
  "devdoc": {
    "kind": "dev",
    "methods": {},
    "version": 1
  },
  "userdoc": {
    "kind": "user",
    "methods": {},
    "version": 1
  }
}