{
  "contractName": "VerusCrossChainExport",
  "abi": [
    {
      "inputs": [
        {
          "internalType": "address",
          "name": "_verusSerializerAddress",
          "type": "address"
        }
      ],
      "stateMutability": "nonpayable",
      "type": "constructor"
    },
    {
      "inputs": [
        {
          "components": [
            {
              "internalType": "uint32",
              "name": "version",
              "type": "uint32"
            },
            {
              "components": [
                {
                  "internalType": "address",
                  "name": "currency",
                  "type": "address"
                },
                {
                  "internalType": "uint64",
                  "name": "amount",
                  "type": "uint64"
                }
              ],
              "internalType": "struct VerusObjects.CCurrencyValueMap",
              "name": "currencyvalue",
              "type": "tuple"
            },
            {
              "internalType": "uint32",
              "name": "flags",
              "type": "uint32"
            },
            {
              "internalType": "address",
              "name": "feecurrencyid",
              "type": "address"
            },
            {
              "internalType": "uint256",
              "name": "fees",
              "type": "uint256"
            },
            {
              "components": [
                {
                  "internalType": "uint8",
                  "name": "destinationtype",
                  "type": "uint8"
                },
                {
                  "internalType": "bytes",
                  "name": "destinationaddress",
                  "type": "bytes"
                }
              ],
              "internalType": "struct VerusObjectsCommon.CTransferDestination",
              "name": "destination",
              "type": "tuple"
            },
            {
              "internalType": "address",
              "name": "destcurrencyid",
              "type": "address"
            },
            {
              "internalType": "address",
              "name": "destsystemid",
              "type": "address"
            },
            {
              "internalType": "address",
              "name": "secondreserveid",
              "type": "address"
            }
          ],
          "internalType": "struct VerusObjects.CReserveTransfer[]",
          "name": "transfers",
          "type": "tuple[]"
        }
      ],
      "name": "generateCCE",
      "outputs": [
        {
          "components": [
            {
              "internalType": "uint16",
              "name": "version",
              "type": "uint16"
            },
            {
              "internalType": "uint16",
              "name": "flags",
              "type": "uint16"
            },
            {
              "internalType": "address",
              "name": "sourcesystemid",
              "type": "address"
            },
            {
              "internalType": "uint32",
              "name": "sourceheightstart",
              "type": "uint32"
            },
            {
              "internalType": "uint32",
              "name": "sourceheightend",
              "type": "uint32"
            },
            {
              "internalType": "address",
              "name": "destinationsystemid",
              "type": "address"
            },
            {
              "internalType": "address",
              "name": "destinationcurrencyid",
              "type": "address"
            },
            {
              "internalType": "uint32",
              "name": "numinputs",
              "type": "uint32"
            },
            {
              "components": [
                {
                  "internalType": "address",
                  "name": "currency",
                  "type": "address"
                },
                {
                  "internalType": "uint64",
                  "name": "amount",
                  "type": "uint64"
                }
              ],
              "internalType": "struct VerusObjects.CCurrencyValueMap[]",
              "name": "totalamounts",
              "type": "tuple[]"
            },
            {
              "components": [
                {
                  "internalType": "address",
                  "name": "currency",
                  "type": "address"
                },
                {
                  "internalType": "uint64",
                  "name": "amount",
                  "type": "uint64"
                }
              ],
              "internalType": "struct VerusObjects.CCurrencyValueMap[]",
              "name": "totalfees",
              "type": "tuple[]"
            },
            {
              "internalType": "bytes32",
              "name": "hashtransfers",
              "type": "bytes32"
            },
            {
              "components": [
                {
                  "internalType": "address",
                  "name": "currency",
                  "type": "address"
                },
                {
                  "internalType": "uint64",
                  "name": "amount",
                  "type": "uint64"
                }
              ],
              "internalType": "struct VerusObjects.CCurrencyValueMap[]",
              "name": "totalburned",
              "type": "tuple[]"
            },
            {
              "components": [
                {
                  "internalType": "uint8",
                  "name": "destinationtype",
                  "type": "uint8"
                },
                {
                  "internalType": "bytes",
                  "name": "destinationaddress",
                  "type": "bytes"
                }
              ],
              "internalType": "struct VerusObjectsCommon.CTransferDestination",
              "name": "rewardaddress",
              "type": "tuple"
            },
            {
              "internalType": "int32",
              "name": "firstinput",
              "type": "int32"
            }
          ],
          "internalType": "struct VerusObjects.CCrossChainExport",
          "name": "",
          "type": "tuple"
        }
      ],
      "stateMutability": "nonpayable",
      "type": "function"
    },
    {
      "inputs": [
        {
          "internalType": "uint256",
          "name": "a",
          "type": "uint256"
        },
        {
          "internalType": "uint8",
          "name": "decimals",
          "type": "uint8"
        }
      ],
      "name": "convertFromVerusNumber",
      "outputs": [
        {
          "internalType": "uint256",
          "name": "",
          "type": "uint256"
        }
      ],
      "stateMutability": "pure",
      "type": "function",
      "constant": true
    },
    {
      "inputs": [
        {
          "internalType": "uint256",
          "name": "a",
          "type": "uint256"
        },
        {
          "internalType": "uint8",
          "name": "decimals",
          "type": "uint8"
        }
      ],
      "name": "convertToVerusNumber",
      "outputs": [
        {
          "internalType": "uint256",
          "name": "",
          "type": "uint256"
        }
      ],
      "stateMutability": "pure",
      "type": "function",
      "constant": true
    }
  ],
  "bytecode": "0x60806040523480156200001157600080fd5b50604051620020e7380380620020e7833981810160405281019062000037919062000096565b80600260006101000a81548173ffffffffffffffffffffffffffffffffffffffff021916908373ffffffffffffffffffffffffffffffffffffffff1602179055505062000110565b6000815190506200009081620000f6565b92915050565b600060208284031215620000a957600080fd5b6000620000b9848285016200007f565b91505092915050565b6000620000cf82620000d6565b9050919050565b600073ffffffffffffffffffffffffffffffffffffffff82169050919050565b6200010181620000c2565b81146200010d57600080fd5b50565b611fc780620001206000396000f3fe608060405234801561001057600080fd5b50600436106100415760003560e01c806338eb07e114610046578063a031aa4d14610076578063d5b91a92146100a6575b600080fd5b610060600480360381019061005b91906117c1565b6100d6565b60405161006d9190611cc4565b60405180910390f35b610090600480360381019061008b919061173f565b610135565b60405161009d9190611ca2565b60405180910390f35b6100c060048036038101906100bb91906117c1565b610bd5565b6040516100cd9190611cc4565b60405180910390f35b600080600a9050600084905060088460ff16111561010b576008840391508160ff16600a0a858161010357fe5b04905061012a565b60088460ff161015610129578360080391508160ff16600a0a850290505b5b809250505092915050565b61013d611232565b610145611232565b6000600260009054906101000a900473ffffffffffffffffffffffffffffffffffffffff1673ffffffffffffffffffffffffffffffffffffffff16633b7cc0a28560006040518363ffffffff1660e01b81526004016101a5929190611c72565b60006040518083038186803b1580156101bd57600080fd5b505afa1580156101d1573d6000803e3d6000fd5b505050506040513d6000823e3d601f19601f820116820180604052508101906101fa9190611780565b90506000818051906020012090506001836000019061ffff16908161ffff16815250506002836020019061ffff16908161ffff168152505043836060019063ffffffff16908163ffffffff168152505043836080019063ffffffff16908163ffffffff16815250507367460c2f56774ed27eeb8685f29f6cec0b090b00836040019073ffffffffffffffffffffffffffffffffffffffff16908173ffffffffffffffffffffffffffffffffffffffff168152505073a6ef9ea235635e328124ff3429db9f9e91b64e2d8360a0019073ffffffffffffffffffffffffffffffffffffffff16908173ffffffffffffffffffffffffffffffffffffffff16815250508460008151811061030757fe5b602002602001015160c001518360c0019073ffffffffffffffffffffffffffffffffffffffff16908173ffffffffffffffffffffffffffffffffffffffff168152505084518360e0019063ffffffff16908163ffffffff1681525050600080600080600090505b885181101561088f5761039b89828151811061038657fe5b60200260200101516020015160000151610c34565b935060008460070b12610425578881815181106103b457fe5b6020026020010151602001516020015160008560070b815481106103d457fe5b9060005260206000200160000160148282829054906101000a900467ffffffffffffffff160192506101000a81548167ffffffffffffffff021916908367ffffffffffffffff160217905550610530565b600060405180604001604052808b848151811061043e57fe5b6020026020010151602001516000015173ffffffffffffffffffffffffffffffffffffffff1681526020018b848151811061047557fe5b6020026020010151602001516020015167ffffffffffffffff168152509080600181540180825580915050600190039060005260206000200160009091909190915060008201518160000160006101000a81548173ffffffffffffffffffffffffffffffffffffffff021916908373ffffffffffffffffffffffffffffffffffffffff16021790555060208201518160000160146101000a81548167ffffffffffffffff021916908367ffffffffffffffff16021790555050505b61055089828151811061053f57fe5b602002602001015160600151610c34565b925060008360070b126105d65788818151811061056957fe5b60200260200101516080015160008460070b8154811061058557fe5b9060005260206000200160000160148282829054906101000a900467ffffffffffffffff160192506101000a81548167ffffffffffffffff021916908367ffffffffffffffff1602179055506106d9565b600060405180604001604052808b84815181106105ef57fe5b60200260200101516060015173ffffffffffffffffffffffffffffffffffffffff1681526020018b848151811061062257fe5b60200260200101516080015167ffffffffffffffff168152509080600181540180825580915050600190039060005260206000200160009091909190915060008201518160000160006101000a81548173ffffffffffffffffffffffffffffffffffffffff021916908373ffffffffffffffffffffffffffffffffffffffff16021790555060208201518160000160146101000a81548167ffffffffffffffff021916908367ffffffffffffffff16021790555050505b6106f98982815181106106e857fe5b602002602001015160600151610d01565b915060008260070b1261077f5788818151811061071257fe5b60200260200101516080015160018360070b8154811061072e57fe5b9060005260206000200160000160148282829054906101000a900467ffffffffffffffff160192506101000a81548167ffffffffffffffff021916908367ffffffffffffffff160217905550610882565b600160405180604001604052808b848151811061079857fe5b60200260200101516060015173ffffffffffffffffffffffffffffffffffffffff1681526020018b84815181106107cb57fe5b60200260200101516080015167ffffffffffffffff168152509080600181540180825580915050600190039060005260206000200160009091909190915060008201518160000160006101000a81548173ffffffffffffffffffffffffffffffffffffffff021916908373ffffffffffffffffffffffffffffffffffffffff16021790555060208201518160000160146101000a81548167ffffffffffffffff021916908367ffffffffffffffff16021790555050505b808060010191505061036e565b506108a4600080600160008054905003610dce565b6108b8600160006001808054905003610dce565b6000805480602002602001604051908101604052809291908181526020016000905b82821015610990578382906000526020600020016040518060400160405290816000820160009054906101000a900473ffffffffffffffffffffffffffffffffffffffff1673ffffffffffffffffffffffffffffffffffffffff1673ffffffffffffffffffffffffffffffffffffffff1681526020016000820160149054906101000a900467ffffffffffffffff1667ffffffffffffffff1667ffffffffffffffff1681525050815260200190600101906108da565b505050508661010001819052506001805480602002602001604051908101604052809291908181526020016000905b82821015610a75578382906000526020600020016040518060400160405290816000820160009054906101000a900473ffffffffffffffffffffffffffffffffffffffff1673ffffffffffffffffffffffffffffffffffffffff1673ffffffffffffffffffffffffffffffffffffffff1681526020016000820160149054906101000a900467ffffffffffffffff1667ffffffffffffffff1667ffffffffffffffff1681525050815260200190600101906109bf565b50505050866101200181905250838661014001818152505060006040518060400160405280600073ffffffffffffffffffffffffffffffffffffffff168152602001600067ffffffffffffffff168152509050600167ffffffffffffffff81118015610ae057600080fd5b50604051908082528060200260200182016040528015610b1a57816020015b610b07611309565b815260200190600190039081610aff5790505b5087610160018190525080876101600151600081518110610b3757fe5b60200260200101819052506040518060400160405280600460ff16815260200173b26820ee0c9b1276aac834cf457026a575dfce84604051602001610b7c9190611c57565b6040516020818303038152906040528152508761018001819052506001876101a0019060030b908160030b81525050600080610bb89190611343565b60016000610bc69190611343565b86975050505050505050919050565b600080600a9050600084905060088460ff161115610c03576008840391508160ff16600a0a85029050610c29565b60088460ff161015610c28578360080391508160ff16600a0a8581610c2457fe5b0490505b5b809250505092915050565b600080600090505b60008054905067ffffffffffffffff16811015610cd7578273ffffffffffffffffffffffffffffffffffffffff1660008281548110610c7757fe5b9060005260206000200160000160009054906101000a900473ffffffffffffffffffffffffffffffffffffffff1673ffffffffffffffffffffffffffffffffffffffff161415610cca5780915050610cfc565b8080600101915050610c3c565b507fffffffffffffffffffffffffffffffffffffffffffffffffffffffffffffffff90505b919050565b600080600090505b60018054905067ffffffffffffffff16811015610da4578273ffffffffffffffffffffffffffffffffffffffff1660018281548110610d4457fe5b9060005260206000200160000160009054906101000a900473ffffffffffffffffffffffffffffffffffffffff1673ffffffffffffffffffffffffffffffffffffffff161415610d975780915050610dc9565b8080600101915050610d09565b507fffffffffffffffffffffffffffffffffffffffffffffffffffffffffffffffff90505b919050565b6000829050600082905080821415610de757505061122d565b600085600286860381610df657fe5b05860173ffffffffffffffffffffffffffffffffffffffff1681548110610e1957fe5b9060005260206000200160000160009054906101000a900473ffffffffffffffffffffffffffffffffffffffff1690505b818313611201575b8073ffffffffffffffffffffffffffffffffffffffff16868473ffffffffffffffffffffffffffffffffffffffff1681548110610e8b57fe5b9060005260206000200160000160009054906101000a900473ffffffffffffffffffffffffffffffffffffffff1673ffffffffffffffffffffffffffffffffffffffff161015610ee2578280600101935050610e52565b5b858273ffffffffffffffffffffffffffffffffffffffff1681548110610f0557fe5b9060005260206000200160000160009054906101000a900473ffffffffffffffffffffffffffffffffffffffff1673ffffffffffffffffffffffffffffffffffffffff168173ffffffffffffffffffffffffffffffffffffffff161015610f7457818060019003925050610ee3565b8183136111fc576000868473ffffffffffffffffffffffffffffffffffffffff1681548110610f9f57fe5b906000526020600020016040518060400160405290816000820160009054906101000a900473ffffffffffffffffffffffffffffffffffffffff1673ffffffffffffffffffffffffffffffffffffffff1673ffffffffffffffffffffffffffffffffffffffff1681526020016000820160149054906101000a900467ffffffffffffffff1667ffffffffffffffff1667ffffffffffffffff16815250509050868373ffffffffffffffffffffffffffffffffffffffff168154811061106057fe5b90600052602060002001878573ffffffffffffffffffffffffffffffffffffffff168154811061108c57fe5b906000526020600020016000820160009054906101000a900473ffffffffffffffffffffffffffffffffffffffff168160000160006101000a81548173ffffffffffffffffffffffffffffffffffffffff021916908373ffffffffffffffffffffffffffffffffffffffff1602179055506000820160149054906101000a900467ffffffffffffffff168160000160146101000a81548167ffffffffffffffff021916908367ffffffffffffffff16021790555090505080878473ffffffffffffffffffffffffffffffffffffffff168154811061116657fe5b9060005260206000200160008201518160000160006101000a81548173ffffffffffffffffffffffffffffffffffffffff021916908373ffffffffffffffffffffffffffffffffffffffff16021790555060208201518160000160146101000a81548167ffffffffffffffff021916908367ffffffffffffffff1602179055509050508380600101945050828060019003935050505b610e4a565b8185121561121557611214868684610dce565b5b8383121561122957611228868486610dce565b5b5050505b505050565b604051806101c00160405280600061ffff168152602001600061ffff168152602001600073ffffffffffffffffffffffffffffffffffffffff168152602001600063ffffffff168152602001600063ffffffff168152602001600073ffffffffffffffffffffffffffffffffffffffff168152602001600073ffffffffffffffffffffffffffffffffffffffff168152602001600063ffffffff168152602001606081526020016060815260200160008019168152602001606081526020016112f9611364565b8152602001600060030b81525090565b6040518060400160405280600073ffffffffffffffffffffffffffffffffffffffff168152602001600067ffffffffffffffff1681525090565b50805460008255906000526020600020908101906113619190611381565b50565b6040518060400160405280600060ff168152602001606081525090565b5b808211156113d657600080820160006101000a81549073ffffffffffffffffffffffffffffffffffffffff02191690556000820160146101000a81549067ffffffffffffffff021916905550600101611382565b5090565b60006113ed6113e884611d10565b611cdf565b9050808382526020820190508260005b8581101561142d57813585016114138882611592565b8452602084019350602083019250506001810190506113fd565b5050509392505050565b600061144a61144584611d3c565b611cdf565b90508281526020810184848401111561146257600080fd5b61146d848285611e98565b509392505050565b600061148861148384611d3c565b611cdf565b9050828152602081018484840111156114a057600080fd5b6114ab848285611ea7565b509392505050565b6000813590506114c281611f1e565b92915050565b600082601f8301126114d957600080fd5b81356114e98482602086016113da565b91505092915050565b600082601f83011261150357600080fd5b8135611513848260208601611437565b91505092915050565b600082601f83011261152d57600080fd5b815161153d848260208601611475565b91505092915050565b60006040828403121561155857600080fd5b6115626040611cdf565b90506000611572848285016114b3565b600083015250602061158684828501611715565b60208301525092915050565b600061014082840312156115a557600080fd5b6115b0610120611cdf565b905060006115c084828501611700565b60008301525060206115d484828501611546565b60208301525060606115e884828501611700565b60408301525060806115fc848285016114b3565b60608301525060a0611610848285016116eb565b60808301525060c082013567ffffffffffffffff81111561163057600080fd5b61163c84828501611687565b60a08301525060e0611650848285016114b3565b60c083015250610100611665848285016114b3565b60e08301525061012061167a848285016114b3565b6101008301525092915050565b60006040828403121561169957600080fd5b6116a36040611cdf565b905060006116b38482850161172a565b600083015250602082013567ffffffffffffffff8111156116d357600080fd5b6116df848285016114f2565b60208301525092915050565b6000813590506116fa81611f35565b92915050565b60008135905061170f81611f4c565b92915050565b60008135905061172481611f63565b92915050565b60008135905061173981611f7a565b92915050565b60006020828403121561175157600080fd5b600082013567ffffffffffffffff81111561176b57600080fd5b611777848285016114c8565b91505092915050565b60006020828403121561179257600080fd5b600082015167ffffffffffffffff8111156117ac57600080fd5b6117b88482850161151c565b91505092915050565b600080604083850312156117d457600080fd5b60006117e2858286016116eb565b92505060206117f38582860161172a565b9150509250929050565b60006118098383611acb565b60408301905092915050565b60006118218383611afa565b905092915050565b61183281611dfa565b82525050565b61184961184482611dfa565b611eda565b82525050565b600061185a82611d8c565b6118648185611dc7565b935061186f83611d6c565b8060005b838110156118a057815161188788826117fd565b975061189283611dad565b925050600181019050611873565b5085935050505092915050565b60006118b882611d97565b6118c28185611dd8565b9350836020820285016118d485611d7c565b8060005b8581101561191057848403895281516118f18582611815565b94506118fc83611dba565b925060208a019950506001810190506118d8565b50829750879550505050505092915050565b61192b81611e0c565b82525050565b61193a81611e18565b82525050565b600061194b82611da2565b6119558185611de9565b9350611965818560208601611ea7565b61196e81611f00565b840191505092915050565b61198281611e22565b82525050565b60006101c0830160008301516119a16000860182611bfd565b5060208301516119b46020860182611bfd565b5060408301516119c76040860182611829565b5060608301516119da6060860182611c2a565b5060808301516119ed6080860182611c2a565b5060a0830151611a0060a0860182611829565b5060c0830151611a1360c0860182611829565b5060e0830151611a2660e0860182611c2a565b50610100830151848203610100860152611a40828261184f565b915050610120830151848203610120860152611a5c828261184f565b915050610140830151611a73610140860182611931565b50610160830151848203610160860152611a8d828261184f565b915050610180830151848203610180860152611aa98282611bc0565b9150506101a0830151611ac06101a0860182611979565b508091505092915050565b604082016000820151611ae16000850182611829565b506020820151611af46020850182611c39565b50505050565b600061014083016000830151611b136000860182611c2a565b506020830151611b266020860182611acb565b506040830151611b396060860182611c2a565b506060830151611b4c6080860182611829565b506080830151611b5f60a0860182611c0c565b5060a083015184820360c0860152611b778282611bc0565b91505060c0830151611b8c60e0860182611829565b5060e0830151611ba0610100860182611829565b50610100830151611bb5610120860182611829565b508091505092915050565b6000604083016000830151611bd86000860182611c48565b5060208301518482036020860152611bf08282611940565b9150508091505092915050565b611c0681611e2f565b82525050565b611c1581611e5d565b82525050565b611c2481611e5d565b82525050565b611c3381611e67565b82525050565b611c4281611e77565b82525050565b611c5181611e8b565b82525050565b6000611c638284611838565b60148201915081905092915050565b60006040820190508181036000830152611c8c81856118ad565b9050611c9b6020830184611922565b9392505050565b60006020820190508181036000830152611cbc8184611988565b905092915050565b6000602082019050611cd96000830184611c1b565b92915050565b6000604051905081810181811067ffffffffffffffff82111715611d0657611d05611efe565b5b8060405250919050565b600067ffffffffffffffff821115611d2b57611d2a611efe565b5b602082029050602081019050919050565b600067ffffffffffffffff821115611d5757611d56611efe565b5b601f19601f8301169050602081019050919050565b6000819050602082019050919050565b6000819050602082019050919050565b600081519050919050565b600081519050919050565b600081519050919050565b6000602082019050919050565b6000602082019050919050565b600082825260208201905092915050565b600082825260208201905092915050565b600082825260208201905092915050565b6000611e0582611e3d565b9050919050565b60008115159050919050565b6000819050919050565b60008160030b9050919050565b600061ffff82169050919050565b600073ffffffffffffffffffffffffffffffffffffffff82169050919050565b6000819050919050565b600063ffffffff82169050919050565b600067ffffffffffffffff82169050919050565b600060ff82169050919050565b82818337600083830152505050565b60005b83811015611ec5578082015181840152602081019050611eaa565b83811115611ed4576000848401525b50505050565b6000611ee582611eec565b9050919050565b6000611ef782611f11565b9050919050565bfe5b6000601f19601f8301169050919050565b60008160601b9050919050565b611f2781611dfa565b8114611f3257600080fd5b50565b611f3e81611e5d565b8114611f4957600080fd5b50565b611f5581611e67565b8114611f6057600080fd5b50565b611f6c81611e77565b8114611f7757600080fd5b50565b611f8381611e8b565b8114611f8e57600080fd5b5056fea26469706673582212209224f24bf0c20c74102c7c10bb607a93e1522ebcc99688df06c5aa18064631bb64736f6c63430007060033",
  "immutableReferences": {},
  "source": "// SPDX-License-Identifier: MIT\r\n// Bridge between ethereum and verus\r\n\r\npragma solidity >=0.6.0 <0.9.0;\r\npragma experimental ABIEncoderV2;\r\n\r\nimport \"../Libraries/VerusObjects.sol\";\r\nimport \"../Libraries/VerusConstants.sol\";\r\nimport \"../VerusBridge/VerusSerializer.sol\";\r\n\r\ncontract VerusCrossChainExport{\r\n\r\n    VerusObjects.CCurrencyValueMap[] currencies;\r\n    VerusObjects.CCurrencyValueMap[] fees;\r\n    VerusSerializer verusSerializer;\r\n //   event test1(VerusObjects.CCrossChainExport ted);\r\n\r\n    function quickSort(VerusObjects.CCurrencyValueMap[] storage currencey, int left, int right) private {\r\n        int i = left;\r\n        int j = right;\r\n        if (i == j) return;\r\n        uint160 pivot = uint160(currencey[uint160(left + (right - left) / 2)].currency);\r\n        while (i <= j) {\r\n            while (uint160(currencey[uint160(i)].currency) < pivot) i++;\r\n            while (pivot < uint160(currencey[uint160(j)].currency)) j--;\r\n            if (i <= j) {\r\n                VerusObjects.CCurrencyValueMap memory temp = currencey[uint160(i)];\r\n\r\n                currencey[uint160(i)] = currencey[uint160(j)];\r\n                currencey[uint160(j)] = temp;\r\n                i++;\r\n                j--;\r\n            }\r\n        }\r\n        if (left < j)\r\n            quickSort(currencey, left, j);\r\n        if (i < right)\r\n            quickSort(currencey, i, right);\r\n    }\r\n\r\n    constructor(address _verusSerializerAddress) {\r\n        verusSerializer = VerusSerializer(_verusSerializerAddress);\r\n    }\r\n\r\n    function inCurrencies(address checkCurrency) private view returns(int64){\r\n        for(uint i = 0; i < uint64(currencies.length); i++){\r\n            if(currencies[i].currency == checkCurrency) return int64(i);\r\n        }\r\n        return -1;\r\n    }\r\n\r\n    function inFees(address checkFeesCurrency) private view returns(int64){\r\n        for(uint i = 0; i < uint64(fees.length); i++){\r\n            if(fees[i].currency == checkFeesCurrency) return int64(i);\r\n        }\r\n        return -1;\r\n    }\r\n\r\n    function generateCCE(VerusObjects.CReserveTransfer[] memory transfers) public returns(VerusObjects.CCrossChainExport memory){\r\n\r\n        VerusObjects.CCrossChainExport memory workingCCE;\r\n        //create a hash of the transfers and then \r\n        bytes memory serializedTransfers = verusSerializer.serializeCReserveTransfers(transfers,false);\r\n        bytes32 hashedTransfers = keccak256(serializedTransfers);\r\n\r\n        //create the Cross ChainExport to then serialize and hash\r\n        \r\n        workingCCE.version = 1;\r\n        workingCCE.flags = 2;\r\n        //workingCCE.flags = 1;\r\n        //need to pick up the \r\n        workingCCE.sourceheightstart = uint32(block.number);\r\n        workingCCE.sourceheightend = uint32(block.number);\r\n        workingCCE.sourcesystemid = VerusConstants.VEth;\r\n        workingCCE.destinationsystemid = VerusConstants.VerusSystemId;\r\n        workingCCE.destinationcurrencyid = transfers[0].destcurrencyid;\r\n        workingCCE.numinputs = uint32(transfers.length);\r\n        //loop through the array and create totals of the amounts and fees\r\n        \r\n        int64 currencyExists;\r\n        int64 feeExistsInTotals;\r\n        int64 feeExists;\r\n\r\n        for(uint i = 0; i < transfers.length; i++){\r\n            currencyExists = inCurrencies(transfers[i].currencyvalue.currency);\r\n            if(currencyExists >= 0){\r\n                currencies[uint256(currencyExists)].amount += transfers[i].currencyvalue.amount;\r\n            } else {\r\n                currencies.push(VerusObjects.CCurrencyValueMap(transfers[i].currencyvalue.currency,transfers[i].currencyvalue.amount));\r\n            }\r\n            \r\n            //add the fees into the totalamounts too \r\n            feeExistsInTotals = inCurrencies(transfers[i].feecurrencyid); \r\n            if(feeExistsInTotals >= 0){\r\n                currencies[uint256(feeExistsInTotals)].amount += uint64(transfers[i].fees);\r\n            } else {\r\n                currencies.push(VerusObjects.CCurrencyValueMap(transfers[i].feecurrencyid,uint64(transfers[i].fees)));\r\n            }\r\n\r\n            feeExists = inFees(transfers[i].feecurrencyid); \r\n            if(feeExists >= 0){\r\n                fees[uint256(feeExists)].amount += uint64(transfers[i].fees);\r\n            } else {\r\n                fees.push(VerusObjects.CCurrencyValueMap(transfers[i].feecurrencyid,uint64(transfers[i].fees)));\r\n            }\r\n            \r\n        }\r\n        \r\n        quickSort(currencies, int(0), int(currencies.length - 1));\r\n        quickSort(fees, int(0), int(fees.length - 1));\r\n               \r\n        workingCCE.totalamounts = currencies;\r\n        workingCCE.totalfees = fees;\r\n\r\n        workingCCE.hashtransfers = hashedTransfers;\r\n        VerusObjects.CCurrencyValueMap memory totalburnedCCVM = VerusObjects.CCurrencyValueMap(0x0000000000000000000000000000000000000000,0);\r\n        \r\n        workingCCE.totalburned = new VerusObjects.CCurrencyValueMap[](1);\r\n        workingCCE.totalburned[0] = totalburnedCCVM;\r\n        workingCCE.rewardaddress = VerusObjectsCommon.CTransferDestination(VerusConstants.RewardAddressType, abi.encodePacked(VerusConstants.RewardAddress));\r\n        workingCCE.firstinput = 1;\r\n\r\n        //clear the arrays\r\n        delete currencies;\r\n        delete fees;\r\n      //  emit test1(workingCCE);\r\n        return workingCCE;\r\n\r\n    }\r\n    \r\n    function convertFromVerusNumber(uint256 a,uint8 decimals) public pure returns (uint256) {\r\n         uint8 power = 10; //default value for 18\r\n         uint256 c = a;\r\n        if(decimals > 8 ) {\r\n            power = decimals - 8;// number of decimals in verus\r\n            c = a * (10 ** power);\r\n        }else if(decimals < 8){\r\n            power = 8 - decimals;// number of decimals in verus\r\n            c = a / (10 ** power);\r\n        }\r\n      \r\n        return c;\r\n    }\r\n\r\n    function convertToVerusNumber(uint256 a,uint8 decimals) public pure returns (uint256) {\r\n         uint8 power = 10; //default value for 18\r\n         uint256 c = a;\r\n        if(decimals > 8 ) {\r\n            power = decimals - 8;// number of decimals in verus\r\n            c = a / (10 ** power);\r\n        }else if(decimals < 8){\r\n            power = 8 - decimals;// number of decimals in verus\r\n            c = a * (10 ** power);\r\n        }\r\n      \r\n        return c;\r\n    }\r\n\r\n}",
  "sourcePath": "D:\\dev\\Ethereum-verus-notarisation\\contracts\\VerusBridge\\VerusCrossChainExport.sol",
  "compiler": {
    "name": "solc",
    "version": "0.7.6+commit.7338295f.Emscripten.clang"
  },
  "schemaVersion": "3.4.3",
  "updatedAt": "2021-10-10T14:42:27.518Z",
  "networkType": "ethereum",
  "devdoc": {
    "kind": "dev",
    "methods": {},
    "version": 1
  },
  "userdoc": {
    "kind": "user",
    "methods": {},
    "version": 1
  }
}