{
  "contractName": "VerusSerializer",
  "abi": [
    {
      "inputs": [
        {
          "internalType": "bytes",
          "name": "incoming",
          "type": "bytes"
        },
        {
          "internalType": "uint32",
          "name": "offset",
          "type": "uint32"
        }
      ],
      "name": "readVarUintLE",
      "outputs": [
        {
          "components": [
            {
              "internalType": "uint32",
              "name": "offset",
              "type": "uint32"
            },
            {
              "internalType": "uint32",
              "name": "value",
              "type": "uint32"
            }
          ],
          "internalType": "struct VerusObjectsCommon.UintReader",
          "name": "",
          "type": "tuple"
        }
      ],
      "stateMutability": "pure",
      "type": "function"
    },
    {
      "inputs": [
        {
          "internalType": "bytes",
          "name": "incoming",
          "type": "bytes"
        },
        {
          "internalType": "uint32",
          "name": "offset",
          "type": "uint32"
        }
      ],
      "name": "readCompactSizeLE",
      "outputs": [
        {
          "components": [
            {
              "internalType": "uint32",
              "name": "offset",
              "type": "uint32"
            },
            {
              "internalType": "uint32",
              "name": "value",
              "type": "uint32"
            }
          ],
          "internalType": "struct VerusObjectsCommon.UintReader",
          "name": "",
          "type": "tuple"
        }
      ],
      "stateMutability": "pure",
      "type": "function"
    },
    {
      "inputs": [
        {
          "internalType": "uint256",
          "name": "incoming",
          "type": "uint256"
        }
      ],
      "name": "writeVarInt",
      "outputs": [
        {
          "internalType": "bytes",
          "name": "",
          "type": "bytes"
        }
      ],
      "stateMutability": "pure",
      "type": "function"
    },
    {
      "inputs": [
        {
          "internalType": "uint256",
          "name": "newNumber",
          "type": "uint256"
        }
      ],
      "name": "writeCompactSize",
      "outputs": [
        {
          "internalType": "bytes",
          "name": "",
          "type": "bytes"
        }
      ],
      "stateMutability": "pure",
      "type": "function"
    },
    {
      "inputs": [
        {
          "internalType": "string",
          "name": "prefix",
          "type": "string"
        },
        {
          "internalType": "address",
          "name": "systemID",
          "type": "address"
        },
        {
          "internalType": "int64",
          "name": "blockHeight",
          "type": "int64"
        },
        {
          "internalType": "address",
          "name": "signingID",
          "type": "address"
        },
        {
          "internalType": "bytes",
          "name": "messageToHash",
          "type": "bytes"
        }
      ],
      "name": "verusHashPrefix",
      "outputs": [
        {
          "internalType": "bytes",
          "name": "",
          "type": "bytes"
        }
      ],
      "stateMutability": "pure",
      "type": "function"
    },
    {
      "inputs": [
        {
          "internalType": "bool",
          "name": "anyBool",
          "type": "bool"
        }
      ],
      "name": "serializeBool",
      "outputs": [
        {
          "internalType": "bytes",
          "name": "",
          "type": "bytes"
        }
      ],
      "stateMutability": "pure",
      "type": "function"
    },
    {
      "inputs": [
        {
          "internalType": "string",
          "name": "anyString",
          "type": "string"
        }
      ],
      "name": "serializeString",
      "outputs": [
        {
          "internalType": "bytes",
          "name": "",
          "type": "bytes"
        }
      ],
      "stateMutability": "pure",
      "type": "function"
    },
    {
      "inputs": [
        {
          "internalType": "bytes20",
          "name": "anyBytes20",
          "type": "bytes20"
        }
      ],
      "name": "serializeBytes20",
      "outputs": [
        {
          "internalType": "bytes",
          "name": "",
          "type": "bytes"
        }
      ],
      "stateMutability": "pure",
      "type": "function"
    },
    {
      "inputs": [
        {
          "internalType": "bytes32",
          "name": "anyBytes32",
          "type": "bytes32"
        }
      ],
      "name": "serializeBytes32",
      "outputs": [
        {
          "internalType": "bytes",
          "name": "",
          "type": "bytes"
        }
      ],
      "stateMutability": "pure",
      "type": "function"
    },
    {
      "inputs": [
        {
          "internalType": "uint8",
          "name": "number",
          "type": "uint8"
        }
      ],
      "name": "serializeUint8",
      "outputs": [
        {
          "internalType": "bytes",
          "name": "",
          "type": "bytes"
        }
      ],
      "stateMutability": "pure",
      "type": "function"
    },
    {
      "inputs": [
        {
          "internalType": "uint16",
          "name": "number",
          "type": "uint16"
        }
      ],
      "name": "serializeUint16",
      "outputs": [
        {
          "internalType": "bytes",
          "name": "",
          "type": "bytes"
        }
      ],
      "stateMutability": "pure",
      "type": "function"
    },
    {
      "inputs": [
        {
          "internalType": "uint32",
          "name": "number",
          "type": "uint32"
        }
      ],
      "name": "serializeUint32",
      "outputs": [
        {
          "internalType": "bytes",
          "name": "",
          "type": "bytes"
        }
      ],
      "stateMutability": "pure",
      "type": "function"
    },
    {
      "inputs": [
        {
          "internalType": "int16",
          "name": "number",
          "type": "int16"
        }
      ],
      "name": "serializeInt16",
      "outputs": [
        {
          "internalType": "bytes",
          "name": "",
          "type": "bytes"
        }
      ],
      "stateMutability": "pure",
      "type": "function"
    },
    {
      "inputs": [
        {
          "internalType": "int32",
          "name": "number",
          "type": "int32"
        }
      ],
      "name": "serializeInt32",
      "outputs": [
        {
          "internalType": "bytes",
          "name": "",
          "type": "bytes"
        }
      ],
      "stateMutability": "pure",
      "type": "function"
    },
    {
      "inputs": [
        {
          "internalType": "int64",
          "name": "number",
          "type": "int64"
        }
      ],
      "name": "serializeInt64",
      "outputs": [
        {
          "internalType": "bytes",
          "name": "",
          "type": "bytes"
        }
      ],
      "stateMutability": "pure",
      "type": "function"
    },
    {
      "inputs": [
        {
          "internalType": "int32[]",
          "name": "numbers",
          "type": "int32[]"
        }
      ],
      "name": "serializeInt32Array",
      "outputs": [
        {
          "internalType": "bytes",
          "name": "",
          "type": "bytes"
        }
      ],
      "stateMutability": "pure",
      "type": "function"
    },
    {
      "inputs": [
        {
          "internalType": "int64[]",
          "name": "numbers",
          "type": "int64[]"
        }
      ],
      "name": "serializeInt64Array",
      "outputs": [
        {
          "internalType": "bytes",
          "name": "",
          "type": "bytes"
        }
      ],
      "stateMutability": "pure",
      "type": "function"
    },
    {
      "inputs": [
        {
          "internalType": "uint64",
          "name": "number",
          "type": "uint64"
        }
      ],
      "name": "serializeUint64",
      "outputs": [
        {
          "internalType": "bytes",
          "name": "",
          "type": "bytes"
        }
      ],
      "stateMutability": "pure",
      "type": "function"
    },
    {
      "inputs": [
        {
          "internalType": "address",
          "name": "number",
          "type": "address"
        }
      ],
      "name": "serializeAddress",
      "outputs": [
        {
          "internalType": "bytes",
          "name": "",
          "type": "bytes"
        }
      ],
      "stateMutability": "pure",
      "type": "function"
    },
    {
      "inputs": [
        {
          "internalType": "uint160[]",
          "name": "numbers",
          "type": "uint160[]"
        }
      ],
      "name": "serializeUint160Array",
      "outputs": [
        {
          "internalType": "bytes",
          "name": "",
          "type": "bytes"
        }
      ],
      "stateMutability": "pure",
      "type": "function"
    },
    {
      "inputs": [
        {
          "internalType": "uint256",
          "name": "number",
          "type": "uint256"
        }
      ],
      "name": "serializeUint256",
      "outputs": [
        {
          "internalType": "bytes",
          "name": "",
          "type": "bytes"
        }
      ],
      "stateMutability": "pure",
      "type": "function"
    },
    {
      "inputs": [
        {
          "components": [
            {
              "internalType": "uint8",
              "name": "destinationtype",
              "type": "uint8"
            },
            {
              "internalType": "bytes",
              "name": "destinationaddress",
              "type": "bytes"
            }
          ],
          "internalType": "struct VerusObjectsCommon.CTransferDestination",
          "name": "ctd",
          "type": "tuple"
        }
      ],
      "name": "serializeCTransferDestination",
      "outputs": [
        {
          "internalType": "bytes",
          "name": "",
          "type": "bytes"
        }
      ],
      "stateMutability": "pure",
      "type": "function"
    },
    {
      "inputs": [
        {
          "components": [
            {
              "internalType": "address",
              "name": "currency",
              "type": "address"
            },
            {
              "internalType": "uint64",
              "name": "amount",
              "type": "uint64"
            }
          ],
          "internalType": "struct VerusObjects.CCurrencyValueMap",
          "name": "_ccvm",
          "type": "tuple"
        }
      ],
      "name": "serializeCCurrencyValueMap",
      "outputs": [
        {
          "internalType": "bytes",
          "name": "",
          "type": "bytes"
        }
      ],
      "stateMutability": "pure",
      "type": "function"
    },
    {
      "inputs": [
        {
          "components": [
            {
              "internalType": "address",
              "name": "currency",
              "type": "address"
            },
            {
              "internalType": "uint64",
              "name": "amount",
              "type": "uint64"
            }
          ],
          "internalType": "struct VerusObjects.CCurrencyValueMap[]",
          "name": "_ccvms",
          "type": "tuple[]"
        }
      ],
      "name": "serializeCCurrencyValueMaps",
      "outputs": [
        {
          "internalType": "bytes",
          "name": "",
          "type": "bytes"
        }
      ],
      "stateMutability": "pure",
      "type": "function"
    },
    {
      "inputs": [
        {
          "components": [
            {
              "internalType": "uint32",
              "name": "version",
              "type": "uint32"
            },
            {
              "components": [
                {
                  "internalType": "address",
                  "name": "currency",
                  "type": "address"
                },
                {
                  "internalType": "uint64",
                  "name": "amount",
                  "type": "uint64"
                }
              ],
              "internalType": "struct VerusObjects.CCurrencyValueMap",
              "name": "currencyvalue",
              "type": "tuple"
            },
            {
              "internalType": "uint32",
              "name": "flags",
              "type": "uint32"
            },
            {
              "internalType": "address",
              "name": "feecurrencyid",
              "type": "address"
            },
            {
              "internalType": "uint256",
              "name": "fees",
              "type": "uint256"
            },
            {
              "components": [
                {
                  "internalType": "uint8",
                  "name": "destinationtype",
                  "type": "uint8"
                },
                {
                  "internalType": "bytes",
                  "name": "destinationaddress",
                  "type": "bytes"
                }
              ],
              "internalType": "struct VerusObjectsCommon.CTransferDestination",
              "name": "destination",
              "type": "tuple"
            },
            {
              "internalType": "address",
              "name": "destcurrencyid",
              "type": "address"
            },
            {
              "internalType": "address",
              "name": "destsystemid",
              "type": "address"
            },
            {
              "internalType": "address",
              "name": "secondreserveid",
              "type": "address"
            }
          ],
          "internalType": "struct VerusObjects.CReserveTransfer",
          "name": "ct",
          "type": "tuple"
        }
      ],
      "name": "serializeCReserveTransfer",
      "outputs": [
        {
          "internalType": "bytes",
          "name": "",
          "type": "bytes"
        }
      ],
      "stateMutability": "pure",
      "type": "function"
    },
    {
      "inputs": [
        {
          "components": [
            {
              "internalType": "uint32",
              "name": "version",
              "type": "uint32"
            },
            {
              "components": [
                {
                  "internalType": "address",
                  "name": "currency",
                  "type": "address"
                },
                {
                  "internalType": "uint64",
                  "name": "amount",
                  "type": "uint64"
                }
              ],
              "internalType": "struct VerusObjects.CCurrencyValueMap",
              "name": "currencyvalue",
              "type": "tuple"
            },
            {
              "internalType": "uint32",
              "name": "flags",
              "type": "uint32"
            },
            {
              "internalType": "address",
              "name": "feecurrencyid",
              "type": "address"
            },
            {
              "internalType": "uint256",
              "name": "fees",
              "type": "uint256"
            },
            {
              "components": [
                {
                  "internalType": "uint8",
                  "name": "destinationtype",
                  "type": "uint8"
                },
                {
                  "internalType": "bytes",
                  "name": "destinationaddress",
                  "type": "bytes"
                }
              ],
              "internalType": "struct VerusObjectsCommon.CTransferDestination",
              "name": "destination",
              "type": "tuple"
            },
            {
              "internalType": "address",
              "name": "destcurrencyid",
              "type": "address"
            },
            {
              "internalType": "address",
              "name": "destsystemid",
              "type": "address"
            },
            {
              "internalType": "address",
              "name": "secondreserveid",
              "type": "address"
            }
          ],
          "internalType": "struct VerusObjects.CReserveTransfer[]",
          "name": "_bts",
          "type": "tuple[]"
        },
        {
          "internalType": "bool",
          "name": "includeSize",
          "type": "bool"
        }
      ],
      "name": "serializeCReserveTransfers",
      "outputs": [
        {
          "internalType": "bytes",
          "name": "",
          "type": "bytes"
        }
      ],
      "stateMutability": "pure",
      "type": "function"
    },
    {
      "inputs": [
        {
          "components": [
            {
              "internalType": "bytes32",
              "name": "hash",
              "type": "bytes32"
            },
            {
              "internalType": "uint32",
              "name": "n",
              "type": "uint32"
            }
          ],
          "internalType": "struct VerusObjectsNotarization.CUTXORef",
          "name": "_cutxo",
          "type": "tuple"
        }
      ],
      "name": "serializeCUTXORef",
      "outputs": [
        {
          "internalType": "bytes",
          "name": "",
          "type": "bytes"
        }
      ],
      "stateMutability": "pure",
      "type": "function"
    },
    {
      "inputs": [
        {
          "components": [
            {
              "internalType": "int16",
              "name": "version",
              "type": "int16"
            },
            {
              "internalType": "int16",
              "name": "cprtype",
              "type": "int16"
            },
            {
              "internalType": "address",
              "name": "systemid",
              "type": "address"
            },
            {
              "internalType": "uint32",
              "name": "rootheight",
              "type": "uint32"
            },
            {
              "internalType": "bytes32",
              "name": "stateroot",
              "type": "bytes32"
            },
            {
              "internalType": "bytes32",
              "name": "blockhash",
              "type": "bytes32"
            },
            {
              "internalType": "bytes32",
              "name": "compactpower",
              "type": "bytes32"
            }
          ],
          "internalType": "struct VerusObjectsNotarization.CProofRoot",
          "name": "_cpr",
          "type": "tuple"
        }
      ],
      "name": "serializeCProofRoot",
      "outputs": [
        {
          "internalType": "bytes",
          "name": "",
          "type": "bytes"
        }
      ],
      "stateMutability": "pure",
      "type": "function"
    },
    {
      "inputs": [
        {
          "components": [
            {
              "internalType": "address",
              "name": "currencyid",
              "type": "address"
            },
            {
              "components": [
                {
                  "internalType": "int16",
                  "name": "version",
                  "type": "int16"
                },
                {
                  "internalType": "int16",
                  "name": "cprtype",
                  "type": "int16"
                },
                {
                  "internalType": "address",
                  "name": "systemid",
                  "type": "address"
                },
                {
                  "internalType": "uint32",
                  "name": "rootheight",
                  "type": "uint32"
                },
                {
                  "internalType": "bytes32",
                  "name": "stateroot",
                  "type": "bytes32"
                },
                {
                  "internalType": "bytes32",
                  "name": "blockhash",
                  "type": "bytes32"
                },
                {
                  "internalType": "bytes32",
                  "name": "compactpower",
                  "type": "bytes32"
                }
              ],
              "internalType": "struct VerusObjectsNotarization.CProofRoot",
              "name": "proofroot",
              "type": "tuple"
            }
          ],
          "internalType": "struct VerusObjectsNotarization.ProofRoots",
          "name": "_prs",
          "type": "tuple"
        }
      ],
      "name": "serializeProofRoots",
      "outputs": [
        {
          "internalType": "bytes",
          "name": "",
          "type": "bytes"
        }
      ],
      "stateMutability": "pure",
      "type": "function"
    },
    {
      "inputs": [
        {
          "components": [
            {
              "internalType": "address",
              "name": "currencyid",
              "type": "address"
            },
            {
              "components": [
                {
                  "internalType": "int16",
                  "name": "version",
                  "type": "int16"
                },
                {
                  "internalType": "int16",
                  "name": "cprtype",
                  "type": "int16"
                },
                {
                  "internalType": "address",
                  "name": "systemid",
                  "type": "address"
                },
                {
                  "internalType": "uint32",
                  "name": "rootheight",
                  "type": "uint32"
                },
                {
                  "internalType": "bytes32",
                  "name": "stateroot",
                  "type": "bytes32"
                },
                {
                  "internalType": "bytes32",
                  "name": "blockhash",
                  "type": "bytes32"
                },
                {
                  "internalType": "bytes32",
                  "name": "compactpower",
                  "type": "bytes32"
                }
              ],
              "internalType": "struct VerusObjectsNotarization.CProofRoot",
              "name": "proofroot",
              "type": "tuple"
            }
          ],
          "internalType": "struct VerusObjectsNotarization.ProofRoots[]",
          "name": "_prsa",
          "type": "tuple[]"
        }
      ],
      "name": "serializeProofRootsArray",
      "outputs": [
        {
          "internalType": "bytes",
          "name": "",
          "type": "bytes"
        }
      ],
      "stateMutability": "pure",
      "type": "function"
    },
    {
      "inputs": [
        {
          "components": [
            {
              "internalType": "int16",
              "name": "version",
              "type": "int16"
            },
            {
              "internalType": "int16",
              "name": "cprtype",
              "type": "int16"
            },
            {
              "internalType": "address",
              "name": "systemid",
              "type": "address"
            },
            {
              "internalType": "uint32",
              "name": "rootheight",
              "type": "uint32"
            },
            {
              "internalType": "bytes32",
              "name": "stateroot",
              "type": "bytes32"
            },
            {
              "internalType": "bytes32",
              "name": "blockhash",
              "type": "bytes32"
            },
            {
              "internalType": "bytes32",
              "name": "compactpower",
              "type": "bytes32"
            }
          ],
          "internalType": "struct VerusObjectsNotarization.CProofRoot[]",
          "name": "_prsa",
          "type": "tuple[]"
        }
      ],
      "name": "serializeCProofRootArray",
      "outputs": [
        {
          "internalType": "bytes",
          "name": "",
          "type": "bytes"
        }
      ],
      "stateMutability": "pure",
      "type": "function"
    },
    {
      "inputs": [
        {
          "components": [
            {
              "internalType": "uint16",
              "name": "version",
              "type": "uint16"
            },
            {
              "internalType": "uint16",
              "name": "flags",
              "type": "uint16"
            },
            {
              "internalType": "address",
              "name": "currencyid",
              "type": "address"
            },
            {
              "internalType": "uint160[]",
              "name": "currencies",
              "type": "uint160[]"
            },
            {
              "internalType": "int32[]",
              "name": "weights",
              "type": "int32[]"
            },
            {
              "internalType": "int64[]",
              "name": "reserves",
              "type": "int64[]"
            },
            {
              "internalType": "int64",
              "name": "initialsupply",
              "type": "int64"
            },
            {
              "internalType": "int64",
              "name": "emitted",
              "type": "int64"
            },
            {
              "internalType": "int64",
              "name": "supply",
              "type": "int64"
            },
            {
              "internalType": "int64",
              "name": "primarycurrencyout",
              "type": "int64"
            },
            {
              "internalType": "int64",
              "name": "preconvertedout",
              "type": "int64"
            },
            {
              "internalType": "int64",
              "name": "primarycurrencyfees",
              "type": "int64"
            },
            {
              "internalType": "int64",
              "name": "primarycurrencyconversionfees",
              "type": "int64"
            },
            {
              "internalType": "int64[]",
              "name": "reservein",
              "type": "int64[]"
            },
            {
              "internalType": "int64[]",
              "name": "primarycurrencyin",
              "type": "int64[]"
            },
            {
              "internalType": "int64[]",
              "name": "reserveout",
              "type": "int64[]"
            },
            {
              "internalType": "int64[]",
              "name": "conversionprice",
              "type": "int64[]"
            },
            {
              "internalType": "int64[]",
              "name": "viaconversionprice",
              "type": "int64[]"
            },
            {
              "internalType": "int64[]",
              "name": "fees",
              "type": "int64[]"
            },
            {
              "internalType": "int32[]",
              "name": "priorweights",
              "type": "int32[]"
            },
            {
              "internalType": "int64[]",
              "name": "conversionfees",
              "type": "int64[]"
            }
          ],
          "internalType": "struct VerusObjectsNotarization.CCoinbaseCurrencyState",
          "name": "_cccs",
          "type": "tuple"
        }
      ],
      "name": "serializeCCoinbaseCurrencyState",
      "outputs": [
        {
          "internalType": "bytes",
          "name": "",
          "type": "bytes"
        }
      ],
      "stateMutability": "pure",
      "type": "function"
    },
    {
      "inputs": [
        {
          "components": [
            {
              "internalType": "address",
              "name": "currencyid",
              "type": "address"
            },
            {
              "components": [
                {
                  "internalType": "uint16",
                  "name": "version",
                  "type": "uint16"
                },
                {
                  "internalType": "uint16",
                  "name": "flags",
                  "type": "uint16"
                },
                {
                  "internalType": "address",
                  "name": "currencyid",
                  "type": "address"
                },
                {
                  "internalType": "uint160[]",
                  "name": "currencies",
                  "type": "uint160[]"
                },
                {
                  "internalType": "int32[]",
                  "name": "weights",
                  "type": "int32[]"
                },
                {
                  "internalType": "int64[]",
                  "name": "reserves",
                  "type": "int64[]"
                },
                {
                  "internalType": "int64",
                  "name": "initialsupply",
                  "type": "int64"
                },
                {
                  "internalType": "int64",
                  "name": "emitted",
                  "type": "int64"
                },
                {
                  "internalType": "int64",
                  "name": "supply",
                  "type": "int64"
                },
                {
                  "internalType": "int64",
                  "name": "primarycurrencyout",
                  "type": "int64"
                },
                {
                  "internalType": "int64",
                  "name": "preconvertedout",
                  "type": "int64"
                },
                {
                  "internalType": "int64",
                  "name": "primarycurrencyfees",
                  "type": "int64"
                },
                {
                  "internalType": "int64",
                  "name": "primarycurrencyconversionfees",
                  "type": "int64"
                },
                {
                  "internalType": "int64[]",
                  "name": "reservein",
                  "type": "int64[]"
                },
                {
                  "internalType": "int64[]",
                  "name": "primarycurrencyin",
                  "type": "int64[]"
                },
                {
                  "internalType": "int64[]",
                  "name": "reserveout",
                  "type": "int64[]"
                },
                {
                  "internalType": "int64[]",
                  "name": "conversionprice",
                  "type": "int64[]"
                },
                {
                  "internalType": "int64[]",
                  "name": "viaconversionprice",
                  "type": "int64[]"
                },
                {
                  "internalType": "int64[]",
                  "name": "fees",
                  "type": "int64[]"
                },
                {
                  "internalType": "int32[]",
                  "name": "priorweights",
                  "type": "int32[]"
                },
                {
                  "internalType": "int64[]",
                  "name": "conversionfees",
                  "type": "int64[]"
                }
              ],
              "internalType": "struct VerusObjectsNotarization.CCoinbaseCurrencyState",
              "name": "currencystate",
              "type": "tuple"
            }
          ],
          "internalType": "struct VerusObjectsNotarization.CurrencyStates",
          "name": "_cs",
          "type": "tuple"
        }
      ],
      "name": "serializeCurrencyStates",
      "outputs": [
        {
          "internalType": "bytes",
          "name": "",
          "type": "bytes"
        }
      ],
      "stateMutability": "pure",
      "type": "function"
    },
    {
      "inputs": [
        {
          "components": [
            {
              "internalType": "address",
              "name": "currencyid",
              "type": "address"
            },
            {
              "components": [
                {
                  "internalType": "uint16",
                  "name": "version",
                  "type": "uint16"
                },
                {
                  "internalType": "uint16",
                  "name": "flags",
                  "type": "uint16"
                },
                {
                  "internalType": "address",
                  "name": "currencyid",
                  "type": "address"
                },
                {
                  "internalType": "uint160[]",
                  "name": "currencies",
                  "type": "uint160[]"
                },
                {
                  "internalType": "int32[]",
                  "name": "weights",
                  "type": "int32[]"
                },
                {
                  "internalType": "int64[]",
                  "name": "reserves",
                  "type": "int64[]"
                },
                {
                  "internalType": "int64",
                  "name": "initialsupply",
                  "type": "int64"
                },
                {
                  "internalType": "int64",
                  "name": "emitted",
                  "type": "int64"
                },
                {
                  "internalType": "int64",
                  "name": "supply",
                  "type": "int64"
                },
                {
                  "internalType": "int64",
                  "name": "primarycurrencyout",
                  "type": "int64"
                },
                {
                  "internalType": "int64",
                  "name": "preconvertedout",
                  "type": "int64"
                },
                {
                  "internalType": "int64",
                  "name": "primarycurrencyfees",
                  "type": "int64"
                },
                {
                  "internalType": "int64",
                  "name": "primarycurrencyconversionfees",
                  "type": "int64"
                },
                {
                  "internalType": "int64[]",
                  "name": "reservein",
                  "type": "int64[]"
                },
                {
                  "internalType": "int64[]",
                  "name": "primarycurrencyin",
                  "type": "int64[]"
                },
                {
                  "internalType": "int64[]",
                  "name": "reserveout",
                  "type": "int64[]"
                },
                {
                  "internalType": "int64[]",
                  "name": "conversionprice",
                  "type": "int64[]"
                },
                {
                  "internalType": "int64[]",
                  "name": "viaconversionprice",
                  "type": "int64[]"
                },
                {
                  "internalType": "int64[]",
                  "name": "fees",
                  "type": "int64[]"
                },
                {
                  "internalType": "int32[]",
                  "name": "priorweights",
                  "type": "int32[]"
                },
                {
                  "internalType": "int64[]",
                  "name": "conversionfees",
                  "type": "int64[]"
                }
              ],
              "internalType": "struct VerusObjectsNotarization.CCoinbaseCurrencyState",
              "name": "currencystate",
              "type": "tuple"
            }
          ],
          "internalType": "struct VerusObjectsNotarization.CurrencyStates[]",
          "name": "_csa",
          "type": "tuple[]"
        }
      ],
      "name": "serializeCurrencyStatesArray",
      "outputs": [
        {
          "internalType": "bytes",
          "name": "",
          "type": "bytes"
        }
      ],
      "stateMutability": "pure",
      "type": "function"
    },
    {
      "inputs": [
        {
          "components": [
            {
              "internalType": "uint32",
              "name": "version",
              "type": "uint32"
            },
            {
              "internalType": "uint32",
              "name": "flags",
              "type": "uint32"
            },
            {
              "components": [
                {
                  "internalType": "uint8",
                  "name": "destinationtype",
                  "type": "uint8"
                },
                {
                  "internalType": "bytes",
                  "name": "destinationaddress",
                  "type": "bytes"
                }
              ],
              "internalType": "struct VerusObjectsCommon.CTransferDestination",
              "name": "proposer",
              "type": "tuple"
            },
            {
              "internalType": "address",
              "name": "currencyid",
              "type": "address"
            },
            {
              "components": [
                {
                  "internalType": "uint16",
                  "name": "version",
                  "type": "uint16"
                },
                {
                  "internalType": "uint16",
                  "name": "flags",
                  "type": "uint16"
                },
                {
                  "internalType": "address",
                  "name": "currencyid",
                  "type": "address"
                },
                {
                  "internalType": "uint160[]",
                  "name": "currencies",
                  "type": "uint160[]"
                },
                {
                  "internalType": "int32[]",
                  "name": "weights",
                  "type": "int32[]"
                },
                {
                  "internalType": "int64[]",
                  "name": "reserves",
                  "type": "int64[]"
                },
                {
                  "internalType": "int64",
                  "name": "initialsupply",
                  "type": "int64"
                },
                {
                  "internalType": "int64",
                  "name": "emitted",
                  "type": "int64"
                },
                {
                  "internalType": "int64",
                  "name": "supply",
                  "type": "int64"
                },
                {
                  "internalType": "int64",
                  "name": "primarycurrencyout",
                  "type": "int64"
                },
                {
                  "internalType": "int64",
                  "name": "preconvertedout",
                  "type": "int64"
                },
                {
                  "internalType": "int64",
                  "name": "primarycurrencyfees",
                  "type": "int64"
                },
                {
                  "internalType": "int64",
                  "name": "primarycurrencyconversionfees",
                  "type": "int64"
                },
                {
                  "internalType": "int64[]",
                  "name": "reservein",
                  "type": "int64[]"
                },
                {
                  "internalType": "int64[]",
                  "name": "primarycurrencyin",
                  "type": "int64[]"
                },
                {
                  "internalType": "int64[]",
                  "name": "reserveout",
                  "type": "int64[]"
                },
                {
                  "internalType": "int64[]",
                  "name": "conversionprice",
                  "type": "int64[]"
                },
                {
                  "internalType": "int64[]",
                  "name": "viaconversionprice",
                  "type": "int64[]"
                },
                {
                  "internalType": "int64[]",
                  "name": "fees",
                  "type": "int64[]"
                },
                {
                  "internalType": "int32[]",
                  "name": "priorweights",
                  "type": "int32[]"
                },
                {
                  "internalType": "int64[]",
                  "name": "conversionfees",
                  "type": "int64[]"
                }
              ],
              "internalType": "struct VerusObjectsNotarization.CCoinbaseCurrencyState",
              "name": "currencystate",
              "type": "tuple"
            },
            {
              "internalType": "uint32",
              "name": "notarizationheight",
              "type": "uint32"
            },
            {
              "components": [
                {
                  "internalType": "bytes32",
                  "name": "hash",
                  "type": "bytes32"
                },
                {
                  "internalType": "uint32",
                  "name": "n",
                  "type": "uint32"
                }
              ],
              "internalType": "struct VerusObjectsNotarization.CUTXORef",
              "name": "prevnotarization",
              "type": "tuple"
            },
            {
              "internalType": "bytes32",
              "name": "hashprevnotarization",
              "type": "bytes32"
            },
            {
              "internalType": "uint32",
              "name": "prevheight",
              "type": "uint32"
            },
            {
              "components": [
                {
                  "internalType": "address",
                  "name": "currencyid",
                  "type": "address"
                },
                {
                  "components": [
                    {
                      "internalType": "uint16",
                      "name": "version",
                      "type": "uint16"
                    },
                    {
                      "internalType": "uint16",
                      "name": "flags",
                      "type": "uint16"
                    },
                    {
                      "internalType": "address",
                      "name": "currencyid",
                      "type": "address"
                    },
                    {
                      "internalType": "uint160[]",
                      "name": "currencies",
                      "type": "uint160[]"
                    },
                    {
                      "internalType": "int32[]",
                      "name": "weights",
                      "type": "int32[]"
                    },
                    {
                      "internalType": "int64[]",
                      "name": "reserves",
                      "type": "int64[]"
                    },
                    {
                      "internalType": "int64",
                      "name": "initialsupply",
                      "type": "int64"
                    },
                    {
                      "internalType": "int64",
                      "name": "emitted",
                      "type": "int64"
                    },
                    {
                      "internalType": "int64",
                      "name": "supply",
                      "type": "int64"
                    },
                    {
                      "internalType": "int64",
                      "name": "primarycurrencyout",
                      "type": "int64"
                    },
                    {
                      "internalType": "int64",
                      "name": "preconvertedout",
                      "type": "int64"
                    },
                    {
                      "internalType": "int64",
                      "name": "primarycurrencyfees",
                      "type": "int64"
                    },
                    {
                      "internalType": "int64",
                      "name": "primarycurrencyconversionfees",
                      "type": "int64"
                    },
                    {
                      "internalType": "int64[]",
                      "name": "reservein",
                      "type": "int64[]"
                    },
                    {
                      "internalType": "int64[]",
                      "name": "primarycurrencyin",
                      "type": "int64[]"
                    },
                    {
                      "internalType": "int64[]",
                      "name": "reserveout",
                      "type": "int64[]"
                    },
                    {
                      "internalType": "int64[]",
                      "name": "conversionprice",
                      "type": "int64[]"
                    },
                    {
                      "internalType": "int64[]",
                      "name": "viaconversionprice",
                      "type": "int64[]"
                    },
                    {
                      "internalType": "int64[]",
                      "name": "fees",
                      "type": "int64[]"
                    },
                    {
                      "internalType": "int32[]",
                      "name": "priorweights",
                      "type": "int32[]"
                    },
                    {
                      "internalType": "int64[]",
                      "name": "conversionfees",
                      "type": "int64[]"
                    }
                  ],
                  "internalType": "struct VerusObjectsNotarization.CCoinbaseCurrencyState",
                  "name": "currencystate",
                  "type": "tuple"
                }
              ],
              "internalType": "struct VerusObjectsNotarization.CurrencyStates[]",
              "name": "currencystates",
              "type": "tuple[]"
            },
            {
              "components": [
                {
                  "internalType": "int16",
                  "name": "version",
                  "type": "int16"
                },
                {
                  "internalType": "int16",
                  "name": "cprtype",
                  "type": "int16"
                },
                {
                  "internalType": "address",
                  "name": "systemid",
                  "type": "address"
                },
                {
                  "internalType": "uint32",
                  "name": "rootheight",
                  "type": "uint32"
                },
                {
                  "internalType": "bytes32",
                  "name": "stateroot",
                  "type": "bytes32"
                },
                {
                  "internalType": "bytes32",
                  "name": "blockhash",
                  "type": "bytes32"
                },
                {
                  "internalType": "bytes32",
                  "name": "compactpower",
                  "type": "bytes32"
                }
              ],
              "internalType": "struct VerusObjectsNotarization.CProofRoot[]",
              "name": "proofroots",
              "type": "tuple[]"
            },
            {
              "components": [
                {
                  "internalType": "string",
                  "name": "networkaddress",
                  "type": "string"
                },
                {
                  "internalType": "address",
                  "name": "nodeidentity",
                  "type": "address"
                }
              ],
              "internalType": "struct VerusObjectsNotarization.CNodeData[]",
              "name": "nodes",
              "type": "tuple[]"
            }
          ],
          "internalType": "struct VerusObjectsNotarization.CPBaaSNotarization",
          "name": "_not",
          "type": "tuple"
        }
      ],
      "name": "serializeCPBaaSNotarization",
      "outputs": [
        {
          "internalType": "bytes",
          "name": "",
          "type": "bytes"
        }
      ],
      "stateMutability": "pure",
      "type": "function"
    },
    {
      "inputs": [
        {
          "components": [
            {
              "internalType": "string",
              "name": "networkaddress",
              "type": "string"
            },
            {
              "internalType": "address",
              "name": "nodeidentity",
              "type": "address"
            }
          ],
          "internalType": "struct VerusObjectsNotarization.CNodeData[]",
          "name": "_cnds",
          "type": "tuple[]"
        }
      ],
      "name": "serializeNodes",
      "outputs": [
        {
          "internalType": "bytes",
          "name": "",
          "type": "bytes"
        }
      ],
      "stateMutability": "pure",
      "type": "function"
    },
    {
      "inputs": [
        {
          "components": [
            {
              "internalType": "string",
              "name": "networkaddress",
              "type": "string"
            },
            {
              "internalType": "address",
              "name": "nodeidentity",
              "type": "address"
            }
          ],
          "internalType": "struct VerusObjectsNotarization.CNodeData",
          "name": "_cnd",
          "type": "tuple"
        }
      ],
      "name": "serializeCNodeData",
      "outputs": [
        {
          "internalType": "bytes",
          "name": "",
          "type": "bytes"
        }
      ],
      "stateMutability": "pure",
      "type": "function"
    },
    {
      "inputs": [
        {
          "components": [
            {
              "internalType": "uint16",
              "name": "version",
              "type": "uint16"
            },
            {
              "internalType": "uint16",
              "name": "flags",
              "type": "uint16"
            },
            {
              "internalType": "address",
              "name": "sourcesystemid",
              "type": "address"
            },
            {
              "internalType": "bytes32",
              "name": "hashtransfers",
              "type": "bytes32"
            },
            {
              "internalType": "uint32",
              "name": "sourceheightstart",
              "type": "uint32"
            },
            {
              "internalType": "uint32",
              "name": "sourceheightend",
              "type": "uint32"
            },
            {
              "internalType": "address",
              "name": "destinationsystemid",
              "type": "address"
            },
            {
              "internalType": "address",
              "name": "destinationcurrencyid",
              "type": "address"
            },
            {
              "internalType": "uint32",
              "name": "numinputs",
              "type": "uint32"
            },
            {
              "components": [
                {
                  "internalType": "address",
                  "name": "currency",
                  "type": "address"
                },
                {
                  "internalType": "uint64",
                  "name": "amount",
                  "type": "uint64"
                }
              ],
              "internalType": "struct VerusObjects.CCurrencyValueMap[]",
              "name": "totalamounts",
              "type": "tuple[]"
            },
            {
              "components": [
                {
                  "internalType": "address",
                  "name": "currency",
                  "type": "address"
                },
                {
                  "internalType": "uint64",
                  "name": "amount",
                  "type": "uint64"
                }
              ],
              "internalType": "struct VerusObjects.CCurrencyValueMap[]",
              "name": "totalfees",
              "type": "tuple[]"
            },
            {
              "components": [
                {
                  "internalType": "address",
                  "name": "currency",
                  "type": "address"
                },
                {
                  "internalType": "uint64",
                  "name": "amount",
                  "type": "uint64"
                }
              ],
              "internalType": "struct VerusObjects.CCurrencyValueMap[]",
              "name": "totalburned",
              "type": "tuple[]"
            },
            {
              "components": [
                {
                  "internalType": "uint8",
                  "name": "destinationtype",
                  "type": "uint8"
                },
                {
                  "internalType": "bytes",
                  "name": "destinationaddress",
                  "type": "bytes"
                }
              ],
              "internalType": "struct VerusObjectsCommon.CTransferDestination",
              "name": "rewardaddress",
              "type": "tuple"
            },
            {
              "internalType": "int32",
              "name": "firstinput",
              "type": "int32"
            }
          ],
          "internalType": "struct VerusObjects.CCrossChainExport",
          "name": "_ccce",
          "type": "tuple"
        }
      ],
      "name": "serializeCCrossChainExport",
      "outputs": [
        {
          "internalType": "bytes",
          "name": "",
          "type": "bytes"
        }
      ],
      "stateMutability": "pure",
      "type": "function"
    },
    {
      "inputs": [
        {
          "internalType": "bytes",
          "name": "incoming",
          "type": "bytes"
        }
      ],
      "name": "flipArray",
      "outputs": [
        {
          "internalType": "bytes",
          "name": "",
          "type": "bytes"
        }
      ],
      "stateMutability": "pure",
      "type": "function"
    },
    {
      "inputs": [
        {
          "internalType": "bytes",
          "name": "input",
          "type": "bytes"
        }
      ],
      "name": "deSerializeCurrencyDefinition",
      "outputs": [
        {
          "components": [
            {
              "internalType": "address",
              "name": "parent",
              "type": "address"
            },
            {
              "internalType": "string",
              "name": "name",
              "type": "string"
            },
            {
              "internalType": "address",
              "name": "launchSystemID",
              "type": "address"
            },
            {
              "internalType": "address",
              "name": "systemID",
              "type": "address"
            },
            {
              "internalType": "address",
              "name": "nativeCurrencyID",
              "type": "address"
            }
          ],
          "internalType": "struct VerusObjects.CcurrencyDefinition",
          "name": "ccurrencyDefinition",
          "type": "tuple"
        }
      ],
      "stateMutability": "pure",
      "type": "function"
    }
  ],
  "bytecode": "0x608060405234801561001057600080fd5b50614d18806100206000396000f3fe608060405234801561001057600080fd5b50600436106102475760003560e01c80637b92bd281161013b578063cfa84de9116100b8578063ec9bb1a01161007c578063ec9bb1a0146108dc578063f20fb8301461090c578063f82172951461093c578063fa7acd871461096c578063fef5906a1461099c57610247565b8063cfa84de9146107ec578063dad935a11461081c578063e06711111461084c578063e4cba5471461087c578063eba973e3146108ac57610247565b8063b3a895f6116100ff578063b3a895f6146106fc578063b9f7f35a1461072c578063c6abba5f1461075c578063c93e58c81461078c578063cecb3043146107bc57610247565b80637b92bd281461060c578063941bb0601461063c5780639d487b471461066c578063a412bb291461069c578063af832f09146106cc57610247565b806333c45ab9116101c9578063463276c31161018d578063463276c31461051c5780634df1c2461461054c5780636003992a1461057c5780636127b4ff146105ac57806368b4ae81146105dc57610247565b806333c45ab91461042c57806338b108681461045c5780633b7cc0a21461048c57806344c789d1146104bc57806346256007146104ec57610247565b806318c9bbfd1161021057806318c9bbfd1461033c57806319a7c17b1461036c5780631c3565321461039c578063200f6c2a146103cc578063241d23b2146103fc57610247565b80629c81521461024c578063049e34901461027c5780630a803a86146102ac5780631222d81a146102dc578063122e5ae71461030c575b600080fd5b6102666004803603810190610261919061207e565b6109cc565b6040516102739190612144565b60405180910390f35b61029660048036038101906102919190612455565b6109f5565b6040516102a39190612144565b60405180910390f35b6102c660048036038101906102c19190612adb565b610a73565b6040516102d39190612144565b60405180910390f35b6102f660048036038101906102f19190612bc5565b610c20565b6040516103039190612144565b60405180910390f35b61032660048036038101906103219190612c4e565b610d19565b6040516103339190612144565b60405180910390f35b61035660048036038101906103519190612dda565b610d50565b6040516103639190612144565b60405180910390f35b61038660048036038101906103819190612e07565b610de7565b6040516103939190612144565b60405180910390f35b6103b660048036038101906103b19190612ea0565b610e7c565b6040516103c39190612144565b60405180910390f35b6103e660048036038101906103e1919061301a565b610ebf565b6040516103f39190612144565b60405180910390f35b61041660048036038101906104119190613063565b610f3d565b6040516104239190612144565b60405180910390f35b610446600480360381019061044191906130e1565b610f6c565b6040516104539190612144565b60405180910390f35b6104766004803603810190610471919061310f565b610faf565b60405161048391906131a9565b60405180910390f35b6104a660048036038101906104a191906134cd565b611047565b6040516104b39190612144565b60405180910390f35b6104d660048036038101906104d19190613529565b6110cd565b6040516104e39190612144565b60405180910390f35b61050660048036038101906105019190613572565b611110565b6040516105139190612144565b60405180910390f35b610536600480360381019061053191906135f7565b611147565b6040516105439190612144565b60405180910390f35b61056660048036038101906105619190613624565b611170565b6040516105739190612144565b60405180910390f35b610596600480360381019061059191906138ee565b6112da565b6040516105a39190612144565b60405180910390f35b6105c660048036038101906105c19190613937565b61142f565b6040516105d39190612144565b60405180910390f35b6105f660048036038101906105f19190613964565b611466565b6040516106039190612144565b60405180910390f35b61062660048036038101906106219190613a72565b6114be565b6040516106339190612144565b60405180910390f35b61065660048036038101906106519190613abb565b61153c565b6040516106639190612144565b60405180910390f35b61068660048036038101906106819190613b04565b6115ba565b6040516106939190612144565b60405180910390f35b6106b660048036038101906106b19190613c10565b611638565b6040516106c39190612144565b60405180910390f35b6106e660048036038101906106e19190613c59565b6116b6565b6040516106f39190612144565b60405180910390f35b61071660048036038101906107119190613c86565b6116ed565b6040516107239190612144565b60405180910390f35b61074660048036038101906107419190613cb3565b61177f565b6040516107539190612144565b60405180910390f35b61077660048036038101906107719190613ce0565b6117b0565b6040516107839190612144565b60405180910390f35b6107a660048036038101906107a19190613d29565b61181f565b6040516107b39190612144565b60405180910390f35b6107d660048036038101906107d19190613ddc565b611874565b6040516107e39190612144565b60405180910390f35b61080660048036038101906108019190613e09565b6118ab565b6040516108139190612144565b60405180910390f35b61083660048036038101906108319190613c86565b6118ee565b6040516108439190612144565b60405180910390f35b61086660048036038101906108619190613e36565b6119bd565b6040516108739190612144565b60405180910390f35b61089660048036038101906108919190613e7f565b611a00565b6040516108a39190612144565b60405180910390f35b6108c660048036038101906108c1919061405b565b611a37565b6040516108d39190612144565b60405180910390f35b6108f660048036038101906108f1919061310f565b611b16565b60405161090391906131a9565b60405180910390f35b61092660048036038101906109219190613c86565b611c15565b6040516109339190612144565b60405180910390f35b610956600480360381019061095191906140a4565b611c4c565b6040516109639190612144565b60405180910390f35b61098660048036038101906109819190612bc5565b611ce9565b60405161099391906141c7565b60405180910390f35b6109b660048036038101906109b191906141e9565b611f4e565b6040516109c39190612144565b60405180910390f35b6060816040516020016109df919061425e565b6040516020818303038152906040529050919050565b606080610a0283516118ee565b905060005b8351811015610a695781610a34858381518110610a2757610a26614279565b5b60200260200101516110cd565b604051602001610a459291906142e4565b60405160208183030381529060405291508080610a6190614337565b915050610a07565b5080915050919050565b60606000610a848360000151611a00565b610a918460200151611a00565b610a9e8560400151610f3d565b610aab8660600151610de7565b610ab887608001516115ba565b610ac58860a00151611c4c565b610ad58960c0015160070b6116ed565b610ae58a60e0015160070b6116ed565b610af68b610100015160070b6116ed565b604051602001610b0e9998979695949392919061437f565b60405160208183030381529060405290506000610b2f8461012001516116b6565b610b3d8561014001516116b6565b610b4b8661016001516116b6565b610b598761018001516116b6565b610b67886101a00151611c4c565b610b75896101c00151611c4c565b610b838a6101e00151611c4c565b610b918b6102000151611c4c565b610b9f8c6102200151611c4c565b610bad8d6102400151611c4c565b610bbb8e61026001516115ba565b610bc98f6102800151611c4c565b604051602001610be49c9b9a999897969594939291906143fe565b60405160208183030381529060405290508181604051602001610c089291906142e4565b60405160208183030381529060405292505050919050565b606060008251905060008167ffffffffffffffff811115610c4457610c4361216b565b5b6040519080825280601f01601f191660200182016040528015610c765781602001600182028036833780820191505090505b50905060005b82811015610d0e578460018285610c9391906144a4565b610c9d91906144a4565b81518110610cae57610cad614279565b5b602001015160f81c60f81b828281518110610ccc57610ccb614279565b5b60200101907effffffffffffffffffffffffffffffffffffffffffffffffffffffffffffff1916908160001a9053508080610d0690614337565b915050610c7c565b819350505050919050565b6060600082604051602001610d2e919061450e565b6040516020818303038152906040529050610d4881610c20565b915050919050565b6060610d5f8260400151610f3d565b610d6c8360000151611110565b610d798460200151611110565b610d868560400151610f3d565b610d938660600151611874565b610da0876080015161177f565b610dad8860a0015161177f565b610dba8960c0015161177f565b604051602001610dd1989796959493929190614529565b6040516020818303038152906040529050919050565b606080610df483516118ee565b905060005b8351811015610e725781848281518110610e1657610e15614279565b5b6020026020010151604051602001610e2e91906145d1565b604051602081830303815290604052604051602001610e4e9291906142e4565b60405160208183030381529060405291508080610e6a90614337565b915050610df9565b5080915050919050565b6060610e8b826000015161177f565b610e988360200151611874565b604051602001610ea99291906142e4565b6040516020818303038152906040529050919050565b606080610ecc83516118ee565b905060005b8351811015610f335781610efe858381518110610ef157610ef0614279565b5b60200260200101516119bd565b604051602001610f0f9291906142e4565b60405160208183030381529060405291508080610f2b90614337565b915050610ed1565b5080915050919050565b6060600082604051602001610f529190614615565b604051602081830303815290604052905080915050919050565b6060610f7b8260000151610f3d565b610f888360200151610d50565b604051602001610f999291906142e4565b6040516020818303038152906040529050919050565b610fb7611f85565b60005b60011561101d576000838501519050600784610fd69190614630565b63ffffffff16607f821660ff1663ffffffff16901b82610ff6919061466e565b91508380611003906146a8565b945050607f8160ff1611611017575061101d565b50610fba565b60405180604001604052808463ffffffff1681526020018263ffffffff1681525091505092915050565b606080821561105d5761105a84516118ee565b90505b60005b84518110156110c2578161108d8683815181106110805761107f614279565b5b6020026020010151611170565b60405160200161109e9291906142e4565b604051602081830303815290604052915080806110ba90614337565b915050611060565b508091505092915050565b60606110dc8260000151611466565b6110e98360200151610f3d565b6040516020016110fa9291906142e4565b6040516020818303038152906040529050919050565b6060600082604051602001611125919061470a565b604051602081830303815290604052905061113f81610c20565b915050919050565b60608160405160200161115a9190614746565b6040516020818303038152906040529050919050565b60606000611187836000015163ffffffff166116ed565b611198846020015160000151610f3d565b6111b385602001516020015167ffffffffffffffff166116ed565b6040516020016111c49291906142e4565b6040516020818303038152906040526111e6856040015163ffffffff166116ed565b6111f38660600151610f3d565b61120087608001516116ed565b61120d8860a001516117b0565b61121a8960c00151610f3d565b6040516020016112309796959493929190614761565b6040516020818303038152906040529050600061040084604001511663ffffffff16111561128a5780611267846101000151610f3d565b6040516020016112789291906142e4565b60405160208183030381529060405290505b6000604084604001511663ffffffff1611156112d157806112ae8460e00151610f3d565b6040516020016112bf9291906142e4565b60405160208183030381529060405290505b80915050919050565b606060006112eb8360000151611a00565b6112f88460200151611a00565b6113058560400151610f3d565b61131a611315876060015161177f565b610c20565b6113278760c00151610f3d565b6113348860e00151610f3d565b604051602001611349969594939291906147c6565b6040516020818303038152906040529050600061136f846080015163ffffffff166116ed565b6113828560a0015163ffffffff166116ed565b611390866101000151611874565b61139e87610120015161153c565b6113ac88610140015161153c565b6113ba89610160015161153c565b6113c88a61018001516117b0565b6113d68b6101a00151611f4e565b600060f81b6040516020016113f39998979695949392919061486b565b604051602081830303815290604052905081816040516020016114179291906142e4565b60405160208183030381529060405292505050919050565b60606000826040516020016114449190614905565b604051602081830303815290604052905061145e81610c20565b915050919050565b6060808260405160200161147a919061495c565b604051602081830303815290604052905061149581516118ee565b836040516020016114a7929190614973565b604051602081830303815290604052915050919050565b6060806114cb83516118ee565b905060005b835181101561153257816114fd8583815181106114f0576114ef614279565b5b6020026020010151610f6c565b60405160200161150e9291906142e4565b6040516020818303038152906040529150808061152a90614337565b9150506114d0565b5080915050919050565b60608061154983516116ed565b905060005b83518110156115b0578161157b85838151811061156e5761156d614279565b5b60200260200101516118ab565b60405160200161158c9291906142e4565b604051602081830303815290604052915080806115a890614337565b91505061154e565b5080915050919050565b6060806115c783516118ee565b905060005b835181101561162e57816115f98583815181106115ec576115eb614279565b5b6020026020010151611f4e565b60405160200161160a9291906142e4565b6040516020818303038152906040529150808061162690614337565b9150506115cc565b5080915050919050565b60608061164583516118ee565b905060005b83518110156116ac578161167785838151811061166a57611669614279565b5b6020026020010151610d50565b6040516020016116889291906142e4565b604051602081830303815290604052915080806116a490614337565b91505061164a565b5080915050919050565b60606000826040516020016116cb91906149c0565b60405160208183030381529060405290506116e581610c20565b915050919050565b60606000606060005b60011561176c576000810361170c57600061170f565b60805b607f86161760f81b9250818360405160200161172c9291906149db565b6040516020818303038152906040529150607f85111561176c576001600786901c61175791906144a4565b9450808061176490614337565b9150506116f6565b61177582610c20565b9350505050919050565b60606117a9826040516020016117959190614a24565b604051602081830303815290604052610c20565b9050919050565b60606000600660ff16600684600001511660ff16036117d65782602001515190506117db565b601490505b6117e8836000015161142f565b6117f1826118ee565b846020015160405160200161180893929190614a3f565b604051602081830303815290604052915050919050565b606061182a86611466565b61183386610f3d565b61183c866116b6565b61184586610f3d565b8560405160200161185a959493929190614a70565b604051602081830303815290604052905095945050505050565b60606000826040516020016118899190614af1565b60405160208183030381529060405290506118a381610c20565b915050919050565b60606118ba8260000151610f3d565b6118c78360200151610d19565b6040516020016118d89291906142e4565b6040516020818303038152906040529050919050565b60608060fd60ff16831015611924578260405160200161190e9190614905565b60405160208183030381529060405290506119b4565b61ffff83116119575760fd83604051602001611941929190614b35565b60405160208183030381529060405290506119b3565b63ffffffff831161198c5760fe83604051602001611976929190614b61565b60405160208183030381529060405290506119b2565b60ff836040516020016119a0929190614b8d565b60405160208183030381529060405290505b5b5b80915050919050565b60606119cc8260000151610f3d565b6119d98360200151610a73565b6040516020016119ea9291906142e4565b6040516020818303038152906040529050919050565b6060600082604051602001611a159190614bb9565b6040516020818303038152906040529050611a2f81610c20565b915050919050565b6060611a4c826000015163ffffffff166116ed565b611a5f836020015163ffffffff166116ed565b611a6c84604001516117b0565b611a798560600151610f3d565b611a868660800151610a73565b611a938760a00151611874565b611aa08860c00151610e7c565b611aad8960e0015161177f565b611abb8a6101000151611874565b611ac98b6101200151610ebf565b611ad78c6101400151611638565b611ae58d61016001516109f5565b604051602001611b009c9b9a999897969594939291906143fe565b6040516020818303038152906040529050919050565b611b1e611f85565b60008284015190508280611b31906146a8565b93505060fd8160ff161015611b6c5760405180604001604052808463ffffffff1681526020018260ff1663ffffffff16815250915050611c0f565b60fd8160ff1603611be95782840151905060008160ff1690508380611b90906146a8565b9450508385015191506040518060400160405280600186611bb1919061466e565b63ffffffff1681526020018360ff1660088461ffff16901b611bd39190614bd4565b61ffff1663ffffffff1681525092505050611c0f565b60405180604001604052808463ffffffff168152602001600063ffffffff168152509150505b92915050565b6060600082604051602001611c2a9190614c2d565b6040516020818303038152906040529050611c4481610c20565b915050919050565b606080611c5983516118ee565b905060005b8351811015611cdf5781611caa858381518110611c7e57611c7d614279565b5b6020026020010151604051602001611c9691906149c0565b604051602081830303815290604052610c20565b604051602001611cbb9291906142e4565b60405160208183030381529060405291508080611cd790614337565b915050611c5e565b5080915050919050565b611cf1611fab565b6000806000806000806000601c9050600060149050600060048083611d16919061466e565b611d20919061466e565b9050829850888b01519650600189019850888b01519750868a6000019073ffffffffffffffffffffffffffffffffffffffff16908173ffffffffffffffffffffffffffffffffffffffff168152505060008860ff1667ffffffffffffffff811115611d8e57611d8d61216b565b5b6040519080825280601f01601f191660200182016040528015611dc05781602001600182028036833780820191505090505b50905060005b8960ff16811015611e55578c8b63ffffffff1682611de49190614c48565b81518110611df557611df4614279565b5b602001015160f81c60f81b828281518110611e1357611e12614279565b5b60200101907effffffffffffffffffffffffffffffffffffffffffffffffffffffffffffff1916908160001a9053508080611e4d90614337565b915050611dc6565b50808b60200181905250828960ff168b611e6f919061466e565b611e79919061466e565b9950898c01519650828a019950898c01519550818a019950898c01519450868b6040019073ffffffffffffffffffffffffffffffffffffffff16908173ffffffffffffffffffffffffffffffffffffffff1681525050858b6060019073ffffffffffffffffffffffffffffffffffffffff16908173ffffffffffffffffffffffffffffffffffffffff1681525050848b6080019073ffffffffffffffffffffffffffffffffffffffff16908173ffffffffffffffffffffffffffffffffffffffff168152505050505050505050505050919050565b6060600082604051602001611f639190614cc7565b6040516020818303038152906040529050611f7d81610c20565b915050919050565b6040518060400160405280600063ffffffff168152602001600063ffffffff1681525090565b6040518060a00160405280600073ffffffffffffffffffffffffffffffffffffffff16815260200160608152602001600073ffffffffffffffffffffffffffffffffffffffff168152602001600073ffffffffffffffffffffffffffffffffffffffff168152602001600073ffffffffffffffffffffffffffffffffffffffff1681525090565b6000604051905090565b600080fd5b600080fd5b60008115159050919050565b61205b81612046565b811461206657600080fd5b50565b60008135905061207881612052565b92915050565b6000602082840312156120945761209361203c565b5b60006120a284828501612069565b91505092915050565b600081519050919050565b600082825260208201905092915050565b60005b838110156120e55780820151818401526020810190506120ca565b838111156120f4576000848401525b50505050565b6000601f19601f8301169050919050565b6000612116826120ab565b61212081856120b6565b93506121308185602086016120c7565b612139816120fa565b840191505092915050565b6000602082019050818103600083015261215e818461210b565b905092915050565b600080fd5b7f4e487b7100000000000000000000000000000000000000000000000000000000600052604160045260246000fd5b6121a3826120fa565b810181811067ffffffffffffffff821117156121c2576121c161216b565b5b80604052505050565b60006121d5612032565b90506121e1828261219a565b919050565b600067ffffffffffffffff8211156122015761220061216b565b5b602082029050602081019050919050565b600080fd5b600080fd5b600080fd5b600080fd5b600067ffffffffffffffff8211156122415761224061216b565b5b61224a826120fa565b9050602081019050919050565b82818337600083830152505050565b600061227961227484612226565b6121cb565b90508281526020810184848401111561229557612294612221565b5b6122a0848285612257565b509392505050565b600082601f8301126122bd576122bc612166565b5b81356122cd848260208601612266565b91505092915050565b600073ffffffffffffffffffffffffffffffffffffffff82169050919050565b6000612301826122d6565b9050919050565b612311816122f6565b811461231c57600080fd5b50565b60008135905061232e81612308565b92915050565b60006040828403121561234a57612349612217565b5b61235460406121cb565b9050600082013567ffffffffffffffff8111156123745761237361221c565b5b612380848285016122a8565b60008301525060206123948482850161231f565b60208301525092915050565b60006123b36123ae846121e6565b6121cb565b905080838252602082019050602084028301858111156123d6576123d5612212565b5b835b8181101561241d57803567ffffffffffffffff8111156123fb576123fa612166565b5b8086016124088982612334565b855260208501945050506020810190506123d8565b5050509392505050565b600082601f83011261243c5761243b612166565b5b813561244c8482602086016123a0565b91505092915050565b60006020828403121561246b5761246a61203c565b5b600082013567ffffffffffffffff81111561248957612488612041565b5b61249584828501612427565b91505092915050565b600061ffff82169050919050565b6124b58161249e565b81146124c057600080fd5b50565b6000813590506124d2816124ac565b92915050565b600067ffffffffffffffff8211156124f3576124f261216b565b5b602082029050602081019050919050565b61250d816122d6565b811461251857600080fd5b50565b60008135905061252a81612504565b92915050565b600061254361253e846124d8565b6121cb565b9050808382526020820190506020840283018581111561256657612565612212565b5b835b8181101561258f578061257b888261251b565b845260208401935050602081019050612568565b5050509392505050565b600082601f8301126125ae576125ad612166565b5b81356125be848260208601612530565b91505092915050565b600067ffffffffffffffff8211156125e2576125e161216b565b5b602082029050602081019050919050565b60008160030b9050919050565b612609816125f3565b811461261457600080fd5b50565b60008135905061262681612600565b92915050565b600061263f61263a846125c7565b6121cb565b9050808382526020820190506020840283018581111561266257612661612212565b5b835b8181101561268b57806126778882612617565b845260208401935050602081019050612664565b5050509392505050565b600082601f8301126126aa576126a9612166565b5b81356126ba84826020860161262c565b91505092915050565b600067ffffffffffffffff8211156126de576126dd61216b565b5b602082029050602081019050919050565b60008160070b9050919050565b612705816126ef565b811461271057600080fd5b50565b600081359050612722816126fc565b92915050565b600061273b612736846126c3565b6121cb565b9050808382526020820190506020840283018581111561275e5761275d612212565b5b835b8181101561278757806127738882612713565b845260208401935050602081019050612760565b5050509392505050565b600082601f8301126127a6576127a5612166565b5b81356127b6848260208601612728565b91505092915050565b60006102a082840312156127d6576127d5612217565b5b6127e16102a06121cb565b905060006127f1848285016124c3565b6000830152506020612805848285016124c3565b60208301525060406128198482850161231f565b604083015250606082013567ffffffffffffffff81111561283d5761283c61221c565b5b61284984828501612599565b606083015250608082013567ffffffffffffffff81111561286d5761286c61221c565b5b61287984828501612695565b60808301525060a082013567ffffffffffffffff81111561289d5761289c61221c565b5b6128a984828501612791565b60a08301525060c06128bd84828501612713565b60c08301525060e06128d184828501612713565b60e0830152506101006128e684828501612713565b610100830152506101206128fc84828501612713565b6101208301525061014061291284828501612713565b6101408301525061016061292884828501612713565b6101608301525061018061293e84828501612713565b610180830152506101a082013567ffffffffffffffff8111156129645761296361221c565b5b61297084828501612791565b6101a0830152506101c082013567ffffffffffffffff8111156129965761299561221c565b5b6129a284828501612791565b6101c0830152506101e082013567ffffffffffffffff8111156129c8576129c761221c565b5b6129d484828501612791565b6101e08301525061020082013567ffffffffffffffff8111156129fa576129f961221c565b5b612a0684828501612791565b6102008301525061022082013567ffffffffffffffff811115612a2c57612a2b61221c565b5b612a3884828501612791565b6102208301525061024082013567ffffffffffffffff811115612a5e57612a5d61221c565b5b612a6a84828501612791565b6102408301525061026082013567ffffffffffffffff811115612a9057612a8f61221c565b5b612a9c84828501612695565b6102608301525061028082013567ffffffffffffffff811115612ac257612ac161221c565b5b612ace84828501612791565b6102808301525092915050565b600060208284031215612af157612af061203c565b5b600082013567ffffffffffffffff811115612b0f57612b0e612041565b5b612b1b848285016127bf565b91505092915050565b600067ffffffffffffffff821115612b3f57612b3e61216b565b5b612b48826120fa565b9050602081019050919050565b6000612b68612b6384612b24565b6121cb565b905082815260208101848484011115612b8457612b83612221565b5b612b8f848285612257565b509392505050565b600082601f830112612bac57612bab612166565b5b8135612bbc848260208601612b55565b91505092915050565b600060208284031215612bdb57612bda61203c565b5b600082013567ffffffffffffffff811115612bf957612bf8612041565b5b612c0584828501612b97565b91505092915050565b600067ffffffffffffffff82169050919050565b612c2b81612c0e565b8114612c3657600080fd5b50565b600081359050612c4881612c22565b92915050565b600060208284031215612c6457612c6361203c565b5b6000612c7284828501612c39565b91505092915050565b60008160010b9050919050565b612c9181612c7b565b8114612c9c57600080fd5b50565b600081359050612cae81612c88565b92915050565b600063ffffffff82169050919050565b612ccd81612cb4565b8114612cd857600080fd5b50565b600081359050612cea81612cc4565b92915050565b6000819050919050565b612d0381612cf0565b8114612d0e57600080fd5b50565b600081359050612d2081612cfa565b92915050565b600060e08284031215612d3c57612d3b612217565b5b612d4660e06121cb565b90506000612d5684828501612c9f565b6000830152506020612d6a84828501612c9f565b6020830152506040612d7e8482850161231f565b6040830152506060612d9284828501612cdb565b6060830152506080612da684828501612d11565b60808301525060a0612dba84828501612d11565b60a08301525060c0612dce84828501612d11565b60c08301525092915050565b600060e08284031215612df057612def61203c565b5b6000612dfe84828501612d26565b91505092915050565b600060208284031215612e1d57612e1c61203c565b5b600082013567ffffffffffffffff811115612e3b57612e3a612041565b5b612e4784828501612599565b91505092915050565b600060408284031215612e6657612e65612217565b5b612e7060406121cb565b90506000612e8084828501612d11565b6000830152506020612e9484828501612cdb565b60208301525092915050565b600060408284031215612eb657612eb561203c565b5b6000612ec484828501612e50565b91505092915050565b600067ffffffffffffffff821115612ee857612ee761216b565b5b602082029050602081019050919050565b600060408284031215612f0f57612f0e612217565b5b612f1960406121cb565b90506000612f298482850161231f565b600083015250602082013567ffffffffffffffff811115612f4d57612f4c61221c565b5b612f59848285016127bf565b60208301525092915050565b6000612f78612f7384612ecd565b6121cb565b90508083825260208201905060208402830185811115612f9b57612f9a612212565b5b835b81811015612fe257803567ffffffffffffffff811115612fc057612fbf612166565b5b808601612fcd8982612ef9565b85526020850194505050602081019050612f9d565b5050509392505050565b600082601f83011261300157613000612166565b5b8135613011848260208601612f65565b91505092915050565b6000602082840312156130305761302f61203c565b5b600082013567ffffffffffffffff81111561304e5761304d612041565b5b61305a84828501612fec565b91505092915050565b6000602082840312156130795761307861203c565b5b60006130878482850161231f565b91505092915050565b600061010082840312156130a7576130a6612217565b5b6130b160406121cb565b905060006130c18482850161231f565b60008301525060206130d584828501612d26565b60208301525092915050565b600061010082840312156130f8576130f761203c565b5b600061310684828501613090565b91505092915050565b600080604083850312156131265761312561203c565b5b600083013567ffffffffffffffff81111561314457613143612041565b5b61315085828601612b97565b925050602061316185828601612cdb565b9150509250929050565b61317481612cb4565b82525050565b604082016000820151613190600085018261316b565b5060208201516131a3602085018261316b565b50505050565b60006040820190506131be600083018461317a565b92915050565b600067ffffffffffffffff8211156131df576131de61216b565b5b602082029050602081019050919050565b60006040828403121561320657613205612217565b5b61321060406121cb565b905060006132208482850161231f565b600083015250602061323484828501612c39565b60208301525092915050565b6000819050919050565b61325381613240565b811461325e57600080fd5b50565b6000813590506132708161324a565b92915050565b600060ff82169050919050565b61328c81613276565b811461329757600080fd5b50565b6000813590506132a981613283565b92915050565b6000604082840312156132c5576132c4612217565b5b6132cf60406121cb565b905060006132df8482850161329a565b600083015250602082013567ffffffffffffffff8111156133035761330261221c565b5b61330f84828501612b97565b60208301525092915050565b6000610140828403121561333257613331612217565b5b61333d6101206121cb565b9050600061334d84828501612cdb565b6000830152506020613361848285016131f0565b602083015250606061337584828501612cdb565b60408301525060806133898482850161231f565b60608301525060a061339d84828501613261565b60808301525060c082013567ffffffffffffffff8111156133c1576133c061221c565b5b6133cd848285016132af565b60a08301525060e06133e18482850161231f565b60c0830152506101006133f68482850161231f565b60e08301525061012061340b8482850161231f565b6101008301525092915050565b600061342b613426846131c4565b6121cb565b9050808382526020820190506020840283018581111561344e5761344d612212565b5b835b8181101561349557803567ffffffffffffffff81111561347357613472612166565b5b808601613480898261331b565b85526020850194505050602081019050613450565b5050509392505050565b600082601f8301126134b4576134b3612166565b5b81356134c4848260208601613418565b91505092915050565b600080604083850312156134e4576134e361203c565b5b600083013567ffffffffffffffff81111561350257613501612041565b5b61350e8582860161349f565b925050602061351f85828601612069565b9150509250929050565b60006020828403121561353f5761353e61203c565b5b600082013567ffffffffffffffff81111561355d5761355c612041565b5b61356984828501612334565b91505092915050565b6000602082840312156135885761358761203c565b5b600061359684828501612c9f565b91505092915050565b60007fffffffffffffffffffffffffffffffffffffffff00000000000000000000000082169050919050565b6135d48161359f565b81146135df57600080fd5b50565b6000813590506135f1816135cb565b92915050565b60006020828403121561360d5761360c61203c565b5b600061361b848285016135e2565b91505092915050565b60006020828403121561363a5761363961203c565b5b600082013567ffffffffffffffff81111561365857613657612041565b5b6136648482850161331b565b91505092915050565b600067ffffffffffffffff8211156136885761368761216b565b5b602082029050602081019050919050565b60006136ac6136a78461366d565b6121cb565b905080838252602082019050604084028301858111156136cf576136ce612212565b5b835b818110156136f857806136e488826131f0565b8452602084019350506040810190506136d1565b5050509392505050565b600082601f83011261371757613716612166565b5b8135613727848260208601613699565b91505092915050565b60006101c0828403121561374757613746612217565b5b6137526101c06121cb565b90506000613762848285016124c3565b6000830152506020613776848285016124c3565b602083015250604061378a8482850161231f565b604083015250606061379e84828501612d11565b60608301525060806137b284828501612cdb565b60808301525060a06137c684828501612cdb565b60a08301525060c06137da8482850161231f565b60c08301525060e06137ee8482850161231f565b60e08301525061010061380384828501612cdb565b6101008301525061012082013567ffffffffffffffff8111156138295761382861221c565b5b61383584828501613702565b6101208301525061014082013567ffffffffffffffff81111561385b5761385a61221c565b5b61386784828501613702565b6101408301525061016082013567ffffffffffffffff81111561388d5761388c61221c565b5b61389984828501613702565b6101608301525061018082013567ffffffffffffffff8111156138bf576138be61221c565b5b6138cb848285016132af565b610180830152506101a06138e184828501612617565b6101a08301525092915050565b6000602082840312156139045761390361203c565b5b600082013567ffffffffffffffff81111561392257613921612041565b5b61392e84828501613730565b91505092915050565b60006020828403121561394d5761394c61203c565b5b600061395b8482850161329a565b91505092915050565b60006020828403121561397a5761397961203c565b5b600082013567ffffffffffffffff81111561399857613997612041565b5b6139a4848285016122a8565b91505092915050565b600067ffffffffffffffff8211156139c8576139c761216b565b5b602082029050602081019050919050565b60006139ec6139e7846139ad565b6121cb565b9050808382526020820190506101008402830185811115613a1057613a0f612212565b5b835b81811015613a3a5780613a258882613090565b84526020840193505061010081019050613a12565b5050509392505050565b600082601f830112613a5957613a58612166565b5b8135613a698482602086016139d9565b91505092915050565b600060208284031215613a8857613a8761203c565b5b600082013567ffffffffffffffff811115613aa657613aa5612041565b5b613ab284828501613a44565b91505092915050565b600060208284031215613ad157613ad061203c565b5b600082013567ffffffffffffffff811115613aef57613aee612041565b5b613afb84828501613702565b91505092915050565b600060208284031215613b1a57613b1961203c565b5b600082013567ffffffffffffffff811115613b3857613b37612041565b5b613b4484828501612695565b91505092915050565b600067ffffffffffffffff821115613b6857613b6761216b565b5b602082029050602081019050919050565b6000613b8c613b8784613b4d565b6121cb565b90508083825260208201905060e08402830185811115613baf57613bae612212565b5b835b81811015613bd85780613bc48882612d26565b84526020840193505060e081019050613bb1565b5050509392505050565b600082601f830112613bf757613bf6612166565b5b8135613c07848260208601613b79565b91505092915050565b600060208284031215613c2657613c2561203c565b5b600082013567ffffffffffffffff811115613c4457613c43612041565b5b613c5084828501613be2565b91505092915050565b600060208284031215613c6f57613c6e61203c565b5b6000613c7d84828501612713565b91505092915050565b600060208284031215613c9c57613c9b61203c565b5b6000613caa84828501613261565b91505092915050565b600060208284031215613cc957613cc861203c565b5b6000613cd784828501612d11565b91505092915050565b600060208284031215613cf657613cf561203c565b5b600082013567ffffffffffffffff811115613d1457613d13612041565b5b613d20848285016132af565b91505092915050565b600080600080600060a08688031215613d4557613d4461203c565b5b600086013567ffffffffffffffff811115613d6357613d62612041565b5b613d6f888289016122a8565b9550506020613d808882890161231f565b9450506040613d9188828901612713565b9350506060613da28882890161231f565b925050608086013567ffffffffffffffff811115613dc357613dc2612041565b5b613dcf88828901612b97565b9150509295509295909350565b600060208284031215613df257613df161203c565b5b6000613e0084828501612cdb565b91505092915050565b600060408284031215613e1f57613e1e61203c565b5b6000613e2d848285016131f0565b91505092915050565b600060208284031215613e4c57613e4b61203c565b5b600082013567ffffffffffffffff811115613e6a57613e69612041565b5b613e7684828501612ef9565b91505092915050565b600060208284031215613e9557613e9461203c565b5b6000613ea3848285016124c3565b91505092915050565b60006101a08284031215613ec357613ec2612217565b5b613ece6101806121cb565b90506000613ede84828501612cdb565b6000830152506020613ef284828501612cdb565b602083015250604082013567ffffffffffffffff811115613f1657613f1561221c565b5b613f22848285016132af565b6040830152506060613f368482850161231f565b606083015250608082013567ffffffffffffffff811115613f5a57613f5961221c565b5b613f66848285016127bf565b60808301525060a0613f7a84828501612cdb565b60a08301525060c0613f8e84828501612e50565b60c083015250610100613fa384828501612d11565b60e083015250610120613fb884828501612cdb565b6101008301525061014082013567ffffffffffffffff811115613fde57613fdd61221c565b5b613fea84828501612fec565b6101208301525061016082013567ffffffffffffffff8111156140105761400f61221c565b5b61401c84828501613be2565b6101408301525061018082013567ffffffffffffffff8111156140425761404161221c565b5b61404e84828501612427565b6101608301525092915050565b6000602082840312156140715761407061203c565b5b600082013567ffffffffffffffff81111561408f5761408e612041565b5b61409b84828501613eac565b91505092915050565b6000602082840312156140ba576140b961203c565b5b600082013567ffffffffffffffff8111156140d8576140d7612041565b5b6140e484828501612791565b91505092915050565b6140f6816122f6565b82525050565b600081519050919050565b600082825260208201905092915050565b6000614123826140fc565b61412d8185614107565b935061413d8185602086016120c7565b614146816120fa565b840191505092915050565b600060a08301600083015161416960008601826140ed565b50602083015184820360208601526141818282614118565b915050604083015161419660408601826140ed565b5060608301516141a960608601826140ed565b5060808301516141bc60808601826140ed565b508091505092915050565b600060208201905081810360008301526141e18184614151565b905092915050565b6000602082840312156141ff576141fe61203c565b5b600061420d84828501612617565b91505092915050565b60008160f81b9050919050565b600061422e82614216565b9050919050565b600061424082614223565b9050919050565b61425861425382612046565b614235565b82525050565b600061426a8284614247565b60018201915081905092915050565b7f4e487b7100000000000000000000000000000000000000000000000000000000600052603260045260246000fd5b600081905092915050565b60006142be826120ab565b6142c881856142a8565b93506142d88185602086016120c7565b80840191505092915050565b60006142f082856142b3565b91506142fc82846142b3565b91508190509392505050565b7f4e487b7100000000000000000000000000000000000000000000000000000000600052601160045260246000fd5b600061434282613240565b91507fffffffffffffffffffffffffffffffffffffffffffffffffffffffffffffffff820361437457614373614308565b5b600182019050919050565b600061438b828c6142b3565b9150614397828b6142b3565b91506143a3828a6142b3565b91506143af82896142b3565b91506143bb82886142b3565b91506143c782876142b3565b91506143d382866142b3565b91506143df82856142b3565b91506143eb82846142b3565b91508190509a9950505050505050505050565b600061440a828f6142b3565b9150614416828e6142b3565b9150614422828d6142b3565b915061442e828c6142b3565b915061443a828b6142b3565b9150614446828a6142b3565b915061445282896142b3565b915061445e82886142b3565b915061446a82876142b3565b915061447682866142b3565b915061448282856142b3565b915061448e82846142b3565b91508190509d9c50505050505050505050505050565b60006144af82613240565b91506144ba83613240565b9250828210156144cd576144cc614308565b5b828203905092915050565b60008160c01b9050919050565b60006144f0826144d8565b9050919050565b61450861450382612c0e565b6144e5565b82525050565b600061451a82846144f7565b60088201915081905092915050565b6000614535828b6142b3565b9150614541828a6142b3565b915061454d82896142b3565b915061455982886142b3565b915061456582876142b3565b915061457182866142b3565b915061457d82856142b3565b915061458982846142b3565b91508190509998505050505050505050565b60008160601b9050919050565b60006145b38261459b565b9050919050565b6145cb6145c6826122d6565b6145a8565b82525050565b60006145dd82846145ba565b60148201915081905092915050565b60006145f7826145a8565b9050919050565b61460f61460a826122f6565b6145ec565b82525050565b600061462182846145fe565b60148201915081905092915050565b600061463b82612cb4565b915061464683612cb4565b92508163ffffffff048311821515161561466357614662614308565b5b828202905092915050565b600061467982612cb4565b915061468483612cb4565b92508263ffffffff0382111561469d5761469c614308565b5b828201905092915050565b60006146b382612cb4565b915063ffffffff82036146c9576146c8614308565b5b600182019050919050565b60008160f01b9050919050565b60006146ec826146d4565b9050919050565b6147046146ff82612c7b565b6146e1565b82525050565b600061471682846146f3565b60028201915081905092915050565b6000819050919050565b61474061473b8261359f565b614725565b82525050565b6000614752828461472f565b60148201915081905092915050565b600061476d828a6142b3565b915061477982896142b3565b915061478582886142b3565b915061479182876142b3565b915061479d82866142b3565b91506147a982856142b3565b91506147b582846142b3565b915081905098975050505050505050565b60006147d282896142b3565b91506147de82886142b3565b91506147ea82876142b3565b91506147f682866142b3565b915061480282856142b3565b915061480e82846142b3565b9150819050979650505050505050565b60007fff0000000000000000000000000000000000000000000000000000000000000082169050919050565b6000819050919050565b6148656148608261481e565b61484a565b82525050565b6000614877828c6142b3565b9150614883828b6142b3565b915061488f828a6142b3565b915061489b82896142b3565b91506148a782886142b3565b91506148b382876142b3565b91506148bf82866142b3565b91506148cb82856142b3565b91506148d78284614854565b6001820191508190509a9950505050505050505050565b6148ff6148fa82613276565b614223565b82525050565b600061491182846148ee565b60018201915081905092915050565b600081905092915050565b6000614936826140fc565b6149408185614920565b93506149508185602086016120c7565b80840191505092915050565b6000614968828461492b565b915081905092915050565b600061497f82856142b3565b915061498b828461492b565b91508190509392505050565b60006149a2826144d8565b9050919050565b6149ba6149b5826126ef565b614997565b82525050565b60006149cc82846149a9565b60088201915081905092915050565b60006149e782856142b3565b91506149f38284614854565b6001820191508190509392505050565b6000819050919050565b614a1e614a1982612cf0565b614a03565b82525050565b6000614a308284614a0d565b60208201915081905092915050565b6000614a4b82866142b3565b9150614a5782856142b3565b9150614a6382846142b3565b9150819050949350505050565b6000614a7c82886142b3565b9150614a8882876142b3565b9150614a9482866142b3565b9150614aa082856142b3565b9150614aac82846142b3565b91508190509695505050505050565b60008160e01b9050919050565b6000614ad382614abb565b9050919050565b614aeb614ae682612cb4565b614ac8565b82525050565b6000614afd8284614ada565b60048201915081905092915050565b6000614b17826146d4565b9050919050565b614b2f614b2a8261249e565b614b0c565b82525050565b6000614b4182856148ee565b600182019150614b518284614b1e565b6002820191508190509392505050565b6000614b6d82856148ee565b600182019150614b7d8284614ada565b6004820191508190509392505050565b6000614b9982856148ee565b600182019150614ba982846144f7565b6008820191508190509392505050565b6000614bc58284614b1e565b60028201915081905092915050565b6000614bdf8261249e565b9150614bea8361249e565b92508261ffff03821115614c0157614c00614308565b5b828201905092915050565b6000819050919050565b614c27614c2282613240565b614c0c565b82525050565b6000614c398284614c16565b60208201915081905092915050565b6000614c5382613240565b9150614c5e83613240565b9250827fffffffffffffffffffffffffffffffffffffffffffffffffffffffffffffffff03821115614c9357614c92614308565b5b828201905092915050565b6000614ca982614abb565b9050919050565b614cc1614cbc826125f3565b614c9e565b82525050565b6000614cd38284614cb0565b6004820191508190509291505056fea2646970667358221220707d33b1fcc3a2fcc21c15f18d96a8746dcde70da3f66c75e85d47451d6e92d564736f6c634300080d0033",
  "immutableReferences": {},
  "source": "// SPDX-License-Identifier: MIT\n// Bridge between ethereum and verus\n\npragma solidity >=0.6.0 < 0.9.0;\npragma experimental ABIEncoderV2;   \nimport \"../Libraries/VerusObjects.sol\";\nimport \"../Libraries/VerusObjectsNotarization.sol\";\nimport \"../Libraries/VerusConstants.sol\";\n\ncontract VerusSerializer {\n\n    uint constant ETH_ADDRESS_SIZE_BYTES = 20;\n\n    function readVarUintLE(bytes memory incoming, uint32 offset) public pure returns(VerusObjectsCommon.UintReader memory) {\n        uint32 retVal = 0;\n        while (true)\n        {\n            uint8 oneByte;\n            assembly {\n                oneByte := mload(add(incoming, offset))\n            }\n            retVal += (uint32)(oneByte & 0x7f) << (offset * 7);\n            offset++;\n            if (oneByte <= 0x7f)\n            {\n                break;\n            }\n        }\n        return VerusObjectsCommon.UintReader(offset, retVal);\n    }\n\n    // uses the varint encoding from Bitcoin script pushes\n    // this does not support numbers larger than uint16, and if it encounters one or any invalid data, it returns a value of \n    // zero and the original offset\n    function readCompactSizeLE(bytes memory incoming, uint32 offset) public pure returns(VerusObjectsCommon.UintReader memory) {\n\n        uint8 oneByte;\n        assembly {\n            oneByte := mload(add(incoming, offset))\n        }\n        offset++;\n        if (oneByte < 253)\n        {\n            return VerusObjectsCommon.UintReader(offset, oneByte);\n        }\n        else if (oneByte == 253)\n        {\n            assembly {\n                oneByte := mload(add(incoming, offset))\n            }\n            uint16 twoByte = oneByte;\n            offset++;\n            assembly {\n                oneByte := mload(add(incoming, offset))\n            }\n            return VerusObjectsCommon.UintReader(offset + 1, (twoByte << 8) + oneByte);\n        }\n        return VerusObjectsCommon.UintReader(offset, 0);\n    }\n\n    function writeVarInt(uint256 incoming) public pure returns(bytes memory) {\n        bytes1 inProgress;\n        bytes memory output;\n        uint len = 0;\n        while(true){\n            inProgress = bytes1(uint8(incoming & 0x7f) | (len!=0 ? 0x80:0x00));\n            output = abi.encodePacked(output,inProgress);\n            if(incoming <= 0x7f) break;\n            incoming = (incoming >> 7) -1;\n            len++;\n        }\n        return flipArray(output);\n    }\n    \n    function writeCompactSize(uint newNumber) public pure returns(bytes memory) {\n        bytes memory output;\n        if (newNumber < uint8(253))\n        {   \n            output = abi.encodePacked(uint8(newNumber));\n        }\n        else if (newNumber <= 0xFFFF)\n        {   \n            output = abi.encodePacked(uint8(253),uint16(newNumber));\n        }\n        else if (newNumber <= 0xFFFFFFFF)\n        {   \n            output = abi.encodePacked(uint8(254),uint32(newNumber));\n        }\n        else\n        {\n            output = abi.encodePacked(uint8(255),uint64(newNumber));\n        }\n        return output;\n    }\n\n    \n    function verusHashPrefix(string memory prefix,address systemID,int64 blockHeight,address signingID, bytes memory messageToHash) public pure returns(bytes memory){\n        return abi.encodePacked(serializeString(prefix),serializeAddress(systemID),serializeInt64(blockHeight),serializeAddress(signingID),messageToHash);    \n    }\n    \n    //serialize functions\n\n    function serializeBool(bool anyBool) public pure returns(bytes memory){\n        return abi.encodePacked(anyBool);\n    }\n    \n    function serializeString(string memory anyString) public pure returns(bytes memory){\n        //naturally BigEndian\n        bytes memory be;\n        be = abi.encodePacked(anyString);\n        return abi.encodePacked(writeCompactSize(be.length),anyString);\n        //return abi.encodePacked(anyString);\n    }\n\n    function serializeBytes20(bytes20 anyBytes20) public pure returns(bytes memory){\n        //naturally BigEndian\n        return abi.encodePacked(anyBytes20);\n    }\n    function serializeBytes32(bytes32 anyBytes32) public pure returns(bytes memory){\n        //naturally BigEndian\n        return flipArray(abi.encodePacked(anyBytes32));\n    }\n\n    function serializeUint8(uint8 number) public pure returns(bytes memory){\n        bytes memory be = abi.encodePacked(number);\n        return(flipArray(be));\n    }\n    \n    function serializeUint16(uint16 number) public pure returns(bytes memory){\n        bytes memory be = abi.encodePacked(number);\n        return(flipArray(be));\n    }\n    \n    function serializeUint32(uint32 number) public pure returns(bytes memory){\n        bytes memory be = abi.encodePacked(number);\n        return(flipArray(be));\n    }\n\n    function serializeInt16(int16 number) public pure returns(bytes memory){\n        bytes memory be = abi.encodePacked(number);\n        return(flipArray(be));\n    }\n    \n    function serializeInt32(int32 number) public pure returns(bytes memory){\n        bytes memory be = abi.encodePacked(number);\n        return(flipArray(be));\n    }\n    \n    function serializeInt64(int64 number) public pure returns(bytes memory){\n        bytes memory be = abi.encodePacked(number);\n        return(flipArray(be));\n    }\n\n    function serializeInt32Array(int32[] memory numbers) public pure returns(bytes memory){\n        bytes memory be;\n        be = writeCompactSize((numbers.length));\n        for(uint i = 0;i < numbers.length; i++){\n            be = abi.encodePacked(be,serializeInt32(numbers[i]));\n        }\n        return be;\n    }\n\n    function serializeInt64Array(int64[] memory numbers) public pure returns(bytes memory){\n        bytes memory be;\n        be = writeCompactSize((numbers.length));\n        for(uint i = 0;i < numbers.length; i++){\n            be = abi.encodePacked(be,flipArray(abi.encodePacked(numbers[i])));\n        }\n        return be;\n    }\n\n    function serializeUint64(uint64 number) public pure returns(bytes memory){\n        bytes memory be = abi.encodePacked(number);\n        return(flipArray(be));\n    }\n\n    function serializeAddress(address number) public pure returns(bytes memory){\n        bytes memory be = abi.encodePacked(number);\n        return be;\n    }\n    \n    function serializeUint160Array(uint160[] memory numbers) public pure returns(bytes memory){\n        bytes memory be;\n        be = writeCompactSize((numbers.length));\n        for(uint i = 0;i < numbers.length; i++){\n            be = abi.encodePacked(be,abi.encodePacked(numbers[i]));\n        }\n        return(be);\n    }\n\n    function serializeUint256(uint256 number) public pure returns(bytes memory){\n        bytes memory be = abi.encodePacked(number);\n        return(flipArray(be));\n    }\n    \n    function serializeCTransferDestination(VerusObjectsCommon.CTransferDestination memory ctd) public pure returns(bytes memory){\n\n        uint256 destinationSize;\n\n        if ((ctd.destinationtype & VerusConstants.DEST_REGISTERCURRENCY) == VerusConstants.DEST_REGISTERCURRENCY) {\n\n            destinationSize = ctd.destinationaddress.length;\n\n        } else {\n\n            destinationSize = ETH_ADDRESS_SIZE_BYTES;\n        }\n\n        return abi.encodePacked(serializeUint8(ctd.destinationtype),writeCompactSize(destinationSize),ctd.destinationaddress);\n    }    \n\n    function serializeCCurrencyValueMap(VerusObjects.CCurrencyValueMap memory _ccvm) public pure returns(bytes memory){\n         return abi.encodePacked(serializeAddress(_ccvm.currency),serializeUint64(_ccvm.amount));\n    }\n    \n    function serializeCCurrencyValueMaps(VerusObjects.CCurrencyValueMap[] memory _ccvms) public pure returns(bytes memory){\n        bytes memory inProgress;\n        inProgress = writeVarInt(_ccvms.length);\n        for(uint i=0; i < _ccvms.length; i++){\n            inProgress = abi.encodePacked(inProgress,serializeCCurrencyValueMap(_ccvms[i]));\n        }\n        return inProgress;\n    }\n\n    function serializeCReserveTransfer(VerusObjects.CReserveTransfer memory ct) public pure returns(bytes memory){\n        \n        bytes memory output =  abi.encodePacked(\n            writeVarInt(ct.version),\n            abi.encodePacked(serializeAddress(ct.currencyvalue.currency),writeVarInt(ct.currencyvalue.amount)),//special interpretation of a ccurrencyvalue\n            writeVarInt(ct.flags),\n            serializeAddress(ct.feecurrencyid),\n            writeVarInt(ct.fees),\n            serializeCTransferDestination(ct.destination),\n            serializeAddress(ct.destcurrencyid)\n           );\n           \n        if((ct.flags & VerusConstants.RESERVE_TO_RESERVE )>0) output = abi.encodePacked(output,serializeAddress(ct.secondreserveid));           \n         //see if it has a cross_system flag\n        if((ct.flags & VerusConstants.CROSS_SYSTEM)>0) output = abi.encodePacked(output,serializeAddress(ct.destsystemid));\n        \n        return output;\n    }\n    \n    function serializeCReserveTransfers(VerusObjects.CReserveTransfer[] memory _bts, bool includeSize) public pure returns(bytes memory){\n        bytes memory inProgress;\n        \n        if (includeSize) inProgress = writeCompactSize(_bts.length);\n        \n        for(uint i=0; i < _bts.length; i++){\n            inProgress = abi.encodePacked(inProgress,serializeCReserveTransfer(_bts[i]));\n        }\n        return inProgress;\n    }\n\n    function serializeCUTXORef(VerusObjectsNotarization.CUTXORef memory _cutxo) public pure returns(bytes memory){\n        return abi.encodePacked(\n            serializeBytes32(_cutxo.hash),\n            serializeUint32(_cutxo.n)\n        );\n    }\n\n    function serializeCProofRoot(VerusObjectsNotarization.CProofRoot memory _cpr) public pure returns(bytes memory){\n        return abi.encodePacked(\n            serializeAddress(_cpr.systemid),\n            serializeInt16(_cpr.version),\n            serializeInt16(_cpr.cprtype),\n            serializeAddress(_cpr.systemid),\n            serializeUint32(_cpr.rootheight),\n            serializeBytes32(_cpr.stateroot),\n            serializeBytes32(_cpr.blockhash),\n            serializeBytes32(_cpr.compactpower)\n            );\n    }\n\n    function serializeProofRoots(VerusObjectsNotarization.ProofRoots memory _prs) public pure returns(bytes memory){\n        return abi.encodePacked(\n            serializeAddress(_prs.currencyid),\n            serializeCProofRoot(_prs.proofroot)\n        );  \n    }\n\n    function serializeProofRootsArray(VerusObjectsNotarization.ProofRoots[] memory _prsa) public pure returns(bytes memory){\n        bytes memory inProgress;\n        \n        inProgress = writeCompactSize(_prsa.length);\n        for(uint i=0; i < _prsa.length; i++){\n            inProgress = abi.encodePacked(inProgress,serializeProofRoots(_prsa[i]));\n        }\n        return inProgress;\n    }\n    \n    function serializeCProofRootArray(VerusObjectsNotarization.CProofRoot[] memory _prsa) public pure returns(bytes memory){\n        bytes memory inProgress;\n        \n        inProgress = writeCompactSize(_prsa.length);\n        for(uint i=0; i < _prsa.length; i++){\n            inProgress = abi.encodePacked(inProgress,serializeCProofRoot(_prsa[i]));\n        }\n        return inProgress;\n    }\n    \n\n    function serializeCCoinbaseCurrencyState(VerusObjectsNotarization.CCoinbaseCurrencyState memory _cccs) public pure returns(bytes memory){\n        bytes memory part1 = abi.encodePacked(\n            serializeUint16(_cccs.version),\n            serializeUint16(_cccs.flags),\n            serializeAddress(_cccs.currencyid),\n            serializeUint160Array(_cccs.currencies),\n            serializeInt32Array(_cccs.weights),\n            serializeInt64Array(_cccs.reserves),\n            writeVarInt(uint256(int256(_cccs.initialsupply))),\n            writeVarInt(uint256(int256(_cccs.emitted))),\n            writeVarInt(uint256(int256(_cccs.supply)))\n        );\n        bytes memory part2 = abi.encodePacked(\n            serializeInt64(_cccs.primarycurrencyout),\n            serializeInt64(_cccs.preconvertedout),\n            serializeInt64(_cccs.primarycurrencyfees),\n            serializeInt64(_cccs.primarycurrencyconversionfees),\n            serializeInt64Array(_cccs.reservein),\n            serializeInt64Array(_cccs.primarycurrencyin),\n            serializeInt64Array(_cccs.reserveout),\n            serializeInt64Array(_cccs.conversionprice),\n            serializeInt64Array(_cccs.viaconversionprice),\n            serializeInt64Array(_cccs.fees),\n            serializeInt32Array(_cccs.priorweights),\n            serializeInt64Array(_cccs.conversionfees)\n        );\n        \n        return abi.encodePacked(part1,part2);\n    }\n\n    function serializeCurrencyStates(VerusObjectsNotarization.CurrencyStates memory _cs) public pure returns(bytes memory){\n        return abi.encodePacked(\n            serializeAddress(_cs.currencyid),\n            serializeCCoinbaseCurrencyState(_cs.currencystate)\n        );\n    }\n\n    function serializeCurrencyStatesArray(VerusObjectsNotarization.CurrencyStates[] memory _csa) public pure returns(bytes memory){\n        bytes memory inProgress;\n        inProgress = writeCompactSize(_csa.length);\n        for(uint i=0; i < _csa.length; i++){\n            inProgress = abi.encodePacked(inProgress,serializeCurrencyStates(_csa[i]));\n        }\n        return inProgress;\n    }\n\n    function serializeCPBaaSNotarization(VerusObjectsNotarization.CPBaaSNotarization memory _not) public pure returns(bytes memory){\n        return abi.encodePacked(\n            writeVarInt(_not.version),\n            writeVarInt(_not.flags),\n            serializeCTransferDestination(_not.proposer),\n            serializeAddress(_not.currencyid),\n            serializeCCoinbaseCurrencyState(_not.currencystate),\n            serializeUint32(_not.notarizationheight),\n            serializeCUTXORef(_not.prevnotarization),\n            serializeBytes32(_not.hashprevnotarization),\n            serializeUint32(_not.prevheight),\n            serializeCurrencyStatesArray(_not.currencystates),\n            serializeCProofRootArray(_not.proofroots),\n            serializeNodes(_not.nodes)\n        );\n    }\n    \n    function serializeNodes(VerusObjectsNotarization.CNodeData[] memory _cnds) public pure returns(bytes memory){\n        bytes memory inProgress;\n        inProgress = writeCompactSize(_cnds.length);\n        for(uint i=0; i < _cnds.length; i++){\n            inProgress = abi.encodePacked(inProgress,serializeCNodeData(_cnds[i]));\n        }\n        return inProgress;\n    }\n\n    function serializeCNodeData(VerusObjectsNotarization.CNodeData memory _cnd) public pure returns(bytes memory){\n        \n        return abi.encodePacked(\n            serializeString(_cnd.networkaddress),\n            serializeAddress(_cnd.nodeidentity)\n        );\n    }\n\n    function serializeCCrossChainExport(VerusObjects.CCrossChainExport memory _ccce) public pure returns(bytes memory){\n        bytes memory part1 = abi.encodePacked(\n            serializeUint16(_ccce.version),\n            serializeUint16(_ccce.flags),\n            serializeAddress(_ccce.sourcesystemid),\n            flipArray(serializeBytes32(_ccce.hashtransfers)),\n            serializeAddress(_ccce.destinationsystemid),\n            serializeAddress(_ccce.destinationcurrencyid));\n        bytes memory part2 = abi.encodePacked(\n            writeVarInt(_ccce.sourceheightstart),\n            writeVarInt(_ccce.sourceheightend),\n            serializeUint32(_ccce.numinputs),\n            serializeCCurrencyValueMaps(_ccce.totalamounts),\n            serializeCCurrencyValueMaps(_ccce.totalfees),\n            serializeCCurrencyValueMaps(_ccce.totalburned),\n            serializeCTransferDestination(_ccce.rewardaddress),\n            serializeInt32(_ccce.firstinput),bytes1(0x00));\n        return abi.encodePacked(part1,part2);\n    }\n\n    function flipArray(bytes memory incoming) public pure returns(bytes memory){\n        uint256 len;\n        len = incoming.length;\n        bytes memory output = new bytes(len);\n        uint256 pos = 0;\n        while(pos < len){\n            output[pos] = incoming[len - pos - 1];\n            pos++;\n        }\n        return output;\n    }\n\n    function deSerializeCurrencyDefinition(bytes memory input)\n         public\n         pure\n         returns (\n             VerusObjects.CcurrencyDefinition memory ccurrencyDefinition\n         )\n    {\n        uint32 nextOffset;\n        uint8 nameStringLength;\n        address parent;\n        address launchSystemID;\n        address systemID;\n        address nativeCurrencyID;\n        uint32 CCC_PREFIX_TO_PARENT = 4 + 4 + 20;\n        uint32 CCC_ID_LEN = 20;\n        uint32 CCC_NATIVE_OFFSET = CCC_ID_LEN + 4 + 4;\n\n        nextOffset = CCC_PREFIX_TO_PARENT;\n\n        assembly {\n            parent := mload(add(input, nextOffset)) // this should be parent ID\n            nextOffset := add(nextOffset, 1) // and after that...\n            nameStringLength := mload(add(input, nextOffset)) // string length MAX 64 so will always be a byte\n        }\n\n        ccurrencyDefinition.parent = parent;\n\n        bytes memory name = new bytes(nameStringLength);\n\n        for (uint256 i = 0; i < nameStringLength; i++) {\n            name[i] = input[i + nextOffset];\n        }\n\n        ccurrencyDefinition.name = string(name);\n        nextOffset = nextOffset + nameStringLength + CCC_ID_LEN;\n\n        assembly {\n            launchSystemID := mload(add(input, nextOffset)) // this should be launchsysemID\n            nextOffset := add(nextOffset, CCC_ID_LEN)\n            systemID := mload(add(input, nextOffset)) // this should be systemID \n            nextOffset := add(nextOffset, CCC_NATIVE_OFFSET)\n            nativeCurrencyID := mload(add(input, nextOffset)) \n        }\n\n        ccurrencyDefinition.launchSystemID = launchSystemID;\n        ccurrencyDefinition.systemID = systemID;\n        ccurrencyDefinition.nativeCurrencyID = nativeCurrencyID;\n    }\n\n}",
  "sourcePath": "/home/chris/Verus-Ethereum-contracts/contracts/VerusBridge/VerusSerializer.sol",
  "compiler": {
    "name": "solc",
    "version": "0.8.13+commit.abaa5c0e.Emscripten.clang"
  },
  "schemaVersion": "3.4.4",
  "updatedAt": "2022-03-30T16:14:31.527Z",
  "devdoc": {
    "kind": "dev",
    "methods": {},
    "version": 1
  },
  "userdoc": {
    "kind": "user",
    "methods": {},
    "version": 1
  }
}