{
  "contractName": "VerusConstants",
  "abi": [
    {
      "inputs": [],
      "name": "EthSystemID",
      "outputs": [
        {
          "internalType": "address",
          "name": "",
          "type": "address"
        }
      ],
      "stateMutability": "view",
      "type": "function"
    },
    {
      "inputs": [],
      "name": "RewardAddress",
      "outputs": [
        {
          "internalType": "address",
          "name": "",
          "type": "address"
        }
      ],
      "stateMutability": "view",
      "type": "function"
    },
    {
      "inputs": [],
      "name": "RewardAddressType",
      "outputs": [
        {
          "internalType": "uint8",
          "name": "",
          "type": "uint8"
        }
      ],
      "stateMutability": "view",
      "type": "function"
    },
    {
      "inputs": [],
      "name": "VEth",
      "outputs": [
        {
          "internalType": "address",
          "name": "",
          "type": "address"
        }
      ],
      "stateMutability": "view",
      "type": "function"
    },
    {
      "inputs": [],
      "name": "VerusBridgeAddress",
      "outputs": [
        {
          "internalType": "address",
          "name": "",
          "type": "address"
        }
      ],
      "stateMutability": "view",
      "type": "function"
    },
    {
      "inputs": [],
      "name": "VerusCurrencyId",
      "outputs": [
        {
          "internalType": "address",
          "name": "",
          "type": "address"
        }
      ],
      "stateMutability": "view",
      "type": "function"
    },
    {
      "inputs": [],
      "name": "VerusSystemId",
      "outputs": [
        {
          "internalType": "address",
          "name": "",
          "type": "address"
        }
      ],
      "stateMutability": "view",
      "type": "function"
    },
    {
      "inputs": [],
      "name": "currencyName",
      "outputs": [
        {
          "internalType": "string",
          "name": "",
          "type": "string"
        }
      ],
      "stateMutability": "view",
      "type": "function"
    },
    {
      "inputs": [],
      "name": "transactionFee",
      "outputs": [
        {
          "internalType": "uint256",
          "name": "",
          "type": "uint256"
        }
      ],
      "stateMutability": "view",
      "type": "function"
    },
    {
      "inputs": [],
      "name": "verusTransactionFee",
      "outputs": [
        {
          "internalType": "uint256",
          "name": "",
          "type": "uint256"
        }
      ],
      "stateMutability": "view",
      "type": "function"
    }
  ],
  "bytecode": "0x61046f610026600b82828239805160001a60731461001957fe5b30600052607381538281f3fe73000000000000000000000000000000000000000030146080604052600436106100a75760003560e01c8063867011861161007057806386701186146101425780639ed3edf014610160578063b332d1e01461017e578063e39f448a1461019c578063e95a58ea146101ba576100a7565b80622d1b2c146100ac57806334ed5057146100ca5780633b77fa19146100e857806340b61d30146101065780636bbfff0014610124575b600080fd5b6100b46101d8565b6040516100c19190610375565b60405180910390f35b6100d26101dd565b6040516100df919061031d565b60405180910390f35b6100f06101f5565b6040516100fd919061031d565b60405180910390f35b61010e61020d565b60405161011b919061031d565b60405180910390f35b61012c610225565b604051610139919061031d565b60405180910390f35b61014a61023d565b6040516101579190610338565b60405180910390f35b610168610276565b604051610175919061035a565b60405180910390f35b610186610280565b604051610193919061031d565b60405180910390f35b6101a4610298565b6040516101b1919061031d565b60405180910390f35b6101c26102b0565b6040516101cf919061035a565b60405180910390f35b600481565b73a6ef9ea235635e328124ff3429db9f9e91b64e2d81565b73ffece948b8a38bbcc813411d2597f7f8485a068981565b7367460c2f56774ed27eeb8685f29f6cec0b090b0081565b73b26820ee0c9b1276aac834cf457026a575dfce8481565b6040518060400160405280600481526020017f564554480000000000000000000000000000000000000000000000000000000081525081565b655af3107a400081565b73a6ef9ea235635e328124ff3429db9f9e91b64e2d81565b7367460c2f56774ed27eeb8685f29f6cec0b090b0081565b621e848081565b6102c0816103ac565b82525050565b60006102d182610390565b6102db818561039b565b93506102eb8185602086016103f5565b6102f481610428565b840191505092915050565b610308816103de565b82525050565b610317816103e8565b82525050565b600060208201905061033260008301846102b7565b92915050565b6000602082019050818103600083015261035281846102c6565b905092915050565b600060208201905061036f60008301846102ff565b92915050565b600060208201905061038a600083018461030e565b92915050565b600081519050919050565b600082825260208201905092915050565b60006103b7826103be565b9050919050565b600073ffffffffffffffffffffffffffffffffffffffff82169050919050565b6000819050919050565b600060ff82169050919050565b60005b838110156104135780820151818401526020810190506103f8565b83811115610422576000848401525b50505050565b6000601f19601f830116905091905056fea2646970667358221220e090911e39176e3726932671778b482907185a366bd1fc374382472a5830b93c64736f6c63430007060033",
  "immutableReferences": {},
  "source": "// SPDX-License-Identifier: MIT\n// Bridge between ethereum and verus\n\npragma solidity >=0.6.0 < 0.9.0;\npragma experimental ABIEncoderV2;\n\nlibrary VerusConstants {\n    address constant public VEth = 0x67460C2f56774eD27EeB8685f29f6CEC0B090B00;\n    address constant public EthSystemID = VEth;\n    address constant public VerusSystemId = 0xA6ef9ea235635E328124Ff3429dB9F9E91b64e2d;\n    address constant public VerusCurrencyId = 0xA6ef9ea235635E328124Ff3429dB9F9E91b64e2d;\n    //does this need to be set \n    address constant public RewardAddress = 0xB26820ee0C9b1276Aac834Cf457026a575dfCe84;\n    address constant public VerusBridgeAddress = 0xffEce948b8A38bBcC813411D2597f7f8485a0689;\n    uint8 constant public RewardAddressType = 4;\n    uint256 constant public transactionFee = 100000000000000; //0.0001 eth\n    string constant public currencyName = \"VETH\";\n    uint256 constant public verusTransactionFee = 2000000; //0.02 verus\n}",
  "sourcePath": "/home/chris/Verus-Ethereum-contracts/contracts/Libraries/VerusConstants.sol",
  "compiler": {
    "name": "solc",
    "version": "0.7.6+commit.7338295f.Emscripten.clang"
  },
  "schemaVersion": "3.4.4",
  "updatedAt": "2022-02-20T11:37:49.188Z",
  "devdoc": {
    "kind": "dev",
    "methods": {},
    "version": 1
  },
  "userdoc": {
    "kind": "user",
    "methods": {},
    "version": 1
  }
}