{
  "contractName": "VerusSerializer",
  "abi": [
    {
      "inputs": [
        {
          "internalType": "uint256",
          "name": "incoming",
          "type": "uint256"
        }
      ],
      "name": "writeVarInt",
      "outputs": [
        {
          "internalType": "bytes",
          "name": "",
          "type": "bytes"
        }
      ],
      "stateMutability": "pure",
      "type": "function",
      "constant": true
    },
    {
      "inputs": [
        {
          "internalType": "uint256",
          "name": "newNumber",
          "type": "uint256"
        }
      ],
      "name": "writeCompactSize",
      "outputs": [
        {
          "internalType": "bytes",
          "name": "",
          "type": "bytes"
        }
      ],
      "stateMutability": "pure",
      "type": "function",
      "constant": true
    },
    {
      "inputs": [
        {
          "internalType": "string",
          "name": "prefix",
          "type": "string"
        },
        {
          "internalType": "address",
          "name": "systemID",
          "type": "address"
        },
        {
          "internalType": "int64",
          "name": "blockHeight",
          "type": "int64"
        },
        {
          "internalType": "address",
          "name": "signingID",
          "type": "address"
        },
        {
          "internalType": "bytes",
          "name": "messageToHash",
          "type": "bytes"
        }
      ],
      "name": "verusHashPrefix",
      "outputs": [
        {
          "internalType": "bytes",
          "name": "",
          "type": "bytes"
        }
      ],
      "stateMutability": "pure",
      "type": "function",
      "constant": true
    },
    {
      "inputs": [
        {
          "internalType": "bool",
          "name": "anyBool",
          "type": "bool"
        }
      ],
      "name": "serializeBool",
      "outputs": [
        {
          "internalType": "bytes",
          "name": "",
          "type": "bytes"
        }
      ],
      "stateMutability": "pure",
      "type": "function",
      "constant": true
    },
    {
      "inputs": [
        {
          "internalType": "string",
          "name": "anyString",
          "type": "string"
        }
      ],
      "name": "serializeString",
      "outputs": [
        {
          "internalType": "bytes",
          "name": "",
          "type": "bytes"
        }
      ],
      "stateMutability": "pure",
      "type": "function",
      "constant": true
    },
    {
      "inputs": [
        {
          "internalType": "bytes20",
          "name": "anyBytes20",
          "type": "bytes20"
        }
      ],
      "name": "serializeBytes20",
      "outputs": [
        {
          "internalType": "bytes",
          "name": "",
          "type": "bytes"
        }
      ],
      "stateMutability": "pure",
      "type": "function",
      "constant": true
    },
    {
      "inputs": [
        {
          "internalType": "bytes32",
          "name": "anyBytes32",
          "type": "bytes32"
        }
      ],
      "name": "serializeBytes32",
      "outputs": [
        {
          "internalType": "bytes",
          "name": "",
          "type": "bytes"
        }
      ],
      "stateMutability": "pure",
      "type": "function",
      "constant": true
    },
    {
      "inputs": [
        {
          "internalType": "uint8",
          "name": "number",
          "type": "uint8"
        }
      ],
      "name": "serializeUint8",
      "outputs": [
        {
          "internalType": "bytes",
          "name": "",
          "type": "bytes"
        }
      ],
      "stateMutability": "pure",
      "type": "function",
      "constant": true
    },
    {
      "inputs": [
        {
          "internalType": "uint16",
          "name": "number",
          "type": "uint16"
        }
      ],
      "name": "serializeUint16",
      "outputs": [
        {
          "internalType": "bytes",
          "name": "",
          "type": "bytes"
        }
      ],
      "stateMutability": "pure",
      "type": "function",
      "constant": true
    },
    {
      "inputs": [
        {
          "internalType": "uint32",
          "name": "number",
          "type": "uint32"
        }
      ],
      "name": "serializeUint32",
      "outputs": [
        {
          "internalType": "bytes",
          "name": "",
          "type": "bytes"
        }
      ],
      "stateMutability": "pure",
      "type": "function",
      "constant": true
    },
    {
      "inputs": [
        {
          "internalType": "int16",
          "name": "number",
          "type": "int16"
        }
      ],
      "name": "serializeInt16",
      "outputs": [
        {
          "internalType": "bytes",
          "name": "",
          "type": "bytes"
        }
      ],
      "stateMutability": "pure",
      "type": "function",
      "constant": true
    },
    {
      "inputs": [
        {
          "internalType": "int32",
          "name": "number",
          "type": "int32"
        }
      ],
      "name": "serializeInt32",
      "outputs": [
        {
          "internalType": "bytes",
          "name": "",
          "type": "bytes"
        }
      ],
      "stateMutability": "pure",
      "type": "function",
      "constant": true
    },
    {
      "inputs": [
        {
          "internalType": "int64",
          "name": "number",
          "type": "int64"
        }
      ],
      "name": "serializeInt64",
      "outputs": [
        {
          "internalType": "bytes",
          "name": "",
          "type": "bytes"
        }
      ],
      "stateMutability": "pure",
      "type": "function",
      "constant": true
    },
    {
      "inputs": [
        {
          "internalType": "int32[]",
          "name": "numbers",
          "type": "int32[]"
        }
      ],
      "name": "serializeInt32Array",
      "outputs": [
        {
          "internalType": "bytes",
          "name": "",
          "type": "bytes"
        }
      ],
      "stateMutability": "pure",
      "type": "function",
      "constant": true
    },
    {
      "inputs": [
        {
          "internalType": "int64[]",
          "name": "numbers",
          "type": "int64[]"
        }
      ],
      "name": "serializeInt64Array",
      "outputs": [
        {
          "internalType": "bytes",
          "name": "",
          "type": "bytes"
        }
      ],
      "stateMutability": "pure",
      "type": "function",
      "constant": true
    },
    {
      "inputs": [
        {
          "internalType": "uint64",
          "name": "number",
          "type": "uint64"
        }
      ],
      "name": "serializeUint64",
      "outputs": [
        {
          "internalType": "bytes",
          "name": "",
          "type": "bytes"
        }
      ],
      "stateMutability": "pure",
      "type": "function",
      "constant": true
    },
    {
      "inputs": [
        {
          "internalType": "address",
          "name": "number",
          "type": "address"
        }
      ],
      "name": "serializeAddress",
      "outputs": [
        {
          "internalType": "bytes",
          "name": "",
          "type": "bytes"
        }
      ],
      "stateMutability": "pure",
      "type": "function",
      "constant": true
    },
    {
      "inputs": [
        {
          "internalType": "uint160[]",
          "name": "numbers",
          "type": "uint160[]"
        }
      ],
      "name": "serializeUint160Array",
      "outputs": [
        {
          "internalType": "bytes",
          "name": "",
          "type": "bytes"
        }
      ],
      "stateMutability": "pure",
      "type": "function",
      "constant": true
    },
    {
      "inputs": [
        {
          "internalType": "uint256",
          "name": "number",
          "type": "uint256"
        }
      ],
      "name": "serializeUint256",
      "outputs": [
        {
          "internalType": "bytes",
          "name": "",
          "type": "bytes"
        }
      ],
      "stateMutability": "pure",
      "type": "function",
      "constant": true
    },
    {
      "inputs": [
        {
          "components": [
            {
              "internalType": "uint8",
              "name": "destinationtype",
              "type": "uint8"
            },
            {
              "internalType": "address",
              "name": "destinationaddress",
              "type": "address"
            }
          ],
          "internalType": "struct VerusObjectsCommon.CTransferDestination",
          "name": "ctd",
          "type": "tuple"
        }
      ],
      "name": "serializeCTransferDestination",
      "outputs": [
        {
          "internalType": "bytes",
          "name": "",
          "type": "bytes"
        }
      ],
      "stateMutability": "pure",
      "type": "function",
      "constant": true
    },
    {
      "inputs": [
        {
          "components": [
            {
              "internalType": "address",
              "name": "currency",
              "type": "address"
            },
            {
              "internalType": "uint64",
              "name": "amount",
              "type": "uint64"
            }
          ],
          "internalType": "struct VerusObjects.CCurrencyValueMap",
          "name": "_ccvm",
          "type": "tuple"
        }
      ],
      "name": "serializeCCurrencyValueMap",
      "outputs": [
        {
          "internalType": "bytes",
          "name": "",
          "type": "bytes"
        }
      ],
      "stateMutability": "pure",
      "type": "function",
      "constant": true
    },
    {
      "inputs": [
        {
          "components": [
            {
              "internalType": "address",
              "name": "currency",
              "type": "address"
            },
            {
              "internalType": "uint64",
              "name": "amount",
              "type": "uint64"
            }
          ],
          "internalType": "struct VerusObjects.CCurrencyValueMap[]",
          "name": "_ccvms",
          "type": "tuple[]"
        }
      ],
      "name": "serializeCCurrencyValueMaps",
      "outputs": [
        {
          "internalType": "bytes",
          "name": "",
          "type": "bytes"
        }
      ],
      "stateMutability": "pure",
      "type": "function",
      "constant": true
    },
    {
      "inputs": [
        {
          "components": [
            {
              "internalType": "uint32",
              "name": "version",
              "type": "uint32"
            },
            {
              "components": [
                {
                  "internalType": "address",
                  "name": "currency",
                  "type": "address"
                },
                {
                  "internalType": "uint64",
                  "name": "amount",
                  "type": "uint64"
                }
              ],
              "internalType": "struct VerusObjects.CCurrencyValueMap",
              "name": "currencyvalue",
              "type": "tuple"
            },
            {
              "internalType": "uint32",
              "name": "flags",
              "type": "uint32"
            },
            {
              "internalType": "address",
              "name": "feecurrencyid",
              "type": "address"
            },
            {
              "internalType": "uint256",
              "name": "fees",
              "type": "uint256"
            },
            {
              "components": [
                {
                  "internalType": "uint8",
                  "name": "destinationtype",
                  "type": "uint8"
                },
                {
                  "internalType": "address",
                  "name": "destinationaddress",
                  "type": "address"
                }
              ],
              "internalType": "struct VerusObjectsCommon.CTransferDestination",
              "name": "destination",
              "type": "tuple"
            },
            {
              "internalType": "address",
              "name": "destcurrencyid",
              "type": "address"
            },
            {
              "internalType": "address",
              "name": "destsystemid",
              "type": "address"
            },
            {
              "internalType": "address",
              "name": "secondreserveid",
              "type": "address"
            }
          ],
          "internalType": "struct VerusObjects.CReserveTransfer",
          "name": "ct",
          "type": "tuple"
        }
      ],
      "name": "serializeCReserveTransfer",
      "outputs": [
        {
          "internalType": "bytes",
          "name": "",
          "type": "bytes"
        }
      ],
      "stateMutability": "pure",
      "type": "function",
      "constant": true
    },
    {
      "inputs": [
        {
          "components": [
            {
              "internalType": "uint32",
              "name": "version",
              "type": "uint32"
            },
            {
              "components": [
                {
                  "internalType": "address",
                  "name": "currency",
                  "type": "address"
                },
                {
                  "internalType": "uint64",
                  "name": "amount",
                  "type": "uint64"
                }
              ],
              "internalType": "struct VerusObjects.CCurrencyValueMap",
              "name": "currencyvalue",
              "type": "tuple"
            },
            {
              "internalType": "uint32",
              "name": "flags",
              "type": "uint32"
            },
            {
              "internalType": "address",
              "name": "feecurrencyid",
              "type": "address"
            },
            {
              "internalType": "uint256",
              "name": "fees",
              "type": "uint256"
            },
            {
              "components": [
                {
                  "internalType": "uint8",
                  "name": "destinationtype",
                  "type": "uint8"
                },
                {
                  "internalType": "address",
                  "name": "destinationaddress",
                  "type": "address"
                }
              ],
              "internalType": "struct VerusObjectsCommon.CTransferDestination",
              "name": "destination",
              "type": "tuple"
            },
            {
              "internalType": "address",
              "name": "destcurrencyid",
              "type": "address"
            },
            {
              "internalType": "address",
              "name": "destsystemid",
              "type": "address"
            },
            {
              "internalType": "address",
              "name": "secondreserveid",
              "type": "address"
            }
          ],
          "internalType": "struct VerusObjects.CReserveTransfer[]",
          "name": "_bts",
          "type": "tuple[]"
        },
        {
          "internalType": "bool",
          "name": "includeSize",
          "type": "bool"
        }
      ],
      "name": "serializeCReserveTransfers",
      "outputs": [
        {
          "internalType": "bytes",
          "name": "",
          "type": "bytes"
        }
      ],
      "stateMutability": "pure",
      "type": "function",
      "constant": true
    },
    {
      "inputs": [
        {
          "components": [
            {
              "internalType": "bytes32",
              "name": "hash",
              "type": "bytes32"
            },
            {
              "internalType": "uint32",
              "name": "n",
              "type": "uint32"
            }
          ],
          "internalType": "struct VerusObjectsNotarization.CUTXORef",
          "name": "_cutxo",
          "type": "tuple"
        }
      ],
      "name": "serializeCUTXORef",
      "outputs": [
        {
          "internalType": "bytes",
          "name": "",
          "type": "bytes"
        }
      ],
      "stateMutability": "pure",
      "type": "function",
      "constant": true
    },
    {
      "inputs": [
        {
          "components": [
            {
              "internalType": "int16",
              "name": "version",
              "type": "int16"
            },
            {
              "internalType": "int16",
              "name": "cprtype",
              "type": "int16"
            },
            {
              "internalType": "address",
              "name": "systemid",
              "type": "address"
            },
            {
              "internalType": "uint32",
              "name": "rootheight",
              "type": "uint32"
            },
            {
              "internalType": "bytes32",
              "name": "stateroot",
              "type": "bytes32"
            },
            {
              "internalType": "bytes32",
              "name": "blockhash",
              "type": "bytes32"
            },
            {
              "internalType": "bytes32",
              "name": "compactpower",
              "type": "bytes32"
            }
          ],
          "internalType": "struct VerusObjectsNotarization.CProofRoot",
          "name": "_cpr",
          "type": "tuple"
        }
      ],
      "name": "serializeCProofRoot",
      "outputs": [
        {
          "internalType": "bytes",
          "name": "",
          "type": "bytes"
        }
      ],
      "stateMutability": "pure",
      "type": "function",
      "constant": true
    },
    {
      "inputs": [
        {
          "components": [
            {
              "internalType": "address",
              "name": "currencyid",
              "type": "address"
            },
            {
              "components": [
                {
                  "internalType": "int16",
                  "name": "version",
                  "type": "int16"
                },
                {
                  "internalType": "int16",
                  "name": "cprtype",
                  "type": "int16"
                },
                {
                  "internalType": "address",
                  "name": "systemid",
                  "type": "address"
                },
                {
                  "internalType": "uint32",
                  "name": "rootheight",
                  "type": "uint32"
                },
                {
                  "internalType": "bytes32",
                  "name": "stateroot",
                  "type": "bytes32"
                },
                {
                  "internalType": "bytes32",
                  "name": "blockhash",
                  "type": "bytes32"
                },
                {
                  "internalType": "bytes32",
                  "name": "compactpower",
                  "type": "bytes32"
                }
              ],
              "internalType": "struct VerusObjectsNotarization.CProofRoot",
              "name": "proofroot",
              "type": "tuple"
            }
          ],
          "internalType": "struct VerusObjectsNotarization.ProofRoots",
          "name": "_prs",
          "type": "tuple"
        }
      ],
      "name": "serializeProofRoots",
      "outputs": [
        {
          "internalType": "bytes",
          "name": "",
          "type": "bytes"
        }
      ],
      "stateMutability": "pure",
      "type": "function",
      "constant": true
    },
    {
      "inputs": [
        {
          "components": [
            {
              "internalType": "address",
              "name": "currencyid",
              "type": "address"
            },
            {
              "components": [
                {
                  "internalType": "int16",
                  "name": "version",
                  "type": "int16"
                },
                {
                  "internalType": "int16",
                  "name": "cprtype",
                  "type": "int16"
                },
                {
                  "internalType": "address",
                  "name": "systemid",
                  "type": "address"
                },
                {
                  "internalType": "uint32",
                  "name": "rootheight",
                  "type": "uint32"
                },
                {
                  "internalType": "bytes32",
                  "name": "stateroot",
                  "type": "bytes32"
                },
                {
                  "internalType": "bytes32",
                  "name": "blockhash",
                  "type": "bytes32"
                },
                {
                  "internalType": "bytes32",
                  "name": "compactpower",
                  "type": "bytes32"
                }
              ],
              "internalType": "struct VerusObjectsNotarization.CProofRoot",
              "name": "proofroot",
              "type": "tuple"
            }
          ],
          "internalType": "struct VerusObjectsNotarization.ProofRoots[]",
          "name": "_prsa",
          "type": "tuple[]"
        }
      ],
      "name": "serializeProofRootsArray",
      "outputs": [
        {
          "internalType": "bytes",
          "name": "",
          "type": "bytes"
        }
      ],
      "stateMutability": "pure",
      "type": "function",
      "constant": true
    },
    {
      "inputs": [
        {
          "components": [
            {
              "internalType": "int16",
              "name": "version",
              "type": "int16"
            },
            {
              "internalType": "int16",
              "name": "cprtype",
              "type": "int16"
            },
            {
              "internalType": "address",
              "name": "systemid",
              "type": "address"
            },
            {
              "internalType": "uint32",
              "name": "rootheight",
              "type": "uint32"
            },
            {
              "internalType": "bytes32",
              "name": "stateroot",
              "type": "bytes32"
            },
            {
              "internalType": "bytes32",
              "name": "blockhash",
              "type": "bytes32"
            },
            {
              "internalType": "bytes32",
              "name": "compactpower",
              "type": "bytes32"
            }
          ],
          "internalType": "struct VerusObjectsNotarization.CProofRoot[]",
          "name": "_prsa",
          "type": "tuple[]"
        }
      ],
      "name": "serializeCProofRootArray",
      "outputs": [
        {
          "internalType": "bytes",
          "name": "",
          "type": "bytes"
        }
      ],
      "stateMutability": "pure",
      "type": "function",
      "constant": true
    },
    {
      "inputs": [
        {
          "components": [
            {
              "internalType": "uint16",
              "name": "version",
              "type": "uint16"
            },
            {
              "internalType": "uint16",
              "name": "flags",
              "type": "uint16"
            },
            {
              "internalType": "address",
              "name": "currencyid",
              "type": "address"
            },
            {
              "internalType": "uint160[]",
              "name": "currencies",
              "type": "uint160[]"
            },
            {
              "internalType": "int32[]",
              "name": "weights",
              "type": "int32[]"
            },
            {
              "internalType": "int64[]",
              "name": "reserves",
              "type": "int64[]"
            },
            {
              "internalType": "int64",
              "name": "initialsupply",
              "type": "int64"
            },
            {
              "internalType": "int64",
              "name": "emitted",
              "type": "int64"
            },
            {
              "internalType": "int64",
              "name": "supply",
              "type": "int64"
            },
            {
              "internalType": "int64",
              "name": "primarycurrencyout",
              "type": "int64"
            },
            {
              "internalType": "int64",
              "name": "preconvertedout",
              "type": "int64"
            },
            {
              "internalType": "int64",
              "name": "primarycurrencyfees",
              "type": "int64"
            },
            {
              "internalType": "int64",
              "name": "primarycurrencyconversionfees",
              "type": "int64"
            },
            {
              "internalType": "int64[]",
              "name": "reservein",
              "type": "int64[]"
            },
            {
              "internalType": "int64[]",
              "name": "primarycurrencyin",
              "type": "int64[]"
            },
            {
              "internalType": "int64[]",
              "name": "reserveout",
              "type": "int64[]"
            },
            {
              "internalType": "int64[]",
              "name": "conversionprice",
              "type": "int64[]"
            },
            {
              "internalType": "int64[]",
              "name": "viaconversionprice",
              "type": "int64[]"
            },
            {
              "internalType": "int64[]",
              "name": "fees",
              "type": "int64[]"
            },
            {
              "internalType": "int32[]",
              "name": "priorweights",
              "type": "int32[]"
            },
            {
              "internalType": "int64[]",
              "name": "conversionfees",
              "type": "int64[]"
            }
          ],
          "internalType": "struct VerusObjectsNotarization.CCoinbaseCurrencyState",
          "name": "_cccs",
          "type": "tuple"
        }
      ],
      "name": "serializeCCoinbaseCurrencyState",
      "outputs": [
        {
          "internalType": "bytes",
          "name": "",
          "type": "bytes"
        }
      ],
      "stateMutability": "pure",
      "type": "function",
      "constant": true
    },
    {
      "inputs": [
        {
          "components": [
            {
              "internalType": "address",
              "name": "currencyid",
              "type": "address"
            },
            {
              "components": [
                {
                  "internalType": "uint16",
                  "name": "version",
                  "type": "uint16"
                },
                {
                  "internalType": "uint16",
                  "name": "flags",
                  "type": "uint16"
                },
                {
                  "internalType": "address",
                  "name": "currencyid",
                  "type": "address"
                },
                {
                  "internalType": "uint160[]",
                  "name": "currencies",
                  "type": "uint160[]"
                },
                {
                  "internalType": "int32[]",
                  "name": "weights",
                  "type": "int32[]"
                },
                {
                  "internalType": "int64[]",
                  "name": "reserves",
                  "type": "int64[]"
                },
                {
                  "internalType": "int64",
                  "name": "initialsupply",
                  "type": "int64"
                },
                {
                  "internalType": "int64",
                  "name": "emitted",
                  "type": "int64"
                },
                {
                  "internalType": "int64",
                  "name": "supply",
                  "type": "int64"
                },
                {
                  "internalType": "int64",
                  "name": "primarycurrencyout",
                  "type": "int64"
                },
                {
                  "internalType": "int64",
                  "name": "preconvertedout",
                  "type": "int64"
                },
                {
                  "internalType": "int64",
                  "name": "primarycurrencyfees",
                  "type": "int64"
                },
                {
                  "internalType": "int64",
                  "name": "primarycurrencyconversionfees",
                  "type": "int64"
                },
                {
                  "internalType": "int64[]",
                  "name": "reservein",
                  "type": "int64[]"
                },
                {
                  "internalType": "int64[]",
                  "name": "primarycurrencyin",
                  "type": "int64[]"
                },
                {
                  "internalType": "int64[]",
                  "name": "reserveout",
                  "type": "int64[]"
                },
                {
                  "internalType": "int64[]",
                  "name": "conversionprice",
                  "type": "int64[]"
                },
                {
                  "internalType": "int64[]",
                  "name": "viaconversionprice",
                  "type": "int64[]"
                },
                {
                  "internalType": "int64[]",
                  "name": "fees",
                  "type": "int64[]"
                },
                {
                  "internalType": "int32[]",
                  "name": "priorweights",
                  "type": "int32[]"
                },
                {
                  "internalType": "int64[]",
                  "name": "conversionfees",
                  "type": "int64[]"
                }
              ],
              "internalType": "struct VerusObjectsNotarization.CCoinbaseCurrencyState",
              "name": "currencystate",
              "type": "tuple"
            }
          ],
          "internalType": "struct VerusObjectsNotarization.CurrencyStates",
          "name": "_cs",
          "type": "tuple"
        }
      ],
      "name": "serializeCurrencyStates",
      "outputs": [
        {
          "internalType": "bytes",
          "name": "",
          "type": "bytes"
        }
      ],
      "stateMutability": "pure",
      "type": "function",
      "constant": true
    },
    {
      "inputs": [
        {
          "components": [
            {
              "internalType": "address",
              "name": "currencyid",
              "type": "address"
            },
            {
              "components": [
                {
                  "internalType": "uint16",
                  "name": "version",
                  "type": "uint16"
                },
                {
                  "internalType": "uint16",
                  "name": "flags",
                  "type": "uint16"
                },
                {
                  "internalType": "address",
                  "name": "currencyid",
                  "type": "address"
                },
                {
                  "internalType": "uint160[]",
                  "name": "currencies",
                  "type": "uint160[]"
                },
                {
                  "internalType": "int32[]",
                  "name": "weights",
                  "type": "int32[]"
                },
                {
                  "internalType": "int64[]",
                  "name": "reserves",
                  "type": "int64[]"
                },
                {
                  "internalType": "int64",
                  "name": "initialsupply",
                  "type": "int64"
                },
                {
                  "internalType": "int64",
                  "name": "emitted",
                  "type": "int64"
                },
                {
                  "internalType": "int64",
                  "name": "supply",
                  "type": "int64"
                },
                {
                  "internalType": "int64",
                  "name": "primarycurrencyout",
                  "type": "int64"
                },
                {
                  "internalType": "int64",
                  "name": "preconvertedout",
                  "type": "int64"
                },
                {
                  "internalType": "int64",
                  "name": "primarycurrencyfees",
                  "type": "int64"
                },
                {
                  "internalType": "int64",
                  "name": "primarycurrencyconversionfees",
                  "type": "int64"
                },
                {
                  "internalType": "int64[]",
                  "name": "reservein",
                  "type": "int64[]"
                },
                {
                  "internalType": "int64[]",
                  "name": "primarycurrencyin",
                  "type": "int64[]"
                },
                {
                  "internalType": "int64[]",
                  "name": "reserveout",
                  "type": "int64[]"
                },
                {
                  "internalType": "int64[]",
                  "name": "conversionprice",
                  "type": "int64[]"
                },
                {
                  "internalType": "int64[]",
                  "name": "viaconversionprice",
                  "type": "int64[]"
                },
                {
                  "internalType": "int64[]",
                  "name": "fees",
                  "type": "int64[]"
                },
                {
                  "internalType": "int32[]",
                  "name": "priorweights",
                  "type": "int32[]"
                },
                {
                  "internalType": "int64[]",
                  "name": "conversionfees",
                  "type": "int64[]"
                }
              ],
              "internalType": "struct VerusObjectsNotarization.CCoinbaseCurrencyState",
              "name": "currencystate",
              "type": "tuple"
            }
          ],
          "internalType": "struct VerusObjectsNotarization.CurrencyStates[]",
          "name": "_csa",
          "type": "tuple[]"
        }
      ],
      "name": "serializeCurrencyStatesArray",
      "outputs": [
        {
          "internalType": "bytes",
          "name": "",
          "type": "bytes"
        }
      ],
      "stateMutability": "pure",
      "type": "function",
      "constant": true
    },
    {
      "inputs": [
        {
          "components": [
            {
              "internalType": "uint32",
              "name": "version",
              "type": "uint32"
            },
            {
              "internalType": "uint32",
              "name": "flags",
              "type": "uint32"
            },
            {
              "components": [
                {
                  "internalType": "uint8",
                  "name": "destinationtype",
                  "type": "uint8"
                },
                {
                  "internalType": "address",
                  "name": "destinationaddress",
                  "type": "address"
                }
              ],
              "internalType": "struct VerusObjectsCommon.CTransferDestination",
              "name": "proposer",
              "type": "tuple"
            },
            {
              "internalType": "address",
              "name": "currencyid",
              "type": "address"
            },
            {
              "components": [
                {
                  "internalType": "uint16",
                  "name": "version",
                  "type": "uint16"
                },
                {
                  "internalType": "uint16",
                  "name": "flags",
                  "type": "uint16"
                },
                {
                  "internalType": "address",
                  "name": "currencyid",
                  "type": "address"
                },
                {
                  "internalType": "uint160[]",
                  "name": "currencies",
                  "type": "uint160[]"
                },
                {
                  "internalType": "int32[]",
                  "name": "weights",
                  "type": "int32[]"
                },
                {
                  "internalType": "int64[]",
                  "name": "reserves",
                  "type": "int64[]"
                },
                {
                  "internalType": "int64",
                  "name": "initialsupply",
                  "type": "int64"
                },
                {
                  "internalType": "int64",
                  "name": "emitted",
                  "type": "int64"
                },
                {
                  "internalType": "int64",
                  "name": "supply",
                  "type": "int64"
                },
                {
                  "internalType": "int64",
                  "name": "primarycurrencyout",
                  "type": "int64"
                },
                {
                  "internalType": "int64",
                  "name": "preconvertedout",
                  "type": "int64"
                },
                {
                  "internalType": "int64",
                  "name": "primarycurrencyfees",
                  "type": "int64"
                },
                {
                  "internalType": "int64",
                  "name": "primarycurrencyconversionfees",
                  "type": "int64"
                },
                {
                  "internalType": "int64[]",
                  "name": "reservein",
                  "type": "int64[]"
                },
                {
                  "internalType": "int64[]",
                  "name": "primarycurrencyin",
                  "type": "int64[]"
                },
                {
                  "internalType": "int64[]",
                  "name": "reserveout",
                  "type": "int64[]"
                },
                {
                  "internalType": "int64[]",
                  "name": "conversionprice",
                  "type": "int64[]"
                },
                {
                  "internalType": "int64[]",
                  "name": "viaconversionprice",
                  "type": "int64[]"
                },
                {
                  "internalType": "int64[]",
                  "name": "fees",
                  "type": "int64[]"
                },
                {
                  "internalType": "int32[]",
                  "name": "priorweights",
                  "type": "int32[]"
                },
                {
                  "internalType": "int64[]",
                  "name": "conversionfees",
                  "type": "int64[]"
                }
              ],
              "internalType": "struct VerusObjectsNotarization.CCoinbaseCurrencyState",
              "name": "currencystate",
              "type": "tuple"
            },
            {
              "internalType": "uint32",
              "name": "notarizationheight",
              "type": "uint32"
            },
            {
              "components": [
                {
                  "internalType": "bytes32",
                  "name": "hash",
                  "type": "bytes32"
                },
                {
                  "internalType": "uint32",
                  "name": "n",
                  "type": "uint32"
                }
              ],
              "internalType": "struct VerusObjectsNotarization.CUTXORef",
              "name": "prevnotarization",
              "type": "tuple"
            },
            {
              "internalType": "bytes32",
              "name": "hashprevnotarization",
              "type": "bytes32"
            },
            {
              "internalType": "uint32",
              "name": "prevheight",
              "type": "uint32"
            },
            {
              "components": [
                {
                  "internalType": "address",
                  "name": "currencyid",
                  "type": "address"
                },
                {
                  "components": [
                    {
                      "internalType": "uint16",
                      "name": "version",
                      "type": "uint16"
                    },
                    {
                      "internalType": "uint16",
                      "name": "flags",
                      "type": "uint16"
                    },
                    {
                      "internalType": "address",
                      "name": "currencyid",
                      "type": "address"
                    },
                    {
                      "internalType": "uint160[]",
                      "name": "currencies",
                      "type": "uint160[]"
                    },
                    {
                      "internalType": "int32[]",
                      "name": "weights",
                      "type": "int32[]"
                    },
                    {
                      "internalType": "int64[]",
                      "name": "reserves",
                      "type": "int64[]"
                    },
                    {
                      "internalType": "int64",
                      "name": "initialsupply",
                      "type": "int64"
                    },
                    {
                      "internalType": "int64",
                      "name": "emitted",
                      "type": "int64"
                    },
                    {
                      "internalType": "int64",
                      "name": "supply",
                      "type": "int64"
                    },
                    {
                      "internalType": "int64",
                      "name": "primarycurrencyout",
                      "type": "int64"
                    },
                    {
                      "internalType": "int64",
                      "name": "preconvertedout",
                      "type": "int64"
                    },
                    {
                      "internalType": "int64",
                      "name": "primarycurrencyfees",
                      "type": "int64"
                    },
                    {
                      "internalType": "int64",
                      "name": "primarycurrencyconversionfees",
                      "type": "int64"
                    },
                    {
                      "internalType": "int64[]",
                      "name": "reservein",
                      "type": "int64[]"
                    },
                    {
                      "internalType": "int64[]",
                      "name": "primarycurrencyin",
                      "type": "int64[]"
                    },
                    {
                      "internalType": "int64[]",
                      "name": "reserveout",
                      "type": "int64[]"
                    },
                    {
                      "internalType": "int64[]",
                      "name": "conversionprice",
                      "type": "int64[]"
                    },
                    {
                      "internalType": "int64[]",
                      "name": "viaconversionprice",
                      "type": "int64[]"
                    },
                    {
                      "internalType": "int64[]",
                      "name": "fees",
                      "type": "int64[]"
                    },
                    {
                      "internalType": "int32[]",
                      "name": "priorweights",
                      "type": "int32[]"
                    },
                    {
                      "internalType": "int64[]",
                      "name": "conversionfees",
                      "type": "int64[]"
                    }
                  ],
                  "internalType": "struct VerusObjectsNotarization.CCoinbaseCurrencyState",
                  "name": "currencystate",
                  "type": "tuple"
                }
              ],
              "internalType": "struct VerusObjectsNotarization.CurrencyStates[]",
              "name": "currencystates",
              "type": "tuple[]"
            },
            {
              "components": [
                {
                  "internalType": "int16",
                  "name": "version",
                  "type": "int16"
                },
                {
                  "internalType": "int16",
                  "name": "cprtype",
                  "type": "int16"
                },
                {
                  "internalType": "address",
                  "name": "systemid",
                  "type": "address"
                },
                {
                  "internalType": "uint32",
                  "name": "rootheight",
                  "type": "uint32"
                },
                {
                  "internalType": "bytes32",
                  "name": "stateroot",
                  "type": "bytes32"
                },
                {
                  "internalType": "bytes32",
                  "name": "blockhash",
                  "type": "bytes32"
                },
                {
                  "internalType": "bytes32",
                  "name": "compactpower",
                  "type": "bytes32"
                }
              ],
              "internalType": "struct VerusObjectsNotarization.CProofRoot[]",
              "name": "proofroots",
              "type": "tuple[]"
            },
            {
              "components": [
                {
                  "internalType": "string",
                  "name": "networkaddress",
                  "type": "string"
                },
                {
                  "internalType": "address",
                  "name": "nodeidentity",
                  "type": "address"
                }
              ],
              "internalType": "struct VerusObjectsNotarization.CNodeData[]",
              "name": "nodes",
              "type": "tuple[]"
            }
          ],
          "internalType": "struct VerusObjectsNotarization.CPBaaSNotarization",
          "name": "_not",
          "type": "tuple"
        }
      ],
      "name": "serializeCPBaaSNotarization",
      "outputs": [
        {
          "internalType": "bytes",
          "name": "",
          "type": "bytes"
        }
      ],
      "stateMutability": "pure",
      "type": "function",
      "constant": true
    },
    {
      "inputs": [
        {
          "components": [
            {
              "internalType": "string",
              "name": "networkaddress",
              "type": "string"
            },
            {
              "internalType": "address",
              "name": "nodeidentity",
              "type": "address"
            }
          ],
          "internalType": "struct VerusObjectsNotarization.CNodeData[]",
          "name": "_cnds",
          "type": "tuple[]"
        }
      ],
      "name": "serializeNodes",
      "outputs": [
        {
          "internalType": "bytes",
          "name": "",
          "type": "bytes"
        }
      ],
      "stateMutability": "pure",
      "type": "function",
      "constant": true
    },
    {
      "inputs": [
        {
          "components": [
            {
              "internalType": "string",
              "name": "networkaddress",
              "type": "string"
            },
            {
              "internalType": "address",
              "name": "nodeidentity",
              "type": "address"
            }
          ],
          "internalType": "struct VerusObjectsNotarization.CNodeData",
          "name": "_cnd",
          "type": "tuple"
        }
      ],
      "name": "serializeCNodeData",
      "outputs": [
        {
          "internalType": "bytes",
          "name": "",
          "type": "bytes"
        }
      ],
      "stateMutability": "pure",
      "type": "function",
      "constant": true
    },
    {
      "inputs": [
        {
          "components": [
            {
              "internalType": "uint16",
              "name": "version",
              "type": "uint16"
            },
            {
              "internalType": "uint16",
              "name": "flags",
              "type": "uint16"
            },
            {
              "internalType": "address",
              "name": "sourcesystemid",
              "type": "address"
            },
            {
              "internalType": "uint32",
              "name": "sourceheightstart",
              "type": "uint32"
            },
            {
              "internalType": "uint32",
              "name": "sourceheightend",
              "type": "uint32"
            },
            {
              "internalType": "address",
              "name": "destinationsystemid",
              "type": "address"
            },
            {
              "internalType": "address",
              "name": "destinationcurrencyid",
              "type": "address"
            },
            {
              "internalType": "uint32",
              "name": "numinputs",
              "type": "uint32"
            },
            {
              "components": [
                {
                  "internalType": "address",
                  "name": "currency",
                  "type": "address"
                },
                {
                  "internalType": "uint64",
                  "name": "amount",
                  "type": "uint64"
                }
              ],
              "internalType": "struct VerusObjects.CCurrencyValueMap[]",
              "name": "totalamounts",
              "type": "tuple[]"
            },
            {
              "components": [
                {
                  "internalType": "address",
                  "name": "currency",
                  "type": "address"
                },
                {
                  "internalType": "uint64",
                  "name": "amount",
                  "type": "uint64"
                }
              ],
              "internalType": "struct VerusObjects.CCurrencyValueMap[]",
              "name": "totalfees",
              "type": "tuple[]"
            },
            {
              "internalType": "bytes32",
              "name": "hashtransfers",
              "type": "bytes32"
            },
            {
              "components": [
                {
                  "internalType": "address",
                  "name": "currency",
                  "type": "address"
                },
                {
                  "internalType": "uint64",
                  "name": "amount",
                  "type": "uint64"
                }
              ],
              "internalType": "struct VerusObjects.CCurrencyValueMap[]",
              "name": "totalburned",
              "type": "tuple[]"
            },
            {
              "components": [
                {
                  "internalType": "uint8",
                  "name": "destinationtype",
                  "type": "uint8"
                },
                {
                  "internalType": "address",
                  "name": "destinationaddress",
                  "type": "address"
                }
              ],
              "internalType": "struct VerusObjectsCommon.CTransferDestination",
              "name": "rewardaddress",
              "type": "tuple"
            },
            {
              "internalType": "int32",
              "name": "firstinput",
              "type": "int32"
            }
          ],
          "internalType": "struct VerusObjects.CCrossChainExport",
          "name": "_ccce",
          "type": "tuple"
        }
      ],
      "name": "serializeCCrossChainExport",
      "outputs": [
        {
          "internalType": "bytes",
          "name": "",
          "type": "bytes"
        }
      ],
      "stateMutability": "pure",
      "type": "function",
      "constant": true
    },
    {
      "inputs": [
        {
          "internalType": "bytes",
          "name": "incoming",
          "type": "bytes"
        }
      ],
      "name": "flipArray",
      "outputs": [
        {
          "internalType": "bytes",
          "name": "",
          "type": "bytes"
        }
      ],
      "stateMutability": "pure",
      "type": "function",
      "constant": true
    }
  ],
  "bytecode": "0x608060405234801561001057600080fd5b50613fe3806100206000396000f3fe608060405234801561001057600080fd5b50600436106102265760003560e01c806368b4ae8111610130578063c93e58c8116100b8578063e06711111161007c578063e06711111461082b578063e4cba5471461085b578063f20fb8301461088b578063f8217295146108bb578063fef5906a146108eb57610226565b8063c93e58c81461073b578063cecb30431461076b578063cfa84de91461079b578063dad935a1146107cb578063df61a937146107fb57610226565b80639d487b47116100ff5780639d487b471461064b578063a412bb291461067b578063af832f09146106ab578063b3a895f6146106db578063b9f7f35a1461070b57610226565b806368b4ae811461058b5780637b92bd28146105bb578063892e2937146105eb578063941bb0601461061b57610226565b8063241d23b2116101b35780633b945374116101825780633b9453741461049b57806344c789d1146104cb57806346256007146104fb578063463276c31461052b5780636127b4ff1461055b57610226565b8063241d23b2146103db5780632a4edd701461040b57806333c45ab91461043b578063343bee601461046b57610226565b8063122e5ae7116101fa578063122e5ae7146102eb57806318c9bbfd1461031b57806319a7c17b1461034b5780631c3565321461037b578063200f6c2a146103ab57610226565b80629c81521461022b578063049e34901461025b5780630a803a861461028b5780631222d81a146102bb575b600080fd5b61024560048036038101906102409190612d26565b61091b565b6040516102529190613984565b60405180910390f35b61027560048036038101906102709190612b8d565b610944565b6040516102829190613984565b60405180910390f35b6102a560048036038101906102a09190612f45565b6109b5565b6040516102b29190613984565b60405180910390f35b6102d560048036038101906102d09190612da1565b610b62565b6040516102e29190613984565b60405180910390f35b610305600480360381019061030091906131fd565b610c33565b6040516103129190613984565b60405180910390f35b61033560048036038101906103309190613072565b610c6a565b6040516103429190613984565b60405180910390f35b61036560048036038101906103609190612ce5565b610d01565b6040516103729190613984565b60405180910390f35b610395600480360381019061039091906130ee565b610d89565b6040516103a29190613984565b60405180910390f35b6103c560048036038101906103c09190612c63565b610dcc565b6040516103d29190613984565b60405180910390f35b6103f560048036038101906103f09190612aa1565b610e3d565b6040516104029190613984565b60405180910390f35b61042560048036038101906104209190612c0f565b610e6c565b6040516104329190613984565b60405180910390f35b61045560048036038101906104509190613158565b610ee5565b6040516104629190613984565b60405180910390f35b61048560048036038101906104809190612f86565b610f28565b6040516104929190613984565b60405180910390f35b6104b560048036038101906104b0919061309b565b61107d565b6040516104c29190613984565b60405180910390f35b6104e560048036038101906104e09190612ff0565b6111e7565b6040516104f29190613984565b60405180910390f35b61051560048036038101906105109190612de2565b61122a565b6040516105229190613984565b60405180910390f35b61054560048036038101906105409190612d4f565b611261565b6040516105529190613984565b60405180910390f35b61057560048036038101906105709190613226565b61128a565b6040516105829190613984565b60405180910390f35b6105a560048036038101906105a09190612e5d565b6112c1565b6040516105b29190613984565b60405180910390f35b6105d560048036038101906105d09190612ca4565b611319565b6040516105e29190613984565b60405180910390f35b61060560048036038101906106009190613031565b61138a565b6040516106129190613984565b60405180910390f35b61063560048036038101906106309190612b4c565b611469565b6040516106429190613984565b60405180910390f35b61066560048036038101906106609190612aca565b6114da565b6040516106729190613984565b60405180910390f35b61069560048036038101906106909190612bce565b61154b565b6040516106a29190613984565b60405180910390f35b6106c560048036038101906106c09190612e34565b6115bc565b6040516106d29190613984565b60405180910390f35b6106f560048036038101906106f091906131ab565b6115f3565b6040516107029190613984565b60405180910390f35b61072560048036038101906107209190612d78565b61167b565b6040516107329190613984565b60405180910390f35b61075560048036038101906107509190612e9e565b6116ac565b6040516107629190613984565b60405180910390f35b610785600480360381019061078091906131d4565b611701565b6040516107929190613984565b60405180910390f35b6107b560048036038101906107b09190612fc7565b611738565b6040516107c29190613984565b60405180910390f35b6107e560048036038101906107e091906131ab565b61177b565b6040516107f29190613984565b60405180910390f35b610815600480360381019061081091906130c5565b61184a565b6040516108229190613984565b60405180910390f35b61084560048036038101906108409190613117565b611898565b6040516108529190613984565b60405180910390f35b61087560048036038101906108709190613182565b6118db565b6040516108829190613984565b60405180910390f35b6108a560048036038101906108a091906131ab565b611912565b6040516108b29190613984565b60405180910390f35b6108d560048036038101906108d09190612b0b565b611949565b6040516108e29190613984565b60405180910390f35b61090560048036038101906109009190612e0b565b6119d9565b6040516109129190613984565b60405180910390f35b60608160405160200161092e9190613447565b6040516020818303038152906040529050919050565b606080610951835161177b565b905060005b83518110156109ab578161097c85838151811061096f57fe5b60200260200101516111e7565b60405160200161098d9291906134c0565b60405160208183030381529060405291508080600101915050610956565b5080915050919050565b606060006109c683600001516118db565b6109d384602001516118db565b6109e08560400151610e3d565b6109ed8660600151610d01565b6109fa87608001516114da565b610a078860a00151611949565b610a178960c0015160070b6115f3565b610a278a60e0015160070b6115f3565b610a388b610100015160070b6115f3565b604051602001610a50999897969594939291906136ad565b60405160208183030381529060405290506000610a718461012001516115bc565b610a7f8561014001516115bc565b610a8d8661016001516115bc565b610a9b8761018001516115bc565b610aa9886101a00151611949565b610ab7896101c00151611949565b610ac58a6101e00151611949565b610ad38b6102000151611949565b610ae18c6102200151611949565b610aef8d6102400151611949565b610afd8e61026001516114da565b610b0b8f6102800151611949565b604051602001610b269c9b9a9998979695949392919061372c565b60405160208183030381529060405290508181604051602001610b4a9291906134c0565b60405160208183030381529060405292505050919050565b606060008251905060008167ffffffffffffffff81118015610b8357600080fd5b506040519080825280601f01601f191660200182016040528015610bb65781602001600182028036833780820191505090505b50905060005b82811015610c28578460018285030381518110610bd557fe5b602001015160f81c60f81b828281518110610bec57fe5b60200101907effffffffffffffffffffffffffffffffffffffffffffffffffffffffffffff1916908160001a9053508080600101915050610bbc565b819350505050919050565b6060600082604051602001610c4891906138ca565b6040516020818303038152906040529050610c6281610b62565b915050919050565b6060610c798260400151610e3d565b610c86836000015161122a565b610c93846020015161122a565b610ca08560400151610e3d565b610cad8660600151611701565b610cba876080015161167b565b610cc78860a0015161167b565b610cd48960c0015161167b565b604051602001610ceb98979695949392919061363b565b6040516020818303038152906040529050919050565b606080610d0e835161177b565b905060005b8351811015610d7f5781848281518110610d2957fe5b6020026020010151604051602001610d41919061385e565b604051602081830303815290604052604051602001610d619291906134c0565b60405160208183030381529060405291508080600101915050610d13565b5080915050919050565b6060610d98826000015161167b565b610da58360200151611701565b604051602001610db69291906134c0565b6040516020818303038152906040529050919050565b606080610dd9835161177b565b905060005b8351811015610e335781610e04858381518110610df757fe5b6020026020010151611898565b604051602001610e159291906134c0565b60405160208183030381529060405291508080600101915050610dde565b5080915050919050565b6060600082604051602001610e52919061342c565b604051602081830303815290604052905080915050919050565b6060808215610e8257610e7f845161177b565b90505b60005b8451811015610eda5781610eab868381518110610e9e57fe5b602002602001015161107d565b604051602001610ebc9291906134c0565b60405160208183030381529060405291508080600101915050610e85565b508091505092915050565b6060610ef48260000151610e3d565b610f018360200151610c6a565b604051602001610f129291906134c0565b6040516020818303038152906040529050919050565b60606000610f3983600001516118db565b610f4684602001516118db565b610f538560400151610e3d565b610f66866060015163ffffffff166115f3565b610f79876080015163ffffffff166115f3565b610f868860a00151610e3d565b610f938960c00151610e3d565b604051602001610fa99796959493929190613560565b60405160208183030381529060405290506000610fc98460e00151611701565b610fd7856101000151611469565b610fe5866101200151611469565b610ffb610ff688610140015161167b565b610b62565b611009886101600151611469565b61101789610180015161184a565b6110258a6101a001516119d9565b600060f81b6040516020016110419897969594939291906135c5565b604051602081830303815290604052905081816040516020016110659291906134c0565b60405160208183030381529060405292505050919050565b60606000611094836000015163ffffffff166115f3565b6110a5846020015160000151610e3d565b6110c085602001516020015167ffffffffffffffff166115f3565b6040516020016110d19291906134c0565b6040516020818303038152906040526110f3856040015163ffffffff166115f3565b6111008660600151610e3d565b61110d87608001516115f3565b61111a8860a0015161184a565b6111278960c00151610e3d565b60405160200161113d9796959493929190613560565b6040516020818303038152906040529050600061040084604001511663ffffffff1611156111975780611174846101000151610e3d565b6040516020016111859291906134c0565b60405160208183030381529060405290505b6000604084604001511663ffffffff1611156111de57806111bb8460e00151610e3d565b6040516020016111cc9291906134c0565b60405160208183030381529060405290505b80915050919050565b60606111f682600001516112c1565b6112038360200151610e3d565b6040516020016112149291906134c0565b6040516020818303038152906040529050919050565b606060008260405160200161123f91906137f6565b604051602081830303815290604052905061125981610b62565b915050919050565b6060816040516020016112749190613462565b6040516020818303038152906040529050919050565b606060008260405160200161129f91906138e5565b60405160208183030381529060405290506112b981610b62565b915050919050565b606080826040516020016112d59190613847565b60405160208183030381529060405290506112f0815161177b565b836040516020016113029291906137d2565b604051602081830303815290604052915050919050565b606080611326835161177b565b905060005b8351811015611380578161135185838151811061134457fe5b6020026020010151610ee5565b6040516020016113629291906134c0565b6040516020818303038152906040529150808060010191505061132b565b5080915050919050565b606061139f826000015163ffffffff166115f3565b6113b2836020015163ffffffff166115f3565b6113bf846040015161184a565b6113cc8560600151610e3d565b6113d986608001516109b5565b6113e68760a00151611701565b6113f38860c00151610d89565b6114008960e0015161167b565b61140e8a6101000151611701565b61141c8b6101200151610dcc565b61142a8c610140015161154b565b6114388d6101600151610944565b6040516020016114539c9b9a9998979695949392919061372c565b6040516020818303038152906040529050919050565b60608061147683516115f3565b905060005b83518110156114d057816114a185838151811061149457fe5b6020026020010151611738565b6040516020016114b29291906134c0565b6040516020818303038152906040529150808060010191505061147b565b5080915050919050565b6060806114e7835161177b565b905060005b8351811015611541578161151285838151811061150557fe5b60200260200101516119d9565b6040516020016115239291906134c0565b604051602081830303815290604052915080806001019150506114ec565b5080915050919050565b606080611558835161177b565b905060005b83518110156115b2578161158385838151811061157657fe5b6020026020010151610c6a565b6040516020016115949291906134c0565b6040516020818303038152906040529150808060010191505061155d565b5080915050919050565b60606000826040516020016115d1919061382c565b60405160208183030381529060405290506115eb81610b62565b915050919050565b60606000606060005b600115611668576000811415611613576000611616565b60805b607f86161760f81b92508183604051602001611633929190613498565b6040516020818303038152906040529150607f851161165157611668565b6001600786901c03945080806001019150506115fc565b61167182610b62565b9350505050919050565b60606116a582604051602001611691919061347d565b604051602081830303815290604052610b62565b9050919050565b60606116b7866112c1565b6116c086610e3d565b6116c9866115bc565b6116d286610e3d565b856040516020016116e7959493929190613515565b604051602081830303815290604052905095945050505050565b606060008260405160200161171691906138af565b604051602081830303815290604052905061173081610b62565b915050919050565b60606117478260000151610e3d565b6117548360200151610c33565b6040516020016117659291906134c0565b6040516020818303038152906040529050919050565b60608060fd60ff168310156117b1578260405160200161179b91906138e5565b6040516020818303038152906040529050611841565b61ffff83116117e45760fd836040516020016117ce929190613900565b6040516020818303038152906040529050611840565b63ffffffff83116118195760fe8360405160200161180392919061392c565b604051602081830303815290604052905061183f565b60ff8360405160200161182d929190613958565b60405160208183030381529060405290505b5b5b80915050919050565b6060611859826000015161128a565b611863601461177b565b6118708460200151610e3d565b604051602001611882939291906134e4565b6040516020818303038152906040529050919050565b60606118a78260000151610e3d565b6118b483602001516109b5565b6040516020016118c59291906134c0565b6040516020818303038152906040529050919050565b60606000826040516020016118f09190613879565b604051602081830303815290604052905061190a81610b62565b915050919050565b60606000826040516020016119279190613894565b604051602081830303815290604052905061194181610b62565b915050919050565b606080611956835161177b565b905060005b83518110156119cf57816119a085838151811061197457fe5b602002602001015160405160200161198c919061382c565b604051602081830303815290604052610b62565b6040516020016119b19291906134c0565b6040516020818303038152906040529150808060010191505061195b565b5080915050919050565b60606000826040516020016119ee9190613811565b6040516020818303038152906040529050611a0881610b62565b915050919050565b6000611a23611a1e846139d7565b6139a6565b90508083825260208201905082856020860282011115611a4257600080fd5b60005b85811015611a725781611a58888261204b565b845260208401935060208301925050600181019050611a45565b5050509392505050565b6000611a8f611a8a84613a03565b6139a6565b90508083825260208201905082856020860282011115611aae57600080fd5b60005b85811015611ade5781611ac48882612060565b845260208401935060208301925050600181019050611ab1565b5050509392505050565b6000611afb611af684613a2f565b6139a6565b90508083825260208201905082856040860282011115611b1a57600080fd5b60005b85811015611b4a5781611b30888261251d565b845260208401935060408301925050600181019050611b1d565b5050509392505050565b6000611b67611b6284613a5b565b6139a6565b9050808382526020820190508260005b85811015611ba75781358501611b8d8882612569565b845260208401935060208301925050600181019050611b77565b5050509392505050565b6000611bc4611bbf84613a87565b6139a6565b905080838252602082019050828560e0860282011115611be357600080fd5b60005b85811015611c135781611bf9888261274c565b845260208401935060e08301925050600181019050611be6565b5050509392505050565b6000611c30611c2b84613ab3565b6139a6565b9050808382526020820190508285610160860282011115611c5057600080fd5b60005b85811015611c815781611c6688826127fc565b84526020840193506101608301925050600181019050611c53565b5050509392505050565b6000611c9e611c9984613adf565b6139a6565b9050808382526020820190508260005b85811015611cde5781358501611cc48882612972565b845260208401935060208301925050600181019050611cae565b5050509392505050565b6000611cfb611cf684613b0b565b6139a6565b9050808382526020820190508285610100860282011115611d1b57600080fd5b60005b85811015611d4c5781611d3188826129d6565b84526020840193506101008301925050600181019050611d1e565b5050509392505050565b6000611d69611d6484613b37565b6139a6565b90508083825260208201905082856020860282011115611d8857600080fd5b60005b85811015611db85781611d9e8882612a38565b845260208401935060208301925050600181019050611d8b565b5050509392505050565b6000611dd5611dd084613b63565b6139a6565b905082815260208101848484011115611ded57600080fd5b611df8848285613d10565b509392505050565b6000611e13611e0e84613b93565b6139a6565b905082815260208101848484011115611e2b57600080fd5b611e36848285613d10565b509392505050565b600081359050611e4d81613e82565b92915050565b600082601f830112611e6457600080fd5b8135611e74848260208601611a10565b91505092915050565b600082601f830112611e8e57600080fd5b8135611e9e848260208601611a7c565b91505092915050565b600082601f830112611eb857600080fd5b8135611ec8848260208601611ae8565b91505092915050565b600082601f830112611ee257600080fd5b8135611ef2848260208601611b54565b91505092915050565b600082601f830112611f0c57600080fd5b8135611f1c848260208601611bb1565b91505092915050565b600082601f830112611f3657600080fd5b8135611f46848260208601611c1d565b91505092915050565b600082601f830112611f6057600080fd5b8135611f70848260208601611c8b565b91505092915050565b600082601f830112611f8a57600080fd5b8135611f9a848260208601611ce8565b91505092915050565b600082601f830112611fb457600080fd5b8135611fc4848260208601611d56565b91505092915050565b600081359050611fdc81613e99565b92915050565b600081359050611ff181613eb0565b92915050565b60008135905061200681613ec7565b92915050565b600082601f83011261201d57600080fd5b813561202d848260208601611dc2565b91505092915050565b60008135905061204581613ede565b92915050565b60008135905061205a81613ef5565b92915050565b60008135905061206f81613f0c565b92915050565b600082601f83011261208657600080fd5b8135612096848260208601611e00565b91505092915050565b60006102a082840312156120b257600080fd5b6120bd6102a06139a6565b905060006120cd84828501612a23565b60008301525060206120e184828501612a23565b60208301525060406120f584828501611e3e565b604083015250606082013567ffffffffffffffff81111561211557600080fd5b61212184828501611fa3565b606083015250608082013567ffffffffffffffff81111561214157600080fd5b61214d84828501611e53565b60808301525060a082013567ffffffffffffffff81111561216d57600080fd5b61217984828501611e7d565b60a08301525060c061218d84828501612060565b60c08301525060e06121a184828501612060565b60e0830152506101006121b684828501612060565b610100830152506101206121cc84828501612060565b610120830152506101406121e284828501612060565b610140830152506101606121f884828501612060565b6101608301525061018061220e84828501612060565b610180830152506101a082013567ffffffffffffffff81111561223057600080fd5b61223c84828501611e7d565b6101a0830152506101c082013567ffffffffffffffff81111561225e57600080fd5b61226a84828501611e7d565b6101c0830152506101e082013567ffffffffffffffff81111561228c57600080fd5b61229884828501611e7d565b6101e08301525061020082013567ffffffffffffffff8111156122ba57600080fd5b6122c684828501611e7d565b6102008301525061022082013567ffffffffffffffff8111156122e857600080fd5b6122f484828501611e7d565b6102208301525061024082013567ffffffffffffffff81111561231657600080fd5b61232284828501611e7d565b6102408301525061026082013567ffffffffffffffff81111561234457600080fd5b61235084828501611e53565b6102608301525061028082013567ffffffffffffffff81111561237257600080fd5b61237e84828501611e7d565b6102808301525092915050565b60006101e0828403121561239e57600080fd5b6123a96101c06139a6565b905060006123b984828501612a23565b60008301525060206123cd84828501612a23565b60208301525060406123e184828501611e3e565b60408301525060606123f584828501612a62565b606083015250608061240984828501612a62565b60808301525060a061241d84828501611e3e565b60a08301525060c061243184828501611e3e565b60c08301525060e061244584828501612a62565b60e08301525061010082013567ffffffffffffffff81111561246657600080fd5b61247284828501611ea7565b6101008301525061012082013567ffffffffffffffff81111561249457600080fd5b6124a084828501611ea7565b610120830152506101406124b684828501611ff7565b6101408301525061016082013567ffffffffffffffff8111156124d857600080fd5b6124e484828501611ea7565b610160830152506101806124fa848285016128da565b610180830152506101c06125108482850161204b565b6101a08301525092915050565b60006040828403121561252f57600080fd5b61253960406139a6565b9050600061254984828501611e3e565b600083015250602061255d84828501612a77565b60208301525092915050565b60006040828403121561257b57600080fd5b61258560406139a6565b9050600082013567ffffffffffffffff8111156125a157600080fd5b6125ad84828501612075565b60008301525060206125c184828501611e3e565b60208301525092915050565b60006101c082840312156125e057600080fd5b6125eb6101806139a6565b905060006125fb84828501612a62565b600083015250602061260f84828501612a62565b6020830152506040612623848285016128da565b604083015250608061263784828501611e3e565b60608301525060a082013567ffffffffffffffff81111561265757600080fd5b6126638482850161209f565b60808301525060c061267784828501612a62565b60a08301525060e061268b84828501612926565b60c0830152506101206126a084828501611ff7565b60e0830152506101406126b584828501612a62565b6101008301525061016082013567ffffffffffffffff8111156126d757600080fd5b6126e384828501611f4f565b6101208301525061018082013567ffffffffffffffff81111561270557600080fd5b61271184828501611efb565b610140830152506101a082013567ffffffffffffffff81111561273357600080fd5b61273f84828501611ed1565b6101608301525092915050565b600060e0828403121561275e57600080fd5b61276860e06139a6565b9050600061277884828501612036565b600083015250602061278c84828501612036565b60208301525060406127a084828501611e3e565b60408301525060606127b484828501612a62565b60608301525060806127c884828501611ff7565b60808301525060a06127dc84828501611ff7565b60a08301525060c06127f084828501611ff7565b60c08301525092915050565b6000610160828403121561280f57600080fd5b61281a6101206139a6565b9050600061282a84828501612a62565b600083015250602061283e8482850161251d565b602083015250606061285284828501612a62565b604083015250608061286684828501611e3e565b60608301525060a061287a84828501612a4d565b60808301525060c061288e848285016128da565b60a0830152506101006128a384828501611e3e565b60c0830152506101206128b884828501611e3e565b60e0830152506101406128cd84828501611e3e565b6101008301525092915050565b6000604082840312156128ec57600080fd5b6128f660406139a6565b9050600061290684828501612a8c565b600083015250602061291a84828501611e3e565b60208301525092915050565b60006040828403121561293857600080fd5b61294260406139a6565b9050600061295284828501611ff7565b600083015250602061296684828501612a62565b60208301525092915050565b60006040828403121561298457600080fd5b61298e60406139a6565b9050600061299e84828501611e3e565b600083015250602082013567ffffffffffffffff8111156129be57600080fd5b6129ca8482850161209f565b60208301525092915050565b600061010082840312156129e957600080fd5b6129f360406139a6565b90506000612a0384828501611e3e565b6000830152506020612a178482850161274c565b60208301525092915050565b600081359050612a3281613f23565b92915050565b600081359050612a4781613f3a565b92915050565b600081359050612a5c81613f51565b92915050565b600081359050612a7181613f68565b92915050565b600081359050612a8681613f7f565b92915050565b600081359050612a9b81613f96565b92915050565b600060208284031215612ab357600080fd5b6000612ac184828501611e3e565b91505092915050565b600060208284031215612adc57600080fd5b600082013567ffffffffffffffff811115612af657600080fd5b612b0284828501611e53565b91505092915050565b600060208284031215612b1d57600080fd5b600082013567ffffffffffffffff811115612b3757600080fd5b612b4384828501611e7d565b91505092915050565b600060208284031215612b5e57600080fd5b600082013567ffffffffffffffff811115612b7857600080fd5b612b8484828501611ea7565b91505092915050565b600060208284031215612b9f57600080fd5b600082013567ffffffffffffffff811115612bb957600080fd5b612bc584828501611ed1565b91505092915050565b600060208284031215612be057600080fd5b600082013567ffffffffffffffff811115612bfa57600080fd5b612c0684828501611efb565b91505092915050565b60008060408385031215612c2257600080fd5b600083013567ffffffffffffffff811115612c3c57600080fd5b612c4885828601611f25565b9250506020612c5985828601611fcd565b9150509250929050565b600060208284031215612c7557600080fd5b600082013567ffffffffffffffff811115612c8f57600080fd5b612c9b84828501611f4f565b91505092915050565b600060208284031215612cb657600080fd5b600082013567ffffffffffffffff811115612cd057600080fd5b612cdc84828501611f79565b91505092915050565b600060208284031215612cf757600080fd5b600082013567ffffffffffffffff811115612d1157600080fd5b612d1d84828501611fa3565b91505092915050565b600060208284031215612d3857600080fd5b6000612d4684828501611fcd565b91505092915050565b600060208284031215612d6157600080fd5b6000612d6f84828501611fe2565b91505092915050565b600060208284031215612d8a57600080fd5b6000612d9884828501611ff7565b91505092915050565b600060208284031215612db357600080fd5b600082013567ffffffffffffffff811115612dcd57600080fd5b612dd98482850161200c565b91505092915050565b600060208284031215612df457600080fd5b6000612e0284828501612036565b91505092915050565b600060208284031215612e1d57600080fd5b6000612e2b8482850161204b565b91505092915050565b600060208284031215612e4657600080fd5b6000612e5484828501612060565b91505092915050565b600060208284031215612e6f57600080fd5b600082013567ffffffffffffffff811115612e8957600080fd5b612e9584828501612075565b91505092915050565b600080600080600060a08688031215612eb657600080fd5b600086013567ffffffffffffffff811115612ed057600080fd5b612edc88828901612075565b9550506020612eed88828901611e3e565b9450506040612efe88828901612060565b9350506060612f0f88828901611e3e565b925050608086013567ffffffffffffffff811115612f2c57600080fd5b612f388882890161200c565b9150509295509295909350565b600060208284031215612f5757600080fd5b600082013567ffffffffffffffff811115612f7157600080fd5b612f7d8482850161209f565b91505092915050565b600060208284031215612f9857600080fd5b600082013567ffffffffffffffff811115612fb257600080fd5b612fbe8482850161238b565b91505092915050565b600060408284031215612fd957600080fd5b6000612fe78482850161251d565b91505092915050565b60006020828403121561300257600080fd5b600082013567ffffffffffffffff81111561301c57600080fd5b61302884828501612569565b91505092915050565b60006020828403121561304357600080fd5b600082013567ffffffffffffffff81111561305d57600080fd5b613069848285016125cd565b91505092915050565b600060e0828403121561308457600080fd5b60006130928482850161274c565b91505092915050565b600061016082840312156130ae57600080fd5b60006130bc848285016127fc565b91505092915050565b6000604082840312156130d757600080fd5b60006130e5848285016128da565b91505092915050565b60006040828403121561310057600080fd5b600061310e84828501612926565b91505092915050565b60006020828403121561312957600080fd5b600082013567ffffffffffffffff81111561314357600080fd5b61314f84828501612972565b91505092915050565b6000610100828403121561316b57600080fd5b6000613179848285016129d6565b91505092915050565b60006020828403121561319457600080fd5b60006131a284828501612a23565b91505092915050565b6000602082840312156131bd57600080fd5b60006131cb84828501612a4d565b91505092915050565b6000602082840312156131e657600080fd5b60006131f484828501612a62565b91505092915050565b60006020828403121561320f57600080fd5b600061321d84828501612a77565b91505092915050565b60006020828403121561323857600080fd5b600061324684828501612a8c565b91505092915050565b61326061325b82613c00565b613d52565b82525050565b61327761327282613c12565b613d64565b82525050565b61328e61328982613c1e565b613d76565b82525050565b6132a56132a082613c4a565b613d80565b82525050565b6132bc6132b782613c76565b613d8a565b82525050565b60006132cd82613bc3565b6132d78185613bd9565b93506132e7818560208601613d1f565b6132f081613e30565b840191505092915050565b600061330682613bc3565b6133108185613bea565b9350613320818560208601613d1f565b80840191505092915050565b61333d61333882613c80565b613d94565b82525050565b61335461334f82613c8d565b613da6565b82525050565b61336b61336682613c9a565b613db8565b82525050565b600061337c82613bce565b6133868185613bf5565b9350613396818560208601613d1f565b80840191505092915050565b6133b36133ae82613cb5565b613ddc565b82525050565b6133ca6133c582613ca7565b613dca565b82525050565b6133e16133dc82613cd5565b613dee565b82525050565b6133f86133f382613cdf565b613df8565b82525050565b61340f61340a82613cef565b613e0a565b82525050565b61342661342182613d03565b613e1c565b82525050565b6000613438828461324f565b60148201915081905092915050565b60006134538284613266565b60018201915081905092915050565b600061346e8284613294565b60148201915081905092915050565b600061348982846132ab565b60208201915081905092915050565b60006134a482856132fb565b91506134b0828461327d565b6001820191508190509392505050565b60006134cc82856132fb565b91506134d882846132fb565b91508190509392505050565b60006134f082866132fb565b91506134fc82856132fb565b915061350882846132fb565b9150819050949350505050565b600061352182886132fb565b915061352d82876132fb565b915061353982866132fb565b915061354582856132fb565b915061355182846132fb565b91508190509695505050505050565b600061356c828a6132fb565b915061357882896132fb565b915061358482886132fb565b915061359082876132fb565b915061359c82866132fb565b91506135a882856132fb565b91506135b482846132fb565b915081905098975050505050505050565b60006135d1828b6132fb565b91506135dd828a6132fb565b91506135e982896132fb565b91506135f582886132fb565b915061360182876132fb565b915061360d82866132fb565b915061361982856132fb565b9150613625828461327d565b6001820191508190509998505050505050505050565b6000613647828b6132fb565b9150613653828a6132fb565b915061365f82896132fb565b915061366b82886132fb565b915061367782876132fb565b915061368382866132fb565b915061368f82856132fb565b915061369b82846132fb565b91508190509998505050505050505050565b60006136b9828c6132fb565b91506136c5828b6132fb565b91506136d1828a6132fb565b91506136dd82896132fb565b91506136e982886132fb565b91506136f582876132fb565b915061370182866132fb565b915061370d82856132fb565b915061371982846132fb565b91508190509a9950505050505050505050565b6000613738828f6132fb565b9150613744828e6132fb565b9150613750828d6132fb565b915061375c828c6132fb565b9150613768828b6132fb565b9150613774828a6132fb565b915061378082896132fb565b915061378c82886132fb565b915061379882876132fb565b91506137a482866132fb565b91506137b082856132fb565b91506137bc82846132fb565b91508190509d9c50505050505050505050505050565b60006137de82856132fb565b91506137ea8284613371565b91508190509392505050565b6000613802828461332c565b60028201915081905092915050565b600061381d8284613343565b60048201915081905092915050565b6000613838828461335a565b60088201915081905092915050565b60006138538284613371565b915081905092915050565b600061386a82846133a2565b60148201915081905092915050565b600061388582846133b9565b60028201915081905092915050565b60006138a082846133d0565b60208201915081905092915050565b60006138bb82846133e7565b60048201915081905092915050565b60006138d682846133fe565b60088201915081905092915050565b60006138f18284613415565b60018201915081905092915050565b600061390c8285613415565b60018201915061391c82846133b9565b6002820191508190509392505050565b60006139388285613415565b60018201915061394882846133e7565b6004820191508190509392505050565b60006139648285613415565b60018201915061397482846133fe565b6008820191508190509392505050565b6000602082019050818103600083015261399e81846132c2565b905092915050565b6000604051905081810181811067ffffffffffffffff821117156139cd576139cc613e2e565b5b8060405250919050565b600067ffffffffffffffff8211156139f2576139f1613e2e565b5b602082029050602081019050919050565b600067ffffffffffffffff821115613a1e57613a1d613e2e565b5b602082029050602081019050919050565b600067ffffffffffffffff821115613a4a57613a49613e2e565b5b602082029050602081019050919050565b600067ffffffffffffffff821115613a7657613a75613e2e565b5b602082029050602081019050919050565b600067ffffffffffffffff821115613aa257613aa1613e2e565b5b602082029050602081019050919050565b600067ffffffffffffffff821115613ace57613acd613e2e565b5b602082029050602081019050919050565b600067ffffffffffffffff821115613afa57613af9613e2e565b5b602082029050602081019050919050565b600067ffffffffffffffff821115613b2657613b25613e2e565b5b602082029050602081019050919050565b600067ffffffffffffffff821115613b5257613b51613e2e565b5b602082029050602081019050919050565b600067ffffffffffffffff821115613b7e57613b7d613e2e565b5b601f19601f8301169050602081019050919050565b600067ffffffffffffffff821115613bae57613bad613e2e565b5b601f19601f8301169050602081019050919050565b600081519050919050565b600081519050919050565b600082825260208201905092915050565b600081905092915050565b600081905092915050565b6000613c0b82613cb5565b9050919050565b60008115159050919050565b60007fff0000000000000000000000000000000000000000000000000000000000000082169050919050565b60007fffffffffffffffffffffffffffffffffffffffff00000000000000000000000082169050919050565b6000819050919050565b60008160010b9050919050565b60008160030b9050919050565b60008160070b9050919050565b600061ffff82169050919050565b600073ffffffffffffffffffffffffffffffffffffffff82169050919050565b6000819050919050565b600063ffffffff82169050919050565b600067ffffffffffffffff82169050919050565b600060ff82169050919050565b82818337600083830152505050565b60005b83811015613d3d578082015181840152602081019050613d22565b83811115613d4c576000848401525b50505050565b6000613d5d82613ddc565b9050919050565b6000613d6f82613e1c565b9050919050565b6000819050919050565b6000819050919050565b6000819050919050565b6000613d9f82613e5b565b9050919050565b6000613db182613e4e565b9050919050565b6000613dc382613e41565b9050919050565b6000613dd582613e5b565b9050919050565b6000613de782613e75565b9050919050565b6000819050919050565b6000613e0382613e4e565b9050919050565b6000613e1582613e41565b9050919050565b6000613e2782613e68565b9050919050565bfe5b6000601f19601f8301169050919050565b60008160c01b9050919050565b60008160e01b9050919050565b60008160f01b9050919050565b60008160f81b9050919050565b60008160601b9050919050565b613e8b81613c00565b8114613e9657600080fd5b50565b613ea281613c12565b8114613ead57600080fd5b50565b613eb981613c4a565b8114613ec457600080fd5b50565b613ed081613c76565b8114613edb57600080fd5b50565b613ee781613c80565b8114613ef257600080fd5b50565b613efe81613c8d565b8114613f0957600080fd5b50565b613f1581613c9a565b8114613f2057600080fd5b50565b613f2c81613ca7565b8114613f3757600080fd5b50565b613f4381613cb5565b8114613f4e57600080fd5b50565b613f5a81613cd5565b8114613f6557600080fd5b50565b613f7181613cdf565b8114613f7c57600080fd5b50565b613f8881613cef565b8114613f9357600080fd5b50565b613f9f81613d03565b8114613faa57600080fd5b5056fea26469706673582212205b89d6438f1e4d16f51f1a879f6c4ea869247b6e758230f0776150f03e1b593164736f6c63430007060033",
  "immutableReferences": {},
  "source": "// SPDX-License-Identifier: MIT\r\n// Bridge between ethereum and verus\r\n\r\npragma solidity >=0.6.0 < 0.9.0;\r\npragma experimental ABIEncoderV2;   \r\nimport \"../Libraries/VerusObjects.sol\";\r\nimport \"../Libraries/VerusObjectsNotarization.sol\";\r\n\r\ncontract VerusSerializer {\r\n\r\n    //hashing functions\r\n\r\n    function writeVarInt(uint256 incoming) public pure returns(bytes memory) {\r\n        bytes1 inProgress;\r\n        bytes memory output;\r\n        uint len = 0;\r\n        while(true){\r\n            inProgress = bytes1(uint8(incoming & 0x7f) | (len!=0 ? 0x80:0x00));\r\n            output = abi.encodePacked(output,inProgress);\r\n            if(incoming <= 0x7f) break;\r\n            incoming = (incoming >> 7) -1;\r\n            len++;\r\n        }\r\n        return flipArray(output);\r\n    }\r\n    \r\n    function writeCompactSize(uint newNumber) public pure returns(bytes memory) {\r\n        bytes memory output;\r\n        if (newNumber < uint8(253))\r\n        {   \r\n            output = abi.encodePacked(uint8(newNumber));\r\n        }\r\n        else if (newNumber <= 0xFFFF)\r\n        {   \r\n            output = abi.encodePacked(uint8(253),uint16(newNumber));\r\n        }\r\n        else if (newNumber <= 0xFFFFFFFF)\r\n        {   \r\n            output = abi.encodePacked(uint8(254),uint32(newNumber));\r\n        }\r\n        else\r\n        {\r\n            output = abi.encodePacked(uint8(255),uint64(newNumber));\r\n        }\r\n        return output;\r\n    }\r\n\r\n    \r\n    function verusHashPrefix(string memory prefix,address systemID,int64 blockHeight,address signingID, bytes memory messageToHash) public pure returns(bytes memory){\r\n        return abi.encodePacked(serializeString(prefix),serializeAddress(systemID),serializeInt64(blockHeight),serializeAddress(signingID),messageToHash);    \r\n    }\r\n    \r\n    //serialize functions\r\n\r\n    function serializeBool(bool anyBool) public pure returns(bytes memory){\r\n        return abi.encodePacked(anyBool);\r\n    }\r\n    \r\n    function serializeString(string memory anyString) public pure returns(bytes memory){\r\n        //naturally BigEndian\r\n        bytes memory be;\r\n        be = abi.encodePacked(anyString);\r\n        return abi.encodePacked(writeCompactSize(be.length),anyString);\r\n        //return abi.encodePacked(anyString);\r\n    }\r\n\r\n    function serializeBytes20(bytes20 anyBytes20) public pure returns(bytes memory){\r\n        //naturally BigEndian\r\n        return abi.encodePacked(anyBytes20);\r\n    }\r\n    function serializeBytes32(bytes32 anyBytes32) public pure returns(bytes memory){\r\n        //naturally BigEndian\r\n        return flipArray(abi.encodePacked(anyBytes32));\r\n    }\r\n\r\n    function serializeUint8(uint8 number) public pure returns(bytes memory){\r\n        bytes memory be = abi.encodePacked(number);\r\n        return(flipArray(be));\r\n    }\r\n    \r\n    function serializeUint16(uint16 number) public pure returns(bytes memory){\r\n        bytes memory be = abi.encodePacked(number);\r\n        return(flipArray(be));\r\n    }\r\n    \r\n    function serializeUint32(uint32 number) public pure returns(bytes memory){\r\n        bytes memory be = abi.encodePacked(number);\r\n        return(flipArray(be));\r\n    }\r\n\r\n    function serializeInt16(int16 number) public pure returns(bytes memory){\r\n        bytes memory be = abi.encodePacked(number);\r\n        return(flipArray(be));\r\n    }\r\n    \r\n    function serializeInt32(int32 number) public pure returns(bytes memory){\r\n        bytes memory be = abi.encodePacked(number);\r\n        return(flipArray(be));\r\n    }\r\n    \r\n    function serializeInt64(int64 number) public pure returns(bytes memory){\r\n        bytes memory be = abi.encodePacked(number);\r\n        return(flipArray(be));\r\n    }\r\n\r\n    function serializeInt32Array(int32[] memory numbers) public pure returns(bytes memory){\r\n        bytes memory be;\r\n        be = writeCompactSize((numbers.length));\r\n        for(uint i = 0;i < numbers.length; i++){\r\n            be = abi.encodePacked(be,serializeInt32(numbers[i]));\r\n        }\r\n        return be;\r\n    }\r\n\r\n    function serializeInt64Array(int64[] memory numbers) public pure returns(bytes memory){\r\n        bytes memory be;\r\n        be = writeCompactSize((numbers.length));\r\n        for(uint i = 0;i < numbers.length; i++){\r\n            be = abi.encodePacked(be,flipArray(abi.encodePacked(numbers[i])));\r\n        }\r\n        return be;\r\n    }\r\n\r\n    function serializeUint64(uint64 number) public pure returns(bytes memory){\r\n        bytes memory be = abi.encodePacked(number);\r\n        return(flipArray(be));\r\n    }\r\n\r\n    function serializeAddress(address number) public pure returns(bytes memory){\r\n        bytes memory be = abi.encodePacked(number);\r\n        return be;\r\n        \r\n    }\r\n    \r\n    function serializeUint160Array(uint160[] memory numbers) public pure returns(bytes memory){\r\n        bytes memory be;\r\n        be = writeCompactSize((numbers.length));\r\n        for(uint i = 0;i < numbers.length; i++){\r\n            be = abi.encodePacked(be,abi.encodePacked(numbers[i]));\r\n        }\r\n        return(be);\r\n    }\r\n\r\n\r\n    function serializeUint256(uint256 number) public pure returns(bytes memory){\r\n        bytes memory be = abi.encodePacked(number);\r\n        return(flipArray(be));\r\n    }\r\n    \r\n    function serializeCTransferDestination(VerusObjectsCommon.CTransferDestination memory ctd) public pure returns(bytes memory){\r\n        return abi.encodePacked(serializeUint8(ctd.destinationtype),writeCompactSize(20),serializeAddress(ctd.destinationaddress));\r\n    }   \r\n\r\n    function serializeCCurrencyValueMap(VerusObjects.CCurrencyValueMap memory _ccvm) public pure returns(bytes memory){\r\n         return abi.encodePacked(serializeAddress(_ccvm.currency),serializeUint64(_ccvm.amount));\r\n    }\r\n    \r\n    function serializeCCurrencyValueMaps(VerusObjects.CCurrencyValueMap[] memory _ccvms) public pure returns(bytes memory){\r\n        bytes memory inProgress;\r\n        inProgress = writeVarInt(_ccvms.length);\r\n        for(uint i=0; i < _ccvms.length; i++){\r\n            inProgress = abi.encodePacked(inProgress,serializeCCurrencyValueMap(_ccvms[i]));\r\n        }\r\n        return inProgress;\r\n    }\r\n\r\n    function serializeCReserveTransfer(VerusObjects.CReserveTransfer memory ct) public pure returns(bytes memory){\r\n        \r\n        bytes memory output =  abi.encodePacked(\r\n            writeVarInt(ct.version),\r\n            abi.encodePacked(serializeAddress(ct.currencyvalue.currency),writeVarInt(ct.currencyvalue.amount)),//special interpretation of a ccurrencyvalue\r\n            writeVarInt(ct.flags),\r\n            serializeAddress(ct.feecurrencyid),\r\n            writeVarInt(ct.fees),\r\n            serializeCTransferDestination(ct.destination),\r\n            serializeAddress(ct.destcurrencyid)\r\n           );\r\n           \r\n        if((ct.flags & 0x400)>0) output = abi.encodePacked(output,serializeAddress(ct.secondreserveid));           \r\n         //see if its got a cross_system flag\r\n        if((ct.flags & 0x40)>0) output = abi.encodePacked(output,serializeAddress(ct.destsystemid));\r\n        \r\n        return output;\r\n    }\r\n    \r\n    function serializeCReserveTransfers(VerusObjects.CReserveTransfer[] memory _bts,bool includeSize) public pure returns(bytes memory){\r\n        bytes memory inProgress;\r\n        \r\n        if(includeSize) inProgress =writeCompactSize(_bts.length);\r\n        \r\n        for(uint i=0; i < _bts.length; i++){\r\n            inProgress = abi.encodePacked(inProgress,serializeCReserveTransfer(_bts[i]));\r\n        }\r\n        return inProgress;\r\n    }\r\n\r\n    function serializeCUTXORef(VerusObjectsNotarization.CUTXORef memory _cutxo) public pure returns(bytes memory){\r\n        return abi.encodePacked(\r\n            serializeBytes32(_cutxo.hash),\r\n            serializeUint32(_cutxo.n)\r\n        );\r\n    }\r\n\r\n    function serializeCProofRoot(VerusObjectsNotarization.CProofRoot memory _cpr) public pure returns(bytes memory){\r\n        return abi.encodePacked(\r\n            serializeAddress(_cpr.systemid),\r\n            serializeInt16(_cpr.version),\r\n            serializeInt16(_cpr.cprtype),\r\n            serializeAddress(_cpr.systemid),\r\n            serializeUint32(_cpr.rootheight),\r\n            serializeBytes32(_cpr.stateroot),\r\n            serializeBytes32(_cpr.blockhash),\r\n            serializeBytes32(_cpr.compactpower)\r\n            );\r\n    }\r\n\r\n    function serializeProofRoots(VerusObjectsNotarization.ProofRoots memory _prs) public pure returns(bytes memory){\r\n        return abi.encodePacked(\r\n            serializeAddress(_prs.currencyid),\r\n            serializeCProofRoot(_prs.proofroot)\r\n        );  \r\n    }\r\n\r\n    function serializeProofRootsArray(VerusObjectsNotarization.ProofRoots[] memory _prsa) public pure returns(bytes memory){\r\n        bytes memory inProgress;\r\n        \r\n        inProgress = writeCompactSize(_prsa.length);\r\n        for(uint i=0; i < _prsa.length; i++){\r\n            inProgress = abi.encodePacked(inProgress,serializeProofRoots(_prsa[i]));\r\n        }\r\n        return inProgress;\r\n    }\r\n    \r\n    function serializeCProofRootArray(VerusObjectsNotarization.CProofRoot[] memory _prsa) public pure returns(bytes memory){\r\n        bytes memory inProgress;\r\n        \r\n        inProgress = writeCompactSize(_prsa.length);\r\n        for(uint i=0; i < _prsa.length; i++){\r\n            inProgress = abi.encodePacked(inProgress,serializeCProofRoot(_prsa[i]));\r\n        }\r\n        return inProgress;\r\n    }\r\n    \r\n\r\n    function serializeCCoinbaseCurrencyState(VerusObjectsNotarization.CCoinbaseCurrencyState memory _cccs) public pure returns(bytes memory){\r\n        bytes memory part1 = abi.encodePacked(\r\n            serializeUint16(_cccs.version),\r\n            serializeUint16(_cccs.flags),\r\n            serializeAddress(_cccs.currencyid),\r\n            serializeUint160Array(_cccs.currencies),\r\n            serializeInt32Array(_cccs.weights),\r\n            serializeInt64Array(_cccs.reserves),\r\n            writeVarInt(uint256(_cccs.initialsupply)),\r\n            writeVarInt(uint256(_cccs.emitted)),\r\n            writeVarInt(uint256(_cccs.supply))\r\n        );\r\n        bytes memory part2 = abi.encodePacked(\r\n            serializeInt64(_cccs.primarycurrencyout),\r\n            serializeInt64(_cccs.preconvertedout),\r\n            serializeInt64(_cccs.primarycurrencyfees),\r\n            serializeInt64(_cccs.primarycurrencyconversionfees),\r\n            serializeInt64Array(_cccs.reservein),\r\n            serializeInt64Array(_cccs.primarycurrencyin),\r\n            serializeInt64Array(_cccs.reserveout),\r\n            serializeInt64Array(_cccs.conversionprice),\r\n            serializeInt64Array(_cccs.viaconversionprice),\r\n            serializeInt64Array(_cccs.fees),\r\n            serializeInt32Array(_cccs.priorweights),\r\n            serializeInt64Array(_cccs.conversionfees)\r\n        );\r\n        \r\n        return abi.encodePacked(part1,part2);\r\n    }\r\n\r\n    function serializeCurrencyStates(VerusObjectsNotarization.CurrencyStates memory _cs) public pure returns(bytes memory){\r\n        return abi.encodePacked(\r\n            serializeAddress(_cs.currencyid),\r\n            serializeCCoinbaseCurrencyState(_cs.currencystate)\r\n        );\r\n    }\r\n\r\n    function serializeCurrencyStatesArray(VerusObjectsNotarization.CurrencyStates[] memory _csa) public pure returns(bytes memory){\r\n        bytes memory inProgress;\r\n        inProgress = writeCompactSize(_csa.length);\r\n        for(uint i=0; i < _csa.length; i++){\r\n            inProgress = abi.encodePacked(inProgress,serializeCurrencyStates(_csa[i]));\r\n        }\r\n        return inProgress;\r\n    }\r\n\r\n    function serializeCPBaaSNotarization(VerusObjectsNotarization.CPBaaSNotarization memory _not) public pure returns(bytes memory){\r\n        return abi.encodePacked(\r\n            writeVarInt(_not.version),\r\n            writeVarInt(_not.flags),\r\n            serializeCTransferDestination(_not.proposer),\r\n            serializeAddress(_not.currencyid),\r\n            serializeCCoinbaseCurrencyState(_not.currencystate),\r\n            serializeUint32(_not.notarizationheight),\r\n            serializeCUTXORef(_not.prevnotarization),\r\n            serializeBytes32(_not.hashprevnotarization),\r\n            serializeUint32(_not.prevheight),\r\n            serializeCurrencyStatesArray(_not.currencystates),\r\n            serializeCProofRootArray(_not.proofroots),\r\n            serializeNodes(_not.nodes)\r\n        );\r\n    }\r\n    \r\n    function serializeNodes(VerusObjectsNotarization.CNodeData[] memory _cnds) public pure returns(bytes memory){\r\n        bytes memory inProgress;\r\n        inProgress = writeCompactSize(_cnds.length);\r\n        for(uint i=0; i < _cnds.length; i++){\r\n            inProgress = abi.encodePacked(inProgress,serializeCNodeData(_cnds[i]));\r\n        }\r\n        return inProgress;\r\n    }\r\n\r\n    function serializeCNodeData(VerusObjectsNotarization.CNodeData memory _cnd) public pure returns(bytes memory){\r\n        \r\n        return abi.encodePacked(\r\n            serializeString(_cnd.networkaddress),\r\n            serializeAddress(_cnd.nodeidentity)\r\n        );\r\n    }\r\n\r\n    function serializeCCrossChainExport(VerusObjects.CCrossChainExport memory _ccce) public pure returns(bytes memory){\r\n        bytes memory part1 = abi.encodePacked(\r\n            serializeUint16(_ccce.version),\r\n            serializeUint16(_ccce.flags),\r\n            serializeAddress(_ccce.sourcesystemid),\r\n            writeVarInt(_ccce.sourceheightstart),\r\n            writeVarInt(_ccce.sourceheightend),\r\n            serializeAddress(_ccce.destinationsystemid),\r\n            serializeAddress(_ccce.destinationcurrencyid));\r\n        bytes memory part2 = abi.encodePacked(serializeUint32(_ccce.numinputs),\r\n            serializeCCurrencyValueMaps(_ccce.totalamounts),\r\n            serializeCCurrencyValueMaps(_ccce.totalfees),\r\n            flipArray(serializeBytes32(_ccce.hashtransfers)),\r\n            serializeCCurrencyValueMaps(_ccce.totalburned),\r\n            serializeCTransferDestination(_ccce.rewardaddress),\r\n            serializeInt32(_ccce.firstinput),bytes1(0x00));\r\n        return abi.encodePacked(part1,part2);\r\n    }\r\n\r\n    function flipArray(bytes memory incoming) public pure returns(bytes memory){\r\n        uint256 len;\r\n        len = incoming.length;\r\n        bytes memory output = new bytes(len);\r\n        uint256 pos = 0;\r\n        while(pos < len){\r\n            output[pos] = incoming[len - pos - 1];\r\n            pos++;\r\n        }\r\n        return output;\r\n    }\r\n\r\n}",
  "sourcePath": "D:\\dev\\Ethereum-verus-notarisation\\contracts\\VerusBridge\\VerusSerializer.sol",
  "compiler": {
    "name": "solc",
    "version": "0.7.6+commit.7338295f.Emscripten.clang"
  },
  "schemaVersion": "3.4.3",
  "updatedAt": "2021-09-29T16:08:58.010Z",
  "networkType": "ethereum",
  "devdoc": {
    "kind": "dev",
    "methods": {},
    "version": 1
  },
  "userdoc": {
    "kind": "user",
    "methods": {},
    "version": 1
  }
}