{
  "contractName": "VerusSerializer",
  "abi": [
    {
      "inputs": [
        {
          "internalType": "bytes",
          "name": "incoming",
          "type": "bytes"
        },
        {
          "internalType": "uint32",
          "name": "offset",
          "type": "uint32"
        }
      ],
      "name": "readVarUintLE",
      "outputs": [
        {
          "components": [
            {
              "internalType": "uint32",
              "name": "offset",
              "type": "uint32"
            },
            {
              "internalType": "uint32",
              "name": "value",
              "type": "uint32"
            }
          ],
          "internalType": "struct VerusObjectsCommon.UintReader",
          "name": "",
          "type": "tuple"
        }
      ],
      "stateMutability": "pure",
      "type": "function",
      "constant": true
    },
    {
      "inputs": [
        {
          "internalType": "bytes",
          "name": "incoming",
          "type": "bytes"
        },
        {
          "internalType": "uint32",
          "name": "offset",
          "type": "uint32"
        }
      ],
      "name": "readCompactSizeLE",
      "outputs": [
        {
          "components": [
            {
              "internalType": "uint32",
              "name": "offset",
              "type": "uint32"
            },
            {
              "internalType": "uint32",
              "name": "value",
              "type": "uint32"
            }
          ],
          "internalType": "struct VerusObjectsCommon.UintReader",
          "name": "",
          "type": "tuple"
        }
      ],
      "stateMutability": "pure",
      "type": "function",
      "constant": true
    },
    {
      "inputs": [
        {
          "internalType": "uint256",
          "name": "incoming",
          "type": "uint256"
        }
      ],
      "name": "writeVarInt",
      "outputs": [
        {
          "internalType": "bytes",
          "name": "",
          "type": "bytes"
        }
      ],
      "stateMutability": "pure",
      "type": "function",
      "constant": true
    },
    {
      "inputs": [
        {
          "internalType": "uint256",
          "name": "newNumber",
          "type": "uint256"
        }
      ],
      "name": "writeCompactSize",
      "outputs": [
        {
          "internalType": "bytes",
          "name": "",
          "type": "bytes"
        }
      ],
      "stateMutability": "pure",
      "type": "function",
      "constant": true
    },
    {
      "inputs": [
        {
          "internalType": "string",
          "name": "prefix",
          "type": "string"
        },
        {
          "internalType": "address",
          "name": "systemID",
          "type": "address"
        },
        {
          "internalType": "int64",
          "name": "blockHeight",
          "type": "int64"
        },
        {
          "internalType": "address",
          "name": "signingID",
          "type": "address"
        },
        {
          "internalType": "bytes",
          "name": "messageToHash",
          "type": "bytes"
        }
      ],
      "name": "verusHashPrefix",
      "outputs": [
        {
          "internalType": "bytes",
          "name": "",
          "type": "bytes"
        }
      ],
      "stateMutability": "pure",
      "type": "function",
      "constant": true
    },
    {
      "inputs": [
        {
          "internalType": "bool",
          "name": "anyBool",
          "type": "bool"
        }
      ],
      "name": "serializeBool",
      "outputs": [
        {
          "internalType": "bytes",
          "name": "",
          "type": "bytes"
        }
      ],
      "stateMutability": "pure",
      "type": "function",
      "constant": true
    },
    {
      "inputs": [
        {
          "internalType": "string",
          "name": "anyString",
          "type": "string"
        }
      ],
      "name": "serializeString",
      "outputs": [
        {
          "internalType": "bytes",
          "name": "",
          "type": "bytes"
        }
      ],
      "stateMutability": "pure",
      "type": "function",
      "constant": true
    },
    {
      "inputs": [
        {
          "internalType": "bytes20",
          "name": "anyBytes20",
          "type": "bytes20"
        }
      ],
      "name": "serializeBytes20",
      "outputs": [
        {
          "internalType": "bytes",
          "name": "",
          "type": "bytes"
        }
      ],
      "stateMutability": "pure",
      "type": "function",
      "constant": true
    },
    {
      "inputs": [
        {
          "internalType": "bytes32",
          "name": "anyBytes32",
          "type": "bytes32"
        }
      ],
      "name": "serializeBytes32",
      "outputs": [
        {
          "internalType": "bytes",
          "name": "",
          "type": "bytes"
        }
      ],
      "stateMutability": "pure",
      "type": "function",
      "constant": true
    },
    {
      "inputs": [
        {
          "internalType": "uint8",
          "name": "number",
          "type": "uint8"
        }
      ],
      "name": "serializeUint8",
      "outputs": [
        {
          "internalType": "bytes",
          "name": "",
          "type": "bytes"
        }
      ],
      "stateMutability": "pure",
      "type": "function",
      "constant": true
    },
    {
      "inputs": [
        {
          "internalType": "uint16",
          "name": "number",
          "type": "uint16"
        }
      ],
      "name": "serializeUint16",
      "outputs": [
        {
          "internalType": "bytes",
          "name": "",
          "type": "bytes"
        }
      ],
      "stateMutability": "pure",
      "type": "function",
      "constant": true
    },
    {
      "inputs": [
        {
          "internalType": "uint32",
          "name": "number",
          "type": "uint32"
        }
      ],
      "name": "serializeUint32",
      "outputs": [
        {
          "internalType": "bytes",
          "name": "",
          "type": "bytes"
        }
      ],
      "stateMutability": "pure",
      "type": "function",
      "constant": true
    },
    {
      "inputs": [
        {
          "internalType": "int16",
          "name": "number",
          "type": "int16"
        }
      ],
      "name": "serializeInt16",
      "outputs": [
        {
          "internalType": "bytes",
          "name": "",
          "type": "bytes"
        }
      ],
      "stateMutability": "pure",
      "type": "function",
      "constant": true
    },
    {
      "inputs": [
        {
          "internalType": "int32",
          "name": "number",
          "type": "int32"
        }
      ],
      "name": "serializeInt32",
      "outputs": [
        {
          "internalType": "bytes",
          "name": "",
          "type": "bytes"
        }
      ],
      "stateMutability": "pure",
      "type": "function",
      "constant": true
    },
    {
      "inputs": [
        {
          "internalType": "int64",
          "name": "number",
          "type": "int64"
        }
      ],
      "name": "serializeInt64",
      "outputs": [
        {
          "internalType": "bytes",
          "name": "",
          "type": "bytes"
        }
      ],
      "stateMutability": "pure",
      "type": "function",
      "constant": true
    },
    {
      "inputs": [
        {
          "internalType": "int32[]",
          "name": "numbers",
          "type": "int32[]"
        }
      ],
      "name": "serializeInt32Array",
      "outputs": [
        {
          "internalType": "bytes",
          "name": "",
          "type": "bytes"
        }
      ],
      "stateMutability": "pure",
      "type": "function",
      "constant": true
    },
    {
      "inputs": [
        {
          "internalType": "int64[]",
          "name": "numbers",
          "type": "int64[]"
        }
      ],
      "name": "serializeInt64Array",
      "outputs": [
        {
          "internalType": "bytes",
          "name": "",
          "type": "bytes"
        }
      ],
      "stateMutability": "pure",
      "type": "function",
      "constant": true
    },
    {
      "inputs": [
        {
          "internalType": "uint64",
          "name": "number",
          "type": "uint64"
        }
      ],
      "name": "serializeUint64",
      "outputs": [
        {
          "internalType": "bytes",
          "name": "",
          "type": "bytes"
        }
      ],
      "stateMutability": "pure",
      "type": "function",
      "constant": true
    },
    {
      "inputs": [
        {
          "internalType": "address",
          "name": "number",
          "type": "address"
        }
      ],
      "name": "serializeAddress",
      "outputs": [
        {
          "internalType": "bytes",
          "name": "",
          "type": "bytes"
        }
      ],
      "stateMutability": "pure",
      "type": "function",
      "constant": true
    },
    {
      "inputs": [
        {
          "internalType": "uint160[]",
          "name": "numbers",
          "type": "uint160[]"
        }
      ],
      "name": "serializeUint160Array",
      "outputs": [
        {
          "internalType": "bytes",
          "name": "",
          "type": "bytes"
        }
      ],
      "stateMutability": "pure",
      "type": "function",
      "constant": true
    },
    {
      "inputs": [
        {
          "internalType": "uint256",
          "name": "number",
          "type": "uint256"
        }
      ],
      "name": "serializeUint256",
      "outputs": [
        {
          "internalType": "bytes",
          "name": "",
          "type": "bytes"
        }
      ],
      "stateMutability": "pure",
      "type": "function",
      "constant": true
    },
    {
      "inputs": [
        {
          "components": [
            {
              "internalType": "uint8",
              "name": "destinationtype",
              "type": "uint8"
            },
            {
              "internalType": "bytes",
              "name": "destinationaddress",
              "type": "bytes"
            }
          ],
          "internalType": "struct VerusObjectsCommon.CTransferDestination",
          "name": "ctd",
          "type": "tuple"
        }
      ],
      "name": "serializeCTransferDestination",
      "outputs": [
        {
          "internalType": "bytes",
          "name": "",
          "type": "bytes"
        }
      ],
      "stateMutability": "pure",
      "type": "function",
      "constant": true
    },
    {
      "inputs": [
        {
          "components": [
            {
              "internalType": "address",
              "name": "currency",
              "type": "address"
            },
            {
              "internalType": "uint64",
              "name": "amount",
              "type": "uint64"
            }
          ],
          "internalType": "struct VerusObjects.CCurrencyValueMap",
          "name": "_ccvm",
          "type": "tuple"
        }
      ],
      "name": "serializeCCurrencyValueMap",
      "outputs": [
        {
          "internalType": "bytes",
          "name": "",
          "type": "bytes"
        }
      ],
      "stateMutability": "pure",
      "type": "function",
      "constant": true
    },
    {
      "inputs": [
        {
          "components": [
            {
              "internalType": "address",
              "name": "currency",
              "type": "address"
            },
            {
              "internalType": "uint64",
              "name": "amount",
              "type": "uint64"
            }
          ],
          "internalType": "struct VerusObjects.CCurrencyValueMap[]",
          "name": "_ccvms",
          "type": "tuple[]"
        }
      ],
      "name": "serializeCCurrencyValueMaps",
      "outputs": [
        {
          "internalType": "bytes",
          "name": "",
          "type": "bytes"
        }
      ],
      "stateMutability": "pure",
      "type": "function",
      "constant": true
    },
    {
      "inputs": [
        {
          "components": [
            {
              "internalType": "uint32",
              "name": "version",
              "type": "uint32"
            },
            {
              "components": [
                {
                  "internalType": "address",
                  "name": "currency",
                  "type": "address"
                },
                {
                  "internalType": "uint64",
                  "name": "amount",
                  "type": "uint64"
                }
              ],
              "internalType": "struct VerusObjects.CCurrencyValueMap",
              "name": "currencyvalue",
              "type": "tuple"
            },
            {
              "internalType": "uint32",
              "name": "flags",
              "type": "uint32"
            },
            {
              "internalType": "address",
              "name": "feecurrencyid",
              "type": "address"
            },
            {
              "internalType": "uint256",
              "name": "fees",
              "type": "uint256"
            },
            {
              "components": [
                {
                  "internalType": "uint8",
                  "name": "destinationtype",
                  "type": "uint8"
                },
                {
                  "internalType": "bytes",
                  "name": "destinationaddress",
                  "type": "bytes"
                }
              ],
              "internalType": "struct VerusObjectsCommon.CTransferDestination",
              "name": "destination",
              "type": "tuple"
            },
            {
              "internalType": "address",
              "name": "destcurrencyid",
              "type": "address"
            },
            {
              "internalType": "address",
              "name": "destsystemid",
              "type": "address"
            },
            {
              "internalType": "address",
              "name": "secondreserveid",
              "type": "address"
            }
          ],
          "internalType": "struct VerusObjects.CReserveTransfer",
          "name": "ct",
          "type": "tuple"
        }
      ],
      "name": "serializeCReserveTransfer",
      "outputs": [
        {
          "internalType": "bytes",
          "name": "",
          "type": "bytes"
        }
      ],
      "stateMutability": "pure",
      "type": "function",
      "constant": true
    },
    {
      "inputs": [
        {
          "components": [
            {
              "internalType": "uint32",
              "name": "version",
              "type": "uint32"
            },
            {
              "components": [
                {
                  "internalType": "address",
                  "name": "currency",
                  "type": "address"
                },
                {
                  "internalType": "uint64",
                  "name": "amount",
                  "type": "uint64"
                }
              ],
              "internalType": "struct VerusObjects.CCurrencyValueMap",
              "name": "currencyvalue",
              "type": "tuple"
            },
            {
              "internalType": "uint32",
              "name": "flags",
              "type": "uint32"
            },
            {
              "internalType": "address",
              "name": "feecurrencyid",
              "type": "address"
            },
            {
              "internalType": "uint256",
              "name": "fees",
              "type": "uint256"
            },
            {
              "components": [
                {
                  "internalType": "uint8",
                  "name": "destinationtype",
                  "type": "uint8"
                },
                {
                  "internalType": "bytes",
                  "name": "destinationaddress",
                  "type": "bytes"
                }
              ],
              "internalType": "struct VerusObjectsCommon.CTransferDestination",
              "name": "destination",
              "type": "tuple"
            },
            {
              "internalType": "address",
              "name": "destcurrencyid",
              "type": "address"
            },
            {
              "internalType": "address",
              "name": "destsystemid",
              "type": "address"
            },
            {
              "internalType": "address",
              "name": "secondreserveid",
              "type": "address"
            }
          ],
          "internalType": "struct VerusObjects.CReserveTransfer[]",
          "name": "_bts",
          "type": "tuple[]"
        },
        {
          "internalType": "bool",
          "name": "includeSize",
          "type": "bool"
        }
      ],
      "name": "serializeCReserveTransfers",
      "outputs": [
        {
          "internalType": "bytes",
          "name": "",
          "type": "bytes"
        }
      ],
      "stateMutability": "pure",
      "type": "function",
      "constant": true
    },
    {
      "inputs": [
        {
          "components": [
            {
              "internalType": "bytes32",
              "name": "hash",
              "type": "bytes32"
            },
            {
              "internalType": "uint32",
              "name": "n",
              "type": "uint32"
            }
          ],
          "internalType": "struct VerusObjectsNotarization.CUTXORef",
          "name": "_cutxo",
          "type": "tuple"
        }
      ],
      "name": "serializeCUTXORef",
      "outputs": [
        {
          "internalType": "bytes",
          "name": "",
          "type": "bytes"
        }
      ],
      "stateMutability": "pure",
      "type": "function",
      "constant": true
    },
    {
      "inputs": [
        {
          "components": [
            {
              "internalType": "int16",
              "name": "version",
              "type": "int16"
            },
            {
              "internalType": "int16",
              "name": "cprtype",
              "type": "int16"
            },
            {
              "internalType": "address",
              "name": "systemid",
              "type": "address"
            },
            {
              "internalType": "uint32",
              "name": "rootheight",
              "type": "uint32"
            },
            {
              "internalType": "bytes32",
              "name": "stateroot",
              "type": "bytes32"
            },
            {
              "internalType": "bytes32",
              "name": "blockhash",
              "type": "bytes32"
            },
            {
              "internalType": "bytes32",
              "name": "compactpower",
              "type": "bytes32"
            }
          ],
          "internalType": "struct VerusObjectsNotarization.CProofRoot",
          "name": "_cpr",
          "type": "tuple"
        }
      ],
      "name": "serializeCProofRoot",
      "outputs": [
        {
          "internalType": "bytes",
          "name": "",
          "type": "bytes"
        }
      ],
      "stateMutability": "pure",
      "type": "function",
      "constant": true
    },
    {
      "inputs": [
        {
          "components": [
            {
              "internalType": "address",
              "name": "currencyid",
              "type": "address"
            },
            {
              "components": [
                {
                  "internalType": "int16",
                  "name": "version",
                  "type": "int16"
                },
                {
                  "internalType": "int16",
                  "name": "cprtype",
                  "type": "int16"
                },
                {
                  "internalType": "address",
                  "name": "systemid",
                  "type": "address"
                },
                {
                  "internalType": "uint32",
                  "name": "rootheight",
                  "type": "uint32"
                },
                {
                  "internalType": "bytes32",
                  "name": "stateroot",
                  "type": "bytes32"
                },
                {
                  "internalType": "bytes32",
                  "name": "blockhash",
                  "type": "bytes32"
                },
                {
                  "internalType": "bytes32",
                  "name": "compactpower",
                  "type": "bytes32"
                }
              ],
              "internalType": "struct VerusObjectsNotarization.CProofRoot",
              "name": "proofroot",
              "type": "tuple"
            }
          ],
          "internalType": "struct VerusObjectsNotarization.ProofRoots",
          "name": "_prs",
          "type": "tuple"
        }
      ],
      "name": "serializeProofRoots",
      "outputs": [
        {
          "internalType": "bytes",
          "name": "",
          "type": "bytes"
        }
      ],
      "stateMutability": "pure",
      "type": "function",
      "constant": true
    },
    {
      "inputs": [
        {
          "components": [
            {
              "internalType": "address",
              "name": "currencyid",
              "type": "address"
            },
            {
              "components": [
                {
                  "internalType": "int16",
                  "name": "version",
                  "type": "int16"
                },
                {
                  "internalType": "int16",
                  "name": "cprtype",
                  "type": "int16"
                },
                {
                  "internalType": "address",
                  "name": "systemid",
                  "type": "address"
                },
                {
                  "internalType": "uint32",
                  "name": "rootheight",
                  "type": "uint32"
                },
                {
                  "internalType": "bytes32",
                  "name": "stateroot",
                  "type": "bytes32"
                },
                {
                  "internalType": "bytes32",
                  "name": "blockhash",
                  "type": "bytes32"
                },
                {
                  "internalType": "bytes32",
                  "name": "compactpower",
                  "type": "bytes32"
                }
              ],
              "internalType": "struct VerusObjectsNotarization.CProofRoot",
              "name": "proofroot",
              "type": "tuple"
            }
          ],
          "internalType": "struct VerusObjectsNotarization.ProofRoots[]",
          "name": "_prsa",
          "type": "tuple[]"
        }
      ],
      "name": "serializeProofRootsArray",
      "outputs": [
        {
          "internalType": "bytes",
          "name": "",
          "type": "bytes"
        }
      ],
      "stateMutability": "pure",
      "type": "function",
      "constant": true
    },
    {
      "inputs": [
        {
          "components": [
            {
              "internalType": "int16",
              "name": "version",
              "type": "int16"
            },
            {
              "internalType": "int16",
              "name": "cprtype",
              "type": "int16"
            },
            {
              "internalType": "address",
              "name": "systemid",
              "type": "address"
            },
            {
              "internalType": "uint32",
              "name": "rootheight",
              "type": "uint32"
            },
            {
              "internalType": "bytes32",
              "name": "stateroot",
              "type": "bytes32"
            },
            {
              "internalType": "bytes32",
              "name": "blockhash",
              "type": "bytes32"
            },
            {
              "internalType": "bytes32",
              "name": "compactpower",
              "type": "bytes32"
            }
          ],
          "internalType": "struct VerusObjectsNotarization.CProofRoot[]",
          "name": "_prsa",
          "type": "tuple[]"
        }
      ],
      "name": "serializeCProofRootArray",
      "outputs": [
        {
          "internalType": "bytes",
          "name": "",
          "type": "bytes"
        }
      ],
      "stateMutability": "pure",
      "type": "function",
      "constant": true
    },
    {
      "inputs": [
        {
          "components": [
            {
              "internalType": "uint16",
              "name": "version",
              "type": "uint16"
            },
            {
              "internalType": "uint16",
              "name": "flags",
              "type": "uint16"
            },
            {
              "internalType": "address",
              "name": "currencyid",
              "type": "address"
            },
            {
              "internalType": "uint160[]",
              "name": "currencies",
              "type": "uint160[]"
            },
            {
              "internalType": "int32[]",
              "name": "weights",
              "type": "int32[]"
            },
            {
              "internalType": "int64[]",
              "name": "reserves",
              "type": "int64[]"
            },
            {
              "internalType": "int64",
              "name": "initialsupply",
              "type": "int64"
            },
            {
              "internalType": "int64",
              "name": "emitted",
              "type": "int64"
            },
            {
              "internalType": "int64",
              "name": "supply",
              "type": "int64"
            },
            {
              "internalType": "int64",
              "name": "primarycurrencyout",
              "type": "int64"
            },
            {
              "internalType": "int64",
              "name": "preconvertedout",
              "type": "int64"
            },
            {
              "internalType": "int64",
              "name": "primarycurrencyfees",
              "type": "int64"
            },
            {
              "internalType": "int64",
              "name": "primarycurrencyconversionfees",
              "type": "int64"
            },
            {
              "internalType": "int64[]",
              "name": "reservein",
              "type": "int64[]"
            },
            {
              "internalType": "int64[]",
              "name": "primarycurrencyin",
              "type": "int64[]"
            },
            {
              "internalType": "int64[]",
              "name": "reserveout",
              "type": "int64[]"
            },
            {
              "internalType": "int64[]",
              "name": "conversionprice",
              "type": "int64[]"
            },
            {
              "internalType": "int64[]",
              "name": "viaconversionprice",
              "type": "int64[]"
            },
            {
              "internalType": "int64[]",
              "name": "fees",
              "type": "int64[]"
            },
            {
              "internalType": "int32[]",
              "name": "priorweights",
              "type": "int32[]"
            },
            {
              "internalType": "int64[]",
              "name": "conversionfees",
              "type": "int64[]"
            }
          ],
          "internalType": "struct VerusObjectsNotarization.CCoinbaseCurrencyState",
          "name": "_cccs",
          "type": "tuple"
        }
      ],
      "name": "serializeCCoinbaseCurrencyState",
      "outputs": [
        {
          "internalType": "bytes",
          "name": "",
          "type": "bytes"
        }
      ],
      "stateMutability": "pure",
      "type": "function",
      "constant": true
    },
    {
      "inputs": [
        {
          "components": [
            {
              "internalType": "address",
              "name": "currencyid",
              "type": "address"
            },
            {
              "components": [
                {
                  "internalType": "uint16",
                  "name": "version",
                  "type": "uint16"
                },
                {
                  "internalType": "uint16",
                  "name": "flags",
                  "type": "uint16"
                },
                {
                  "internalType": "address",
                  "name": "currencyid",
                  "type": "address"
                },
                {
                  "internalType": "uint160[]",
                  "name": "currencies",
                  "type": "uint160[]"
                },
                {
                  "internalType": "int32[]",
                  "name": "weights",
                  "type": "int32[]"
                },
                {
                  "internalType": "int64[]",
                  "name": "reserves",
                  "type": "int64[]"
                },
                {
                  "internalType": "int64",
                  "name": "initialsupply",
                  "type": "int64"
                },
                {
                  "internalType": "int64",
                  "name": "emitted",
                  "type": "int64"
                },
                {
                  "internalType": "int64",
                  "name": "supply",
                  "type": "int64"
                },
                {
                  "internalType": "int64",
                  "name": "primarycurrencyout",
                  "type": "int64"
                },
                {
                  "internalType": "int64",
                  "name": "preconvertedout",
                  "type": "int64"
                },
                {
                  "internalType": "int64",
                  "name": "primarycurrencyfees",
                  "type": "int64"
                },
                {
                  "internalType": "int64",
                  "name": "primarycurrencyconversionfees",
                  "type": "int64"
                },
                {
                  "internalType": "int64[]",
                  "name": "reservein",
                  "type": "int64[]"
                },
                {
                  "internalType": "int64[]",
                  "name": "primarycurrencyin",
                  "type": "int64[]"
                },
                {
                  "internalType": "int64[]",
                  "name": "reserveout",
                  "type": "int64[]"
                },
                {
                  "internalType": "int64[]",
                  "name": "conversionprice",
                  "type": "int64[]"
                },
                {
                  "internalType": "int64[]",
                  "name": "viaconversionprice",
                  "type": "int64[]"
                },
                {
                  "internalType": "int64[]",
                  "name": "fees",
                  "type": "int64[]"
                },
                {
                  "internalType": "int32[]",
                  "name": "priorweights",
                  "type": "int32[]"
                },
                {
                  "internalType": "int64[]",
                  "name": "conversionfees",
                  "type": "int64[]"
                }
              ],
              "internalType": "struct VerusObjectsNotarization.CCoinbaseCurrencyState",
              "name": "currencystate",
              "type": "tuple"
            }
          ],
          "internalType": "struct VerusObjectsNotarization.CurrencyStates",
          "name": "_cs",
          "type": "tuple"
        }
      ],
      "name": "serializeCurrencyStates",
      "outputs": [
        {
          "internalType": "bytes",
          "name": "",
          "type": "bytes"
        }
      ],
      "stateMutability": "pure",
      "type": "function",
      "constant": true
    },
    {
      "inputs": [
        {
          "components": [
            {
              "internalType": "address",
              "name": "currencyid",
              "type": "address"
            },
            {
              "components": [
                {
                  "internalType": "uint16",
                  "name": "version",
                  "type": "uint16"
                },
                {
                  "internalType": "uint16",
                  "name": "flags",
                  "type": "uint16"
                },
                {
                  "internalType": "address",
                  "name": "currencyid",
                  "type": "address"
                },
                {
                  "internalType": "uint160[]",
                  "name": "currencies",
                  "type": "uint160[]"
                },
                {
                  "internalType": "int32[]",
                  "name": "weights",
                  "type": "int32[]"
                },
                {
                  "internalType": "int64[]",
                  "name": "reserves",
                  "type": "int64[]"
                },
                {
                  "internalType": "int64",
                  "name": "initialsupply",
                  "type": "int64"
                },
                {
                  "internalType": "int64",
                  "name": "emitted",
                  "type": "int64"
                },
                {
                  "internalType": "int64",
                  "name": "supply",
                  "type": "int64"
                },
                {
                  "internalType": "int64",
                  "name": "primarycurrencyout",
                  "type": "int64"
                },
                {
                  "internalType": "int64",
                  "name": "preconvertedout",
                  "type": "int64"
                },
                {
                  "internalType": "int64",
                  "name": "primarycurrencyfees",
                  "type": "int64"
                },
                {
                  "internalType": "int64",
                  "name": "primarycurrencyconversionfees",
                  "type": "int64"
                },
                {
                  "internalType": "int64[]",
                  "name": "reservein",
                  "type": "int64[]"
                },
                {
                  "internalType": "int64[]",
                  "name": "primarycurrencyin",
                  "type": "int64[]"
                },
                {
                  "internalType": "int64[]",
                  "name": "reserveout",
                  "type": "int64[]"
                },
                {
                  "internalType": "int64[]",
                  "name": "conversionprice",
                  "type": "int64[]"
                },
                {
                  "internalType": "int64[]",
                  "name": "viaconversionprice",
                  "type": "int64[]"
                },
                {
                  "internalType": "int64[]",
                  "name": "fees",
                  "type": "int64[]"
                },
                {
                  "internalType": "int32[]",
                  "name": "priorweights",
                  "type": "int32[]"
                },
                {
                  "internalType": "int64[]",
                  "name": "conversionfees",
                  "type": "int64[]"
                }
              ],
              "internalType": "struct VerusObjectsNotarization.CCoinbaseCurrencyState",
              "name": "currencystate",
              "type": "tuple"
            }
          ],
          "internalType": "struct VerusObjectsNotarization.CurrencyStates[]",
          "name": "_csa",
          "type": "tuple[]"
        }
      ],
      "name": "serializeCurrencyStatesArray",
      "outputs": [
        {
          "internalType": "bytes",
          "name": "",
          "type": "bytes"
        }
      ],
      "stateMutability": "pure",
      "type": "function",
      "constant": true
    },
    {
      "inputs": [
        {
          "components": [
            {
              "internalType": "uint32",
              "name": "version",
              "type": "uint32"
            },
            {
              "internalType": "uint32",
              "name": "flags",
              "type": "uint32"
            },
            {
              "components": [
                {
                  "internalType": "uint8",
                  "name": "destinationtype",
                  "type": "uint8"
                },
                {
                  "internalType": "bytes",
                  "name": "destinationaddress",
                  "type": "bytes"
                }
              ],
              "internalType": "struct VerusObjectsCommon.CTransferDestination",
              "name": "proposer",
              "type": "tuple"
            },
            {
              "internalType": "address",
              "name": "currencyid",
              "type": "address"
            },
            {
              "components": [
                {
                  "internalType": "uint16",
                  "name": "version",
                  "type": "uint16"
                },
                {
                  "internalType": "uint16",
                  "name": "flags",
                  "type": "uint16"
                },
                {
                  "internalType": "address",
                  "name": "currencyid",
                  "type": "address"
                },
                {
                  "internalType": "uint160[]",
                  "name": "currencies",
                  "type": "uint160[]"
                },
                {
                  "internalType": "int32[]",
                  "name": "weights",
                  "type": "int32[]"
                },
                {
                  "internalType": "int64[]",
                  "name": "reserves",
                  "type": "int64[]"
                },
                {
                  "internalType": "int64",
                  "name": "initialsupply",
                  "type": "int64"
                },
                {
                  "internalType": "int64",
                  "name": "emitted",
                  "type": "int64"
                },
                {
                  "internalType": "int64",
                  "name": "supply",
                  "type": "int64"
                },
                {
                  "internalType": "int64",
                  "name": "primarycurrencyout",
                  "type": "int64"
                },
                {
                  "internalType": "int64",
                  "name": "preconvertedout",
                  "type": "int64"
                },
                {
                  "internalType": "int64",
                  "name": "primarycurrencyfees",
                  "type": "int64"
                },
                {
                  "internalType": "int64",
                  "name": "primarycurrencyconversionfees",
                  "type": "int64"
                },
                {
                  "internalType": "int64[]",
                  "name": "reservein",
                  "type": "int64[]"
                },
                {
                  "internalType": "int64[]",
                  "name": "primarycurrencyin",
                  "type": "int64[]"
                },
                {
                  "internalType": "int64[]",
                  "name": "reserveout",
                  "type": "int64[]"
                },
                {
                  "internalType": "int64[]",
                  "name": "conversionprice",
                  "type": "int64[]"
                },
                {
                  "internalType": "int64[]",
                  "name": "viaconversionprice",
                  "type": "int64[]"
                },
                {
                  "internalType": "int64[]",
                  "name": "fees",
                  "type": "int64[]"
                },
                {
                  "internalType": "int32[]",
                  "name": "priorweights",
                  "type": "int32[]"
                },
                {
                  "internalType": "int64[]",
                  "name": "conversionfees",
                  "type": "int64[]"
                }
              ],
              "internalType": "struct VerusObjectsNotarization.CCoinbaseCurrencyState",
              "name": "currencystate",
              "type": "tuple"
            },
            {
              "internalType": "uint32",
              "name": "notarizationheight",
              "type": "uint32"
            },
            {
              "components": [
                {
                  "internalType": "bytes32",
                  "name": "hash",
                  "type": "bytes32"
                },
                {
                  "internalType": "uint32",
                  "name": "n",
                  "type": "uint32"
                }
              ],
              "internalType": "struct VerusObjectsNotarization.CUTXORef",
              "name": "prevnotarization",
              "type": "tuple"
            },
            {
              "internalType": "bytes32",
              "name": "hashprevnotarization",
              "type": "bytes32"
            },
            {
              "internalType": "uint32",
              "name": "prevheight",
              "type": "uint32"
            },
            {
              "components": [
                {
                  "internalType": "address",
                  "name": "currencyid",
                  "type": "address"
                },
                {
                  "components": [
                    {
                      "internalType": "uint16",
                      "name": "version",
                      "type": "uint16"
                    },
                    {
                      "internalType": "uint16",
                      "name": "flags",
                      "type": "uint16"
                    },
                    {
                      "internalType": "address",
                      "name": "currencyid",
                      "type": "address"
                    },
                    {
                      "internalType": "uint160[]",
                      "name": "currencies",
                      "type": "uint160[]"
                    },
                    {
                      "internalType": "int32[]",
                      "name": "weights",
                      "type": "int32[]"
                    },
                    {
                      "internalType": "int64[]",
                      "name": "reserves",
                      "type": "int64[]"
                    },
                    {
                      "internalType": "int64",
                      "name": "initialsupply",
                      "type": "int64"
                    },
                    {
                      "internalType": "int64",
                      "name": "emitted",
                      "type": "int64"
                    },
                    {
                      "internalType": "int64",
                      "name": "supply",
                      "type": "int64"
                    },
                    {
                      "internalType": "int64",
                      "name": "primarycurrencyout",
                      "type": "int64"
                    },
                    {
                      "internalType": "int64",
                      "name": "preconvertedout",
                      "type": "int64"
                    },
                    {
                      "internalType": "int64",
                      "name": "primarycurrencyfees",
                      "type": "int64"
                    },
                    {
                      "internalType": "int64",
                      "name": "primarycurrencyconversionfees",
                      "type": "int64"
                    },
                    {
                      "internalType": "int64[]",
                      "name": "reservein",
                      "type": "int64[]"
                    },
                    {
                      "internalType": "int64[]",
                      "name": "primarycurrencyin",
                      "type": "int64[]"
                    },
                    {
                      "internalType": "int64[]",
                      "name": "reserveout",
                      "type": "int64[]"
                    },
                    {
                      "internalType": "int64[]",
                      "name": "conversionprice",
                      "type": "int64[]"
                    },
                    {
                      "internalType": "int64[]",
                      "name": "viaconversionprice",
                      "type": "int64[]"
                    },
                    {
                      "internalType": "int64[]",
                      "name": "fees",
                      "type": "int64[]"
                    },
                    {
                      "internalType": "int32[]",
                      "name": "priorweights",
                      "type": "int32[]"
                    },
                    {
                      "internalType": "int64[]",
                      "name": "conversionfees",
                      "type": "int64[]"
                    }
                  ],
                  "internalType": "struct VerusObjectsNotarization.CCoinbaseCurrencyState",
                  "name": "currencystate",
                  "type": "tuple"
                }
              ],
              "internalType": "struct VerusObjectsNotarization.CurrencyStates[]",
              "name": "currencystates",
              "type": "tuple[]"
            },
            {
              "components": [
                {
                  "internalType": "int16",
                  "name": "version",
                  "type": "int16"
                },
                {
                  "internalType": "int16",
                  "name": "cprtype",
                  "type": "int16"
                },
                {
                  "internalType": "address",
                  "name": "systemid",
                  "type": "address"
                },
                {
                  "internalType": "uint32",
                  "name": "rootheight",
                  "type": "uint32"
                },
                {
                  "internalType": "bytes32",
                  "name": "stateroot",
                  "type": "bytes32"
                },
                {
                  "internalType": "bytes32",
                  "name": "blockhash",
                  "type": "bytes32"
                },
                {
                  "internalType": "bytes32",
                  "name": "compactpower",
                  "type": "bytes32"
                }
              ],
              "internalType": "struct VerusObjectsNotarization.CProofRoot[]",
              "name": "proofroots",
              "type": "tuple[]"
            },
            {
              "components": [
                {
                  "internalType": "string",
                  "name": "networkaddress",
                  "type": "string"
                },
                {
                  "internalType": "address",
                  "name": "nodeidentity",
                  "type": "address"
                }
              ],
              "internalType": "struct VerusObjectsNotarization.CNodeData[]",
              "name": "nodes",
              "type": "tuple[]"
            }
          ],
          "internalType": "struct VerusObjectsNotarization.CPBaaSNotarization",
          "name": "_not",
          "type": "tuple"
        }
      ],
      "name": "serializeCPBaaSNotarization",
      "outputs": [
        {
          "internalType": "bytes",
          "name": "",
          "type": "bytes"
        }
      ],
      "stateMutability": "pure",
      "type": "function",
      "constant": true
    },
    {
      "inputs": [
        {
          "components": [
            {
              "internalType": "string",
              "name": "networkaddress",
              "type": "string"
            },
            {
              "internalType": "address",
              "name": "nodeidentity",
              "type": "address"
            }
          ],
          "internalType": "struct VerusObjectsNotarization.CNodeData[]",
          "name": "_cnds",
          "type": "tuple[]"
        }
      ],
      "name": "serializeNodes",
      "outputs": [
        {
          "internalType": "bytes",
          "name": "",
          "type": "bytes"
        }
      ],
      "stateMutability": "pure",
      "type": "function",
      "constant": true
    },
    {
      "inputs": [
        {
          "components": [
            {
              "internalType": "string",
              "name": "networkaddress",
              "type": "string"
            },
            {
              "internalType": "address",
              "name": "nodeidentity",
              "type": "address"
            }
          ],
          "internalType": "struct VerusObjectsNotarization.CNodeData",
          "name": "_cnd",
          "type": "tuple"
        }
      ],
      "name": "serializeCNodeData",
      "outputs": [
        {
          "internalType": "bytes",
          "name": "",
          "type": "bytes"
        }
      ],
      "stateMutability": "pure",
      "type": "function",
      "constant": true
    },
    {
      "inputs": [
        {
          "components": [
            {
              "internalType": "uint16",
              "name": "version",
              "type": "uint16"
            },
            {
              "internalType": "uint16",
              "name": "flags",
              "type": "uint16"
            },
            {
              "internalType": "address",
              "name": "sourcesystemid",
              "type": "address"
            },
            {
              "internalType": "bytes32",
              "name": "hashtransfers",
              "type": "bytes32"
            },
            {
              "internalType": "uint32",
              "name": "sourceheightstart",
              "type": "uint32"
            },
            {
              "internalType": "uint32",
              "name": "sourceheightend",
              "type": "uint32"
            },
            {
              "internalType": "address",
              "name": "destinationsystemid",
              "type": "address"
            },
            {
              "internalType": "address",
              "name": "destinationcurrencyid",
              "type": "address"
            },
            {
              "internalType": "uint32",
              "name": "numinputs",
              "type": "uint32"
            },
            {
              "components": [
                {
                  "internalType": "address",
                  "name": "currency",
                  "type": "address"
                },
                {
                  "internalType": "uint64",
                  "name": "amount",
                  "type": "uint64"
                }
              ],
              "internalType": "struct VerusObjects.CCurrencyValueMap[]",
              "name": "totalamounts",
              "type": "tuple[]"
            },
            {
              "components": [
                {
                  "internalType": "address",
                  "name": "currency",
                  "type": "address"
                },
                {
                  "internalType": "uint64",
                  "name": "amount",
                  "type": "uint64"
                }
              ],
              "internalType": "struct VerusObjects.CCurrencyValueMap[]",
              "name": "totalfees",
              "type": "tuple[]"
            },
            {
              "components": [
                {
                  "internalType": "address",
                  "name": "currency",
                  "type": "address"
                },
                {
                  "internalType": "uint64",
                  "name": "amount",
                  "type": "uint64"
                }
              ],
              "internalType": "struct VerusObjects.CCurrencyValueMap[]",
              "name": "totalburned",
              "type": "tuple[]"
            },
            {
              "components": [
                {
                  "internalType": "uint8",
                  "name": "destinationtype",
                  "type": "uint8"
                },
                {
                  "internalType": "bytes",
                  "name": "destinationaddress",
                  "type": "bytes"
                }
              ],
              "internalType": "struct VerusObjectsCommon.CTransferDestination",
              "name": "rewardaddress",
              "type": "tuple"
            },
            {
              "internalType": "int32",
              "name": "firstinput",
              "type": "int32"
            }
          ],
          "internalType": "struct VerusObjects.CCrossChainExport",
          "name": "_ccce",
          "type": "tuple"
        }
      ],
      "name": "serializeCCrossChainExport",
      "outputs": [
        {
          "internalType": "bytes",
          "name": "",
          "type": "bytes"
        }
      ],
      "stateMutability": "pure",
      "type": "function",
      "constant": true
    },
    {
      "inputs": [
        {
          "internalType": "bytes",
          "name": "incoming",
          "type": "bytes"
        }
      ],
      "name": "flipArray",
      "outputs": [
        {
          "internalType": "bytes",
          "name": "",
          "type": "bytes"
        }
      ],
      "stateMutability": "pure",
      "type": "function",
      "constant": true
    },
    {
      "inputs": [
        {
          "internalType": "bytes",
          "name": "input",
          "type": "bytes"
        }
      ],
      "name": "deSerializeCurrencyDefinition",
      "outputs": [
        {
          "components": [
            {
              "internalType": "address",
              "name": "parent",
              "type": "address"
            },
            {
              "internalType": "string",
              "name": "name",
              "type": "string"
            },
            {
              "internalType": "address",
              "name": "launchSystemID",
              "type": "address"
            },
            {
              "internalType": "address",
              "name": "systemID",
              "type": "address"
            },
            {
              "internalType": "address",
              "name": "nativeCurrencyID",
              "type": "address"
            }
          ],
          "internalType": "struct VerusObjects.CcurrencyDefinition",
          "name": "ccurrencyDefinition",
          "type": "tuple"
        }
      ],
      "stateMutability": "pure",
      "type": "function",
      "constant": true
    }
  ],
  "bytecode": "0x608060405234801561001057600080fd5b50614736806100206000396000f3fe608060405234801561001057600080fd5b50600436106102475760003560e01c80637b92bd281161013b578063cfa84de9116100b8578063ec9bb1a01161007c578063ec9bb1a0146108dc578063f20fb8301461090c578063f82172951461093c578063fa7acd871461096c578063fef5906a1461099c57610247565b8063cfa84de9146107ec578063dad935a11461081c578063e06711111461084c578063e4cba5471461087c578063eba973e3146108ac57610247565b8063b3a895f6116100ff578063b3a895f6146106fc578063b9f7f35a1461072c578063c6abba5f1461075c578063c93e58c81461078c578063cecb3043146107bc57610247565b80637b92bd281461060c578063941bb0601461063c5780639d487b471461066c578063a412bb291461069c578063af832f09146106cc57610247565b806333c45ab9116101c9578063463276c31161018d578063463276c31461051c5780634df1c2461461054c5780636003992a1461057c5780636127b4ff146105ac57806368b4ae81146105dc57610247565b806333c45ab91461042c57806338b108681461045c5780633b7cc0a21461048c57806344c789d1146104bc57806346256007146104ec57610247565b806318c9bbfd1161021057806318c9bbfd1461033c57806319a7c17b1461036c5780631c3565321461039c578063200f6c2a146103cc578063241d23b2146103fc57610247565b80629c81521461024c578063049e34901461027c5780630a803a86146102ac5780631222d81a146102dc578063122e5ae71461030c575b600080fd5b61026660048036038101906102619190613247565b6109cc565b6040516102739190614089565b60405180910390f35b610296600480360381019061029191906130ae565b6109f5565b6040516102a39190614089565b60405180910390f35b6102c660048036038101906102c191906134ba565b610a66565b6040516102d39190614089565b60405180910390f35b6102f660048036038101906102f191906132c2565b610c13565b6040516103039190614089565b60405180910390f35b610326600480360381019061032191906137a1565b610ce4565b6040516103339190614089565b60405180910390f35b610356600480360381019061035191906135e7565b610d1b565b6040516103639190614089565b60405180910390f35b61038660048036038101906103819190613206565b610db2565b6040516103939190614089565b60405180910390f35b6103b660048036038101906103b19190613692565b610e3a565b6040516103c39190614089565b60405180910390f35b6103e660048036038101906103e19190613184565b610e7d565b6040516103f39190614089565b60405180910390f35b61041660048036038101906104119190612fc2565b610eee565b6040516104239190614089565b60405180910390f35b610446600480360381019061044191906136fc565b610f1d565b6040516104539190614089565b60405180910390f35b61047660048036038101906104719190613303565b610f60565b60405161048391906140cd565b60405180910390f35b6104a660048036038101906104a19190613130565b610fe0565b6040516104b39190614089565b60405180910390f35b6104d660048036038101906104d19190613565565b611059565b6040516104e39190614089565b60405180910390f35b61050660048036038101906105019190613357565b61109c565b6040516105139190614089565b60405180910390f35b61053660048036038101906105319190613270565b6110d3565b6040516105439190614089565b60405180910390f35b61056660048036038101906105619190613610565b6110fc565b6040516105739190614089565b60405180910390f35b610596600480360381019061059191906134fb565b611266565b6040516105a39190614089565b60405180910390f35b6105c660048036038101906105c191906137ca565b6113bb565b6040516105d39190614089565b60405180910390f35b6105f660048036038101906105f191906133d2565b6113f2565b6040516106039190614089565b60405180910390f35b610626600480360381019061062191906131c5565b61144a565b6040516106339190614089565b60405180910390f35b6106566004803603810190610651919061306d565b6114bb565b6040516106639190614089565b60405180910390f35b61068660048036038101906106819190612feb565b61152c565b6040516106939190614089565b60405180910390f35b6106b660048036038101906106b191906130ef565b61159d565b6040516106c39190614089565b60405180910390f35b6106e660048036038101906106e191906133a9565b61160e565b6040516106f39190614089565b60405180910390f35b6107166004803603810190610711919061374f565b611645565b6040516107239190614089565b60405180910390f35b61074660048036038101906107419190613299565b6116cd565b6040516107539190614089565b60405180910390f35b61077660048036038101906107719190613651565b6116fe565b6040516107839190614089565b60405180910390f35b6107a660048036038101906107a19190613413565b611748565b6040516107b39190614089565b60405180910390f35b6107d660048036038101906107d19190613778565b61179d565b6040516107e39190614089565b60405180910390f35b6108066004803603810190610801919061353c565b6117d4565b6040516108139190614089565b60405180910390f35b6108366004803603810190610831919061374f565b611817565b6040516108439190614089565b60405180910390f35b610866600480360381019061086191906136bb565b6118e6565b6040516108739190614089565b60405180910390f35b61089660048036038101906108919190613726565b611929565b6040516108a39190614089565b60405180910390f35b6108c660048036038101906108c191906135a6565b611960565b6040516108d39190614089565b60405180910390f35b6108f660048036038101906108f19190613303565b611a3f565b60405161090391906140cd565b60405180910390f35b6109266004803603810190610921919061374f565b611b21565b6040516109339190614089565b60405180910390f35b6109566004803603810190610951919061302c565b611b58565b6040516109639190614089565b60405180910390f35b610986600480360381019061098191906132c2565b611be8565b60405161099391906140ab565b60405180910390f35b6109b660048036038101906109b19190613380565b611dff565b6040516109c39190614089565b60405180910390f35b6060816040516020016109df9190613ae7565b6040516020818303038152906040529050919050565b606080610a028351611817565b905060005b8351811015610a5c5781610a2d858381518110610a2057fe5b6020026020010151611059565b604051602001610a3e929190613b60565b60405160208183030381529060405291508080600101915050610a07565b5080915050919050565b60606000610a778360000151611929565b610a848460200151611929565b610a918560400151610eee565b610a9e8660600151610db2565b610aab876080015161152c565b610ab88860a00151611b58565b610ac88960c0015160070b611645565b610ad88a60e0015160070b611645565b610ae98b610100015160070b611645565b604051602001610b0199989796959493929190613db2565b60405160208183030381529060405290506000610b2284610120015161160e565b610b3085610140015161160e565b610b3e86610160015161160e565b610b4c87610180015161160e565b610b5a886101a00151611b58565b610b68896101c00151611b58565b610b768a6101e00151611b58565b610b848b6102000151611b58565b610b928c6102200151611b58565b610ba08d6102400151611b58565b610bae8e610260015161152c565b610bbc8f6102800151611b58565b604051602001610bd79c9b9a99989796959493929190613e31565b60405160208183030381529060405290508181604051602001610bfb929190613b60565b60405160208183030381529060405292505050919050565b606060008251905060008167ffffffffffffffff81118015610c3457600080fd5b506040519080825280601f01601f191660200182016040528015610c675781602001600182028036833780820191505090505b50905060005b82811015610cd9578460018285030381518110610c8657fe5b602001015160f81c60f81b828281518110610c9d57fe5b60200101907effffffffffffffffffffffffffffffffffffffffffffffffffffffffffffff1916908160001a9053508080600101915050610c6d565b819350505050919050565b6060600082604051602001610cf99190613fcf565b6040516020818303038152906040529050610d1381610c13565b915050919050565b6060610d2a8260400151610eee565b610d37836000015161109c565b610d44846020015161109c565b610d518560400151610eee565b610d5e866060015161179d565b610d6b87608001516116cd565b610d788860a001516116cd565b610d858960c001516116cd565b604051602001610d9c989796959493929190613cbd565b6040516020818303038152906040529050919050565b606080610dbf8351611817565b905060005b8351811015610e305781848281518110610dda57fe5b6020026020010151604051602001610df29190613f63565b604051602081830303815290604052604051602001610e12929190613b60565b60405160208183030381529060405291508080600101915050610dc4565b5080915050919050565b6060610e4982600001516116cd565b610e56836020015161179d565b604051602001610e67929190613b60565b6040516020818303038152906040529050919050565b606080610e8a8351611817565b905060005b8351811015610ee45781610eb5858381518110610ea857fe5b60200260200101516118e6565b604051602001610ec6929190613b60565b60405160208183030381529060405291508080600101915050610e8f565b5080915050919050565b6060600082604051602001610f039190613acc565b604051602081830303815290604052905080915050919050565b6060610f2c8260000151610eee565b610f398360200151610d1b565b604051602001610f4a929190613b60565b6040516020818303038152906040529050919050565b610f68611e36565b60005b600115610fb65760008385015190506007840263ffffffff16607f821660ff1663ffffffff16901b820191508380600101945050607f8160ff1611610fb05750610fb6565b50610f6b565b60405180604001604052808463ffffffff1681526020018263ffffffff1681525091505092915050565b6060808215610ff657610ff38451611817565b90505b60005b845181101561104e578161101f86838151811061101257fe5b60200260200101516110fc565b604051602001611030929190613b60565b60405160208183030381529060405291508080600101915050610ff9565b508091505092915050565b606061106882600001516113f2565b6110758360200151610eee565b604051602001611086929190613b60565b6040516020818303038152906040529050919050565b60606000826040516020016110b19190613efb565b60405160208183030381529060405290506110cb81610c13565b915050919050565b6060816040516020016110e69190613b02565b6040516020818303038152906040529050919050565b60606000611113836000015163ffffffff16611645565b611124846020015160000151610eee565b61113f85602001516020015167ffffffffffffffff16611645565b604051602001611150929190613b60565b604051602081830303815290604052611172856040015163ffffffff16611645565b61117f8660600151610eee565b61118c8760800151611645565b6111998860a001516116fe565b6111a68960c00151610eee565b6040516020016111bc9796959493929190613c58565b6040516020818303038152906040529050600061040084604001511663ffffffff16111561121657806111f3846101000151610eee565b604051602001611204929190613b60565b60405160208183030381529060405290505b6000604084604001511663ffffffff16111561125d578061123a8460e00151610eee565b60405160200161124b929190613b60565b60405160208183030381529060405290505b80915050919050565b606060006112778360000151611929565b6112848460200151611929565b6112918560400151610eee565b6112a66112a187606001516116cd565b610c13565b6112b38760c00151610eee565b6112c08860e00151610eee565b6040516020016112d596959493929190613c00565b604051602081830303815290604052905060006112fb846080015163ffffffff16611645565b61130e8560a0015163ffffffff16611645565b61131c86610100015161179d565b61132a8761012001516114bb565b6113388861014001516114bb565b6113468961016001516114bb565b6113548a61018001516116fe565b6113628b6101a00151611dff565b600060f81b60405160200161137f99989796959493929190613d2f565b604051602081830303815290604052905081816040516020016113a3929190613b60565b60405160208183030381529060405292505050919050565b60606000826040516020016113d09190613fea565b60405160208183030381529060405290506113ea81610c13565b915050919050565b606080826040516020016114069190613f4c565b60405160208183030381529060405290506114218151611817565b83604051602001611433929190613ed7565b604051602081830303815290604052915050919050565b6060806114578351611817565b905060005b83518110156114b1578161148285838151811061147557fe5b6020026020010151610f1d565b604051602001611493929190613b60565b6040516020818303038152906040529150808060010191505061145c565b5080915050919050565b6060806114c88351611645565b905060005b835181101561152257816114f38583815181106114e657fe5b60200260200101516117d4565b604051602001611504929190613b60565b604051602081830303815290604052915080806001019150506114cd565b5080915050919050565b6060806115398351611817565b905060005b8351811015611593578161156485838151811061155757fe5b6020026020010151611dff565b604051602001611575929190613b60565b6040516020818303038152906040529150808060010191505061153e565b5080915050919050565b6060806115aa8351611817565b905060005b835181101561160457816115d58583815181106115c857fe5b6020026020010151610d1b565b6040516020016115e6929190613b60565b604051602081830303815290604052915080806001019150506115af565b5080915050919050565b60606000826040516020016116239190613f31565b604051602081830303815290604052905061163d81610c13565b915050919050565b60606000606060005b6001156116ba576000811415611665576000611668565b60805b607f86161760f81b92508183604051602001611685929190613b38565b6040516020818303038152906040529150607f85116116a3576116ba565b6001600786901c039450808060010191505061164e565b6116c382610c13565b9350505050919050565b60606116f7826040516020016116e39190613b1d565b604051602081830303815290604052610c13565b9050919050565b606061170d82600001516113bb565b61171b836020015151611817565b836020015160405160200161173293929190613b84565b6040516020818303038152906040529050919050565b6060611753866113f2565b61175c86610eee565b6117658661160e565b61176e86610eee565b85604051602001611783959493929190613bb5565b604051602081830303815290604052905095945050505050565b60606000826040516020016117b29190613fb4565b60405160208183030381529060405290506117cc81610c13565b915050919050565b60606117e38260000151610eee565b6117f08360200151610ce4565b604051602001611801929190613b60565b6040516020818303038152906040529050919050565b60608060fd60ff1683101561184d57826040516020016118379190613fea565b60405160208183030381529060405290506118dd565b61ffff83116118805760fd8360405160200161186a929190614005565b60405160208183030381529060405290506118dc565b63ffffffff83116118b55760fe8360405160200161189f929190614031565b60405160208183030381529060405290506118db565b60ff836040516020016118c992919061405d565b60405160208183030381529060405290505b5b5b80915050919050565b60606118f58260000151610eee565b6119028360200151610a66565b604051602001611913929190613b60565b6040516020818303038152906040529050919050565b606060008260405160200161193e9190613f7e565b604051602081830303815290604052905061195881610c13565b915050919050565b6060611975826000015163ffffffff16611645565b611988836020015163ffffffff16611645565b61199584604001516116fe565b6119a28560600151610eee565b6119af8660800151610a66565b6119bc8760a0015161179d565b6119c98860c00151610e3a565b6119d68960e001516116cd565b6119e48a610100015161179d565b6119f28b6101200151610e7d565b611a008c610140015161159d565b611a0e8d61016001516109f5565b604051602001611a299c9b9a99989796959493929190613e31565b6040516020818303038152906040529050919050565b611a47611e36565b6000828401519050828060010193505060fd8160ff161015611a8f5760405180604001604052808463ffffffff1681526020018260ff1663ffffffff16815250915050611b1b565b60fd8160ff161415611af55782840151905060008160ff169050838060010194505083850151915060405180604001604052806001860163ffffffff1681526020018360ff1660088461ffff16901b0161ffff1663ffffffff1681525092505050611b1b565b60405180604001604052808463ffffffff168152602001600063ffffffff168152509150505b92915050565b6060600082604051602001611b369190613f99565b6040516020818303038152906040529050611b5081610c13565b915050919050565b606080611b658351611817565b905060005b8351811015611bde5781611baf858381518110611b8357fe5b6020026020010151604051602001611b9b9190613f31565b604051602081830303815290604052610c13565b604051602001611bc0929190613b60565b60405160208183030381529060405291508080600101915050611b6a565b5080915050919050565b611bf0611e5c565b6000806000806000806000601c9050600060149050819750878a01519550600188019750878a0151965085896000019073ffffffffffffffffffffffffffffffffffffffff16908173ffffffffffffffffffffffffffffffffffffffff168152505060008760ff1667ffffffffffffffff81118015611c6e57600080fd5b506040519080825280601f01601f191660200182016040528015611ca15781602001600182028036833780820191505090505b50905060005b8860ff16811015611d19578b8a63ffffffff16820181518110611cc657fe5b602001015160f81c60f81b828281518110611cdd57fe5b60200101907effffffffffffffffffffffffffffffffffffffffffffffffffffffffffffff1916908160001a9053508080600101915050611ca7565b50808a60200181905250818860ff168a01019850888b015195508189019850888b015194508189019850888b01519350858a6040019073ffffffffffffffffffffffffffffffffffffffff16908173ffffffffffffffffffffffffffffffffffffffff1681525050848a6060019073ffffffffffffffffffffffffffffffffffffffff16908173ffffffffffffffffffffffffffffffffffffffff1681525050838a6080019073ffffffffffffffffffffffffffffffffffffffff16908173ffffffffffffffffffffffffffffffffffffffff1681525050505050505050505050919050565b6060600082604051602001611e149190613f16565b6040516020818303038152906040529050611e2e81610c13565b915050919050565b6040518060400160405280600063ffffffff168152602001600063ffffffff1681525090565b6040518060a00160405280600073ffffffffffffffffffffffffffffffffffffffff16815260200160608152602001600073ffffffffffffffffffffffffffffffffffffffff168152602001600073ffffffffffffffffffffffffffffffffffffffff168152602001600073ffffffffffffffffffffffffffffffffffffffff1681525090565b6000611ef6611ef184614119565b6140e8565b90508083825260208201905082856020860282011115611f1557600080fd5b60005b85811015611f455781611f2b888261250d565b845260208401935060208301925050600181019050611f18565b5050509392505050565b6000611f62611f5d84614145565b6140e8565b90508083825260208201905082856020860282011115611f8157600080fd5b60005b85811015611fb15781611f978882612522565b845260208401935060208301925050600181019050611f84565b5050509392505050565b6000611fce611fc984614171565b6140e8565b90508083825260208201905082856040860282011115611fed57600080fd5b60005b8581101561201d578161200388826129f7565b845260208401935060408301925050600181019050611ff0565b5050509392505050565b600061203a6120358461419d565b6140e8565b9050808382526020820190508260005b8581101561207a57813585016120608882612a43565b84526020840193506020830192505060018101905061204a565b5050509392505050565b6000612097612092846141c9565b6140e8565b905080838252602082019050828560e08602820111156120b657600080fd5b60005b858110156120e657816120cc8882612c3e565b845260208401935060e083019250506001810190506120b9565b5050509392505050565b60006121036120fe846141f5565b6140e8565b9050808382526020820190508260005b8581101561214357813585016121298882612cee565b845260208401935060208301925050600181019050612113565b5050509392505050565b600061216061215b84614221565b6140e8565b9050808382526020820190508260005b858110156121a057813585016121868882612e93565b845260208401935060208301925050600181019050612170565b5050509392505050565b60006121bd6121b88461424d565b6140e8565b90508083825260208201905082856101008602820111156121dd57600080fd5b60005b8581101561220e57816121f38882612ef7565b845260208401935061010083019250506001810190506121e0565b5050509392505050565b600061222b61222684614279565b6140e8565b9050808382526020820190508285602086028201111561224a57600080fd5b60005b8581101561227a57816122608882612f59565b84526020840193506020830192505060018101905061224d565b5050509392505050565b6000612297612292846142a5565b6140e8565b9050828152602081018484840111156122af57600080fd5b6122ba848285614463565b509392505050565b60006122d56122d0846142d5565b6140e8565b9050828152602081018484840111156122ed57600080fd5b6122f8848285614463565b509392505050565b60008135905061230f816145d5565b92915050565b600082601f83011261232657600080fd5b8135612336848260208601611ee3565b91505092915050565b600082601f83011261235057600080fd5b8135612360848260208601611f4f565b91505092915050565b600082601f83011261237a57600080fd5b813561238a848260208601611fbb565b91505092915050565b600082601f8301126123a457600080fd5b81356123b4848260208601612027565b91505092915050565b600082601f8301126123ce57600080fd5b81356123de848260208601612084565b91505092915050565b600082601f8301126123f857600080fd5b81356124088482602086016120f0565b91505092915050565b600082601f83011261242257600080fd5b813561243284826020860161214d565b91505092915050565b600082601f83011261244c57600080fd5b813561245c8482602086016121aa565b91505092915050565b600082601f83011261247657600080fd5b8135612486848260208601612218565b91505092915050565b60008135905061249e816145ec565b92915050565b6000813590506124b381614603565b92915050565b6000813590506124c88161461a565b92915050565b600082601f8301126124df57600080fd5b81356124ef848260208601612284565b91505092915050565b60008135905061250781614631565b92915050565b60008135905061251c81614648565b92915050565b6000813590506125318161465f565b92915050565b600082601f83011261254857600080fd5b81356125588482602086016122c2565b91505092915050565b60006102a0828403121561257457600080fd5b61257f6102a06140e8565b9050600061258f84828501612f44565b60008301525060206125a384828501612f44565b60208301525060406125b784828501612300565b604083015250606082013567ffffffffffffffff8111156125d757600080fd5b6125e384828501612465565b606083015250608082013567ffffffffffffffff81111561260357600080fd5b61260f84828501612315565b60808301525060a082013567ffffffffffffffff81111561262f57600080fd5b61263b8482850161233f565b60a08301525060c061264f84828501612522565b60c08301525060e061266384828501612522565b60e08301525061010061267884828501612522565b6101008301525061012061268e84828501612522565b610120830152506101406126a484828501612522565b610140830152506101606126ba84828501612522565b610160830152506101806126d084828501612522565b610180830152506101a082013567ffffffffffffffff8111156126f257600080fd5b6126fe8482850161233f565b6101a0830152506101c082013567ffffffffffffffff81111561272057600080fd5b61272c8482850161233f565b6101c0830152506101e082013567ffffffffffffffff81111561274e57600080fd5b61275a8482850161233f565b6101e08301525061020082013567ffffffffffffffff81111561277c57600080fd5b6127888482850161233f565b6102008301525061022082013567ffffffffffffffff8111156127aa57600080fd5b6127b68482850161233f565b6102208301525061024082013567ffffffffffffffff8111156127d857600080fd5b6127e48482850161233f565b6102408301525061026082013567ffffffffffffffff81111561280657600080fd5b61281284828501612315565b6102608301525061028082013567ffffffffffffffff81111561283457600080fd5b6128408482850161233f565b6102808301525092915050565b60006101c0828403121561286057600080fd5b61286b6101c06140e8565b9050600061287b84828501612f44565b600083015250602061288f84828501612f44565b60208301525060406128a384828501612300565b60408301525060606128b7848285016124b9565b60608301525060806128cb84828501612f83565b60808301525060a06128df84828501612f83565b60a08301525060c06128f384828501612300565b60c08301525060e061290784828501612300565b60e08301525061010061291c84828501612f83565b6101008301525061012082013567ffffffffffffffff81111561293e57600080fd5b61294a84828501612369565b6101208301525061014082013567ffffffffffffffff81111561296c57600080fd5b61297884828501612369565b6101408301525061016082013567ffffffffffffffff81111561299a57600080fd5b6129a684828501612369565b6101608301525061018082013567ffffffffffffffff8111156129c857600080fd5b6129d484828501612de3565b610180830152506101a06129ea8482850161250d565b6101a08301525092915050565b600060408284031215612a0957600080fd5b612a1360406140e8565b90506000612a2384828501612300565b6000830152506020612a3784828501612f98565b60208301525092915050565b600060408284031215612a5557600080fd5b612a5f60406140e8565b9050600082013567ffffffffffffffff811115612a7b57600080fd5b612a8784828501612537565b6000830152506020612a9b84828501612300565b60208301525092915050565b60006101a08284031215612aba57600080fd5b612ac56101806140e8565b90506000612ad584828501612f83565b6000830152506020612ae984828501612f83565b602083015250604082013567ffffffffffffffff811115612b0957600080fd5b612b1584828501612de3565b6040830152506060612b2984828501612300565b606083015250608082013567ffffffffffffffff811115612b4957600080fd5b612b5584828501612561565b60808301525060a0612b6984828501612f83565b60a08301525060c0612b7d84828501612e47565b60c083015250610100612b92848285016124b9565b60e083015250610120612ba784828501612f83565b6101008301525061014082013567ffffffffffffffff811115612bc957600080fd5b612bd584828501612411565b6101208301525061016082013567ffffffffffffffff811115612bf757600080fd5b612c03848285016123bd565b6101408301525061018082013567ffffffffffffffff811115612c2557600080fd5b612c3184828501612393565b6101608301525092915050565b600060e08284031215612c5057600080fd5b612c5a60e06140e8565b90506000612c6a848285016124f8565b6000830152506020612c7e848285016124f8565b6020830152506040612c9284828501612300565b6040830152506060612ca684828501612f83565b6060830152506080612cba848285016124b9565b60808301525060a0612cce848285016124b9565b60a08301525060c0612ce2848285016124b9565b60c08301525092915050565b60006101408284031215612d0157600080fd5b612d0c6101206140e8565b90506000612d1c84828501612f83565b6000830152506020612d30848285016129f7565b6020830152506060612d4484828501612f83565b6040830152506080612d5884828501612300565b60608301525060a0612d6c84828501612f6e565b60808301525060c082013567ffffffffffffffff811115612d8c57600080fd5b612d9884828501612de3565b60a08301525060e0612dac84828501612300565b60c083015250610100612dc184828501612300565b60e083015250610120612dd684828501612300565b6101008301525092915050565b600060408284031215612df557600080fd5b612dff60406140e8565b90506000612e0f84828501612fad565b600083015250602082013567ffffffffffffffff811115612e2f57600080fd5b612e3b848285016124ce565b60208301525092915050565b600060408284031215612e5957600080fd5b612e6360406140e8565b90506000612e73848285016124b9565b6000830152506020612e8784828501612f83565b60208301525092915050565b600060408284031215612ea557600080fd5b612eaf60406140e8565b90506000612ebf84828501612300565b600083015250602082013567ffffffffffffffff811115612edf57600080fd5b612eeb84828501612561565b60208301525092915050565b60006101008284031215612f0a57600080fd5b612f1460406140e8565b90506000612f2484828501612300565b6000830152506020612f3884828501612c3e565b60208301525092915050565b600081359050612f5381614676565b92915050565b600081359050612f688161468d565b92915050565b600081359050612f7d816146a4565b92915050565b600081359050612f92816146bb565b92915050565b600081359050612fa7816146d2565b92915050565b600081359050612fbc816146e9565b92915050565b600060208284031215612fd457600080fd5b6000612fe284828501612300565b91505092915050565b600060208284031215612ffd57600080fd5b600082013567ffffffffffffffff81111561301757600080fd5b61302384828501612315565b91505092915050565b60006020828403121561303e57600080fd5b600082013567ffffffffffffffff81111561305857600080fd5b6130648482850161233f565b91505092915050565b60006020828403121561307f57600080fd5b600082013567ffffffffffffffff81111561309957600080fd5b6130a584828501612369565b91505092915050565b6000602082840312156130c057600080fd5b600082013567ffffffffffffffff8111156130da57600080fd5b6130e684828501612393565b91505092915050565b60006020828403121561310157600080fd5b600082013567ffffffffffffffff81111561311b57600080fd5b613127848285016123bd565b91505092915050565b6000806040838503121561314357600080fd5b600083013567ffffffffffffffff81111561315d57600080fd5b613169858286016123e7565b925050602061317a8582860161248f565b9150509250929050565b60006020828403121561319657600080fd5b600082013567ffffffffffffffff8111156131b057600080fd5b6131bc84828501612411565b91505092915050565b6000602082840312156131d757600080fd5b600082013567ffffffffffffffff8111156131f157600080fd5b6131fd8482850161243b565b91505092915050565b60006020828403121561321857600080fd5b600082013567ffffffffffffffff81111561323257600080fd5b61323e84828501612465565b91505092915050565b60006020828403121561325957600080fd5b60006132678482850161248f565b91505092915050565b60006020828403121561328257600080fd5b6000613290848285016124a4565b91505092915050565b6000602082840312156132ab57600080fd5b60006132b9848285016124b9565b91505092915050565b6000602082840312156132d457600080fd5b600082013567ffffffffffffffff8111156132ee57600080fd5b6132fa848285016124ce565b91505092915050565b6000806040838503121561331657600080fd5b600083013567ffffffffffffffff81111561333057600080fd5b61333c858286016124ce565b925050602061334d85828601612f83565b9150509250929050565b60006020828403121561336957600080fd5b6000613377848285016124f8565b91505092915050565b60006020828403121561339257600080fd5b60006133a08482850161250d565b91505092915050565b6000602082840312156133bb57600080fd5b60006133c984828501612522565b91505092915050565b6000602082840312156133e457600080fd5b600082013567ffffffffffffffff8111156133fe57600080fd5b61340a84828501612537565b91505092915050565b600080600080600060a0868803121561342b57600080fd5b600086013567ffffffffffffffff81111561344557600080fd5b61345188828901612537565b955050602061346288828901612300565b945050604061347388828901612522565b935050606061348488828901612300565b925050608086013567ffffffffffffffff8111156134a157600080fd5b6134ad888289016124ce565b9150509295509295909350565b6000602082840312156134cc57600080fd5b600082013567ffffffffffffffff8111156134e657600080fd5b6134f284828501612561565b91505092915050565b60006020828403121561350d57600080fd5b600082013567ffffffffffffffff81111561352757600080fd5b6135338482850161284d565b91505092915050565b60006040828403121561354e57600080fd5b600061355c848285016129f7565b91505092915050565b60006020828403121561357757600080fd5b600082013567ffffffffffffffff81111561359157600080fd5b61359d84828501612a43565b91505092915050565b6000602082840312156135b857600080fd5b600082013567ffffffffffffffff8111156135d257600080fd5b6135de84828501612aa7565b91505092915050565b600060e082840312156135f957600080fd5b600061360784828501612c3e565b91505092915050565b60006020828403121561362257600080fd5b600082013567ffffffffffffffff81111561363c57600080fd5b61364884828501612cee565b91505092915050565b60006020828403121561366357600080fd5b600082013567ffffffffffffffff81111561367d57600080fd5b61368984828501612de3565b91505092915050565b6000604082840312156136a457600080fd5b60006136b284828501612e47565b91505092915050565b6000602082840312156136cd57600080fd5b600082013567ffffffffffffffff8111156136e757600080fd5b6136f384828501612e93565b91505092915050565b6000610100828403121561370f57600080fd5b600061371d84828501612ef7565b91505092915050565b60006020828403121561373857600080fd5b600061374684828501612f44565b91505092915050565b60006020828403121561376157600080fd5b600061376f84828501612f6e565b91505092915050565b60006020828403121561378a57600080fd5b600061379884828501612f83565b91505092915050565b6000602082840312156137b357600080fd5b60006137c184828501612f98565b91505092915050565b6000602082840312156137dc57600080fd5b60006137ea84828501612fad565b91505092915050565b6137fc81614353565b82525050565b61381361380e82614353565b6144a5565b82525050565b61382a61382582614365565b6144b7565b82525050565b61384161383c82614371565b6144c9565b82525050565b6138586138538261439d565b6144d3565b82525050565b61386f61386a826143c9565b6144dd565b82525050565b600061388082614305565b61388a818561431b565b935061389a818560208601614472565b6138a381614583565b840191505092915050565b60006138b982614305565b6138c3818561432c565b93506138d3818560208601614472565b80840191505092915050565b6138f06138eb826143d3565b6144e7565b82525050565b613907613902826143e0565b6144f9565b82525050565b61391e613919826143ed565b61450b565b82525050565b600061392f82614310565b6139398185614337565b9350613949818560208601614472565b61395281614583565b840191505092915050565b600061396882614310565b6139728185614348565b9350613982818560208601614472565b80840191505092915050565b600060a0830160008301516139a660008601826137f3565b50602083015184820360208601526139be8282613924565b91505060408301516139d360408601826137f3565b5060608301516139e660608601826137f3565b5060808301516139f960808601826137f3565b508091505092915050565b604082016000820151613a1a6000850182613a78565b506020820151613a2d6020850182613a78565b50505050565b613a44613a3f82614408565b61452f565b82525050565b613a5b613a56826143fa565b61451d565b82525050565b613a72613a6d82614428565b614541565b82525050565b613a8181614432565b82525050565b613a98613a9382614432565b61454b565b82525050565b613aaf613aaa82614442565b61455d565b82525050565b613ac6613ac182614456565b61456f565b82525050565b6000613ad88284613802565b60148201915081905092915050565b6000613af38284613819565b60018201915081905092915050565b6000613b0e8284613847565b60148201915081905092915050565b6000613b29828461385e565b60208201915081905092915050565b6000613b4482856138ae565b9150613b508284613830565b6001820191508190509392505050565b6000613b6c82856138ae565b9150613b7882846138ae565b91508190509392505050565b6000613b9082866138ae565b9150613b9c82856138ae565b9150613ba882846138ae565b9150819050949350505050565b6000613bc182886138ae565b9150613bcd82876138ae565b9150613bd982866138ae565b9150613be582856138ae565b9150613bf182846138ae565b91508190509695505050505050565b6000613c0c82896138ae565b9150613c1882886138ae565b9150613c2482876138ae565b9150613c3082866138ae565b9150613c3c82856138ae565b9150613c4882846138ae565b9150819050979650505050505050565b6000613c64828a6138ae565b9150613c7082896138ae565b9150613c7c82886138ae565b9150613c8882876138ae565b9150613c9482866138ae565b9150613ca082856138ae565b9150613cac82846138ae565b915081905098975050505050505050565b6000613cc9828b6138ae565b9150613cd5828a6138ae565b9150613ce182896138ae565b9150613ced82886138ae565b9150613cf982876138ae565b9150613d0582866138ae565b9150613d1182856138ae565b9150613d1d82846138ae565b91508190509998505050505050505050565b6000613d3b828c6138ae565b9150613d47828b6138ae565b9150613d53828a6138ae565b9150613d5f82896138ae565b9150613d6b82886138ae565b9150613d7782876138ae565b9150613d8382866138ae565b9150613d8f82856138ae565b9150613d9b8284613830565b6001820191508190509a9950505050505050505050565b6000613dbe828c6138ae565b9150613dca828b6138ae565b9150613dd6828a6138ae565b9150613de282896138ae565b9150613dee82886138ae565b9150613dfa82876138ae565b9150613e0682866138ae565b9150613e1282856138ae565b9150613e1e82846138ae565b91508190509a9950505050505050505050565b6000613e3d828f6138ae565b9150613e49828e6138ae565b9150613e55828d6138ae565b9150613e61828c6138ae565b9150613e6d828b6138ae565b9150613e79828a6138ae565b9150613e8582896138ae565b9150613e9182886138ae565b9150613e9d82876138ae565b9150613ea982866138ae565b9150613eb582856138ae565b9150613ec182846138ae565b91508190509d9c50505050505050505050505050565b6000613ee382856138ae565b9150613eef828461395d565b91508190509392505050565b6000613f0782846138df565b60028201915081905092915050565b6000613f2282846138f6565b60048201915081905092915050565b6000613f3d828461390d565b60088201915081905092915050565b6000613f58828461395d565b915081905092915050565b6000613f6f8284613a33565b60148201915081905092915050565b6000613f8a8284613a4a565b60028201915081905092915050565b6000613fa58284613a61565b60208201915081905092915050565b6000613fc08284613a87565b60048201915081905092915050565b6000613fdb8284613a9e565b60088201915081905092915050565b6000613ff68284613ab5565b60018201915081905092915050565b60006140118285613ab5565b6001820191506140218284613a4a565b6002820191508190509392505050565b600061403d8285613ab5565b60018201915061404d8284613a87565b6004820191508190509392505050565b60006140698285613ab5565b6001820191506140798284613a9e565b6008820191508190509392505050565b600060208201905081810360008301526140a38184613875565b905092915050565b600060208201905081810360008301526140c5818461398e565b905092915050565b60006040820190506140e26000830184613a04565b92915050565b6000604051905081810181811067ffffffffffffffff8211171561410f5761410e614581565b5b8060405250919050565b600067ffffffffffffffff82111561413457614133614581565b5b602082029050602081019050919050565b600067ffffffffffffffff8211156141605761415f614581565b5b602082029050602081019050919050565b600067ffffffffffffffff82111561418c5761418b614581565b5b602082029050602081019050919050565b600067ffffffffffffffff8211156141b8576141b7614581565b5b602082029050602081019050919050565b600067ffffffffffffffff8211156141e4576141e3614581565b5b602082029050602081019050919050565b600067ffffffffffffffff8211156142105761420f614581565b5b602082029050602081019050919050565b600067ffffffffffffffff82111561423c5761423b614581565b5b602082029050602081019050919050565b600067ffffffffffffffff82111561426857614267614581565b5b602082029050602081019050919050565b600067ffffffffffffffff82111561429457614293614581565b5b602082029050602081019050919050565b600067ffffffffffffffff8211156142c0576142bf614581565b5b601f19601f8301169050602081019050919050565b600067ffffffffffffffff8211156142f0576142ef614581565b5b601f19601f8301169050602081019050919050565b600081519050919050565b600081519050919050565b600082825260208201905092915050565b600081905092915050565b600082825260208201905092915050565b600081905092915050565b600061435e82614408565b9050919050565b60008115159050919050565b60007fff0000000000000000000000000000000000000000000000000000000000000082169050919050565b60007fffffffffffffffffffffffffffffffffffffffff00000000000000000000000082169050919050565b6000819050919050565b60008160010b9050919050565b60008160030b9050919050565b60008160070b9050919050565b600061ffff82169050919050565b600073ffffffffffffffffffffffffffffffffffffffff82169050919050565b6000819050919050565b600063ffffffff82169050919050565b600067ffffffffffffffff82169050919050565b600060ff82169050919050565b82818337600083830152505050565b60005b83811015614490578082015181840152602081019050614475565b8381111561449f576000848401525b50505050565b60006144b08261452f565b9050919050565b60006144c28261456f565b9050919050565b6000819050919050565b6000819050919050565b6000819050919050565b60006144f2826145ae565b9050919050565b6000614504826145a1565b9050919050565b600061451682614594565b9050919050565b6000614528826145ae565b9050919050565b600061453a826145c8565b9050919050565b6000819050919050565b6000614556826145a1565b9050919050565b600061456882614594565b9050919050565b600061457a826145bb565b9050919050565bfe5b6000601f19601f8301169050919050565b60008160c01b9050919050565b60008160e01b9050919050565b60008160f01b9050919050565b60008160f81b9050919050565b60008160601b9050919050565b6145de81614353565b81146145e957600080fd5b50565b6145f581614365565b811461460057600080fd5b50565b61460c8161439d565b811461461757600080fd5b50565b614623816143c9565b811461462e57600080fd5b50565b61463a816143d3565b811461464557600080fd5b50565b614651816143e0565b811461465c57600080fd5b50565b614668816143ed565b811461467357600080fd5b50565b61467f816143fa565b811461468a57600080fd5b50565b61469681614408565b81146146a157600080fd5b50565b6146ad81614428565b81146146b857600080fd5b50565b6146c481614432565b81146146cf57600080fd5b50565b6146db81614442565b81146146e657600080fd5b50565b6146f281614456565b81146146fd57600080fd5b5056fea2646970667358221220882d65882faac24fb5cdba477cb2b0552d05b3bab7b6e2772575b51b9bf90fb164736f6c63430007060033",
  "immutableReferences": {},
  "source": "// SPDX-License-Identifier: MIT\n// Bridge between ethereum and verus\n\npragma solidity >=0.6.0 < 0.9.0;\npragma experimental ABIEncoderV2;   \nimport \"../Libraries/VerusObjects.sol\";\nimport \"../Libraries/VerusObjectsNotarization.sol\";\n\ncontract VerusSerializer {\n\n\n\n    function readVarUintLE(bytes memory incoming, uint32 offset) public pure returns(VerusObjectsCommon.UintReader memory) {\n        uint32 retVal = 0;\n        while (true)\n        {\n            uint8 oneByte;\n            assembly {\n                oneByte := mload(add(incoming, offset))\n            }\n            retVal += (uint32)(oneByte & 0x7f) << (offset * 7);\n            offset++;\n            if (oneByte <= 0x7f)\n            {\n                break;\n            }\n        }\n        return VerusObjectsCommon.UintReader(offset, retVal);\n    }\n\n    // uses the varint encoding from Bitcoin script pushes\n    // this does not support numbers larger than uint16, and if it encounters one or any invalid data, it returns a value of \n    // zero and the original offset\n    function readCompactSizeLE(bytes memory incoming, uint32 offset) public pure returns(VerusObjectsCommon.UintReader memory) {\n\n        uint8 oneByte;\n        assembly {\n            oneByte := mload(add(incoming, offset))\n        }\n        offset++;\n        if (oneByte < 253)\n        {\n            return VerusObjectsCommon.UintReader(offset, oneByte);\n        }\n        else if (oneByte == 253)\n        {\n            assembly {\n                oneByte := mload(add(incoming, offset))\n            }\n            uint16 twoByte = oneByte;\n            offset++;\n            assembly {\n                oneByte := mload(add(incoming, offset))\n            }\n            return VerusObjectsCommon.UintReader(offset + 1, (twoByte << 8) + oneByte);\n        }\n        return VerusObjectsCommon.UintReader(offset, 0);\n    }\n\n    function writeVarInt(uint256 incoming) public pure returns(bytes memory) {\n        bytes1 inProgress;\n        bytes memory output;\n        uint len = 0;\n        while(true){\n            inProgress = bytes1(uint8(incoming & 0x7f) | (len!=0 ? 0x80:0x00));\n            output = abi.encodePacked(output,inProgress);\n            if(incoming <= 0x7f) break;\n            incoming = (incoming >> 7) -1;\n            len++;\n        }\n        return flipArray(output);\n    }\n    \n    function writeCompactSize(uint newNumber) public pure returns(bytes memory) {\n        bytes memory output;\n        if (newNumber < uint8(253))\n        {   \n            output = abi.encodePacked(uint8(newNumber));\n        }\n        else if (newNumber <= 0xFFFF)\n        {   \n            output = abi.encodePacked(uint8(253),uint16(newNumber));\n        }\n        else if (newNumber <= 0xFFFFFFFF)\n        {   \n            output = abi.encodePacked(uint8(254),uint32(newNumber));\n        }\n        else\n        {\n            output = abi.encodePacked(uint8(255),uint64(newNumber));\n        }\n        return output;\n    }\n\n    \n    function verusHashPrefix(string memory prefix,address systemID,int64 blockHeight,address signingID, bytes memory messageToHash) public pure returns(bytes memory){\n        return abi.encodePacked(serializeString(prefix),serializeAddress(systemID),serializeInt64(blockHeight),serializeAddress(signingID),messageToHash);    \n    }\n    \n    //serialize functions\n\n    function serializeBool(bool anyBool) public pure returns(bytes memory){\n        return abi.encodePacked(anyBool);\n    }\n    \n    function serializeString(string memory anyString) public pure returns(bytes memory){\n        //naturally BigEndian\n        bytes memory be;\n        be = abi.encodePacked(anyString);\n        return abi.encodePacked(writeCompactSize(be.length),anyString);\n        //return abi.encodePacked(anyString);\n    }\n\n    function serializeBytes20(bytes20 anyBytes20) public pure returns(bytes memory){\n        //naturally BigEndian\n        return abi.encodePacked(anyBytes20);\n    }\n    function serializeBytes32(bytes32 anyBytes32) public pure returns(bytes memory){\n        //naturally BigEndian\n        return flipArray(abi.encodePacked(anyBytes32));\n    }\n\n    function serializeUint8(uint8 number) public pure returns(bytes memory){\n        bytes memory be = abi.encodePacked(number);\n        return(flipArray(be));\n    }\n    \n    function serializeUint16(uint16 number) public pure returns(bytes memory){\n        bytes memory be = abi.encodePacked(number);\n        return(flipArray(be));\n    }\n    \n    function serializeUint32(uint32 number) public pure returns(bytes memory){\n        bytes memory be = abi.encodePacked(number);\n        return(flipArray(be));\n    }\n\n    function serializeInt16(int16 number) public pure returns(bytes memory){\n        bytes memory be = abi.encodePacked(number);\n        return(flipArray(be));\n    }\n    \n    function serializeInt32(int32 number) public pure returns(bytes memory){\n        bytes memory be = abi.encodePacked(number);\n        return(flipArray(be));\n    }\n    \n    function serializeInt64(int64 number) public pure returns(bytes memory){\n        bytes memory be = abi.encodePacked(number);\n        return(flipArray(be));\n    }\n\n    function serializeInt32Array(int32[] memory numbers) public pure returns(bytes memory){\n        bytes memory be;\n        be = writeCompactSize((numbers.length));\n        for(uint i = 0;i < numbers.length; i++){\n            be = abi.encodePacked(be,serializeInt32(numbers[i]));\n        }\n        return be;\n    }\n\n    function serializeInt64Array(int64[] memory numbers) public pure returns(bytes memory){\n        bytes memory be;\n        be = writeCompactSize((numbers.length));\n        for(uint i = 0;i < numbers.length; i++){\n            be = abi.encodePacked(be,flipArray(abi.encodePacked(numbers[i])));\n        }\n        return be;\n    }\n\n    function serializeUint64(uint64 number) public pure returns(bytes memory){\n        bytes memory be = abi.encodePacked(number);\n        return(flipArray(be));\n    }\n\n    function serializeAddress(address number) public pure returns(bytes memory){\n        bytes memory be = abi.encodePacked(number);\n        return be;\n    }\n    \n    function serializeUint160Array(uint160[] memory numbers) public pure returns(bytes memory){\n        bytes memory be;\n        be = writeCompactSize((numbers.length));\n        for(uint i = 0;i < numbers.length; i++){\n            be = abi.encodePacked(be,abi.encodePacked(numbers[i]));\n        }\n        return(be);\n    }\n\n    function serializeUint256(uint256 number) public pure returns(bytes memory){\n        bytes memory be = abi.encodePacked(number);\n        return(flipArray(be));\n    }\n    \n    function serializeCTransferDestination(VerusObjectsCommon.CTransferDestination memory ctd) public pure returns(bytes memory){\n        return abi.encodePacked(serializeUint8(ctd.destinationtype),writeCompactSize(ctd.destinationaddress.length),ctd.destinationaddress);\n    }    \n\n    function serializeCCurrencyValueMap(VerusObjects.CCurrencyValueMap memory _ccvm) public pure returns(bytes memory){\n         return abi.encodePacked(serializeAddress(_ccvm.currency),serializeUint64(_ccvm.amount));\n    }\n    \n    function serializeCCurrencyValueMaps(VerusObjects.CCurrencyValueMap[] memory _ccvms) public pure returns(bytes memory){\n        bytes memory inProgress;\n        inProgress = writeVarInt(_ccvms.length);\n        for(uint i=0; i < _ccvms.length; i++){\n            inProgress = abi.encodePacked(inProgress,serializeCCurrencyValueMap(_ccvms[i]));\n        }\n        return inProgress;\n    }\n\n    function serializeCReserveTransfer(VerusObjects.CReserveTransfer memory ct) public pure returns(bytes memory){\n        \n        bytes memory output =  abi.encodePacked(\n            writeVarInt(ct.version),\n            abi.encodePacked(serializeAddress(ct.currencyvalue.currency),writeVarInt(ct.currencyvalue.amount)),//special interpretation of a ccurrencyvalue\n            writeVarInt(ct.flags),\n            serializeAddress(ct.feecurrencyid),\n            writeVarInt(ct.fees),\n            serializeCTransferDestination(ct.destination),\n            serializeAddress(ct.destcurrencyid)\n           );\n           \n        if((ct.flags & 0x400)>0) output = abi.encodePacked(output,serializeAddress(ct.secondreserveid));           \n         //see if its got a cross_system flag\n        if((ct.flags & 0x40)>0) output = abi.encodePacked(output,serializeAddress(ct.destsystemid));\n        \n        return output;\n    }\n    \n    function serializeCReserveTransfers(VerusObjects.CReserveTransfer[] memory _bts, bool includeSize) public pure returns(bytes memory){\n        bytes memory inProgress;\n        \n        if (includeSize) inProgress = writeCompactSize(_bts.length);\n        \n        for(uint i=0; i < _bts.length; i++){\n            inProgress = abi.encodePacked(inProgress,serializeCReserveTransfer(_bts[i]));\n        }\n        return inProgress;\n    }\n\n    function serializeCUTXORef(VerusObjectsNotarization.CUTXORef memory _cutxo) public pure returns(bytes memory){\n        return abi.encodePacked(\n            serializeBytes32(_cutxo.hash),\n            serializeUint32(_cutxo.n)\n        );\n    }\n\n    function serializeCProofRoot(VerusObjectsNotarization.CProofRoot memory _cpr) public pure returns(bytes memory){\n        return abi.encodePacked(\n            serializeAddress(_cpr.systemid),\n            serializeInt16(_cpr.version),\n            serializeInt16(_cpr.cprtype),\n            serializeAddress(_cpr.systemid),\n            serializeUint32(_cpr.rootheight),\n            serializeBytes32(_cpr.stateroot),\n            serializeBytes32(_cpr.blockhash),\n            serializeBytes32(_cpr.compactpower)\n            );\n    }\n\n    function serializeProofRoots(VerusObjectsNotarization.ProofRoots memory _prs) public pure returns(bytes memory){\n        return abi.encodePacked(\n            serializeAddress(_prs.currencyid),\n            serializeCProofRoot(_prs.proofroot)\n        );  \n    }\n\n    function serializeProofRootsArray(VerusObjectsNotarization.ProofRoots[] memory _prsa) public pure returns(bytes memory){\n        bytes memory inProgress;\n        \n        inProgress = writeCompactSize(_prsa.length);\n        for(uint i=0; i < _prsa.length; i++){\n            inProgress = abi.encodePacked(inProgress,serializeProofRoots(_prsa[i]));\n        }\n        return inProgress;\n    }\n    \n    function serializeCProofRootArray(VerusObjectsNotarization.CProofRoot[] memory _prsa) public pure returns(bytes memory){\n        bytes memory inProgress;\n        \n        inProgress = writeCompactSize(_prsa.length);\n        for(uint i=0; i < _prsa.length; i++){\n            inProgress = abi.encodePacked(inProgress,serializeCProofRoot(_prsa[i]));\n        }\n        return inProgress;\n    }\n    \n\n    function serializeCCoinbaseCurrencyState(VerusObjectsNotarization.CCoinbaseCurrencyState memory _cccs) public pure returns(bytes memory){\n        bytes memory part1 = abi.encodePacked(\n            serializeUint16(_cccs.version),\n            serializeUint16(_cccs.flags),\n            serializeAddress(_cccs.currencyid),\n            serializeUint160Array(_cccs.currencies),\n            serializeInt32Array(_cccs.weights),\n            serializeInt64Array(_cccs.reserves),\n            writeVarInt(uint256(_cccs.initialsupply)),\n            writeVarInt(uint256(_cccs.emitted)),\n            writeVarInt(uint256(_cccs.supply))\n        );\n        bytes memory part2 = abi.encodePacked(\n            serializeInt64(_cccs.primarycurrencyout),\n            serializeInt64(_cccs.preconvertedout),\n            serializeInt64(_cccs.primarycurrencyfees),\n            serializeInt64(_cccs.primarycurrencyconversionfees),\n            serializeInt64Array(_cccs.reservein),\n            serializeInt64Array(_cccs.primarycurrencyin),\n            serializeInt64Array(_cccs.reserveout),\n            serializeInt64Array(_cccs.conversionprice),\n            serializeInt64Array(_cccs.viaconversionprice),\n            serializeInt64Array(_cccs.fees),\n            serializeInt32Array(_cccs.priorweights),\n            serializeInt64Array(_cccs.conversionfees)\n        );\n        \n        return abi.encodePacked(part1,part2);\n    }\n\n    function serializeCurrencyStates(VerusObjectsNotarization.CurrencyStates memory _cs) public pure returns(bytes memory){\n        return abi.encodePacked(\n            serializeAddress(_cs.currencyid),\n            serializeCCoinbaseCurrencyState(_cs.currencystate)\n        );\n    }\n\n    function serializeCurrencyStatesArray(VerusObjectsNotarization.CurrencyStates[] memory _csa) public pure returns(bytes memory){\n        bytes memory inProgress;\n        inProgress = writeCompactSize(_csa.length);\n        for(uint i=0; i < _csa.length; i++){\n            inProgress = abi.encodePacked(inProgress,serializeCurrencyStates(_csa[i]));\n        }\n        return inProgress;\n    }\n\n    function serializeCPBaaSNotarization(VerusObjectsNotarization.CPBaaSNotarization memory _not) public pure returns(bytes memory){\n        return abi.encodePacked(\n            writeVarInt(_not.version),\n            writeVarInt(_not.flags),\n            serializeCTransferDestination(_not.proposer),\n            serializeAddress(_not.currencyid),\n            serializeCCoinbaseCurrencyState(_not.currencystate),\n            serializeUint32(_not.notarizationheight),\n            serializeCUTXORef(_not.prevnotarization),\n            serializeBytes32(_not.hashprevnotarization),\n            serializeUint32(_not.prevheight),\n            serializeCurrencyStatesArray(_not.currencystates),\n            serializeCProofRootArray(_not.proofroots),\n            serializeNodes(_not.nodes)\n        );\n    }\n    \n    function serializeNodes(VerusObjectsNotarization.CNodeData[] memory _cnds) public pure returns(bytes memory){\n        bytes memory inProgress;\n        inProgress = writeCompactSize(_cnds.length);\n        for(uint i=0; i < _cnds.length; i++){\n            inProgress = abi.encodePacked(inProgress,serializeCNodeData(_cnds[i]));\n        }\n        return inProgress;\n    }\n\n    function serializeCNodeData(VerusObjectsNotarization.CNodeData memory _cnd) public pure returns(bytes memory){\n        \n        return abi.encodePacked(\n            serializeString(_cnd.networkaddress),\n            serializeAddress(_cnd.nodeidentity)\n        );\n    }\n\n    function serializeCCrossChainExport(VerusObjects.CCrossChainExport memory _ccce) public pure returns(bytes memory){\n        bytes memory part1 = abi.encodePacked(\n            serializeUint16(_ccce.version),\n            serializeUint16(_ccce.flags),\n            serializeAddress(_ccce.sourcesystemid),\n            flipArray(serializeBytes32(_ccce.hashtransfers)),\n            serializeAddress(_ccce.destinationsystemid),\n            serializeAddress(_ccce.destinationcurrencyid));\n        bytes memory part2 = abi.encodePacked(\n            writeVarInt(_ccce.sourceheightstart),\n            writeVarInt(_ccce.sourceheightend),\n            serializeUint32(_ccce.numinputs),\n            serializeCCurrencyValueMaps(_ccce.totalamounts),\n            serializeCCurrencyValueMaps(_ccce.totalfees),\n            serializeCCurrencyValueMaps(_ccce.totalburned),\n            serializeCTransferDestination(_ccce.rewardaddress),\n            serializeInt32(_ccce.firstinput),bytes1(0x00));\n        return abi.encodePacked(part1,part2);\n    }\n\n    function flipArray(bytes memory incoming) public pure returns(bytes memory){\n        uint256 len;\n        len = incoming.length;\n        bytes memory output = new bytes(len);\n        uint256 pos = 0;\n        while(pos < len){\n            output[pos] = incoming[len - pos - 1];\n            pos++;\n        }\n        return output;\n    }\n\n    function deSerializeCurrencyDefinition(bytes memory input)\n         public\n         pure\n         returns (\n             VerusObjects.CcurrencyDefinition memory ccurrencyDefinition\n         )\n    {\n        uint32 nextOffset;\n        uint8 nameStringLength;\n        address parent;\n        address launchSystemID;\n        address systemID;\n        address nativeCurrencyID;\n        uint32 CCC_PREFIX_TO_PARENT = 4 + 4 + 20;\n        uint32 CCC_ID_LEN = 20;\n\n        nextOffset = CCC_PREFIX_TO_PARENT;\n\n        assembly {\n            parent := mload(add(input, nextOffset)) // this should be parent ID\n            nextOffset := add(nextOffset, 1) // and after that...\n            nameStringLength := mload(add(input, nextOffset)) // string length MAX 64 so will always be a byte\n        }\n\n        ccurrencyDefinition.parent = parent;\n\n        bytes memory name = new bytes(nameStringLength);\n\n        for (uint256 i = 0; i < nameStringLength; i++) {\n            name[i] = input[i + nextOffset];\n        }\n\n        ccurrencyDefinition.name = string(name);\n        nextOffset = nextOffset + nameStringLength + CCC_ID_LEN;\n\n        assembly {\n            launchSystemID := mload(add(input, nextOffset)) // this should be launchsysemID\n            nextOffset := add(nextOffset, CCC_ID_LEN)\n            systemID := mload(add(input, nextOffset)) // this should be systemID \n            nextOffset := add(nextOffset, CCC_ID_LEN)\n            nativeCurrencyID := mload(add(input, nextOffset)) //TODO: daemon serilaization to be changed this should be nativeCurrencyID\n        }\n\n        ccurrencyDefinition.launchSystemID = launchSystemID;\n        ccurrencyDefinition.systemID = systemID;\n        ccurrencyDefinition.nativeCurrencyID = nativeCurrencyID;\n    }\n\n}",
  "sourcePath": "/home/chris/Verus-Ethereum-contracts/contracts/VerusBridge/VerusSerializer.sol",
  "compiler": {
    "name": "solc",
    "version": "0.7.6+commit.7338295f.Emscripten.clang"
  },
  "schemaVersion": "3.4.4",
  "updatedAt": "2022-02-23T14:37:01.991Z",
  "networkType": "ethereum",
  "devdoc": {
    "kind": "dev",
    "methods": {},
    "version": 1
  },
  "userdoc": {
    "kind": "user",
    "methods": {},
    "version": 1
  }
}