{
  "contractName": "VerusInfo",
  "abi": [
    {
      "inputs": [
        {
          "internalType": "address",
          "name": "verusNotarizerAddress",
          "type": "address"
        },
        {
          "internalType": "uint256",
          "name": "chainVersion",
          "type": "uint256"
        },
        {
          "internalType": "string",
          "name": "chainVerusVersion",
          "type": "string"
        },
        {
          "internalType": "string",
          "name": "chainName",
          "type": "string"
        },
        {
          "internalType": "bool",
          "name": "chainTestnet",
          "type": "bool"
        }
      ],
      "stateMutability": "nonpayable",
      "type": "constructor"
    },
    {
      "inputs": [],
      "name": "getinfo",
      "outputs": [
        {
          "components": [
            {
              "internalType": "uint256",
              "name": "version",
              "type": "uint256"
            },
            {
              "internalType": "string",
              "name": "VRSCversion",
              "type": "string"
            },
            {
              "internalType": "uint256",
              "name": "blocks",
              "type": "uint256"
            },
            {
              "internalType": "uint256",
              "name": "tiptime",
              "type": "uint256"
            },
            {
              "internalType": "string",
              "name": "name",
              "type": "string"
            },
            {
              "internalType": "bool",
              "name": "testnet",
              "type": "bool"
            }
          ],
          "internalType": "struct VerusObjects.infoDetails",
          "name": "",
          "type": "tuple"
        }
      ],
      "stateMutability": "view",
      "type": "function",
      "constant": true
    },
    {
      "inputs": [
        {
          "internalType": "address",
          "name": "_currencyid",
          "type": "address"
        }
      ],
      "name": "getcurrency",
      "outputs": [
        {
          "components": [
            {
              "internalType": "uint256",
              "name": "version",
              "type": "uint256"
            },
            {
              "internalType": "string",
              "name": "name",
              "type": "string"
            },
            {
              "internalType": "address",
              "name": "currencyid",
              "type": "address"
            },
            {
              "internalType": "address",
              "name": "parent",
              "type": "address"
            },
            {
              "internalType": "address",
              "name": "systemid",
              "type": "address"
            },
            {
              "internalType": "uint8",
              "name": "notarizationprotocol",
              "type": "uint8"
            },
            {
              "internalType": "uint8",
              "name": "proofprotocol",
              "type": "uint8"
            },
            {
              "components": [
                {
                  "internalType": "uint8",
                  "name": "destinationtype",
                  "type": "uint8"
                },
                {
                  "internalType": "bytes",
                  "name": "destinationaddress",
                  "type": "bytes"
                }
              ],
              "internalType": "struct VerusObjectsCommon.CTransferDestination",
              "name": "nativecurrencyid",
              "type": "tuple"
            },
            {
              "internalType": "address",
              "name": "launchsystemid",
              "type": "address"
            },
            {
              "internalType": "uint256",
              "name": "startblock",
              "type": "uint256"
            },
            {
              "internalType": "uint256",
              "name": "endblock",
              "type": "uint256"
            },
            {
              "internalType": "uint256",
              "name": "initialsupply",
              "type": "uint256"
            },
            {
              "internalType": "uint256",
              "name": "prelaunchcarveout",
              "type": "uint256"
            },
            {
              "internalType": "address",
              "name": "gatewayid",
              "type": "address"
            },
            {
              "internalType": "address[]",
              "name": "notaries",
              "type": "address[]"
            },
            {
              "internalType": "uint256",
              "name": "minnotariesconfirm",
              "type": "uint256"
            }
          ],
          "internalType": "struct VerusObjects.currencyDetail",
          "name": "",
          "type": "tuple"
        }
      ],
      "stateMutability": "view",
      "type": "function",
      "constant": true
    }
  ],
  "bytecode": "0x60806040523480156200001157600080fd5b50604051620012a0380380620012a083398181016040528101906200003791906200024d565b846000806101000a81548173ffffffffffffffffffffffffffffffffffffffff021916908373ffffffffffffffffffffffffffffffffffffffff16021790555083600160000181905550826001800190805190602001906200009b929190620000e0565b508160016004019080519060200190620000b7929190620000e0565b5080600160050160006101000a81548160ff021916908315150217905550505050505062000438565b828054600181600116156101000203166002900490600052602060002090601f01602090048101928262000118576000855562000164565b82601f106200013357805160ff191683800117855562000164565b8280016001018555821562000164579182015b828111156200016357825182559160200191906001019062000146565b5b50905062000173919062000177565b5090565b5b808211156200019257600081600090555060010162000178565b5090565b6000620001ad620001a78462000335565b62000301565b905082815260208101848484011115620001c657600080fd5b620001d3848285620003b2565b509392505050565b600081519050620001ec81620003ea565b92915050565b600081519050620002038162000404565b92915050565b600082601f8301126200021b57600080fd5b81516200022d84826020860162000196565b91505092915050565b60008151905062000247816200041e565b92915050565b600080600080600060a086880312156200026657600080fd5b60006200027688828901620001db565b9550506020620002898882890162000236565b945050604086015167ffffffffffffffff811115620002a757600080fd5b620002b58882890162000209565b935050606086015167ffffffffffffffff811115620002d357600080fd5b620002e18882890162000209565b9250506080620002f488828901620001f2565b9150509295509295909350565b6000604051905081810181811067ffffffffffffffff821117156200032b576200032a620003e8565b5b8060405250919050565b600067ffffffffffffffff821115620003535762000352620003e8565b5b601f19601f8301169050602081019050919050565b6000620003758262000388565b9050919050565b60008115159050919050565b600073ffffffffffffffffffffffffffffffffffffffff82169050919050565b6000819050919050565b60005b83811015620003d2578082015181840152602081019050620003b5565b83811115620003e2576000848401525b50505050565bfe5b620003f58162000368565b81146200040157600080fd5b50565b6200040f816200037c565b81146200041b57600080fd5b50565b6200042981620003a8565b81146200043557600080fd5b50565b610e5880620004486000396000f3fe608060405234801561001057600080fd5b50600436106100365760003560e01c80631a2d86291461003b578063a01c6f4e14610059575b600080fd5b610043610089565b6040516100509190610c38565b60405180910390f35b610073600480360381019061006e91906107fa565b610230565b6040516100809190610c16565b60405180910390f35b6100916105d9565b6100996105d9565b600160000154816000018181525050600180018054600181600116156101000203166002900480601f0160208091040260200160405190810160405280929190818152602001828054600181600116156101000203166002900480156101405780601f1061011557610100808354040283529160200191610140565b820191906000526020600020905b81548152906001019060200180831161012357829003601f168201915b50505050508160200181905250438160400181815250504281606001818152505060016004018054600181600116156101000203166002900480601f0160208091040260200160405190810160405280929190818152602001828054600181600116156101000203166002900480156101fa5780601f106101cf576101008083540402835291602001916101fa565b820191906000526020600020905b8154815290600101906020018083116101dd57829003601f168201915b50505050508160800181905250600160050160009054906101000a900460ff168160a00190151590811515815250508091505090565b610238610611565b610240610611565b60016000015481600001818152505060008060009054906101000a900473ffffffffffffffffffffffffffffffffffffffff1673ffffffffffffffffffffffffffffffffffffffff1663aaf34b946040518163ffffffff1660e01b815260040160006040518083038186803b1580156102b857600080fd5b505afa1580156102cc573d6000803e3d6000fd5b505050506040513d6000823e3d601f19601f820116820180604052508101906102f59190610823565b905060008060009054906101000a900473ffffffffffffffffffffffffffffffffffffffff1673ffffffffffffffffffffffffffffffffffffffff166320cd6ba16040518163ffffffff1660e01b815260040160206040518083038186803b15801561036057600080fd5b505afa158015610374573d6000803e3d6000fd5b505050506040513d601f19601f820116820180604052508101906103989190610864565b90506000807367460c2f56774ed27eeb8685f29f6cec0b090b0073ffffffffffffffffffffffffffffffffffffffff168773ffffffffffffffffffffffffffffffffffffffff161415610408577367460c2f56774ed27eeb8685f29f6cec0b090b00915063044aa2009050610410565b869150600090505b60405180610200016040528060016000015481526020016040518060400160405280600481526020017f564554480000000000000000000000000000000000000000000000000000000081525081526020017367460c2f56774ed27eeb8685f29f6cec0b090b0073ffffffffffffffffffffffffffffffffffffffff16815260200173a6ef9ea235635e328124ff3429db9f9e91b64e2d73ffffffffffffffffffffffffffffffffffffffff16815260200173a6ef9ea235635e328124ff3429db9f9e91b64e2d73ffffffffffffffffffffffffffffffffffffffff168152602001600260ff168152602001600360ff1681526020016040518060400160405280600960ff1681526020018560405160200161052c9190610bfb565b604051602081830303815290604052815250815260200173a6ef9ea235635e328124ff3429db9f9e91b64e2d73ffffffffffffffffffffffffffffffffffffffff16815260200160008152602001600081526020018281526020018281526020017367460c2f56774ed27eeb8685f29f6cec0b090b0073ffffffffffffffffffffffffffffffffffffffff1681526020018581526020018460ff1681525094508495505050505050919050565b6040518060c0016040528060008152602001606081526020016000815260200160008152602001606081526020016000151581525090565b6040518061020001604052806000815260200160608152602001600073ffffffffffffffffffffffffffffffffffffffff168152602001600073ffffffffffffffffffffffffffffffffffffffff168152602001600073ffffffffffffffffffffffffffffffffffffffff168152602001600060ff168152602001600060ff16815260200161069e610708565b8152602001600073ffffffffffffffffffffffffffffffffffffffff16815260200160008152602001600081526020016000815260200160008152602001600073ffffffffffffffffffffffffffffffffffffffff16815260200160608152602001600081525090565b6040518060400160405280600060ff168152602001606081525090565b600061073861073384610c8b565b610c5a565b9050808382526020820190508285602086028201111561075757600080fd5b60005b85811015610787578161076d88826107a6565b84526020840193506020830192505060018101905061075a565b5050509392505050565b6000813590506107a081610df4565b92915050565b6000815190506107b581610df4565b92915050565b600082601f8301126107cc57600080fd5b81516107dc848260208601610725565b91505092915050565b6000815190506107f481610e0b565b92915050565b60006020828403121561080c57600080fd5b600061081a84828501610791565b91505092915050565b60006020828403121561083557600080fd5b600082015167ffffffffffffffff81111561084f57600080fd5b61085b848285016107bb565b91505092915050565b60006020828403121561087657600080fd5b6000610884848285016107e5565b91505092915050565b600061089983836108a5565b60208301905092915050565b6108ae81610d28565b82525050565b6108c56108c082610d28565b610db0565b82525050565b60006108d682610cc7565b6108e08185610cf5565b93506108eb83610cb7565b8060005b8381101561091c578151610903888261088d565b975061090e83610ce8565b9250506001810190506108ef565b5085935050505092915050565b61093281610d3a565b82525050565b600061094382610cd2565b61094d8185610d06565b935061095d818560208601610d7d565b61096681610dd6565b840191505092915050565b600061097c82610cdd565b6109868185610d17565b9350610996818560208601610d7d565b61099f81610dd6565b840191505092915050565b60006040830160008301516109c26000860182610bec565b50602083015184820360208601526109da8282610938565b9150508091505092915050565b600061020083016000830151610a006000860182610bdd565b5060208301518482036020860152610a188282610971565b9150506040830151610a2d60408601826108a5565b506060830151610a4060608601826108a5565b506080830151610a5360808601826108a5565b5060a0830151610a6660a0860182610bec565b5060c0830151610a7960c0860182610bec565b5060e083015184820360e0860152610a9182826109aa565b915050610100830151610aa86101008601826108a5565b50610120830151610abd610120860182610bdd565b50610140830151610ad2610140860182610bdd565b50610160830151610ae7610160860182610bdd565b50610180830151610afc610180860182610bdd565b506101a0830151610b116101a08601826108a5565b506101c08301518482036101c0860152610b2b82826108cb565b9150506101e0830151610b426101e0860182610bdd565b508091505092915050565b600060c083016000830151610b656000860182610bdd565b5060208301518482036020860152610b7d8282610971565b9150506040830151610b926040860182610bdd565b506060830151610ba56060860182610bdd565b5060808301518482036080860152610bbd8282610971565b91505060a0830151610bd260a0860182610929565b508091505092915050565b610be681610d66565b82525050565b610bf581610d70565b82525050565b6000610c0782846108b4565b60148201915081905092915050565b60006020820190508181036000830152610c3081846109e7565b905092915050565b60006020820190508181036000830152610c528184610b4d565b905092915050565b6000604051905081810181811067ffffffffffffffff82111715610c8157610c80610dd4565b5b8060405250919050565b600067ffffffffffffffff821115610ca657610ca5610dd4565b5b602082029050602081019050919050565b6000819050602082019050919050565b600081519050919050565b600081519050919050565b600081519050919050565b6000602082019050919050565b600082825260208201905092915050565b600082825260208201905092915050565b600082825260208201905092915050565b6000610d3382610d46565b9050919050565b60008115159050919050565b600073ffffffffffffffffffffffffffffffffffffffff82169050919050565b6000819050919050565b600060ff82169050919050565b60005b83811015610d9b578082015181840152602081019050610d80565b83811115610daa576000848401525b50505050565b6000610dbb82610dc2565b9050919050565b6000610dcd82610de7565b9050919050565bfe5b6000601f19601f8301169050919050565b60008160601b9050919050565b610dfd81610d28565b8114610e0857600080fd5b50565b610e1481610d70565b8114610e1f57600080fd5b5056fea264697066735822122056aca155fc7f97ced9e0d33b577b6d57565729adb985493e524668b81cc1474364736f6c63430007060033",
  "immutableReferences": {},
  "source": "// SPDX-License-Identifier: MIT\r\n// Bridge between ethereum and verus\r\n\r\nimport \"../Libraries/VerusObjects.sol\";\r\nimport \"../Libraries/VerusObjectsCommon.sol\";\r\nimport \"../Libraries/VerusConstants.sol\";\r\nimport \"../VerusNotarizer/VerusNotarizer.sol\";\r\n\r\npragma solidity >=0.6.0 <0.9.0;\r\npragma experimental ABIEncoderV2;\r\n\r\ncontract VerusInfo {\r\n\r\n    VerusNotarizer verusNotarizer;\r\n    \r\n    VerusObjects.infoDetails chainInfo;\r\n    \r\n    constructor(\r\n        address verusNotarizerAddress,\r\n        uint chainVersion,\r\n        string memory chainVerusVersion,\r\n        string memory chainName,\r\n        bool chainTestnet) public {\r\n        verusNotarizer = VerusNotarizer(verusNotarizerAddress);\r\n        chainInfo.version = chainVersion;\r\n        chainInfo.VRSCversion = chainVerusVersion;\r\n        chainInfo.name = chainName;\r\n        chainInfo.testnet = chainTestnet;\r\n    }\r\n\r\n\r\n    function getinfo() public view returns(VerusObjects.infoDetails memory){\r\n        //set blocks\r\n        VerusObjects.infoDetails memory returnInfo;\r\n        returnInfo.version = chainInfo.version;\r\n        returnInfo.VRSCversion = chainInfo.VRSCversion;\r\n        returnInfo.blocks = block.number;\r\n        returnInfo.tiptime = block.timestamp;\r\n        returnInfo.name = chainInfo.name;\r\n        returnInfo.testnet = chainInfo.testnet;\r\n        return returnInfo;\r\n    }\r\n\r\n    function getcurrency(address _currencyid) public view returns(VerusObjects.currencyDetail memory){\r\n        VerusObjects.currencyDetail memory returnCurrency;\r\n        returnCurrency.version = chainInfo.version;\r\n        //if the _currencyid is null then return VEth\r\n        address[] memory notaries = verusNotarizer.getNotaries();\r\n        uint8 minnotaries = verusNotarizer.currentNotariesRequired();\r\n        \r\n        address currencyAddress;\r\n        uint256 initialsupply;\r\n        if(_currencyid == VerusConstants.VEth){\r\n            currencyAddress = VerusConstants.VEth;\r\n            initialsupply = 72000000;\r\n        } else {\r\n            currencyAddress = _currencyid;\r\n            initialsupply = 0;\r\n        }\r\n            \r\n            \r\n        returnCurrency = VerusObjects.currencyDetail(\r\n                chainInfo.version,\r\n                VerusConstants.currencyName,\r\n                VerusConstants.VEth,\r\n                VerusConstants.VerusSystemId,\r\n                VerusConstants.VerusSystemId,\r\n                2,\r\n                3,\r\n                VerusObjectsCommon.CTransferDestination(9,abi.encodePacked(currencyAddress)),\r\n                VerusConstants.VerusSystemId,\r\n                0,\r\n                0,\r\n                initialsupply,\r\n                initialsupply,\r\n                VerusConstants.VEth,\r\n                notaries,\r\n                minnotaries\r\n        );\r\n\r\n        return returnCurrency;\r\n    }\r\n}",
  "sourcePath": "D:\\dev\\Ethereum-verus-notarisation\\contracts\\VerusBridge\\VerusInfo.sol",
  "compiler": {
    "name": "solc",
    "version": "0.7.6+commit.7338295f.Emscripten.clang"
  },
  "schemaVersion": "3.4.3",
  "updatedAt": "2022-02-08T08:21:22.015Z",
  "networkType": "ethereum",
  "devdoc": {
    "kind": "dev",
    "methods": {},
    "version": 1
  },
  "userdoc": {
    "kind": "user",
    "methods": {},
    "version": 1
  }
}