{
  "contractName": "VerusNotarizer",
  "abi": [
    {
      "inputs": [
        {
          "internalType": "address",
          "name": "_verusBLAKE2bAddress",
          "type": "address"
        },
        {
          "internalType": "address",
          "name": "_verusSerializerAddress",
          "type": "address"
        },
        {
          "internalType": "address[]",
          "name": "_notaries",
          "type": "address[]"
        },
        {
          "internalType": "address[]",
          "name": "_notariesEthAddress",
          "type": "address[]"
        }
      ],
      "stateMutability": "nonpayable",
      "type": "constructor"
    },
    {
      "anonymous": false,
      "inputs": [
        {
          "indexed": false,
          "internalType": "address",
          "name": "newAddress",
          "type": "address"
        }
      ],
      "name": "Deprecate",
      "type": "event"
    },
    {
      "anonymous": false,
      "inputs": [
        {
          "components": [
            {
              "internalType": "uint32",
              "name": "version",
              "type": "uint32"
            },
            {
              "internalType": "uint32",
              "name": "flags",
              "type": "uint32"
            },
            {
              "components": [
                {
                  "internalType": "uint8",
                  "name": "destinationtype",
                  "type": "uint8"
                },
                {
                  "internalType": "address",
                  "name": "destinationaddress",
                  "type": "address"
                }
              ],
              "internalType": "struct VerusObjectsCommon.CTransferDestination",
              "name": "proposer",
              "type": "tuple"
            },
            {
              "internalType": "address",
              "name": "currencyid",
              "type": "address"
            },
            {
              "components": [
                {
                  "internalType": "uint16",
                  "name": "version",
                  "type": "uint16"
                },
                {
                  "internalType": "uint16",
                  "name": "flags",
                  "type": "uint16"
                },
                {
                  "internalType": "address",
                  "name": "currencyid",
                  "type": "address"
                },
                {
                  "internalType": "uint160[]",
                  "name": "currencies",
                  "type": "uint160[]"
                },
                {
                  "internalType": "int32[]",
                  "name": "weights",
                  "type": "int32[]"
                },
                {
                  "internalType": "int64[]",
                  "name": "reserves",
                  "type": "int64[]"
                },
                {
                  "internalType": "int64",
                  "name": "initialsupply",
                  "type": "int64"
                },
                {
                  "internalType": "int64",
                  "name": "emitted",
                  "type": "int64"
                },
                {
                  "internalType": "int64",
                  "name": "supply",
                  "type": "int64"
                },
                {
                  "internalType": "int64",
                  "name": "primarycurrencyout",
                  "type": "int64"
                },
                {
                  "internalType": "int64",
                  "name": "preconvertedout",
                  "type": "int64"
                },
                {
                  "internalType": "int64",
                  "name": "primarycurrencyfees",
                  "type": "int64"
                },
                {
                  "internalType": "int64",
                  "name": "primarycurrencyconversionfees",
                  "type": "int64"
                },
                {
                  "internalType": "int64[]",
                  "name": "reservein",
                  "type": "int64[]"
                },
                {
                  "internalType": "int64[]",
                  "name": "primarycurrencyin",
                  "type": "int64[]"
                },
                {
                  "internalType": "int64[]",
                  "name": "reserveout",
                  "type": "int64[]"
                },
                {
                  "internalType": "int64[]",
                  "name": "conversionprice",
                  "type": "int64[]"
                },
                {
                  "internalType": "int64[]",
                  "name": "viaconversionprice",
                  "type": "int64[]"
                },
                {
                  "internalType": "int64[]",
                  "name": "fees",
                  "type": "int64[]"
                },
                {
                  "internalType": "int32[]",
                  "name": "priorweights",
                  "type": "int32[]"
                },
                {
                  "internalType": "int64[]",
                  "name": "conversionfees",
                  "type": "int64[]"
                }
              ],
              "internalType": "struct VerusObjectsNotarization.CCoinbaseCurrencyState",
              "name": "currencystate",
              "type": "tuple"
            },
            {
              "internalType": "uint32",
              "name": "notarizationheight",
              "type": "uint32"
            },
            {
              "components": [
                {
                  "internalType": "bytes32",
                  "name": "hash",
                  "type": "bytes32"
                },
                {
                  "internalType": "uint32",
                  "name": "n",
                  "type": "uint32"
                }
              ],
              "internalType": "struct VerusObjectsNotarization.CUTXORef",
              "name": "prevnotarization",
              "type": "tuple"
            },
            {
              "internalType": "bytes32",
              "name": "hashprevnotarization",
              "type": "bytes32"
            },
            {
              "internalType": "uint32",
              "name": "prevheight",
              "type": "uint32"
            },
            {
              "components": [
                {
                  "internalType": "address",
                  "name": "currencyid",
                  "type": "address"
                },
                {
                  "components": [
                    {
                      "internalType": "uint16",
                      "name": "version",
                      "type": "uint16"
                    },
                    {
                      "internalType": "uint16",
                      "name": "flags",
                      "type": "uint16"
                    },
                    {
                      "internalType": "address",
                      "name": "currencyid",
                      "type": "address"
                    },
                    {
                      "internalType": "uint160[]",
                      "name": "currencies",
                      "type": "uint160[]"
                    },
                    {
                      "internalType": "int32[]",
                      "name": "weights",
                      "type": "int32[]"
                    },
                    {
                      "internalType": "int64[]",
                      "name": "reserves",
                      "type": "int64[]"
                    },
                    {
                      "internalType": "int64",
                      "name": "initialsupply",
                      "type": "int64"
                    },
                    {
                      "internalType": "int64",
                      "name": "emitted",
                      "type": "int64"
                    },
                    {
                      "internalType": "int64",
                      "name": "supply",
                      "type": "int64"
                    },
                    {
                      "internalType": "int64",
                      "name": "primarycurrencyout",
                      "type": "int64"
                    },
                    {
                      "internalType": "int64",
                      "name": "preconvertedout",
                      "type": "int64"
                    },
                    {
                      "internalType": "int64",
                      "name": "primarycurrencyfees",
                      "type": "int64"
                    },
                    {
                      "internalType": "int64",
                      "name": "primarycurrencyconversionfees",
                      "type": "int64"
                    },
                    {
                      "internalType": "int64[]",
                      "name": "reservein",
                      "type": "int64[]"
                    },
                    {
                      "internalType": "int64[]",
                      "name": "primarycurrencyin",
                      "type": "int64[]"
                    },
                    {
                      "internalType": "int64[]",
                      "name": "reserveout",
                      "type": "int64[]"
                    },
                    {
                      "internalType": "int64[]",
                      "name": "conversionprice",
                      "type": "int64[]"
                    },
                    {
                      "internalType": "int64[]",
                      "name": "viaconversionprice",
                      "type": "int64[]"
                    },
                    {
                      "internalType": "int64[]",
                      "name": "fees",
                      "type": "int64[]"
                    },
                    {
                      "internalType": "int32[]",
                      "name": "priorweights",
                      "type": "int32[]"
                    },
                    {
                      "internalType": "int64[]",
                      "name": "conversionfees",
                      "type": "int64[]"
                    }
                  ],
                  "internalType": "struct VerusObjectsNotarization.CCoinbaseCurrencyState",
                  "name": "currencystate",
                  "type": "tuple"
                }
              ],
              "internalType": "struct VerusObjectsNotarization.CurrencyStates[]",
              "name": "currencystates",
              "type": "tuple[]"
            },
            {
              "components": [
                {
                  "internalType": "int16",
                  "name": "version",
                  "type": "int16"
                },
                {
                  "internalType": "int16",
                  "name": "cprtype",
                  "type": "int16"
                },
                {
                  "internalType": "address",
                  "name": "systemid",
                  "type": "address"
                },
                {
                  "internalType": "uint32",
                  "name": "rootheight",
                  "type": "uint32"
                },
                {
                  "internalType": "bytes32",
                  "name": "stateroot",
                  "type": "bytes32"
                },
                {
                  "internalType": "bytes32",
                  "name": "blockhash",
                  "type": "bytes32"
                },
                {
                  "internalType": "bytes32",
                  "name": "compactpower",
                  "type": "bytes32"
                }
              ],
              "internalType": "struct VerusObjectsNotarization.CProofRoot[]",
              "name": "proofroots",
              "type": "tuple[]"
            },
            {
              "components": [
                {
                  "internalType": "string",
                  "name": "networkaddress",
                  "type": "string"
                },
                {
                  "internalType": "address",
                  "name": "nodeidentity",
                  "type": "address"
                }
              ],
              "internalType": "struct VerusObjectsNotarization.CNodeData[]",
              "name": "nodes",
              "type": "tuple[]"
            }
          ],
          "indexed": false,
          "internalType": "struct VerusObjectsNotarization.CPBaaSNotarization",
          "name": "",
          "type": "tuple"
        },
        {
          "indexed": false,
          "internalType": "uint32",
          "name": "notarizedDataHeight",
          "type": "uint32"
        }
      ],
      "name": "NewBlock",
      "type": "event"
    },
    {
      "inputs": [
        {
          "internalType": "uint256",
          "name": "",
          "type": "uint256"
        }
      ],
      "name": "blockHeights",
      "outputs": [
        {
          "internalType": "uint32",
          "name": "",
          "type": "uint32"
        }
      ],
      "stateMutability": "view",
      "type": "function",
      "constant": true
    },
    {
      "inputs": [],
      "name": "deprecated",
      "outputs": [
        {
          "internalType": "bool",
          "name": "",
          "type": "bool"
        }
      ],
      "stateMutability": "view",
      "type": "function",
      "constant": true
    },
    {
      "inputs": [
        {
          "internalType": "address",
          "name": "",
          "type": "address"
        }
      ],
      "name": "komodoNotaries",
      "outputs": [
        {
          "internalType": "bool",
          "name": "",
          "type": "bool"
        }
      ],
      "stateMutability": "view",
      "type": "function",
      "constant": true
    },
    {
      "inputs": [],
      "name": "lastBlockHeight",
      "outputs": [
        {
          "internalType": "uint32",
          "name": "",
          "type": "uint32"
        }
      ],
      "stateMutability": "view",
      "type": "function",
      "constant": true
    },
    {
      "inputs": [
        {
          "internalType": "uint32",
          "name": "",
          "type": "uint32"
        }
      ],
      "name": "notarizedProofRoots",
      "outputs": [
        {
          "internalType": "int16",
          "name": "version",
          "type": "int16"
        },
        {
          "internalType": "int16",
          "name": "cprtype",
          "type": "int16"
        },
        {
          "internalType": "address",
          "name": "systemid",
          "type": "address"
        },
        {
          "internalType": "uint32",
          "name": "rootheight",
          "type": "uint32"
        },
        {
          "internalType": "bytes32",
          "name": "stateroot",
          "type": "bytes32"
        },
        {
          "internalType": "bytes32",
          "name": "blockhash",
          "type": "bytes32"
        },
        {
          "internalType": "bytes32",
          "name": "compactpower",
          "type": "bytes32"
        }
      ],
      "stateMutability": "view",
      "type": "function",
      "constant": true
    },
    {
      "inputs": [
        {
          "internalType": "uint32",
          "name": "",
          "type": "uint32"
        }
      ],
      "name": "notarizedStateRoots",
      "outputs": [
        {
          "internalType": "bytes32",
          "name": "",
          "type": "bytes32"
        }
      ],
      "stateMutability": "view",
      "type": "function",
      "constant": true
    },
    {
      "inputs": [
        {
          "internalType": "address",
          "name": "",
          "type": "address"
        }
      ],
      "name": "notaryAddressMapping",
      "outputs": [
        {
          "internalType": "address",
          "name": "",
          "type": "address"
        }
      ],
      "stateMutability": "view",
      "type": "function",
      "constant": true
    },
    {
      "inputs": [],
      "name": "upgradedAddress",
      "outputs": [
        {
          "internalType": "address",
          "name": "",
          "type": "address"
        }
      ],
      "stateMutability": "view",
      "type": "function",
      "constant": true
    },
    {
      "inputs": [],
      "name": "getNotaries",
      "outputs": [
        {
          "internalType": "address[]",
          "name": "",
          "type": "address[]"
        }
      ],
      "stateMutability": "view",
      "type": "function",
      "constant": true
    },
    {
      "inputs": [
        {
          "internalType": "address",
          "name": "_notary",
          "type": "address"
        }
      ],
      "name": "isNotary",
      "outputs": [
        {
          "internalType": "bool",
          "name": "",
          "type": "bool"
        }
      ],
      "stateMutability": "view",
      "type": "function",
      "constant": true
    },
    {
      "inputs": [],
      "name": "currentNotariesRequired",
      "outputs": [
        {
          "internalType": "uint8",
          "name": "",
          "type": "uint8"
        }
      ],
      "stateMutability": "view",
      "type": "function",
      "constant": true
    },
    {
      "inputs": [
        {
          "internalType": "bytes32",
          "name": "_notarizedDataHash",
          "type": "bytes32"
        },
        {
          "internalType": "bytes32[]",
          "name": "_rs",
          "type": "bytes32[]"
        },
        {
          "internalType": "bytes32[]",
          "name": "_ss",
          "type": "bytes32[]"
        },
        {
          "internalType": "uint8[]",
          "name": "_vs",
          "type": "uint8[]"
        }
      ],
      "name": "isNotarized",
      "outputs": [
        {
          "internalType": "bool",
          "name": "",
          "type": "bool"
        }
      ],
      "stateMutability": "view",
      "type": "function",
      "constant": true
    },
    {
      "inputs": [
        {
          "components": [
            {
              "internalType": "uint32",
              "name": "version",
              "type": "uint32"
            },
            {
              "internalType": "uint32",
              "name": "flags",
              "type": "uint32"
            },
            {
              "components": [
                {
                  "internalType": "uint8",
                  "name": "destinationtype",
                  "type": "uint8"
                },
                {
                  "internalType": "address",
                  "name": "destinationaddress",
                  "type": "address"
                }
              ],
              "internalType": "struct VerusObjectsCommon.CTransferDestination",
              "name": "proposer",
              "type": "tuple"
            },
            {
              "internalType": "address",
              "name": "currencyid",
              "type": "address"
            },
            {
              "components": [
                {
                  "internalType": "uint16",
                  "name": "version",
                  "type": "uint16"
                },
                {
                  "internalType": "uint16",
                  "name": "flags",
                  "type": "uint16"
                },
                {
                  "internalType": "address",
                  "name": "currencyid",
                  "type": "address"
                },
                {
                  "internalType": "uint160[]",
                  "name": "currencies",
                  "type": "uint160[]"
                },
                {
                  "internalType": "int32[]",
                  "name": "weights",
                  "type": "int32[]"
                },
                {
                  "internalType": "int64[]",
                  "name": "reserves",
                  "type": "int64[]"
                },
                {
                  "internalType": "int64",
                  "name": "initialsupply",
                  "type": "int64"
                },
                {
                  "internalType": "int64",
                  "name": "emitted",
                  "type": "int64"
                },
                {
                  "internalType": "int64",
                  "name": "supply",
                  "type": "int64"
                },
                {
                  "internalType": "int64",
                  "name": "primarycurrencyout",
                  "type": "int64"
                },
                {
                  "internalType": "int64",
                  "name": "preconvertedout",
                  "type": "int64"
                },
                {
                  "internalType": "int64",
                  "name": "primarycurrencyfees",
                  "type": "int64"
                },
                {
                  "internalType": "int64",
                  "name": "primarycurrencyconversionfees",
                  "type": "int64"
                },
                {
                  "internalType": "int64[]",
                  "name": "reservein",
                  "type": "int64[]"
                },
                {
                  "internalType": "int64[]",
                  "name": "primarycurrencyin",
                  "type": "int64[]"
                },
                {
                  "internalType": "int64[]",
                  "name": "reserveout",
                  "type": "int64[]"
                },
                {
                  "internalType": "int64[]",
                  "name": "conversionprice",
                  "type": "int64[]"
                },
                {
                  "internalType": "int64[]",
                  "name": "viaconversionprice",
                  "type": "int64[]"
                },
                {
                  "internalType": "int64[]",
                  "name": "fees",
                  "type": "int64[]"
                },
                {
                  "internalType": "int32[]",
                  "name": "priorweights",
                  "type": "int32[]"
                },
                {
                  "internalType": "int64[]",
                  "name": "conversionfees",
                  "type": "int64[]"
                }
              ],
              "internalType": "struct VerusObjectsNotarization.CCoinbaseCurrencyState",
              "name": "currencystate",
              "type": "tuple"
            },
            {
              "internalType": "uint32",
              "name": "notarizationheight",
              "type": "uint32"
            },
            {
              "components": [
                {
                  "internalType": "bytes32",
                  "name": "hash",
                  "type": "bytes32"
                },
                {
                  "internalType": "uint32",
                  "name": "n",
                  "type": "uint32"
                }
              ],
              "internalType": "struct VerusObjectsNotarization.CUTXORef",
              "name": "prevnotarization",
              "type": "tuple"
            },
            {
              "internalType": "bytes32",
              "name": "hashprevnotarization",
              "type": "bytes32"
            },
            {
              "internalType": "uint32",
              "name": "prevheight",
              "type": "uint32"
            },
            {
              "components": [
                {
                  "internalType": "address",
                  "name": "currencyid",
                  "type": "address"
                },
                {
                  "components": [
                    {
                      "internalType": "uint16",
                      "name": "version",
                      "type": "uint16"
                    },
                    {
                      "internalType": "uint16",
                      "name": "flags",
                      "type": "uint16"
                    },
                    {
                      "internalType": "address",
                      "name": "currencyid",
                      "type": "address"
                    },
                    {
                      "internalType": "uint160[]",
                      "name": "currencies",
                      "type": "uint160[]"
                    },
                    {
                      "internalType": "int32[]",
                      "name": "weights",
                      "type": "int32[]"
                    },
                    {
                      "internalType": "int64[]",
                      "name": "reserves",
                      "type": "int64[]"
                    },
                    {
                      "internalType": "int64",
                      "name": "initialsupply",
                      "type": "int64"
                    },
                    {
                      "internalType": "int64",
                      "name": "emitted",
                      "type": "int64"
                    },
                    {
                      "internalType": "int64",
                      "name": "supply",
                      "type": "int64"
                    },
                    {
                      "internalType": "int64",
                      "name": "primarycurrencyout",
                      "type": "int64"
                    },
                    {
                      "internalType": "int64",
                      "name": "preconvertedout",
                      "type": "int64"
                    },
                    {
                      "internalType": "int64",
                      "name": "primarycurrencyfees",
                      "type": "int64"
                    },
                    {
                      "internalType": "int64",
                      "name": "primarycurrencyconversionfees",
                      "type": "int64"
                    },
                    {
                      "internalType": "int64[]",
                      "name": "reservein",
                      "type": "int64[]"
                    },
                    {
                      "internalType": "int64[]",
                      "name": "primarycurrencyin",
                      "type": "int64[]"
                    },
                    {
                      "internalType": "int64[]",
                      "name": "reserveout",
                      "type": "int64[]"
                    },
                    {
                      "internalType": "int64[]",
                      "name": "conversionprice",
                      "type": "int64[]"
                    },
                    {
                      "internalType": "int64[]",
                      "name": "viaconversionprice",
                      "type": "int64[]"
                    },
                    {
                      "internalType": "int64[]",
                      "name": "fees",
                      "type": "int64[]"
                    },
                    {
                      "internalType": "int32[]",
                      "name": "priorweights",
                      "type": "int32[]"
                    },
                    {
                      "internalType": "int64[]",
                      "name": "conversionfees",
                      "type": "int64[]"
                    }
                  ],
                  "internalType": "struct VerusObjectsNotarization.CCoinbaseCurrencyState",
                  "name": "currencystate",
                  "type": "tuple"
                }
              ],
              "internalType": "struct VerusObjectsNotarization.CurrencyStates[]",
              "name": "currencystates",
              "type": "tuple[]"
            },
            {
              "components": [
                {
                  "internalType": "int16",
                  "name": "version",
                  "type": "int16"
                },
                {
                  "internalType": "int16",
                  "name": "cprtype",
                  "type": "int16"
                },
                {
                  "internalType": "address",
                  "name": "systemid",
                  "type": "address"
                },
                {
                  "internalType": "uint32",
                  "name": "rootheight",
                  "type": "uint32"
                },
                {
                  "internalType": "bytes32",
                  "name": "stateroot",
                  "type": "bytes32"
                },
                {
                  "internalType": "bytes32",
                  "name": "blockhash",
                  "type": "bytes32"
                },
                {
                  "internalType": "bytes32",
                  "name": "compactpower",
                  "type": "bytes32"
                }
              ],
              "internalType": "struct VerusObjectsNotarization.CProofRoot[]",
              "name": "proofroots",
              "type": "tuple[]"
            },
            {
              "components": [
                {
                  "internalType": "string",
                  "name": "networkaddress",
                  "type": "string"
                },
                {
                  "internalType": "address",
                  "name": "nodeidentity",
                  "type": "address"
                }
              ],
              "internalType": "struct VerusObjectsNotarization.CNodeData[]",
              "name": "nodes",
              "type": "tuple[]"
            }
          ],
          "internalType": "struct VerusObjectsNotarization.CPBaaSNotarization",
          "name": "_pbaasNotarization",
          "type": "tuple"
        },
        {
          "internalType": "uint8[]",
          "name": "_vs",
          "type": "uint8[]"
        },
        {
          "internalType": "bytes32[]",
          "name": "_rs",
          "type": "bytes32[]"
        },
        {
          "internalType": "bytes32[]",
          "name": "_ss",
          "type": "bytes32[]"
        },
        {
          "internalType": "uint32[]",
          "name": "blockheights",
          "type": "uint32[]"
        },
        {
          "internalType": "address[]",
          "name": "notaryAddress",
          "type": "address[]"
        }
      ],
      "name": "setLatestData",
      "outputs": [
        {
          "components": [
            {
              "internalType": "address[]",
              "name": "signer",
              "type": "address[]"
            },
            {
              "internalType": "bytes[]",
              "name": "toHash",
              "type": "bytes[]"
            }
          ],
          "internalType": "struct VerusNotarizer.teststruct",
          "name": "output",
          "type": "tuple"
        }
      ],
      "stateMutability": "nonpayable",
      "type": "function"
    },
    {
      "inputs": [
        {
          "internalType": "bytes32",
          "name": "_h",
          "type": "bytes32"
        },
        {
          "internalType": "uint8",
          "name": "_v",
          "type": "uint8"
        },
        {
          "internalType": "bytes32",
          "name": "_r",
          "type": "bytes32"
        },
        {
          "internalType": "bytes32",
          "name": "_s",
          "type": "bytes32"
        }
      ],
      "name": "recoverSigner",
      "outputs": [
        {
          "internalType": "address",
          "name": "",
          "type": "address"
        }
      ],
      "stateMutability": "pure",
      "type": "function",
      "constant": true
    },
    {
      "inputs": [],
      "name": "numNotarizedBlocks",
      "outputs": [
        {
          "internalType": "uint256",
          "name": "",
          "type": "uint256"
        }
      ],
      "stateMutability": "view",
      "type": "function",
      "constant": true
    },
    {
      "inputs": [],
      "name": "getLastProofRoot",
      "outputs": [
        {
          "components": [
            {
              "internalType": "int16",
              "name": "version",
              "type": "int16"
            },
            {
              "internalType": "int16",
              "name": "cprtype",
              "type": "int16"
            },
            {
              "internalType": "address",
              "name": "systemid",
              "type": "address"
            },
            {
              "internalType": "uint32",
              "name": "rootheight",
              "type": "uint32"
            },
            {
              "internalType": "bytes32",
              "name": "stateroot",
              "type": "bytes32"
            },
            {
              "internalType": "bytes32",
              "name": "blockhash",
              "type": "bytes32"
            },
            {
              "internalType": "bytes32",
              "name": "compactpower",
              "type": "bytes32"
            }
          ],
          "internalType": "struct VerusObjectsNotarization.CProofRoot",
          "name": "",
          "type": "tuple"
        }
      ],
      "stateMutability": "view",
      "type": "function",
      "constant": true
    },
    {
      "inputs": [
        {
          "internalType": "address",
          "name": "_upgradedAddress",
          "type": "address"
        },
        {
          "internalType": "bytes32",
          "name": "_addressHash",
          "type": "bytes32"
        },
        {
          "internalType": "uint8[]",
          "name": "_vs",
          "type": "uint8[]"
        },
        {
          "internalType": "bytes32[]",
          "name": "_rs",
          "type": "bytes32[]"
        },
        {
          "internalType": "bytes32[]",
          "name": "_ss",
          "type": "bytes32[]"
        }
      ],
      "name": "notarizedDeprecation",
      "outputs": [
        {
          "internalType": "bool",
          "name": "",
          "type": "bool"
        }
      ],
      "stateMutability": "view",
      "type": "function",
      "constant": true
    },
    {
      "inputs": [
        {
          "internalType": "address",
          "name": "_upgradedAddress",
          "type": "address"
        },
        {
          "internalType": "bytes32",
          "name": "_addressHash",
          "type": "bytes32"
        },
        {
          "internalType": "uint8[]",
          "name": "_vs",
          "type": "uint8[]"
        },
        {
          "internalType": "bytes32[]",
          "name": "_rs",
          "type": "bytes32[]"
        },
        {
          "internalType": "bytes32[]",
          "name": "_ss",
          "type": "bytes32[]"
        }
      ],
      "name": "deprecate",
      "outputs": [],
      "stateMutability": "nonpayable",
      "type": "function"
    }
  ],
  "bytecode": "0x6080604052600d600060196101000a81548160ff021916908360ff16021790555073367eaadd291e1976abc446a143f83c2d4d2c5a8460601b600360006101000a81548173ffffffffffffffffffffffffffffffffffffffff021916908360601c02179055503480156200007257600080fd5b50604051620044933803806200449383398181016040528101906200009891906200040b565b82600260006101000a81548173ffffffffffffffffffffffffffffffffffffffff021916908373ffffffffffffffffffffffffffffffffffffffff16021790555083600160006101000a81548173ffffffffffffffffffffffffffffffffffffffff021916908373ffffffffffffffffffffffffffffffffffffffff16021790555060008060046101000a81548160ff0219169083151502179055506000600a60006101000a81548160ff021916908360ff16021790555060008060006101000a81548163ffffffff021916908363ffffffff16021790555060005b825181101562000347576001600460008584815181106200019157fe5b602002602001015173ffffffffffffffffffffffffffffffffffffffff1673ffffffffffffffffffffffffffffffffffffffff16815260200190815260200160002060006101000a81548160ff021916908315150217905550818181518110620001f757fe5b6020026020010151600560008584815181106200021057fe5b602002602001015173ffffffffffffffffffffffffffffffffffffffff1673ffffffffffffffffffffffffffffffffffffffff16815260200190815260200160002060006101000a81548173ffffffffffffffffffffffffffffffffffffffff021916908373ffffffffffffffffffffffffffffffffffffffff16021790555060068382815181106200029f57fe5b60200260200101519080600181540180825580915050600190039060005260206000200160009091909190916101000a81548173ffffffffffffffffffffffffffffffffffffffff021916908373ffffffffffffffffffffffffffffffffffffffff160217905550600a600081819054906101000a900460ff168092919060010191906101000a81548160ff021916908360ff16021790555050808060010191505062000174565b50505050506200055c565b6000620003696200036384620004dd565b620004a9565b905080838252602082019050828560208602820111156200038957600080fd5b60005b85811015620003bd5781620003a28882620003c7565b8452602084019350602083019250506001810190506200038c565b5050509392505050565b600081519050620003d88162000542565b92915050565b600082601f830112620003f057600080fd5b81516200040284826020860162000352565b91505092915050565b600080600080608085870312156200042257600080fd5b60006200043287828801620003c7565b94505060206200044587828801620003c7565b935050604085015167ffffffffffffffff8111156200046357600080fd5b6200047187828801620003de565b925050606085015167ffffffffffffffff8111156200048f57600080fd5b6200049d87828801620003de565b91505092959194509250565b6000604051905081810181811067ffffffffffffffff82111715620004d357620004d262000540565b5b8060405250919050565b600067ffffffffffffffff821115620004fb57620004fa62000540565b5b602082029050602081019050919050565b6000620005198262000520565b9050919050565b600073ffffffffffffffffffffffffffffffffffffffff82169050919050565bfe5b6200054d816200050c565b81146200055957600080fd5b50565b613f27806200056c6000396000f3fe608060405234801561001057600080fd5b50600436106101165760003560e01c8063aaf34b94116100a2578063d45167d011610071578063d45167d014610323578063d4e0323314610353578063e7b3c87514610371578063ec48ae3c146103a1578063f13eed97146103bf57610116565b8063aaf34b941461026f578063add21b3b1461028d578063b43fe1de146102c3578063b59de706146102f357610116565b806326976e3f116100e957806326976e3f146101a35780634b60ae63146101c15780636e080816146101df57806390ab64421461020f57806392a310821461023f57610116565b80630e136b191461011b57806317c868751461013957806320cd6ba114610155578063250dea5314610173575b600080fd5b6101236103ef565b604051610130919061354f565b60405180910390f35b610153600480360381019061014e91906122cc565b610402565b005b61015d6104af565b60405161016a91906137e0565b60405180910390f35b61018d600480360381019061018891906122a3565b610553565b60405161019a9190613512565b60405180910390f35b6101ab610586565b6040516101b89190613512565b60405180910390f35b6101c96105ac565b6040516101d691906137c5565b60405180910390f35b6101f960048036038101906101f4919061261c565b6105c0565b60405161020691906137c5565b60405180910390f35b610229600480360381019061022491906123b4565b6105fa565b604051610236919061354f565b60405180910390f35b61025960048036038101906102549190612503565b6106ef565b6040516102669190613788565b60405180910390f35b610277610f35565b604051610284919061352d565b60405180910390f35b6102a760048036038101906102a29190612645565b610fc3565b6040516102ba97969594939291906135ec565b60405180910390f35b6102dd60048036038101906102d891906122cc565b61104f565b6040516102ea919061354f565b60405180910390f35b61030d600480360381019061030891906122a3565b611202565b60405161031a919061354f565b60405180910390f35b61033d6004803603810190610338919061245f565b611222565b60405161034a9190613512565b60405180910390f35b61035b611282565b604051610368919061376d565b60405180910390f35b61038b60048036038101906103869190612645565b61139e565b604051610398919061356a565b60405180910390f35b6103a96113b6565b6040516103b691906137aa565b60405180910390f35b6103d960048036038101906103d491906122a3565b6113c3565b6040516103e6919061354f565b60405180910390f35b600060049054906101000a900460ff1681565b61040f858585858561104f565b156104a8576001600060046101000a81548160ff02191690831515021790555084600060056101000a81548173ffffffffffffffffffffffffffffffffffffffff021916908373ffffffffffffffffffffffffffffffffffffffff1602179055507fcc358699805e9a8b7f77b522628c7cb9abd07d9efb86b6fb616af1609036a99e8560405161049f9190613512565b60405180910390a15b5050505050565b60006001600a60009054906101000a900460ff1660ff1614806104e457506002600a60009054906101000a900460ff1660ff16145b156104f25760019050610550565b600060016002600a60009054906101000a900460ff1660ff168161051257fe5b040160ff169050600060199054906101000a900460ff1660ff1681111561054b57600060199054906101000a900460ff16915050610550565b809150505b90565b60056020528060005260406000206000915054906101000a900473ffffffffffffffffffffffffffffffffffffffff1681565b600060059054906101000a900473ffffffffffffffffffffffffffffffffffffffff1681565b60008054906101000a900463ffffffff1681565b600981815481106105d057600080fd5b9060005260206000209060089182820401919006600402915054906101000a900463ffffffff1681565b6000806000805b86518110156106b95761064f8886838151811061061a57fe5b602002602001015189848151811061062e57fe5b602002602001015189858151811061064257fe5b6020026020010151611222565b9250600460008473ffffffffffffffffffffffffffffffffffffffff1673ffffffffffffffffffffffffffffffffffffffff16815260200190815260200160002060009054906101000a900460ff16156106ac5781806001019250505b8080600101915050610601565b5060006106c46104af565b90508060ff168260ff16106106df57600193505050506106e7565b600093505050505b949350505050565b6106f7611431565b600060049054906101000a900460ff1615610747576040517f08c379a000000000000000000000000000000000000000000000000000000000815260040161073e9061367b565b60405180910390fd5b83518551148015610759575085518551145b610798576040517f08c379a000000000000000000000000000000000000000000000000000000000815260040161078f906136bb565b60405180910390fd5b60008054906101000a900463ffffffff1663ffffffff168760a0015163ffffffff16116107fa576040517f08c379a00000000000000000000000000000000000000000000000000000000081526004016107f1906136db565b60405180910390fd5b6000600260009054906101000a900473ffffffffffffffffffffffffffffffffffffffff1673ffffffffffffffffffffffffffffffffffffffff1663892e2937896040518263ffffffff1660e01b8152600401610857919061371b565b60006040518083038186803b15801561086f57600080fd5b505afa158015610883573d6000803e3d6000fd5b505050506040513d6000823e3d601f19601f820116820180604052508101906108ac91906124c2565b905060008060006060875167ffffffffffffffff811180156108cd57600080fd5b506040519080825280602002602001820160405280156108fc5781602001602082028036833780820191505090505b508660000181905250875167ffffffffffffffff8111801561091d57600080fd5b5060405190808252806020026020018201604052801561095157816020015b606081526020019060019003908161093c5790505b50866020018190525060005b8851811015610c49576001600360009054906101000a900460601b73a6ef9ea235635e328124ff3429db9f9e91b64e2d600260009054906101000a900473ffffffffffffffffffffffffffffffffffffffff1673ffffffffffffffffffffffffffffffffffffffff1663cecb30438d86815181106109d757fe5b60200260200101516040518263ffffffff1660e01b81526004016109fb91906137c5565b60006040518083038186803b158015610a1357600080fd5b505afa158015610a27573d6000803e3d6000fd5b505050506040513d6000823e3d601f19601f82011682018060405250810190610a5091906124c2565b8b8581518110610a5c57fe5b60200260200101518a80519060200120604051602001610a7c919061348f565b604051602081830303815290604052604051602001610aa0969594939291906134aa565b60405160208183030381529060405291508187602001518281518110610ac257fe5b602002602001018190525081805190602001209450610b1f8560048e8481518110610ae957fe5b6020026020010151038d8481518110610afe57fe5b60200260200101518d8581518110610b1257fe5b6020026020010151611222565b93508387600001518281518110610b3257fe5b602002602001019073ffffffffffffffffffffffffffffffffffffffff16908173ffffffffffffffffffffffffffffffffffffffff168152505060056000898381518110610b7c57fe5b602002602001015173ffffffffffffffffffffffffffffffffffffffff1673ffffffffffffffffffffffffffffffffffffffff16815260200190815260200160002060009054906101000a900473ffffffffffffffffffffffffffffffffffffffff1673ffffffffffffffffffffffffffffffffffffffff168473ffffffffffffffffffffffffffffffffffffffff161415610c1b5782806001019350505b600060199054906101000a900460ff1660ff168360ff1610610c3c57610c49565b808060010191505061095d565b50610c526104af565b60ff168260ff1610610f265760005b8c610140015151811015610edb5773a6ef9ea235635e328124ff3429db9f9e91b64e2d73ffffffffffffffffffffffffffffffffffffffff168d61014001518281518110610cab57fe5b60200260200101516040015173ffffffffffffffffffffffffffffffffffffffff161415610ece578c61014001518181518110610ce457fe5b602002602001015160800151600860008f60a0015163ffffffff1663ffffffff168152602001908152602001600020819055508c61014001518181518110610d2857fe5b6020026020010151600760008f60a0015163ffffffff1663ffffffff16815260200190815260200160002060008201518160000160006101000a81548161ffff021916908360010b61ffff16021790555060208201518160000160026101000a81548161ffff021916908360010b61ffff16021790555060408201518160000160046101000a81548173ffffffffffffffffffffffffffffffffffffffff021916908373ffffffffffffffffffffffffffffffffffffffff16021790555060608201518160000160186101000a81548163ffffffff021916908363ffffffff1602179055506080820151816001015560a0820151816002015560c0820151816003015590505060098d60a0015190806001815401808255809150506001900390600052602060002090600891828204019190066004029091909190916101000a81548163ffffffff021916908363ffffffff1602179055508c60a0015163ffffffff1660008054906101000a900463ffffffff1663ffffffff161015610ecd578c60a001516000806101000a81548163ffffffff021916908363ffffffff1602179055505b5b8080600101915050610c61565b507f3c3d32b52a6aef5732cab1fbc27156fba0fa8570f7a72c63571cab9a3ff66dab8c60008054906101000a900463ffffffff16604051610f1d92919061373d565b60405180910390a15b50505050509695505050505050565b60606006805480602002602001604051908101604052809291908181526020018280548015610fb957602002820191906000526020600020905b8160009054906101000a900473ffffffffffffffffffffffffffffffffffffffff1673ffffffffffffffffffffffffffffffffffffffff1681526020019060010190808311610f6f575b5050505050905090565b60076020528060005260406000206000915090508060000160009054906101000a900460010b908060000160029054906101000a900460010b908060000160049054906101000a900473ffffffffffffffffffffffffffffffffffffffff16908060000160189054906101000a900463ffffffff16908060010154908060020154908060030154905087565b600061105a336113c3565b611099576040517f08c379a00000000000000000000000000000000000000000000000000000000081526004016110909061365b565b60405180910390fd5b6000600160009054906101000a900473ffffffffffffffffffffffffffffffffffffffff1673ffffffffffffffffffffffffffffffffffffffff16632cd0cff2886040516020016110ea9190613474565b6040516020818303038152906040526040518263ffffffff1660e01b815260040161111591906135ca565b60206040518083038186803b15801561112d57600080fd5b505afa158015611141573d6000803e3d6000fd5b505050506040513d601f19601f82011682018060405250810190611165919061238b565b90508581146111a9576040517f08c379a00000000000000000000000000000000000000000000000000000000081526004016111a0906136fb565b60405180910390fd5b6111b5868585886105fa565b6111f4576040517f08c379a00000000000000000000000000000000000000000000000000000000081526004016111eb9061369b565b60405180910390fd5b600191505095945050505050565b60046020528060005260406000206000915054906101000a900460ff1681565b600080600186868686604051600081526020016040526040516112489493929190613585565b6020604051602081039080840390855afa15801561126a573d6000803e3d6000fd5b50505060206040510351905080915050949350505050565b61128a61144b565b600760008060009054906101000a900463ffffffff1663ffffffff1663ffffffff1681526020019081526020016000206040518060e00160405290816000820160009054906101000a900460010b60010b60010b81526020016000820160029054906101000a900460010b60010b60010b81526020016000820160049054906101000a900473ffffffffffffffffffffffffffffffffffffffff1673ffffffffffffffffffffffffffffffffffffffff1673ffffffffffffffffffffffffffffffffffffffff1681526020016000820160189054906101000a900463ffffffff1663ffffffff1663ffffffff1681526020016001820154815260200160028201548152602001600382015481525050905090565b60086020528060005260406000206000915090505481565b6000600980549050905090565b600060011515600460008473ffffffffffffffffffffffffffffffffffffffff1673ffffffffffffffffffffffffffffffffffffffff16815260200190815260200160002060009054906101000a900460ff1615151415611427576001905061142c565b600090505b919050565b604051806040016040528060608152602001606081525090565b6040518060e00160405280600060010b8152602001600060010b8152602001600073ffffffffffffffffffffffffffffffffffffffff168152602001600063ffffffff1681526020016000801916815260200160008019168152602001600080191681525090565b60006114c66114c18461382c565b6137fb565b905080838252602082019050828560208602820111156114e557600080fd5b60005b8581101561151557816114fb8882611949565b8452602084019350602083019250506001810190506114e8565b5050509392505050565b600061153261152d84613858565b6137fb565b9050808382526020820190508285602086028201111561155157600080fd5b60005b8581101561158157816115678882611b02565b845260208401935060208301925050600181019050611554565b5050509392505050565b600061159e61159984613884565b6137fb565b905080838252602082019050828560208602820111156115bd57600080fd5b60005b858110156115ed57816115d38882611b6b565b8452602084019350602083019250506001810190506115c0565b5050509392505050565b600061160a611605846138b0565b6137fb565b9050808382526020820190508285602086028201111561162957600080fd5b60005b85811015611659578161163f8882611b80565b84526020840193506020830192505060018101905061162c565b5050509392505050565b6000611676611671846138dc565b6137fb565b9050808382526020820190508260005b858110156116b6578135850161169c8882611eab565b845260208401935060208301925050600181019050611686565b5050509392505050565b60006116d36116ce84613908565b6137fb565b905080838252602082019050828560e08602820111156116f257600080fd5b60005b858110156117225781611708888261208e565b845260208401935060e083019250506001810190506116f5565b5050509392505050565b600061173f61173a84613934565b6137fb565b9050808382526020820190508260005b8581101561177f578135850161176588826121d6565b84526020840193506020830192505060018101905061174f565b5050509392505050565b600061179c61179784613960565b6137fb565b905080838252602082019050828560208602820111156117bb57600080fd5b60005b858110156117eb57816117d1888261224f565b8452602084019350602083019250506001810190506117be565b5050509392505050565b60006118086118038461398c565b6137fb565b9050808382526020820190508285602086028201111561182757600080fd5b60005b85811015611857578161183d8882612279565b84526020840193506020830192505060018101905061182a565b5050509392505050565b600061187461186f846139b8565b6137fb565b9050808382526020820190508285602086028201111561189357600080fd5b60005b858110156118c357816118a9888261228e565b845260208401935060208301925050600181019050611896565b5050509392505050565b60006118e06118db846139e4565b6137fb565b9050828152602081018484840111156118f857600080fd5b611903848285613d61565b509392505050565b600061191e61191984613a14565b6137fb565b90508281526020810184848401111561193657600080fd5b611941848285613d52565b509392505050565b60008135905061195881613e0b565b92915050565b600082601f83011261196f57600080fd5b813561197f8482602086016114b3565b91505092915050565b600082601f83011261199957600080fd5b81356119a984826020860161151f565b91505092915050565b600082601f8301126119c357600080fd5b81356119d384826020860161158b565b91505092915050565b600082601f8301126119ed57600080fd5b81356119fd8482602086016115f7565b91505092915050565b600082601f830112611a1757600080fd5b8135611a27848260208601611663565b91505092915050565b600082601f830112611a4157600080fd5b8135611a518482602086016116c0565b91505092915050565b600082601f830112611a6b57600080fd5b8135611a7b84826020860161172c565b91505092915050565b600082601f830112611a9557600080fd5b8135611aa5848260208601611789565b91505092915050565b600082601f830112611abf57600080fd5b8135611acf8482602086016117f5565b91505092915050565b600082601f830112611ae957600080fd5b8135611af9848260208601611861565b91505092915050565b600081359050611b1181613e22565b92915050565b600081519050611b2681613e22565b92915050565b600082601f830112611b3d57600080fd5b8151611b4d8482602086016118cd565b91505092915050565b600081359050611b6581613e39565b92915050565b600081359050611b7a81613e50565b92915050565b600081359050611b8f81613e67565b92915050565b600082601f830112611ba657600080fd5b8135611bb684826020860161190b565b91505092915050565b60006102a08284031215611bd257600080fd5b611bdd6102a06137fb565b90506000611bed8482850161223a565b6000830152506020611c018482850161223a565b6020830152506040611c1584828501611949565b604083015250606082013567ffffffffffffffff811115611c3557600080fd5b611c4184828501611a84565b606083015250608082013567ffffffffffffffff811115611c6157600080fd5b611c6d848285016119b2565b60808301525060a082013567ffffffffffffffff811115611c8d57600080fd5b611c99848285016119dc565b60a08301525060c0611cad84828501611b80565b60c08301525060e0611cc184828501611b80565b60e083015250610100611cd684828501611b80565b61010083015250610120611cec84828501611b80565b61012083015250610140611d0284828501611b80565b61014083015250610160611d1884828501611b80565b61016083015250610180611d2e84828501611b80565b610180830152506101a082013567ffffffffffffffff811115611d5057600080fd5b611d5c848285016119dc565b6101a0830152506101c082013567ffffffffffffffff811115611d7e57600080fd5b611d8a848285016119dc565b6101c0830152506101e082013567ffffffffffffffff811115611dac57600080fd5b611db8848285016119dc565b6101e08301525061020082013567ffffffffffffffff811115611dda57600080fd5b611de6848285016119dc565b6102008301525061022082013567ffffffffffffffff811115611e0857600080fd5b611e14848285016119dc565b6102208301525061024082013567ffffffffffffffff811115611e3657600080fd5b611e42848285016119dc565b6102408301525061026082013567ffffffffffffffff811115611e6457600080fd5b611e70848285016119b2565b6102608301525061028082013567ffffffffffffffff811115611e9257600080fd5b611e9e848285016119dc565b6102808301525092915050565b600060408284031215611ebd57600080fd5b611ec760406137fb565b9050600082013567ffffffffffffffff811115611ee357600080fd5b611eef84828501611b95565b6000830152506020611f0384828501611949565b60208301525092915050565b60006101c08284031215611f2257600080fd5b611f2d6101806137fb565b90506000611f3d84828501612279565b6000830152506020611f5184828501612279565b6020830152506040611f658482850161213e565b6040830152506080611f7984828501611949565b60608301525060a082013567ffffffffffffffff811115611f9957600080fd5b611fa584828501611bbf565b60808301525060c0611fb984828501612279565b60a08301525060e0611fcd8482850161218a565b60c083015250610120611fe284828501611b02565b60e083015250610140611ff784828501612279565b6101008301525061016082013567ffffffffffffffff81111561201957600080fd5b61202584828501611a5a565b6101208301525061018082013567ffffffffffffffff81111561204757600080fd5b61205384828501611a30565b610140830152506101a082013567ffffffffffffffff81111561207557600080fd5b61208184828501611a06565b6101608301525092915050565b600060e082840312156120a057600080fd5b6120aa60e06137fb565b905060006120ba84828501611b56565b60008301525060206120ce84828501611b56565b60208301525060406120e284828501611949565b60408301525060606120f684828501612279565b606083015250608061210a84828501611b02565b60808301525060a061211e84828501611b02565b60a08301525060c061213284828501611b02565b60c08301525092915050565b60006040828403121561215057600080fd5b61215a60406137fb565b9050600061216a8482850161228e565b600083015250602061217e84828501611949565b60208301525092915050565b60006040828403121561219c57600080fd5b6121a660406137fb565b905060006121b684828501611b02565b60008301525060206121ca84828501612279565b60208301525092915050565b6000604082840312156121e857600080fd5b6121f260406137fb565b9050600061220284828501611949565b600083015250602082013567ffffffffffffffff81111561222257600080fd5b61222e84828501611bbf565b60208301525092915050565b60008135905061224981613e7e565b92915050565b60008135905061225e81613e95565b92915050565b60008135905061227381613eac565b92915050565b60008135905061228881613ec3565b92915050565b60008135905061229d81613eda565b92915050565b6000602082840312156122b557600080fd5b60006122c384828501611949565b91505092915050565b600080600080600060a086880312156122e457600080fd5b60006122f288828901611949565b955050602061230388828901611b02565b945050604086013567ffffffffffffffff81111561232057600080fd5b61232c88828901611ad8565b935050606086013567ffffffffffffffff81111561234957600080fd5b61235588828901611988565b925050608086013567ffffffffffffffff81111561237257600080fd5b61237e88828901611988565b9150509295509295909350565b60006020828403121561239d57600080fd5b60006123ab84828501611b17565b91505092915050565b600080600080608085870312156123ca57600080fd5b60006123d887828801611b02565b945050602085013567ffffffffffffffff8111156123f557600080fd5b61240187828801611988565b935050604085013567ffffffffffffffff81111561241e57600080fd5b61242a87828801611988565b925050606085013567ffffffffffffffff81111561244757600080fd5b61245387828801611ad8565b91505092959194509250565b6000806000806080858703121561247557600080fd5b600061248387828801611b02565b94505060206124948782880161228e565b93505060406124a587828801611b02565b92505060606124b687828801611b02565b91505092959194509250565b6000602082840312156124d457600080fd5b600082015167ffffffffffffffff8111156124ee57600080fd5b6124fa84828501611b2c565b91505092915050565b60008060008060008060c0878903121561251c57600080fd5b600087013567ffffffffffffffff81111561253657600080fd5b61254289828a01611f0f565b965050602087013567ffffffffffffffff81111561255f57600080fd5b61256b89828a01611ad8565b955050604087013567ffffffffffffffff81111561258857600080fd5b61259489828a01611988565b945050606087013567ffffffffffffffff8111156125b157600080fd5b6125bd89828a01611988565b935050608087013567ffffffffffffffff8111156125da57600080fd5b6125e689828a01611aae565b92505060a087013567ffffffffffffffff81111561260357600080fd5b61260f89828a0161195e565b9150509295509295509295565b60006020828403121561262e57600080fd5b600061263c84828501612264565b91505092915050565b60006020828403121561265757600080fd5b600061266584828501612279565b91505092915050565b600061267a8383612722565b60208301905092915050565b60006126928383612b45565b905092915050565b60006126a68383612c06565b60208301905092915050565b60006126be8383612c15565b60208301905092915050565b60006126d683836130a2565b905092915050565b60006126ea83836131f9565b60e08301905092915050565b60006127028383613373565b905092915050565b600061271683836133f4565b60208301905092915050565b61272b81613c82565b82525050565b61273a81613c82565b82525050565b61275161274c82613c82565b613d94565b82525050565b600061276282613ac4565b61276c8185613b9a565b935061277783613a44565b8060005b838110156127a857815161278f888261266e565b975061279a83613b32565b92505060018101905061277b565b5085935050505092915050565b60006127c082613ac4565b6127ca8185613bab565b93506127d583613a44565b8060005b838110156128065781516127ed888261266e565b97506127f883613b32565b9250506001810190506127d9565b5085935050505092915050565b600061281e82613acf565b6128288185613bbc565b93508360208202850161283a85613a54565b8060005b8581101561287657848403895281516128578582612686565b945061286283613b3f565b925060208a0199505060018101905061283e565b50829750879550505050505092915050565b600061289382613ada565b61289d8185613bcd565b93506128a883613a64565b8060005b838110156128d95781516128c0888261269a565b97506128cb83613b4c565b9250506001810190506128ac565b5085935050505092915050565b60006128f182613ae5565b6128fb8185613bde565b935061290683613a74565b8060005b8381101561293757815161291e88826126b2565b975061292983613b59565b92505060018101905061290a565b5085935050505092915050565b600061294f82613af0565b6129598185613bef565b93508360208202850161296b85613a84565b8060005b858110156129a7578484038952815161298885826126ca565b945061299383613b66565b925060208a0199505060018101905061296f565b50829750879550505050505092915050565b60006129c482613afb565b6129ce8185613c00565b93506129d983613a94565b8060005b83811015612a0a5781516129f188826126de565b97506129fc83613b73565b9250506001810190506129dd565b5085935050505092915050565b6000612a2282613b06565b612a2c8185613c11565b935083602082028501612a3e85613aa4565b8060005b85811015612a7a5784840389528151612a5b85826126f6565b9450612a6683613b80565b925060208a01995050600181019050612a42565b50829750879550505050505092915050565b6000612a9782613b11565b612aa18185613c22565b9350612aac83613ab4565b8060005b83811015612add578151612ac4888261270a565b9750612acf83613b8d565b925050600181019050612ab0565b5085935050505092915050565b612af381613c94565b82525050565b612b0a612b0582613ca0565b613da6565b82525050565b612b1981613ccc565b82525050565b612b2881613ccc565b82525050565b612b3f612b3a82613ccc565b613db0565b82525050565b6000612b5082613b1c565b612b5a8185613c33565b9350612b6a818560208601613d61565b612b7381613de0565b840191505092915050565b6000612b8982613b1c565b612b938185613c44565b9350612ba3818560208601613d61565b612bac81613de0565b840191505092915050565b6000612bc282613b1c565b612bcc8185613c55565b9350612bdc818560208601613d61565b80840191505092915050565b612bf181613cd6565b82525050565b612c0081613cd6565b82525050565b612c0f81613ce3565b82525050565b612c1e81613cf0565b82525050565b6000612c2f82613b27565b612c398185613c60565b9350612c49818560208601613d61565b612c5281613de0565b840191505092915050565b6000612c6a602983613c71565b91507f4f6e6c792061206e6f746172792063616e20646570726563617465207468697360008301527f20636f6e747261637400000000000000000000000000000000000000000000006020830152604082019050919050565b6000612cd0601c83613c71565b91507f436f6e747261637420686173206265656e2064657072656361746564000000006000830152602082019050919050565b6000612d10603083613c71565b91507f4465707265636174696f6e20726571756972657320746865206164647265737360008301527f20746f206265206e6f746172697a6564000000000000000000000000000000006020830152604082019050919050565b6000612d76602883613c71565b91507f5369676e617475726520617272617973206d757374206265206f66206571756160008301527f6c206c656e6774680000000000000000000000000000000000000000000000006020830152604082019050919050565b6000612ddc603683613c71565b91507f426c6f636b20486569676874206d75737420626520677265617465722074686160008301527f6e2063757272656e7420626c6f636b20686569676874000000000000000000006020830152604082019050919050565b6000612e42603483613c71565b91507f486173686564206164647265737320646f6573206e6f74206d6174636820616460008301527f647265737320686173682070617373656420696e0000000000000000000000006020830152604082019050919050565b60006102a083016000830151612eb46000860182613403565b506020830151612ec76020860182613403565b506040830151612eda6040860182612722565b5060608301518482036060860152612ef28282612a8c565b91505060808301518482036080860152612f0c8282612888565b91505060a083015184820360a0860152612f2682826128e6565b91505060c0830151612f3b60c0860182612c15565b5060e0830151612f4e60e0860182612c15565b50610100830151612f63610100860182612c15565b50610120830151612f78610120860182612c15565b50610140830151612f8d610140860182612c15565b50610160830151612fa2610160860182612c15565b50610180830151612fb7610180860182612c15565b506101a08301518482036101a0860152612fd182826128e6565b9150506101c08301518482036101c0860152612fed82826128e6565b9150506101e08301518482036101e086015261300982826128e6565b91505061020083015184820361020086015261302582826128e6565b91505061022083015184820361022086015261304182826128e6565b91505061024083015184820361024086015261305d82826128e6565b9150506102608301518482036102608601526130798282612888565b91505061028083015184820361028086015261309582826128e6565b9150508091505092915050565b600060408301600083015184820360008601526130bf8282612c24565b91505060208301516130d46020860182612722565b508091505092915050565b60006101c0830160008301516130f86000860182613421565b50602083015161310b6020860182613421565b50604083015161311e6040860182613315565b5060608301516131316080860182612722565b50608083015184820360a08601526131498282612e9b565b91505060a083015161315e60c0860182613421565b5060c083015161317160e0860182613344565b5060e0830151613185610120860182612b10565b5061010083015161319a610140860182613421565b506101208301518482036101608601526131b48282612a17565b9150506101408301518482036101808601526131d082826129b9565b9150506101608301518482036101a08601526131ec8282612944565b9150508091505092915050565b60e08201600082015161320f6000850182612be8565b5060208201516132226020850182612be8565b5060408201516132356040850182612722565b5060608201516132486060850182613421565b50608082015161325b6080850182612b10565b5060a082015161326e60a0850182612b10565b5060c082015161328160c0850182612b10565b50505050565b60e08201600082015161329d6000850182612be8565b5060208201516132b06020850182612be8565b5060408201516132c36040850182612722565b5060608201516132d66060850182613421565b5060808201516132e96080850182612b10565b5060a08201516132fc60a0850182612b10565b5060c082015161330f60c0850182612b10565b50505050565b60408201600082015161332b600085018261343f565b50602082015161333e6020850182612722565b50505050565b60408201600082015161335a6000850182612b10565b50602082015161336d6020850182613421565b50505050565b600060408301600083015161338b6000860182612722565b50602083015184820360208601526133a38282612e9b565b9150508091505092915050565b600060408301600083015184820360008601526133cd8282612757565b915050602083015184820360208601526133e78282612813565b9150508091505092915050565b6133fd81613d0b565b82525050565b61340c81613cfd565b82525050565b61341b81613d2b565b82525050565b61342a81613d35565b82525050565b61343981613d35565b82525050565b61344881613d45565b82525050565b61345781613d45565b82525050565b61346e61346982613d45565b613dcc565b82525050565b60006134808284612740565b60148201915081905092915050565b600061349b8284612b2e565b60208201915081905092915050565b60006134b6828961345d565b6001820191506134c68288612af9565b6014820191506134d68287612740565b6014820191506134e68286612bb7565b91506134f28285612740565b6014820191506135028284612bb7565b9150819050979650505050505050565b60006020820190506135276000830184612731565b92915050565b6000602082019050818103600083015261354781846127b5565b905092915050565b60006020820190506135646000830184612aea565b92915050565b600060208201905061357f6000830184612b1f565b92915050565b600060808201905061359a6000830187612b1f565b6135a7602083018661344e565b6135b46040830185612b1f565b6135c16060830184612b1f565b95945050505050565b600060208201905081810360008301526135e48184612b7e565b905092915050565b600060e082019050613601600083018a612bf7565b61360e6020830189612bf7565b61361b6040830188612731565b6136286060830187613430565b6136356080830186612b1f565b61364260a0830185612b1f565b61364f60c0830184612b1f565b98975050505050505050565b6000602082019050818103600083015261367481612c5d565b9050919050565b6000602082019050818103600083015261369481612cc3565b9050919050565b600060208201905081810360008301526136b481612d03565b9050919050565b600060208201905081810360008301526136d481612d69565b9050919050565b600060208201905081810360008301526136f481612dcf565b9050919050565b6000602082019050818103600083015261371481612e35565b9050919050565b6000602082019050818103600083015261373581846130df565b905092915050565b6000604082019050818103600083015261375781856130df565b90506137666020830184613430565b9392505050565b600060e0820190506137826000830184613287565b92915050565b600060208201905081810360008301526137a281846133b0565b905092915050565b60006020820190506137bf6000830184613412565b92915050565b60006020820190506137da6000830184613430565b92915050565b60006020820190506137f5600083018461344e565b92915050565b6000604051905081810181811067ffffffffffffffff8211171561382257613821613dde565b5b8060405250919050565b600067ffffffffffffffff82111561384757613846613dde565b5b602082029050602081019050919050565b600067ffffffffffffffff82111561387357613872613dde565b5b602082029050602081019050919050565b600067ffffffffffffffff82111561389f5761389e613dde565b5b602082029050602081019050919050565b600067ffffffffffffffff8211156138cb576138ca613dde565b5b602082029050602081019050919050565b600067ffffffffffffffff8211156138f7576138f6613dde565b5b602082029050602081019050919050565b600067ffffffffffffffff82111561392357613922613dde565b5b602082029050602081019050919050565b600067ffffffffffffffff82111561394f5761394e613dde565b5b602082029050602081019050919050565b600067ffffffffffffffff82111561397b5761397a613dde565b5b602082029050602081019050919050565b600067ffffffffffffffff8211156139a7576139a6613dde565b5b602082029050602081019050919050565b600067ffffffffffffffff8211156139d3576139d2613dde565b5b602082029050602081019050919050565b600067ffffffffffffffff8211156139ff576139fe613dde565b5b601f19601f8301169050602081019050919050565b600067ffffffffffffffff821115613a2f57613a2e613dde565b5b601f19601f8301169050602081019050919050565b6000819050602082019050919050565b6000819050602082019050919050565b6000819050602082019050919050565b6000819050602082019050919050565b6000819050602082019050919050565b6000819050602082019050919050565b6000819050602082019050919050565b6000819050602082019050919050565b600081519050919050565b600081519050919050565b600081519050919050565b600081519050919050565b600081519050919050565b600081519050919050565b600081519050919050565b600081519050919050565b600081519050919050565b600081519050919050565b6000602082019050919050565b6000602082019050919050565b6000602082019050919050565b6000602082019050919050565b6000602082019050919050565b6000602082019050919050565b6000602082019050919050565b6000602082019050919050565b600082825260208201905092915050565b600082825260208201905092915050565b600082825260208201905092915050565b600082825260208201905092915050565b600082825260208201905092915050565b600082825260208201905092915050565b600082825260208201905092915050565b600082825260208201905092915050565b600082825260208201905092915050565b600082825260208201905092915050565b600082825260208201905092915050565b600081905092915050565b600082825260208201905092915050565b600082825260208201905092915050565b6000613c8d82613d0b565b9050919050565b60008115159050919050565b60007fffffffffffffffffffffffffffffffffffffffff00000000000000000000000082169050919050565b6000819050919050565b60008160010b9050919050565b60008160030b9050919050565b60008160070b9050919050565b600061ffff82169050919050565b600073ffffffffffffffffffffffffffffffffffffffff82169050919050565b6000819050919050565b600063ffffffff82169050919050565b600060ff82169050919050565b82818337600083830152505050565b60005b83811015613d7f578082015181840152602081019050613d64565b83811115613d8e576000848401525b50505050565b6000613d9f82613dba565b9050919050565b6000819050919050565b6000819050919050565b6000613dc582613dfe565b9050919050565b6000613dd782613df1565b9050919050565bfe5b6000601f19601f8301169050919050565b60008160f81b9050919050565b60008160601b9050919050565b613e1481613c82565b8114613e1f57600080fd5b50565b613e2b81613ccc565b8114613e3657600080fd5b50565b613e4281613cd6565b8114613e4d57600080fd5b50565b613e5981613ce3565b8114613e6457600080fd5b50565b613e7081613cf0565b8114613e7b57600080fd5b50565b613e8781613cfd565b8114613e9257600080fd5b50565b613e9e81613d0b565b8114613ea957600080fd5b50565b613eb581613d2b565b8114613ec057600080fd5b50565b613ecc81613d35565b8114613ed757600080fd5b50565b613ee381613d45565b8114613eee57600080fd5b5056fea2646970667358221220483ac66daf94a64b7de287b1e977569a1be5f134a6ec3bd33c63840e385c06fa64736f6c63430007060033",
  "immutableReferences": {},
  "source": "// SPDX-License-Identifier: MIT\r\n// Bridge between ethereum and verus\r\n\r\npragma solidity >=0.6.0 <0.9.0;\r\npragma experimental ABIEncoderV2;\r\n\r\nimport \"../Libraries/VerusConstants.sol\";\r\nimport \"../Libraries/VerusObjectsNotarization.sol\";\r\nimport \"../VerusBridge/VerusSerializer.sol\";\r\nimport \"../MMR/VerusBlake2b.sol\";\r\n\r\ncontract VerusNotarizer{\r\n\r\n    //last notarized blockheight\r\n    uint32 public lastBlockHeight;\r\n    //CurrencyState private lastCurrencyState;\r\n    //allows for the contract to be upgradable\r\n    bool public deprecated;\r\n    address public upgradedAddress;\r\n    //number of notaries required\r\n    uint8 requiredNotaries = 13;\r\n    VerusBlake2b blake2b;\r\n    VerusSerializer verusSerializer;\r\n    bytes20 vdxfcode = bytes20(0x367Eaadd291E1976ABc446A143f83c2D4D2C5a84);\r\n    //8c ea 50 fa 0f c6 78 7f 0f f3 d6 88 58 b2 fa dd 36 e7 a4 85\r\n    //0322174Cb35c1E987a8cbD39D3A3Ce29b290fbed \r\n    //0x280a0514338bbcdd2889f4809592816b388d4e7a;\r\n\r\n\r\n    //list of all notarizers mapped to allow for quick searching\r\n    mapping (address => bool) public komodoNotaries;\r\n    mapping (address => address) public notaryAddressMapping;\r\n    address[] private notaries;\r\n    //mapped blockdetails\r\n    mapping (uint32 => VerusObjectsNotarization.CProofRoot) public notarizedProofRoots;\r\n    mapping (uint32 => bytes32) public notarizedStateRoots;\r\n    \r\n    uint32[] public blockHeights;\r\n    //used to record the number of notaries\r\n    uint8 private notaryCount;\r\n\r\n    // Notifies when the contract is deprecated\r\n    event Deprecate(address newAddress);\r\n    // Notifies when a new block hash is published\r\n    event NewBlock(VerusObjectsNotarization.CPBaaSNotarization,uint32 notarizedDataHeight);\r\n\r\n    constructor(address _verusBLAKE2bAddress,address _verusSerializerAddress,address[] memory _notaries,address[] memory _notariesEthAddress) public {\r\n        verusSerializer = VerusSerializer(_verusSerializerAddress);\r\n        blake2b = VerusBlake2b(_verusBLAKE2bAddress);\r\n        deprecated = false;\r\n        notaryCount = 0;\r\n        lastBlockHeight = 0;\r\n        //add in the owner as the first notary\r\n       // address msgSender = msg.sender;\r\n        for(uint i =0; i < _notaries.length; i++){\r\n            komodoNotaries[_notaries[i]] = true;\r\n            notaryAddressMapping[_notaries[i]] = _notariesEthAddress[i];\r\n            notaries.push(_notaries[i]);\r\n            notaryCount++;\r\n        }\r\n    }\r\n\r\n    modifier onlyNotary() {\r\n        address msgSender = msg.sender;\r\n        bytes memory errorMessage = abi.encodePacked(\"Caller is not a notary\",msgSender);\r\n        require(komodoNotaries[msgSender] == true, string(errorMessage));\r\n        _;\r\n    }\r\n    \r\n    function getNotaries() public view returns(address[] memory){\r\n        return notaries;\r\n    }\r\n        \r\n    function isNotary(address _notary) public view returns(bool) {\r\n        if(komodoNotaries[_notary] == true) return true;\r\n        else return false;\r\n    }\r\n\r\n    //this function allows for intially expanding out the number of notaries\r\n    function currentNotariesRequired() public view returns(uint8){\r\n        if(notaryCount == 1 || notaryCount == 2) return 1;\r\n        uint halfNotaryCount = (notaryCount/2) + 1;\r\n        if(halfNotaryCount > requiredNotaries) return requiredNotaries;\r\n        else return uint8(halfNotaryCount);\r\n    }\r\n\r\n    function isNotarized(bytes32 _notarizedDataHash,\r\n        bytes32[] memory _rs,\r\n        bytes32[] memory _ss,\r\n        uint8[] memory _vs) public view returns(bool){\r\n        \r\n        address signingAddress;\r\n        //total number of signatures that have been validated\r\n        uint8 numberOfSignatures = 0;\r\n\r\n        //loop through the arrays, check the following:\r\n        //does the hash in the hashedBlocks match the komodoBlockHash passed in\r\n        for(uint i = 0; i < _rs.length; i++){\r\n            //if the address is in the notary array increment the number of signatures\r\n            signingAddress = recoverSigner(_notarizedDataHash, _vs[i], _rs[i], _ss[i]);\r\n            if(komodoNotaries[signingAddress]) {\r\n                numberOfSignatures++;\r\n            }\r\n        }\r\n        uint8 _requiredNotaries = currentNotariesRequired();\r\n        if(numberOfSignatures >= _requiredNotaries){\r\n            return true;\r\n        } else return false;\r\n\r\n    }\r\n \r\n    struct teststruct {\r\n        address[] signer;\r\n        bytes[] toHash;\r\n    }\r\n\r\n    function setLatestData(VerusObjectsNotarization.CPBaaSNotarization memory _pbaasNotarization,\r\n        uint8[] memory _vs,\r\n        bytes32[] memory _rs,\r\n        bytes32[] memory _ss,\r\n        uint32[] memory blockheights,\r\n        address[] memory notaryAddress\r\n        ) public returns(teststruct memory output){\r\n\r\n        require(!deprecated,\"Contract has been deprecated\");\r\n        //require(komodoNotaries[msg.sender],\"Only a notary can call this function\");\r\n        require((_rs.length == _ss.length) && (_rs.length == _vs.length),\"Signature arrays must be of equal length\");\r\n        require(_pbaasNotarization.notarizationheight > lastBlockHeight,\"Block Height must be greater than current block height\");\r\n\r\n        bytes memory serializedNotarisation = verusSerializer.serializeCPBaaSNotarization(_pbaasNotarization);\r\n        \r\n        //add in the extra fields for the hashing\r\n        //add in the other pieces for encoding\r\n        bytes32 hashedNotarization;\r\n        address signer;\r\n        uint8 numberOfSignatures = 0;\r\n        bytes memory toHash;\r\n        output.signer = new address[](blockheights.length);\r\n        output.toHash = new bytes[](blockheights.length);\r\n        //output = \"start\";\r\n        \r\n        for(uint i=0; i < blockheights.length;i++){\r\n            //build the hashing sequence\r\n            output.toHash[i] = toHash = abi.encodePacked(uint8(1),\r\n                vdxfcode,VerusConstants.VerusSystemId,\r\n                verusSerializer.serializeUint32(blockheights[i]),\r\n                notaryAddress[i],\r\n                abi.encodePacked(keccak256(serializedNotarisation)));\r\n            //output = toHash;\r\n            hashedNotarization = keccak256(toHash);\r\n            //output = hashedNotarization;\r\n            signer = recoverSigner(hashedNotarization, _vs[i]-4, _rs[i], _ss[i]);\r\n            output.signer[i] = signer;\r\n            if(signer == notaryAddressMapping[notaryAddress[i]]){\r\n                   numberOfSignatures++;\r\n                   //output = string(abi.encodePacked(output,\" signature correct\"));\r\n            }\r\n            if(numberOfSignatures >= requiredNotaries){\r\n                break;\r\n            }\r\n        }\r\n       // require(numberOfSignatures >= currentNotariesRequired(),\"Not enough signatures\");\r\n        if(numberOfSignatures >= currentNotariesRequired()){\r\n                //output = string(abi.encodePacked(output,\" enough notaries\"));\r\n            for(uint j = 0 ; j < _pbaasNotarization.proofroots.length;j++){\r\n                //output = string(abi.encodePacked(output,\" adding notarized data \"));\r\n                if(_pbaasNotarization.proofroots[j].systemid == VerusConstants.VerusCurrencyId){\r\n                    \r\n                    notarizedStateRoots[_pbaasNotarization.notarizationheight] =  _pbaasNotarization.proofroots[j].stateroot;       \r\n                    notarizedProofRoots[_pbaasNotarization.notarizationheight] = _pbaasNotarization.proofroots[j];\r\n                    blockHeights.push(_pbaasNotarization.notarizationheight);\r\n                    if(lastBlockHeight <_pbaasNotarization.notarizationheight){\r\n                         //output = string(abi.encodePacked(output,\" setting lastBlockHeight\"));\r\n                        lastBlockHeight = _pbaasNotarization.notarizationheight;\r\n                    }\r\n                }\r\n            }\r\n            emit NewBlock(_pbaasNotarization,lastBlockHeight);\r\n            \r\n        \r\n        }\r\n      \r\n        return output;\r\n    }\r\n\r\n    function recoverSigner(bytes32 _h, uint8 _v, bytes32 _r, bytes32 _s) public pure returns (address) {\r\n        address addr = ecrecover(_h, _v, _r, _s);\r\n        return addr;\r\n    }\r\n/*\r\n\"0x0bc6ceeca1778117d9547d03c57cbe944de11cecf37ee01a84c193b82c712440\"\r\n4024712cb893c1841ae07ef3ec1ce14d94be7cc5037d54d9178177a1eccec60b*/\r\n\r\n    function numNotarizedBlocks() public view returns(uint){\r\n        return blockHeights.length;\r\n    }\r\n\r\n    function getLastProofRoot() public view returns(VerusObjectsNotarization.CProofRoot memory){\r\n\r\n        return notarizedProofRoots[lastBlockHeight];\r\n\r\n    }\r\n    \r\n    function notarizedDeprecation(address _upgradedAddress,bytes32 _addressHash,uint8[] memory _vs,bytes32[] memory _rs,bytes32[] memory _ss) public view returns(bool){\r\n        require(isNotary(msg.sender),\"Only a notary can deprecate this contract\");\r\n        bytes32 testingAddressHash = blake2b.createHash(abi.encodePacked(_upgradedAddress));\r\n        require(testingAddressHash == _addressHash,\"Hashed address does not match address hash passed in\");\r\n        require(isNotarized(_addressHash, _rs, _ss, _vs),\"Deprecation requires the address to be notarized\");\r\n        return(true);\r\n    }\r\n\r\n    function deprecate(address _upgradedAddress,bytes32 _addressHash,uint8[] memory _vs,bytes32[] memory _rs,bytes32[] memory _ss) public {\r\n        if(notarizedDeprecation(_upgradedAddress, _addressHash, _vs, _rs, _ss)){\r\n            deprecated = true;\r\n            upgradedAddress = _upgradedAddress;\r\n            Deprecate(_upgradedAddress);\r\n        }\r\n    }\r\n    \r\n    \r\n\r\n}\r\n",
  "sourcePath": "D:\\dev\\Ethereum-verus-notarisation\\contracts\\VerusNotarizer\\VerusNotarizer.sol",
  "compiler": {
    "name": "solc",
    "version": "0.7.6+commit.7338295f.Emscripten.clang"
  },
  "schemaVersion": "3.4.3",
  "updatedAt": "2021-09-29T16:08:58.064Z",
  "networkType": "ethereum",
  "devdoc": {
    "kind": "dev",
    "methods": {},
    "version": 1
  },
  "userdoc": {
    "kind": "user",
    "methods": {},
    "version": 1
  }
}