{
  "contractName": "VerusBridge",
  "abi": [
    {
      "inputs": [
        {
          "internalType": "address",
          "name": "verusProofAddress",
          "type": "address"
        },
        {
          "internalType": "address",
          "name": "tokenManagerAddress",
          "type": "address"
        },
        {
          "internalType": "address",
          "name": "verusSerializerAddress",
          "type": "address"
        },
        {
          "internalType": "address",
          "name": "verusNotarizerAddress",
          "type": "address"
        },
        {
          "internalType": "address",
          "name": "verusCCEAddress",
          "type": "address"
        },
        {
          "internalType": "uint256",
          "name": "_poolSize",
          "type": "uint256"
        }
      ],
      "stateMutability": "nonpayable",
      "type": "constructor"
    },
    {
      "anonymous": false,
      "inputs": [
        {
          "indexed": false,
          "internalType": "address",
          "name": "newAddress",
          "type": "address"
        }
      ],
      "name": "Deprecate",
      "type": "event"
    },
    {
      "inputs": [
        {
          "internalType": "uint256",
          "name": "",
          "type": "uint256"
        },
        {
          "internalType": "uint256",
          "name": "",
          "type": "uint256"
        }
      ],
      "name": "_readyExports",
      "outputs": [
        {
          "internalType": "uint32",
          "name": "version",
          "type": "uint32"
        },
        {
          "components": [
            {
              "internalType": "address",
              "name": "currency",
              "type": "address"
            },
            {
              "internalType": "uint64",
              "name": "amount",
              "type": "uint64"
            }
          ],
          "internalType": "struct VerusObjects.CCurrencyValueMap",
          "name": "currencyvalue",
          "type": "tuple"
        },
        {
          "internalType": "uint32",
          "name": "flags",
          "type": "uint32"
        },
        {
          "internalType": "address",
          "name": "feecurrencyid",
          "type": "address"
        },
        {
          "internalType": "uint256",
          "name": "fees",
          "type": "uint256"
        },
        {
          "components": [
            {
              "internalType": "uint8",
              "name": "destinationtype",
              "type": "uint8"
            },
            {
              "internalType": "bytes",
              "name": "destinationaddress",
              "type": "bytes"
            }
          ],
          "internalType": "struct VerusObjectsCommon.CTransferDestination",
          "name": "destination",
          "type": "tuple"
        },
        {
          "internalType": "address",
          "name": "destcurrencyid",
          "type": "address"
        },
        {
          "internalType": "address",
          "name": "destsystemid",
          "type": "address"
        },
        {
          "internalType": "address",
          "name": "secondreserveid",
          "type": "address"
        }
      ],
      "stateMutability": "view",
      "type": "function",
      "constant": true
    },
    {
      "inputs": [
        {
          "internalType": "address",
          "name": "",
          "type": "address"
        }
      ],
      "name": "claimableFees",
      "outputs": [
        {
          "internalType": "uint256",
          "name": "",
          "type": "uint256"
        }
      ],
      "stateMutability": "view",
      "type": "function",
      "constant": true
    },
    {
      "inputs": [],
      "name": "deprecated",
      "outputs": [
        {
          "internalType": "bool",
          "name": "",
          "type": "bool"
        }
      ],
      "stateMutability": "view",
      "type": "function",
      "constant": true
    },
    {
      "inputs": [],
      "name": "ethHeld",
      "outputs": [
        {
          "internalType": "uint256",
          "name": "",
          "type": "uint256"
        }
      ],
      "stateMutability": "view",
      "type": "function",
      "constant": true
    },
    {
      "inputs": [],
      "name": "feesHeld",
      "outputs": [
        {
          "internalType": "uint256",
          "name": "",
          "type": "uint256"
        }
      ],
      "stateMutability": "view",
      "type": "function",
      "constant": true
    },
    {
      "inputs": [],
      "name": "firstBlock",
      "outputs": [
        {
          "internalType": "uint256",
          "name": "",
          "type": "uint256"
        }
      ],
      "stateMutability": "view",
      "type": "function",
      "constant": true
    },
    {
      "inputs": [],
      "name": "lastTxImportHeight",
      "outputs": [
        {
          "internalType": "uint256",
          "name": "",
          "type": "uint256"
        }
      ],
      "stateMutability": "view",
      "type": "function",
      "constant": true
    },
    {
      "inputs": [],
      "name": "lastimport",
      "outputs": [
        {
          "internalType": "uint256",
          "name": "height",
          "type": "uint256"
        },
        {
          "internalType": "bytes32",
          "name": "txid",
          "type": "bytes32"
        }
      ],
      "stateMutability": "view",
      "type": "function",
      "constant": true
    },
    {
      "inputs": [],
      "name": "poolSize",
      "outputs": [
        {
          "internalType": "uint256",
          "name": "",
          "type": "uint256"
        }
      ],
      "stateMutability": "view",
      "type": "function",
      "constant": true
    },
    {
      "inputs": [
        {
          "internalType": "bytes32",
          "name": "",
          "type": "bytes32"
        }
      ],
      "name": "processedTxids",
      "outputs": [
        {
          "internalType": "bool",
          "name": "",
          "type": "bool"
        }
      ],
      "stateMutability": "view",
      "type": "function",
      "constant": true
    },
    {
      "inputs": [
        {
          "internalType": "uint256",
          "name": "",
          "type": "uint256"
        }
      ],
      "name": "readyExportHashes",
      "outputs": [
        {
          "internalType": "bytes32",
          "name": "",
          "type": "bytes32"
        }
      ],
      "stateMutability": "view",
      "type": "function",
      "constant": true
    },
    {
      "inputs": [
        {
          "internalType": "uint256",
          "name": "",
          "type": "uint256"
        }
      ],
      "name": "readyExportsByBlock",
      "outputs": [
        {
          "internalType": "uint256",
          "name": "index",
          "type": "uint256"
        },
        {
          "internalType": "bool",
          "name": "created",
          "type": "bool"
        }
      ],
      "stateMutability": "view",
      "type": "function",
      "constant": true
    },
    {
      "inputs": [],
      "name": "upgradedAddress",
      "outputs": [
        {
          "internalType": "address",
          "name": "",
          "type": "address"
        }
      ],
      "stateMutability": "view",
      "type": "function",
      "constant": true
    },
    {
      "inputs": [
        {
          "internalType": "uint256",
          "name": "a",
          "type": "uint256"
        },
        {
          "internalType": "uint8",
          "name": "decimals",
          "type": "uint8"
        }
      ],
      "name": "convertFromVerusNumber",
      "outputs": [
        {
          "internalType": "uint256",
          "name": "",
          "type": "uint256"
        }
      ],
      "stateMutability": "pure",
      "type": "function",
      "constant": true
    },
    {
      "inputs": [
        {
          "internalType": "uint256",
          "name": "a",
          "type": "uint256"
        },
        {
          "internalType": "uint8",
          "name": "decimals",
          "type": "uint8"
        }
      ],
      "name": "convertToVerusNumber",
      "outputs": [
        {
          "internalType": "uint256",
          "name": "",
          "type": "uint256"
        }
      ],
      "stateMutability": "pure",
      "type": "function",
      "constant": true
    },
    {
      "inputs": [
        {
          "components": [
            {
              "internalType": "uint32",
              "name": "version",
              "type": "uint32"
            },
            {
              "components": [
                {
                  "internalType": "address",
                  "name": "currency",
                  "type": "address"
                },
                {
                  "internalType": "uint64",
                  "name": "amount",
                  "type": "uint64"
                }
              ],
              "internalType": "struct VerusObjects.CCurrencyValueMap",
              "name": "currencyvalue",
              "type": "tuple"
            },
            {
              "internalType": "uint32",
              "name": "flags",
              "type": "uint32"
            },
            {
              "internalType": "address",
              "name": "feecurrencyid",
              "type": "address"
            },
            {
              "internalType": "uint256",
              "name": "fees",
              "type": "uint256"
            },
            {
              "components": [
                {
                  "internalType": "uint8",
                  "name": "destinationtype",
                  "type": "uint8"
                },
                {
                  "internalType": "bytes",
                  "name": "destinationaddress",
                  "type": "bytes"
                }
              ],
              "internalType": "struct VerusObjectsCommon.CTransferDestination",
              "name": "destination",
              "type": "tuple"
            },
            {
              "internalType": "address",
              "name": "destcurrencyid",
              "type": "address"
            },
            {
              "internalType": "address",
              "name": "destsystemid",
              "type": "address"
            },
            {
              "internalType": "address",
              "name": "secondreserveid",
              "type": "address"
            }
          ],
          "internalType": "struct VerusObjects.CReserveTransfer",
          "name": "transfer",
          "type": "tuple"
        }
      ],
      "name": "export",
      "outputs": [],
      "stateMutability": "payable",
      "type": "function",
      "payable": true
    },
    {
      "inputs": [],
      "name": "getlastimportheight",
      "outputs": [
        {
          "internalType": "uint256",
          "name": "",
          "type": "uint256"
        }
      ],
      "stateMutability": "view",
      "type": "function",
      "constant": true
    },
    {
      "inputs": [
        {
          "internalType": "bytes32[]",
          "name": "_imports",
          "type": "bytes32[]"
        }
      ],
      "name": "checkImports",
      "outputs": [
        {
          "internalType": "bytes32[]",
          "name": "",
          "type": "bytes32[]"
        }
      ],
      "stateMutability": "view",
      "type": "function",
      "constant": true
    },
    {
      "inputs": [
        {
          "components": [
            {
              "internalType": "uint256",
              "name": "height",
              "type": "uint256"
            },
            {
              "internalType": "bytes32",
              "name": "txid",
              "type": "bytes32"
            },
            {
              "internalType": "uint256",
              "name": "txoutnum",
              "type": "uint256"
            },
            {
              "components": [
                {
                  "internalType": "uint16",
                  "name": "version",
                  "type": "uint16"
                },
                {
                  "internalType": "uint16",
                  "name": "flags",
                  "type": "uint16"
                },
                {
                  "internalType": "address",
                  "name": "sourcesystemid",
                  "type": "address"
                },
                {
                  "internalType": "bytes32",
                  "name": "hashtransfers",
                  "type": "bytes32"
                },
                {
                  "internalType": "uint32",
                  "name": "sourceheightstart",
                  "type": "uint32"
                },
                {
                  "internalType": "uint32",
                  "name": "sourceheightend",
                  "type": "uint32"
                },
                {
                  "internalType": "address",
                  "name": "destinationsystemid",
                  "type": "address"
                },
                {
                  "internalType": "address",
                  "name": "destinationcurrencyid",
                  "type": "address"
                },
                {
                  "internalType": "uint32",
                  "name": "numinputs",
                  "type": "uint32"
                },
                {
                  "components": [
                    {
                      "internalType": "address",
                      "name": "currency",
                      "type": "address"
                    },
                    {
                      "internalType": "uint64",
                      "name": "amount",
                      "type": "uint64"
                    }
                  ],
                  "internalType": "struct VerusObjects.CCurrencyValueMap[]",
                  "name": "totalamounts",
                  "type": "tuple[]"
                },
                {
                  "components": [
                    {
                      "internalType": "address",
                      "name": "currency",
                      "type": "address"
                    },
                    {
                      "internalType": "uint64",
                      "name": "amount",
                      "type": "uint64"
                    }
                  ],
                  "internalType": "struct VerusObjects.CCurrencyValueMap[]",
                  "name": "totalfees",
                  "type": "tuple[]"
                },
                {
                  "components": [
                    {
                      "internalType": "address",
                      "name": "currency",
                      "type": "address"
                    },
                    {
                      "internalType": "uint64",
                      "name": "amount",
                      "type": "uint64"
                    }
                  ],
                  "internalType": "struct VerusObjects.CCurrencyValueMap[]",
                  "name": "totalburned",
                  "type": "tuple[]"
                },
                {
                  "components": [
                    {
                      "internalType": "uint8",
                      "name": "destinationtype",
                      "type": "uint8"
                    },
                    {
                      "internalType": "bytes",
                      "name": "destinationaddress",
                      "type": "bytes"
                    }
                  ],
                  "internalType": "struct VerusObjectsCommon.CTransferDestination",
                  "name": "rewardaddress",
                  "type": "tuple"
                },
                {
                  "internalType": "int32",
                  "name": "firstinput",
                  "type": "int32"
                }
              ],
              "internalType": "struct VerusObjects.CCrossChainExport",
              "name": "exportinfo",
              "type": "tuple"
            },
            {
              "components": [
                {
                  "internalType": "uint8",
                  "name": "version",
                  "type": "uint8"
                },
                {
                  "internalType": "uint8",
                  "name": "typeC",
                  "type": "uint8"
                },
                {
                  "components": [
                    {
                      "internalType": "uint8",
                      "name": "branchType",
                      "type": "uint8"
                    },
                    {
                      "components": [
                        {
                          "internalType": "uint8",
                          "name": "CMerkleBranchBase",
                          "type": "uint8"
                        },
                        {
                          "internalType": "uint32",
                          "name": "nIndex",
                          "type": "uint32"
                        },
                        {
                          "internalType": "uint32",
                          "name": "nSize",
                          "type": "uint32"
                        },
                        {
                          "internalType": "bytes32[]",
                          "name": "branch",
                          "type": "bytes32[]"
                        }
                      ],
                      "internalType": "struct VerusObjects.CMerkleBranch",
                      "name": "proofSequence",
                      "type": "tuple"
                    }
                  ],
                  "internalType": "struct VerusObjects.CTXProof[]",
                  "name": "txproof",
                  "type": "tuple[]"
                },
                {
                  "components": [
                    {
                      "internalType": "uint8",
                      "name": "elType",
                      "type": "uint8"
                    },
                    {
                      "internalType": "uint8",
                      "name": "elIdx",
                      "type": "uint8"
                    },
                    {
                      "internalType": "bytes",
                      "name": "elVchObj",
                      "type": "bytes"
                    },
                    {
                      "components": [
                        {
                          "internalType": "uint8",
                          "name": "branchType",
                          "type": "uint8"
                        },
                        {
                          "components": [
                            {
                              "internalType": "uint8",
                              "name": "CMerkleBranchBase",
                              "type": "uint8"
                            },
                            {
                              "internalType": "uint32",
                              "name": "nIndex",
                              "type": "uint32"
                            },
                            {
                              "internalType": "uint32",
                              "name": "nSize",
                              "type": "uint32"
                            },
                            {
                              "internalType": "bytes32[]",
                              "name": "branch",
                              "type": "bytes32[]"
                            }
                          ],
                          "internalType": "struct VerusObjects.CMerkleBranch",
                          "name": "proofSequence",
                          "type": "tuple"
                        }
                      ],
                      "internalType": "struct VerusObjects.CTXProof[]",
                      "name": "elProof",
                      "type": "tuple[]"
                    }
                  ],
                  "internalType": "struct VerusObjects.CComponents[]",
                  "name": "components",
                  "type": "tuple[]"
                }
              ],
              "internalType": "struct VerusObjects.CPtransactionproof",
              "name": "partialtransactionproof",
              "type": "tuple"
            },
            {
              "components": [
                {
                  "internalType": "uint32",
                  "name": "version",
                  "type": "uint32"
                },
                {
                  "components": [
                    {
                      "internalType": "address",
                      "name": "currency",
                      "type": "address"
                    },
                    {
                      "internalType": "uint64",
                      "name": "amount",
                      "type": "uint64"
                    }
                  ],
                  "internalType": "struct VerusObjects.CCurrencyValueMap",
                  "name": "currencyvalue",
                  "type": "tuple"
                },
                {
                  "internalType": "uint32",
                  "name": "flags",
                  "type": "uint32"
                },
                {
                  "internalType": "address",
                  "name": "feecurrencyid",
                  "type": "address"
                },
                {
                  "internalType": "uint256",
                  "name": "fees",
                  "type": "uint256"
                },
                {
                  "components": [
                    {
                      "internalType": "uint8",
                      "name": "destinationtype",
                      "type": "uint8"
                    },
                    {
                      "internalType": "bytes",
                      "name": "destinationaddress",
                      "type": "bytes"
                    }
                  ],
                  "internalType": "struct VerusObjectsCommon.CTransferDestination",
                  "name": "destination",
                  "type": "tuple"
                },
                {
                  "internalType": "address",
                  "name": "destcurrencyid",
                  "type": "address"
                },
                {
                  "internalType": "address",
                  "name": "destsystemid",
                  "type": "address"
                },
                {
                  "internalType": "address",
                  "name": "secondreserveid",
                  "type": "address"
                }
              ],
              "internalType": "struct VerusObjects.CReserveTransfer[]",
              "name": "transfers",
              "type": "tuple[]"
            }
          ],
          "internalType": "struct VerusObjects.CReserveTransferImport[]",
          "name": "_imports",
          "type": "tuple[]"
        }
      ],
      "name": "submitImports",
      "outputs": [],
      "stateMutability": "nonpayable",
      "type": "function"
    },
    {
      "inputs": [
        {
          "components": [
            {
              "internalType": "uint256",
              "name": "height",
              "type": "uint256"
            },
            {
              "internalType": "bytes32",
              "name": "txid",
              "type": "bytes32"
            },
            {
              "internalType": "uint256",
              "name": "txoutnum",
              "type": "uint256"
            },
            {
              "components": [
                {
                  "internalType": "uint16",
                  "name": "version",
                  "type": "uint16"
                },
                {
                  "internalType": "uint16",
                  "name": "flags",
                  "type": "uint16"
                },
                {
                  "internalType": "address",
                  "name": "sourcesystemid",
                  "type": "address"
                },
                {
                  "internalType": "bytes32",
                  "name": "hashtransfers",
                  "type": "bytes32"
                },
                {
                  "internalType": "uint32",
                  "name": "sourceheightstart",
                  "type": "uint32"
                },
                {
                  "internalType": "uint32",
                  "name": "sourceheightend",
                  "type": "uint32"
                },
                {
                  "internalType": "address",
                  "name": "destinationsystemid",
                  "type": "address"
                },
                {
                  "internalType": "address",
                  "name": "destinationcurrencyid",
                  "type": "address"
                },
                {
                  "internalType": "uint32",
                  "name": "numinputs",
                  "type": "uint32"
                },
                {
                  "components": [
                    {
                      "internalType": "address",
                      "name": "currency",
                      "type": "address"
                    },
                    {
                      "internalType": "uint64",
                      "name": "amount",
                      "type": "uint64"
                    }
                  ],
                  "internalType": "struct VerusObjects.CCurrencyValueMap[]",
                  "name": "totalamounts",
                  "type": "tuple[]"
                },
                {
                  "components": [
                    {
                      "internalType": "address",
                      "name": "currency",
                      "type": "address"
                    },
                    {
                      "internalType": "uint64",
                      "name": "amount",
                      "type": "uint64"
                    }
                  ],
                  "internalType": "struct VerusObjects.CCurrencyValueMap[]",
                  "name": "totalfees",
                  "type": "tuple[]"
                },
                {
                  "components": [
                    {
                      "internalType": "address",
                      "name": "currency",
                      "type": "address"
                    },
                    {
                      "internalType": "uint64",
                      "name": "amount",
                      "type": "uint64"
                    }
                  ],
                  "internalType": "struct VerusObjects.CCurrencyValueMap[]",
                  "name": "totalburned",
                  "type": "tuple[]"
                },
                {
                  "components": [
                    {
                      "internalType": "uint8",
                      "name": "destinationtype",
                      "type": "uint8"
                    },
                    {
                      "internalType": "bytes",
                      "name": "destinationaddress",
                      "type": "bytes"
                    }
                  ],
                  "internalType": "struct VerusObjectsCommon.CTransferDestination",
                  "name": "rewardaddress",
                  "type": "tuple"
                },
                {
                  "internalType": "int32",
                  "name": "firstinput",
                  "type": "int32"
                }
              ],
              "internalType": "struct VerusObjects.CCrossChainExport",
              "name": "exportinfo",
              "type": "tuple"
            },
            {
              "components": [
                {
                  "internalType": "uint8",
                  "name": "version",
                  "type": "uint8"
                },
                {
                  "internalType": "uint8",
                  "name": "typeC",
                  "type": "uint8"
                },
                {
                  "components": [
                    {
                      "internalType": "uint8",
                      "name": "branchType",
                      "type": "uint8"
                    },
                    {
                      "components": [
                        {
                          "internalType": "uint8",
                          "name": "CMerkleBranchBase",
                          "type": "uint8"
                        },
                        {
                          "internalType": "uint32",
                          "name": "nIndex",
                          "type": "uint32"
                        },
                        {
                          "internalType": "uint32",
                          "name": "nSize",
                          "type": "uint32"
                        },
                        {
                          "internalType": "bytes32[]",
                          "name": "branch",
                          "type": "bytes32[]"
                        }
                      ],
                      "internalType": "struct VerusObjects.CMerkleBranch",
                      "name": "proofSequence",
                      "type": "tuple"
                    }
                  ],
                  "internalType": "struct VerusObjects.CTXProof[]",
                  "name": "txproof",
                  "type": "tuple[]"
                },
                {
                  "components": [
                    {
                      "internalType": "uint8",
                      "name": "elType",
                      "type": "uint8"
                    },
                    {
                      "internalType": "uint8",
                      "name": "elIdx",
                      "type": "uint8"
                    },
                    {
                      "internalType": "bytes",
                      "name": "elVchObj",
                      "type": "bytes"
                    },
                    {
                      "components": [
                        {
                          "internalType": "uint8",
                          "name": "branchType",
                          "type": "uint8"
                        },
                        {
                          "components": [
                            {
                              "internalType": "uint8",
                              "name": "CMerkleBranchBase",
                              "type": "uint8"
                            },
                            {
                              "internalType": "uint32",
                              "name": "nIndex",
                              "type": "uint32"
                            },
                            {
                              "internalType": "uint32",
                              "name": "nSize",
                              "type": "uint32"
                            },
                            {
                              "internalType": "bytes32[]",
                              "name": "branch",
                              "type": "bytes32[]"
                            }
                          ],
                          "internalType": "struct VerusObjects.CMerkleBranch",
                          "name": "proofSequence",
                          "type": "tuple"
                        }
                      ],
                      "internalType": "struct VerusObjects.CTXProof[]",
                      "name": "elProof",
                      "type": "tuple[]"
                    }
                  ],
                  "internalType": "struct VerusObjects.CComponents[]",
                  "name": "components",
                  "type": "tuple[]"
                }
              ],
              "internalType": "struct VerusObjects.CPtransactionproof",
              "name": "partialtransactionproof",
              "type": "tuple"
            },
            {
              "components": [
                {
                  "internalType": "uint32",
                  "name": "version",
                  "type": "uint32"
                },
                {
                  "components": [
                    {
                      "internalType": "address",
                      "name": "currency",
                      "type": "address"
                    },
                    {
                      "internalType": "uint64",
                      "name": "amount",
                      "type": "uint64"
                    }
                  ],
                  "internalType": "struct VerusObjects.CCurrencyValueMap",
                  "name": "currencyvalue",
                  "type": "tuple"
                },
                {
                  "internalType": "uint32",
                  "name": "flags",
                  "type": "uint32"
                },
                {
                  "internalType": "address",
                  "name": "feecurrencyid",
                  "type": "address"
                },
                {
                  "internalType": "uint256",
                  "name": "fees",
                  "type": "uint256"
                },
                {
                  "components": [
                    {
                      "internalType": "uint8",
                      "name": "destinationtype",
                      "type": "uint8"
                    },
                    {
                      "internalType": "bytes",
                      "name": "destinationaddress",
                      "type": "bytes"
                    }
                  ],
                  "internalType": "struct VerusObjectsCommon.CTransferDestination",
                  "name": "destination",
                  "type": "tuple"
                },
                {
                  "internalType": "address",
                  "name": "destcurrencyid",
                  "type": "address"
                },
                {
                  "internalType": "address",
                  "name": "destsystemid",
                  "type": "address"
                },
                {
                  "internalType": "address",
                  "name": "secondreserveid",
                  "type": "address"
                }
              ],
              "internalType": "struct VerusObjects.CReserveTransfer[]",
              "name": "transfers",
              "type": "tuple[]"
            }
          ],
          "internalType": "struct VerusObjects.CReserveTransferImport",
          "name": "_import",
          "type": "tuple"
        }
      ],
      "name": "_createImports",
      "outputs": [
        {
          "internalType": "bool",
          "name": "",
          "type": "bool"
        }
      ],
      "stateMutability": "nonpayable",
      "type": "function"
    },
    {
      "inputs": [
        {
          "internalType": "uint256",
          "name": "_blockNumber",
          "type": "uint256"
        }
      ],
      "name": "getReadyExportsByBlock",
      "outputs": [
        {
          "components": [
            {
              "internalType": "uint256",
              "name": "position",
              "type": "uint256"
            },
            {
              "internalType": "uint256",
              "name": "blockHeight",
              "type": "uint256"
            },
            {
              "internalType": "bytes32",
              "name": "exportHash",
              "type": "bytes32"
            },
            {
              "components": [
                {
                  "internalType": "uint32",
                  "name": "version",
                  "type": "uint32"
                },
                {
                  "components": [
                    {
                      "internalType": "address",
                      "name": "currency",
                      "type": "address"
                    },
                    {
                      "internalType": "uint64",
                      "name": "amount",
                      "type": "uint64"
                    }
                  ],
                  "internalType": "struct VerusObjects.CCurrencyValueMap",
                  "name": "currencyvalue",
                  "type": "tuple"
                },
                {
                  "internalType": "uint32",
                  "name": "flags",
                  "type": "uint32"
                },
                {
                  "internalType": "address",
                  "name": "feecurrencyid",
                  "type": "address"
                },
                {
                  "internalType": "uint256",
                  "name": "fees",
                  "type": "uint256"
                },
                {
                  "components": [
                    {
                      "internalType": "uint8",
                      "name": "destinationtype",
                      "type": "uint8"
                    },
                    {
                      "internalType": "bytes",
                      "name": "destinationaddress",
                      "type": "bytes"
                    }
                  ],
                  "internalType": "struct VerusObjectsCommon.CTransferDestination",
                  "name": "destination",
                  "type": "tuple"
                },
                {
                  "internalType": "address",
                  "name": "destcurrencyid",
                  "type": "address"
                },
                {
                  "internalType": "address",
                  "name": "destsystemid",
                  "type": "address"
                },
                {
                  "internalType": "address",
                  "name": "secondreserveid",
                  "type": "address"
                }
              ],
              "internalType": "struct VerusObjects.CReserveTransfer[]",
              "name": "transfers",
              "type": "tuple[]"
            }
          ],
          "internalType": "struct VerusObjects.CReserveTransferSet",
          "name": "",
          "type": "tuple"
        }
      ],
      "stateMutability": "view",
      "type": "function",
      "constant": true
    },
    {
      "inputs": [
        {
          "internalType": "uint256",
          "name": "_startBlock",
          "type": "uint256"
        },
        {
          "internalType": "uint256",
          "name": "_endBlock",
          "type": "uint256"
        }
      ],
      "name": "getReadyExportsByRange",
      "outputs": [
        {
          "components": [
            {
              "internalType": "uint256",
              "name": "position",
              "type": "uint256"
            },
            {
              "internalType": "uint256",
              "name": "blockHeight",
              "type": "uint256"
            },
            {
              "internalType": "bytes32",
              "name": "exportHash",
              "type": "bytes32"
            },
            {
              "components": [
                {
                  "internalType": "uint32",
                  "name": "version",
                  "type": "uint32"
                },
                {
                  "components": [
                    {
                      "internalType": "address",
                      "name": "currency",
                      "type": "address"
                    },
                    {
                      "internalType": "uint64",
                      "name": "amount",
                      "type": "uint64"
                    }
                  ],
                  "internalType": "struct VerusObjects.CCurrencyValueMap",
                  "name": "currencyvalue",
                  "type": "tuple"
                },
                {
                  "internalType": "uint32",
                  "name": "flags",
                  "type": "uint32"
                },
                {
                  "internalType": "address",
                  "name": "feecurrencyid",
                  "type": "address"
                },
                {
                  "internalType": "uint256",
                  "name": "fees",
                  "type": "uint256"
                },
                {
                  "components": [
                    {
                      "internalType": "uint8",
                      "name": "destinationtype",
                      "type": "uint8"
                    },
                    {
                      "internalType": "bytes",
                      "name": "destinationaddress",
                      "type": "bytes"
                    }
                  ],
                  "internalType": "struct VerusObjectsCommon.CTransferDestination",
                  "name": "destination",
                  "type": "tuple"
                },
                {
                  "internalType": "address",
                  "name": "destcurrencyid",
                  "type": "address"
                },
                {
                  "internalType": "address",
                  "name": "destsystemid",
                  "type": "address"
                },
                {
                  "internalType": "address",
                  "name": "secondreserveid",
                  "type": "address"
                }
              ],
              "internalType": "struct VerusObjects.CReserveTransfer[]",
              "name": "transfers",
              "type": "tuple[]"
            }
          ],
          "internalType": "struct VerusObjects.CReserveTransferSet[]",
          "name": "",
          "type": "tuple[]"
        }
      ],
      "stateMutability": "view",
      "type": "function",
      "constant": true
    },
    {
      "inputs": [],
      "name": "claimFees",
      "outputs": [
        {
          "internalType": "uint256",
          "name": "",
          "type": "uint256"
        }
      ],
      "stateMutability": "nonpayable",
      "type": "function"
    }
  ],
  "bytecode": "0x60806040526000600560146101000a81548160ff0219169083151502179055506000600755600060085560006009556000600a553480156200004057600080fd5b506040516200604838038062006048833981810160405281019062000066919062000244565b33600560006101000a81548173ffffffffffffffffffffffffffffffffffffffff021916908373ffffffffffffffffffffffffffffffffffffffff16021790555085600260006101000a81548173ffffffffffffffffffffffffffffffffffffffff021916908373ffffffffffffffffffffffffffffffffffffffff160217905550846000806101000a81548173ffffffffffffffffffffffffffffffffffffffff021916908373ffffffffffffffffffffffffffffffffffffffff16021790555083600160006101000a81548173ffffffffffffffffffffffffffffffffffffffff021916908373ffffffffffffffffffffffffffffffffffffffff16021790555082600360006101000a81548173ffffffffffffffffffffffffffffffffffffffff021916908373ffffffffffffffffffffffffffffffffffffffff16021790555081600460006101000a81548173ffffffffffffffffffffffffffffffffffffffff021916908373ffffffffffffffffffffffffffffffffffffffff160217905550806009819055506000600e600001819055506000801b600e600101819055505050505050506200034c565b600081519050620002278162000318565b92915050565b6000815190506200023e8162000332565b92915050565b60008060008060008060c087890312156200025e57600080fd5b60006200026e89828a0162000216565b96505060206200028189828a0162000216565b95505060406200029489828a0162000216565b9450506060620002a789828a0162000216565b9350506080620002ba89828a0162000216565b92505060a0620002cd89828a016200022d565b9150509295509295509295565b6000620002e782620002ee565b9050919050565b600073ffffffffffffffffffffffffffffffffffffffff82169050919050565b6000819050919050565b6200032381620002da565b81146200032f57600080fd5b50565b6200033d816200030e565b81146200034957600080fd5b50565b615cec806200035c6000396000f3fe6080604052600436106101405760003560e01c80637e0b2492116100b6578063d294f0931161006f578063d294f093146104a9578063d5b91a92146104d4578063e45b909d14610511578063e4804abc1461054e578063e4f30a9f1461058b578063f76b96bb146105b657610140565b80637e0b2492146103675780637e3e661b146103a457806388b2621b146103e95780639deae28414610405578063b85c0acb1461042e578063c17a4eef1461046b57610140565b806332db77231161010857806332db77231461024057806338eb07e11461027d5780633f067b20146102ba57806342ce5011146102e55780634ec18db9146103105780635f2edcbe1461033b57610140565b80630e136b1914610145578063231b02681461017057806326976e3f1461019b5780632a9e72a6146101c6578063327d426314610203575b600080fd5b34801561015157600080fd5b5061015a6105e1565b6040516101679190615485565b60405180910390f35b34801561017c57600080fd5b506101856105f4565b6040516101929190615521565b60405180910390f35b3480156101a757600080fd5b506101b06105fa565b6040516101bd9190615336565b60405180910390f35b3480156101d257600080fd5b506101ed60048036038101906101e89190614382565b610620565b6040516101fa91906154ff565b60405180910390f35b34801561020f57600080fd5b5061022a6004803603810190610225919061422c565b610a13565b6040516102379190615485565b60405180910390f35b34801561024c57600080fd5b5061026760048036038101906102629190614300565b610a33565b6040516102749190615485565b60405180910390f35b34801561028957600080fd5b506102a4600480360381019061029f9190614410565b610ed4565b6040516102b19190615521565b60405180910390f35b3480156102c657600080fd5b506102cf610f33565b6040516102dc9190615521565b60405180910390f35b3480156102f157600080fd5b506102fa610f39565b6040516103079190615521565b60405180910390f35b34801561031c57600080fd5b50610325610f3f565b6040516103329190615521565b60405180910390f35b34801561034757600080fd5b50610350610f45565b60405161035e929190615565565b60405180910390f35b34801561037357600080fd5b5061038e60048036038101906103899190614158565b610f57565b60405161039b9190615521565b60405180910390f35b3480156103b057600080fd5b506103cb60048036038101906103c691906143d4565b610f6f565b6040516103e09998979695949392919061558e565b60405180910390f35b61040360048036038101906103fe9190614341565b6111e1565b005b34801561041157600080fd5b5061042c600480360381019061042791906141c2565b611b5f565b005b34801561043a57600080fd5b5061045560048036038101906104509190614181565b611b99565b6040516104629190615411565b60405180910390f35b34801561047757600080fd5b50610492600480360381019061048d9190614382565b611c84565b6040516104a092919061553c565b60405180910390f35b3480156104b557600080fd5b506104be611cb5565b6040516104cb9190615521565b60405180910390f35b3480156104e057600080fd5b506104fb60048036038101906104f69190614410565b611da5565b6040516105089190615521565b60405180910390f35b34801561051d57600080fd5b5061053860048036038101906105339190614382565b611e04565b60405161054591906154a0565b60405180910390f35b34801561055a57600080fd5b50610575600480360381019061057091906143d4565b611e28565b6040516105829190615433565b60405180910390f35b34801561059757600080fd5b506105a0611f57565b6040516105ad9190615521565b60405180910390f35b3480156105c257600080fd5b506105cb611f61565b6040516105d89190615521565b60405180910390f35b600560149054906101000a900460ff1681565b600a5481565b600660009054906101000a900473ffffffffffffffffffffffffffffffffffffffff1681565b610628612bb7565b60006011600084815260200190815260200160002060000154905060006040518060800160405280838152602001858152602001600b848154811061066957fe5b90600052602060002001548152602001600d848154811061068657fe5b90600052602060002001805480602002602001604051908101604052809291908181526020016000905b82821015610a005783829060005260206000209060090201604051806101200160405290816000820160009054906101000a900463ffffffff1663ffffffff1663ffffffff168152602001600182016040518060400160405290816000820160009054906101000a900473ffffffffffffffffffffffffffffffffffffffff1673ffffffffffffffffffffffffffffffffffffffff1673ffffffffffffffffffffffffffffffffffffffff1681526020016000820160149054906101000a900467ffffffffffffffff1667ffffffffffffffff1667ffffffffffffffff168152505081526020016002820160009054906101000a900463ffffffff1663ffffffff1663ffffffff1681526020016002820160049054906101000a900473ffffffffffffffffffffffffffffffffffffffff1673ffffffffffffffffffffffffffffffffffffffff1673ffffffffffffffffffffffffffffffffffffffff16815260200160038201548152602001600482016040518060400160405290816000820160009054906101000a900460ff1660ff1660ff168152602001600182018054600181600116156101000203166002900480601f0160208091040260200160405190810160405280929190818152602001828054600181600116156101000203166002900480156108e25780601f106108b7576101008083540402835291602001916108e2565b820191906000526020600020905b8154815290600101906020018083116108c557829003601f168201915b50505050508152505081526020016006820160009054906101000a900473ffffffffffffffffffffffffffffffffffffffff1673ffffffffffffffffffffffffffffffffffffffff1673ffffffffffffffffffffffffffffffffffffffff1681526020016007820160009054906101000a900473ffffffffffffffffffffffffffffffffffffffff1673ffffffffffffffffffffffffffffffffffffffff1673ffffffffffffffffffffffffffffffffffffffff1681526020016008820160009054906101000a900473ffffffffffffffffffffffffffffffffffffffff1673ffffffffffffffffffffffffffffffffffffffff1673ffffffffffffffffffffffffffffffffffffffff1681525050815260200190600101906106b0565b5050505081525090508092505050919050565b60106020528060005260406000206000915054906101000a900460ff1681565b6000806000836080015160600151600081518110610a4d57fe5b602002602001015160400151905060208101519150600115156010600084815260200190815260200160002060009054906101000a900460ff1615151415610a9a57600092505050610ecf565b6000600260009054906101000a900473ffffffffffffffffffffffffffffffffffffffff1673ffffffffffffffffffffffffffffffffffffffff16630cd5756d866040518263ffffffff1660e01b8152600401610af791906154dd565b60206040518083038186803b158015610b0f57600080fd5b505afa158015610b23573d6000803e3d6000fd5b505050506040513d601f19601f82011682018060405250810190610b479190614203565b905080610b5057fe5b60016010600085815260200190815260200160002060006101000a81548160ff02191690831515021790555084600001516013541015610b965784600001516013819055505b600080600090505b8660a0015151811015610ec557610bdf8760a001518281518110610bbe57fe5b6020026020010151602001516020015167ffffffffffffffff166012611da5565b91507367460c2f56774ed27eeb8685f29f6cec0b090b0073ffffffffffffffffffffffffffffffffffffffff168760a001518281518110610c1c57fe5b6020026020010151602001516000015173ffffffffffffffffffffffffffffffffffffffff161415610c985747821115610c5257fe5b610c8382610c7e8960a001518481518110610c6957fe5b602002602001015160a0015160200151611f67565b611f75565b81600860008282540392505081905550610d8d565b60008054906101000a900473ffffffffffffffffffffffffffffffffffffffff1673ffffffffffffffffffffffffffffffffffffffff1663abe900e48860a001518381518110610ce457fe5b602002602001015160200151600001518960a001518481518110610d0457fe5b60200260200101516020015160200151610d3c8b60a001518681518110610d2757fe5b602002602001015160a0015160200151611f67565b6040518463ffffffff1660e01b8152600401610d5a939291906153da565b600060405180830381600087803b158015610d7457600080fd5b505af1158015610d88573d6000803e3d6000fd5b505050505b60008760a001518281518110610d9f57fe5b602002602001015160800151118015610e1257507367460c2f56774ed27eeb8685f29f6cec0b090b0073ffffffffffffffffffffffffffffffffffffffff168760a001518281518110610dee57fe5b60200260200101516060015173ffffffffffffffffffffffffffffffffffffffff16145b15610eb8578660a001518181518110610e2757fe5b602002602001015160800151601260003373ffffffffffffffffffffffffffffffffffffffff1673ffffffffffffffffffffffffffffffffffffffff1681526020019081526020016000205401601260003373ffffffffffffffffffffffffffffffffffffffff1673ffffffffffffffffffffffffffffffffffffffff168152602001908152602001600020819055505b8080600101915050610b9e565b5060019450505050505b919050565b600080600a9050600084905060088460ff161115610f09576008840391508160ff16600a0a8581610f0157fe5b049050610f28565b60088460ff161015610f27578360080391508160ff16600a0a850290505b5b809250505092915050565b60075481565b60085481565b60095481565b600e8060000154908060010154905082565b60126020528060005260406000206000915090505481565b600d8281548110610f7f57600080fd5b906000526020600020018181548110610f9757600080fd5b9060005260206000209060090201600091509150508060000160009054906101000a900463ffffffff1690806001016040518060400160405290816000820160009054906101000a900473ffffffffffffffffffffffffffffffffffffffff1673ffffffffffffffffffffffffffffffffffffffff1673ffffffffffffffffffffffffffffffffffffffff1681526020016000820160149054906101000a900467ffffffffffffffff1667ffffffffffffffff1667ffffffffffffffff1681525050908060020160009054906101000a900463ffffffff16908060020160049054906101000a900473ffffffffffffffffffffffffffffffffffffffff1690806003015490806004016040518060400160405290816000820160009054906101000a900460ff1660ff1660ff168152602001600182018054600181600116156101000203166002900480601f0160208091040260200160405190810160405280929190818152602001828054600181600116156101000203166002900480156111615780601f1061113657610100808354040283529160200191611161565b820191906000526020600020905b81548152906001019060200180831161114457829003601f168201915b505050505081525050908060060160009054906101000a900473ffffffffffffffffffffffffffffffffffffffff16908060070160009054906101000a900473ffffffffffffffffffffffffffffffffffffffff16908060080160009054906101000a900473ffffffffffffffffffffffffffffffffffffffff16905089565b600560149054906101000a900460ff16156111f857fe5b6000655af3107a400090506000621e848090506011600043815260200190815260200160002060010160009054906101000a900460ff16156112de576000601160004381526020019081526020016000206000015490508360c0015173ffffffffffffffffffffffffffffffffffffffff16600d828154811061127757fe5b9060005260206000200160008154811061128d57fe5b906000526020600020906009020160060160009054906101000a900473ffffffffffffffffffffffffffffffffffffffff1673ffffffffffffffffffffffffffffffffffffffff16146112dc57fe5b505b6112f083608001518460600151611fd7565b1561130d57621e84806009600082825403925050819055506116c4565b73a6ef9ea235635e328124ff3429db9f9e91b64e2d73ffffffffffffffffffffffffffffffffffffffff16836060015173ffffffffffffffffffffffffffffffffffffffff1614806113a257507367460c2f56774ed27eeb8685f29f6cec0b090b0073ffffffffffffffffffffffffffffffffffffffff16836060015173ffffffffffffffffffffffffffffffffffffffff16145b6113a857fe5b73a6ef9ea235635e328124ff3429db9f9e91b64e2d73ffffffffffffffffffffffffffffffffffffffff16836060015173ffffffffffffffffffffffffffffffffffffffff1614156116555760008060009054906101000a900473ffffffffffffffffffffffffffffffffffffffff1673ffffffffffffffffffffffffffffffffffffffff1663f79338de85606001516040518263ffffffff1660e01b81526004016114549190615336565b60206040518083038186803b15801561146c57600080fd5b505afa158015611480573d6000803e3d6000fd5b505050506040513d601f19601f820116820180604052508101906114a49190614296565b905060008173ffffffffffffffffffffffffffffffffffffffff1663dd62ed3e33306040518363ffffffff1660e01b81526004016114e3929190615351565b60206040518083038186803b1580156114fb57600080fd5b505afa15801561150f573d6000803e3d6000fd5b505050506040513d601f19601f8201168201806040525081019061153391906143ab565b9050611540836012611da5565b81101561154957fe5b8173ffffffffffffffffffffffffffffffffffffffff166323b872dd3330611572876012611da5565b6040518463ffffffff1660e01b81526004016115909392919061537a565b602060405180830381600087803b1580156115aa57600080fd5b505af11580156115be573d6000803e3d6000fd5b505050506040513d601f19601f820116820180604052508101906115e29190614203565b508173ffffffffffffffffffffffffffffffffffffffff166342966c68846040518263ffffffff1660e01b815260040161161c9190615521565b600060405180830381600087803b15801561163657600080fd5b505af115801561164a573d6000803e3d6000fd5b5050505050506116c3565b7367460c2f56774ed27eeb8685f29f6cec0b090b0073ffffffffffffffffffffffffffffffffffffffff16836060015173ffffffffffffffffffffffffffffffffffffffff1614156116c2576003820291506116b683608001516012611da5565b82013410156116c157fe5b5b5b5b7367460c2f56774ed27eeb8685f29f6cec0b090b0073ffffffffffffffffffffffffffffffffffffffff1683602001516000015173ffffffffffffffffffffffffffffffffffffffff1614611ae2573460076000828254019250508190555060008060009054906101000a900473ffffffffffffffffffffffffffffffffffffffff1673ffffffffffffffffffffffffffffffffffffffff1663f79338de8560200151600001516040518263ffffffff1660e01b81526004016117879190615336565b60206040518083038186803b15801561179f57600080fd5b505afa1580156117b3573d6000803e3d6000fd5b505050506040513d601f19601f820116820180604052508101906117d79190614296565b905060008173ffffffffffffffffffffffffffffffffffffffff1663dd62ed3e33306040518363ffffffff1660e01b8152600401611816929190615351565b60206040518083038186803b15801561182e57600080fd5b505afa158015611842573d6000803e3d6000fd5b505050506040513d601f19601f8201168201806040525081019061186691906143ab565b9050600061190386602001516020015167ffffffffffffffff168473ffffffffffffffffffffffffffffffffffffffff1663313ce5676040518163ffffffff1660e01b815260040160206040518083038186803b1580156118c657600080fd5b505afa1580156118da573d6000803e3d6000fd5b505050506040513d601f19601f820116820180604052508101906118fe9190614475565b611da5565b90508082101561190f57fe5b8273ffffffffffffffffffffffffffffffffffffffff166323b872dd3330846040518463ffffffff1660e01b815260040161194c9392919061537a565b602060405180830381600087803b15801561196657600080fd5b505af115801561197a573d6000803e3d6000fd5b505050506040513d601f19601f8201168201806040525081019061199e9190614203565b508273ffffffffffffffffffffffffffffffffffffffff1663095ea7b360008054906101000a900473ffffffffffffffffffffffffffffffffffffffff16836040518363ffffffff1660e01b81526004016119fa9291906153b1565b602060405180830381600087803b158015611a1457600080fd5b505af1158015611a28573d6000803e3d6000fd5b505050506040513d601f19601f82011682018060405250810190611a4c9190614203565b5060008054906101000a900473ffffffffffffffffffffffffffffffffffffffff1673ffffffffffffffffffffffffffffffffffffffff16639033ef3f84836040518363ffffffff1660e01b8152600401611aa89291906153b1565b600060405180830381600087803b158015611ac257600080fd5b505af1158015611ad6573d6000803e3d6000fd5b50505050505050611b51565b611af5655af3107a400034036012610ed4565b83602001516020019067ffffffffffffffff16908167ffffffffffffffff168152505082602001516020015167ffffffffffffffff16600860008282540192505081905550655af3107a40006007600082825401925050819055505b611b5a836121e4565b505050565b60005b8151811015611b9557611b87828281518110611b7a57fe5b6020026020010151610a33565b508080600101915050611b62565b5050565b60606000825167ffffffffffffffff81118015611bb557600080fd5b50604051908082528060200260200182016040528015611be45781602001602082028036833780820191505090505b509050600080600090505b8451811015611c79576001151560106000878481518110611c0c57fe5b6020026020010151815260200190815260200160002060009054906101000a900460ff16151514611c6c57848181518110611c4357fe5b6020026020010151838381518110611c5757fe5b60200260200101818152505081806001019250505b8080600101915050611bef565b508192505050919050565b60116020528060005260406000206000915090508060000154908060010160009054906101000a900460ff16905082565b6000600560149054906101000a900460ff1615611cce57fe5b6000601260003373ffffffffffffffffffffffffffffffffffffffff1673ffffffffffffffffffffffffffffffffffffffff168152602001908152602001600020541115611d6057611d5f601260003373ffffffffffffffffffffffffffffffffffffffff1673ffffffffffffffffffffffffffffffffffffffff1681526020019081526020016000205433611f75565b5b601260003373ffffffffffffffffffffffffffffffffffffffff1673ffffffffffffffffffffffffffffffffffffffff16815260200190815260200160002054905090565b600080600a9050600084905060088460ff161115611dd3576008840391508160ff16600a0a85029050611df9565b60088460ff161015611df8578360080391508160ff16600a0a8581611df457fe5b0490505b5b809250505092915050565b600b8181548110611e1457600080fd5b906000526020600020016000915090505481565b60606000600a54841015611e3c57600a5493505b60008490505b838111611e86576011600082815260200190815260200160002060010160009054906101000a900460ff1615611e79576001820191505b8080600101915050611e42565b5060008167ffffffffffffffff81118015611ea057600080fd5b50604051908082528060200260200182016040528015611eda57816020015b611ec7612bb7565b815260200190600190039081611ebf5790505b5090506000808690505b858111611f4a576011600082815260200190815260200160002060010160009054906101000a900460ff1615611f3d57611f1d81610620565b838381518110611f2957fe5b602002602001018190525081806001019250505b8080600101915050611ee4565b5081935050505092915050565b6000601354905090565b60135481565b600060148201519050919050565b600560149054906101000a900460ff1615611f8c57fe5b8073ffffffffffffffffffffffffffffffffffffffff166108fc839081150290604051600060405180830381858888f19350505050158015611fd2573d6000803e3d6000fd5b505050565b6000600360009054906101000a900473ffffffffffffffffffffffffffffffffffffffff1673ffffffffffffffffffffffffffffffffffffffff16630bd4cec373ffece948b8a38bbcc813411d2597f7f8485a06896040518263ffffffff1660e01b81526004016120489190615336565b60206040518083038186803b15801561206057600080fd5b505afa158015612074573d6000803e3d6000fd5b505050506040513d601f19601f82011682018060405250810190612098919061444c565b63ffffffff16600010801561217657504363ffffffff16600360009054906101000a900473ffffffffffffffffffffffffffffffffffffffff1673ffffffffffffffffffffffffffffffffffffffff16630bd4cec373ffece948b8a38bbcc813411d2597f7f8485a06896040518263ffffffff1660e01b815260040161211e9190615336565b60206040518083038186803b15801561213657600080fd5b505afa15801561214a573d6000803e3d6000fd5b505050506040513d601f19601f8201168201806040525081019061216e919061444c565b63ffffffff16105b1561218457600090506121de565b73a6ef9ea235635e328124ff3429db9f9e91b64e2d73ffffffffffffffffffffffffffffffffffffffff168273ffffffffffffffffffffffffffffffffffffffff16146121cd57fe5b8260095410156121d957fe5b600190505b92915050565b60004390506000806011600084815260200190815260200160002060010160009054906101000a900460ff16156124b95760116000848152602001908152602001600020600001549150600d828154811061223b57fe5b9060005260206000200184908060018154018082558091505060019003906000526020600020906009020160009091909190915060008201518160000160006101000a81548163ffffffff021916908363ffffffff16021790555060208201518160010160008201518160000160006101000a81548173ffffffffffffffffffffffffffffffffffffffff021916908373ffffffffffffffffffffffffffffffffffffffff16021790555060208201518160000160146101000a81548167ffffffffffffffff021916908367ffffffffffffffff160217905550505060408201518160020160006101000a81548163ffffffff021916908363ffffffff16021790555060608201518160020160046101000a81548173ffffffffffffffffffffffffffffffffffffffff021916908373ffffffffffffffffffffffffffffffffffffffff1602179055506080820151816003015560a08201518160040160008201518160000160006101000a81548160ff021916908360ff16021790555060208201518160010190805190602001906123d5929190612be2565b50505060c08201518160060160006101000a81548173ffffffffffffffffffffffffffffffffffffffff021916908373ffffffffffffffffffffffffffffffffffffffff16021790555060e08201518160070160006101000a81548173ffffffffffffffffffffffffffffffffffffffff021916908373ffffffffffffffffffffffffffffffffffffffff1602179055506101008201518160080160006101000a81548173ffffffffffffffffffffffffffffffffffffffff021916908373ffffffffffffffffffffffffffffffffffffffff1602179055505050600090506127d1565b600c84908060018154018082558091505060019003906000526020600020906009020160009091909190915060008201518160000160006101000a81548163ffffffff021916908363ffffffff16021790555060208201518160010160008201518160000160006101000a81548173ffffffffffffffffffffffffffffffffffffffff021916908373ffffffffffffffffffffffffffffffffffffffff16021790555060208201518160000160146101000a81548167ffffffffffffffff021916908367ffffffffffffffff160217905550505060408201518160020160006101000a81548163ffffffff021916908363ffffffff16021790555060608201518160020160046101000a81548173ffffffffffffffffffffffffffffffffffffffff021916908373ffffffffffffffffffffffffffffffffffffffff1602179055506080820151816003015560a08201518160040160008201518160000160006101000a81548160ff021916908360ff160217905550602082015181600101908051906020019061264b929190612be2565b50505060c08201518160060160006101000a81548173ffffffffffffffffffffffffffffffffffffffff021916908373ffffffffffffffffffffffffffffffffffffffff16021790555060e08201518160070160006101000a81548173ffffffffffffffffffffffffffffffffffffffff021916908373ffffffffffffffffffffffffffffffffffffffff1602179055506101008201518160080160006101000a81548173ffffffffffffffffffffffffffffffffffffffff021916908373ffffffffffffffffffffffffffffffffffffffff1602179055505050600d805490509150600d600c90806001815401808255809150506001900390600052602060002001600090919091909150908054612765929190612c70565b50604051806040016040528083815260200160011515815250601160008581526020019081526020016000206000820151816000015560208201518160010160006101000a81548160ff021916908315150217905550905050600c60006127cc9190612ff0565b600190505b6000600360009054906101000a900473ffffffffffffffffffffffffffffffffffffffff1673ffffffffffffffffffffffffffffffffffffffff16630bd4cec373ffece948b8a38bbcc813411d2597f7f8485a06896040518263ffffffff1660e01b81526004016128429190615336565b60206040518083038186803b15801561285a57600080fd5b505afa15801561286e573d6000803e3d6000fd5b505050506040513d601f19601f82011682018060405250810190612892919061444c565b63ffffffff16600010801561297057504363ffffffff16600360009054906101000a900473ffffffffffffffffffffffffffffffffffffffff1673ffffffffffffffffffffffffffffffffffffffff16630bd4cec373ffece948b8a38bbcc813411d2597f7f8485a06896040518263ffffffff1660e01b81526004016129189190615336565b60206040518083038186803b15801561293057600080fd5b505afa158015612944573d6000803e3d6000fd5b505050506040513d601f19601f82011682018060405250810190612968919061444c565b63ffffffff16105b90506000600160009054906101000a900473ffffffffffffffffffffffffffffffffffffffff1673ffffffffffffffffffffffffffffffffffffffff16636003992a600460009054906101000a900473ffffffffffffffffffffffffffffffffffffffff1673ffffffffffffffffffffffffffffffffffffffff1663bb6ff4b6600d88815481106129fd57fe5b90600052602060002001866040518363ffffffff1660e01b8152600401612a25929190615455565b600060405180830381600087803b158015612a3f57600080fd5b505af1158015612a53573d6000803e3d6000fd5b505050506040513d6000823e3d601f19601f82011682018060405250810190612a7c91906142bf565b6040518263ffffffff1660e01b8152600401612a9891906154bb565b60006040518083038186803b158015612ab057600080fd5b505afa158015612ac4573d6000803e3d6000fd5b505050506040513d6000823e3d601f19601f82011682018060405250810190612aed9190614255565b90506000806000801b905060008614612b1e57600b6001870381548110612b1057fe5b906000526020600020015490505b8281604051602001612b3192919061530e565b6040516020818303038152906040528051906020012091508415612b7d57600b829080600181540180825580915050600190039060005260206000200160009091909190915055612b9a565b81600b8781548110612b8b57fe5b90600052602060002001819055505b6000600a541415612bad5786600a819055505b5050505050505050565b6040518060800160405280600081526020016000815260200160008019168152602001606081525090565b828054600181600116156101000203166002900490600052602060002090601f016020900481019282612c185760008555612c5f565b82601f10612c3157805160ff1916838001178555612c5f565b82800160010185558215612c5f579182015b82811115612c5e578251825591602001919060010190612c43565b5b509050612c6c9190613014565b5090565b828054828255906000526020600020906009028101928215612fdf5760005260206000209160090282015b82811115612fde5782826000820160009054906101000a900463ffffffff168160000160006101000a81548163ffffffff021916908363ffffffff16021790555060018201816001016000820160009054906101000a900473ffffffffffffffffffffffffffffffffffffffff168160000160006101000a81548173ffffffffffffffffffffffffffffffffffffffff021916908373ffffffffffffffffffffffffffffffffffffffff1602179055506000820160149054906101000a900467ffffffffffffffff168160000160146101000a81548167ffffffffffffffff021916908367ffffffffffffffff16021790555050506002820160009054906101000a900463ffffffff168160020160006101000a81548163ffffffff021916908363ffffffff1602179055506002820160049054906101000a900473ffffffffffffffffffffffffffffffffffffffff168160020160046101000a81548173ffffffffffffffffffffffffffffffffffffffff021916908373ffffffffffffffffffffffffffffffffffffffff1602179055506003820154816003015560048201816004016000820160009054906101000a900460ff168160000160006101000a81548160ff021916908360ff16021790555060018201816001019080546001816001161561010002031660029004612e95929190613031565b5050506006820160009054906101000a900473ffffffffffffffffffffffffffffffffffffffff168160060160006101000a81548173ffffffffffffffffffffffffffffffffffffffff021916908373ffffffffffffffffffffffffffffffffffffffff1602179055506007820160009054906101000a900473ffffffffffffffffffffffffffffffffffffffff168160070160006101000a81548173ffffffffffffffffffffffffffffffffffffffff021916908373ffffffffffffffffffffffffffffffffffffffff1602179055506008820160009054906101000a900473ffffffffffffffffffffffffffffffffffffffff168160080160006101000a81548173ffffffffffffffffffffffffffffffffffffffff021916908373ffffffffffffffffffffffffffffffffffffffff160217905550505091600901919060090190612c9b565b5b509050612fec91906130c6565b5090565b508054600082556009029060005260206000209081019061301191906130c6565b50565b5b8082111561302d576000816000905550600101613015565b5090565b828054600181600116156101000203166002900490600052602060002090601f01602090048101928261306757600085556130b5565b82601f1061307857805485556130b5565b828001600101855582156130b557600052602060002091601f016020900482015b828111156130b4578254825591600101919060010190613099565b5b5090506130c29190613014565b5090565b5b8082111561321f57600080820160006101000a81549063ffffffff021916905560018201600080820160006101000a81549073ffffffffffffffffffffffffffffffffffffffff02191690556000820160146101000a81549067ffffffffffffffff021916905550506002820160006101000a81549063ffffffff02191690556002820160046101000a81549073ffffffffffffffffffffffffffffffffffffffff0219169055600382016000905560048201600080820160006101000a81549060ff021916905560018201600061319f9190613223565b50506006820160006101000a81549073ffffffffffffffffffffffffffffffffffffffff02191690556007820160006101000a81549073ffffffffffffffffffffffffffffffffffffffff02191690556008820160006101000a81549073ffffffffffffffffffffffffffffffffffffffff0219169055506009016130c7565b5090565b50805460018160011615610100020316600290046000825580601f106132495750613268565b601f0160209004906000526020600020908101906132679190613014565b5b50565b600061327e61327984615654565b615623565b9050808382526020820190508285602086028201111561329d57600080fd5b60005b858110156132cd57816132b38882613704565b8452602084019350602083019250506001810190506132a0565b5050509392505050565b60006132ea6132e584615680565b615623565b9050808382526020820190508260005b8581101561332a578135850161331088826137c1565b8452602084019350602083019250506001810190506132fa565b5050509392505050565b6000613347613342846156ac565b615623565b9050808382526020820190508285604086028201111561336657600080fd5b60005b85811015613396578161337c8882613bb9565b845260208401935060408301925050600181019050613369565b5050509392505050565b60006133b36133ae846156ac565b615623565b905080838252602082019050828560408602820111156133d257600080fd5b60005b8581101561340257816133e88882613c05565b8452602084019350604083019250506001810190506133d5565b5050509392505050565b600061341f61341a846156d8565b615623565b9050808382526020820190508260005b8581101561345f57813585016134458882613d81565b84526020840193506020830192505060018101905061342f565b5050509392505050565b600061347c61347784615704565b615623565b9050808382526020820190508260005b858110156134bc57813585016134a28882613e65565b84526020840193506020830192505060018101905061348c565b5050509392505050565b60006134d96134d484615730565b615623565b9050808382526020820190508260005b8581101561351957813585016134ff8882613f5a565b8452602084019350602083019250506001810190506134e9565b5050509392505050565b60006135366135318461575c565b615623565b90508281526020810184848401111561354e57600080fd5b613559848285615aae565b509392505050565b600061357461356f8461575c565b615623565b90508281526020810184848401111561358c57600080fd5b613597848285615abd565b509392505050565b6000813590506135ae81615bd0565b92915050565b6000815190506135c381615bd0565b92915050565b600082601f8301126135da57600080fd5b81356135ea84826020860161326b565b91505092915050565b600082601f83011261360457600080fd5b81356136148482602086016132d7565b91505092915050565b600082601f83011261362e57600080fd5b813561363e848260208601613334565b91505092915050565b600082601f83011261365857600080fd5b81516136688482602086016133a0565b91505092915050565b600082601f83011261368257600080fd5b813561369284826020860161340c565b91505092915050565b600082601f8301126136ac57600080fd5b81356136bc848260208601613469565b91505092915050565b600082601f8301126136d657600080fd5b81356136e68482602086016134c6565b91505092915050565b6000815190506136fe81615be7565b92915050565b60008135905061371381615bfe565b92915050565b60008151905061372881615bfe565b92915050565b600082601f83011261373f57600080fd5b813561374f848260208601613523565b91505092915050565b600082601f83011261376957600080fd5b8151613779848260208601613561565b91505092915050565b60008151905061379181615c15565b92915050565b6000813590506137a681615c2c565b92915050565b6000815190506137bb81615c2c565b92915050565b6000608082840312156137d357600080fd5b6137dd6080615623565b905060006137ed8482850161412e565b60008301525060206138018482850161412e565b602083015250604082013567ffffffffffffffff81111561382157600080fd5b61382d8482850161372e565b604083015250606082013567ffffffffffffffff81111561384d57600080fd5b613859848285016136c5565b60608301525092915050565b60006101c0828403121561387857600080fd5b6138836101c0615623565b9050600061389384828501614086565b60008301525060206138a784828501614086565b60208301525060406138bb8482850161359f565b60408301525060606138cf84828501613704565b60608301525060806138e3848285016140da565b60808301525060a06138f7848285016140da565b60a08301525060c061390b8482850161359f565b60c08301525060e061391f8482850161359f565b60e083015250610100613934848285016140da565b6101008301525061012082013567ffffffffffffffff81111561395657600080fd5b6139628482850161361d565b6101208301525061014082013567ffffffffffffffff81111561398457600080fd5b6139908482850161361d565b6101408301525061016082013567ffffffffffffffff8111156139b257600080fd5b6139be8482850161361d565b6101608301525061018082013567ffffffffffffffff8111156139e057600080fd5b6139ec84828501613fbe565b610180830152506101a0613a0284828501613797565b6101a08301525092915050565b60006101c08284031215613a2257600080fd5b613a2d6101c0615623565b90506000613a3d8482850161409b565b6000830152506020613a518482850161409b565b6020830152506040613a65848285016135b4565b6040830152506060613a7984828501613719565b6060830152506080613a8d848285016140ef565b60808301525060a0613aa1848285016140ef565b60a08301525060c0613ab5848285016135b4565b60c08301525060e0613ac9848285016135b4565b60e083015250610100613ade848285016140ef565b6101008301525061012082015167ffffffffffffffff811115613b0057600080fd5b613b0c84828501613647565b6101208301525061014082015167ffffffffffffffff811115613b2e57600080fd5b613b3a84828501613647565b6101408301525061016082015167ffffffffffffffff811115613b5c57600080fd5b613b6884828501613647565b6101608301525061018082015167ffffffffffffffff811115613b8a57600080fd5b613b9684828501614022565b610180830152506101a0613bac848285016137ac565b6101a08301525092915050565b600060408284031215613bcb57600080fd5b613bd56040615623565b90506000613be58482850161359f565b6000830152506020613bf984828501614104565b60208301525092915050565b600060408284031215613c1757600080fd5b613c216040615623565b90506000613c31848285016135b4565b6000830152506020613c4584828501614119565b60208301525092915050565b600060808284031215613c6357600080fd5b613c6d6080615623565b90506000613c7d8482850161412e565b6000830152506020613c91848285016140da565b6020830152506040613ca5848285016140da565b604083015250606082013567ffffffffffffffff811115613cc557600080fd5b613cd1848285016135c9565b60608301525092915050565b600060808284031215613cef57600080fd5b613cf96080615623565b90506000613d098482850161412e565b6000830152506020613d1d8482850161412e565b602083015250604082013567ffffffffffffffff811115613d3d57600080fd5b613d49848285016136c5565b604083015250606082013567ffffffffffffffff811115613d6957600080fd5b613d75848285016135f3565b60608301525092915050565b600060c08284031215613d9357600080fd5b613d9d60c0615623565b90506000613dad848285016140b0565b6000830152506020613dc184828501613704565b6020830152506040613dd5848285016140b0565b604083015250606082013567ffffffffffffffff811115613df557600080fd5b613e0184828501613865565b606083015250608082013567ffffffffffffffff811115613e2157600080fd5b613e2d84828501613cdd565b60808301525060a082013567ffffffffffffffff811115613e4d57600080fd5b613e598482850161369b565b60a08301525092915050565b60006101408284031215613e7857600080fd5b613e83610120615623565b90506000613e93848285016140da565b6000830152506020613ea784828501613bb9565b6020830152506060613ebb848285016140da565b6040830152506080613ecf8482850161359f565b60608301525060a0613ee3848285016140b0565b60808301525060c082013567ffffffffffffffff811115613f0357600080fd5b613f0f84828501613fbe565b60a08301525060e0613f238482850161359f565b60c083015250610100613f388482850161359f565b60e083015250610120613f4d8482850161359f565b6101008301525092915050565b600060408284031215613f6c57600080fd5b613f766040615623565b90506000613f868482850161412e565b600083015250602082013567ffffffffffffffff811115613fa657600080fd5b613fb284828501613c51565b60208301525092915050565b600060408284031215613fd057600080fd5b613fda6040615623565b90506000613fea8482850161412e565b600083015250602082013567ffffffffffffffff81111561400a57600080fd5b6140168482850161372e565b60208301525092915050565b60006040828403121561403457600080fd5b61403e6040615623565b9050600061404e84828501614143565b600083015250602082015167ffffffffffffffff81111561406e57600080fd5b61407a84828501613758565b60208301525092915050565b60008135905061409581615c43565b92915050565b6000815190506140aa81615c43565b92915050565b6000813590506140bf81615c5a565b92915050565b6000815190506140d481615c5a565b92915050565b6000813590506140e981615c71565b92915050565b6000815190506140fe81615c71565b92915050565b60008135905061411381615c88565b92915050565b60008151905061412881615c88565b92915050565b60008135905061413d81615c9f565b92915050565b60008151905061415281615c9f565b92915050565b60006020828403121561416a57600080fd5b60006141788482850161359f565b91505092915050565b60006020828403121561419357600080fd5b600082013567ffffffffffffffff8111156141ad57600080fd5b6141b9848285016135c9565b91505092915050565b6000602082840312156141d457600080fd5b600082013567ffffffffffffffff8111156141ee57600080fd5b6141fa84828501613671565b91505092915050565b60006020828403121561421557600080fd5b6000614223848285016136ef565b91505092915050565b60006020828403121561423e57600080fd5b600061424c84828501613704565b91505092915050565b60006020828403121561426757600080fd5b600082015167ffffffffffffffff81111561428157600080fd5b61428d84828501613758565b91505092915050565b6000602082840312156142a857600080fd5b60006142b684828501613782565b91505092915050565b6000602082840312156142d157600080fd5b600082015167ffffffffffffffff8111156142eb57600080fd5b6142f784828501613a0f565b91505092915050565b60006020828403121561431257600080fd5b600082013567ffffffffffffffff81111561432c57600080fd5b61433884828501613d81565b91505092915050565b60006020828403121561435357600080fd5b600082013567ffffffffffffffff81111561436d57600080fd5b61437984828501613e65565b91505092915050565b60006020828403121561439457600080fd5b60006143a2848285016140b0565b91505092915050565b6000602082840312156143bd57600080fd5b60006143cb848285016140c5565b91505092915050565b600080604083850312156143e757600080fd5b60006143f5858286016140b0565b9250506020614406858286016140b0565b9150509250929050565b6000806040838503121561442357600080fd5b6000614431858286016140b0565b92505060206144428582860161412e565b9150509250929050565b60006020828403121561445e57600080fd5b600061446c848285016140ef565b91505092915050565b60006020828403121561448757600080fd5b600061449584828501614143565b91505092915050565b60006144aa83836148d0565b60208301905092915050565b60006144c28383614a0d565b905092915050565b60006144d68383614cfd565b60408301905092915050565b60006144ee8383614eff565b905092915050565b60006145028383614fc5565b905092915050565b6000614516838361508b565b905092915050565b600061452a8383615196565b905092915050565b61453b81615a78565b82525050565b61454a816159c8565b82525050565b614559816159c8565b82525050565b600061456a82615816565b61457481856158c9565b935061457f8361578c565b8060005b838110156145b0578151614597888261449e565b97506145a28361586e565b925050600181019050614583565b5085935050505092915050565b60006145c882615816565b6145d281856158da565b93506145dd8361578c565b8060005b8381101561460e5781516145f5888261449e565b97506146008361586e565b9250506001810190506145e1565b5085935050505092915050565b600061462682615821565b61463081856158eb565b9350836020820285016146428561579c565b8060005b8581101561467e578484038952815161465f85826144b6565b945061466a8361587b565b925060208a01995050600181019050614646565b50829750879550505050505092915050565b600061469b8261582c565b6146a581856158fc565b93506146b0836157ac565b8060005b838110156146e15781516146c888826144ca565b97506146d383615888565b9250506001810190506146b4565b5085935050505092915050565b60006146f982615837565b614703818561590d565b935083602082028501614715856157bc565b8060005b85811015614751578484038952815161473285826144e2565b945061473d83615895565b925060208a01995050600181019050614719565b50829750879550505050505092915050565b600061476e82615842565b614778818561591e565b93508360208202850161478a856157cc565b8060005b858110156147c657848403895281516147a785826144f6565b94506147b2836158a2565b925060208a0199505060018101905061478e565b50829750879550505050505092915050565b60006147e38261584d565b6147ed818561592f565b9350836020820285016147ff856157dc565b8060005b8581101561483a5784840389528161481b858261450a565b9450614826836158af565b925060208a01995050600181019050614803565b50829750879550505050505092915050565b600061485782615858565b6148618185615940565b935083602082028501614873856157f1565b8060005b858110156148af5784840389528151614890858261451e565b945061489b836158bc565b925060208a01995050600181019050614877565b50829750879550505050505092915050565b6148ca816159da565b82525050565b6148d9816159e6565b82525050565b6148e8816159e6565b82525050565b6148ff6148fa826159e6565b615b8c565b82525050565b600061491082615863565b61491a8185615951565b935061492a818560208601615abd565b61493381615b98565b840191505092915050565b600061494982615863565b6149538185615962565b9350614963818560208601615abd565b80840191505092915050565b60008154600181166000811461498c57600181146149b2576149f6565b607f600283041661499d8187615951565b955060ff1983168652602086019350506149f6565b600282046149c08187615951565b95506149cb85615801565b60005b828110156149ed578154818901526001820191506020810190506149ce565b80880195505050505b505092915050565b614a0781615a02565b82525050565b6000608083016000830151614a2560008601826152ff565b506020830151614a3860208601826152ff565b5060408301518482036040860152614a508282614905565b91505060608301518482036060860152614a6a828261484c565b9150508091505092915050565b60006101c083016000830151614a906000860182615296565b506020830151614aa36020860182615296565b506040830151614ab66040860182614541565b506060830151614ac960608601826148d0565b506080830151614adc60808601826152c3565b5060a0830151614aef60a08601826152c3565b5060c0830151614b0260c0860182614541565b5060e0830151614b1560e0860182614541565b50610100830151614b2a6101008601826152c3565b50610120830151848203610120860152614b448282614690565b915050610140830151848203610140860152614b608282614690565b915050610160830151848203610160860152614b7c8282614690565b915050610180830151848203610180860152614b9882826151d3565b9150506101a0830151614baf6101a08601826149fe565b508091505092915050565b60006101c083016000830151614bd36000860182615296565b506020830151614be66020860182615296565b506040830151614bf96040860182614541565b506060830151614c0c60608601826148d0565b506080830151614c1f60808601826152c3565b5060a0830151614c3260a08601826152c3565b5060c0830151614c4560c0860182614541565b5060e0830151614c5860e0860182614541565b50610100830151614c6d6101008601826152c3565b50610120830151848203610120860152614c878282614690565b915050610140830151848203610140860152614ca38282614690565b915050610160830151848203610160860152614cbf8282614690565b915050610180830151848203610180860152614cdb82826151d3565b9150506101a0830151614cf26101a08601826149fe565b508091505092915050565b604082016000820151614d136000850182614541565b506020820151614d2660208501826152e1565b50505050565b604082016000820151614d426000850182614541565b506020820151614d5560208501826152e1565b50505050565b604082016000808301549050614d7081615af0565b614d7d6000860182614541565b50614d8781615b58565b614d9460208601826152e1565b5050505050565b6000608083016000830151614db360008601826152ff565b506020830151614dc660208601826152c3565b506040830151614dd960408601826152c3565b5060608301518482036060860152614df1828261455f565b9150508091505092915050565b6000608083016000830151614e1660008601826152ff565b506020830151614e2960208601826152ff565b5060408301518482036040860152614e41828261484c565b91505060608301518482036060860152614e5b828261461b565b9150508091505092915050565b600060c083016000830151614e8060008601826152a5565b506020830151614e9360208601826148d0565b506040830151614ea660408601826152a5565b5060608301518482036060860152614ebe8282614a77565b91505060808301518482036080860152614ed88282614dfe565b91505060a083015184820360a0860152614ef28282614763565b9150508091505092915050565b6000608083016000830151614f1760008601826152a5565b506020830151614f2a60208601826152a5565b506040830151614f3d60408601826148d0565b5060608301518482036060860152614f558282614763565b9150508091505092915050565b6000608083016000830151614f7a60008601826152a5565b506020830151614f8d60208601826152a5565b506040830151614fa060408601826148d0565b5060608301518482036060860152614fb88282614763565b9150508091505092915050565b600061014083016000830151614fde60008601826152c3565b506020830151614ff16020860182614cfd565b50604083015161500460608601826152c3565b5060608301516150176080860182614541565b50608083015161502a60a08601826152a5565b5060a083015184820360c086015261504282826151d3565b91505060c083015161505760e0860182614541565b5060e083015161506b610100860182614541565b50610100830151615080610120860182614541565b508091505092915050565b6000610140830160008084015490506150a381615b24565b6150b060008701826152c3565b50600184016150c26020870182614d5b565b50600284015490506150d381615b24565b6150e060608701826152c3565b506150ea81615b72565b6150f76080870182614541565b506003840154905061510881615b0a565b61511560a08701826152a5565b506004840185830360c087015261512c838261524d565b9250506006840154905061513f81615af0565b61514c60e0870182614541565b506007840154905061515d81615af0565b61516b610100870182614541565b506008840154905061517c81615af0565b61518a610120870182614541565b50819250505092915050565b60006040830160008301516151ae60008601826152ff565b50602083015184820360208601526151c68282614d9b565b9150508091505092915050565b60006040830160008301516151eb60008601826152ff565b50602083015184820360208601526152038282614905565b9150508091505092915050565b600060408301600083015161522860008601826152ff565b50602083015184820360208601526152408282614905565b9150508091505092915050565b600060408301600080840154905061526481615b3e565b61527160008701826152ff565b50600184018583036020870152615288838261496f565b925050819250505092915050565b61529f81615a0f565b82525050565b6152ae81615a3d565b82525050565b6152bd81615a3d565b82525050565b6152cc81615a47565b82525050565b6152db81615a47565b82525050565b6152ea81615a57565b82525050565b6152f981615a57565b82525050565b61530881615a6b565b82525050565b600061531a828561493e565b915061532682846148ee565b6020820191508190509392505050565b600060208201905061534b6000830184614550565b92915050565b60006040820190506153666000830185614532565b6153736020830184614550565b9392505050565b600060608201905061538f6000830186614532565b61539c6020830185614550565b6153a960408301846152b4565b949350505050565b60006040820190506153c66000830185614550565b6153d360208301846152b4565b9392505050565b60006060820190506153ef6000830186614550565b6153fc60208301856152f0565b6154096040830184614550565b949350505050565b6000602082019050818103600083015261542b81846145bd565b905092915050565b6000602082019050818103600083015261544d81846146ee565b905092915050565b6000604082019050818103600083015261546f81856147d8565b905061547e60208301846148c1565b9392505050565b600060208201905061549a60008301846148c1565b92915050565b60006020820190506154b560008301846148df565b92915050565b600060208201905081810360008301526154d58184614bba565b905092915050565b600060208201905081810360008301526154f78184614e68565b905092915050565b600060208201905081810360008301526155198184614f62565b905092915050565b600060208201905061553660008301846152b4565b92915050565b600060408201905061555160008301856152b4565b61555e60208301846148c1565b9392505050565b600060408201905061557a60008301856152b4565b61558760208301846148df565b9392505050565b6000610140820190506155a4600083018c6152d2565b6155b1602083018b614d2c565b6155be606083018a6152d2565b6155cb6080830189614550565b6155d860a08301886152b4565b81810360c08301526155ea8187615210565b90506155f960e0830186614550565b615607610100830185614550565b615615610120830184614550565b9a9950505050505050505050565b6000604051905081810181811067ffffffffffffffff8211171561564a57615649615b96565b5b8060405250919050565b600067ffffffffffffffff82111561566f5761566e615b96565b5b602082029050602081019050919050565b600067ffffffffffffffff82111561569b5761569a615b96565b5b602082029050602081019050919050565b600067ffffffffffffffff8211156156c7576156c6615b96565b5b602082029050602081019050919050565b600067ffffffffffffffff8211156156f3576156f2615b96565b5b602082029050602081019050919050565b600067ffffffffffffffff82111561571f5761571e615b96565b5b602082029050602081019050919050565b600067ffffffffffffffff82111561574b5761574a615b96565b5b602082029050602081019050919050565b600067ffffffffffffffff82111561577757615776615b96565b5b601f19601f8301169050602081019050919050565b6000819050602082019050919050565b6000819050602082019050919050565b6000819050602082019050919050565b6000819050602082019050919050565b6000819050602082019050919050565b60008190508160005260206000209050919050565b6000819050602082019050919050565b60008190508160005260206000209050919050565b600081519050919050565b600081519050919050565b600081519050919050565b600081519050919050565b600081519050919050565b600081549050919050565b600081519050919050565b600081519050919050565b6000602082019050919050565b6000602082019050919050565b6000602082019050919050565b6000602082019050919050565b6000602082019050919050565b6000600982019050919050565b6000602082019050919050565b600082825260208201905092915050565b600082825260208201905092915050565b600082825260208201905092915050565b600082825260208201905092915050565b600082825260208201905092915050565b600082825260208201905092915050565b600082825260208201905092915050565b600082825260208201905092915050565b600082825260208201905092915050565b600081905092915050565b600073ffffffffffffffffffffffffffffffffffffffff82169050919050565b6000819050919050565b600063ffffffff82169050919050565b600067ffffffffffffffff82169050919050565b600060ff82169050919050565b60006159d382615a1d565b9050919050565b60008115159050919050565b6000819050919050565b60006159fb826159c8565b9050919050565b60008160030b9050919050565b600061ffff82169050919050565b600073ffffffffffffffffffffffffffffffffffffffff82169050919050565b6000819050919050565b600063ffffffff82169050919050565b600067ffffffffffffffff82169050919050565b600060ff82169050919050565b6000615a8382615a8a565b9050919050565b6000615a9582615a9c565b9050919050565b6000615aa782615a1d565b9050919050565b82818337600083830152505050565b60005b83811015615adb578082015181840152602081019050615ac0565b83811115615aea576000848401525b50505050565b6000615b03615afe83615ba9565b61596d565b9050919050565b6000615b1d615b1883615ba9565b61598d565b9050919050565b6000615b37615b3283615ba9565b615997565b9050919050565b6000615b51615b4c83615ba9565b6159bb565b9050919050565b6000615b6b615b6683615bb6565b6159a7565b9050919050565b6000615b85615b8083615bc3565b61596d565b9050919050565b6000819050919050565bfe5b6000601f19601f8301169050919050565b60008160001c9050919050565b60008160a01c9050919050565b60008160201c9050919050565b615bd9816159c8565b8114615be457600080fd5b50565b615bf0816159da565b8114615bfb57600080fd5b50565b615c07816159e6565b8114615c1257600080fd5b50565b615c1e816159f0565b8114615c2957600080fd5b50565b615c3581615a02565b8114615c4057600080fd5b50565b615c4c81615a0f565b8114615c5757600080fd5b50565b615c6381615a3d565b8114615c6e57600080fd5b50565b615c7a81615a47565b8114615c8557600080fd5b50565b615c9181615a57565b8114615c9c57600080fd5b50565b615ca881615a6b565b8114615cb357600080fd5b5056fea26469706673582212206f12292c224f68b845f24cdfa54e53b81c82dfdb915b7f915125f99a4cf1459864736f6c63430007060033",
  "immutableReferences": {},
  "source": "// SPDX-License-Identifier: MIT\r\n// Bridge between ethereum and verus\r\n\r\npragma solidity >=0.6.0 <0.9.0;\r\npragma experimental ABIEncoderV2;\r\n\r\nimport \"../Libraries/VerusObjects.sol\";\r\nimport \"../Libraries/VerusObjectsCommon.sol\";\r\nimport \"../Libraries/VerusConstants.sol\";\r\nimport \"./TokenManager.sol\";\r\nimport \"../MMR/VerusProof.sol\";\r\nimport \"./Token.sol\";\r\nimport \"./VerusSerializer.sol\";\r\nimport \"../VerusNotarizer/VerusNotarizer.sol\";\r\nimport \"./VerusCrossChainExport.sol\";\r\n\r\ncontract VerusBridge {\r\n\r\n    //list of erc20 tokens that can be accessed,\r\n    //the contract must be able to mint and burn coins on the contract\r\n    //defines the tokenManager which creates the erc20\r\n    TokenManager tokenManager;\r\n    VerusSerializer verusSerializer;\r\n    VerusProof verusProof;\r\n    VerusNotarizer verusNotarizer;\r\n    VerusCrossChainExport verusCCE;\r\n\r\n    // THE CONTRACT OWNER NEEDS TO BE REPLACED BY A SET OF NOTARIES\r\n    address contractOwner;\r\n\r\n    bool public deprecated = false;     // indicates if the contract is deprecated\r\n    address public upgradedAddress;     // new contract, if this is deprecated\r\n\r\n    uint256 public feesHeld = 0;\r\n    uint256 public ethHeld = 0;\r\n    uint256 public poolSize = 0;\r\n\r\n    uint public firstBlock = 0;\r\n\r\n    // used to prove the transfers the index of this corresponds to the index of the \r\n    bytes32[] public readyExportHashes;\r\n\r\n    // DO NOT ADD ANY VARIABLES ABOVE THIS POINT\r\n    // used to store a list of currencies and an amount\r\n    VerusObjects.CReserveTransfer[] private _pendingExports;\r\n    \r\n    // stores the blockheight of each pending transfer\r\n    // the export set holds the summary of a set of exports\r\n    VerusObjects.CReserveTransfer[][] public _readyExports;\r\n    \r\n    //stores the index corresponds to the block\r\n    VerusObjects.LastImport public lastimport;\r\n    mapping (bytes32 => bool) public processedTxids;\r\n    mapping (uint => VerusObjects.blockCreated) public readyExportsByBlock;\r\n    mapping (address => uint256) public claimableFees;\r\n\r\n    uint public lastTxImportHeight;\r\n\r\n    event Deprecate(address newAddress);\r\n    \r\n    constructor(address verusProofAddress,\r\n        address tokenManagerAddress,\r\n        address verusSerializerAddress,\r\n        address verusNotarizerAddress,\r\n        address verusCCEAddress,\r\n        uint256 _poolSize) public {\r\n        contractOwner = msg.sender; \r\n        verusProof =  VerusProof(verusProofAddress);\r\n        tokenManager = TokenManager(tokenManagerAddress);\r\n        verusSerializer = VerusSerializer(verusSerializerAddress);\r\n        verusNotarizer = VerusNotarizer(verusNotarizerAddress);\r\n        verusCCE = VerusCrossChainExport(verusCCEAddress);\r\n        poolSize = _poolSize;\r\n        lastimport.height = 0;\r\n        lastimport.txid = 0x00000000000000000000000000000000;\r\n    }\r\n\r\n    function isPoolAvailable(uint256 _feesAmount,address _feeCurrencyID) private view returns(bool){\r\n\r\n        if(0 < verusNotarizer.poolAvailable(VerusConstants.VerusBridgeAddress) &&\r\n            verusNotarizer.poolAvailable(VerusConstants.VerusBridgeAddress) < uint32(block.number)) {\r\n            //the bridge has been activated\r\n            return false;\r\n        } else {\r\n            assert(_feeCurrencyID == VerusConstants.VerusCurrencyId);\r\n            assert(poolSize >= _feesAmount);\r\n            return true;\r\n        }\r\n    }\r\n\r\n    function convertFromVerusNumber(uint256 a,uint8 decimals) public pure returns (uint256) {\r\n         uint8 power = 10; //default value for 18\r\n         uint256 c = a;\r\n        if(decimals > 8 ) {\r\n            power = decimals - 8;// number of decimals in verus\r\n            c = a * (10 ** power);\r\n        }else if(decimals < 8){\r\n            power = 8 - decimals;// number of decimals in verus\r\n            c = a / (10 ** power);\r\n        }\r\n      \r\n        return c;\r\n    }\r\n\r\n    function convertToVerusNumber(uint256 a,uint8 decimals) public pure returns (uint256) {\r\n         uint8 power = 10; //default value for 18\r\n         uint256 c = a;\r\n        if (decimals > 8 ) {\r\n            power = decimals - 8;// number of decimals in verus\r\n            c = a / (10 ** power);\r\n        } else if (decimals < 8){\r\n            power = 8 - decimals;// number of decimals in verus\r\n            c = a * (10 ** power);\r\n        }\r\n\r\n        return c;\r\n    }\r\n \r\n    function export(VerusObjects.CReserveTransfer memory transfer) public payable {\r\n        assert(!deprecated);\r\n        uint256 requiredFees =  VerusConstants.transactionFee;\r\n        uint256 verusFees = VerusConstants.verusTransactionFee;\r\n\r\n        //TODO: We cant mix different transfer destinations together in the CCE assert on non same fields.\r\n        if (readyExportsByBlock[block.number].created)\r\n        {\r\n            uint exportIndex = readyExportsByBlock[block.number].index;\r\n\r\n            // QUESTION: what about reserve transfers that are import to source?\r\n            assert( _readyExports[exportIndex][0].destcurrencyid == transfer.destcurrencyid);\r\n        }\r\n\r\n        //if there is fees in the pool spend those and not the amount that\r\n        if (isPoolAvailable(transfer.fees,transfer.feecurrencyid)) {\r\n            poolSize -= VerusConstants.verusTransactionFee;\r\n        } else {\r\n            //if fees are being paid in verustest we need to take it from the msg sender\r\n            assert(transfer.feecurrencyid == VerusConstants.VerusCurrencyId || transfer.feecurrencyid == VerusConstants.VEth);\r\n            if(transfer.feecurrencyid == VerusConstants.VerusCurrencyId) {\r\n                \r\n                //burn the required amount of vrsctest from the user\r\n                Token token = tokenManager.getTokenERC20(transfer.feecurrencyid);\r\n                uint256 VRSTallowedTokens = token.allowance(msg.sender, address(this));\r\n                assert( VRSTallowedTokens >= convertFromVerusNumber(verusFees,18));\r\n                token.transferFrom(msg.sender,address(this), convertFromVerusNumber(verusFees,18)); \r\n                //transfer the tokens to this contract\r\n                token.burn(verusFees); \r\n\r\n            } else if(transfer.feecurrencyid == VerusConstants.VEth){\r\n                requiredFees = requiredFees * 3;\r\n                assert(msg.value >= requiredFees + convertFromVerusNumber(transfer.fees,18));    \r\n            }\r\n            //if the fees are being paid in veth then require the user to send it\r\n            //fees need to be paid for verus as well\r\n        }\r\n\r\n        if (transfer.currencyvalue.currency != VerusConstants.VEth) {\r\n            //check there are enough fees sent\r\n            feesHeld += msg.value;\r\n            //check that the token is registered\r\n            Token token = tokenManager.getTokenERC20(transfer.currencyvalue.currency);\r\n            uint256 allowedTokens = token.allowance(msg.sender,address(this));\r\n            uint256 tokenAmount = convertFromVerusNumber(transfer.currencyvalue.amount,token.decimals()); //convert to wei from verus satoshis\r\n            assert( allowedTokens >= tokenAmount);\r\n            //transfer the tokens to this contract\r\n            token.transferFrom(msg.sender,address(this),tokenAmount); \r\n            token.approve(address(tokenManager),tokenAmount);\r\n            //give an approval for the tokenmanagerinstance to spend the tokens\r\n            tokenManager.exportERC20Tokens(address(token), tokenAmount);  //total amount kept as wei until export to verus\r\n        } else {\r\n            //handle a vEth transfer\r\n            transfer.currencyvalue.amount = uint64(convertToVerusNumber(msg.value - VerusConstants.transactionFee,18));\r\n            ethHeld += transfer.currencyvalue.amount;  \r\n            feesHeld += VerusConstants.transactionFee;\r\n        }\r\n        _createExports(transfer);\r\n    }\r\n\r\n    function _createExports(VerusObjects.CReserveTransfer memory newTransaction) private {\r\n        uint currentHeight = block.number;\r\n        uint exportIndex;\r\n        bool newHash;\r\n\r\n        //check if the current block height has a set of transfers associated with it if so add to the existing array\r\n        if (readyExportsByBlock[currentHeight].created) {\r\n            //append to an existing array of transfers\r\n            exportIndex = readyExportsByBlock[currentHeight].index;\r\n            _readyExports[exportIndex].push(newTransaction);\r\n            newHash = false;\r\n        }\r\n        else {\r\n            _pendingExports.push(newTransaction);\r\n            exportIndex = _readyExports.length;\r\n            _readyExports.push(_pendingExports);\r\n            readyExportsByBlock[currentHeight] = VerusObjects.blockCreated(exportIndex, true);\r\n            delete _pendingExports;\r\n            newHash = true;\r\n        }\r\n       \r\n        // QUESTION: why such a complicated test to determine destination currency on Verus?\r\n        // likely better would be to have a bool of bridge ready\r\n        bool bridgeReady = (0 < verusNotarizer.poolAvailable(VerusConstants.VerusBridgeAddress) &&\r\n            verusNotarizer.poolAvailable(VerusConstants.VerusBridgeAddress) < uint32(block.number));\r\n\r\n        bytes memory serializedCCE = verusSerializer.serializeCCrossChainExport(verusCCE.generateCCE(_readyExports[exportIndex], bridgeReady));\r\n\r\n        bytes32 hashedCCE;\r\n        bytes32 lastCCEHash = 0;\r\n        if (exportIndex != 0) lastCCEHash = readyExportHashes[exportIndex -1];\r\n        hashedCCE = keccak256(abi.encodePacked(serializedCCE, lastCCEHash));\r\n\r\n        //add the hashed value\r\n        if (newHash) readyExportHashes.push(hashedCCE);\r\n        else readyExportHashes[exportIndex] = hashedCCE;\r\n\r\n        if (firstBlock == 0) firstBlock = currentHeight;\r\n    }\r\n\r\n    function getlastimportheight() public view returns(uint) {\r\n        return lastTxImportHeight;\r\n    }\r\n\r\n    /***\r\n     * Import from Verus functions\r\n     ***/\r\n    function checkImports(bytes32[] memory _imports) public view returns(bytes32[] memory) {\r\n        //loop through the transfers and return a list of unprocessed\r\n        bytes32[] memory txidList = new bytes32[](_imports.length);\r\n        uint iterator;\r\n        for(uint i = 0; i < _imports.length; i++){\r\n            if(processedTxids[_imports[i]] != true){\r\n                txidList[iterator] = _imports[i];\r\n                iterator++;\r\n            }\r\n        }\r\n        return txidList;\r\n    }\r\n\r\n    function submitImports(VerusObjects.CReserveTransferImport[] memory _imports) public {\r\n        //loop through the transfers and process\r\n        for(uint i = 0; i < _imports.length; i++){\r\n           _createImports(_imports[i]);\r\n        }\r\n    }\r\n\r\n    function bytesToAddress(bytes memory bys) private pure returns (address addr) {\r\n    assembly {\r\n      addr := mload(add(bys,20))\r\n    } \r\n}\r\n\r\n    function _createImports(VerusObjects.CReserveTransferImport memory _import) public returns(bool) {\r\n\r\n        bytes32 txidfound;\r\n        bytes memory sliced = _import.partialtransactionproof.components[0].elVchObj;\r\n\r\n        assembly {\r\n            txidfound := mload(add(sliced, 32))                                 // skip memory length (ETH encoded in an efficient 32 bytes ;) )\r\n        }\r\n        if (processedTxids[txidfound] == true) return false; \r\n\r\n        bool proven = verusProof.proveImports(_import);\r\n\r\n        assert(proven);\r\n        processedTxids[txidfound] = true;\r\n\r\n        if (lastTxImportHeight < _import.height)\r\n            lastTxImportHeight = _import.height;\r\n\r\n        uint256 amount;\r\n\r\n        //check the transfers were in the hash.\r\n        for(uint i = 0; i < _import.transfers.length; i++){\r\n            //handle eth transactions\r\n            amount = convertFromVerusNumber(uint256(_import.transfers[i].currencyvalue.amount),18);\r\n            if(_import.transfers[i].currencyvalue.currency == VerusConstants.VEth) {\r\n                //cast the destination as an ethAddress\r\n                assert(amount <= address(this).balance);\r\n                sendEth(amount,payable(bytesToAddress(_import.transfers[i].destination.destinationaddress)));\r\n                ethHeld -= amount;\r\n        \r\n            } else {\r\n                // handle erc20 transactions  \r\n                // amount conversion is handled in token manager\r\n                tokenManager.importERC20Tokens(_import.transfers[i].currencyvalue.currency,\r\n                    _import.transfers[i].currencyvalue.amount,\r\n                    bytesToAddress(_import.transfers[i].destination.destinationaddress));\r\n            }\r\n            //handle the distributions of the fees\r\n            //add them into the fees array to be claimed by the message sender\r\n            if(_import.transfers[i].fees > 0 && _import.transfers[i].feecurrencyid == VerusConstants.VEth){\r\n                claimableFees[msg.sender] = claimableFees[msg.sender] + _import.transfers[i].fees;\r\n            }\r\n        }\r\n        return true;\r\n    }\r\n    \r\n    function getReadyExportsByBlock(uint _blockNumber) public view returns(VerusObjects.CReserveTransferSet memory) {\r\n        //need a transferset for each position not each block\r\n        //retrieve a block get the indexes, create a transfer set for each index add those to the array\r\n        uint eIndex = readyExportsByBlock[_blockNumber].index;\r\n\r\n        VerusObjects.CReserveTransferSet memory output = VerusObjects.CReserveTransferSet(\r\n            eIndex,                     // position in array\r\n            _blockNumber,               // blockHeight\r\n            readyExportHashes[eIndex],  // cross chain export hash\r\n            _readyExports[eIndex]       // list of CReserveTransfers\r\n        );\r\n\r\n        return output;\r\n    }\r\n\r\n    function getReadyExportsByRange(uint _startBlock,uint _endBlock) public view returns(VerusObjects.CReserveTransferSet[] memory){\r\n        //calculate the size that the return array will be to initialise it\r\n        uint outputSize = 0;\r\n        if(_startBlock < firstBlock) _startBlock = firstBlock;\r\n        for(uint i = _startBlock; i <= _endBlock; i++){\r\n            if(readyExportsByBlock[i].created) outputSize += 1;\r\n        }\r\n\r\n        VerusObjects.CReserveTransferSet[] memory output = new VerusObjects.CReserveTransferSet[](outputSize);\r\n        uint outputPosition = 0;\r\n        for (uint blockNumber = _startBlock; blockNumber <= _endBlock; blockNumber++){\r\n            if (readyExportsByBlock[blockNumber].created) {\r\n                output[outputPosition] = getReadyExportsByBlock(blockNumber);\r\n                outputPosition++;\r\n            }\r\n        }\r\n        return output;        \r\n    }\r\n \r\n    function sendEth(uint256 _ethAmount, address payable _ethAddress) private {\r\n        assert(!deprecated);\r\n        //do we take fees here????\r\n        \r\n        _ethAddress.transfer(_ethAmount);\r\n    }\r\n   \r\n    function claimFees() public returns(uint256) {\r\n        assert(!deprecated);\r\n        if(claimableFees[msg.sender] > 0 ){\r\n            sendEth(claimableFees[msg.sender],msg.sender);\r\n        }\r\n        return claimableFees[msg.sender];\r\n    }\r\n/*\r\n    function deprecate(address _upgradedAddress,bytes32 _addressHash,uint8[] memory _vs,bytes32[] memory _rs,bytes32[] memory _ss) public{\r\n        if(verusNotarizer.notarizedDeprecation(_upgradedAddress, _addressHash, _vs, _rs, _ss)){\r\n            deprecated = true;\r\n            upgradedAddress = _upgradedAddress;\r\n            Deprecate(_upgradedAddress);\r\n        }\r\n    }\r\n*/\r\n\r\n}\r\n",
  "sourcePath": "D:\\dev\\Ethereum-verus-notarisation\\contracts\\VerusBridge\\VerusBridge.sol",
  "compiler": {
    "name": "solc",
    "version": "0.7.6+commit.7338295f.Emscripten.clang"
  },
  "schemaVersion": "3.4.3",
  "updatedAt": "2022-02-08T08:21:21.980Z",
  "networkType": "ethereum",
  "devdoc": {
    "kind": "dev",
    "methods": {},
    "version": 1
  },
  "userdoc": {
    "kind": "user",
    "methods": {},
    "version": 1
  }
}