{
  "contractName": "VerusBridge",
  "abi": [
    {
      "inputs": [
        {
          "internalType": "address",
          "name": "verusProofAddress",
          "type": "address"
        },
        {
          "internalType": "address",
          "name": "tokenManagerAddress",
          "type": "address"
        },
        {
          "internalType": "address",
          "name": "verusSerializerAddress",
          "type": "address"
        },
        {
          "internalType": "address",
          "name": "verusNotarizerAddress",
          "type": "address"
        },
        {
          "internalType": "address",
          "name": "verusCCEAddress",
          "type": "address"
        },
        {
          "internalType": "uint256",
          "name": "_poolSize",
          "type": "uint256"
        }
      ],
      "stateMutability": "nonpayable",
      "type": "constructor"
    },
    {
      "anonymous": false,
      "inputs": [
        {
          "indexed": false,
          "internalType": "address",
          "name": "newAddress",
          "type": "address"
        }
      ],
      "name": "Deprecate",
      "type": "event"
    },
    {
      "inputs": [
        {
          "internalType": "uint256",
          "name": "",
          "type": "uint256"
        },
        {
          "internalType": "uint256",
          "name": "",
          "type": "uint256"
        }
      ],
      "name": "_readyExports",
      "outputs": [
        {
          "internalType": "uint32",
          "name": "version",
          "type": "uint32"
        },
        {
          "components": [
            {
              "internalType": "address",
              "name": "currency",
              "type": "address"
            },
            {
              "internalType": "uint64",
              "name": "amount",
              "type": "uint64"
            }
          ],
          "internalType": "struct VerusObjects.CCurrencyValueMap",
          "name": "currencyvalue",
          "type": "tuple"
        },
        {
          "internalType": "uint32",
          "name": "flags",
          "type": "uint32"
        },
        {
          "internalType": "address",
          "name": "feecurrencyid",
          "type": "address"
        },
        {
          "internalType": "uint256",
          "name": "fees",
          "type": "uint256"
        },
        {
          "components": [
            {
              "internalType": "uint8",
              "name": "destinationtype",
              "type": "uint8"
            },
            {
              "internalType": "bytes",
              "name": "destinationaddress",
              "type": "bytes"
            }
          ],
          "internalType": "struct VerusObjectsCommon.CTransferDestination",
          "name": "destination",
          "type": "tuple"
        },
        {
          "internalType": "address",
          "name": "destcurrencyid",
          "type": "address"
        },
        {
          "internalType": "address",
          "name": "destsystemid",
          "type": "address"
        },
        {
          "internalType": "address",
          "name": "secondreserveid",
          "type": "address"
        }
      ],
      "stateMutability": "view",
      "type": "function",
      "constant": true
    },
    {
      "inputs": [
        {
          "internalType": "address",
          "name": "",
          "type": "address"
        }
      ],
      "name": "claimableFees",
      "outputs": [
        {
          "internalType": "uint256",
          "name": "",
          "type": "uint256"
        }
      ],
      "stateMutability": "view",
      "type": "function",
      "constant": true
    },
    {
      "inputs": [],
      "name": "deprecated",
      "outputs": [
        {
          "internalType": "bool",
          "name": "",
          "type": "bool"
        }
      ],
      "stateMutability": "view",
      "type": "function",
      "constant": true
    },
    {
      "inputs": [],
      "name": "ethHeld",
      "outputs": [
        {
          "internalType": "uint256",
          "name": "",
          "type": "uint256"
        }
      ],
      "stateMutability": "view",
      "type": "function",
      "constant": true
    },
    {
      "inputs": [],
      "name": "feesHeld",
      "outputs": [
        {
          "internalType": "uint256",
          "name": "",
          "type": "uint256"
        }
      ],
      "stateMutability": "view",
      "type": "function",
      "constant": true
    },
    {
      "inputs": [],
      "name": "firstBlock",
      "outputs": [
        {
          "internalType": "uint256",
          "name": "",
          "type": "uint256"
        }
      ],
      "stateMutability": "view",
      "type": "function",
      "constant": true
    },
    {
      "inputs": [],
      "name": "lastTxidimport",
      "outputs": [
        {
          "internalType": "uint256",
          "name": "",
          "type": "uint256"
        }
      ],
      "stateMutability": "view",
      "type": "function",
      "constant": true
    },
    {
      "inputs": [],
      "name": "lastimport",
      "outputs": [
        {
          "internalType": "uint256",
          "name": "height",
          "type": "uint256"
        },
        {
          "internalType": "bytes32",
          "name": "txid",
          "type": "bytes32"
        }
      ],
      "stateMutability": "view",
      "type": "function",
      "constant": true
    },
    {
      "inputs": [],
      "name": "poolSize",
      "outputs": [
        {
          "internalType": "uint256",
          "name": "",
          "type": "uint256"
        }
      ],
      "stateMutability": "view",
      "type": "function",
      "constant": true
    },
    {
      "inputs": [
        {
          "internalType": "bytes32",
          "name": "",
          "type": "bytes32"
        }
      ],
      "name": "processedTxids",
      "outputs": [
        {
          "internalType": "bool",
          "name": "",
          "type": "bool"
        }
      ],
      "stateMutability": "view",
      "type": "function",
      "constant": true
    },
    {
      "inputs": [
        {
          "internalType": "uint256",
          "name": "",
          "type": "uint256"
        }
      ],
      "name": "readyExportHashes",
      "outputs": [
        {
          "internalType": "bytes32",
          "name": "",
          "type": "bytes32"
        }
      ],
      "stateMutability": "view",
      "type": "function",
      "constant": true
    },
    {
      "inputs": [
        {
          "internalType": "uint256",
          "name": "",
          "type": "uint256"
        }
      ],
      "name": "readyExportsByBlock",
      "outputs": [
        {
          "internalType": "uint256",
          "name": "index",
          "type": "uint256"
        },
        {
          "internalType": "bool",
          "name": "created",
          "type": "bool"
        }
      ],
      "stateMutability": "view",
      "type": "function",
      "constant": true
    },
    {
      "inputs": [],
      "name": "upgradedAddress",
      "outputs": [
        {
          "internalType": "address",
          "name": "",
          "type": "address"
        }
      ],
      "stateMutability": "view",
      "type": "function",
      "constant": true
    },
    {
      "inputs": [
        {
          "internalType": "uint256",
          "name": "a",
          "type": "uint256"
        },
        {
          "internalType": "uint8",
          "name": "decimals",
          "type": "uint8"
        }
      ],
      "name": "convertFromVerusNumber",
      "outputs": [
        {
          "internalType": "uint256",
          "name": "",
          "type": "uint256"
        }
      ],
      "stateMutability": "pure",
      "type": "function",
      "constant": true
    },
    {
      "inputs": [
        {
          "internalType": "uint256",
          "name": "a",
          "type": "uint256"
        },
        {
          "internalType": "uint8",
          "name": "decimals",
          "type": "uint8"
        }
      ],
      "name": "convertToVerusNumber",
      "outputs": [
        {
          "internalType": "uint256",
          "name": "",
          "type": "uint256"
        }
      ],
      "stateMutability": "pure",
      "type": "function",
      "constant": true
    },
    {
      "inputs": [
        {
          "components": [
            {
              "internalType": "uint32",
              "name": "version",
              "type": "uint32"
            },
            {
              "components": [
                {
                  "internalType": "address",
                  "name": "currency",
                  "type": "address"
                },
                {
                  "internalType": "uint64",
                  "name": "amount",
                  "type": "uint64"
                }
              ],
              "internalType": "struct VerusObjects.CCurrencyValueMap",
              "name": "currencyvalue",
              "type": "tuple"
            },
            {
              "internalType": "uint32",
              "name": "flags",
              "type": "uint32"
            },
            {
              "internalType": "address",
              "name": "feecurrencyid",
              "type": "address"
            },
            {
              "internalType": "uint256",
              "name": "fees",
              "type": "uint256"
            },
            {
              "components": [
                {
                  "internalType": "uint8",
                  "name": "destinationtype",
                  "type": "uint8"
                },
                {
                  "internalType": "bytes",
                  "name": "destinationaddress",
                  "type": "bytes"
                }
              ],
              "internalType": "struct VerusObjectsCommon.CTransferDestination",
              "name": "destination",
              "type": "tuple"
            },
            {
              "internalType": "address",
              "name": "destcurrencyid",
              "type": "address"
            },
            {
              "internalType": "address",
              "name": "destsystemid",
              "type": "address"
            },
            {
              "internalType": "address",
              "name": "secondreserveid",
              "type": "address"
            }
          ],
          "internalType": "struct VerusObjects.CReserveTransfer",
          "name": "transfer",
          "type": "tuple"
        }
      ],
      "name": "export",
      "outputs": [],
      "stateMutability": "payable",
      "type": "function",
      "payable": true
    },
    {
      "inputs": [],
      "name": "getlastimportheight",
      "outputs": [
        {
          "internalType": "uint256",
          "name": "",
          "type": "uint256"
        }
      ],
      "stateMutability": "view",
      "type": "function",
      "constant": true
    },
    {
      "inputs": [
        {
          "internalType": "bytes32[]",
          "name": "_imports",
          "type": "bytes32[]"
        }
      ],
      "name": "checkImports",
      "outputs": [
        {
          "internalType": "bytes32[]",
          "name": "",
          "type": "bytes32[]"
        }
      ],
      "stateMutability": "view",
      "type": "function",
      "constant": true
    },
    {
      "inputs": [
        {
          "components": [
            {
              "internalType": "uint256",
              "name": "height",
              "type": "uint256"
            },
            {
              "internalType": "bytes32",
              "name": "txid",
              "type": "bytes32"
            },
            {
              "internalType": "uint256",
              "name": "txoutnum",
              "type": "uint256"
            },
            {
              "components": [
                {
                  "internalType": "uint16",
                  "name": "version",
                  "type": "uint16"
                },
                {
                  "internalType": "uint16",
                  "name": "flags",
                  "type": "uint16"
                },
                {
                  "internalType": "address",
                  "name": "sourcesystemid",
                  "type": "address"
                },
                {
                  "internalType": "uint32",
                  "name": "sourceheightstart",
                  "type": "uint32"
                },
                {
                  "internalType": "uint32",
                  "name": "sourceheightend",
                  "type": "uint32"
                },
                {
                  "internalType": "address",
                  "name": "destinationsystemid",
                  "type": "address"
                },
                {
                  "internalType": "address",
                  "name": "destinationcurrencyid",
                  "type": "address"
                },
                {
                  "internalType": "uint32",
                  "name": "numinputs",
                  "type": "uint32"
                },
                {
                  "components": [
                    {
                      "internalType": "address",
                      "name": "currency",
                      "type": "address"
                    },
                    {
                      "internalType": "uint64",
                      "name": "amount",
                      "type": "uint64"
                    }
                  ],
                  "internalType": "struct VerusObjects.CCurrencyValueMap[]",
                  "name": "totalamounts",
                  "type": "tuple[]"
                },
                {
                  "components": [
                    {
                      "internalType": "address",
                      "name": "currency",
                      "type": "address"
                    },
                    {
                      "internalType": "uint64",
                      "name": "amount",
                      "type": "uint64"
                    }
                  ],
                  "internalType": "struct VerusObjects.CCurrencyValueMap[]",
                  "name": "totalfees",
                  "type": "tuple[]"
                },
                {
                  "internalType": "bytes32",
                  "name": "hashtransfers",
                  "type": "bytes32"
                },
                {
                  "components": [
                    {
                      "internalType": "address",
                      "name": "currency",
                      "type": "address"
                    },
                    {
                      "internalType": "uint64",
                      "name": "amount",
                      "type": "uint64"
                    }
                  ],
                  "internalType": "struct VerusObjects.CCurrencyValueMap[]",
                  "name": "totalburned",
                  "type": "tuple[]"
                },
                {
                  "components": [
                    {
                      "internalType": "uint8",
                      "name": "destinationtype",
                      "type": "uint8"
                    },
                    {
                      "internalType": "bytes",
                      "name": "destinationaddress",
                      "type": "bytes"
                    }
                  ],
                  "internalType": "struct VerusObjectsCommon.CTransferDestination",
                  "name": "rewardaddress",
                  "type": "tuple"
                },
                {
                  "internalType": "int32",
                  "name": "firstinput",
                  "type": "int32"
                }
              ],
              "internalType": "struct VerusObjects.CCrossChainExport",
              "name": "exportinfo",
              "type": "tuple"
            },
            {
              "components": [
                {
                  "internalType": "uint8",
                  "name": "version",
                  "type": "uint8"
                },
                {
                  "internalType": "uint8",
                  "name": "typeC",
                  "type": "uint8"
                },
                {
                  "components": [
                    {
                      "internalType": "uint8",
                      "name": "branchType",
                      "type": "uint8"
                    },
                    {
                      "components": [
                        {
                          "internalType": "uint8",
                          "name": "CMerkleBranchBase",
                          "type": "uint8"
                        },
                        {
                          "internalType": "uint32",
                          "name": "nIndex",
                          "type": "uint32"
                        },
                        {
                          "internalType": "uint32",
                          "name": "nSize",
                          "type": "uint32"
                        },
                        {
                          "internalType": "bytes32[]",
                          "name": "branch",
                          "type": "bytes32[]"
                        }
                      ],
                      "internalType": "struct VerusObjects.CMerkleBranch",
                      "name": "proofSequence",
                      "type": "tuple"
                    }
                  ],
                  "internalType": "struct VerusObjects.CTXProof[]",
                  "name": "txproof",
                  "type": "tuple[]"
                },
                {
                  "components": [
                    {
                      "internalType": "uint8",
                      "name": "elType",
                      "type": "uint8"
                    },
                    {
                      "internalType": "uint8",
                      "name": "elIdx",
                      "type": "uint8"
                    },
                    {
                      "internalType": "bytes",
                      "name": "elVchObj",
                      "type": "bytes"
                    },
                    {
                      "components": [
                        {
                          "internalType": "uint8",
                          "name": "branchType",
                          "type": "uint8"
                        },
                        {
                          "components": [
                            {
                              "internalType": "uint8",
                              "name": "CMerkleBranchBase",
                              "type": "uint8"
                            },
                            {
                              "internalType": "uint32",
                              "name": "nIndex",
                              "type": "uint32"
                            },
                            {
                              "internalType": "uint32",
                              "name": "nSize",
                              "type": "uint32"
                            },
                            {
                              "internalType": "bytes32[]",
                              "name": "branch",
                              "type": "bytes32[]"
                            }
                          ],
                          "internalType": "struct VerusObjects.CMerkleBranch",
                          "name": "proofSequence",
                          "type": "tuple"
                        }
                      ],
                      "internalType": "struct VerusObjects.CTXProof[]",
                      "name": "elProof",
                      "type": "tuple[]"
                    },
                    {
                      "internalType": "uint32",
                      "name": "VchObjIndex",
                      "type": "uint32"
                    }
                  ],
                  "internalType": "struct VerusObjects.CComponents[]",
                  "name": "components",
                  "type": "tuple[]"
                }
              ],
              "internalType": "struct VerusObjects.CPtransactionproof",
              "name": "partialtransactionproof",
              "type": "tuple"
            },
            {
              "components": [
                {
                  "internalType": "uint32",
                  "name": "version",
                  "type": "uint32"
                },
                {
                  "components": [
                    {
                      "internalType": "address",
                      "name": "currency",
                      "type": "address"
                    },
                    {
                      "internalType": "uint64",
                      "name": "amount",
                      "type": "uint64"
                    }
                  ],
                  "internalType": "struct VerusObjects.CCurrencyValueMap",
                  "name": "currencyvalue",
                  "type": "tuple"
                },
                {
                  "internalType": "uint32",
                  "name": "flags",
                  "type": "uint32"
                },
                {
                  "internalType": "address",
                  "name": "feecurrencyid",
                  "type": "address"
                },
                {
                  "internalType": "uint256",
                  "name": "fees",
                  "type": "uint256"
                },
                {
                  "components": [
                    {
                      "internalType": "uint8",
                      "name": "destinationtype",
                      "type": "uint8"
                    },
                    {
                      "internalType": "bytes",
                      "name": "destinationaddress",
                      "type": "bytes"
                    }
                  ],
                  "internalType": "struct VerusObjectsCommon.CTransferDestination",
                  "name": "destination",
                  "type": "tuple"
                },
                {
                  "internalType": "address",
                  "name": "destcurrencyid",
                  "type": "address"
                },
                {
                  "internalType": "address",
                  "name": "destsystemid",
                  "type": "address"
                },
                {
                  "internalType": "address",
                  "name": "secondreserveid",
                  "type": "address"
                }
              ],
              "internalType": "struct VerusObjects.CReserveTransfer[]",
              "name": "transfers",
              "type": "tuple[]"
            }
          ],
          "internalType": "struct VerusObjects.CReserveTransferImport[]",
          "name": "_imports",
          "type": "tuple[]"
        }
      ],
      "name": "submitImports",
      "outputs": [],
      "stateMutability": "nonpayable",
      "type": "function"
    },
    {
      "inputs": [
        {
          "components": [
            {
              "internalType": "uint256",
              "name": "height",
              "type": "uint256"
            },
            {
              "internalType": "bytes32",
              "name": "txid",
              "type": "bytes32"
            },
            {
              "internalType": "uint256",
              "name": "txoutnum",
              "type": "uint256"
            },
            {
              "components": [
                {
                  "internalType": "uint16",
                  "name": "version",
                  "type": "uint16"
                },
                {
                  "internalType": "uint16",
                  "name": "flags",
                  "type": "uint16"
                },
                {
                  "internalType": "address",
                  "name": "sourcesystemid",
                  "type": "address"
                },
                {
                  "internalType": "uint32",
                  "name": "sourceheightstart",
                  "type": "uint32"
                },
                {
                  "internalType": "uint32",
                  "name": "sourceheightend",
                  "type": "uint32"
                },
                {
                  "internalType": "address",
                  "name": "destinationsystemid",
                  "type": "address"
                },
                {
                  "internalType": "address",
                  "name": "destinationcurrencyid",
                  "type": "address"
                },
                {
                  "internalType": "uint32",
                  "name": "numinputs",
                  "type": "uint32"
                },
                {
                  "components": [
                    {
                      "internalType": "address",
                      "name": "currency",
                      "type": "address"
                    },
                    {
                      "internalType": "uint64",
                      "name": "amount",
                      "type": "uint64"
                    }
                  ],
                  "internalType": "struct VerusObjects.CCurrencyValueMap[]",
                  "name": "totalamounts",
                  "type": "tuple[]"
                },
                {
                  "components": [
                    {
                      "internalType": "address",
                      "name": "currency",
                      "type": "address"
                    },
                    {
                      "internalType": "uint64",
                      "name": "amount",
                      "type": "uint64"
                    }
                  ],
                  "internalType": "struct VerusObjects.CCurrencyValueMap[]",
                  "name": "totalfees",
                  "type": "tuple[]"
                },
                {
                  "internalType": "bytes32",
                  "name": "hashtransfers",
                  "type": "bytes32"
                },
                {
                  "components": [
                    {
                      "internalType": "address",
                      "name": "currency",
                      "type": "address"
                    },
                    {
                      "internalType": "uint64",
                      "name": "amount",
                      "type": "uint64"
                    }
                  ],
                  "internalType": "struct VerusObjects.CCurrencyValueMap[]",
                  "name": "totalburned",
                  "type": "tuple[]"
                },
                {
                  "components": [
                    {
                      "internalType": "uint8",
                      "name": "destinationtype",
                      "type": "uint8"
                    },
                    {
                      "internalType": "bytes",
                      "name": "destinationaddress",
                      "type": "bytes"
                    }
                  ],
                  "internalType": "struct VerusObjectsCommon.CTransferDestination",
                  "name": "rewardaddress",
                  "type": "tuple"
                },
                {
                  "internalType": "int32",
                  "name": "firstinput",
                  "type": "int32"
                }
              ],
              "internalType": "struct VerusObjects.CCrossChainExport",
              "name": "exportinfo",
              "type": "tuple"
            },
            {
              "components": [
                {
                  "internalType": "uint8",
                  "name": "version",
                  "type": "uint8"
                },
                {
                  "internalType": "uint8",
                  "name": "typeC",
                  "type": "uint8"
                },
                {
                  "components": [
                    {
                      "internalType": "uint8",
                      "name": "branchType",
                      "type": "uint8"
                    },
                    {
                      "components": [
                        {
                          "internalType": "uint8",
                          "name": "CMerkleBranchBase",
                          "type": "uint8"
                        },
                        {
                          "internalType": "uint32",
                          "name": "nIndex",
                          "type": "uint32"
                        },
                        {
                          "internalType": "uint32",
                          "name": "nSize",
                          "type": "uint32"
                        },
                        {
                          "internalType": "bytes32[]",
                          "name": "branch",
                          "type": "bytes32[]"
                        }
                      ],
                      "internalType": "struct VerusObjects.CMerkleBranch",
                      "name": "proofSequence",
                      "type": "tuple"
                    }
                  ],
                  "internalType": "struct VerusObjects.CTXProof[]",
                  "name": "txproof",
                  "type": "tuple[]"
                },
                {
                  "components": [
                    {
                      "internalType": "uint8",
                      "name": "elType",
                      "type": "uint8"
                    },
                    {
                      "internalType": "uint8",
                      "name": "elIdx",
                      "type": "uint8"
                    },
                    {
                      "internalType": "bytes",
                      "name": "elVchObj",
                      "type": "bytes"
                    },
                    {
                      "components": [
                        {
                          "internalType": "uint8",
                          "name": "branchType",
                          "type": "uint8"
                        },
                        {
                          "components": [
                            {
                              "internalType": "uint8",
                              "name": "CMerkleBranchBase",
                              "type": "uint8"
                            },
                            {
                              "internalType": "uint32",
                              "name": "nIndex",
                              "type": "uint32"
                            },
                            {
                              "internalType": "uint32",
                              "name": "nSize",
                              "type": "uint32"
                            },
                            {
                              "internalType": "bytes32[]",
                              "name": "branch",
                              "type": "bytes32[]"
                            }
                          ],
                          "internalType": "struct VerusObjects.CMerkleBranch",
                          "name": "proofSequence",
                          "type": "tuple"
                        }
                      ],
                      "internalType": "struct VerusObjects.CTXProof[]",
                      "name": "elProof",
                      "type": "tuple[]"
                    },
                    {
                      "internalType": "uint32",
                      "name": "VchObjIndex",
                      "type": "uint32"
                    }
                  ],
                  "internalType": "struct VerusObjects.CComponents[]",
                  "name": "components",
                  "type": "tuple[]"
                }
              ],
              "internalType": "struct VerusObjects.CPtransactionproof",
              "name": "partialtransactionproof",
              "type": "tuple"
            },
            {
              "components": [
                {
                  "internalType": "uint32",
                  "name": "version",
                  "type": "uint32"
                },
                {
                  "components": [
                    {
                      "internalType": "address",
                      "name": "currency",
                      "type": "address"
                    },
                    {
                      "internalType": "uint64",
                      "name": "amount",
                      "type": "uint64"
                    }
                  ],
                  "internalType": "struct VerusObjects.CCurrencyValueMap",
                  "name": "currencyvalue",
                  "type": "tuple"
                },
                {
                  "internalType": "uint32",
                  "name": "flags",
                  "type": "uint32"
                },
                {
                  "internalType": "address",
                  "name": "feecurrencyid",
                  "type": "address"
                },
                {
                  "internalType": "uint256",
                  "name": "fees",
                  "type": "uint256"
                },
                {
                  "components": [
                    {
                      "internalType": "uint8",
                      "name": "destinationtype",
                      "type": "uint8"
                    },
                    {
                      "internalType": "bytes",
                      "name": "destinationaddress",
                      "type": "bytes"
                    }
                  ],
                  "internalType": "struct VerusObjectsCommon.CTransferDestination",
                  "name": "destination",
                  "type": "tuple"
                },
                {
                  "internalType": "address",
                  "name": "destcurrencyid",
                  "type": "address"
                },
                {
                  "internalType": "address",
                  "name": "destsystemid",
                  "type": "address"
                },
                {
                  "internalType": "address",
                  "name": "secondreserveid",
                  "type": "address"
                }
              ],
              "internalType": "struct VerusObjects.CReserveTransfer[]",
              "name": "transfers",
              "type": "tuple[]"
            }
          ],
          "internalType": "struct VerusObjects.CReserveTransferImport",
          "name": "_import",
          "type": "tuple"
        }
      ],
      "name": "_createImports",
      "outputs": [
        {
          "internalType": "bool",
          "name": "",
          "type": "bool"
        }
      ],
      "stateMutability": "nonpayable",
      "type": "function"
    },
    {
      "inputs": [
        {
          "internalType": "uint256",
          "name": "_blockNumber",
          "type": "uint256"
        }
      ],
      "name": "getReadyExportsByBlock",
      "outputs": [
        {
          "components": [
            {
              "internalType": "uint256",
              "name": "position",
              "type": "uint256"
            },
            {
              "internalType": "uint256",
              "name": "blockHeight",
              "type": "uint256"
            },
            {
              "internalType": "bytes32",
              "name": "exportHash",
              "type": "bytes32"
            },
            {
              "components": [
                {
                  "internalType": "uint32",
                  "name": "version",
                  "type": "uint32"
                },
                {
                  "components": [
                    {
                      "internalType": "address",
                      "name": "currency",
                      "type": "address"
                    },
                    {
                      "internalType": "uint64",
                      "name": "amount",
                      "type": "uint64"
                    }
                  ],
                  "internalType": "struct VerusObjects.CCurrencyValueMap",
                  "name": "currencyvalue",
                  "type": "tuple"
                },
                {
                  "internalType": "uint32",
                  "name": "flags",
                  "type": "uint32"
                },
                {
                  "internalType": "address",
                  "name": "feecurrencyid",
                  "type": "address"
                },
                {
                  "internalType": "uint256",
                  "name": "fees",
                  "type": "uint256"
                },
                {
                  "components": [
                    {
                      "internalType": "uint8",
                      "name": "destinationtype",
                      "type": "uint8"
                    },
                    {
                      "internalType": "bytes",
                      "name": "destinationaddress",
                      "type": "bytes"
                    }
                  ],
                  "internalType": "struct VerusObjectsCommon.CTransferDestination",
                  "name": "destination",
                  "type": "tuple"
                },
                {
                  "internalType": "address",
                  "name": "destcurrencyid",
                  "type": "address"
                },
                {
                  "internalType": "address",
                  "name": "destsystemid",
                  "type": "address"
                },
                {
                  "internalType": "address",
                  "name": "secondreserveid",
                  "type": "address"
                }
              ],
              "internalType": "struct VerusObjects.CReserveTransfer[]",
              "name": "transfers",
              "type": "tuple[]"
            }
          ],
          "internalType": "struct VerusObjects.CReserveTransferSet",
          "name": "",
          "type": "tuple"
        }
      ],
      "stateMutability": "view",
      "type": "function",
      "constant": true
    },
    {
      "inputs": [
        {
          "internalType": "uint256",
          "name": "_startBlock",
          "type": "uint256"
        },
        {
          "internalType": "uint256",
          "name": "_endBlock",
          "type": "uint256"
        }
      ],
      "name": "getReadyExportsByRange",
      "outputs": [
        {
          "components": [
            {
              "internalType": "uint256",
              "name": "position",
              "type": "uint256"
            },
            {
              "internalType": "uint256",
              "name": "blockHeight",
              "type": "uint256"
            },
            {
              "internalType": "bytes32",
              "name": "exportHash",
              "type": "bytes32"
            },
            {
              "components": [
                {
                  "internalType": "uint32",
                  "name": "version",
                  "type": "uint32"
                },
                {
                  "components": [
                    {
                      "internalType": "address",
                      "name": "currency",
                      "type": "address"
                    },
                    {
                      "internalType": "uint64",
                      "name": "amount",
                      "type": "uint64"
                    }
                  ],
                  "internalType": "struct VerusObjects.CCurrencyValueMap",
                  "name": "currencyvalue",
                  "type": "tuple"
                },
                {
                  "internalType": "uint32",
                  "name": "flags",
                  "type": "uint32"
                },
                {
                  "internalType": "address",
                  "name": "feecurrencyid",
                  "type": "address"
                },
                {
                  "internalType": "uint256",
                  "name": "fees",
                  "type": "uint256"
                },
                {
                  "components": [
                    {
                      "internalType": "uint8",
                      "name": "destinationtype",
                      "type": "uint8"
                    },
                    {
                      "internalType": "bytes",
                      "name": "destinationaddress",
                      "type": "bytes"
                    }
                  ],
                  "internalType": "struct VerusObjectsCommon.CTransferDestination",
                  "name": "destination",
                  "type": "tuple"
                },
                {
                  "internalType": "address",
                  "name": "destcurrencyid",
                  "type": "address"
                },
                {
                  "internalType": "address",
                  "name": "destsystemid",
                  "type": "address"
                },
                {
                  "internalType": "address",
                  "name": "secondreserveid",
                  "type": "address"
                }
              ],
              "internalType": "struct VerusObjects.CReserveTransfer[]",
              "name": "transfers",
              "type": "tuple[]"
            }
          ],
          "internalType": "struct VerusObjects.CReserveTransferSet[]",
          "name": "",
          "type": "tuple[]"
        }
      ],
      "stateMutability": "view",
      "type": "function",
      "constant": true
    },
    {
      "inputs": [],
      "name": "claimFees",
      "outputs": [
        {
          "internalType": "uint256",
          "name": "",
          "type": "uint256"
        }
      ],
      "stateMutability": "nonpayable",
      "type": "function"
    }
  ],
  "bytecode": "0x60806040526000600560146101000a81548160ff0219169083151502179055506000600755600060085560006009556000600a553480156200004057600080fd5b506040516200631c3803806200631c833981810160405281019062000066919062000244565b33600560006101000a81548173ffffffffffffffffffffffffffffffffffffffff021916908373ffffffffffffffffffffffffffffffffffffffff16021790555085600260006101000a81548173ffffffffffffffffffffffffffffffffffffffff021916908373ffffffffffffffffffffffffffffffffffffffff160217905550846000806101000a81548173ffffffffffffffffffffffffffffffffffffffff021916908373ffffffffffffffffffffffffffffffffffffffff16021790555083600160006101000a81548173ffffffffffffffffffffffffffffffffffffffff021916908373ffffffffffffffffffffffffffffffffffffffff16021790555082600360006101000a81548173ffffffffffffffffffffffffffffffffffffffff021916908373ffffffffffffffffffffffffffffffffffffffff16021790555081600460006101000a81548173ffffffffffffffffffffffffffffffffffffffff021916908373ffffffffffffffffffffffffffffffffffffffff160217905550806009819055506000600e600001819055506000801b600e600101819055505050505050506200034c565b600081519050620002278162000318565b92915050565b6000815190506200023e8162000332565b92915050565b60008060008060008060c087890312156200025e57600080fd5b60006200026e89828a0162000216565b96505060206200028189828a0162000216565b95505060406200029489828a0162000216565b9450506060620002a789828a0162000216565b9350506080620002ba89828a0162000216565b92505060a0620002cd89828a016200022d565b9150509295509295509295565b6000620002e782620002ee565b9050919050565b600073ffffffffffffffffffffffffffffffffffffffff82169050919050565b6000819050919050565b6200032381620002da565b81146200032f57600080fd5b50565b6200033d816200030e565b81146200034957600080fd5b50565b615fc0806200035c6000396000f3fe6080604052600436106101405760003560e01c80637e0b2492116100b6578063d294f0931161006f578063d294f093146104a9578063d5b91a92146104d4578063e45b909d14610511578063e4804abc1461054e578063e4f30a9f1461058b578063e9fc7ae7146105b657610140565b80637e0b2492146103675780637e3e661b146103a457806388b2621b146103e9578063a8714f6114610405578063b85c0acb1461042e578063c17a4eef1461046b57610140565b8063327d426311610108578063327d42631461024057806338eb07e11461027d5780633f067b20146102ba57806342ce5011146102e55780634ec18db9146103105780635f2edcbe1461033b57610140565b80630c6bf972146101455780630e136b1914610182578063231b0268146101ad57806326976e3f146101d85780632a9e72a614610203575b600080fd5b34801561015157600080fd5b5061016c6004803603810190610167919061440a565b6105e1565b60405161017991906156c8565b60405180910390f35b34801561018e57600080fd5b50610197610a95565b6040516101a491906156c8565b60405180910390f35b3480156101b957600080fd5b506101c2610aa8565b6040516101cf91906157e4565b60405180910390f35b3480156101e457600080fd5b506101ed610aae565b6040516101fa9190615579565b60405180910390f35b34801561020f57600080fd5b5061022a6004803603810190610225919061448c565b610ad4565b60405161023791906157c2565b60405180910390f35b34801561024c57600080fd5b5061026760048036038101906102629190614336565b610ec7565b60405161027491906156c8565b60405180910390f35b34801561028957600080fd5b506102a4600480360381019061029f919061451a565b610ee7565b6040516102b191906157e4565b60405180910390f35b3480156102c657600080fd5b506102cf610f46565b6040516102dc91906157e4565b60405180910390f35b3480156102f157600080fd5b506102fa610f4c565b60405161030791906157e4565b60405180910390f35b34801561031c57600080fd5b50610325610f52565b60405161033291906157e4565b60405180910390f35b34801561034757600080fd5b50610350610f58565b60405161035e929190615828565b60405180910390f35b34801561037357600080fd5b5061038e60048036038101906103899190614262565b610f6a565b60405161039b91906157e4565b60405180910390f35b3480156103b057600080fd5b506103cb60048036038101906103c691906144de565b610f82565b6040516103e099989796959493929190615851565b60405180910390f35b61040360048036038101906103fe919061444b565b6111f4565b005b34801561041157600080fd5b5061042c600480360381019061042791906142cc565b611c4d565b005b34801561043a57600080fd5b506104556004803603810190610450919061428b565b611c87565b6040516104629190615654565b60405180910390f35b34801561047757600080fd5b50610492600480360381019061048d919061448c565b611d72565b6040516104a09291906157ff565b60405180910390f35b3480156104b557600080fd5b506104be611da3565b6040516104cb91906157e4565b60405180910390f35b3480156104e057600080fd5b506104fb60048036038101906104f6919061451a565b611e93565b60405161050891906157e4565b60405180910390f35b34801561051d57600080fd5b506105386004803603810190610533919061448c565b611ef2565b60405161054591906156e3565b60405180910390f35b34801561055a57600080fd5b50610575600480360381019061057091906144de565b611f16565b6040516105829190615676565b60405180910390f35b34801561059757600080fd5b506105a0612045565b6040516105ad91906157e4565b60405180910390f35b3480156105c257600080fd5b506105cb61204f565b6040516105d891906157e4565b60405180910390f35b600060011515601060008460200151815260200190815260200160002060009054906101000a900460ff161515141561061d5760009050610a90565b60008083608001516060015160008151811061063557fe5b6020026020010151604001519050602081015191508184602001511461065757fe5b6000600260009054906101000a900473ffffffffffffffffffffffffffffffffffffffff1673ffffffffffffffffffffffffffffffffffffffff166399344c88866040518263ffffffff1660e01b81526004016106b491906157a0565b60206040518083038186803b1580156106cc57600080fd5b505afa1580156106e0573d6000803e3d6000fd5b505050506040513d601f19601f82011682018060405250810190610704919061430d565b90508061070d57fe5b6001601060008760200151815260200190815260200160002060006101000a81548160ff021916908315150217905550846000015160135410156107575784600001516013819055505b600080600090505b8660a0015151811015610a86576107a08760a00151828151811061077f57fe5b6020026020010151602001516020015167ffffffffffffffff166012611e93565b91507367460c2f56774ed27eeb8685f29f6cec0b090b0073ffffffffffffffffffffffffffffffffffffffff168760a0015182815181106107dd57fe5b6020026020010151602001516000015173ffffffffffffffffffffffffffffffffffffffff161415610859574782111561081357fe5b6108448261083f8960a00151848151811061082a57fe5b602002602001015160a0015160200151612055565b612063565b8160086000828254039250508190555061094e565b60008054906101000a900473ffffffffffffffffffffffffffffffffffffffff1673ffffffffffffffffffffffffffffffffffffffff1663abe900e48860a0015183815181106108a557fe5b602002602001015160200151600001518960a0015184815181106108c557fe5b602002602001015160200151602001516108fd8b60a0015186815181106108e857fe5b602002602001015160a0015160200151612055565b6040518463ffffffff1660e01b815260040161091b9392919061561d565b600060405180830381600087803b15801561093557600080fd5b505af1158015610949573d6000803e3d6000fd5b505050505b60008760a00151828151811061096057fe5b6020026020010151608001511180156109d357507367460c2f56774ed27eeb8685f29f6cec0b090b0073ffffffffffffffffffffffffffffffffffffffff168760a0015182815181106109af57fe5b60200260200101516060015173ffffffffffffffffffffffffffffffffffffffff16145b15610a79578660a0015181815181106109e857fe5b602002602001015160800151601260003373ffffffffffffffffffffffffffffffffffffffff1673ffffffffffffffffffffffffffffffffffffffff1681526020019081526020016000205401601260003373ffffffffffffffffffffffffffffffffffffffff1673ffffffffffffffffffffffffffffffffffffffff168152602001908152602001600020819055505b808060010191505061075f565b5060019450505050505b919050565b600560149054906101000a900460ff1681565b600a5481565b600660009054906101000a900473ffffffffffffffffffffffffffffffffffffffff1681565b610adc612cad565b60006011600084815260200190815260200160002060000154905060006040518060800160405280838152602001858152602001600b8481548110610b1d57fe5b90600052602060002001548152602001600d8481548110610b3a57fe5b90600052602060002001805480602002602001604051908101604052809291908181526020016000905b82821015610eb45783829060005260206000209060090201604051806101200160405290816000820160009054906101000a900463ffffffff1663ffffffff1663ffffffff168152602001600182016040518060400160405290816000820160009054906101000a900473ffffffffffffffffffffffffffffffffffffffff1673ffffffffffffffffffffffffffffffffffffffff1673ffffffffffffffffffffffffffffffffffffffff1681526020016000820160149054906101000a900467ffffffffffffffff1667ffffffffffffffff1667ffffffffffffffff168152505081526020016002820160009054906101000a900463ffffffff1663ffffffff1663ffffffff1681526020016002820160049054906101000a900473ffffffffffffffffffffffffffffffffffffffff1673ffffffffffffffffffffffffffffffffffffffff1673ffffffffffffffffffffffffffffffffffffffff16815260200160038201548152602001600482016040518060400160405290816000820160009054906101000a900460ff1660ff1660ff168152602001600182018054600181600116156101000203166002900480601f016020809104026020016040519081016040528092919081815260200182805460018160011615610100020316600290048015610d965780601f10610d6b57610100808354040283529160200191610d96565b820191906000526020600020905b815481529060010190602001808311610d7957829003601f168201915b50505050508152505081526020016006820160009054906101000a900473ffffffffffffffffffffffffffffffffffffffff1673ffffffffffffffffffffffffffffffffffffffff1673ffffffffffffffffffffffffffffffffffffffff1681526020016007820160009054906101000a900473ffffffffffffffffffffffffffffffffffffffff1673ffffffffffffffffffffffffffffffffffffffff1673ffffffffffffffffffffffffffffffffffffffff1681526020016008820160009054906101000a900473ffffffffffffffffffffffffffffffffffffffff1673ffffffffffffffffffffffffffffffffffffffff1673ffffffffffffffffffffffffffffffffffffffff168152505081526020019060010190610b64565b5050505081525090508092505050919050565b60106020528060005260406000206000915054906101000a900460ff1681565b600080600a9050600084905060088460ff161115610f1c576008840391508160ff16600a0a8581610f1457fe5b049050610f3b565b60088460ff161015610f3a578360080391508160ff16600a0a850290505b5b809250505092915050565b60075481565b60085481565b60095481565b600e8060000154908060010154905082565b60126020528060005260406000206000915090505481565b600d8281548110610f9257600080fd5b906000526020600020018181548110610faa57600080fd5b9060005260206000209060090201600091509150508060000160009054906101000a900463ffffffff1690806001016040518060400160405290816000820160009054906101000a900473ffffffffffffffffffffffffffffffffffffffff1673ffffffffffffffffffffffffffffffffffffffff1673ffffffffffffffffffffffffffffffffffffffff1681526020016000820160149054906101000a900467ffffffffffffffff1667ffffffffffffffff1667ffffffffffffffff1681525050908060020160009054906101000a900463ffffffff16908060020160049054906101000a900473ffffffffffffffffffffffffffffffffffffffff1690806003015490806004016040518060400160405290816000820160009054906101000a900460ff1660ff1660ff168152602001600182018054600181600116156101000203166002900480601f0160208091040260200160405190810160405280929190818152602001828054600181600116156101000203166002900480156111745780601f1061114957610100808354040283529160200191611174565b820191906000526020600020905b81548152906001019060200180831161115757829003601f168201915b505050505081525050908060060160009054906101000a900473ffffffffffffffffffffffffffffffffffffffff16908060070160009054906101000a900473ffffffffffffffffffffffffffffffffffffffff16908060080160009054906101000a900473ffffffffffffffffffffffffffffffffffffffff16905089565b600560149054906101000a900460ff161561120b57fe5b6000621e848090506011600043815260200190815260200160002060010160009054906101000a900460ff16156112e6576000601160004381526020019081526020016000206000015490508260c0015173ffffffffffffffffffffffffffffffffffffffff16600d828154811061127f57fe5b9060005260206000200160008154811061129557fe5b906000526020600020906009020160060160009054906101000a900473ffffffffffffffffffffffffffffffffffffffff1673ffffffffffffffffffffffffffffffffffffffff16146112e457fe5b505b6112f8826080015183606001516120c5565b1561131557621e848060096000828254039250508190555061177a565b73a6ef9ea235635e328124ff3429db9f9e91b64e2d73ffffffffffffffffffffffffffffffffffffffff16826060015173ffffffffffffffffffffffffffffffffffffffff1614806113aa57507367460c2f56774ed27eeb8685f29f6cec0b090b0073ffffffffffffffffffffffffffffffffffffffff16826060015173ffffffffffffffffffffffffffffffffffffffff16145b6113e9576040517f08c379a00000000000000000000000000000000000000000000000000000000081526004016113e0906156fe565b60405180910390fd5b73a6ef9ea235635e328124ff3429db9f9e91b64e2d73ffffffffffffffffffffffffffffffffffffffff16826060015173ffffffffffffffffffffffffffffffffffffffff1614156116cf5760008060009054906101000a900473ffffffffffffffffffffffffffffffffffffffff1673ffffffffffffffffffffffffffffffffffffffff1663f79338de84606001516040518263ffffffff1660e01b81526004016114959190615579565b60206040518083038186803b1580156114ad57600080fd5b505afa1580156114c1573d6000803e3d6000fd5b505050506040513d601f19601f820116820180604052508101906114e591906143a0565b905060008173ffffffffffffffffffffffffffffffffffffffff1663dd62ed3e33306040518363ffffffff1660e01b8152600401611524929190615594565b60206040518083038186803b15801561153c57600080fd5b505afa158015611550573d6000803e3d6000fd5b505050506040513d601f19601f8201168201806040525081019061157491906144b5565b9050611581836012611e93565b8110156115c3576040517f08c379a00000000000000000000000000000000000000000000000000000000081526004016115ba9061571e565b60405180910390fd5b8173ffffffffffffffffffffffffffffffffffffffff166323b872dd33306115ec876012611e93565b6040518463ffffffff1660e01b815260040161160a939291906155bd565b602060405180830381600087803b15801561162457600080fd5b505af1158015611638573d6000803e3d6000fd5b505050506040513d601f19601f8201168201806040525081019061165c919061430d565b508173ffffffffffffffffffffffffffffffffffffffff166342966c68846040518263ffffffff1660e01b815260040161169691906157e4565b600060405180830381600087803b1580156116b057600080fd5b505af11580156116c4573d6000803e3d6000fd5b505050505050611779565b7367460c2f56774ed27eeb8685f29f6cec0b090b0073ffffffffffffffffffffffffffffffffffffffff16826060015173ffffffffffffffffffffffffffffffffffffffff1614156117785761172a82608001516012611e93565b6003655af3107a40000201341015611777576040517f08c379a000000000000000000000000000000000000000000000000000000000815260040161176e9061573e565b60405180910390fd5b5b5b5b7367460c2f56774ed27eeb8685f29f6cec0b090b0073ffffffffffffffffffffffffffffffffffffffff1682602001516000015173ffffffffffffffffffffffffffffffffffffffff1614611bd1573460076000828254019250508190555060008060009054906101000a900473ffffffffffffffffffffffffffffffffffffffff1673ffffffffffffffffffffffffffffffffffffffff1663f79338de8460200151600001516040518263ffffffff1660e01b815260040161183d9190615579565b60206040518083038186803b15801561185557600080fd5b505afa158015611869573d6000803e3d6000fd5b505050506040513d601f19601f8201168201806040525081019061188d91906143a0565b905060008173ffffffffffffffffffffffffffffffffffffffff1663dd62ed3e33306040518363ffffffff1660e01b81526004016118cc929190615594565b60206040518083038186803b1580156118e457600080fd5b505afa1580156118f8573d6000803e3d6000fd5b505050506040513d601f19601f8201168201806040525081019061191c91906144b5565b905060006119b985602001516020015167ffffffffffffffff168473ffffffffffffffffffffffffffffffffffffffff1663313ce5676040518163ffffffff1660e01b815260040160206040518083038186803b15801561197c57600080fd5b505afa158015611990573d6000803e3d6000fd5b505050506040513d601f19601f820116820180604052508101906119b4919061457f565b611e93565b9050808210156119fe576040517f08c379a00000000000000000000000000000000000000000000000000000000081526004016119f59061575e565b60405180910390fd5b8273ffffffffffffffffffffffffffffffffffffffff166323b872dd3330846040518463ffffffff1660e01b8152600401611a3b939291906155bd565b602060405180830381600087803b158015611a5557600080fd5b505af1158015611a69573d6000803e3d6000fd5b505050506040513d601f19601f82011682018060405250810190611a8d919061430d565b508273ffffffffffffffffffffffffffffffffffffffff1663095ea7b360008054906101000a900473ffffffffffffffffffffffffffffffffffffffff16836040518363ffffffff1660e01b8152600401611ae99291906155f4565b602060405180830381600087803b158015611b0357600080fd5b505af1158015611b17573d6000803e3d6000fd5b505050506040513d601f19601f82011682018060405250810190611b3b919061430d565b5060008054906101000a900473ffffffffffffffffffffffffffffffffffffffff1673ffffffffffffffffffffffffffffffffffffffff16639033ef3f84836040518363ffffffff1660e01b8152600401611b979291906155f4565b600060405180830381600087803b158015611bb157600080fd5b505af1158015611bc5573d6000803e3d6000fd5b50505050505050611c40565b611be4655af3107a400034036012610ee7565b82602001516020019067ffffffffffffffff16908167ffffffffffffffff168152505081602001516020015167ffffffffffffffff16600860008282540192505081905550655af3107a40006007600082825401925050819055505b611c49826122d2565b5050565b60005b8151811015611c8357611c75828281518110611c6857fe5b60200260200101516105e1565b508080600101915050611c50565b5050565b60606000825167ffffffffffffffff81118015611ca357600080fd5b50604051908082528060200260200182016040528015611cd25781602001602082028036833780820191505090505b509050600080600090505b8451811015611d67576001151560106000878481518110611cfa57fe5b6020026020010151815260200190815260200160002060009054906101000a900460ff16151514611d5a57848181518110611d3157fe5b6020026020010151838381518110611d4557fe5b60200260200101818152505081806001019250505b8080600101915050611cdd565b508192505050919050565b60116020528060005260406000206000915090508060000154908060010160009054906101000a900460ff16905082565b6000600560149054906101000a900460ff1615611dbc57fe5b6000601260003373ffffffffffffffffffffffffffffffffffffffff1673ffffffffffffffffffffffffffffffffffffffff168152602001908152602001600020541115611e4e57611e4d601260003373ffffffffffffffffffffffffffffffffffffffff1673ffffffffffffffffffffffffffffffffffffffff1681526020019081526020016000205433612063565b5b601260003373ffffffffffffffffffffffffffffffffffffffff1673ffffffffffffffffffffffffffffffffffffffff16815260200190815260200160002054905090565b600080600a9050600084905060088460ff161115611ec1576008840391508160ff16600a0a85029050611ee7565b60088460ff161015611ee6578360080391508160ff16600a0a8581611ee257fe5b0490505b5b809250505092915050565b600b8181548110611f0257600080fd5b906000526020600020016000915090505481565b60606000600a54841015611f2a57600a5493505b60008490505b838111611f74576011600082815260200190815260200160002060010160009054906101000a900460ff1615611f67576001820191505b8080600101915050611f30565b5060008167ffffffffffffffff81118015611f8e57600080fd5b50604051908082528060200260200182016040528015611fc857816020015b611fb5612cad565b815260200190600190039081611fad5790505b5090506000808690505b858111612038576011600082815260200190815260200160002060010160009054906101000a900460ff161561202b5761200b81610ad4565b83838151811061201757fe5b602002602001018190525081806001019250505b8080600101915050611fd2565b5081935050505092915050565b6000601354905090565b60135481565b600060148201519050919050565b600560149054906101000a900460ff161561207a57fe5b8073ffffffffffffffffffffffffffffffffffffffff166108fc839081150290604051600060405180830381858888f193505050501580156120c0573d6000803e3d6000fd5b505050565b6000600360009054906101000a900473ffffffffffffffffffffffffffffffffffffffff1673ffffffffffffffffffffffffffffffffffffffff16630bd4cec373ffece948b8a38bbcc813411d2597f7f8485a06896040518263ffffffff1660e01b81526004016121369190615579565b60206040518083038186803b15801561214e57600080fd5b505afa158015612162573d6000803e3d6000fd5b505050506040513d601f19601f820116820180604052508101906121869190614556565b63ffffffff16600010801561226457504363ffffffff16600360009054906101000a900473ffffffffffffffffffffffffffffffffffffffff1673ffffffffffffffffffffffffffffffffffffffff16630bd4cec373ffece948b8a38bbcc813411d2597f7f8485a06896040518263ffffffff1660e01b815260040161220c9190615579565b60206040518083038186803b15801561222457600080fd5b505afa158015612238573d6000803e3d6000fd5b505050506040513d601f19601f8201168201806040525081019061225c9190614556565b63ffffffff16105b1561227257600090506122cc565b73a6ef9ea235635e328124ff3429db9f9e91b64e2d73ffffffffffffffffffffffffffffffffffffffff168273ffffffffffffffffffffffffffffffffffffffff16146122bb57fe5b8260095410156122c757fe5b600190505b92915050565b60004390506000806011600084815260200190815260200160002060010160009054906101000a900460ff16156125a75760116000848152602001908152602001600020600001549150600d828154811061232957fe5b9060005260206000200184908060018154018082558091505060019003906000526020600020906009020160009091909190915060008201518160000160006101000a81548163ffffffff021916908363ffffffff16021790555060208201518160010160008201518160000160006101000a81548173ffffffffffffffffffffffffffffffffffffffff021916908373ffffffffffffffffffffffffffffffffffffffff16021790555060208201518160000160146101000a81548167ffffffffffffffff021916908367ffffffffffffffff160217905550505060408201518160020160006101000a81548163ffffffff021916908363ffffffff16021790555060608201518160020160046101000a81548173ffffffffffffffffffffffffffffffffffffffff021916908373ffffffffffffffffffffffffffffffffffffffff1602179055506080820151816003015560a08201518160040160008201518160000160006101000a81548160ff021916908360ff16021790555060208201518160010190805190602001906124c3929190612cd8565b50505060c08201518160060160006101000a81548173ffffffffffffffffffffffffffffffffffffffff021916908373ffffffffffffffffffffffffffffffffffffffff16021790555060e08201518160070160006101000a81548173ffffffffffffffffffffffffffffffffffffffff021916908373ffffffffffffffffffffffffffffffffffffffff1602179055506101008201518160080160006101000a81548173ffffffffffffffffffffffffffffffffffffffff021916908373ffffffffffffffffffffffffffffffffffffffff1602179055505050600090506128c2565b600c84908060018154018082558091505060019003906000526020600020906009020160009091909190915060008201518160000160006101000a81548163ffffffff021916908363ffffffff16021790555060208201518160010160008201518160000160006101000a81548173ffffffffffffffffffffffffffffffffffffffff021916908373ffffffffffffffffffffffffffffffffffffffff16021790555060208201518160000160146101000a81548167ffffffffffffffff021916908367ffffffffffffffff160217905550505060408201518160020160006101000a81548163ffffffff021916908363ffffffff16021790555060608201518160020160046101000a81548173ffffffffffffffffffffffffffffffffffffffff021916908373ffffffffffffffffffffffffffffffffffffffff1602179055506080820151816003015560a08201518160040160008201518160000160006101000a81548160ff021916908360ff1602179055506020820151816001019080519060200190612739929190612cd8565b50505060c08201518160060160006101000a81548173ffffffffffffffffffffffffffffffffffffffff021916908373ffffffffffffffffffffffffffffffffffffffff16021790555060e08201518160070160006101000a81548173ffffffffffffffffffffffffffffffffffffffff021916908373ffffffffffffffffffffffffffffffffffffffff1602179055506101008201518160080160006101000a81548173ffffffffffffffffffffffffffffffffffffffff021916908373ffffffffffffffffffffffffffffffffffffffff1602179055505050600d600c9080600181540180825580915050600190039060005260206000200160009091909190915090805461284b929190612d66565b506001600d80549050039150604051806040016040528083815260200160011515815250601160008581526020019081526020016000206000820151816000015560208201518160010160006101000a81548160ff021916908315150217905550905050600c60006128bd91906130e6565b600190505b6000600360009054906101000a900473ffffffffffffffffffffffffffffffffffffffff1673ffffffffffffffffffffffffffffffffffffffff16630bd4cec373ffece948b8a38bbcc813411d2597f7f8485a06896040518263ffffffff1660e01b81526004016129339190615579565b60206040518083038186803b15801561294b57600080fd5b505afa15801561295f573d6000803e3d6000fd5b505050506040513d601f19601f820116820180604052508101906129839190614556565b63ffffffff166000108015612a6157504363ffffffff16600360009054906101000a900473ffffffffffffffffffffffffffffffffffffffff1673ffffffffffffffffffffffffffffffffffffffff16630bd4cec373ffece948b8a38bbcc813411d2597f7f8485a06896040518263ffffffff1660e01b8152600401612a099190615579565b60206040518083038186803b158015612a2157600080fd5b505afa158015612a35573d6000803e3d6000fd5b505050506040513d601f19601f82011682018060405250810190612a599190614556565b63ffffffff16105b90506000600160009054906101000a900473ffffffffffffffffffffffffffffffffffffffff1673ffffffffffffffffffffffffffffffffffffffff16636fa0ee57600460009054906101000a900473ffffffffffffffffffffffffffffffffffffffff1673ffffffffffffffffffffffffffffffffffffffff1663bb6ff4b6600d8881548110612aee57fe5b90600052602060002001866040518363ffffffff1660e01b8152600401612b16929190615698565b600060405180830381600087803b158015612b3057600080fd5b505af1158015612b44573d6000803e3d6000fd5b505050506040513d6000823e3d601f19601f82011682018060405250810190612b6d91906143c9565b6040518263ffffffff1660e01b8152600401612b89919061577e565b60006040518083038186803b158015612ba157600080fd5b505afa158015612bb5573d6000803e3d6000fd5b505050506040513d6000823e3d601f19601f82011682018060405250810190612bde919061435f565b905060008060008614612c0d57600b6001870381548110612bfb57fe5b90600052602060002001549050612c14565b6000801b90505b8281604051602001612c27929190615551565b6040516020818303038152906040528051906020012091508415612c7357600b829080600181540180825580915050600190039060005260206000200160009091909190915055612c90565b81600b8781548110612c8157fe5b90600052602060002001819055505b6000600a541415612ca35786600a819055505b5050505050505050565b6040518060800160405280600081526020016000815260200160008019168152602001606081525090565b828054600181600116156101000203166002900490600052602060002090601f016020900481019282612d0e5760008555612d55565b82601f10612d2757805160ff1916838001178555612d55565b82800160010185558215612d55579182015b82811115612d54578251825591602001919060010190612d39565b5b509050612d62919061310a565b5090565b8280548282559060005260206000209060090281019282156130d55760005260206000209160090282015b828111156130d45782826000820160009054906101000a900463ffffffff168160000160006101000a81548163ffffffff021916908363ffffffff16021790555060018201816001016000820160009054906101000a900473ffffffffffffffffffffffffffffffffffffffff168160000160006101000a81548173ffffffffffffffffffffffffffffffffffffffff021916908373ffffffffffffffffffffffffffffffffffffffff1602179055506000820160149054906101000a900467ffffffffffffffff168160000160146101000a81548167ffffffffffffffff021916908367ffffffffffffffff16021790555050506002820160009054906101000a900463ffffffff168160020160006101000a81548163ffffffff021916908363ffffffff1602179055506002820160049054906101000a900473ffffffffffffffffffffffffffffffffffffffff168160020160046101000a81548173ffffffffffffffffffffffffffffffffffffffff021916908373ffffffffffffffffffffffffffffffffffffffff1602179055506003820154816003015560048201816004016000820160009054906101000a900460ff168160000160006101000a81548160ff021916908360ff16021790555060018201816001019080546001816001161561010002031660029004612f8b929190613127565b5050506006820160009054906101000a900473ffffffffffffffffffffffffffffffffffffffff168160060160006101000a81548173ffffffffffffffffffffffffffffffffffffffff021916908373ffffffffffffffffffffffffffffffffffffffff1602179055506007820160009054906101000a900473ffffffffffffffffffffffffffffffffffffffff168160070160006101000a81548173ffffffffffffffffffffffffffffffffffffffff021916908373ffffffffffffffffffffffffffffffffffffffff1602179055506008820160009054906101000a900473ffffffffffffffffffffffffffffffffffffffff168160080160006101000a81548173ffffffffffffffffffffffffffffffffffffffff021916908373ffffffffffffffffffffffffffffffffffffffff160217905550505091600901919060090190612d91565b5b5090506130e291906131bc565b5090565b508054600082556009029060005260206000209081019061310791906131bc565b50565b5b8082111561312357600081600090555060010161310b565b5090565b828054600181600116156101000203166002900490600052602060002090601f01602090048101928261315d57600085556131ab565b82601f1061316e57805485556131ab565b828001600101855582156131ab57600052602060002091601f016020900482015b828111156131aa57825482559160010191906001019061318f565b5b5090506131b8919061310a565b5090565b5b8082111561331557600080820160006101000a81549063ffffffff021916905560018201600080820160006101000a81549073ffffffffffffffffffffffffffffffffffffffff02191690556000820160146101000a81549067ffffffffffffffff021916905550506002820160006101000a81549063ffffffff02191690556002820160046101000a81549073ffffffffffffffffffffffffffffffffffffffff0219169055600382016000905560048201600080820160006101000a81549060ff02191690556001820160006132959190613319565b50506006820160006101000a81549073ffffffffffffffffffffffffffffffffffffffff02191690556007820160006101000a81549073ffffffffffffffffffffffffffffffffffffffff02191690556008820160006101000a81549073ffffffffffffffffffffffffffffffffffffffff0219169055506009016131bd565b5090565b50805460018160011615610100020316600290046000825580601f1061333f575061335e565b601f01602090049060005260206000209081019061335d919061310a565b5b50565b600061337461336f84615917565b6158e6565b9050808382526020820190508285602086028201111561339357600080fd5b60005b858110156133c357816133a988826137fa565b845260208401935060208301925050600181019050613396565b5050509392505050565b60006133e06133db84615943565b6158e6565b9050808382526020820190508260005b85811015613420578135850161340688826138b7565b8452602084019350602083019250506001810190506133f0565b5050509392505050565b600061343d6134388461596f565b6158e6565b9050808382526020820190508285604086028201111561345c57600080fd5b60005b8581101561348c57816134728882613cc3565b84526020840193506040830192505060018101905061345f565b5050509392505050565b60006134a96134a48461596f565b6158e6565b905080838252602082019050828560408602820111156134c857600080fd5b60005b858110156134f857816134de8882613d0f565b8452602084019350604083019250506001810190506134cb565b5050509392505050565b60006135156135108461599b565b6158e6565b9050808382526020820190508260005b85811015613555578135850161353b8882613e8b565b845260208401935060208301925050600181019050613525565b5050509392505050565b600061357261356d846159c7565b6158e6565b9050808382526020820190508260005b858110156135b257813585016135988882613f6f565b845260208401935060208301925050600181019050613582565b5050509392505050565b60006135cf6135ca846159f3565b6158e6565b9050808382526020820190508260005b8581101561360f57813585016135f58882614064565b8452602084019350602083019250506001810190506135df565b5050509392505050565b600061362c61362784615a1f565b6158e6565b90508281526020810184848401111561364457600080fd5b61364f848285615d82565b509392505050565b600061366a61366584615a1f565b6158e6565b90508281526020810184848401111561368257600080fd5b61368d848285615d91565b509392505050565b6000813590506136a481615ea4565b92915050565b6000815190506136b981615ea4565b92915050565b600082601f8301126136d057600080fd5b81356136e0848260208601613361565b91505092915050565b600082601f8301126136fa57600080fd5b813561370a8482602086016133cd565b91505092915050565b600082601f83011261372457600080fd5b813561373484826020860161342a565b91505092915050565b600082601f83011261374e57600080fd5b815161375e848260208601613496565b91505092915050565b600082601f83011261377857600080fd5b8135613788848260208601613502565b91505092915050565b600082601f8301126137a257600080fd5b81356137b284826020860161355f565b91505092915050565b600082601f8301126137cc57600080fd5b81356137dc8482602086016135bc565b91505092915050565b6000815190506137f481615ebb565b92915050565b60008135905061380981615ed2565b92915050565b60008151905061381e81615ed2565b92915050565b600082601f83011261383557600080fd5b8135613845848260208601613619565b91505092915050565b600082601f83011261385f57600080fd5b815161386f848260208601613657565b91505092915050565b60008151905061388781615ee9565b92915050565b60008135905061389c81615f00565b92915050565b6000815190506138b181615f00565b92915050565b600060a082840312156138c957600080fd5b6138d360a06158e6565b905060006138e384828501614238565b60008301525060206138f784828501614238565b602083015250604082013567ffffffffffffffff81111561391757600080fd5b61392384828501613824565b604083015250606082013567ffffffffffffffff81111561394357600080fd5b61394f848285016137bb565b6060830152506080613963848285016141e4565b60808301525092915050565b60006101c0828403121561398257600080fd5b61398d6101c06158e6565b9050600061399d84828501614190565b60008301525060206139b184828501614190565b60208301525060406139c584828501613695565b60408301525060606139d9848285016141e4565b60608301525060806139ed848285016141e4565b60808301525060a0613a0184828501613695565b60a08301525060c0613a1584828501613695565b60c08301525060e0613a29848285016141e4565b60e08301525061010082013567ffffffffffffffff811115613a4a57600080fd5b613a5684828501613713565b6101008301525061012082013567ffffffffffffffff811115613a7857600080fd5b613a8484828501613713565b61012083015250610140613a9a848285016137fa565b6101408301525061016082013567ffffffffffffffff811115613abc57600080fd5b613ac884828501613713565b6101608301525061018082013567ffffffffffffffff811115613aea57600080fd5b613af6848285016140c8565b610180830152506101a0613b0c8482850161388d565b6101a08301525092915050565b60006101c08284031215613b2c57600080fd5b613b376101c06158e6565b90506000613b47848285016141a5565b6000830152506020613b5b848285016141a5565b6020830152506040613b6f848285016136aa565b6040830152506060613b83848285016141f9565b6060830152506080613b97848285016141f9565b60808301525060a0613bab848285016136aa565b60a08301525060c0613bbf848285016136aa565b60c08301525060e0613bd3848285016141f9565b60e08301525061010082015167ffffffffffffffff811115613bf457600080fd5b613c008482850161373d565b6101008301525061012082015167ffffffffffffffff811115613c2257600080fd5b613c2e8482850161373d565b61012083015250610140613c448482850161380f565b6101408301525061016082015167ffffffffffffffff811115613c6657600080fd5b613c728482850161373d565b6101608301525061018082015167ffffffffffffffff811115613c9457600080fd5b613ca08482850161412c565b610180830152506101a0613cb6848285016138a2565b6101a08301525092915050565b600060408284031215613cd557600080fd5b613cdf60406158e6565b90506000613cef84828501613695565b6000830152506020613d038482850161420e565b60208301525092915050565b600060408284031215613d2157600080fd5b613d2b60406158e6565b90506000613d3b848285016136aa565b6000830152506020613d4f84828501614223565b60208301525092915050565b600060808284031215613d6d57600080fd5b613d7760806158e6565b90506000613d8784828501614238565b6000830152506020613d9b848285016141e4565b6020830152506040613daf848285016141e4565b604083015250606082013567ffffffffffffffff811115613dcf57600080fd5b613ddb848285016136bf565b60608301525092915050565b600060808284031215613df957600080fd5b613e0360806158e6565b90506000613e1384828501614238565b6000830152506020613e2784828501614238565b602083015250604082013567ffffffffffffffff811115613e4757600080fd5b613e53848285016137bb565b604083015250606082013567ffffffffffffffff811115613e7357600080fd5b613e7f848285016136e9565b60608301525092915050565b600060c08284031215613e9d57600080fd5b613ea760c06158e6565b90506000613eb7848285016141ba565b6000830152506020613ecb848285016137fa565b6020830152506040613edf848285016141ba565b604083015250606082013567ffffffffffffffff811115613eff57600080fd5b613f0b8482850161396f565b606083015250608082013567ffffffffffffffff811115613f2b57600080fd5b613f3784828501613de7565b60808301525060a082013567ffffffffffffffff811115613f5757600080fd5b613f6384828501613791565b60a08301525092915050565b60006101408284031215613f8257600080fd5b613f8d6101206158e6565b90506000613f9d848285016141e4565b6000830152506020613fb184828501613cc3565b6020830152506060613fc5848285016141e4565b6040830152506080613fd984828501613695565b60608301525060a0613fed848285016141ba565b60808301525060c082013567ffffffffffffffff81111561400d57600080fd5b614019848285016140c8565b60a08301525060e061402d84828501613695565b60c08301525061010061404284828501613695565b60e08301525061012061405784828501613695565b6101008301525092915050565b60006040828403121561407657600080fd5b61408060406158e6565b9050600061409084828501614238565b600083015250602082013567ffffffffffffffff8111156140b057600080fd5b6140bc84828501613d5b565b60208301525092915050565b6000604082840312156140da57600080fd5b6140e460406158e6565b905060006140f484828501614238565b600083015250602082013567ffffffffffffffff81111561411457600080fd5b61412084828501613824565b60208301525092915050565b60006040828403121561413e57600080fd5b61414860406158e6565b905060006141588482850161424d565b600083015250602082015167ffffffffffffffff81111561417857600080fd5b6141848482850161384e565b60208301525092915050565b60008135905061419f81615f17565b92915050565b6000815190506141b481615f17565b92915050565b6000813590506141c981615f2e565b92915050565b6000815190506141de81615f2e565b92915050565b6000813590506141f381615f45565b92915050565b60008151905061420881615f45565b92915050565b60008135905061421d81615f5c565b92915050565b60008151905061423281615f5c565b92915050565b60008135905061424781615f73565b92915050565b60008151905061425c81615f73565b92915050565b60006020828403121561427457600080fd5b600061428284828501613695565b91505092915050565b60006020828403121561429d57600080fd5b600082013567ffffffffffffffff8111156142b757600080fd5b6142c3848285016136bf565b91505092915050565b6000602082840312156142de57600080fd5b600082013567ffffffffffffffff8111156142f857600080fd5b61430484828501613767565b91505092915050565b60006020828403121561431f57600080fd5b600061432d848285016137e5565b91505092915050565b60006020828403121561434857600080fd5b6000614356848285016137fa565b91505092915050565b60006020828403121561437157600080fd5b600082015167ffffffffffffffff81111561438b57600080fd5b6143978482850161384e565b91505092915050565b6000602082840312156143b257600080fd5b60006143c084828501613878565b91505092915050565b6000602082840312156143db57600080fd5b600082015167ffffffffffffffff8111156143f557600080fd5b61440184828501613b19565b91505092915050565b60006020828403121561441c57600080fd5b600082013567ffffffffffffffff81111561443657600080fd5b61444284828501613e8b565b91505092915050565b60006020828403121561445d57600080fd5b600082013567ffffffffffffffff81111561447757600080fd5b61448384828501613f6f565b91505092915050565b60006020828403121561449e57600080fd5b60006144ac848285016141ba565b91505092915050565b6000602082840312156144c757600080fd5b60006144d5848285016141cf565b91505092915050565b600080604083850312156144f157600080fd5b60006144ff858286016141ba565b9250506020614510858286016141ba565b9150509250929050565b6000806040838503121561452d57600080fd5b600061453b858286016141ba565b925050602061454c85828601614238565b9150509250929050565b60006020828403121561456857600080fd5b6000614576848285016141f9565b91505092915050565b60006020828403121561459157600080fd5b600061459f8482850161424d565b91505092915050565b60006145b483836149da565b60208301905092915050565b60006145cc8383614c3d565b905092915050565b60006145e08383614f40565b60408301905092915050565b60006145f88383615142565b905092915050565b600061460c8383615208565b905092915050565b600061462083836152ce565b905092915050565b600061463483836153d9565b905092915050565b61464581615d4c565b82525050565b61465481615c9c565b82525050565b61466381615c9c565b82525050565b600061467482615ad9565b61467e8185615b8c565b935061468983615a4f565b8060005b838110156146ba5781516146a188826145a8565b97506146ac83615b31565b92505060018101905061468d565b5085935050505092915050565b60006146d282615ad9565b6146dc8185615b9d565b93506146e783615a4f565b8060005b838110156147185781516146ff88826145a8565b975061470a83615b31565b9250506001810190506146eb565b5085935050505092915050565b600061473082615ae4565b61473a8185615bae565b93508360208202850161474c85615a5f565b8060005b85811015614788578484038952815161476985826145c0565b945061477483615b3e565b925060208a01995050600181019050614750565b50829750879550505050505092915050565b60006147a582615aef565b6147af8185615bbf565b93506147ba83615a6f565b8060005b838110156147eb5781516147d288826145d4565b97506147dd83615b4b565b9250506001810190506147be565b5085935050505092915050565b600061480382615afa565b61480d8185615bd0565b93508360208202850161481f85615a7f565b8060005b8581101561485b578484038952815161483c85826145ec565b945061484783615b58565b925060208a01995050600181019050614823565b50829750879550505050505092915050565b600061487882615b05565b6148828185615be1565b93508360208202850161489485615a8f565b8060005b858110156148d057848403895281516148b18582614600565b94506148bc83615b65565b925060208a01995050600181019050614898565b50829750879550505050505092915050565b60006148ed82615b10565b6148f78185615bf2565b93508360208202850161490985615a9f565b8060005b85811015614944578484038952816149258582614614565b945061493083615b72565b925060208a0199505060018101905061490d565b50829750879550505050505092915050565b600061496182615b1b565b61496b8185615c03565b93508360208202850161497d85615ab4565b8060005b858110156149b9578484038952815161499a8582614628565b94506149a583615b7f565b925060208a01995050600181019050614981565b50829750879550505050505092915050565b6149d481615cae565b82525050565b6149e381615cba565b82525050565b6149f281615cba565b82525050565b614a09614a0482615cba565b615e60565b82525050565b6000614a1a82615b26565b614a248185615c14565b9350614a34818560208601615d91565b614a3d81615e6c565b840191505092915050565b6000614a5382615b26565b614a5d8185615c25565b9350614a6d818560208601615d91565b80840191505092915050565b600081546001811660008114614a965760018114614abc57614b00565b607f6002830416614aa78187615c14565b955060ff198316865260208601935050614b00565b60028204614aca8187615c14565b9550614ad585615ac4565b60005b82811015614af757815481890152600182019150602081019050614ad8565b80880195505050505b505092915050565b614b1181615cd6565b82525050565b6000614b24601683615c30565b91507f696e636f7272656374206665652063757272656e6379000000000000000000006000830152602082019050919050565b6000614b64602783615c30565b91507f6e6f7420656e6f756768207672736320746f6b656e7320696e2075736572732060008301527f62616c616e6365000000000000000000000000000000000000000000000000006020830152604082019050919050565b6000614bca601f83615c30565b91507f446573706f73697420746f20736d616c6c20746f20636f7665722066656573006000830152602082019050919050565b6000614c0a601983615c30565b91507f4e6f7420656e6f75676820616c6c6f77656420746f6b656e73000000000000006000830152602082019050919050565b600060a083016000830151614c556000860182615542565b506020830151614c686020860182615542565b5060408301518482036040860152614c808282614a0f565b91505060608301518482036060860152614c9a8282614956565b9150506080830151614caf6080860182615506565b508091505092915050565b60006101c083016000830151614cd360008601826154d9565b506020830151614ce660208601826154d9565b506040830151614cf9604086018261464b565b506060830151614d0c6060860182615506565b506080830151614d1f6080860182615506565b5060a0830151614d3260a086018261464b565b5060c0830151614d4560c086018261464b565b5060e0830151614d5860e0860182615506565b50610100830151848203610100860152614d72828261479a565b915050610120830151848203610120860152614d8e828261479a565b915050610140830151614da56101408601826149da565b50610160830151848203610160860152614dbf828261479a565b915050610180830151848203610180860152614ddb8282615416565b9150506101a0830151614df26101a0860182614b08565b508091505092915050565b60006101c083016000830151614e1660008601826154d9565b506020830151614e2960208601826154d9565b506040830151614e3c604086018261464b565b506060830151614e4f6060860182615506565b506080830151614e626080860182615506565b5060a0830151614e7560a086018261464b565b5060c0830151614e8860c086018261464b565b5060e0830151614e9b60e0860182615506565b50610100830151848203610100860152614eb5828261479a565b915050610120830151848203610120860152614ed1828261479a565b915050610140830151614ee86101408601826149da565b50610160830151848203610160860152614f02828261479a565b915050610180830151848203610180860152614f1e8282615416565b9150506101a0830151614f356101a0860182614b08565b508091505092915050565b604082016000820151614f56600085018261464b565b506020820151614f696020850182615524565b50505050565b604082016000820151614f85600085018261464b565b506020820151614f986020850182615524565b50505050565b604082016000808301549050614fb381615dc4565b614fc0600086018261464b565b50614fca81615e2c565b614fd76020860182615524565b5050505050565b6000608083016000830151614ff66000860182615542565b5060208301516150096020860182615506565b50604083015161501c6040860182615506565b50606083015184820360608601526150348282614669565b9150508091505092915050565b60006080830160008301516150596000860182615542565b50602083015161506c6020860182615542565b50604083015184820360408601526150848282614956565b9150506060830151848203606086015261509e8282614725565b9150508091505092915050565b600060c0830160008301516150c360008601826154e8565b5060208301516150d660208601826149da565b5060408301516150e960408601826154e8565b50606083015184820360608601526151018282614cba565b9150506080830151848203608086015261511b8282615041565b91505060a083015184820360a0860152615135828261486d565b9150508091505092915050565b600060808301600083015161515a60008601826154e8565b50602083015161516d60208601826154e8565b50604083015161518060408601826149da565b5060608301518482036060860152615198828261486d565b9150508091505092915050565b60006080830160008301516151bd60008601826154e8565b5060208301516151d060208601826154e8565b5060408301516151e360408601826149da565b50606083015184820360608601526151fb828261486d565b9150508091505092915050565b6000610140830160008301516152216000860182615506565b5060208301516152346020860182614f40565b5060408301516152476060860182615506565b50606083015161525a608086018261464b565b50608083015161526d60a08601826154e8565b5060a083015184820360c08601526152858282615416565b91505060c083015161529a60e086018261464b565b5060e08301516152ae61010086018261464b565b506101008301516152c361012086018261464b565b508091505092915050565b6000610140830160008084015490506152e681615df8565b6152f36000870182615506565b50600184016153056020870182614f9e565b506002840154905061531681615df8565b6153236060870182615506565b5061532d81615e46565b61533a608087018261464b565b506003840154905061534b81615dde565b61535860a08701826154e8565b506004840185830360c087015261536f8382615490565b9250506006840154905061538281615dc4565b61538f60e087018261464b565b50600784015490506153a081615dc4565b6153ae61010087018261464b565b50600884015490506153bf81615dc4565b6153cd61012087018261464b565b50819250505092915050565b60006040830160008301516153f16000860182615542565b50602083015184820360208601526154098282614fde565b9150508091505092915050565b600060408301600083015161542e6000860182615542565b50602083015184820360208601526154468282614a0f565b9150508091505092915050565b600060408301600083015161546b6000860182615542565b50602083015184820360208601526154838282614a0f565b9150508091505092915050565b60006040830160008084015490506154a781615e12565b6154b46000870182615542565b506001840185830360208701526154cb8382614a79565b925050819250505092915050565b6154e281615ce3565b82525050565b6154f181615d11565b82525050565b61550081615d11565b82525050565b61550f81615d1b565b82525050565b61551e81615d1b565b82525050565b61552d81615d2b565b82525050565b61553c81615d2b565b82525050565b61554b81615d3f565b82525050565b600061555d8285614a48565b915061556982846149f8565b6020820191508190509392505050565b600060208201905061558e600083018461465a565b92915050565b60006040820190506155a9600083018561463c565b6155b6602083018461465a565b9392505050565b60006060820190506155d2600083018661463c565b6155df602083018561465a565b6155ec60408301846154f7565b949350505050565b6000604082019050615609600083018561465a565b61561660208301846154f7565b9392505050565b6000606082019050615632600083018661465a565b61563f6020830185615533565b61564c604083018461465a565b949350505050565b6000602082019050818103600083015261566e81846146c7565b905092915050565b6000602082019050818103600083015261569081846147f8565b905092915050565b600060408201905081810360008301526156b281856148e2565b90506156c160208301846149cb565b9392505050565b60006020820190506156dd60008301846149cb565b92915050565b60006020820190506156f860008301846149e9565b92915050565b6000602082019050818103600083015261571781614b17565b9050919050565b6000602082019050818103600083015261573781614b57565b9050919050565b6000602082019050818103600083015261575781614bbd565b9050919050565b6000602082019050818103600083015261577781614bfd565b9050919050565b600060208201905081810360008301526157988184614dfd565b905092915050565b600060208201905081810360008301526157ba81846150ab565b905092915050565b600060208201905081810360008301526157dc81846151a5565b905092915050565b60006020820190506157f960008301846154f7565b92915050565b600060408201905061581460008301856154f7565b61582160208301846149cb565b9392505050565b600060408201905061583d60008301856154f7565b61584a60208301846149e9565b9392505050565b600061014082019050615867600083018c615515565b615874602083018b614f6f565b615881606083018a615515565b61588e608083018961465a565b61589b60a08301886154f7565b81810360c08301526158ad8187615453565b90506158bc60e083018661465a565b6158ca61010083018561465a565b6158d861012083018461465a565b9a9950505050505050505050565b6000604051905081810181811067ffffffffffffffff8211171561590d5761590c615e6a565b5b8060405250919050565b600067ffffffffffffffff82111561593257615931615e6a565b5b602082029050602081019050919050565b600067ffffffffffffffff82111561595e5761595d615e6a565b5b602082029050602081019050919050565b600067ffffffffffffffff82111561598a57615989615e6a565b5b602082029050602081019050919050565b600067ffffffffffffffff8211156159b6576159b5615e6a565b5b602082029050602081019050919050565b600067ffffffffffffffff8211156159e2576159e1615e6a565b5b602082029050602081019050919050565b600067ffffffffffffffff821115615a0e57615a0d615e6a565b5b602082029050602081019050919050565b600067ffffffffffffffff821115615a3a57615a39615e6a565b5b601f19601f8301169050602081019050919050565b6000819050602082019050919050565b6000819050602082019050919050565b6000819050602082019050919050565b6000819050602082019050919050565b6000819050602082019050919050565b60008190508160005260206000209050919050565b6000819050602082019050919050565b60008190508160005260206000209050919050565b600081519050919050565b600081519050919050565b600081519050919050565b600081519050919050565b600081519050919050565b600081549050919050565b600081519050919050565b600081519050919050565b6000602082019050919050565b6000602082019050919050565b6000602082019050919050565b6000602082019050919050565b6000602082019050919050565b6000600982019050919050565b6000602082019050919050565b600082825260208201905092915050565b600082825260208201905092915050565b600082825260208201905092915050565b600082825260208201905092915050565b600082825260208201905092915050565b600082825260208201905092915050565b600082825260208201905092915050565b600082825260208201905092915050565b600082825260208201905092915050565b600081905092915050565b600082825260208201905092915050565b600073ffffffffffffffffffffffffffffffffffffffff82169050919050565b6000819050919050565b600063ffffffff82169050919050565b600067ffffffffffffffff82169050919050565b600060ff82169050919050565b6000615ca782615cf1565b9050919050565b60008115159050919050565b6000819050919050565b6000615ccf82615c9c565b9050919050565b60008160030b9050919050565b600061ffff82169050919050565b600073ffffffffffffffffffffffffffffffffffffffff82169050919050565b6000819050919050565b600063ffffffff82169050919050565b600067ffffffffffffffff82169050919050565b600060ff82169050919050565b6000615d5782615d5e565b9050919050565b6000615d6982615d70565b9050919050565b6000615d7b82615cf1565b9050919050565b82818337600083830152505050565b60005b83811015615daf578082015181840152602081019050615d94565b83811115615dbe576000848401525b50505050565b6000615dd7615dd283615e7d565b615c41565b9050919050565b6000615df1615dec83615e7d565b615c61565b9050919050565b6000615e0b615e0683615e7d565b615c6b565b9050919050565b6000615e25615e2083615e7d565b615c8f565b9050919050565b6000615e3f615e3a83615e8a565b615c7b565b9050919050565b6000615e59615e5483615e97565b615c41565b9050919050565b6000819050919050565bfe5b6000601f19601f8301169050919050565b60008160001c9050919050565b60008160a01c9050919050565b60008160201c9050919050565b615ead81615c9c565b8114615eb857600080fd5b50565b615ec481615cae565b8114615ecf57600080fd5b50565b615edb81615cba565b8114615ee657600080fd5b50565b615ef281615cc4565b8114615efd57600080fd5b50565b615f0981615cd6565b8114615f1457600080fd5b50565b615f2081615ce3565b8114615f2b57600080fd5b50565b615f3781615d11565b8114615f4257600080fd5b50565b615f4e81615d1b565b8114615f5957600080fd5b50565b615f6581615d2b565b8114615f7057600080fd5b50565b615f7c81615d3f565b8114615f8757600080fd5b5056fea26469706673582212207ba5628166e836ef98042586b33a9a4f02f72e2b5fad67fe7936319c7d14a7e364736f6c63430007060033",
  "immutableReferences": {},
  "source": "// SPDX-License-Identifier: MIT\n// Bridge between ethereum and verus\n\npragma solidity >=0.6.0 <0.9.0;\npragma experimental ABIEncoderV2;\n\nimport \"../Libraries/VerusObjects.sol\";\nimport \"../Libraries/VerusObjectsCommon.sol\";\nimport \"../Libraries/VerusConstants.sol\";\nimport \"./TokenManager.sol\";\nimport \"../MMR/VerusProof.sol\";\nimport \"./Token.sol\";\nimport \"./VerusSerializer.sol\";\nimport \"../VerusNotarizer/VerusNotarizer.sol\";\nimport \"./VerusCrossChainExport.sol\";\n\ncontract VerusBridge {\n\n    //list of erc20 tokens that can be accessed,\n    //the contract must be able to mint and burn coins on the contract\n    //defines the tokenManager which creates the erc20\n    TokenManager tokenManager;\n    VerusSerializer verusSerializer;\n    VerusProof verusProof;\n    VerusNotarizer verusNotarizer;\n    VerusCrossChainExport verusCCE;\n\n    //THE CONTRACT OWNER NEEDS TO BE REPLACED BY A SET OF NOTARIES\n    address contractOwner;\n    bool public deprecated = false; //indicates if the cotnract is deprecated\n    address public upgradedAddress;\n    uint256 public feesHeld = 0;\n    uint256 public ethHeld = 0;\n    uint256 public poolSize = 0;\n    uint public firstBlock = 0;\n\n    //used to prove the transfers the index of this corresponds to the index of the \n    bytes32[] public readyExportHashes;\n    //DO NOT ADD ANY VARIABLES ABOVE THIS POINT\n    //used to store a list of currencies and an amount\n    VerusObjects.CReserveTransfer[] private _pendingExports;\n    \n    //stores the blockheight of each pending transfer\n    //the export set holds the summary of a set of exports\n    VerusObjects.CReserveTransfer[][] public _readyExports;\n    \n    //stores the index corresponds to the block\n    VerusObjects.LastImport public lastimport;\n    mapping(bytes32 => bool) public processedTxids;\n    mapping (uint => VerusObjects.blockCreated) public readyExportsByBlock;\n    mapping (address => uint256) public claimableFees;\n\n    uint public lastTxidimport;\n    \n    \n    event Deprecate(address newAddress);\n    \n    constructor(address verusProofAddress,\n        address tokenManagerAddress,\n        address verusSerializerAddress,\n        address verusNotarizerAddress,\n        address verusCCEAddress,\n        uint256 _poolSize) public {\n        contractOwner = msg.sender; \n        verusProof =  VerusProof(verusProofAddress);\n        tokenManager = TokenManager(tokenManagerAddress);\n        verusSerializer = VerusSerializer(verusSerializerAddress);\n        verusNotarizer = VerusNotarizer(verusNotarizerAddress);\n        verusCCE = VerusCrossChainExport(verusCCEAddress);\n        poolSize = _poolSize;\n        lastimport.height = 0;\n        lastimport.txid = 0x00000000000000000000000000000000;\n    }\n\n    function isPoolAvailable(uint256 _feesAmount,address _feeCurrencyID) private view returns(bool){\n\n        if(0 < verusNotarizer.poolAvailable(VerusConstants.VerusBridgeAddress) &&\n            verusNotarizer.poolAvailable(VerusConstants.VerusBridgeAddress) < uint32(block.number)) {\n            //the bridge has been activated\n            return false;\n        } else {\n            assert(_feeCurrencyID == VerusConstants.VerusCurrencyId);\n            assert(poolSize >= _feesAmount);\n            return true;\n        }\n    }\n\n    function convertFromVerusNumber(uint256 a,uint8 decimals) public pure returns (uint256) {\n         uint8 power = 10; //default value for 18\n         uint256 c = a;\n        if(decimals > 8 ) {\n            power = decimals - 8;// number of decimals in verus\n            c = a * (10 ** power);\n        }else if(decimals < 8){\n            power = 8 - decimals;// number of decimals in verus\n            c = a / (10 ** power);\n        }\n      \n        return c;\n    }\n\n    function convertToVerusNumber(uint256 a,uint8 decimals) public pure returns (uint256) {\n         uint8 power = 10; //default value for 18\n         uint256 c = a;\n        if(decimals > 8 ) {\n            power = decimals - 8;// number of decimals in verus\n            c = a / (10 ** power);\n        }else if(decimals < 8){\n            power = 8 - decimals;// number of decimals in verus\n            c = a * (10 ** power);\n        }\n      \n        return c;\n    }\n \n    function export(VerusObjects.CReserveTransfer memory transfer) public payable{\n        \n        assert(!deprecated);\n        uint256 verusFees = VerusConstants.verusTransactionFee;\n\n        //TODO: We cant mix differnt transfer destinations together in the CCE assert on non same fields.\n        if (readyExportsByBlock[block.number].created)\n        {\n           uint exportIndex = readyExportsByBlock[block.number].index;\n           assert( _readyExports[exportIndex][0].destcurrencyid == transfer.destcurrencyid);\n        }\n\n        //if there is fees in the pool spend those and not the amount that\n        if (isPoolAvailable(transfer.fees,transfer.feecurrencyid)) {\n            poolSize -= VerusConstants.verusTransactionFee;\n        } else {\n            //if fees are being paid in verustest we need to take it from the msg sender\n            require(transfer.feecurrencyid == VerusConstants.VerusCurrencyId || transfer.feecurrencyid == VerusConstants.VEth,\"incorrect fee currency\");\n            if (transfer.feecurrencyid == VerusConstants.VerusCurrencyId) {\n                \n                //burn the required amount of vrsctest from the user\n                Token token = tokenManager.getTokenERC20(transfer.feecurrencyid);\n                uint256 VRSTallowedTokens = token.allowance(msg.sender,address(this));\n                require( VRSTallowedTokens >= convertFromVerusNumber(verusFees,18), \"not enough vrsc tokens in users balance\");\n                token.transferFrom(msg.sender,address(this), convertFromVerusNumber(verusFees,18)); \n                //transfer the tokens to this contract\n                token.burn(verusFees); \n            \n            } else if (transfer.feecurrencyid == VerusConstants.VEth){\n                require(msg.value >= (VerusConstants.transactionFee * 3) + convertFromVerusNumber(transfer.fees,18), \"Desposit to small to cover fees\");    \n            }\n            //if the fees are being paid in veth then require the user to send it\n            //fees need to be paid for verus as well\n        }\n\n        if (transfer.currencyvalue.currency != VerusConstants.VEth){\n            //check there are enough fees sent\n            feesHeld += msg.value;\n            //check that the token is registered\n            Token token = tokenManager.getTokenERC20(transfer.currencyvalue.currency);\n            uint256 allowedTokens = token.allowance(msg.sender,address(this));\n            uint256 tokenAmount = convertFromVerusNumber(transfer.currencyvalue.amount,token.decimals()); //convert to wei from verus satoshis\n            require( allowedTokens >= tokenAmount, \"Not enough allowed tokens\");\n            //transfer the tokens to this contract\n            token.transferFrom(msg.sender,address(this),tokenAmount); \n            token.approve(address(tokenManager),tokenAmount);\n            //give an approval for the tokenmanagerinstance to spend the tokens\n            tokenManager.exportERC20Tokens(address(token), tokenAmount);  //total amount kept as wei until export to verus\n        } else {\n            //handle a vEth transfer\n            transfer.currencyvalue.amount = uint64(convertToVerusNumber(msg.value - VerusConstants.transactionFee,18));\n            ethHeld += transfer.currencyvalue.amount;  \n            feesHeld += VerusConstants.transactionFee;\n        }\n        _createExports(transfer);\n    }\n\n    function _createExports(VerusObjects.CReserveTransfer memory newTransaction) private {\n        uint currentHeight = block.number;\n        uint exportIndex;\n        bool newHash;\n\n        //check if the current block height has a set of transfers associated with it if so add to the existing array\n        if (readyExportsByBlock[currentHeight].created) {\n            //append to an existing array of transfers\n            exportIndex = readyExportsByBlock[currentHeight].index;\n            _readyExports[exportIndex].push(newTransaction);\n            newHash = false;\n        }\n        else {\n            _pendingExports.push(newTransaction);\n            _readyExports.push(_pendingExports);\n            exportIndex = _readyExports.length - 1;\n            readyExportsByBlock[currentHeight] = VerusObjects.blockCreated(exportIndex,true);\n            delete _pendingExports;\n            newHash = true;\n        }\n       \n         bool bridgeReady =   (0 < verusNotarizer.poolAvailable(VerusConstants.VerusBridgeAddress) &&\n            verusNotarizer.poolAvailable(VerusConstants.VerusBridgeAddress) < uint32(block.number));\n\n        bytes memory serializedCCE = verusSerializer.serializeCCrossChainExport(verusCCE.generateCCE(_readyExports[exportIndex],bridgeReady));\n\n        bytes32 hashedCCE;\n        bytes32 lastProofRoot;  \n        if (exportIndex != 0) {\n            lastProofRoot = readyExportHashes[exportIndex -1];\n        } else {\n            lastProofRoot = 0;\n        }\n        \n        hashedCCE = keccak256(abi.encodePacked(serializedCCE,lastProofRoot));\n        \n        //add the hashed value\n        if(newHash) {\n            readyExportHashes.push(hashedCCE);\n        } else {\n            readyExportHashes[exportIndex] = hashedCCE;\n        }\n        \n        if(firstBlock == 0) {\n            firstBlock = currentHeight;\n        }\n        \n    }\n\n    function getlastimportheight() public view returns(uint) {\n        return lastTxidimport;\n    }\n    /***\n     * Import from Verus functions\n     ***/\n      function checkImports(bytes32[] memory _imports) public view returns(bytes32[] memory) {\n        //loop through the transfers and return a list of unprocessed\n        bytes32[] memory txidList = new bytes32[](_imports.length);\n        uint iterator;\n        for(uint i = 0; i < _imports.length; i++){\n            if(processedTxids[_imports[i]] != true){\n                txidList[iterator] = _imports[i];\n                iterator++;\n            }\n        }\n        return txidList;\n    }\n\n    function submitImports(VerusObjects.CReserveTransferImport[] memory _imports) public {\n        //loop through the transfers and process\n        for(uint i = 0; i < _imports.length; i++){\n           _createImports(_imports[i]);\n        }\n    }\n\n    function bytesToAddress(bytes memory bys) private pure returns (address addr) {\n    assembly {\n      addr := mload(add(bys,20))\n    } \n}\n\n    function _createImports(VerusObjects.CReserveTransferImport memory _import) public returns(bool){\n\n        if(processedTxids[_import.txid] == true) return false; \n        bytes32 txidfound;\n        bytes memory sliced = _import.partialtransactionproof.components[0].elVchObj;\n        assembly {\n            txidfound := mload(add(sliced, 32))\n        }\n        assert(_import.txid == txidfound); //the txid should be present in the header\n        bool proved = verusProof.proveImports(_import);\n        assert(proved);\n        processedTxids[_import.txid] = true;\n        if(lastTxidimport < _import.height)\n            lastTxidimport = _import.height;\n        uint256 amount;\n        //check the transfers were in the hash.\n        for(uint i = 0; i < _import.transfers.length; i++){\n            //handle eth transactions\n            amount = convertFromVerusNumber(uint256(_import.transfers[i].currencyvalue.amount),18);\n            if(_import.transfers[i].currencyvalue.currency == VerusConstants.VEth) {\n                //cast the destination as an ethAddress\n                    assert(amount <= address(this).balance);\n                    sendEth(amount,payable(bytesToAddress(_import.transfers[i].destination.destinationaddress)));\n                    ethHeld -= amount;\n        \n           } else {\n                //handle erc20 transactions  \n                //amount convesrion is handled in token manager\n                tokenManager.importERC20Tokens(_import.transfers[i].currencyvalue.currency,\n                    _import.transfers[i].currencyvalue.amount,\n                    bytesToAddress(_import.transfers[i].destination.destinationaddress));\n           }\n            //handle the distributions of the fees\n            //add them into the fees array to be claimed by the message sender\n            if(_import.transfers[i].fees > 0 && _import.transfers[i].feecurrencyid == VerusConstants.VEth){\n                claimableFees[msg.sender] = claimableFees[msg.sender] + _import.transfers[i].fees;\n            }\n        }\n        return true;\n    }\n    \n    function getReadyExportsByBlock(uint _blockNumber) public view returns(VerusObjects.CReserveTransferSet memory){\n        //need a transferset for each position not each block\n        //retrieve a block get the indexes, create a transfer set for each index add those to the array\n        uint eIndex = readyExportsByBlock[_blockNumber].index;\n        VerusObjects.CReserveTransferSet memory output = VerusObjects.CReserveTransferSet(\n            eIndex, //position in array\n            _blockNumber, //blockHeight\n            //readyExportHashes[eIndex],\n            //DO WE NEED TO DO THIS\n            readyExportHashes[eIndex],\n            _readyExports[eIndex]\n        );\n        return output;\n    }\n\n    function getReadyExportsByRange(uint _startBlock,uint _endBlock) public view returns(VerusObjects.CReserveTransferSet[] memory){\n        //calculate the size that the return array will be to initialise it\n        uint outputSize = 0;\n        if(_startBlock < firstBlock) _startBlock = firstBlock;\n        for(uint i = _startBlock; i <= _endBlock; i++){\n            if(readyExportsByBlock[i].created) outputSize += 1;\n        }\n\n        VerusObjects.CReserveTransferSet[] memory output = new VerusObjects.CReserveTransferSet[](outputSize);\n        uint outputPosition = 0;\n        for(uint blockNumber = _startBlock;blockNumber <= _endBlock;blockNumber++){\n            if(readyExportsByBlock[blockNumber].created) {\n                output[outputPosition] = getReadyExportsByBlock(blockNumber);\n                outputPosition++;\n            }\n        }\n        return output;        \n    }\n \n    function sendEth(uint256 _ethAmount,address payable _ethAddress) private {\n        assert(!deprecated);\n        //do we take fees here????\n        \n        _ethAddress.transfer(_ethAmount);\n    }\n   \n    function claimFees() public returns(uint256){\n        assert(!deprecated);\n        if(claimableFees[msg.sender] > 0 ){\n            sendEth(claimableFees[msg.sender],msg.sender);\n        }\n        return claimableFees[msg.sender];\n\n    }\n/*\n    function deprecate(address _upgradedAddress,bytes32 _addressHash,uint8[] memory _vs,bytes32[] memory _rs,bytes32[] memory _ss) public{\n        if(verusNotarizer.notarizedDeprecation(_upgradedAddress, _addressHash, _vs, _rs, _ss)){\n            deprecated = true;\n            upgradedAddress = _upgradedAddress;\n            Deprecate(_upgradedAddress);\n        }\n    }\n*/\n\n}\n",
  "sourcePath": "/home/chris/Verus-Ethereum-contracts/contracts/VerusBridge/VerusBridge.sol",
  "compiler": {
    "name": "solc",
    "version": "0.7.6+commit.7338295f.Emscripten.clang"
  },
  "schemaVersion": "3.4.4",
  "updatedAt": "2022-02-04T09:51:56.160Z",
  "networkType": "ethereum",
  "devdoc": {
    "kind": "dev",
    "methods": {},
    "version": 1
  },
  "userdoc": {
    "kind": "user",
    "methods": {},
    "version": 1
  }
}