{
  "contractName": "VerusProof",
  "abi": [
    {
      "inputs": [
        {
          "internalType": "address",
          "name": "notarizerAddress",
          "type": "address"
        },
        {
          "internalType": "address",
          "name": "verusBLAKE2b",
          "type": "address"
        },
        {
          "internalType": "address",
          "name": "verusSerializerAddress",
          "type": "address"
        }
      ],
      "stateMutability": "nonpayable",
      "type": "constructor"
    },
    {
      "anonymous": false,
      "inputs": [
        {
          "indexed": false,
          "internalType": "bytes32",
          "name": "newHash",
          "type": "bytes32"
        },
        {
          "indexed": false,
          "internalType": "uint8",
          "name": "eventType",
          "type": "uint8"
        }
      ],
      "name": "HashEvent",
      "type": "event"
    },
    {
      "inputs": [
        {
          "internalType": "uint256",
          "name": "",
          "type": "uint256"
        }
      ],
      "name": "computedValues",
      "outputs": [
        {
          "internalType": "bytes32",
          "name": "",
          "type": "bytes32"
        }
      ],
      "stateMutability": "view",
      "type": "function",
      "constant": true
    },
    {
      "inputs": [],
      "name": "testHashedTransfers",
      "outputs": [
        {
          "internalType": "bytes32",
          "name": "",
          "type": "bytes32"
        }
      ],
      "stateMutability": "view",
      "type": "function",
      "constant": true
    },
    {
      "inputs": [],
      "name": "testResult",
      "outputs": [
        {
          "internalType": "bool",
          "name": "",
          "type": "bool"
        }
      ],
      "stateMutability": "view",
      "type": "function",
      "constant": true
    },
    {
      "inputs": [],
      "name": "testTransfers",
      "outputs": [
        {
          "internalType": "bytes",
          "name": "",
          "type": "bytes"
        }
      ],
      "stateMutability": "view",
      "type": "function",
      "constant": true
    },
    {
      "inputs": [],
      "name": "txValue",
      "outputs": [
        {
          "internalType": "bytes32",
          "name": "",
          "type": "bytes32"
        }
      ],
      "stateMutability": "view",
      "type": "function",
      "constant": true
    },
    {
      "inputs": [
        {
          "components": [
            {
              "internalType": "uint32",
              "name": "version",
              "type": "uint32"
            },
            {
              "components": [
                {
                  "internalType": "address",
                  "name": "currency",
                  "type": "address"
                },
                {
                  "internalType": "uint64",
                  "name": "amount",
                  "type": "uint64"
                }
              ],
              "internalType": "struct VerusObjects.CCurrencyValueMap",
              "name": "currencyvalue",
              "type": "tuple"
            },
            {
              "internalType": "uint32",
              "name": "flags",
              "type": "uint32"
            },
            {
              "internalType": "address",
              "name": "feecurrencyid",
              "type": "address"
            },
            {
              "internalType": "uint256",
              "name": "fees",
              "type": "uint256"
            },
            {
              "components": [
                {
                  "internalType": "uint8",
                  "name": "destinationtype",
                  "type": "uint8"
                },
                {
                  "internalType": "bytes",
                  "name": "destinationaddress",
                  "type": "bytes"
                }
              ],
              "internalType": "struct VerusObjectsCommon.CTransferDestination",
              "name": "destination",
              "type": "tuple"
            },
            {
              "internalType": "address",
              "name": "destcurrencyid",
              "type": "address"
            },
            {
              "internalType": "address",
              "name": "destsystemid",
              "type": "address"
            },
            {
              "internalType": "address",
              "name": "secondreserveid",
              "type": "address"
            }
          ],
          "internalType": "struct VerusObjects.CReserveTransfer[]",
          "name": "_transfers",
          "type": "tuple[]"
        }
      ],
      "name": "hashTransfers",
      "outputs": [
        {
          "internalType": "bytes32",
          "name": "",
          "type": "bytes32"
        }
      ],
      "stateMutability": "view",
      "type": "function",
      "constant": true
    },
    {
      "inputs": [
        {
          "internalType": "bytes32",
          "name": "hashToProve",
          "type": "bytes32"
        },
        {
          "components": [
            {
              "internalType": "uint8",
              "name": "branchType",
              "type": "uint8"
            },
            {
              "components": [
                {
                  "internalType": "uint8",
                  "name": "CMerkleBranchBase",
                  "type": "uint8"
                },
                {
                  "internalType": "uint32",
                  "name": "nIndex",
                  "type": "uint32"
                },
                {
                  "internalType": "uint32",
                  "name": "nSize",
                  "type": "uint32"
                },
                {
                  "internalType": "bytes32[]",
                  "name": "branch",
                  "type": "bytes32[]"
                }
              ],
              "internalType": "struct VerusObjects.CMerkleBranch",
              "name": "proofSequence",
              "type": "tuple"
            }
          ],
          "internalType": "struct VerusObjects.CTXProof[]",
          "name": "_branches",
          "type": "tuple[]"
        }
      ],
      "name": "checkProof",
      "outputs": [
        {
          "internalType": "bytes32",
          "name": "",
          "type": "bytes32"
        }
      ],
      "stateMutability": "view",
      "type": "function",
      "constant": true
    },
    {
      "inputs": [
        {
          "internalType": "bytes32",
          "name": "_hashToCheck",
          "type": "bytes32"
        },
        {
          "components": [
            {
              "internalType": "uint8",
              "name": "CMerkleBranchBase",
              "type": "uint8"
            },
            {
              "internalType": "uint32",
              "name": "nIndex",
              "type": "uint32"
            },
            {
              "internalType": "uint32",
              "name": "nSize",
              "type": "uint32"
            },
            {
              "internalType": "bytes32[]",
              "name": "branch",
              "type": "bytes32[]"
            }
          ],
          "internalType": "struct VerusObjects.CMerkleBranch",
          "name": "_branch",
          "type": "tuple"
        }
      ],
      "name": "checkBranch",
      "outputs": [
        {
          "internalType": "bytes32",
          "name": "",
          "type": "bytes32"
        }
      ],
      "stateMutability": "view",
      "type": "function",
      "constant": true
    },
    {
      "inputs": [
        {
          "components": [
            {
              "internalType": "uint256",
              "name": "height",
              "type": "uint256"
            },
            {
              "internalType": "bytes32",
              "name": "txid",
              "type": "bytes32"
            },
            {
              "internalType": "uint256",
              "name": "txoutnum",
              "type": "uint256"
            },
            {
              "components": [
                {
                  "internalType": "uint16",
                  "name": "version",
                  "type": "uint16"
                },
                {
                  "internalType": "uint16",
                  "name": "flags",
                  "type": "uint16"
                },
                {
                  "internalType": "address",
                  "name": "sourcesystemid",
                  "type": "address"
                },
                {
                  "internalType": "bytes32",
                  "name": "hashtransfers",
                  "type": "bytes32"
                },
                {
                  "internalType": "uint32",
                  "name": "sourceheightstart",
                  "type": "uint32"
                },
                {
                  "internalType": "uint32",
                  "name": "sourceheightend",
                  "type": "uint32"
                },
                {
                  "internalType": "address",
                  "name": "destinationsystemid",
                  "type": "address"
                },
                {
                  "internalType": "address",
                  "name": "destinationcurrencyid",
                  "type": "address"
                },
                {
                  "internalType": "uint32",
                  "name": "numinputs",
                  "type": "uint32"
                },
                {
                  "components": [
                    {
                      "internalType": "address",
                      "name": "currency",
                      "type": "address"
                    },
                    {
                      "internalType": "uint64",
                      "name": "amount",
                      "type": "uint64"
                    }
                  ],
                  "internalType": "struct VerusObjects.CCurrencyValueMap[]",
                  "name": "totalamounts",
                  "type": "tuple[]"
                },
                {
                  "components": [
                    {
                      "internalType": "address",
                      "name": "currency",
                      "type": "address"
                    },
                    {
                      "internalType": "uint64",
                      "name": "amount",
                      "type": "uint64"
                    }
                  ],
                  "internalType": "struct VerusObjects.CCurrencyValueMap[]",
                  "name": "totalfees",
                  "type": "tuple[]"
                },
                {
                  "components": [
                    {
                      "internalType": "address",
                      "name": "currency",
                      "type": "address"
                    },
                    {
                      "internalType": "uint64",
                      "name": "amount",
                      "type": "uint64"
                    }
                  ],
                  "internalType": "struct VerusObjects.CCurrencyValueMap[]",
                  "name": "totalburned",
                  "type": "tuple[]"
                },
                {
                  "components": [
                    {
                      "internalType": "uint8",
                      "name": "destinationtype",
                      "type": "uint8"
                    },
                    {
                      "internalType": "bytes",
                      "name": "destinationaddress",
                      "type": "bytes"
                    }
                  ],
                  "internalType": "struct VerusObjectsCommon.CTransferDestination",
                  "name": "rewardaddress",
                  "type": "tuple"
                },
                {
                  "internalType": "int32",
                  "name": "firstinput",
                  "type": "int32"
                }
              ],
              "internalType": "struct VerusObjects.CCrossChainExport",
              "name": "exportinfo",
              "type": "tuple"
            },
            {
              "components": [
                {
                  "internalType": "uint8",
                  "name": "version",
                  "type": "uint8"
                },
                {
                  "internalType": "uint8",
                  "name": "typeC",
                  "type": "uint8"
                },
                {
                  "components": [
                    {
                      "internalType": "uint8",
                      "name": "branchType",
                      "type": "uint8"
                    },
                    {
                      "components": [
                        {
                          "internalType": "uint8",
                          "name": "CMerkleBranchBase",
                          "type": "uint8"
                        },
                        {
                          "internalType": "uint32",
                          "name": "nIndex",
                          "type": "uint32"
                        },
                        {
                          "internalType": "uint32",
                          "name": "nSize",
                          "type": "uint32"
                        },
                        {
                          "internalType": "bytes32[]",
                          "name": "branch",
                          "type": "bytes32[]"
                        }
                      ],
                      "internalType": "struct VerusObjects.CMerkleBranch",
                      "name": "proofSequence",
                      "type": "tuple"
                    }
                  ],
                  "internalType": "struct VerusObjects.CTXProof[]",
                  "name": "txproof",
                  "type": "tuple[]"
                },
                {
                  "components": [
                    {
                      "internalType": "uint8",
                      "name": "elType",
                      "type": "uint8"
                    },
                    {
                      "internalType": "uint8",
                      "name": "elIdx",
                      "type": "uint8"
                    },
                    {
                      "internalType": "bytes",
                      "name": "elVchObj",
                      "type": "bytes"
                    },
                    {
                      "components": [
                        {
                          "internalType": "uint8",
                          "name": "branchType",
                          "type": "uint8"
                        },
                        {
                          "components": [
                            {
                              "internalType": "uint8",
                              "name": "CMerkleBranchBase",
                              "type": "uint8"
                            },
                            {
                              "internalType": "uint32",
                              "name": "nIndex",
                              "type": "uint32"
                            },
                            {
                              "internalType": "uint32",
                              "name": "nSize",
                              "type": "uint32"
                            },
                            {
                              "internalType": "bytes32[]",
                              "name": "branch",
                              "type": "bytes32[]"
                            }
                          ],
                          "internalType": "struct VerusObjects.CMerkleBranch",
                          "name": "proofSequence",
                          "type": "tuple"
                        }
                      ],
                      "internalType": "struct VerusObjects.CTXProof[]",
                      "name": "elProof",
                      "type": "tuple[]"
                    }
                  ],
                  "internalType": "struct VerusObjects.CComponents[]",
                  "name": "components",
                  "type": "tuple[]"
                }
              ],
              "internalType": "struct VerusObjects.CPtransactionproof",
              "name": "partialtransactionproof",
              "type": "tuple"
            },
            {
              "components": [
                {
                  "internalType": "uint32",
                  "name": "version",
                  "type": "uint32"
                },
                {
                  "components": [
                    {
                      "internalType": "address",
                      "name": "currency",
                      "type": "address"
                    },
                    {
                      "internalType": "uint64",
                      "name": "amount",
                      "type": "uint64"
                    }
                  ],
                  "internalType": "struct VerusObjects.CCurrencyValueMap",
                  "name": "currencyvalue",
                  "type": "tuple"
                },
                {
                  "internalType": "uint32",
                  "name": "flags",
                  "type": "uint32"
                },
                {
                  "internalType": "address",
                  "name": "feecurrencyid",
                  "type": "address"
                },
                {
                  "internalType": "uint256",
                  "name": "fees",
                  "type": "uint256"
                },
                {
                  "components": [
                    {
                      "internalType": "uint8",
                      "name": "destinationtype",
                      "type": "uint8"
                    },
                    {
                      "internalType": "bytes",
                      "name": "destinationaddress",
                      "type": "bytes"
                    }
                  ],
                  "internalType": "struct VerusObjectsCommon.CTransferDestination",
                  "name": "destination",
                  "type": "tuple"
                },
                {
                  "internalType": "address",
                  "name": "destcurrencyid",
                  "type": "address"
                },
                {
                  "internalType": "address",
                  "name": "destsystemid",
                  "type": "address"
                },
                {
                  "internalType": "address",
                  "name": "secondreserveid",
                  "type": "address"
                }
              ],
              "internalType": "struct VerusObjects.CReserveTransfer[]",
              "name": "transfers",
              "type": "tuple[]"
            }
          ],
          "internalType": "struct VerusObjects.CReserveTransferImport",
          "name": "_import",
          "type": "tuple"
        }
      ],
      "name": "checkTransfers",
      "outputs": [
        {
          "internalType": "bool",
          "name": "",
          "type": "bool"
        }
      ],
      "stateMutability": "view",
      "type": "function",
      "constant": true
    },
    {
      "inputs": [
        {
          "components": [
            {
              "internalType": "uint256",
              "name": "height",
              "type": "uint256"
            },
            {
              "internalType": "bytes32",
              "name": "txid",
              "type": "bytes32"
            },
            {
              "internalType": "uint256",
              "name": "txoutnum",
              "type": "uint256"
            },
            {
              "components": [
                {
                  "internalType": "uint16",
                  "name": "version",
                  "type": "uint16"
                },
                {
                  "internalType": "uint16",
                  "name": "flags",
                  "type": "uint16"
                },
                {
                  "internalType": "address",
                  "name": "sourcesystemid",
                  "type": "address"
                },
                {
                  "internalType": "bytes32",
                  "name": "hashtransfers",
                  "type": "bytes32"
                },
                {
                  "internalType": "uint32",
                  "name": "sourceheightstart",
                  "type": "uint32"
                },
                {
                  "internalType": "uint32",
                  "name": "sourceheightend",
                  "type": "uint32"
                },
                {
                  "internalType": "address",
                  "name": "destinationsystemid",
                  "type": "address"
                },
                {
                  "internalType": "address",
                  "name": "destinationcurrencyid",
                  "type": "address"
                },
                {
                  "internalType": "uint32",
                  "name": "numinputs",
                  "type": "uint32"
                },
                {
                  "components": [
                    {
                      "internalType": "address",
                      "name": "currency",
                      "type": "address"
                    },
                    {
                      "internalType": "uint64",
                      "name": "amount",
                      "type": "uint64"
                    }
                  ],
                  "internalType": "struct VerusObjects.CCurrencyValueMap[]",
                  "name": "totalamounts",
                  "type": "tuple[]"
                },
                {
                  "components": [
                    {
                      "internalType": "address",
                      "name": "currency",
                      "type": "address"
                    },
                    {
                      "internalType": "uint64",
                      "name": "amount",
                      "type": "uint64"
                    }
                  ],
                  "internalType": "struct VerusObjects.CCurrencyValueMap[]",
                  "name": "totalfees",
                  "type": "tuple[]"
                },
                {
                  "components": [
                    {
                      "internalType": "address",
                      "name": "currency",
                      "type": "address"
                    },
                    {
                      "internalType": "uint64",
                      "name": "amount",
                      "type": "uint64"
                    }
                  ],
                  "internalType": "struct VerusObjects.CCurrencyValueMap[]",
                  "name": "totalburned",
                  "type": "tuple[]"
                },
                {
                  "components": [
                    {
                      "internalType": "uint8",
                      "name": "destinationtype",
                      "type": "uint8"
                    },
                    {
                      "internalType": "bytes",
                      "name": "destinationaddress",
                      "type": "bytes"
                    }
                  ],
                  "internalType": "struct VerusObjectsCommon.CTransferDestination",
                  "name": "rewardaddress",
                  "type": "tuple"
                },
                {
                  "internalType": "int32",
                  "name": "firstinput",
                  "type": "int32"
                }
              ],
              "internalType": "struct VerusObjects.CCrossChainExport",
              "name": "exportinfo",
              "type": "tuple"
            },
            {
              "components": [
                {
                  "internalType": "uint8",
                  "name": "version",
                  "type": "uint8"
                },
                {
                  "internalType": "uint8",
                  "name": "typeC",
                  "type": "uint8"
                },
                {
                  "components": [
                    {
                      "internalType": "uint8",
                      "name": "branchType",
                      "type": "uint8"
                    },
                    {
                      "components": [
                        {
                          "internalType": "uint8",
                          "name": "CMerkleBranchBase",
                          "type": "uint8"
                        },
                        {
                          "internalType": "uint32",
                          "name": "nIndex",
                          "type": "uint32"
                        },
                        {
                          "internalType": "uint32",
                          "name": "nSize",
                          "type": "uint32"
                        },
                        {
                          "internalType": "bytes32[]",
                          "name": "branch",
                          "type": "bytes32[]"
                        }
                      ],
                      "internalType": "struct VerusObjects.CMerkleBranch",
                      "name": "proofSequence",
                      "type": "tuple"
                    }
                  ],
                  "internalType": "struct VerusObjects.CTXProof[]",
                  "name": "txproof",
                  "type": "tuple[]"
                },
                {
                  "components": [
                    {
                      "internalType": "uint8",
                      "name": "elType",
                      "type": "uint8"
                    },
                    {
                      "internalType": "uint8",
                      "name": "elIdx",
                      "type": "uint8"
                    },
                    {
                      "internalType": "bytes",
                      "name": "elVchObj",
                      "type": "bytes"
                    },
                    {
                      "components": [
                        {
                          "internalType": "uint8",
                          "name": "branchType",
                          "type": "uint8"
                        },
                        {
                          "components": [
                            {
                              "internalType": "uint8",
                              "name": "CMerkleBranchBase",
                              "type": "uint8"
                            },
                            {
                              "internalType": "uint32",
                              "name": "nIndex",
                              "type": "uint32"
                            },
                            {
                              "internalType": "uint32",
                              "name": "nSize",
                              "type": "uint32"
                            },
                            {
                              "internalType": "bytes32[]",
                              "name": "branch",
                              "type": "bytes32[]"
                            }
                          ],
                          "internalType": "struct VerusObjects.CMerkleBranch",
                          "name": "proofSequence",
                          "type": "tuple"
                        }
                      ],
                      "internalType": "struct VerusObjects.CTXProof[]",
                      "name": "elProof",
                      "type": "tuple[]"
                    }
                  ],
                  "internalType": "struct VerusObjects.CComponents[]",
                  "name": "components",
                  "type": "tuple[]"
                }
              ],
              "internalType": "struct VerusObjects.CPtransactionproof",
              "name": "partialtransactionproof",
              "type": "tuple"
            },
            {
              "components": [
                {
                  "internalType": "uint32",
                  "name": "version",
                  "type": "uint32"
                },
                {
                  "components": [
                    {
                      "internalType": "address",
                      "name": "currency",
                      "type": "address"
                    },
                    {
                      "internalType": "uint64",
                      "name": "amount",
                      "type": "uint64"
                    }
                  ],
                  "internalType": "struct VerusObjects.CCurrencyValueMap",
                  "name": "currencyvalue",
                  "type": "tuple"
                },
                {
                  "internalType": "uint32",
                  "name": "flags",
                  "type": "uint32"
                },
                {
                  "internalType": "address",
                  "name": "feecurrencyid",
                  "type": "address"
                },
                {
                  "internalType": "uint256",
                  "name": "fees",
                  "type": "uint256"
                },
                {
                  "components": [
                    {
                      "internalType": "uint8",
                      "name": "destinationtype",
                      "type": "uint8"
                    },
                    {
                      "internalType": "bytes",
                      "name": "destinationaddress",
                      "type": "bytes"
                    }
                  ],
                  "internalType": "struct VerusObjectsCommon.CTransferDestination",
                  "name": "destination",
                  "type": "tuple"
                },
                {
                  "internalType": "address",
                  "name": "destcurrencyid",
                  "type": "address"
                },
                {
                  "internalType": "address",
                  "name": "destsystemid",
                  "type": "address"
                },
                {
                  "internalType": "address",
                  "name": "secondreserveid",
                  "type": "address"
                }
              ],
              "internalType": "struct VerusObjects.CReserveTransfer[]",
              "name": "transfers",
              "type": "tuple[]"
            }
          ],
          "internalType": "struct VerusObjects.CReserveTransferImport",
          "name": "_import",
          "type": "tuple"
        }
      ],
      "name": "proveComponents",
      "outputs": [
        {
          "internalType": "bytes32",
          "name": "txRoot",
          "type": "bytes32"
        }
      ],
      "stateMutability": "view",
      "type": "function",
      "constant": true
    },
    {
      "inputs": [
        {
          "components": [
            {
              "internalType": "uint256",
              "name": "height",
              "type": "uint256"
            },
            {
              "internalType": "bytes32",
              "name": "txid",
              "type": "bytes32"
            },
            {
              "internalType": "uint256",
              "name": "txoutnum",
              "type": "uint256"
            },
            {
              "components": [
                {
                  "internalType": "uint16",
                  "name": "version",
                  "type": "uint16"
                },
                {
                  "internalType": "uint16",
                  "name": "flags",
                  "type": "uint16"
                },
                {
                  "internalType": "address",
                  "name": "sourcesystemid",
                  "type": "address"
                },
                {
                  "internalType": "bytes32",
                  "name": "hashtransfers",
                  "type": "bytes32"
                },
                {
                  "internalType": "uint32",
                  "name": "sourceheightstart",
                  "type": "uint32"
                },
                {
                  "internalType": "uint32",
                  "name": "sourceheightend",
                  "type": "uint32"
                },
                {
                  "internalType": "address",
                  "name": "destinationsystemid",
                  "type": "address"
                },
                {
                  "internalType": "address",
                  "name": "destinationcurrencyid",
                  "type": "address"
                },
                {
                  "internalType": "uint32",
                  "name": "numinputs",
                  "type": "uint32"
                },
                {
                  "components": [
                    {
                      "internalType": "address",
                      "name": "currency",
                      "type": "address"
                    },
                    {
                      "internalType": "uint64",
                      "name": "amount",
                      "type": "uint64"
                    }
                  ],
                  "internalType": "struct VerusObjects.CCurrencyValueMap[]",
                  "name": "totalamounts",
                  "type": "tuple[]"
                },
                {
                  "components": [
                    {
                      "internalType": "address",
                      "name": "currency",
                      "type": "address"
                    },
                    {
                      "internalType": "uint64",
                      "name": "amount",
                      "type": "uint64"
                    }
                  ],
                  "internalType": "struct VerusObjects.CCurrencyValueMap[]",
                  "name": "totalfees",
                  "type": "tuple[]"
                },
                {
                  "components": [
                    {
                      "internalType": "address",
                      "name": "currency",
                      "type": "address"
                    },
                    {
                      "internalType": "uint64",
                      "name": "amount",
                      "type": "uint64"
                    }
                  ],
                  "internalType": "struct VerusObjects.CCurrencyValueMap[]",
                  "name": "totalburned",
                  "type": "tuple[]"
                },
                {
                  "components": [
                    {
                      "internalType": "uint8",
                      "name": "destinationtype",
                      "type": "uint8"
                    },
                    {
                      "internalType": "bytes",
                      "name": "destinationaddress",
                      "type": "bytes"
                    }
                  ],
                  "internalType": "struct VerusObjectsCommon.CTransferDestination",
                  "name": "rewardaddress",
                  "type": "tuple"
                },
                {
                  "internalType": "int32",
                  "name": "firstinput",
                  "type": "int32"
                }
              ],
              "internalType": "struct VerusObjects.CCrossChainExport",
              "name": "exportinfo",
              "type": "tuple"
            },
            {
              "components": [
                {
                  "internalType": "uint8",
                  "name": "version",
                  "type": "uint8"
                },
                {
                  "internalType": "uint8",
                  "name": "typeC",
                  "type": "uint8"
                },
                {
                  "components": [
                    {
                      "internalType": "uint8",
                      "name": "branchType",
                      "type": "uint8"
                    },
                    {
                      "components": [
                        {
                          "internalType": "uint8",
                          "name": "CMerkleBranchBase",
                          "type": "uint8"
                        },
                        {
                          "internalType": "uint32",
                          "name": "nIndex",
                          "type": "uint32"
                        },
                        {
                          "internalType": "uint32",
                          "name": "nSize",
                          "type": "uint32"
                        },
                        {
                          "internalType": "bytes32[]",
                          "name": "branch",
                          "type": "bytes32[]"
                        }
                      ],
                      "internalType": "struct VerusObjects.CMerkleBranch",
                      "name": "proofSequence",
                      "type": "tuple"
                    }
                  ],
                  "internalType": "struct VerusObjects.CTXProof[]",
                  "name": "txproof",
                  "type": "tuple[]"
                },
                {
                  "components": [
                    {
                      "internalType": "uint8",
                      "name": "elType",
                      "type": "uint8"
                    },
                    {
                      "internalType": "uint8",
                      "name": "elIdx",
                      "type": "uint8"
                    },
                    {
                      "internalType": "bytes",
                      "name": "elVchObj",
                      "type": "bytes"
                    },
                    {
                      "components": [
                        {
                          "internalType": "uint8",
                          "name": "branchType",
                          "type": "uint8"
                        },
                        {
                          "components": [
                            {
                              "internalType": "uint8",
                              "name": "CMerkleBranchBase",
                              "type": "uint8"
                            },
                            {
                              "internalType": "uint32",
                              "name": "nIndex",
                              "type": "uint32"
                            },
                            {
                              "internalType": "uint32",
                              "name": "nSize",
                              "type": "uint32"
                            },
                            {
                              "internalType": "bytes32[]",
                              "name": "branch",
                              "type": "bytes32[]"
                            }
                          ],
                          "internalType": "struct VerusObjects.CMerkleBranch",
                          "name": "proofSequence",
                          "type": "tuple"
                        }
                      ],
                      "internalType": "struct VerusObjects.CTXProof[]",
                      "name": "elProof",
                      "type": "tuple[]"
                    }
                  ],
                  "internalType": "struct VerusObjects.CComponents[]",
                  "name": "components",
                  "type": "tuple[]"
                }
              ],
              "internalType": "struct VerusObjects.CPtransactionproof",
              "name": "partialtransactionproof",
              "type": "tuple"
            },
            {
              "components": [
                {
                  "internalType": "uint32",
                  "name": "version",
                  "type": "uint32"
                },
                {
                  "components": [
                    {
                      "internalType": "address",
                      "name": "currency",
                      "type": "address"
                    },
                    {
                      "internalType": "uint64",
                      "name": "amount",
                      "type": "uint64"
                    }
                  ],
                  "internalType": "struct VerusObjects.CCurrencyValueMap",
                  "name": "currencyvalue",
                  "type": "tuple"
                },
                {
                  "internalType": "uint32",
                  "name": "flags",
                  "type": "uint32"
                },
                {
                  "internalType": "address",
                  "name": "feecurrencyid",
                  "type": "address"
                },
                {
                  "internalType": "uint256",
                  "name": "fees",
                  "type": "uint256"
                },
                {
                  "components": [
                    {
                      "internalType": "uint8",
                      "name": "destinationtype",
                      "type": "uint8"
                    },
                    {
                      "internalType": "bytes",
                      "name": "destinationaddress",
                      "type": "bytes"
                    }
                  ],
                  "internalType": "struct VerusObjectsCommon.CTransferDestination",
                  "name": "destination",
                  "type": "tuple"
                },
                {
                  "internalType": "address",
                  "name": "destcurrencyid",
                  "type": "address"
                },
                {
                  "internalType": "address",
                  "name": "destsystemid",
                  "type": "address"
                },
                {
                  "internalType": "address",
                  "name": "secondreserveid",
                  "type": "address"
                }
              ],
              "internalType": "struct VerusObjects.CReserveTransfer[]",
              "name": "transfers",
              "type": "tuple[]"
            }
          ],
          "internalType": "struct VerusObjects.CReserveTransferImport",
          "name": "_import",
          "type": "tuple"
        }
      ],
      "name": "proveTransaction",
      "outputs": [
        {
          "internalType": "bytes32",
          "name": "stateRoot",
          "type": "bytes32"
        }
      ],
      "stateMutability": "view",
      "type": "function",
      "constant": true
    },
    {
      "inputs": [
        {
          "components": [
            {
              "internalType": "uint256",
              "name": "height",
              "type": "uint256"
            },
            {
              "internalType": "bytes32",
              "name": "txid",
              "type": "bytes32"
            },
            {
              "internalType": "uint256",
              "name": "txoutnum",
              "type": "uint256"
            },
            {
              "components": [
                {
                  "internalType": "uint16",
                  "name": "version",
                  "type": "uint16"
                },
                {
                  "internalType": "uint16",
                  "name": "flags",
                  "type": "uint16"
                },
                {
                  "internalType": "address",
                  "name": "sourcesystemid",
                  "type": "address"
                },
                {
                  "internalType": "bytes32",
                  "name": "hashtransfers",
                  "type": "bytes32"
                },
                {
                  "internalType": "uint32",
                  "name": "sourceheightstart",
                  "type": "uint32"
                },
                {
                  "internalType": "uint32",
                  "name": "sourceheightend",
                  "type": "uint32"
                },
                {
                  "internalType": "address",
                  "name": "destinationsystemid",
                  "type": "address"
                },
                {
                  "internalType": "address",
                  "name": "destinationcurrencyid",
                  "type": "address"
                },
                {
                  "internalType": "uint32",
                  "name": "numinputs",
                  "type": "uint32"
                },
                {
                  "components": [
                    {
                      "internalType": "address",
                      "name": "currency",
                      "type": "address"
                    },
                    {
                      "internalType": "uint64",
                      "name": "amount",
                      "type": "uint64"
                    }
                  ],
                  "internalType": "struct VerusObjects.CCurrencyValueMap[]",
                  "name": "totalamounts",
                  "type": "tuple[]"
                },
                {
                  "components": [
                    {
                      "internalType": "address",
                      "name": "currency",
                      "type": "address"
                    },
                    {
                      "internalType": "uint64",
                      "name": "amount",
                      "type": "uint64"
                    }
                  ],
                  "internalType": "struct VerusObjects.CCurrencyValueMap[]",
                  "name": "totalfees",
                  "type": "tuple[]"
                },
                {
                  "components": [
                    {
                      "internalType": "address",
                      "name": "currency",
                      "type": "address"
                    },
                    {
                      "internalType": "uint64",
                      "name": "amount",
                      "type": "uint64"
                    }
                  ],
                  "internalType": "struct VerusObjects.CCurrencyValueMap[]",
                  "name": "totalburned",
                  "type": "tuple[]"
                },
                {
                  "components": [
                    {
                      "internalType": "uint8",
                      "name": "destinationtype",
                      "type": "uint8"
                    },
                    {
                      "internalType": "bytes",
                      "name": "destinationaddress",
                      "type": "bytes"
                    }
                  ],
                  "internalType": "struct VerusObjectsCommon.CTransferDestination",
                  "name": "rewardaddress",
                  "type": "tuple"
                },
                {
                  "internalType": "int32",
                  "name": "firstinput",
                  "type": "int32"
                }
              ],
              "internalType": "struct VerusObjects.CCrossChainExport",
              "name": "exportinfo",
              "type": "tuple"
            },
            {
              "components": [
                {
                  "internalType": "uint8",
                  "name": "version",
                  "type": "uint8"
                },
                {
                  "internalType": "uint8",
                  "name": "typeC",
                  "type": "uint8"
                },
                {
                  "components": [
                    {
                      "internalType": "uint8",
                      "name": "branchType",
                      "type": "uint8"
                    },
                    {
                      "components": [
                        {
                          "internalType": "uint8",
                          "name": "CMerkleBranchBase",
                          "type": "uint8"
                        },
                        {
                          "internalType": "uint32",
                          "name": "nIndex",
                          "type": "uint32"
                        },
                        {
                          "internalType": "uint32",
                          "name": "nSize",
                          "type": "uint32"
                        },
                        {
                          "internalType": "bytes32[]",
                          "name": "branch",
                          "type": "bytes32[]"
                        }
                      ],
                      "internalType": "struct VerusObjects.CMerkleBranch",
                      "name": "proofSequence",
                      "type": "tuple"
                    }
                  ],
                  "internalType": "struct VerusObjects.CTXProof[]",
                  "name": "txproof",
                  "type": "tuple[]"
                },
                {
                  "components": [
                    {
                      "internalType": "uint8",
                      "name": "elType",
                      "type": "uint8"
                    },
                    {
                      "internalType": "uint8",
                      "name": "elIdx",
                      "type": "uint8"
                    },
                    {
                      "internalType": "bytes",
                      "name": "elVchObj",
                      "type": "bytes"
                    },
                    {
                      "components": [
                        {
                          "internalType": "uint8",
                          "name": "branchType",
                          "type": "uint8"
                        },
                        {
                          "components": [
                            {
                              "internalType": "uint8",
                              "name": "CMerkleBranchBase",
                              "type": "uint8"
                            },
                            {
                              "internalType": "uint32",
                              "name": "nIndex",
                              "type": "uint32"
                            },
                            {
                              "internalType": "uint32",
                              "name": "nSize",
                              "type": "uint32"
                            },
                            {
                              "internalType": "bytes32[]",
                              "name": "branch",
                              "type": "bytes32[]"
                            }
                          ],
                          "internalType": "struct VerusObjects.CMerkleBranch",
                          "name": "proofSequence",
                          "type": "tuple"
                        }
                      ],
                      "internalType": "struct VerusObjects.CTXProof[]",
                      "name": "elProof",
                      "type": "tuple[]"
                    }
                  ],
                  "internalType": "struct VerusObjects.CComponents[]",
                  "name": "components",
                  "type": "tuple[]"
                }
              ],
              "internalType": "struct VerusObjects.CPtransactionproof",
              "name": "partialtransactionproof",
              "type": "tuple"
            },
            {
              "components": [
                {
                  "internalType": "uint32",
                  "name": "version",
                  "type": "uint32"
                },
                {
                  "components": [
                    {
                      "internalType": "address",
                      "name": "currency",
                      "type": "address"
                    },
                    {
                      "internalType": "uint64",
                      "name": "amount",
                      "type": "uint64"
                    }
                  ],
                  "internalType": "struct VerusObjects.CCurrencyValueMap",
                  "name": "currencyvalue",
                  "type": "tuple"
                },
                {
                  "internalType": "uint32",
                  "name": "flags",
                  "type": "uint32"
                },
                {
                  "internalType": "address",
                  "name": "feecurrencyid",
                  "type": "address"
                },
                {
                  "internalType": "uint256",
                  "name": "fees",
                  "type": "uint256"
                },
                {
                  "components": [
                    {
                      "internalType": "uint8",
                      "name": "destinationtype",
                      "type": "uint8"
                    },
                    {
                      "internalType": "bytes",
                      "name": "destinationaddress",
                      "type": "bytes"
                    }
                  ],
                  "internalType": "struct VerusObjectsCommon.CTransferDestination",
                  "name": "destination",
                  "type": "tuple"
                },
                {
                  "internalType": "address",
                  "name": "destcurrencyid",
                  "type": "address"
                },
                {
                  "internalType": "address",
                  "name": "destsystemid",
                  "type": "address"
                },
                {
                  "internalType": "address",
                  "name": "secondreserveid",
                  "type": "address"
                }
              ],
              "internalType": "struct VerusObjects.CReserveTransfer[]",
              "name": "transfers",
              "type": "tuple[]"
            }
          ],
          "internalType": "struct VerusObjects.CReserveTransferImport",
          "name": "_import",
          "type": "tuple"
        }
      ],
      "name": "proveImports",
      "outputs": [
        {
          "internalType": "bool",
          "name": "",
          "type": "bool"
        }
      ],
      "stateMutability": "view",
      "type": "function",
      "constant": true
    },
    {
      "inputs": [
        {
          "internalType": "bytes32",
          "name": "input",
          "type": "bytes32"
        }
      ],
      "name": "flipBytes32",
      "outputs": [
        {
          "internalType": "bytes32",
          "name": "",
          "type": "bytes32"
        }
      ],
      "stateMutability": "pure",
      "type": "function",
      "constant": true
    }
  ],
  "bytecode": "0x60806040523480156200001157600080fd5b506040516200297e3803806200297e83398181016040528101906200003791906200011a565b81600160006101000a81548173ffffffffffffffffffffffffffffffffffffffff021916908373ffffffffffffffffffffffffffffffffffffffff16021790555080600360006101000a81548173ffffffffffffffffffffffffffffffffffffffff021916908373ffffffffffffffffffffffffffffffffffffffff16021790555082600260006101000a81548173ffffffffffffffffffffffffffffffffffffffff021916908373ffffffffffffffffffffffffffffffffffffffff160217905550505050620001be565b6000815190506200011481620001a4565b92915050565b6000806000606084860312156200013057600080fd5b6000620001408682870162000103565b9350506020620001538682870162000103565b9250506040620001668682870162000103565b9150509250925092565b60006200017d8262000184565b9050919050565b600073ffffffffffffffffffffffffffffffffffffffff82169050919050565b620001af8162000170565b8114620001bb57600080fd5b50565b6127b080620001ce6000396000f3fe608060405234801561001057600080fd5b50600436106100cf5760003560e01c80635981d41b1161008c578063b740965f11610066578063b740965f14610260578063bc736c141461027e578063c1d71858146102ae578063f8ba7192146102cc576100cf565b80635981d41b146101e25780638f1db79b14610212578063b023187514610230576100cf565b8063092cf1b8146100d45780630cd5756d146101045780632b02631614610134578063317e325b146101645780633192148c1461018257806339847b34146101b2575b600080fd5b6100ee60048036038101906100e99190611e54565b6102fc565b6040516100fb9190612329565b60405180910390f35b61011e60048036038101906101199190611e54565b61034f565b60405161012b919061230e565b60405180910390f35b61014e60048036038101906101499190611e54565b6104d9565b60405161015b9190612329565b60405180910390f35b61016c61074c565b6040516101799190612344565b60405180910390f35b61019c60048036038101906101979190611ebe565b6107ea565b6040516101a99190612329565b60405180910390f35b6101cc60048036038101906101c79190611e54565b61080e565b6040516101d9919061230e565b60405180910390f35b6101fc60048036038101906101f79190611dbf565b610c8d565b6040516102099190612329565b60405180910390f35b61021a610f00565b604051610227919061230e565b60405180910390f35b61024a60048036038101906102459190611cd8565b610f13565b6040516102579190612329565b60405180910390f35b610268610fdb565b6040516102759190612329565b60405180910390f35b61029860048036038101906102939190611d19565b610fe1565b6040516102a59190612329565b60405180910390f35b6102b6610ff9565b6040516102c39190612329565b60405180910390f35b6102e660048036038101906102e19190611d6b565b610fff565b6040516102f39190612329565b60405180910390f35b60008060001b905061030d8261080e565b6103165761034a565b6000610321836104d9565b90506000801b811415610334575061034a565b61034681846080015160400151610fff565b9150505b919050565b60008061035b836102fc565b90506000600260009054906101000a900473ffffffffffffffffffffffffffffffffffffffff1673ffffffffffffffffffffffffffffffffffffffff16634b60ae636040518163ffffffff1660e01b815260040160206040518083038186803b1580156103c757600080fd5b505afa1580156103db573d6000803e3d6000fd5b505050506040513d601f19601f820116820180604052508101906103ff9190611ee7565b905060006104b6600260009054906101000a900473ffffffffffffffffffffffffffffffffffffffff1673ffffffffffffffffffffffffffffffffffffffff1663e7b3c875846040518263ffffffff1660e01b815260040161046191906123f6565b60206040518083038186803b15801561047957600080fd5b505afa15801561048d573d6000803e3d6000fd5b505050506040513d601f19601f820116820180604052508101906104b19190611d42565b610fe1565b9050808314156104cc57600193505050506104d4565b600093505050505b919050565b60008060008084608001516060015151111561061657600160009054906101000a900473ffffffffffffffffffffffffffffffffffffffff1673ffffffffffffffffffffffffffffffffffffffff16632cd0cff285608001516060015160008151811061054257fe5b6020026020010151604001516040518263ffffffff1660e01b815260040161056a9190612344565b60206040518083038186803b15801561058257600080fd5b505afa158015610596573d6000803e3d6000fd5b505050506040513d601f19601f820116820180604052508101906105ba9190611d42565b915060018460800151606001516000815181106105d357fe5b60200260200101516000015160ff161415610615576106128285608001516060015160008151811061060157fe5b602002602001015160600151610fff565b92505b5b6000600190505b8460800151606001515181101561074457600160009054906101000a900473ffffffffffffffffffffffffffffffffffffffff1673ffffffffffffffffffffffffffffffffffffffff16632cd0cff2866080015160600151838151811061068057fe5b6020026020010151604001516040518263ffffffff1660e01b81526004016106a89190612344565b60206040518083038186803b1580156106c057600080fd5b505afa1580156106d4573d6000803e3d6000fd5b505050506040513d601f19601f820116820180604052508101906106f89190611d42565b925061072383866080015160600151838151811061071257fe5b602002602001015160600151610fff565b9150818414610737576000801b9350610744565b808060010191505061061d565b505050919050565b60078054600181600116156101000203166002900480601f0160208091040260200160405190810160405280929190818152602001828054600181600116156101000203166002900480156107e25780601f106107b7576101008083540402835291602001916107e2565b820191906000526020600020905b8154815290600101906020018083116107c557829003601f168201915b505050505081565b600481815481106107fa57600080fd5b906000526020600020016000915090505481565b60008061081e8360a00151610f13565b905060008360800151606001515190506000600190505b81811015610c8057600463ffffffff16856080015160600151828151811061085957fe5b60200260200101516000015160ff161415610c73576000856080015160600151828151811061088457fe5b6020026020010151604001519050600080600061089f611198565b600360009054906101000a900473ffffffffffffffffffffffffffffffffffffffff1673ffffffffffffffffffffffffffffffffffffffff1663ec9bb1a08660096040518363ffffffff1660e01b81526004016108fd929190612366565b604080518083038186803b15801561091457600080fd5b505afa158015610928573d6000803e3d6000fd5b505050506040513d601f19601f8201168201806040525081019061094c9190611e95565b9050600360009054906101000a900473ffffffffffffffffffffffffffffffffffffffff1673ffffffffffffffffffffffffffffffffffffffff1663ec9bb1a08683600001516040518363ffffffff1660e01b81526004016109af929190612366565b604080518083038186803b1580156109c657600080fd5b505afa1580156109da573d6000803e3d6000fd5b505050506040513d601f19601f820116820180604052508101906109fe9190611e95565b90506000816020015163ffffffff161480610a235750604b816020015163ffffffff16115b15610a3957600098505050505050505050610c88565b8060200151816000015101935083850151925060018401935083850151915060018401935060cc63ffffffff168360ff16141580610a975750604c63ffffffff168260ff1614158015610a965750604d63ffffffff168260ff1614155b5b15610aad57600098505050505050505050610c88565b6000604c63ffffffff168360ff161415610adb5760008587015190506001860195508060ff16915050610b0f565b6000808688015191506001870196508688015190506001870196508060ff1692508160ff1660088461ffff16901b01925050505b6000600286019550858701519050600c60ff168160ff1614610b3e5760009a5050505050505050505050610c88565b60176002601c038701019550600080600080898b0151925060208a019950898b0151935060148a019950898b0151915060148a019950898b01519050838e148015610bc8575073a6ef9ea235635e328124ff3429db9f9e91b64e2d73ffffffffffffffffffffffffffffffffffffffff168373ffffffffffffffffffffffffffffffffffffffff16145b8015610c1357507367460c2f56774ed27eeb8685f29f6cec0b090b0073ffffffffffffffffffffffffffffffffffffffff168273ffffffffffffffffffffffffffffffffffffffff16145b8015610c5e57507367460c2f56774ed27eeb8685f29f6cec0b090b0073ffffffffffffffffffffffffffffffffffffffff168173ffffffffffffffffffffffffffffffffffffffff16145b9e505050505050505050505050505050610c88565b8080600101915050610835565b600093505050505b919050565b600080826020015163ffffffff161015610cdc576040517f08c379a0000000000000000000000000000000000000000000000000000000008152600401610cd3906123d6565b60405180910390fd5b600082606001515111610d24576040517f08c379a0000000000000000000000000000000000000000000000000000000008152600401610d1b90612396565b60405180910390fd5b60008260600151519050600084905060606000856020015163ffffffff16905060005b84811015610ef2576000600183161115610df5578787606001518281518110610d6c57fe5b60200260200101511415610db5576040517f08c379a0000000000000000000000000000000000000000000000000000000008152600401610dac906123b6565b60405180910390fd5b86606001518181518110610dc557fe5b602002602001015184604051602001610ddf9291906122b2565b6040516020818303038152906040529250610e31565b8387606001518281518110610e0657fe5b6020026020010151604051602001610e1f9291906122b2565b60405160208183030381529060405292505b600160009054906101000a900473ffffffffffffffffffffffffffffffffffffffff1673ffffffffffffffffffffffffffffffffffffffff16632cd0cff2846040518263ffffffff1660e01b8152600401610e8c9190612344565b60206040518083038186803b158015610ea457600080fd5b505afa158015610eb8573d6000803e3d6000fd5b505050506040513d601f19601f82011682018060405250810190610edc9190611d42565b9350600182901c91508080600101915050610d47565b508294505050505092915050565b600860009054906101000a900460ff1681565b600080600360009054906101000a900473ffffffffffffffffffffffffffffffffffffffff1673ffffffffffffffffffffffffffffffffffffffff16633b7cc0a28460006040518363ffffffff1660e01b8152600401610f749291906122de565b60006040518083038186803b158015610f8c57600080fd5b505afa158015610fa0573d6000803e3d6000fd5b505050506040513d6000823e3d601f19601f82011682018060405250810190610fc99190611e13565b90508080519060200120915050919050565b60055481565b6000610fef8260001c61104c565b60001b9050919050565b60065481565b60008083905060005b8351811015611041576110328285838151811061102157fe5b602002602001015160200151610c8d565b91508080600101915050611008565b508091505092915050565b600081905060087eff00ff00ff00ff00ff00ff00ff00ff00ff00ff00ff00ff00ff00ff00ff00ff8216901b60087fff00ff00ff00ff00ff00ff00ff00ff00ff00ff00ff00ff00ff00ff00ff00ff008316901c17905060107dffff0000ffff0000ffff0000ffff0000ffff0000ffff0000ffff0000ffff8216901b60107fffff0000ffff0000ffff0000ffff0000ffff0000ffff0000ffff0000ffff00008316901c17905060207bffffffff00000000ffffffff00000000ffffffff00000000ffffffff8216901b60207fffffffff00000000ffffffff00000000ffffffff00000000ffffffff000000008316901c179050604077ffffffffffffffff0000000000000000ffffffffffffffff8216901b60407fffffffffffffffff0000000000000000ffffffffffffffff00000000000000008316901c179050608081901b608082901c179050919050565b6040518060400160405280600063ffffffff168152602001600063ffffffff1681525090565b60006111d16111cc84612442565b612411565b905080838252602082019050828560208602820111156111f057600080fd5b60005b8581101561122057816112068882611510565b8452602084019350602083019250506001810190506111f3565b5050509392505050565b600061123d6112388461246e565b612411565b9050808382526020820190508260005b8581101561127d578135850161126388826115a3565b84526020840193506020830192505060018101905061124d565b5050509392505050565b600061129a6112958461249a565b612411565b905080838252602082019050828560408602820111156112b957600080fd5b60005b858110156112e957816112cf88826117f1565b8452602084019350604083019250506001810190506112bc565b5050509392505050565b6000611306611301846124c6565b612411565b9050808382526020820190508260005b85811015611346578135850161132c8882611a51565b845260208401935060208301925050600181019050611316565b5050509392505050565b600061136361135e846124f2565b612411565b9050808382526020820190508260005b858110156113a357813585016113898882611b46565b845260208401935060208301925050600181019050611373565b5050509392505050565b60006113c06113bb8461251e565b612411565b9050828152602081018484840111156113d857600080fd5b6113e3848285612663565b509392505050565b60006113fe6113f98461251e565b612411565b90508281526020810184848401111561141657600080fd5b611421848285612672565b509392505050565b600081359050611438816126c2565b92915050565b600082601f83011261144f57600080fd5b813561145f8482602086016111be565b91505092915050565b600082601f83011261147957600080fd5b813561148984826020860161122a565b91505092915050565b600082601f8301126114a357600080fd5b81356114b3848260208601611287565b91505092915050565b600082601f8301126114cd57600080fd5b81356114dd8482602086016112f3565b91505092915050565b600082601f8301126114f757600080fd5b8135611507848260208601611350565b91505092915050565b60008135905061151f816126d9565b92915050565b600081519050611534816126d9565b92915050565b600082601f83011261154b57600080fd5b813561155b8482602086016113ad565b91505092915050565b600082601f83011261157557600080fd5b81516115858482602086016113eb565b91505092915050565b60008135905061159d816126f0565b92915050565b6000608082840312156115b557600080fd5b6115bf6080612411565b905060006115cf84828501611cc3565b60008301525060206115e384828501611cc3565b602083015250604082013567ffffffffffffffff81111561160357600080fd5b61160f8482850161153a565b604083015250606082013567ffffffffffffffff81111561162f57600080fd5b61163b848285016114e6565b60608301525092915050565b60006101c0828403121561165a57600080fd5b6116656101c0612411565b9050600061167584828501611c5a565b600083015250602061168984828501611c5a565b602083015250604061169d84828501611429565b60408301525060606116b184828501611510565b60608301525060806116c584828501611c84565b60808301525060a06116d984828501611c84565b60a08301525060c06116ed84828501611429565b60c08301525060e061170184828501611429565b60e08301525061010061171684828501611c84565b6101008301525061012082013567ffffffffffffffff81111561173857600080fd5b61174484828501611492565b6101208301525061014082013567ffffffffffffffff81111561176657600080fd5b61177284828501611492565b6101408301525061016082013567ffffffffffffffff81111561179457600080fd5b6117a084828501611492565b6101608301525061018082013567ffffffffffffffff8111156117c257600080fd5b6117ce84828501611baa565b610180830152506101a06117e48482850161158e565b6101a08301525092915050565b60006040828403121561180357600080fd5b61180d6040612411565b9050600061181d84828501611429565b600083015250602061183184828501611cae565b60208301525092915050565b60006080828403121561184f57600080fd5b6118596080612411565b9050600061186984828501611cc3565b600083015250602061187d84828501611c84565b602083015250604061189184828501611c84565b604083015250606082013567ffffffffffffffff8111156118b157600080fd5b6118bd8482850161143e565b60608301525092915050565b6000608082840312156118db57600080fd5b6118e56080612411565b905060006118f584828501611cc3565b600083015250602061190984828501611cc3565b602083015250604082013567ffffffffffffffff81111561192957600080fd5b611935848285016114e6565b604083015250606082013567ffffffffffffffff81111561195557600080fd5b61196184828501611468565b60608301525092915050565b600060c0828403121561197f57600080fd5b61198960c0612411565b9050600061199984828501611c6f565b60008301525060206119ad84828501611510565b60208301525060406119c184828501611c6f565b604083015250606082013567ffffffffffffffff8111156119e157600080fd5b6119ed84828501611647565b606083015250608082013567ffffffffffffffff811115611a0d57600080fd5b611a19848285016118c9565b60808301525060a082013567ffffffffffffffff811115611a3957600080fd5b611a45848285016114bc565b60a08301525092915050565b60006101408284031215611a6457600080fd5b611a6f610120612411565b90506000611a7f84828501611c84565b6000830152506020611a93848285016117f1565b6020830152506060611aa784828501611c84565b6040830152506080611abb84828501611429565b60608301525060a0611acf84828501611c6f565b60808301525060c082013567ffffffffffffffff811115611aef57600080fd5b611afb84828501611baa565b60a08301525060e0611b0f84828501611429565b60c083015250610100611b2484828501611429565b60e083015250610120611b3984828501611429565b6101008301525092915050565b600060408284031215611b5857600080fd5b611b626040612411565b90506000611b7284828501611cc3565b600083015250602082013567ffffffffffffffff811115611b9257600080fd5b611b9e8482850161183d565b60208301525092915050565b600060408284031215611bbc57600080fd5b611bc66040612411565b90506000611bd684828501611cc3565b600083015250602082013567ffffffffffffffff811115611bf657600080fd5b611c028482850161153a565b60208301525092915050565b600060408284031215611c2057600080fd5b611c2a6040612411565b90506000611c3a84828501611c99565b6000830152506020611c4e84828501611c99565b60208301525092915050565b600081359050611c6981612707565b92915050565b600081359050611c7e8161271e565b92915050565b600081359050611c9381612735565b92915050565b600081519050611ca881612735565b92915050565b600081359050611cbd8161274c565b92915050565b600081359050611cd281612763565b92915050565b600060208284031215611cea57600080fd5b600082013567ffffffffffffffff811115611d0457600080fd5b611d10848285016114bc565b91505092915050565b600060208284031215611d2b57600080fd5b6000611d3984828501611510565b91505092915050565b600060208284031215611d5457600080fd5b6000611d6284828501611525565b91505092915050565b60008060408385031215611d7e57600080fd5b6000611d8c85828601611510565b925050602083013567ffffffffffffffff811115611da957600080fd5b611db5858286016114e6565b9150509250929050565b60008060408385031215611dd257600080fd5b6000611de085828601611510565b925050602083013567ffffffffffffffff811115611dfd57600080fd5b611e098582860161183d565b9150509250929050565b600060208284031215611e2557600080fd5b600082015167ffffffffffffffff811115611e3f57600080fd5b611e4b84828501611564565b91505092915050565b600060208284031215611e6657600080fd5b600082013567ffffffffffffffff811115611e8057600080fd5b611e8c8482850161196d565b91505092915050565b600060408284031215611ea757600080fd5b6000611eb584828501611c0e565b91505092915050565b600060208284031215611ed057600080fd5b6000611ede84828501611c6f565b91505092915050565b600060208284031215611ef957600080fd5b6000611f0784828501611c99565b91505092915050565b6000611f1c8383612164565b905092915050565b611f2d816125c5565b82525050565b6000611f3e8261255e565b611f488185612581565b935083602082028501611f5a8561254e565b8060005b85811015611f965784840389528151611f778582611f10565b9450611f8283612574565b925060208a01995050600181019050611f5e565b50829750879550505050505092915050565b611fb1816125d7565b82525050565b611fc0816125e3565b82525050565b611fd7611fd2826125e3565b6126a5565b82525050565b6000611fe882612569565b611ff28185612592565b9350612002818560208601612672565b61200b816126b1565b840191505092915050565b600061202182612569565b61202b81856125a3565b935061203b818560208601612672565b612044816126b1565b840191505092915050565b600061205c601c836125b4565b91507f4272616e6368206d757374206265206c6f6e676572207468616e2030000000006000830152602082019050919050565b600061209c6031836125b4565b91507f56616c75652063616e20626520657175616c20746f206e6f646520627574206e60008301527f65766572206f6e207468652072696768740000000000000000000000000000006020830152604082019050919050565b6000612102601b836125b4565b91507f496e6465782063616e6e6f74206265206c657373207468616e203000000000006000830152602082019050919050565b60408201600082015161214b6000850182611f24565b50602082015161215e6020850182612294565b50505050565b60006101408301600083015161217d6000860182612276565b5060208301516121906020860182612135565b5060408301516121a36060860182612276565b5060608301516121b66080860182611f24565b5060808301516121c960a0860182612267565b5060a083015184820360c08601526121e1828261222a565b91505060c08301516121f660e0860182611f24565b5060e083015161220a610100860182611f24565b5061010083015161221f610120860182611f24565b508091505092915050565b600060408301600083015161224260008601826122a3565b506020830151848203602086015261225a8282611fdd565b9150508091505092915050565b61227081612628565b82525050565b61227f81612632565b82525050565b61228e81612632565b82525050565b61229d81612642565b82525050565b6122ac81612656565b82525050565b60006122be8285611fc6565b6020820191506122ce8284611fc6565b6020820191508190509392505050565b600060408201905081810360008301526122f88185611f33565b90506123076020830184611fa8565b9392505050565b60006020820190506123236000830184611fa8565b92915050565b600060208201905061233e6000830184611fb7565b92915050565b6000602082019050818103600083015261235e8184612016565b905092915050565b600060408201905081810360008301526123808185612016565b905061238f6020830184612285565b9392505050565b600060208201905081810360008301526123af8161204f565b9050919050565b600060208201905081810360008301526123cf8161208f565b9050919050565b600060208201905081810360008301526123ef816120f5565b9050919050565b600060208201905061240b6000830184612285565b92915050565b6000604051905081810181811067ffffffffffffffff82111715612438576124376126af565b5b8060405250919050565b600067ffffffffffffffff82111561245d5761245c6126af565b5b602082029050602081019050919050565b600067ffffffffffffffff821115612489576124886126af565b5b602082029050602081019050919050565b600067ffffffffffffffff8211156124b5576124b46126af565b5b602082029050602081019050919050565b600067ffffffffffffffff8211156124e1576124e06126af565b5b602082029050602081019050919050565b600067ffffffffffffffff82111561250d5761250c6126af565b5b602082029050602081019050919050565b600067ffffffffffffffff821115612539576125386126af565b5b601f19601f8301169050602081019050919050565b6000819050602082019050919050565b600081519050919050565b600081519050919050565b6000602082019050919050565b600082825260208201905092915050565b600082825260208201905092915050565b600082825260208201905092915050565b600082825260208201905092915050565b60006125d082612608565b9050919050565b60008115159050919050565b6000819050919050565b60008160030b9050919050565b600061ffff82169050919050565b600073ffffffffffffffffffffffffffffffffffffffff82169050919050565b6000819050919050565b600063ffffffff82169050919050565b600067ffffffffffffffff82169050919050565b600060ff82169050919050565b82818337600083830152505050565b60005b83811015612690578082015181840152602081019050612675565b8381111561269f576000848401525b50505050565b6000819050919050565bfe5b6000601f19601f8301169050919050565b6126cb816125c5565b81146126d657600080fd5b50565b6126e2816125e3565b81146126ed57600080fd5b50565b6126f9816125ed565b811461270457600080fd5b50565b612710816125fa565b811461271b57600080fd5b50565b61272781612628565b811461273257600080fd5b50565b61273e81612632565b811461274957600080fd5b50565b61275581612642565b811461276057600080fd5b50565b61276c81612656565b811461277757600080fd5b5056fea26469706673582212207a8a9de9f0e7ea2aa59bdb3d861483ef4307870ba996fa2f0021880c68a0309d64736f6c63430007060033",
  "immutableReferences": {},
  "source": "// SPDX-License-Identifier: MIT\n// Bridge between ethereum and verus\n\npragma solidity >=0.6.0;\npragma experimental ABIEncoderV2;\nimport \"../Libraries/VerusObjects.sol\";\nimport \"./VerusBlake2b.sol\";\nimport \"../VerusBridge/VerusSerializer.sol\";\nimport \"../VerusNotarizer/VerusNotarizer.sol\";\nimport \"../Libraries/VerusObjectsCommon.sol\";\n\ncontract VerusProof {\n\n    uint256 mmrRoot;\n    VerusBlake2b blake2b;\n    VerusNotarizer verusNotarizer;\n    VerusSerializer verusSerializer;\n    \n    bytes32[] public computedValues;\n    bytes32 public testHashedTransfers;\n    bytes32 public txValue;\n    bytes public testTransfers;\n    bool public testResult;\n\n    // these constants should be able to reference each other, as many are relative, but Solidity does not\n    // allow referencing them and still considering the result a constant. For any changes to these constants,\n    // which are designed to ensure smart transaction provability, care must be take to ensure that OUTPUT_SCRIPT_OFFSET\n    // is present and substituted for all equivalent values (currently (32 + 8))\n    uint8 constant CCE_EVAL_EXPORT = 0xc;\n    uint32 constant CCE_COPTP_HEADERSIZE = 0x1c;\n    uint32 constant CCE_COPTP_EVALOFFSET = 2;\n    uint32 constant CCE_SOURCE_SYSTEM_OFFSET = (4 + 19);\n    uint32 constant CCE_HASH_TRANSFERS_DELTA = 32;\n    uint32 constant CCE_DEST_SYSTEM_DELTA = 20;\n    uint32 constant CCE_DEST_CURRENCY_DELTA = 20;\n\n    uint32 constant OUTPUT_SCRIPT_OFFSET = (8 + 1);                 // start of prevector serialization for output script\n    uint32 constant SCRIPT_OP_CHECKCRYPTOCONDITION = 0xcc;\n    uint32 constant SCRIPT_OP_PUSHDATA1 = 0x4c;\n    uint32 constant SCRIPT_OP_PUSHDATA2 = 0x4d;\n    uint32 constant TYPE_TX_OUTPUT = 4;\n\n    event HashEvent(bytes32 newHash,uint8 eventType);\n\n    constructor(address notarizerAddress,address verusBLAKE2b,address verusSerializerAddress) {\n        blake2b = VerusBlake2b(verusBLAKE2b);\n        verusSerializer = VerusSerializer(verusSerializerAddress);\n        verusNotarizer = VerusNotarizer(notarizerAddress);   \n    }\n\n    function hashTransfers(VerusObjects.CReserveTransfer[] memory _transfers) public view returns (bytes32){\n        bytes memory sTransfers = verusSerializer.serializeCReserveTransfers(_transfers, false);\n        return keccak256(sTransfers);\n    }\n\n    function checkProof(bytes32 hashToProve, VerusObjects.CTXProof[] memory _branches) public view returns(bytes32){\n        //loop through the branches from bottom to top\n        bytes32 hashInProgress = hashToProve;\n        for(uint i = 0; i < _branches.length; i++){\n            hashInProgress = checkBranch(hashInProgress,_branches[i].proofSequence);\n        }\n        return hashInProgress;\n    }\n\n    function checkBranch(bytes32 _hashToCheck,VerusObjects.CMerkleBranch memory _branch) public view returns(bytes32){\n        \n        require(_branch.nIndex >= 0,\"Index cannot be less than 0\");\n        require(_branch.branch.length > 0,\"Branch must be longer than 0\");\n        uint branchLength = _branch.branch.length;\n        bytes32 hashInProgress = _hashToCheck;\n        bytes memory joined;\n        //hashInProgress = blake2b.bytesToBytes32(abi.encodePacked(_hashToCheck));\n        uint hashIndex = _branch.nIndex;\n        \n       for(uint i = 0;i < branchLength; i++){\n            if(hashIndex & 1 > 0){\n                require(_branch.branch[i] != _hashToCheck,\"Value can be equal to node but never on the right\");\n                //join the two arrays and pass to blake2b\n                joined = abi.encodePacked(_branch.branch[i],hashInProgress);\n            } else {\n                joined = abi.encodePacked(hashInProgress,_branch.branch[i]);\n            }\n            hashInProgress = blake2b.createHash(joined);\n            hashIndex >>= 1;\n        }\n\n        return hashInProgress;\n\n    }\n    \n    function checkTransfers(VerusObjects.CReserveTransferImport memory _import) public view returns (bool) {\n\n        // ensure that the hashed transfers are in the export\n        bytes32 hashedTransfers = hashTransfers(_import.transfers);\n\n        // the first component of the import partial transaction proof is the transaction header, for each version of\n        // transaction header, we have a specific offset for the hash of transfers. if we change this, we must\n        // deprecate and deploy new contracts\n        uint doneLen = _import.partialtransactionproof.components.length;\n        uint i;\n\n        for (i = 1; i < doneLen; i++)\n        {\n            if (_import.partialtransactionproof.components[i].elType == TYPE_TX_OUTPUT)\n            {\n                bytes memory firstObj = _import.partialtransactionproof.components[i].elVchObj; // we should have a first entry that is the txout with the export\n\n                // ensure this is an export to VETH and pull the hash for reserve transfers\n                // to ensure a valid export.\n                // the eval code for the main COptCCParams must be EVAL_CROSSCHAIN_EXPORT, and the destination system\n                // must match VETH\n\n                uint32 nextOffset;\n                uint8 opCode1;\n                uint8 opCode2;\n                VerusObjectsCommon.UintReader memory readerLen;\n\n                readerLen = verusSerializer.readCompactSizeLE(firstObj, OUTPUT_SCRIPT_OFFSET);    // get the length of the output script\n                readerLen = verusSerializer.readCompactSizeLE(firstObj, readerLen.offset);        // then length of first master push\n\n                // must be push less than 75 bytes, as that is an op code encoded similarly to a vector.\n                // all we do here is ensure that is the case and skip master\n                if (readerLen.value == 0 || readerLen.value > 0x4b)\n                {\n                    return false;\n                }\n\n                nextOffset = readerLen.offset + readerLen.value;        // add the length of the push of master to point to cc opcode\n\n                assembly {\n                    opCode1 := mload(add(firstObj, nextOffset))         // this should be OP_CHECKCRYPTOCONDITION\n                    nextOffset := add(nextOffset, 1)                    // and after that...\n                    opCode2 := mload(add(firstObj, nextOffset))         // should be OP_PUSHDATA1 or OP_PUSHDATA2\n                    nextOffset := add(nextOffset, 1)                    // point to the length of the pushed data after CC instruction\n                }\n\n                if (opCode1 != SCRIPT_OP_CHECKCRYPTOCONDITION ||\n                    (opCode2 != SCRIPT_OP_PUSHDATA1 && opCode2 != SCRIPT_OP_PUSHDATA2))\n                {\n                    return false;\n                }\n\n                uint16 optCCParamLen;\n                if (opCode2 == SCRIPT_OP_PUSHDATA1)\n                {\n                    uint8 tempUi8;\n                    assembly {\n                        tempUi8 := mload(add(firstObj, nextOffset))     // single byte val\n                        nextOffset := add(nextOffset, 1)\n                    }\n                    optCCParamLen = tempUi8;\n                }\n                else\n                {\n                    uint8 tempUi8lo;\n                    uint8 tempUi8hi;\n                    assembly {\n                        tempUi8lo := mload(add(firstObj, nextOffset))    // first LE byte val\n                        nextOffset := add(nextOffset, 1)\n                        tempUi8hi := mload(add(firstObj, nextOffset))    // second LE byte val\n                        nextOffset := add(nextOffset, 1)\n                    }\n                    optCCParamLen = tempUi8hi;\n                    optCCParamLen = (optCCParamLen << 8) + tempUi8lo;\n                }\n\n                // COptCCParams are serialized as pushes in a script, first the header, then the keys, then the data\n                // skip right to the serialized export and then to the source system\n                uint8 evalCode;\n                nextOffset += CCE_COPTP_EVALOFFSET;\n                assembly {\n                    evalCode := mload(add(firstObj, nextOffset))\n                }\n\n                if (evalCode != CCE_EVAL_EXPORT)\n                {\n                    return false;\n                }\n\n                nextOffset = nextOffset + (CCE_COPTP_HEADERSIZE - CCE_COPTP_EVALOFFSET) + CCE_SOURCE_SYSTEM_OFFSET;\n\n                bytes32 incomingValue;\n                address systemSourceID;\n                address destSystemID;\n                address destCurrencyID;\n\n                assembly {\n                    systemSourceID := mload(add(firstObj, nextOffset))      // source system ID, which should match expected source (VRSC/VRSCTEST)\n                    nextOffset := add(nextOffset, CCE_HASH_TRANSFERS_DELTA)\n                    incomingValue := mload(add(firstObj, nextOffset))       // get hash of reserve transfers from partial transaction proof\n                    nextOffset := add(nextOffset, CCE_DEST_SYSTEM_DELTA)\n                    destSystemID := mload(add(firstObj, nextOffset))        // destination system, which should be vETH\n                    nextOffset := add(nextOffset, CCE_DEST_CURRENCY_DELTA)\n                    destCurrencyID := mload(add(firstObj, nextOffset))      // destination currency, which should be vETH\n                }\n\n                // validate source and destination values as well\n                return (hashedTransfers == incomingValue &&\n                        systemSourceID == VerusConstants.VerusSystemId &&\n                        destSystemID == VerusConstants.EthSystemID &&\n                        destCurrencyID == VerusConstants.VEth);\n            }\n        }\n        return false;\n    }\n\n    // roll through each proveComponents\n    function proveComponents(VerusObjects.CReserveTransferImport memory _import) public view returns(bytes32 txRoot){\n        //delete computedValues\n        bytes32 hashInProgress;\n        bytes32 testHash;\n\n        if (_import.partialtransactionproof.components.length > 0)\n        {   \n            hashInProgress = blake2b.createHash(_import.partialtransactionproof.components[0].elVchObj);\n            if (_import.partialtransactionproof.components[0].elType == 1 )\n            {\n                txRoot = checkProof(hashInProgress,_import.partialtransactionproof.components[0].elProof);           \n            }\n        }\n\n        for (uint i = 1; i < _import.partialtransactionproof.components.length; i++) {\n            hashInProgress = blake2b.createHash(_import.partialtransactionproof.components[i].elVchObj);\n            testHash = checkProof(hashInProgress,_import.partialtransactionproof.components[i].elProof);\n        \n            if (txRoot != testHash) {\n                txRoot = 0x0000000000000000000000000000000000000000000000000000000000000000;\n                break;\n            }\n        }\n\n        return txRoot;\n    }\n    \n    function proveTransaction(VerusObjects.CReserveTransferImport memory _import) public view returns(bytes32 stateRoot){\n        stateRoot = 0x000000000000000000000000000000000000000000000000000000000000000;\n        if(!checkTransfers(_import)) return stateRoot;\n        \n        bytes32 txRoot = proveComponents(_import);\n        if(txRoot == 0x0000000000000000000000000000000000000000000000000000000000000000) return stateRoot;\n        \n        stateRoot = checkProof(txRoot,_import.partialtransactionproof.txproof);\n        return stateRoot;\n    }\n    \n    function proveImports(VerusObjects.CReserveTransferImport memory _import) public view returns(bool){\n        bytes32 predictedRootHash;\n        predictedRootHash = proveTransaction(_import);\n        uint32 lastBlockHeight = verusNotarizer.lastBlockHeight();\n        bytes32 predictedStateRoot = flipBytes32(verusNotarizer.notarizedStateRoots(lastBlockHeight));\n        if(predictedRootHash == predictedStateRoot) {\n            return true;\n        } else return false;\n    }\n\n    /*\n    function proveTransaction(bytes32 mmrRootHash,bytes32 notarisationHash,bytes32[] memory _transfersProof,uint32 _hashIndex) public view returns(bool){\n        if (mmrRootHash == predictedRootHash(notarisationHash,_hashIndex,_transfersProof)) return true;\n        else return false;\n    }\n\n    function predictedRootHash(bytes32 _hashToCheck,uint _hashIndex,bytes32[] memory _branch) public view returns(bytes32){\n        \n        require(_hashIndex >= 0,\"Index cannot be less than 0\");\n        require(_branch.length > 0,\"Branch must be longer than 0\");\n        uint branchLength = _branch.length;\n        bytes32 hashInProgress;\n        bytes memory joined;\n        hashInProgress = blake2b.bytesToBytes32(abi.encodePacked(_hashToCheck));\n\n       for(uint i = 0;i < branchLength; i++){\n            if(_hashIndex & 1 > 0){\n                require(_branch[i] != _hashToCheck,\"Value can be equal to node but never on the right\");\n                //join the two arrays and pass to blake2b\n                joined = abi.encodePacked(_branch[i],hashInProgress);\n            } else {\n                joined = abi.encodePacked(hashInProgress,_branch[i]);\n            }\n            hashInProgress = blake2b.createHash(joined);\n            _hashIndex >>= 1;\n        }\n\n        return hashInProgress;\n\n    }\n\n    function checkHashInRoot(bytes32 _mmrRoot,bytes32 _hashToCheck,uint _hashIndex,bytes32[] memory _branch) public view returns(bool){\n        bytes32 calculatedHash = predictedRootHash(_hashToCheck,_hashIndex,_branch);\n        if(_mmrRoot == calculatedHash) return true;\n        else return false;\n    }*/\n    \n    function flipBytes32(bytes32 input) public pure returns (bytes32){\n        return bytes32(reverseuint256(uint256(input)));\n    }\n    \n    function reverseuint256(uint256 input) internal pure returns (uint256 v) {\n        v = input;\n    \n        // swap bytes\n        v = ((v & 0xFF00FF00FF00FF00FF00FF00FF00FF00FF00FF00FF00FF00FF00FF00FF00FF00) >> 8) |\n            ((v & 0x00FF00FF00FF00FF00FF00FF00FF00FF00FF00FF00FF00FF00FF00FF00FF00FF) << 8);\n    \n        // swap 2-byte long pairs\n        v = ((v & 0xFFFF0000FFFF0000FFFF0000FFFF0000FFFF0000FFFF0000FFFF0000FFFF0000) >> 16) |\n            ((v & 0x0000FFFF0000FFFF0000FFFF0000FFFF0000FFFF0000FFFF0000FFFF0000FFFF) << 16);\n    \n        // swap 4-byte long pairs\n        v = ((v & 0xFFFFFFFF00000000FFFFFFFF00000000FFFFFFFF00000000FFFFFFFF00000000) >> 32) |\n            ((v & 0x00000000FFFFFFFF00000000FFFFFFFF00000000FFFFFFFF00000000FFFFFFFF) << 32);\n    \n        // swap 8-byte long pairs\n        v = ((v & 0xFFFFFFFFFFFFFFFF0000000000000000FFFFFFFFFFFFFFFF0000000000000000) >> 64) |\n            ((v & 0x0000000000000000FFFFFFFFFFFFFFFF0000000000000000FFFFFFFFFFFFFFFF) << 64);\n    \n        // swap 16-byte long pairs\n        v = (v >> 128) | (v << 128);\n    }\n    \n    function slice(bytes memory _bytes,uint256 _start,uint256 _length\n    )\n        internal\n        pure\n        returns (bytes memory)\n    {\n        require(_length + 31 >= _length, \"slice_overflow\");\n        require(_bytes.length >= _start + _length, \"slice_outOfBounds\");\n\n        bytes memory tempBytes;\n\n        assembly {\n            switch iszero(_length)\n            case 0 {\n                // Get a location of some free memory and store it in tempBytes as\n                // Solidity does for memory variables.\n                tempBytes := mload(0x40)\n\n                // The first word of the slice result is potentially a partial\n                // word read from the original array. To read it, we calculate\n                // the length of that partial word and start copying that many\n                // bytes into the array. The first word we copy will start with\n                // data we don't care about, but the last `lengthmod` bytes will\n                // land at the beginning of the contents of the new array. When\n                // we're done copying, we overwrite the full first word with\n                // the actual length of the slice.\n                let lengthmod := and(_length, 31)\n\n                // The multiplication in the next line is necessary\n                // because when slicing multiples of 32 bytes (lengthmod == 0)\n                // the following copy loop was copying the origin's length\n                // and then ending prematurely not copying everything it should.\n                let mc := add(add(tempBytes, lengthmod), mul(0x20, iszero(lengthmod)))\n                let end := add(mc, _length)\n\n                for {\n                    // The multiplication in the next line has the same exact purpose\n                    // as the one above.\n                    let cc := add(add(add(_bytes, lengthmod), mul(0x20, iszero(lengthmod))), _start)\n                } lt(mc, end) {\n                    mc := add(mc, 0x20)\n                    cc := add(cc, 0x20)\n                } {\n                    mstore(mc, mload(cc))\n                }\n\n                mstore(tempBytes, _length)\n\n                //update free-memory pointer\n                //allocating the array padded to 32 bytes like the compiler does now\n                mstore(0x40, and(add(mc, 31), not(31)))\n            }\n            //if we want a zero-length slice let's just return a zero-length array\n            default {\n                tempBytes := mload(0x40)\n                //zero out the 32 bytes slice we are about to return\n                //we need to do it because Solidity does not garbage collect\n                mstore(tempBytes, 0)\n\n                mstore(0x40, add(tempBytes, 0x20))\n            }\n        }\n\n        return tempBytes;\n    }\n    \n}\n\n\n",
  "sourcePath": "/home/chris/Verus-Ethereum-contracts/contracts/MMR/VerusProof.sol",
  "compiler": {
    "name": "solc",
    "version": "0.7.6+commit.7338295f.Emscripten.clang"
  },
  "schemaVersion": "3.4.4",
  "updatedAt": "2022-02-23T14:37:02.082Z",
  "networkType": "ethereum",
  "devdoc": {
    "kind": "dev",
    "methods": {},
    "version": 1
  },
  "userdoc": {
    "kind": "user",
    "methods": {},
    "version": 1
  }
}