{
  "contractName": "VerusBridge",
  "abi": [
    {
      "inputs": [
        {
          "internalType": "address",
          "name": "verusProofAddress",
          "type": "address"
        },
        {
          "internalType": "address",
          "name": "tokenManagerAddress",
          "type": "address"
        },
        {
          "internalType": "address",
          "name": "verusSerializerAddress",
          "type": "address"
        },
        {
          "internalType": "address",
          "name": "verusNotarizerAddress",
          "type": "address"
        },
        {
          "internalType": "address",
          "name": "verusCCEAddress",
          "type": "address"
        },
        {
          "internalType": "uint256",
          "name": "_poolSize",
          "type": "uint256"
        }
      ],
      "stateMutability": "nonpayable",
      "type": "constructor"
    },
    {
      "anonymous": false,
      "inputs": [
        {
          "indexed": false,
          "internalType": "address",
          "name": "newAddress",
          "type": "address"
        }
      ],
      "name": "Deprecate",
      "type": "event"
    },
    {
      "inputs": [
        {
          "internalType": "uint256",
          "name": "",
          "type": "uint256"
        },
        {
          "internalType": "uint256",
          "name": "",
          "type": "uint256"
        }
      ],
      "name": "_readyExports",
      "outputs": [
        {
          "internalType": "uint32",
          "name": "version",
          "type": "uint32"
        },
        {
          "components": [
            {
              "internalType": "address",
              "name": "currency",
              "type": "address"
            },
            {
              "internalType": "uint64",
              "name": "amount",
              "type": "uint64"
            }
          ],
          "internalType": "struct VerusObjects.CCurrencyValueMap",
          "name": "currencyvalue",
          "type": "tuple"
        },
        {
          "internalType": "uint32",
          "name": "flags",
          "type": "uint32"
        },
        {
          "internalType": "address",
          "name": "feecurrencyid",
          "type": "address"
        },
        {
          "internalType": "uint256",
          "name": "fees",
          "type": "uint256"
        },
        {
          "components": [
            {
              "internalType": "uint8",
              "name": "destinationtype",
              "type": "uint8"
            },
            {
              "internalType": "bytes",
              "name": "destinationaddress",
              "type": "bytes"
            }
          ],
          "internalType": "struct VerusObjectsCommon.CTransferDestination",
          "name": "destination",
          "type": "tuple"
        },
        {
          "internalType": "address",
          "name": "destcurrencyid",
          "type": "address"
        },
        {
          "internalType": "address",
          "name": "destsystemid",
          "type": "address"
        },
        {
          "internalType": "address",
          "name": "secondreserveid",
          "type": "address"
        }
      ],
      "stateMutability": "view",
      "type": "function",
      "constant": true
    },
    {
      "inputs": [
        {
          "internalType": "address",
          "name": "",
          "type": "address"
        }
      ],
      "name": "claimableFees",
      "outputs": [
        {
          "internalType": "uint256",
          "name": "",
          "type": "uint256"
        }
      ],
      "stateMutability": "view",
      "type": "function",
      "constant": true
    },
    {
      "inputs": [],
      "name": "deprecated",
      "outputs": [
        {
          "internalType": "bool",
          "name": "",
          "type": "bool"
        }
      ],
      "stateMutability": "view",
      "type": "function",
      "constant": true
    },
    {
      "inputs": [],
      "name": "ethHeld",
      "outputs": [
        {
          "internalType": "uint256",
          "name": "",
          "type": "uint256"
        }
      ],
      "stateMutability": "view",
      "type": "function",
      "constant": true
    },
    {
      "inputs": [],
      "name": "feesHeld",
      "outputs": [
        {
          "internalType": "uint256",
          "name": "",
          "type": "uint256"
        }
      ],
      "stateMutability": "view",
      "type": "function",
      "constant": true
    },
    {
      "inputs": [],
      "name": "firstBlock",
      "outputs": [
        {
          "internalType": "uint256",
          "name": "",
          "type": "uint256"
        }
      ],
      "stateMutability": "view",
      "type": "function",
      "constant": true
    },
    {
      "inputs": [],
      "name": "lastTxImportHeight",
      "outputs": [
        {
          "internalType": "uint256",
          "name": "",
          "type": "uint256"
        }
      ],
      "stateMutability": "view",
      "type": "function",
      "constant": true
    },
    {
      "inputs": [],
      "name": "lastimport",
      "outputs": [
        {
          "internalType": "uint256",
          "name": "height",
          "type": "uint256"
        },
        {
          "internalType": "bytes32",
          "name": "txid",
          "type": "bytes32"
        }
      ],
      "stateMutability": "view",
      "type": "function",
      "constant": true
    },
    {
      "inputs": [],
      "name": "poolSize",
      "outputs": [
        {
          "internalType": "uint256",
          "name": "",
          "type": "uint256"
        }
      ],
      "stateMutability": "view",
      "type": "function",
      "constant": true
    },
    {
      "inputs": [
        {
          "internalType": "bytes32",
          "name": "",
          "type": "bytes32"
        }
      ],
      "name": "processedTxids",
      "outputs": [
        {
          "internalType": "bool",
          "name": "",
          "type": "bool"
        }
      ],
      "stateMutability": "view",
      "type": "function",
      "constant": true
    },
    {
      "inputs": [
        {
          "internalType": "uint256",
          "name": "",
          "type": "uint256"
        }
      ],
      "name": "readyExportHashes",
      "outputs": [
        {
          "internalType": "bytes32",
          "name": "",
          "type": "bytes32"
        }
      ],
      "stateMutability": "view",
      "type": "function",
      "constant": true
    },
    {
      "inputs": [
        {
          "internalType": "uint256",
          "name": "",
          "type": "uint256"
        }
      ],
      "name": "readyExportsByBlock",
      "outputs": [
        {
          "internalType": "uint256",
          "name": "index",
          "type": "uint256"
        },
        {
          "internalType": "bool",
          "name": "created",
          "type": "bool"
        }
      ],
      "stateMutability": "view",
      "type": "function",
      "constant": true
    },
    {
      "inputs": [],
      "name": "upgradedAddress",
      "outputs": [
        {
          "internalType": "address",
          "name": "",
          "type": "address"
        }
      ],
      "stateMutability": "view",
      "type": "function",
      "constant": true
    },
    {
      "inputs": [
        {
          "internalType": "uint256",
          "name": "a",
          "type": "uint256"
        },
        {
          "internalType": "uint8",
          "name": "decimals",
          "type": "uint8"
        }
      ],
      "name": "convertFromVerusNumber",
      "outputs": [
        {
          "internalType": "uint256",
          "name": "",
          "type": "uint256"
        }
      ],
      "stateMutability": "pure",
      "type": "function",
      "constant": true
    },
    {
      "inputs": [
        {
          "internalType": "uint256",
          "name": "a",
          "type": "uint256"
        },
        {
          "internalType": "uint8",
          "name": "decimals",
          "type": "uint8"
        }
      ],
      "name": "convertToVerusNumber",
      "outputs": [
        {
          "internalType": "uint256",
          "name": "",
          "type": "uint256"
        }
      ],
      "stateMutability": "pure",
      "type": "function",
      "constant": true
    },
    {
      "inputs": [
        {
          "components": [
            {
              "internalType": "uint32",
              "name": "version",
              "type": "uint32"
            },
            {
              "components": [
                {
                  "internalType": "address",
                  "name": "currency",
                  "type": "address"
                },
                {
                  "internalType": "uint64",
                  "name": "amount",
                  "type": "uint64"
                }
              ],
              "internalType": "struct VerusObjects.CCurrencyValueMap",
              "name": "currencyvalue",
              "type": "tuple"
            },
            {
              "internalType": "uint32",
              "name": "flags",
              "type": "uint32"
            },
            {
              "internalType": "address",
              "name": "feecurrencyid",
              "type": "address"
            },
            {
              "internalType": "uint256",
              "name": "fees",
              "type": "uint256"
            },
            {
              "components": [
                {
                  "internalType": "uint8",
                  "name": "destinationtype",
                  "type": "uint8"
                },
                {
                  "internalType": "bytes",
                  "name": "destinationaddress",
                  "type": "bytes"
                }
              ],
              "internalType": "struct VerusObjectsCommon.CTransferDestination",
              "name": "destination",
              "type": "tuple"
            },
            {
              "internalType": "address",
              "name": "destcurrencyid",
              "type": "address"
            },
            {
              "internalType": "address",
              "name": "destsystemid",
              "type": "address"
            },
            {
              "internalType": "address",
              "name": "secondreserveid",
              "type": "address"
            }
          ],
          "internalType": "struct VerusObjects.CReserveTransfer",
          "name": "transfer",
          "type": "tuple"
        }
      ],
      "name": "export",
      "outputs": [],
      "stateMutability": "payable",
      "type": "function",
      "payable": true
    },
    {
      "inputs": [],
      "name": "getlastimportheight",
      "outputs": [
        {
          "internalType": "uint256",
          "name": "",
          "type": "uint256"
        }
      ],
      "stateMutability": "view",
      "type": "function",
      "constant": true
    },
    {
      "inputs": [
        {
          "internalType": "bytes32[]",
          "name": "_imports",
          "type": "bytes32[]"
        }
      ],
      "name": "checkImports",
      "outputs": [
        {
          "internalType": "bytes32[]",
          "name": "",
          "type": "bytes32[]"
        }
      ],
      "stateMutability": "view",
      "type": "function",
      "constant": true
    },
    {
      "inputs": [
        {
          "components": [
            {
              "internalType": "uint256",
              "name": "height",
              "type": "uint256"
            },
            {
              "internalType": "bytes32",
              "name": "txid",
              "type": "bytes32"
            },
            {
              "internalType": "uint256",
              "name": "txoutnum",
              "type": "uint256"
            },
            {
              "components": [
                {
                  "internalType": "uint16",
                  "name": "version",
                  "type": "uint16"
                },
                {
                  "internalType": "uint16",
                  "name": "flags",
                  "type": "uint16"
                },
                {
                  "internalType": "address",
                  "name": "sourcesystemid",
                  "type": "address"
                },
                {
                  "internalType": "bytes32",
                  "name": "hashtransfers",
                  "type": "bytes32"
                },
                {
                  "internalType": "uint32",
                  "name": "sourceheightstart",
                  "type": "uint32"
                },
                {
                  "internalType": "uint32",
                  "name": "sourceheightend",
                  "type": "uint32"
                },
                {
                  "internalType": "address",
                  "name": "destinationsystemid",
                  "type": "address"
                },
                {
                  "internalType": "address",
                  "name": "destinationcurrencyid",
                  "type": "address"
                },
                {
                  "internalType": "uint32",
                  "name": "numinputs",
                  "type": "uint32"
                },
                {
                  "components": [
                    {
                      "internalType": "address",
                      "name": "currency",
                      "type": "address"
                    },
                    {
                      "internalType": "uint64",
                      "name": "amount",
                      "type": "uint64"
                    }
                  ],
                  "internalType": "struct VerusObjects.CCurrencyValueMap[]",
                  "name": "totalamounts",
                  "type": "tuple[]"
                },
                {
                  "components": [
                    {
                      "internalType": "address",
                      "name": "currency",
                      "type": "address"
                    },
                    {
                      "internalType": "uint64",
                      "name": "amount",
                      "type": "uint64"
                    }
                  ],
                  "internalType": "struct VerusObjects.CCurrencyValueMap[]",
                  "name": "totalfees",
                  "type": "tuple[]"
                },
                {
                  "components": [
                    {
                      "internalType": "address",
                      "name": "currency",
                      "type": "address"
                    },
                    {
                      "internalType": "uint64",
                      "name": "amount",
                      "type": "uint64"
                    }
                  ],
                  "internalType": "struct VerusObjects.CCurrencyValueMap[]",
                  "name": "totalburned",
                  "type": "tuple[]"
                },
                {
                  "components": [
                    {
                      "internalType": "uint8",
                      "name": "destinationtype",
                      "type": "uint8"
                    },
                    {
                      "internalType": "bytes",
                      "name": "destinationaddress",
                      "type": "bytes"
                    }
                  ],
                  "internalType": "struct VerusObjectsCommon.CTransferDestination",
                  "name": "rewardaddress",
                  "type": "tuple"
                },
                {
                  "internalType": "int32",
                  "name": "firstinput",
                  "type": "int32"
                }
              ],
              "internalType": "struct VerusObjects.CCrossChainExport",
              "name": "exportinfo",
              "type": "tuple"
            },
            {
              "components": [
                {
                  "internalType": "uint8",
                  "name": "version",
                  "type": "uint8"
                },
                {
                  "internalType": "uint8",
                  "name": "typeC",
                  "type": "uint8"
                },
                {
                  "components": [
                    {
                      "internalType": "uint8",
                      "name": "branchType",
                      "type": "uint8"
                    },
                    {
                      "components": [
                        {
                          "internalType": "uint8",
                          "name": "CMerkleBranchBase",
                          "type": "uint8"
                        },
                        {
                          "internalType": "uint32",
                          "name": "nIndex",
                          "type": "uint32"
                        },
                        {
                          "internalType": "uint32",
                          "name": "nSize",
                          "type": "uint32"
                        },
                        {
                          "internalType": "bytes32[]",
                          "name": "branch",
                          "type": "bytes32[]"
                        }
                      ],
                      "internalType": "struct VerusObjects.CMerkleBranch",
                      "name": "proofSequence",
                      "type": "tuple"
                    }
                  ],
                  "internalType": "struct VerusObjects.CTXProof[]",
                  "name": "txproof",
                  "type": "tuple[]"
                },
                {
                  "components": [
                    {
                      "internalType": "uint8",
                      "name": "elType",
                      "type": "uint8"
                    },
                    {
                      "internalType": "uint8",
                      "name": "elIdx",
                      "type": "uint8"
                    },
                    {
                      "internalType": "bytes",
                      "name": "elVchObj",
                      "type": "bytes"
                    },
                    {
                      "components": [
                        {
                          "internalType": "uint8",
                          "name": "branchType",
                          "type": "uint8"
                        },
                        {
                          "components": [
                            {
                              "internalType": "uint8",
                              "name": "CMerkleBranchBase",
                              "type": "uint8"
                            },
                            {
                              "internalType": "uint32",
                              "name": "nIndex",
                              "type": "uint32"
                            },
                            {
                              "internalType": "uint32",
                              "name": "nSize",
                              "type": "uint32"
                            },
                            {
                              "internalType": "bytes32[]",
                              "name": "branch",
                              "type": "bytes32[]"
                            }
                          ],
                          "internalType": "struct VerusObjects.CMerkleBranch",
                          "name": "proofSequence",
                          "type": "tuple"
                        }
                      ],
                      "internalType": "struct VerusObjects.CTXProof[]",
                      "name": "elProof",
                      "type": "tuple[]"
                    }
                  ],
                  "internalType": "struct VerusObjects.CComponents[]",
                  "name": "components",
                  "type": "tuple[]"
                }
              ],
              "internalType": "struct VerusObjects.CPtransactionproof",
              "name": "partialtransactionproof",
              "type": "tuple"
            },
            {
              "components": [
                {
                  "internalType": "uint32",
                  "name": "version",
                  "type": "uint32"
                },
                {
                  "components": [
                    {
                      "internalType": "address",
                      "name": "currency",
                      "type": "address"
                    },
                    {
                      "internalType": "uint64",
                      "name": "amount",
                      "type": "uint64"
                    }
                  ],
                  "internalType": "struct VerusObjects.CCurrencyValueMap",
                  "name": "currencyvalue",
                  "type": "tuple"
                },
                {
                  "internalType": "uint32",
                  "name": "flags",
                  "type": "uint32"
                },
                {
                  "internalType": "address",
                  "name": "feecurrencyid",
                  "type": "address"
                },
                {
                  "internalType": "uint256",
                  "name": "fees",
                  "type": "uint256"
                },
                {
                  "components": [
                    {
                      "internalType": "uint8",
                      "name": "destinationtype",
                      "type": "uint8"
                    },
                    {
                      "internalType": "bytes",
                      "name": "destinationaddress",
                      "type": "bytes"
                    }
                  ],
                  "internalType": "struct VerusObjectsCommon.CTransferDestination",
                  "name": "destination",
                  "type": "tuple"
                },
                {
                  "internalType": "address",
                  "name": "destcurrencyid",
                  "type": "address"
                },
                {
                  "internalType": "address",
                  "name": "destsystemid",
                  "type": "address"
                },
                {
                  "internalType": "address",
                  "name": "secondreserveid",
                  "type": "address"
                }
              ],
              "internalType": "struct VerusObjects.CReserveTransfer[]",
              "name": "transfers",
              "type": "tuple[]"
            }
          ],
          "internalType": "struct VerusObjects.CReserveTransferImport[]",
          "name": "_imports",
          "type": "tuple[]"
        }
      ],
      "name": "submitImports",
      "outputs": [],
      "stateMutability": "nonpayable",
      "type": "function"
    },
    {
      "inputs": [
        {
          "components": [
            {
              "internalType": "uint256",
              "name": "height",
              "type": "uint256"
            },
            {
              "internalType": "bytes32",
              "name": "txid",
              "type": "bytes32"
            },
            {
              "internalType": "uint256",
              "name": "txoutnum",
              "type": "uint256"
            },
            {
              "components": [
                {
                  "internalType": "uint16",
                  "name": "version",
                  "type": "uint16"
                },
                {
                  "internalType": "uint16",
                  "name": "flags",
                  "type": "uint16"
                },
                {
                  "internalType": "address",
                  "name": "sourcesystemid",
                  "type": "address"
                },
                {
                  "internalType": "bytes32",
                  "name": "hashtransfers",
                  "type": "bytes32"
                },
                {
                  "internalType": "uint32",
                  "name": "sourceheightstart",
                  "type": "uint32"
                },
                {
                  "internalType": "uint32",
                  "name": "sourceheightend",
                  "type": "uint32"
                },
                {
                  "internalType": "address",
                  "name": "destinationsystemid",
                  "type": "address"
                },
                {
                  "internalType": "address",
                  "name": "destinationcurrencyid",
                  "type": "address"
                },
                {
                  "internalType": "uint32",
                  "name": "numinputs",
                  "type": "uint32"
                },
                {
                  "components": [
                    {
                      "internalType": "address",
                      "name": "currency",
                      "type": "address"
                    },
                    {
                      "internalType": "uint64",
                      "name": "amount",
                      "type": "uint64"
                    }
                  ],
                  "internalType": "struct VerusObjects.CCurrencyValueMap[]",
                  "name": "totalamounts",
                  "type": "tuple[]"
                },
                {
                  "components": [
                    {
                      "internalType": "address",
                      "name": "currency",
                      "type": "address"
                    },
                    {
                      "internalType": "uint64",
                      "name": "amount",
                      "type": "uint64"
                    }
                  ],
                  "internalType": "struct VerusObjects.CCurrencyValueMap[]",
                  "name": "totalfees",
                  "type": "tuple[]"
                },
                {
                  "components": [
                    {
                      "internalType": "address",
                      "name": "currency",
                      "type": "address"
                    },
                    {
                      "internalType": "uint64",
                      "name": "amount",
                      "type": "uint64"
                    }
                  ],
                  "internalType": "struct VerusObjects.CCurrencyValueMap[]",
                  "name": "totalburned",
                  "type": "tuple[]"
                },
                {
                  "components": [
                    {
                      "internalType": "uint8",
                      "name": "destinationtype",
                      "type": "uint8"
                    },
                    {
                      "internalType": "bytes",
                      "name": "destinationaddress",
                      "type": "bytes"
                    }
                  ],
                  "internalType": "struct VerusObjectsCommon.CTransferDestination",
                  "name": "rewardaddress",
                  "type": "tuple"
                },
                {
                  "internalType": "int32",
                  "name": "firstinput",
                  "type": "int32"
                }
              ],
              "internalType": "struct VerusObjects.CCrossChainExport",
              "name": "exportinfo",
              "type": "tuple"
            },
            {
              "components": [
                {
                  "internalType": "uint8",
                  "name": "version",
                  "type": "uint8"
                },
                {
                  "internalType": "uint8",
                  "name": "typeC",
                  "type": "uint8"
                },
                {
                  "components": [
                    {
                      "internalType": "uint8",
                      "name": "branchType",
                      "type": "uint8"
                    },
                    {
                      "components": [
                        {
                          "internalType": "uint8",
                          "name": "CMerkleBranchBase",
                          "type": "uint8"
                        },
                        {
                          "internalType": "uint32",
                          "name": "nIndex",
                          "type": "uint32"
                        },
                        {
                          "internalType": "uint32",
                          "name": "nSize",
                          "type": "uint32"
                        },
                        {
                          "internalType": "bytes32[]",
                          "name": "branch",
                          "type": "bytes32[]"
                        }
                      ],
                      "internalType": "struct VerusObjects.CMerkleBranch",
                      "name": "proofSequence",
                      "type": "tuple"
                    }
                  ],
                  "internalType": "struct VerusObjects.CTXProof[]",
                  "name": "txproof",
                  "type": "tuple[]"
                },
                {
                  "components": [
                    {
                      "internalType": "uint8",
                      "name": "elType",
                      "type": "uint8"
                    },
                    {
                      "internalType": "uint8",
                      "name": "elIdx",
                      "type": "uint8"
                    },
                    {
                      "internalType": "bytes",
                      "name": "elVchObj",
                      "type": "bytes"
                    },
                    {
                      "components": [
                        {
                          "internalType": "uint8",
                          "name": "branchType",
                          "type": "uint8"
                        },
                        {
                          "components": [
                            {
                              "internalType": "uint8",
                              "name": "CMerkleBranchBase",
                              "type": "uint8"
                            },
                            {
                              "internalType": "uint32",
                              "name": "nIndex",
                              "type": "uint32"
                            },
                            {
                              "internalType": "uint32",
                              "name": "nSize",
                              "type": "uint32"
                            },
                            {
                              "internalType": "bytes32[]",
                              "name": "branch",
                              "type": "bytes32[]"
                            }
                          ],
                          "internalType": "struct VerusObjects.CMerkleBranch",
                          "name": "proofSequence",
                          "type": "tuple"
                        }
                      ],
                      "internalType": "struct VerusObjects.CTXProof[]",
                      "name": "elProof",
                      "type": "tuple[]"
                    }
                  ],
                  "internalType": "struct VerusObjects.CComponents[]",
                  "name": "components",
                  "type": "tuple[]"
                }
              ],
              "internalType": "struct VerusObjects.CPtransactionproof",
              "name": "partialtransactionproof",
              "type": "tuple"
            },
            {
              "components": [
                {
                  "internalType": "uint32",
                  "name": "version",
                  "type": "uint32"
                },
                {
                  "components": [
                    {
                      "internalType": "address",
                      "name": "currency",
                      "type": "address"
                    },
                    {
                      "internalType": "uint64",
                      "name": "amount",
                      "type": "uint64"
                    }
                  ],
                  "internalType": "struct VerusObjects.CCurrencyValueMap",
                  "name": "currencyvalue",
                  "type": "tuple"
                },
                {
                  "internalType": "uint32",
                  "name": "flags",
                  "type": "uint32"
                },
                {
                  "internalType": "address",
                  "name": "feecurrencyid",
                  "type": "address"
                },
                {
                  "internalType": "uint256",
                  "name": "fees",
                  "type": "uint256"
                },
                {
                  "components": [
                    {
                      "internalType": "uint8",
                      "name": "destinationtype",
                      "type": "uint8"
                    },
                    {
                      "internalType": "bytes",
                      "name": "destinationaddress",
                      "type": "bytes"
                    }
                  ],
                  "internalType": "struct VerusObjectsCommon.CTransferDestination",
                  "name": "destination",
                  "type": "tuple"
                },
                {
                  "internalType": "address",
                  "name": "destcurrencyid",
                  "type": "address"
                },
                {
                  "internalType": "address",
                  "name": "destsystemid",
                  "type": "address"
                },
                {
                  "internalType": "address",
                  "name": "secondreserveid",
                  "type": "address"
                }
              ],
              "internalType": "struct VerusObjects.CReserveTransfer[]",
              "name": "transfers",
              "type": "tuple[]"
            }
          ],
          "internalType": "struct VerusObjects.CReserveTransferImport",
          "name": "_import",
          "type": "tuple"
        }
      ],
      "name": "_createImports",
      "outputs": [
        {
          "internalType": "bool",
          "name": "",
          "type": "bool"
        }
      ],
      "stateMutability": "nonpayable",
      "type": "function"
    },
    {
      "inputs": [
        {
          "internalType": "uint256",
          "name": "_blockNumber",
          "type": "uint256"
        }
      ],
      "name": "getReadyExportsByBlock",
      "outputs": [
        {
          "components": [
            {
              "internalType": "uint256",
              "name": "position",
              "type": "uint256"
            },
            {
              "internalType": "uint256",
              "name": "blockHeight",
              "type": "uint256"
            },
            {
              "internalType": "bytes32",
              "name": "exportHash",
              "type": "bytes32"
            },
            {
              "components": [
                {
                  "internalType": "uint32",
                  "name": "version",
                  "type": "uint32"
                },
                {
                  "components": [
                    {
                      "internalType": "address",
                      "name": "currency",
                      "type": "address"
                    },
                    {
                      "internalType": "uint64",
                      "name": "amount",
                      "type": "uint64"
                    }
                  ],
                  "internalType": "struct VerusObjects.CCurrencyValueMap",
                  "name": "currencyvalue",
                  "type": "tuple"
                },
                {
                  "internalType": "uint32",
                  "name": "flags",
                  "type": "uint32"
                },
                {
                  "internalType": "address",
                  "name": "feecurrencyid",
                  "type": "address"
                },
                {
                  "internalType": "uint256",
                  "name": "fees",
                  "type": "uint256"
                },
                {
                  "components": [
                    {
                      "internalType": "uint8",
                      "name": "destinationtype",
                      "type": "uint8"
                    },
                    {
                      "internalType": "bytes",
                      "name": "destinationaddress",
                      "type": "bytes"
                    }
                  ],
                  "internalType": "struct VerusObjectsCommon.CTransferDestination",
                  "name": "destination",
                  "type": "tuple"
                },
                {
                  "internalType": "address",
                  "name": "destcurrencyid",
                  "type": "address"
                },
                {
                  "internalType": "address",
                  "name": "destsystemid",
                  "type": "address"
                },
                {
                  "internalType": "address",
                  "name": "secondreserveid",
                  "type": "address"
                }
              ],
              "internalType": "struct VerusObjects.CReserveTransfer[]",
              "name": "transfers",
              "type": "tuple[]"
            }
          ],
          "internalType": "struct VerusObjects.CReserveTransferSet",
          "name": "",
          "type": "tuple"
        }
      ],
      "stateMutability": "view",
      "type": "function",
      "constant": true
    },
    {
      "inputs": [
        {
          "internalType": "uint256",
          "name": "_startBlock",
          "type": "uint256"
        },
        {
          "internalType": "uint256",
          "name": "_endBlock",
          "type": "uint256"
        }
      ],
      "name": "getReadyExportsByRange",
      "outputs": [
        {
          "components": [
            {
              "internalType": "uint256",
              "name": "position",
              "type": "uint256"
            },
            {
              "internalType": "uint256",
              "name": "blockHeight",
              "type": "uint256"
            },
            {
              "internalType": "bytes32",
              "name": "exportHash",
              "type": "bytes32"
            },
            {
              "components": [
                {
                  "internalType": "uint32",
                  "name": "version",
                  "type": "uint32"
                },
                {
                  "components": [
                    {
                      "internalType": "address",
                      "name": "currency",
                      "type": "address"
                    },
                    {
                      "internalType": "uint64",
                      "name": "amount",
                      "type": "uint64"
                    }
                  ],
                  "internalType": "struct VerusObjects.CCurrencyValueMap",
                  "name": "currencyvalue",
                  "type": "tuple"
                },
                {
                  "internalType": "uint32",
                  "name": "flags",
                  "type": "uint32"
                },
                {
                  "internalType": "address",
                  "name": "feecurrencyid",
                  "type": "address"
                },
                {
                  "internalType": "uint256",
                  "name": "fees",
                  "type": "uint256"
                },
                {
                  "components": [
                    {
                      "internalType": "uint8",
                      "name": "destinationtype",
                      "type": "uint8"
                    },
                    {
                      "internalType": "bytes",
                      "name": "destinationaddress",
                      "type": "bytes"
                    }
                  ],
                  "internalType": "struct VerusObjectsCommon.CTransferDestination",
                  "name": "destination",
                  "type": "tuple"
                },
                {
                  "internalType": "address",
                  "name": "destcurrencyid",
                  "type": "address"
                },
                {
                  "internalType": "address",
                  "name": "destsystemid",
                  "type": "address"
                },
                {
                  "internalType": "address",
                  "name": "secondreserveid",
                  "type": "address"
                }
              ],
              "internalType": "struct VerusObjects.CReserveTransfer[]",
              "name": "transfers",
              "type": "tuple[]"
            }
          ],
          "internalType": "struct VerusObjects.CReserveTransferSet[]",
          "name": "",
          "type": "tuple[]"
        }
      ],
      "stateMutability": "view",
      "type": "function",
      "constant": true
    },
    {
      "inputs": [],
      "name": "claimFees",
      "outputs": [
        {
          "internalType": "uint256",
          "name": "",
          "type": "uint256"
        }
      ],
      "stateMutability": "nonpayable",
      "type": "function"
    }
  ],
  "bytecode": "0x60806040526000600560146101000a81548160ff0219169083151502179055506000600755600060085560006009556000600a553480156200004057600080fd5b506040516200621438038062006214833981810160405281019062000066919062000244565b33600560006101000a81548173ffffffffffffffffffffffffffffffffffffffff021916908373ffffffffffffffffffffffffffffffffffffffff16021790555085600260006101000a81548173ffffffffffffffffffffffffffffffffffffffff021916908373ffffffffffffffffffffffffffffffffffffffff160217905550846000806101000a81548173ffffffffffffffffffffffffffffffffffffffff021916908373ffffffffffffffffffffffffffffffffffffffff16021790555083600160006101000a81548173ffffffffffffffffffffffffffffffffffffffff021916908373ffffffffffffffffffffffffffffffffffffffff16021790555082600360006101000a81548173ffffffffffffffffffffffffffffffffffffffff021916908373ffffffffffffffffffffffffffffffffffffffff16021790555081600460006101000a81548173ffffffffffffffffffffffffffffffffffffffff021916908373ffffffffffffffffffffffffffffffffffffffff160217905550806009819055506000600e600001819055506000801b600e600101819055505050505050506200034c565b600081519050620002278162000318565b92915050565b6000815190506200023e8162000332565b92915050565b60008060008060008060c087890312156200025e57600080fd5b60006200026e89828a0162000216565b96505060206200028189828a0162000216565b95505060406200029489828a0162000216565b9450506060620002a789828a0162000216565b9350506080620002ba89828a0162000216565b92505060a0620002cd89828a016200022d565b9150509295509295509295565b6000620002e782620002ee565b9050919050565b600073ffffffffffffffffffffffffffffffffffffffff82169050919050565b6000819050919050565b6200032381620002da565b81146200032f57600080fd5b50565b6200033d816200030e565b81146200034957600080fd5b50565b615eb8806200035c6000396000f3fe6080604052600436106101405760003560e01c80637e0b2492116100b6578063d294f0931161006f578063d294f093146104a9578063d5b91a92146104d4578063e45b909d14610511578063e4804abc1461054e578063e4f30a9f1461058b578063f76b96bb146105b657610140565b80637e0b2492146103675780637e3e661b146103a457806388b2621b146103e95780639deae28414610405578063b85c0acb1461042e578063c17a4eef1461046b57610140565b806332db77231161010857806332db77231461024057806338eb07e11461027d5780633f067b20146102ba57806342ce5011146102e55780634ec18db9146103105780635f2edcbe1461033b57610140565b80630e136b1914610145578063231b02681461017057806326976e3f1461019b5780632a9e72a6146101c6578063327d426314610203575b600080fd5b34801561015157600080fd5b5061015a6105e1565b604051610167919061561e565b60405180910390f35b34801561017c57600080fd5b506101856105f4565b60405161019291906156dc565b60405180910390f35b3480156101a757600080fd5b506101b06105fa565b6040516101bd91906154cf565b60405180910390f35b3480156101d257600080fd5b506101ed60048036038101906101e891906144e2565b610620565b6040516101fa91906156ba565b60405180910390f35b34801561020f57600080fd5b5061022a6004803603810190610225919061438c565b610a13565b604051610237919061561e565b60405180910390f35b34801561024c57600080fd5b5061026760048036038101906102629190614460565b610a33565b604051610274919061561e565b60405180910390f35b34801561028957600080fd5b506102a4600480360381019061029f9190614570565b61100b565b6040516102b191906156dc565b60405180910390f35b3480156102c657600080fd5b506102cf61106a565b6040516102dc91906156dc565b60405180910390f35b3480156102f157600080fd5b506102fa611070565b60405161030791906156dc565b60405180910390f35b34801561031c57600080fd5b50610325611076565b60405161033291906156dc565b60405180910390f35b34801561034757600080fd5b5061035061107c565b60405161035e929190615720565b60405180910390f35b34801561037357600080fd5b5061038e6004803603810190610389919061428f565b61108e565b60405161039b91906156dc565b60405180910390f35b3480156103b057600080fd5b506103cb60048036038101906103c69190614534565b6110a6565b6040516103e099989796959493929190615749565b60405180910390f35b61040360048036038101906103fe91906144a1565b611318565b005b34801561041157600080fd5b5061042c60048036038101906104279190614322565b611c96565b005b34801561043a57600080fd5b50610455600480360381019061045091906142e1565b611cd0565b60405161046291906155aa565b60405180910390f35b34801561047757600080fd5b50610492600480360381019061048d91906144e2565b611dbb565b6040516104a09291906156f7565b60405180910390f35b3480156104b557600080fd5b506104be611dec565b6040516104cb91906156dc565b60405180910390f35b3480156104e057600080fd5b506104fb60048036038101906104f69190614570565b611edc565b60405161050891906156dc565b60405180910390f35b34801561051d57600080fd5b50610538600480360381019061053391906144e2565b611f3b565b6040516105459190615639565b60405180910390f35b34801561055a57600080fd5b5061057560048036038101906105709190614534565b611f5f565b60405161058291906155cc565b60405180910390f35b34801561059757600080fd5b506105a061208e565b6040516105ad91906156dc565b60405180910390f35b3480156105c257600080fd5b506105cb612098565b6040516105d891906156dc565b60405180910390f35b600560149054906101000a900460ff1681565b600a5481565b600660009054906101000a900473ffffffffffffffffffffffffffffffffffffffff1681565b610628612cee565b60006011600084815260200190815260200160002060000154905060006040518060800160405280838152602001858152602001600b848154811061066957fe5b90600052602060002001548152602001600d848154811061068657fe5b90600052602060002001805480602002602001604051908101604052809291908181526020016000905b82821015610a005783829060005260206000209060090201604051806101200160405290816000820160009054906101000a900463ffffffff1663ffffffff1663ffffffff168152602001600182016040518060400160405290816000820160009054906101000a900473ffffffffffffffffffffffffffffffffffffffff1673ffffffffffffffffffffffffffffffffffffffff1673ffffffffffffffffffffffffffffffffffffffff1681526020016000820160149054906101000a900467ffffffffffffffff1667ffffffffffffffff1667ffffffffffffffff168152505081526020016002820160009054906101000a900463ffffffff1663ffffffff1663ffffffff1681526020016002820160049054906101000a900473ffffffffffffffffffffffffffffffffffffffff1673ffffffffffffffffffffffffffffffffffffffff1673ffffffffffffffffffffffffffffffffffffffff16815260200160038201548152602001600482016040518060400160405290816000820160009054906101000a900460ff1660ff1660ff168152602001600182018054600181600116156101000203166002900480601f0160208091040260200160405190810160405280929190818152602001828054600181600116156101000203166002900480156108e25780601f106108b7576101008083540402835291602001916108e2565b820191906000526020600020905b8154815290600101906020018083116108c557829003601f168201915b50505050508152505081526020016006820160009054906101000a900473ffffffffffffffffffffffffffffffffffffffff1673ffffffffffffffffffffffffffffffffffffffff1673ffffffffffffffffffffffffffffffffffffffff1681526020016007820160009054906101000a900473ffffffffffffffffffffffffffffffffffffffff1673ffffffffffffffffffffffffffffffffffffffff1673ffffffffffffffffffffffffffffffffffffffff1681526020016008820160009054906101000a900473ffffffffffffffffffffffffffffffffffffffff1673ffffffffffffffffffffffffffffffffffffffff1673ffffffffffffffffffffffffffffffffffffffff1681525050815260200190600101906106b0565b5050505081525090508092505050919050565b60106020528060005260406000206000915054906101000a900460ff1681565b6000806000836080015160600151600081518110610a4d57fe5b602002602001015160400151905060208101519150600115156010600084815260200190815260200160002060009054906101000a900460ff1615151415610a9a57600092505050611006565b6000600260009054906101000a900473ffffffffffffffffffffffffffffffffffffffff1673ffffffffffffffffffffffffffffffffffffffff16630cd5756d866040518263ffffffff1660e01b8152600401610af79190615698565b60206040518083038186803b158015610b0f57600080fd5b505afa158015610b23573d6000803e3d6000fd5b505050506040513d601f19601f82011682018060405250810190610b479190614363565b905080610b5057fe5b60016010600085815260200190815260200160002060006101000a81548160ff02191690831515021790555084600001516013541015610b965784600001516013819055505b600080600090505b8660a0015151811015610ffc57610bdf8760a001518281518110610bbe57fe5b6020026020010151602001516020015167ffffffffffffffff166012611edc565b915061200063ffffffff166120008860a001518381518110610bfd57fe5b6020026020010151604001511663ffffffff1614610dc6577367460c2f56774ed27eeb8685f29f6cec0b090b0073ffffffffffffffffffffffffffffffffffffffff168760a001518281518110610c5057fe5b6020026020010151602001516000015173ffffffffffffffffffffffffffffffffffffffff161415610ccc5747821115610c8657fe5b610cb782610cb28960a001518481518110610c9d57fe5b602002602001015160a001516020015161209e565b6120ac565b81600860008282540392505081905550610dc1565b60008054906101000a900473ffffffffffffffffffffffffffffffffffffffff1673ffffffffffffffffffffffffffffffffffffffff1663abe900e48860a001518381518110610d1857fe5b602002602001015160200151600001518960a001518481518110610d3857fe5b60200260200101516020015160200151610d708b60a001518681518110610d5b57fe5b602002602001015160a001516020015161209e565b6040518463ffffffff1660e01b8152600401610d8e93929190615573565b600060405180830381600087803b158015610da857600080fd5b505af1158015610dbc573d6000803e3d6000fd5b505050505b610ec4565b600660ff1660068860a001518381518110610ddd57fe5b602002602001015160a00151600001511660ff161415610ec35760008054906101000a900473ffffffffffffffffffffffffffffffffffffffff1673ffffffffffffffffffffffffffffffffffffffff16639257dfee8860a001518381518110610e4357fe5b602002602001015160a00151602001516040518263ffffffff1660e01b8152600401610e6f9190615654565b602060405180830381600087803b158015610e8957600080fd5b505af1158015610e9d573d6000803e3d6000fd5b505050506040513d601f19601f82011682018060405250810190610ec191906142b8565b505b5b60008760a001518281518110610ed657fe5b602002602001015160800151118015610f4957507367460c2f56774ed27eeb8685f29f6cec0b090b0073ffffffffffffffffffffffffffffffffffffffff168760a001518281518110610f2557fe5b60200260200101516060015173ffffffffffffffffffffffffffffffffffffffff16145b15610fef578660a001518181518110610f5e57fe5b602002602001015160800151601260003373ffffffffffffffffffffffffffffffffffffffff1673ffffffffffffffffffffffffffffffffffffffff1681526020019081526020016000205401601260003373ffffffffffffffffffffffffffffffffffffffff1673ffffffffffffffffffffffffffffffffffffffff168152602001908152602001600020819055505b8080600101915050610b9e565b5060019450505050505b919050565b600080600a9050600084905060088460ff161115611040576008840391508160ff16600a0a858161103857fe5b04905061105f565b60088460ff16101561105e578360080391508160ff16600a0a850290505b5b809250505092915050565b60075481565b60085481565b60095481565b600e8060000154908060010154905082565b60126020528060005260406000206000915090505481565b600d82815481106110b657600080fd5b9060005260206000200181815481106110ce57600080fd5b9060005260206000209060090201600091509150508060000160009054906101000a900463ffffffff1690806001016040518060400160405290816000820160009054906101000a900473ffffffffffffffffffffffffffffffffffffffff1673ffffffffffffffffffffffffffffffffffffffff1673ffffffffffffffffffffffffffffffffffffffff1681526020016000820160149054906101000a900467ffffffffffffffff1667ffffffffffffffff1667ffffffffffffffff1681525050908060020160009054906101000a900463ffffffff16908060020160049054906101000a900473ffffffffffffffffffffffffffffffffffffffff1690806003015490806004016040518060400160405290816000820160009054906101000a900460ff1660ff1660ff168152602001600182018054600181600116156101000203166002900480601f0160208091040260200160405190810160405280929190818152602001828054600181600116156101000203166002900480156112985780601f1061126d57610100808354040283529160200191611298565b820191906000526020600020905b81548152906001019060200180831161127b57829003601f168201915b505050505081525050908060060160009054906101000a900473ffffffffffffffffffffffffffffffffffffffff16908060070160009054906101000a900473ffffffffffffffffffffffffffffffffffffffff16908060080160009054906101000a900473ffffffffffffffffffffffffffffffffffffffff16905089565b600560149054906101000a900460ff161561132f57fe5b6000655af3107a400090506000621e848090506011600043815260200190815260200160002060010160009054906101000a900460ff1615611415576000601160004381526020019081526020016000206000015490508360c0015173ffffffffffffffffffffffffffffffffffffffff16600d82815481106113ae57fe5b906000526020600020016000815481106113c457fe5b906000526020600020906009020160060160009054906101000a900473ffffffffffffffffffffffffffffffffffffffff1673ffffffffffffffffffffffffffffffffffffffff161461141357fe5b505b6114278360800151846060015161210e565b1561144457621e84806009600082825403925050819055506117fb565b73a6ef9ea235635e328124ff3429db9f9e91b64e2d73ffffffffffffffffffffffffffffffffffffffff16836060015173ffffffffffffffffffffffffffffffffffffffff1614806114d957507367460c2f56774ed27eeb8685f29f6cec0b090b0073ffffffffffffffffffffffffffffffffffffffff16836060015173ffffffffffffffffffffffffffffffffffffffff16145b6114df57fe5b73a6ef9ea235635e328124ff3429db9f9e91b64e2d73ffffffffffffffffffffffffffffffffffffffff16836060015173ffffffffffffffffffffffffffffffffffffffff16141561178c5760008060009054906101000a900473ffffffffffffffffffffffffffffffffffffffff1673ffffffffffffffffffffffffffffffffffffffff1663f79338de85606001516040518263ffffffff1660e01b815260040161158b91906154cf565b60206040518083038186803b1580156115a357600080fd5b505afa1580156115b7573d6000803e3d6000fd5b505050506040513d601f19601f820116820180604052508101906115db91906143f6565b905060008173ffffffffffffffffffffffffffffffffffffffff1663dd62ed3e33306040518363ffffffff1660e01b815260040161161a9291906154ea565b60206040518083038186803b15801561163257600080fd5b505afa158015611646573d6000803e3d6000fd5b505050506040513d601f19601f8201168201806040525081019061166a919061450b565b9050611677836012611edc565b81101561168057fe5b8173ffffffffffffffffffffffffffffffffffffffff166323b872dd33306116a9876012611edc565b6040518463ffffffff1660e01b81526004016116c793929190615513565b602060405180830381600087803b1580156116e157600080fd5b505af11580156116f5573d6000803e3d6000fd5b505050506040513d601f19601f820116820180604052508101906117199190614363565b508173ffffffffffffffffffffffffffffffffffffffff166342966c68846040518263ffffffff1660e01b815260040161175391906156dc565b600060405180830381600087803b15801561176d57600080fd5b505af1158015611781573d6000803e3d6000fd5b5050505050506117fa565b7367460c2f56774ed27eeb8685f29f6cec0b090b0073ffffffffffffffffffffffffffffffffffffffff16836060015173ffffffffffffffffffffffffffffffffffffffff1614156117f9576003820291506117ed83608001516012611edc565b82013410156117f857fe5b5b5b5b7367460c2f56774ed27eeb8685f29f6cec0b090b0073ffffffffffffffffffffffffffffffffffffffff1683602001516000015173ffffffffffffffffffffffffffffffffffffffff1614611c19573460076000828254019250508190555060008060009054906101000a900473ffffffffffffffffffffffffffffffffffffffff1673ffffffffffffffffffffffffffffffffffffffff1663f79338de8560200151600001516040518263ffffffff1660e01b81526004016118be91906154cf565b60206040518083038186803b1580156118d657600080fd5b505afa1580156118ea573d6000803e3d6000fd5b505050506040513d601f19601f8201168201806040525081019061190e91906143f6565b905060008173ffffffffffffffffffffffffffffffffffffffff1663dd62ed3e33306040518363ffffffff1660e01b815260040161194d9291906154ea565b60206040518083038186803b15801561196557600080fd5b505afa158015611979573d6000803e3d6000fd5b505050506040513d601f19601f8201168201806040525081019061199d919061450b565b90506000611a3a86602001516020015167ffffffffffffffff168473ffffffffffffffffffffffffffffffffffffffff1663313ce5676040518163ffffffff1660e01b815260040160206040518083038186803b1580156119fd57600080fd5b505afa158015611a11573d6000803e3d6000fd5b505050506040513d601f19601f82011682018060405250810190611a3591906145d5565b611edc565b905080821015611a4657fe5b8273ffffffffffffffffffffffffffffffffffffffff166323b872dd3330846040518463ffffffff1660e01b8152600401611a8393929190615513565b602060405180830381600087803b158015611a9d57600080fd5b505af1158015611ab1573d6000803e3d6000fd5b505050506040513d601f19601f82011682018060405250810190611ad59190614363565b508273ffffffffffffffffffffffffffffffffffffffff1663095ea7b360008054906101000a900473ffffffffffffffffffffffffffffffffffffffff16836040518363ffffffff1660e01b8152600401611b3192919061554a565b602060405180830381600087803b158015611b4b57600080fd5b505af1158015611b5f573d6000803e3d6000fd5b505050506040513d601f19601f82011682018060405250810190611b839190614363565b5060008054906101000a900473ffffffffffffffffffffffffffffffffffffffff1673ffffffffffffffffffffffffffffffffffffffff16639033ef3f84836040518363ffffffff1660e01b8152600401611bdf92919061554a565b600060405180830381600087803b158015611bf957600080fd5b505af1158015611c0d573d6000803e3d6000fd5b50505050505050611c88565b611c2c655af3107a40003403601261100b565b83602001516020019067ffffffffffffffff16908167ffffffffffffffff168152505082602001516020015167ffffffffffffffff16600860008282540192505081905550655af3107a40006007600082825401925050819055505b611c918361231b565b505050565b60005b8151811015611ccc57611cbe828281518110611cb157fe5b6020026020010151610a33565b508080600101915050611c99565b5050565b60606000825167ffffffffffffffff81118015611cec57600080fd5b50604051908082528060200260200182016040528015611d1b5781602001602082028036833780820191505090505b509050600080600090505b8451811015611db0576001151560106000878481518110611d4357fe5b6020026020010151815260200190815260200160002060009054906101000a900460ff16151514611da357848181518110611d7a57fe5b6020026020010151838381518110611d8e57fe5b60200260200101818152505081806001019250505b8080600101915050611d26565b508192505050919050565b60116020528060005260406000206000915090508060000154908060010160009054906101000a900460ff16905082565b6000600560149054906101000a900460ff1615611e0557fe5b6000601260003373ffffffffffffffffffffffffffffffffffffffff1673ffffffffffffffffffffffffffffffffffffffff168152602001908152602001600020541115611e9757611e96601260003373ffffffffffffffffffffffffffffffffffffffff1673ffffffffffffffffffffffffffffffffffffffff16815260200190815260200160002054336120ac565b5b601260003373ffffffffffffffffffffffffffffffffffffffff1673ffffffffffffffffffffffffffffffffffffffff16815260200190815260200160002054905090565b600080600a9050600084905060088460ff161115611f0a576008840391508160ff16600a0a85029050611f30565b60088460ff161015611f2f578360080391508160ff16600a0a8581611f2b57fe5b0490505b5b809250505092915050565b600b8181548110611f4b57600080fd5b906000526020600020016000915090505481565b60606000600a54841015611f7357600a5493505b60008490505b838111611fbd576011600082815260200190815260200160002060010160009054906101000a900460ff1615611fb0576001820191505b8080600101915050611f79565b5060008167ffffffffffffffff81118015611fd757600080fd5b5060405190808252806020026020018201604052801561201157816020015b611ffe612cee565b815260200190600190039081611ff65790505b5090506000808690505b858111612081576011600082815260200190815260200160002060010160009054906101000a900460ff16156120745761205481610620565b83838151811061206057fe5b602002602001018190525081806001019250505b808060010191505061201b565b5081935050505092915050565b6000601354905090565b60135481565b600060148201519050919050565b600560149054906101000a900460ff16156120c357fe5b8073ffffffffffffffffffffffffffffffffffffffff166108fc839081150290604051600060405180830381858888f19350505050158015612109573d6000803e3d6000fd5b505050565b6000600360009054906101000a900473ffffffffffffffffffffffffffffffffffffffff1673ffffffffffffffffffffffffffffffffffffffff16630bd4cec373ffece948b8a38bbcc813411d2597f7f8485a06896040518263ffffffff1660e01b815260040161217f91906154cf565b60206040518083038186803b15801561219757600080fd5b505afa1580156121ab573d6000803e3d6000fd5b505050506040513d601f19601f820116820180604052508101906121cf91906145ac565b63ffffffff1660001080156122ad57504363ffffffff16600360009054906101000a900473ffffffffffffffffffffffffffffffffffffffff1673ffffffffffffffffffffffffffffffffffffffff16630bd4cec373ffece948b8a38bbcc813411d2597f7f8485a06896040518263ffffffff1660e01b815260040161225591906154cf565b60206040518083038186803b15801561226d57600080fd5b505afa158015612281573d6000803e3d6000fd5b505050506040513d601f19601f820116820180604052508101906122a591906145ac565b63ffffffff16105b156122bb5760009050612315565b73a6ef9ea235635e328124ff3429db9f9e91b64e2d73ffffffffffffffffffffffffffffffffffffffff168273ffffffffffffffffffffffffffffffffffffffff161461230457fe5b82600954101561231057fe5b600190505b92915050565b60004390506000806011600084815260200190815260200160002060010160009054906101000a900460ff16156125f05760116000848152602001908152602001600020600001549150600d828154811061237257fe5b9060005260206000200184908060018154018082558091505060019003906000526020600020906009020160009091909190915060008201518160000160006101000a81548163ffffffff021916908363ffffffff16021790555060208201518160010160008201518160000160006101000a81548173ffffffffffffffffffffffffffffffffffffffff021916908373ffffffffffffffffffffffffffffffffffffffff16021790555060208201518160000160146101000a81548167ffffffffffffffff021916908367ffffffffffffffff160217905550505060408201518160020160006101000a81548163ffffffff021916908363ffffffff16021790555060608201518160020160046101000a81548173ffffffffffffffffffffffffffffffffffffffff021916908373ffffffffffffffffffffffffffffffffffffffff1602179055506080820151816003015560a08201518160040160008201518160000160006101000a81548160ff021916908360ff160217905550602082015181600101908051906020019061250c929190612d19565b50505060c08201518160060160006101000a81548173ffffffffffffffffffffffffffffffffffffffff021916908373ffffffffffffffffffffffffffffffffffffffff16021790555060e08201518160070160006101000a81548173ffffffffffffffffffffffffffffffffffffffff021916908373ffffffffffffffffffffffffffffffffffffffff1602179055506101008201518160080160006101000a81548173ffffffffffffffffffffffffffffffffffffffff021916908373ffffffffffffffffffffffffffffffffffffffff160217905550505060009050612908565b600c84908060018154018082558091505060019003906000526020600020906009020160009091909190915060008201518160000160006101000a81548163ffffffff021916908363ffffffff16021790555060208201518160010160008201518160000160006101000a81548173ffffffffffffffffffffffffffffffffffffffff021916908373ffffffffffffffffffffffffffffffffffffffff16021790555060208201518160000160146101000a81548167ffffffffffffffff021916908367ffffffffffffffff160217905550505060408201518160020160006101000a81548163ffffffff021916908363ffffffff16021790555060608201518160020160046101000a81548173ffffffffffffffffffffffffffffffffffffffff021916908373ffffffffffffffffffffffffffffffffffffffff1602179055506080820151816003015560a08201518160040160008201518160000160006101000a81548160ff021916908360ff1602179055506020820151816001019080519060200190612782929190612d19565b50505060c08201518160060160006101000a81548173ffffffffffffffffffffffffffffffffffffffff021916908373ffffffffffffffffffffffffffffffffffffffff16021790555060e08201518160070160006101000a81548173ffffffffffffffffffffffffffffffffffffffff021916908373ffffffffffffffffffffffffffffffffffffffff1602179055506101008201518160080160006101000a81548173ffffffffffffffffffffffffffffffffffffffff021916908373ffffffffffffffffffffffffffffffffffffffff1602179055505050600d805490509150600d600c9080600181540180825580915050600190039060005260206000200160009091909190915090805461289c929190612da7565b50604051806040016040528083815260200160011515815250601160008581526020019081526020016000206000820151816000015560208201518160010160006101000a81548160ff021916908315150217905550905050600c60006129039190613127565b600190505b6000600360009054906101000a900473ffffffffffffffffffffffffffffffffffffffff1673ffffffffffffffffffffffffffffffffffffffff16630bd4cec373ffece948b8a38bbcc813411d2597f7f8485a06896040518263ffffffff1660e01b815260040161297991906154cf565b60206040518083038186803b15801561299157600080fd5b505afa1580156129a5573d6000803e3d6000fd5b505050506040513d601f19601f820116820180604052508101906129c991906145ac565b63ffffffff166000108015612aa757504363ffffffff16600360009054906101000a900473ffffffffffffffffffffffffffffffffffffffff1673ffffffffffffffffffffffffffffffffffffffff16630bd4cec373ffece948b8a38bbcc813411d2597f7f8485a06896040518263ffffffff1660e01b8152600401612a4f91906154cf565b60206040518083038186803b158015612a6757600080fd5b505afa158015612a7b573d6000803e3d6000fd5b505050506040513d601f19601f82011682018060405250810190612a9f91906145ac565b63ffffffff16105b90506000600160009054906101000a900473ffffffffffffffffffffffffffffffffffffffff1673ffffffffffffffffffffffffffffffffffffffff16636003992a600460009054906101000a900473ffffffffffffffffffffffffffffffffffffffff1673ffffffffffffffffffffffffffffffffffffffff1663bb6ff4b6600d8881548110612b3457fe5b90600052602060002001866040518363ffffffff1660e01b8152600401612b5c9291906155ee565b600060405180830381600087803b158015612b7657600080fd5b505af1158015612b8a573d6000803e3d6000fd5b505050506040513d6000823e3d601f19601f82011682018060405250810190612bb3919061441f565b6040518263ffffffff1660e01b8152600401612bcf9190615676565b60006040518083038186803b158015612be757600080fd5b505afa158015612bfb573d6000803e3d6000fd5b505050506040513d6000823e3d601f19601f82011682018060405250810190612c2491906143b5565b90506000806000801b905060008614612c5557600b6001870381548110612c4757fe5b906000526020600020015490505b8281604051602001612c689291906154a7565b6040516020818303038152906040528051906020012091508415612cb457600b829080600181540180825580915050600190039060005260206000200160009091909190915055612cd1565b81600b8781548110612cc257fe5b90600052602060002001819055505b6000600a541415612ce45786600a819055505b5050505050505050565b6040518060800160405280600081526020016000815260200160008019168152602001606081525090565b828054600181600116156101000203166002900490600052602060002090601f016020900481019282612d4f5760008555612d96565b82601f10612d6857805160ff1916838001178555612d96565b82800160010185558215612d96579182015b82811115612d95578251825591602001919060010190612d7a565b5b509050612da3919061314b565b5090565b8280548282559060005260206000209060090281019282156131165760005260206000209160090282015b828111156131155782826000820160009054906101000a900463ffffffff168160000160006101000a81548163ffffffff021916908363ffffffff16021790555060018201816001016000820160009054906101000a900473ffffffffffffffffffffffffffffffffffffffff168160000160006101000a81548173ffffffffffffffffffffffffffffffffffffffff021916908373ffffffffffffffffffffffffffffffffffffffff1602179055506000820160149054906101000a900467ffffffffffffffff168160000160146101000a81548167ffffffffffffffff021916908367ffffffffffffffff16021790555050506002820160009054906101000a900463ffffffff168160020160006101000a81548163ffffffff021916908363ffffffff1602179055506002820160049054906101000a900473ffffffffffffffffffffffffffffffffffffffff168160020160046101000a81548173ffffffffffffffffffffffffffffffffffffffff021916908373ffffffffffffffffffffffffffffffffffffffff1602179055506003820154816003015560048201816004016000820160009054906101000a900460ff168160000160006101000a81548160ff021916908360ff16021790555060018201816001019080546001816001161561010002031660029004612fcc929190613168565b5050506006820160009054906101000a900473ffffffffffffffffffffffffffffffffffffffff168160060160006101000a81548173ffffffffffffffffffffffffffffffffffffffff021916908373ffffffffffffffffffffffffffffffffffffffff1602179055506007820160009054906101000a900473ffffffffffffffffffffffffffffffffffffffff168160070160006101000a81548173ffffffffffffffffffffffffffffffffffffffff021916908373ffffffffffffffffffffffffffffffffffffffff1602179055506008820160009054906101000a900473ffffffffffffffffffffffffffffffffffffffff168160080160006101000a81548173ffffffffffffffffffffffffffffffffffffffff021916908373ffffffffffffffffffffffffffffffffffffffff160217905550505091600901919060090190612dd2565b5b50905061312391906131fd565b5090565b508054600082556009029060005260206000209081019061314891906131fd565b50565b5b8082111561316457600081600090555060010161314c565b5090565b828054600181600116156101000203166002900490600052602060002090601f01602090048101928261319e57600085556131ec565b82601f106131af57805485556131ec565b828001600101855582156131ec57600052602060002091601f016020900482015b828111156131eb5782548255916001019190600101906131d0565b5b5090506131f9919061314b565b5090565b5b8082111561335657600080820160006101000a81549063ffffffff021916905560018201600080820160006101000a81549073ffffffffffffffffffffffffffffffffffffffff02191690556000820160146101000a81549067ffffffffffffffff021916905550506002820160006101000a81549063ffffffff02191690556002820160046101000a81549073ffffffffffffffffffffffffffffffffffffffff0219169055600382016000905560048201600080820160006101000a81549060ff02191690556001820160006132d6919061335a565b50506006820160006101000a81549073ffffffffffffffffffffffffffffffffffffffff02191690556007820160006101000a81549073ffffffffffffffffffffffffffffffffffffffff02191690556008820160006101000a81549073ffffffffffffffffffffffffffffffffffffffff0219169055506009016131fe565b5090565b50805460018160011615610100020316600290046000825580601f10613380575061339f565b601f01602090049060005260206000209081019061339e919061314b565b5b50565b60006133b56133b08461580f565b6157de565b905080838252602082019050828560208602820111156133d457600080fd5b60005b8581101561340457816133ea888261383b565b8452602084019350602083019250506001810190506133d7565b5050509392505050565b600061342161341c8461583b565b6157de565b9050808382526020820190508260005b85811015613461578135850161344788826138f8565b845260208401935060208301925050600181019050613431565b5050509392505050565b600061347e61347984615867565b6157de565b9050808382526020820190508285604086028201111561349d57600080fd5b60005b858110156134cd57816134b38882613cf0565b8452602084019350604083019250506001810190506134a0565b5050509392505050565b60006134ea6134e584615867565b6157de565b9050808382526020820190508285604086028201111561350957600080fd5b60005b85811015613539578161351f8882613d3c565b84526020840193506040830192505060018101905061350c565b5050509392505050565b600061355661355184615893565b6157de565b9050808382526020820190508260005b85811015613596578135850161357c8882613eb8565b845260208401935060208301925050600181019050613566565b5050509392505050565b60006135b36135ae846158bf565b6157de565b9050808382526020820190508260005b858110156135f357813585016135d98882613f9c565b8452602084019350602083019250506001810190506135c3565b5050509392505050565b600061361061360b846158eb565b6157de565b9050808382526020820190508260005b8581101561365057813585016136368882614091565b845260208401935060208301925050600181019050613620565b5050509392505050565b600061366d61366884615917565b6157de565b90508281526020810184848401111561368557600080fd5b613690848285615c7a565b509392505050565b60006136ab6136a684615917565b6157de565b9050828152602081018484840111156136c357600080fd5b6136ce848285615c89565b509392505050565b6000813590506136e581615d9c565b92915050565b6000815190506136fa81615d9c565b92915050565b600082601f83011261371157600080fd5b81356137218482602086016133a2565b91505092915050565b600082601f83011261373b57600080fd5b813561374b84826020860161340e565b91505092915050565b600082601f83011261376557600080fd5b813561377584826020860161346b565b91505092915050565b600082601f83011261378f57600080fd5b815161379f8482602086016134d7565b91505092915050565b600082601f8301126137b957600080fd5b81356137c9848260208601613543565b91505092915050565b600082601f8301126137e357600080fd5b81356137f38482602086016135a0565b91505092915050565b600082601f83011261380d57600080fd5b813561381d8482602086016135fd565b91505092915050565b60008151905061383581615db3565b92915050565b60008135905061384a81615dca565b92915050565b60008151905061385f81615dca565b92915050565b600082601f83011261387657600080fd5b813561388684826020860161365a565b91505092915050565b600082601f8301126138a057600080fd5b81516138b0848260208601613698565b91505092915050565b6000815190506138c881615de1565b92915050565b6000813590506138dd81615df8565b92915050565b6000815190506138f281615df8565b92915050565b60006080828403121561390a57600080fd5b61391460806157de565b9050600061392484828501614265565b600083015250602061393884828501614265565b602083015250604082013567ffffffffffffffff81111561395857600080fd5b61396484828501613865565b604083015250606082013567ffffffffffffffff81111561398457600080fd5b613990848285016137fc565b60608301525092915050565b60006101c082840312156139af57600080fd5b6139ba6101c06157de565b905060006139ca848285016141bd565b60008301525060206139de848285016141bd565b60208301525060406139f2848285016136d6565b6040830152506060613a068482850161383b565b6060830152506080613a1a84828501614211565b60808301525060a0613a2e84828501614211565b60a08301525060c0613a42848285016136d6565b60c08301525060e0613a56848285016136d6565b60e083015250610100613a6b84828501614211565b6101008301525061012082013567ffffffffffffffff811115613a8d57600080fd5b613a9984828501613754565b6101208301525061014082013567ffffffffffffffff811115613abb57600080fd5b613ac784828501613754565b6101408301525061016082013567ffffffffffffffff811115613ae957600080fd5b613af584828501613754565b6101608301525061018082013567ffffffffffffffff811115613b1757600080fd5b613b23848285016140f5565b610180830152506101a0613b39848285016138ce565b6101a08301525092915050565b60006101c08284031215613b5957600080fd5b613b646101c06157de565b90506000613b74848285016141d2565b6000830152506020613b88848285016141d2565b6020830152506040613b9c848285016136eb565b6040830152506060613bb084828501613850565b6060830152506080613bc484828501614226565b60808301525060a0613bd884828501614226565b60a08301525060c0613bec848285016136eb565b60c08301525060e0613c00848285016136eb565b60e083015250610100613c1584828501614226565b6101008301525061012082015167ffffffffffffffff811115613c3757600080fd5b613c438482850161377e565b6101208301525061014082015167ffffffffffffffff811115613c6557600080fd5b613c718482850161377e565b6101408301525061016082015167ffffffffffffffff811115613c9357600080fd5b613c9f8482850161377e565b6101608301525061018082015167ffffffffffffffff811115613cc157600080fd5b613ccd84828501614159565b610180830152506101a0613ce3848285016138e3565b6101a08301525092915050565b600060408284031215613d0257600080fd5b613d0c60406157de565b90506000613d1c848285016136d6565b6000830152506020613d308482850161423b565b60208301525092915050565b600060408284031215613d4e57600080fd5b613d5860406157de565b90506000613d68848285016136eb565b6000830152506020613d7c84828501614250565b60208301525092915050565b600060808284031215613d9a57600080fd5b613da460806157de565b90506000613db484828501614265565b6000830152506020613dc884828501614211565b6020830152506040613ddc84828501614211565b604083015250606082013567ffffffffffffffff811115613dfc57600080fd5b613e0884828501613700565b60608301525092915050565b600060808284031215613e2657600080fd5b613e3060806157de565b90506000613e4084828501614265565b6000830152506020613e5484828501614265565b602083015250604082013567ffffffffffffffff811115613e7457600080fd5b613e80848285016137fc565b604083015250606082013567ffffffffffffffff811115613ea057600080fd5b613eac8482850161372a565b60608301525092915050565b600060c08284031215613eca57600080fd5b613ed460c06157de565b90506000613ee4848285016141e7565b6000830152506020613ef88482850161383b565b6020830152506040613f0c848285016141e7565b604083015250606082013567ffffffffffffffff811115613f2c57600080fd5b613f388482850161399c565b606083015250608082013567ffffffffffffffff811115613f5857600080fd5b613f6484828501613e14565b60808301525060a082013567ffffffffffffffff811115613f8457600080fd5b613f90848285016137d2565b60a08301525092915050565b60006101408284031215613faf57600080fd5b613fba6101206157de565b90506000613fca84828501614211565b6000830152506020613fde84828501613cf0565b6020830152506060613ff284828501614211565b6040830152506080614006848285016136d6565b60608301525060a061401a848285016141e7565b60808301525060c082013567ffffffffffffffff81111561403a57600080fd5b614046848285016140f5565b60a08301525060e061405a848285016136d6565b60c08301525061010061406f848285016136d6565b60e083015250610120614084848285016136d6565b6101008301525092915050565b6000604082840312156140a357600080fd5b6140ad60406157de565b905060006140bd84828501614265565b600083015250602082013567ffffffffffffffff8111156140dd57600080fd5b6140e984828501613d88565b60208301525092915050565b60006040828403121561410757600080fd5b61411160406157de565b9050600061412184828501614265565b600083015250602082013567ffffffffffffffff81111561414157600080fd5b61414d84828501613865565b60208301525092915050565b60006040828403121561416b57600080fd5b61417560406157de565b905060006141858482850161427a565b600083015250602082015167ffffffffffffffff8111156141a557600080fd5b6141b18482850161388f565b60208301525092915050565b6000813590506141cc81615e0f565b92915050565b6000815190506141e181615e0f565b92915050565b6000813590506141f681615e26565b92915050565b60008151905061420b81615e26565b92915050565b60008135905061422081615e3d565b92915050565b60008151905061423581615e3d565b92915050565b60008135905061424a81615e54565b92915050565b60008151905061425f81615e54565b92915050565b60008135905061427481615e6b565b92915050565b60008151905061428981615e6b565b92915050565b6000602082840312156142a157600080fd5b60006142af848285016136d6565b91505092915050565b6000602082840312156142ca57600080fd5b60006142d8848285016136eb565b91505092915050565b6000602082840312156142f357600080fd5b600082013567ffffffffffffffff81111561430d57600080fd5b61431984828501613700565b91505092915050565b60006020828403121561433457600080fd5b600082013567ffffffffffffffff81111561434e57600080fd5b61435a848285016137a8565b91505092915050565b60006020828403121561437557600080fd5b600061438384828501613826565b91505092915050565b60006020828403121561439e57600080fd5b60006143ac8482850161383b565b91505092915050565b6000602082840312156143c757600080fd5b600082015167ffffffffffffffff8111156143e157600080fd5b6143ed8482850161388f565b91505092915050565b60006020828403121561440857600080fd5b6000614416848285016138b9565b91505092915050565b60006020828403121561443157600080fd5b600082015167ffffffffffffffff81111561444b57600080fd5b61445784828501613b46565b91505092915050565b60006020828403121561447257600080fd5b600082013567ffffffffffffffff81111561448c57600080fd5b61449884828501613eb8565b91505092915050565b6000602082840312156144b357600080fd5b600082013567ffffffffffffffff8111156144cd57600080fd5b6144d984828501613f9c565b91505092915050565b6000602082840312156144f457600080fd5b6000614502848285016141e7565b91505092915050565b60006020828403121561451d57600080fd5b600061452b848285016141fc565b91505092915050565b6000806040838503121561454757600080fd5b6000614555858286016141e7565b9250506020614566858286016141e7565b9150509250929050565b6000806040838503121561458357600080fd5b6000614591858286016141e7565b92505060206145a285828601614265565b9150509250929050565b6000602082840312156145be57600080fd5b60006145cc84828501614226565b91505092915050565b6000602082840312156145e757600080fd5b60006145f58482850161427a565b91505092915050565b600061460a8383614a30565b60208301905092915050565b60006146228383614ba6565b905092915050565b60006146368383614e96565b60408301905092915050565b600061464e8383615098565b905092915050565b6000614662838361515e565b905092915050565b60006146768383615224565b905092915050565b600061468a838361532f565b905092915050565b61469b81615c44565b82525050565b6146aa81615b94565b82525050565b6146b981615b94565b82525050565b60006146ca826159d1565b6146d48185615a84565b93506146df83615947565b8060005b838110156147105781516146f788826145fe565b975061470283615a29565b9250506001810190506146e3565b5085935050505092915050565b6000614728826159d1565b6147328185615a95565b935061473d83615947565b8060005b8381101561476e57815161475588826145fe565b975061476083615a29565b925050600181019050614741565b5085935050505092915050565b6000614786826159dc565b6147908185615aa6565b9350836020820285016147a285615957565b8060005b858110156147de57848403895281516147bf8582614616565b94506147ca83615a36565b925060208a019950506001810190506147a6565b50829750879550505050505092915050565b60006147fb826159e7565b6148058185615ab7565b935061481083615967565b8060005b83811015614841578151614828888261462a565b975061483383615a43565b925050600181019050614814565b5085935050505092915050565b6000614859826159f2565b6148638185615ac8565b93508360208202850161487585615977565b8060005b858110156148b157848403895281516148928582614642565b945061489d83615a50565b925060208a01995050600181019050614879565b50829750879550505050505092915050565b60006148ce826159fd565b6148d88185615ad9565b9350836020820285016148ea85615987565b8060005b8581101561492657848403895281516149078582614656565b945061491283615a5d565b925060208a019950506001810190506148ee565b50829750879550505050505092915050565b600061494382615a08565b61494d8185615aea565b93508360208202850161495f85615997565b8060005b8581101561499a5784840389528161497b858261466a565b945061498683615a6a565b925060208a01995050600181019050614963565b50829750879550505050505092915050565b60006149b782615a13565b6149c18185615afb565b9350836020820285016149d3856159ac565b8060005b85811015614a0f57848403895281516149f0858261467e565b94506149fb83615a77565b925060208a019950506001810190506149d7565b50829750879550505050505092915050565b614a2a81615ba6565b82525050565b614a3981615bb2565b82525050565b614a4881615bb2565b82525050565b614a5f614a5a82615bb2565b615d58565b82525050565b6000614a7082615a1e565b614a7a8185615b0c565b9350614a8a818560208601615c89565b614a9381615d64565b840191505092915050565b6000614aa982615a1e565b614ab38185615b1d565b9350614ac3818560208601615c89565b614acc81615d64565b840191505092915050565b6000614ae282615a1e565b614aec8185615b2e565b9350614afc818560208601615c89565b80840191505092915050565b600081546001811660008114614b255760018114614b4b57614b8f565b607f6002830416614b368187615b0c565b955060ff198316865260208601935050614b8f565b60028204614b598187615b0c565b9550614b64856159bc565b60005b82811015614b8657815481890152600182019150602081019050614b67565b80880195505050505b505092915050565b614ba081615bce565b82525050565b6000608083016000830151614bbe6000860182615498565b506020830151614bd16020860182615498565b5060408301518482036040860152614be98282614a65565b91505060608301518482036060860152614c0382826149ac565b9150508091505092915050565b60006101c083016000830151614c29600086018261542f565b506020830151614c3c602086018261542f565b506040830151614c4f60408601826146a1565b506060830151614c626060860182614a30565b506080830151614c75608086018261545c565b5060a0830151614c8860a086018261545c565b5060c0830151614c9b60c08601826146a1565b5060e0830151614cae60e08601826146a1565b50610100830151614cc361010086018261545c565b50610120830151848203610120860152614cdd82826147f0565b915050610140830151848203610140860152614cf982826147f0565b915050610160830151848203610160860152614d1582826147f0565b915050610180830151848203610180860152614d31828261536c565b9150506101a0830151614d486101a0860182614b97565b508091505092915050565b60006101c083016000830151614d6c600086018261542f565b506020830151614d7f602086018261542f565b506040830151614d9260408601826146a1565b506060830151614da56060860182614a30565b506080830151614db8608086018261545c565b5060a0830151614dcb60a086018261545c565b5060c0830151614dde60c08601826146a1565b5060e0830151614df160e08601826146a1565b50610100830151614e0661010086018261545c565b50610120830151848203610120860152614e2082826147f0565b915050610140830151848203610140860152614e3c82826147f0565b915050610160830151848203610160860152614e5882826147f0565b915050610180830151848203610180860152614e74828261536c565b9150506101a0830151614e8b6101a0860182614b97565b508091505092915050565b604082016000820151614eac60008501826146a1565b506020820151614ebf602085018261547a565b50505050565b604082016000820151614edb60008501826146a1565b506020820151614eee602085018261547a565b50505050565b604082016000808301549050614f0981615cbc565b614f1660008601826146a1565b50614f2081615d24565b614f2d602086018261547a565b5050505050565b6000608083016000830151614f4c6000860182615498565b506020830151614f5f602086018261545c565b506040830151614f72604086018261545c565b5060608301518482036060860152614f8a82826146bf565b9150508091505092915050565b6000608083016000830151614faf6000860182615498565b506020830151614fc26020860182615498565b5060408301518482036040860152614fda82826149ac565b91505060608301518482036060860152614ff4828261477b565b9150508091505092915050565b600060c083016000830151615019600086018261543e565b50602083015161502c6020860182614a30565b50604083015161503f604086018261543e565b50606083015184820360608601526150578282614c10565b915050608083015184820360808601526150718282614f97565b91505060a083015184820360a086015261508b82826148c3565b9150508091505092915050565b60006080830160008301516150b0600086018261543e565b5060208301516150c3602086018261543e565b5060408301516150d66040860182614a30565b50606083015184820360608601526150ee82826148c3565b9150508091505092915050565b6000608083016000830151615113600086018261543e565b506020830151615126602086018261543e565b5060408301516151396040860182614a30565b506060830151848203606086015261515182826148c3565b9150508091505092915050565b600061014083016000830151615177600086018261545c565b50602083015161518a6020860182614e96565b50604083015161519d606086018261545c565b5060608301516151b060808601826146a1565b5060808301516151c360a086018261543e565b5060a083015184820360c08601526151db828261536c565b91505060c08301516151f060e08601826146a1565b5060e08301516152046101008601826146a1565b506101008301516152196101208601826146a1565b508091505092915050565b60006101408301600080840154905061523c81615cf0565b615249600087018261545c565b506001840161525b6020870182614ef4565b506002840154905061526c81615cf0565b615279606087018261545c565b5061528381615d3e565b61529060808701826146a1565b50600384015490506152a181615cd6565b6152ae60a087018261543e565b506004840185830360c08701526152c583826153e6565b925050600684015490506152d881615cbc565b6152e560e08701826146a1565b50600784015490506152f681615cbc565b6153046101008701826146a1565b506008840154905061531581615cbc565b6153236101208701826146a1565b50819250505092915050565b60006040830160008301516153476000860182615498565b506020830151848203602086015261535f8282614f34565b9150508091505092915050565b60006040830160008301516153846000860182615498565b506020830151848203602086015261539c8282614a65565b9150508091505092915050565b60006040830160008301516153c16000860182615498565b50602083015184820360208601526153d98282614a65565b9150508091505092915050565b60006040830160008084015490506153fd81615d0a565b61540a6000870182615498565b506001840185830360208701526154218382614b08565b925050819250505092915050565b61543881615bdb565b82525050565b61544781615c09565b82525050565b61545681615c09565b82525050565b61546581615c13565b82525050565b61547481615c13565b82525050565b61548381615c23565b82525050565b61549281615c23565b82525050565b6154a181615c37565b82525050565b60006154b38285614ad7565b91506154bf8284614a4e565b6020820191508190509392505050565b60006020820190506154e460008301846146b0565b92915050565b60006040820190506154ff6000830185614692565b61550c60208301846146b0565b9392505050565b60006060820190506155286000830186614692565b61553560208301856146b0565b615542604083018461544d565b949350505050565b600060408201905061555f60008301856146b0565b61556c602083018461544d565b9392505050565b600060608201905061558860008301866146b0565b6155956020830185615489565b6155a260408301846146b0565b949350505050565b600060208201905081810360008301526155c4818461471d565b905092915050565b600060208201905081810360008301526155e6818461484e565b905092915050565b600060408201905081810360008301526156088185614938565b90506156176020830184614a21565b9392505050565b60006020820190506156336000830184614a21565b92915050565b600060208201905061564e6000830184614a3f565b92915050565b6000602082019050818103600083015261566e8184614a9e565b905092915050565b600060208201905081810360008301526156908184614d53565b905092915050565b600060208201905081810360008301526156b28184615001565b905092915050565b600060208201905081810360008301526156d481846150fb565b905092915050565b60006020820190506156f1600083018461544d565b92915050565b600060408201905061570c600083018561544d565b6157196020830184614a21565b9392505050565b6000604082019050615735600083018561544d565b6157426020830184614a3f565b9392505050565b60006101408201905061575f600083018c61546b565b61576c602083018b614ec5565b615779606083018a61546b565b61578660808301896146b0565b61579360a083018861544d565b81810360c08301526157a581876153a9565b90506157b460e08301866146b0565b6157c26101008301856146b0565b6157d06101208301846146b0565b9a9950505050505050505050565b6000604051905081810181811067ffffffffffffffff8211171561580557615804615d62565b5b8060405250919050565b600067ffffffffffffffff82111561582a57615829615d62565b5b602082029050602081019050919050565b600067ffffffffffffffff82111561585657615855615d62565b5b602082029050602081019050919050565b600067ffffffffffffffff82111561588257615881615d62565b5b602082029050602081019050919050565b600067ffffffffffffffff8211156158ae576158ad615d62565b5b602082029050602081019050919050565b600067ffffffffffffffff8211156158da576158d9615d62565b5b602082029050602081019050919050565b600067ffffffffffffffff82111561590657615905615d62565b5b602082029050602081019050919050565b600067ffffffffffffffff82111561593257615931615d62565b5b601f19601f8301169050602081019050919050565b6000819050602082019050919050565b6000819050602082019050919050565b6000819050602082019050919050565b6000819050602082019050919050565b6000819050602082019050919050565b60008190508160005260206000209050919050565b6000819050602082019050919050565b60008190508160005260206000209050919050565b600081519050919050565b600081519050919050565b600081519050919050565b600081519050919050565b600081519050919050565b600081549050919050565b600081519050919050565b600081519050919050565b6000602082019050919050565b6000602082019050919050565b6000602082019050919050565b6000602082019050919050565b6000602082019050919050565b6000600982019050919050565b6000602082019050919050565b600082825260208201905092915050565b600082825260208201905092915050565b600082825260208201905092915050565b600082825260208201905092915050565b600082825260208201905092915050565b600082825260208201905092915050565b600082825260208201905092915050565b600082825260208201905092915050565b600082825260208201905092915050565b600082825260208201905092915050565b600081905092915050565b600073ffffffffffffffffffffffffffffffffffffffff82169050919050565b6000819050919050565b600063ffffffff82169050919050565b600067ffffffffffffffff82169050919050565b600060ff82169050919050565b6000615b9f82615be9565b9050919050565b60008115159050919050565b6000819050919050565b6000615bc782615b94565b9050919050565b60008160030b9050919050565b600061ffff82169050919050565b600073ffffffffffffffffffffffffffffffffffffffff82169050919050565b6000819050919050565b600063ffffffff82169050919050565b600067ffffffffffffffff82169050919050565b600060ff82169050919050565b6000615c4f82615c56565b9050919050565b6000615c6182615c68565b9050919050565b6000615c7382615be9565b9050919050565b82818337600083830152505050565b60005b83811015615ca7578082015181840152602081019050615c8c565b83811115615cb6576000848401525b50505050565b6000615ccf615cca83615d75565b615b39565b9050919050565b6000615ce9615ce483615d75565b615b59565b9050919050565b6000615d03615cfe83615d75565b615b63565b9050919050565b6000615d1d615d1883615d75565b615b87565b9050919050565b6000615d37615d3283615d82565b615b73565b9050919050565b6000615d51615d4c83615d8f565b615b39565b9050919050565b6000819050919050565bfe5b6000601f19601f8301169050919050565b60008160001c9050919050565b60008160a01c9050919050565b60008160201c9050919050565b615da581615b94565b8114615db057600080fd5b50565b615dbc81615ba6565b8114615dc757600080fd5b50565b615dd381615bb2565b8114615dde57600080fd5b50565b615dea81615bbc565b8114615df557600080fd5b50565b615e0181615bce565b8114615e0c57600080fd5b50565b615e1881615bdb565b8114615e2357600080fd5b50565b615e2f81615c09565b8114615e3a57600080fd5b50565b615e4681615c13565b8114615e5157600080fd5b50565b615e5d81615c23565b8114615e6857600080fd5b50565b615e7481615c37565b8114615e7f57600080fd5b5056fea264697066735822122013768766ce6fd9d0a8abdf7d97433ea808143a783d12f90dad277113f7ab8eeb64736f6c63430007060033",
  "immutableReferences": {},
  "source": "// SPDX-License-Identifier: MIT\r\n// Bridge between ethereum and verus\r\n\r\npragma solidity >=0.6.0 <0.9.0;\r\npragma experimental ABIEncoderV2;\r\n\r\nimport \"../Libraries/VerusObjects.sol\";\r\nimport \"../Libraries/VerusObjectsCommon.sol\";\r\nimport \"../Libraries/VerusConstants.sol\";\r\nimport \"./TokenManager.sol\";\r\nimport \"../MMR/VerusProof.sol\";\r\nimport \"./Token.sol\";\r\nimport \"./VerusSerializer.sol\";\r\nimport \"../VerusNotarizer/VerusNotarizer.sol\";\r\nimport \"./VerusCrossChainExport.sol\";\r\n\r\ncontract VerusBridge {\r\n\r\n    //list of erc20 tokens that can be accessed,\r\n    //the contract must be able to mint and burn coins on the contract\r\n    //defines the tokenManager which creates the erc20\r\n    TokenManager tokenManager;\r\n    VerusSerializer verusSerializer;\r\n    VerusProof verusProof;\r\n    VerusNotarizer verusNotarizer;\r\n    VerusCrossChainExport verusCCE;\r\n\r\n    // THE CONTRACT OWNER NEEDS TO BE REPLACED BY A SET OF NOTARIES\r\n    address contractOwner;\r\n\r\n    bool public deprecated = false;     // indicates if the contract is deprecated\r\n    address public upgradedAddress;     // new contract, if this is deprecated\r\n\r\n    uint256 public feesHeld = 0;\r\n    uint256 public ethHeld = 0;\r\n    uint256 public poolSize = 0;\r\n\r\n    uint public firstBlock = 0;\r\n\r\n    // used to prove the transfers the index of this corresponds to the index of the \r\n    bytes32[] public readyExportHashes;\r\n\r\n    // DO NOT ADD ANY VARIABLES ABOVE THIS POINT\r\n    // used to store a list of currencies and an amount\r\n    VerusObjects.CReserveTransfer[] private _pendingExports;\r\n    \r\n    // stores the blockheight of each pending transfer\r\n    // the export set holds the summary of a set of exports\r\n    VerusObjects.CReserveTransfer[][] public _readyExports;\r\n    \r\n    //stores the index corresponds to the block\r\n    VerusObjects.LastImport public lastimport;\r\n    mapping (bytes32 => bool) public processedTxids;\r\n    mapping (uint => VerusObjects.blockCreated) public readyExportsByBlock;\r\n    mapping (address => uint256) public claimableFees;\r\n\r\n    uint public lastTxImportHeight;\r\n\r\n    event Deprecate(address newAddress);\r\n\r\n    uint32 constant CTRX_CURRENCY_EXPORT_FLAG = 0x2000;\r\n    uint8 constant DEST_REGISTERCURRENCY = 6;\r\n    \r\n    constructor(address verusProofAddress,\r\n        address tokenManagerAddress,\r\n        address verusSerializerAddress,\r\n        address verusNotarizerAddress,\r\n        address verusCCEAddress,\r\n        uint256 _poolSize) public {\r\n        contractOwner = msg.sender; \r\n        verusProof =  VerusProof(verusProofAddress);\r\n        tokenManager = TokenManager(tokenManagerAddress);\r\n        verusSerializer = VerusSerializer(verusSerializerAddress);\r\n        verusNotarizer = VerusNotarizer(verusNotarizerAddress);\r\n        verusCCE = VerusCrossChainExport(verusCCEAddress);\r\n        poolSize = _poolSize;\r\n        lastimport.height = 0;\r\n        lastimport.txid = 0x00000000000000000000000000000000;\r\n    }\r\n\r\n    function isPoolAvailable(uint256 _feesAmount,address _feeCurrencyID) private view returns(bool){\r\n\r\n        if(0 < verusNotarizer.poolAvailable(VerusConstants.VerusBridgeAddress) &&\r\n            verusNotarizer.poolAvailable(VerusConstants.VerusBridgeAddress) < uint32(block.number)) {\r\n            //the bridge has been activated\r\n            return false;\r\n        } else {\r\n            assert(_feeCurrencyID == VerusConstants.VerusCurrencyId);\r\n            assert(poolSize >= _feesAmount);\r\n            return true;\r\n        }\r\n    }\r\n\r\n    function convertFromVerusNumber(uint256 a,uint8 decimals) public pure returns (uint256) {\r\n         uint8 power = 10; //default value for 18\r\n         uint256 c = a;\r\n        if(decimals > 8 ) {\r\n            power = decimals - 8;// number of decimals in verus\r\n            c = a * (10 ** power);\r\n        }else if(decimals < 8){\r\n            power = 8 - decimals;// number of decimals in verus\r\n            c = a / (10 ** power);\r\n        }\r\n      \r\n        return c;\r\n    }\r\n\r\n    function convertToVerusNumber(uint256 a,uint8 decimals) public pure returns (uint256) {\r\n         uint8 power = 10; //default value for 18\r\n         uint256 c = a;\r\n        if (decimals > 8 ) {\r\n            power = decimals - 8;// number of decimals in verus\r\n            c = a / (10 ** power);\r\n        } else if (decimals < 8){\r\n            power = 8 - decimals;// number of decimals in verus\r\n            c = a * (10 ** power);\r\n        }\r\n\r\n        return c;\r\n    }\r\n \r\n    function export(VerusObjects.CReserveTransfer memory transfer) public payable {\r\n        assert(!deprecated);\r\n        uint256 requiredFees =  VerusConstants.transactionFee;\r\n        uint256 verusFees = VerusConstants.verusTransactionFee;\r\n\r\n        //TODO: We cant mix different transfer destinations together in the CCE assert on non same fields.\r\n        if (readyExportsByBlock[block.number].created)\r\n        {\r\n            uint exportIndex = readyExportsByBlock[block.number].index;\r\n\r\n            // QUESTION: what about reserve transfers that are import to source?\r\n            assert( _readyExports[exportIndex][0].destcurrencyid == transfer.destcurrencyid);\r\n        }\r\n\r\n        //if there is fees in the pool spend those and not the amount that\r\n        if (isPoolAvailable(transfer.fees,transfer.feecurrencyid)) {\r\n            poolSize -= VerusConstants.verusTransactionFee;\r\n        } else {\r\n            //if fees are being paid in verustest we need to take it from the msg sender\r\n            assert(transfer.feecurrencyid == VerusConstants.VerusCurrencyId || transfer.feecurrencyid == VerusConstants.VEth);\r\n            if(transfer.feecurrencyid == VerusConstants.VerusCurrencyId) {\r\n                \r\n                //burn the required amount of vrsctest from the user\r\n                Token token = tokenManager.getTokenERC20(transfer.feecurrencyid);\r\n                uint256 VRSTallowedTokens = token.allowance(msg.sender, address(this));\r\n                assert( VRSTallowedTokens >= convertFromVerusNumber(verusFees,18));\r\n                token.transferFrom(msg.sender,address(this), convertFromVerusNumber(verusFees,18)); \r\n                //transfer the tokens to this contract\r\n                token.burn(verusFees); \r\n\r\n            } else if(transfer.feecurrencyid == VerusConstants.VEth){\r\n                requiredFees = requiredFees * 3;\r\n                assert(msg.value >= requiredFees + convertFromVerusNumber(transfer.fees,18));    \r\n            }\r\n            //if the fees are being paid in veth then require the user to send it\r\n            //fees need to be paid for verus as well\r\n        }\r\n\r\n        if (transfer.currencyvalue.currency != VerusConstants.VEth) {\r\n            //check there are enough fees sent\r\n            feesHeld += msg.value;\r\n            //check that the token is registered\r\n            Token token = tokenManager.getTokenERC20(transfer.currencyvalue.currency);\r\n            uint256 allowedTokens = token.allowance(msg.sender,address(this));\r\n            uint256 tokenAmount = convertFromVerusNumber(transfer.currencyvalue.amount,token.decimals()); //convert to wei from verus satoshis\r\n            assert( allowedTokens >= tokenAmount);\r\n            //transfer the tokens to this contract\r\n            token.transferFrom(msg.sender,address(this),tokenAmount); \r\n            token.approve(address(tokenManager),tokenAmount);\r\n            //give an approval for the tokenmanagerinstance to spend the tokens\r\n            tokenManager.exportERC20Tokens(address(token), tokenAmount);  //total amount kept as wei until export to verus\r\n        } else {\r\n            //handle a vEth transfer\r\n            transfer.currencyvalue.amount = uint64(convertToVerusNumber(msg.value - VerusConstants.transactionFee,18));\r\n            ethHeld += transfer.currencyvalue.amount;  \r\n            feesHeld += VerusConstants.transactionFee;\r\n        }\r\n        _createExports(transfer);\r\n    }\r\n\r\n    function _createExports(VerusObjects.CReserveTransfer memory newTransaction) private {\r\n        uint currentHeight = block.number;\r\n        uint exportIndex;\r\n        bool newHash;\r\n\r\n        //check if the current block height has a set of transfers associated with it if so add to the existing array\r\n        if (readyExportsByBlock[currentHeight].created) {\r\n            //append to an existing array of transfers\r\n            exportIndex = readyExportsByBlock[currentHeight].index;\r\n            _readyExports[exportIndex].push(newTransaction);\r\n            newHash = false;\r\n        }\r\n        else {\r\n            _pendingExports.push(newTransaction);\r\n            exportIndex = _readyExports.length;\r\n            _readyExports.push(_pendingExports);\r\n            readyExportsByBlock[currentHeight] = VerusObjects.blockCreated(exportIndex, true);\r\n            delete _pendingExports;\r\n            newHash = true;\r\n        }\r\n       \r\n        // QUESTION: why such a complicated test to determine destination currency on Verus?\r\n        // likely better would be to have a bool of bridge ready\r\n        bool bridgeReady = (0 < verusNotarizer.poolAvailable(VerusConstants.VerusBridgeAddress) &&\r\n            verusNotarizer.poolAvailable(VerusConstants.VerusBridgeAddress) < uint32(block.number));\r\n\r\n        bytes memory serializedCCE = verusSerializer.serializeCCrossChainExport(verusCCE.generateCCE(_readyExports[exportIndex], bridgeReady));\r\n\r\n        bytes32 hashedCCE;\r\n        bytes32 lastCCEHash = 0;\r\n        if (exportIndex != 0) lastCCEHash = readyExportHashes[exportIndex -1];\r\n        hashedCCE = keccak256(abi.encodePacked(serializedCCE, lastCCEHash));\r\n\r\n        //add the hashed value\r\n        if (newHash) readyExportHashes.push(hashedCCE);\r\n        else readyExportHashes[exportIndex] = hashedCCE;\r\n\r\n        if (firstBlock == 0) firstBlock = currentHeight;\r\n    }\r\n\r\n    function getlastimportheight() public view returns(uint) {\r\n        return lastTxImportHeight;\r\n    }\r\n\r\n    /***\r\n     * Import from Verus functions\r\n     ***/\r\n    function checkImports(bytes32[] memory _imports) public view returns(bytes32[] memory) {\r\n        //loop through the transfers and return a list of unprocessed\r\n        bytes32[] memory txidList = new bytes32[](_imports.length);\r\n        uint iterator;\r\n        for(uint i = 0; i < _imports.length; i++){\r\n            if(processedTxids[_imports[i]] != true){\r\n                txidList[iterator] = _imports[i];\r\n                iterator++;\r\n            }\r\n        }\r\n        return txidList;\r\n    }\r\n\r\n    function submitImports(VerusObjects.CReserveTransferImport[] memory _imports) public {\r\n        //loop through the transfers and process\r\n        for(uint i = 0; i < _imports.length; i++){\r\n           _createImports(_imports[i]);\r\n        }\r\n    }\r\n\r\n    function bytesToAddress(bytes memory bys) private pure returns (address addr) {\r\n    assembly {\r\n      addr := mload(add(bys,20))\r\n    } \r\n}\r\n\r\n    function _createImports(VerusObjects.CReserveTransferImport memory _import) public returns(bool) {\r\n\r\n        bytes32 txidfound;\r\n        bytes memory sliced = _import.partialtransactionproof.components[0].elVchObj;\r\n\r\n        assembly {\r\n            txidfound := mload(add(sliced, 32))                                 // skip memory length (ETH encoded in an efficient 32 bytes ;) )\r\n        }\r\n        if (processedTxids[txidfound] == true) return false; \r\n\r\n        bool proven = verusProof.proveImports(_import);\r\n\r\n        assert(proven);\r\n        processedTxids[txidfound] = true;\r\n\r\n        if (lastTxImportHeight < _import.height)\r\n            lastTxImportHeight = _import.height;\r\n\r\n        uint256 amount;\r\n\r\n        // check the transfers were in the hash.\r\n        for(uint i = 0; i < _import.transfers.length; i++){\r\n            // handle eth transactions\r\n            amount = convertFromVerusNumber(uint256(_import.transfers[i].currencyvalue.amount),18);\r\n\r\n            // if the transfer does not have the EXPORT_CURRENCY flag set\r\n            if(_import.transfers[i].flags & CTRX_CURRENCY_EXPORT_FLAG != CTRX_CURRENCY_EXPORT_FLAG){\r\n\r\n                if(_import.transfers[i].currencyvalue.currency == VerusConstants.VEth) {\r\n                    // cast the destination as an ethAddress\r\n                    assert(amount <= address(this).balance);\r\n                    sendEth(amount,payable(bytesToAddress(_import.transfers[i].destination.destinationaddress)));\r\n                    ethHeld -= amount;\r\n            \r\n                } else {\r\n                    // handle erc20 transactions  \r\n                    // amount conversion is handled in token manager\r\n                    tokenManager.importERC20Tokens(_import.transfers[i].currencyvalue.currency,\r\n                        _import.transfers[i].currencyvalue.amount,\r\n                        bytesToAddress(_import.transfers[i].destination.destinationaddress));\r\n                }\r\n            } else {\r\n                // If the type of address is a CCurrencyDefinition i.e. flag type DEST_REGISTERCURRENCY\r\n                if(_import.transfers[i].destination.destinationtype & DEST_REGISTERCURRENCY == DEST_REGISTERCURRENCY)\r\n                     tokenManager.deployNewToken(_import.transfers[i].destination.destinationaddress);\r\n                \r\n            }\r\n            //handle the distributions of the fees\r\n            //add them into the fees array to be claimed by the message sender\r\n            if(_import.transfers[i].fees > 0 && _import.transfers[i].feecurrencyid == VerusConstants.VEth){\r\n                claimableFees[msg.sender] = claimableFees[msg.sender] + _import.transfers[i].fees;\r\n            }\r\n        }\r\n        return true;\r\n    }\r\n    \r\n    function getReadyExportsByBlock(uint _blockNumber) public view returns(VerusObjects.CReserveTransferSet memory) {\r\n        //need a transferset for each position not each block\r\n        //retrieve a block get the indexes, create a transfer set for each index add those to the array\r\n        uint eIndex = readyExportsByBlock[_blockNumber].index;\r\n\r\n        VerusObjects.CReserveTransferSet memory output = VerusObjects.CReserveTransferSet(\r\n            eIndex,                     // position in array\r\n            _blockNumber,               // blockHeight\r\n            readyExportHashes[eIndex],  // cross chain export hash\r\n            _readyExports[eIndex]       // list of CReserveTransfers\r\n        );\r\n\r\n        return output;\r\n    }\r\n\r\n    function getReadyExportsByRange(uint _startBlock,uint _endBlock) public view returns(VerusObjects.CReserveTransferSet[] memory){\r\n        //calculate the size that the return array will be to initialise it\r\n        uint outputSize = 0;\r\n        if(_startBlock < firstBlock) _startBlock = firstBlock;\r\n        for(uint i = _startBlock; i <= _endBlock; i++){\r\n            if(readyExportsByBlock[i].created) outputSize += 1;\r\n        }\r\n\r\n        VerusObjects.CReserveTransferSet[] memory output = new VerusObjects.CReserveTransferSet[](outputSize);\r\n        uint outputPosition = 0;\r\n        for (uint blockNumber = _startBlock; blockNumber <= _endBlock; blockNumber++){\r\n            if (readyExportsByBlock[blockNumber].created) {\r\n                output[outputPosition] = getReadyExportsByBlock(blockNumber);\r\n                outputPosition++;\r\n            }\r\n        }\r\n        return output;        \r\n    }\r\n \r\n    function sendEth(uint256 _ethAmount, address payable _ethAddress) private {\r\n        assert(!deprecated);\r\n        //do we take fees here????\r\n        \r\n        _ethAddress.transfer(_ethAmount);\r\n    }\r\n   \r\n    function claimFees() public returns(uint256) {\r\n        assert(!deprecated);\r\n        if(claimableFees[msg.sender] > 0 ){\r\n            sendEth(claimableFees[msg.sender],msg.sender);\r\n        }\r\n        return claimableFees[msg.sender];\r\n    }\r\n/*\r\n    function deprecate(address _upgradedAddress,bytes32 _addressHash,uint8[] memory _vs,bytes32[] memory _rs,bytes32[] memory _ss) public{\r\n        if(verusNotarizer.notarizedDeprecation(_upgradedAddress, _addressHash, _vs, _rs, _ss)){\r\n            deprecated = true;\r\n            upgradedAddress = _upgradedAddress;\r\n            Deprecate(_upgradedAddress);\r\n        }\r\n    }\r\n*/\r\n\r\n}\r\n",
  "sourcePath": "D:\\dev\\Verus-Ethereum-contracts\\contracts\\VerusBridge\\VerusBridge.sol",
  "compiler": {
    "name": "solc",
    "version": "0.7.6+commit.7338295f.Emscripten.clang"
  },
  "schemaVersion": "3.4.3",
  "updatedAt": "2022-02-19T14:49:29.705Z",
  "networkType": "ethereum",
  "devdoc": {
    "kind": "dev",
    "methods": {},
    "version": 1
  },
  "userdoc": {
    "kind": "user",
    "methods": {},
    "version": 1
  }
}