{
  "contractName": "VerusCrossChainExport",
  "abi": [
    {
      "inputs": [
        {
          "internalType": "address",
          "name": "_verusSerializerAddress",
          "type": "address"
        }
      ],
      "stateMutability": "nonpayable",
      "type": "constructor"
    },
    {
      "inputs": [
        {
          "components": [
            {
              "internalType": "uint32",
              "name": "version",
              "type": "uint32"
            },
            {
              "components": [
                {
                  "internalType": "address",
                  "name": "currency",
                  "type": "address"
                },
                {
                  "internalType": "uint64",
                  "name": "amount",
                  "type": "uint64"
                }
              ],
              "internalType": "struct VerusObjects.CCurrencyValueMap",
              "name": "currencyvalue",
              "type": "tuple"
            },
            {
              "internalType": "uint32",
              "name": "flags",
              "type": "uint32"
            },
            {
              "internalType": "address",
              "name": "feecurrencyid",
              "type": "address"
            },
            {
              "internalType": "uint256",
              "name": "fees",
              "type": "uint256"
            },
            {
              "components": [
                {
                  "internalType": "uint8",
                  "name": "destinationtype",
                  "type": "uint8"
                },
                {
                  "internalType": "bytes",
                  "name": "destinationaddress",
                  "type": "bytes"
                }
              ],
              "internalType": "struct VerusObjectsCommon.CTransferDestination",
              "name": "destination",
              "type": "tuple"
            },
            {
              "internalType": "address",
              "name": "destcurrencyid",
              "type": "address"
            },
            {
              "internalType": "address",
              "name": "destsystemid",
              "type": "address"
            },
            {
              "internalType": "address",
              "name": "secondreserveid",
              "type": "address"
            }
          ],
          "internalType": "struct VerusObjects.CReserveTransfer[]",
          "name": "transfers",
          "type": "tuple[]"
        },
        {
          "internalType": "bool",
          "name": "bridgeReady",
          "type": "bool"
        }
      ],
      "name": "generateCCE",
      "outputs": [
        {
          "components": [
            {
              "internalType": "uint16",
              "name": "version",
              "type": "uint16"
            },
            {
              "internalType": "uint16",
              "name": "flags",
              "type": "uint16"
            },
            {
              "internalType": "address",
              "name": "sourcesystemid",
              "type": "address"
            },
            {
              "internalType": "bytes32",
              "name": "hashtransfers",
              "type": "bytes32"
            },
            {
              "internalType": "uint32",
              "name": "sourceheightstart",
              "type": "uint32"
            },
            {
              "internalType": "uint32",
              "name": "sourceheightend",
              "type": "uint32"
            },
            {
              "internalType": "address",
              "name": "destinationsystemid",
              "type": "address"
            },
            {
              "internalType": "address",
              "name": "destinationcurrencyid",
              "type": "address"
            },
            {
              "internalType": "uint32",
              "name": "numinputs",
              "type": "uint32"
            },
            {
              "components": [
                {
                  "internalType": "address",
                  "name": "currency",
                  "type": "address"
                },
                {
                  "internalType": "uint64",
                  "name": "amount",
                  "type": "uint64"
                }
              ],
              "internalType": "struct VerusObjects.CCurrencyValueMap[]",
              "name": "totalamounts",
              "type": "tuple[]"
            },
            {
              "components": [
                {
                  "internalType": "address",
                  "name": "currency",
                  "type": "address"
                },
                {
                  "internalType": "uint64",
                  "name": "amount",
                  "type": "uint64"
                }
              ],
              "internalType": "struct VerusObjects.CCurrencyValueMap[]",
              "name": "totalfees",
              "type": "tuple[]"
            },
            {
              "components": [
                {
                  "internalType": "address",
                  "name": "currency",
                  "type": "address"
                },
                {
                  "internalType": "uint64",
                  "name": "amount",
                  "type": "uint64"
                }
              ],
              "internalType": "struct VerusObjects.CCurrencyValueMap[]",
              "name": "totalburned",
              "type": "tuple[]"
            },
            {
              "components": [
                {
                  "internalType": "uint8",
                  "name": "destinationtype",
                  "type": "uint8"
                },
                {
                  "internalType": "bytes",
                  "name": "destinationaddress",
                  "type": "bytes"
                }
              ],
              "internalType": "struct VerusObjectsCommon.CTransferDestination",
              "name": "rewardaddress",
              "type": "tuple"
            },
            {
              "internalType": "int32",
              "name": "firstinput",
              "type": "int32"
            }
          ],
          "internalType": "struct VerusObjects.CCrossChainExport",
          "name": "",
          "type": "tuple"
        }
      ],
      "stateMutability": "nonpayable",
      "type": "function"
    },
    {
      "inputs": [
        {
          "internalType": "uint256",
          "name": "a",
          "type": "uint256"
        },
        {
          "internalType": "uint8",
          "name": "decimals",
          "type": "uint8"
        }
      ],
      "name": "convertFromVerusNumber",
      "outputs": [
        {
          "internalType": "uint256",
          "name": "",
          "type": "uint256"
        }
      ],
      "stateMutability": "pure",
      "type": "function",
      "constant": true
    },
    {
      "inputs": [
        {
          "internalType": "uint256",
          "name": "a",
          "type": "uint256"
        },
        {
          "internalType": "uint8",
          "name": "decimals",
          "type": "uint8"
        }
      ],
      "name": "convertToVerusNumber",
      "outputs": [
        {
          "internalType": "uint256",
          "name": "",
          "type": "uint256"
        }
      ],
      "stateMutability": "pure",
      "type": "function",
      "constant": true
    }
  ],
  "bytecode": "0x60806040523480156200001157600080fd5b506040516200217b3803806200217b833981810160405281019062000037919062000096565b80600260006101000a81548173ffffffffffffffffffffffffffffffffffffffff021916908373ffffffffffffffffffffffffffffffffffffffff1602179055505062000110565b6000815190506200009081620000f6565b92915050565b600060208284031215620000a957600080fd5b6000620000b9848285016200007f565b91505092915050565b6000620000cf82620000d6565b9050919050565b600073ffffffffffffffffffffffffffffffffffffffff82169050919050565b6200010181620000c2565b81146200010d57600080fd5b50565b61205b80620001206000396000f3fe608060405234801561001057600080fd5b50600436106100415760003560e01c806338eb07e114610046578063bb6ff4b614610076578063d5b91a92146100a6575b600080fd5b610060600480360381019061005b919061183e565b6100d6565b60405161006d9190611d41565b60405180910390f35b610090600480360381019061008b91906117a9565b610135565b60405161009d9190611d1f565b60405180910390f35b6100c060048036038101906100bb919061183e565b610c2a565b6040516100cd9190611d41565b60405180910390f35b600080600a9050600084905060088460ff16111561010b576008840391508160ff16600a0a858161010357fe5b04905061012a565b60088460ff161015610129578360080391508160ff16600a0a850290505b5b809250505092915050565b61013d611287565b610145611287565b6000600260009054906101000a900473ffffffffffffffffffffffffffffffffffffffff1673ffffffffffffffffffffffffffffffffffffffff16633b7cc0a28660006040518363ffffffff1660e01b81526004016101a5929190611cef565b60006040518083038186803b1580156101bd57600080fd5b505afa1580156101d1573d6000803e3d6000fd5b505050506040513d6000823e3d601f19601f820116820180604052508101906101fa91906117fd565b90506000818051906020012090506001836000019061ffff16908161ffff16815250506002836020019061ffff16908161ffff168152505043836080019063ffffffff16908163ffffffff1681525050438360a0019063ffffffff16908163ffffffff16815250507367460c2f56774ed27eeb8685f29f6cec0b090b00836040019073ffffffffffffffffffffffffffffffffffffffff16908173ffffffffffffffffffffffffffffffffffffffff16815250508083606001818152505073a6ef9ea235635e328124ff3429db9f9e91b64e2d8360c0019073ffffffffffffffffffffffffffffffffffffffff16908173ffffffffffffffffffffffffffffffffffffffff1681525050841561035b5773ffece948b8a38bbcc813411d2597f7f8485a06898360e0019073ffffffffffffffffffffffffffffffffffffffff16908173ffffffffffffffffffffffffffffffffffffffff16815250506103a8565b73a6ef9ea235635e328124ff3429db9f9e91b64e2d8360e0019073ffffffffffffffffffffffffffffffffffffffff16908173ffffffffffffffffffffffffffffffffffffffff16815250505b855183610100019063ffffffff16908163ffffffff1681525050600080600080600090505b89518110156108ee576103fa8a82815181106103e557fe5b60200260200101516020015160000151610c89565b935060008460070b126104845789818151811061041357fe5b6020026020010151602001516020015160008560070b8154811061043357fe5b9060005260206000200160000160148282829054906101000a900467ffffffffffffffff160192506101000a81548167ffffffffffffffff021916908367ffffffffffffffff16021790555061058f565b600060405180604001604052808c848151811061049d57fe5b6020026020010151602001516000015173ffffffffffffffffffffffffffffffffffffffff1681526020018c84815181106104d457fe5b6020026020010151602001516020015167ffffffffffffffff168152509080600181540180825580915050600190039060005260206000200160009091909190915060008201518160000160006101000a81548173ffffffffffffffffffffffffffffffffffffffff021916908373ffffffffffffffffffffffffffffffffffffffff16021790555060208201518160000160146101000a81548167ffffffffffffffff021916908367ffffffffffffffff16021790555050505b6105af8a828151811061059e57fe5b602002602001015160600151610c89565b925060008360070b12610635578981815181106105c857fe5b60200260200101516080015160008460070b815481106105e457fe5b9060005260206000200160000160148282829054906101000a900467ffffffffffffffff160192506101000a81548167ffffffffffffffff021916908367ffffffffffffffff160217905550610738565b600060405180604001604052808c848151811061064e57fe5b60200260200101516060015173ffffffffffffffffffffffffffffffffffffffff1681526020018c848151811061068157fe5b60200260200101516080015167ffffffffffffffff168152509080600181540180825580915050600190039060005260206000200160009091909190915060008201518160000160006101000a81548173ffffffffffffffffffffffffffffffffffffffff021916908373ffffffffffffffffffffffffffffffffffffffff16021790555060208201518160000160146101000a81548167ffffffffffffffff021916908367ffffffffffffffff16021790555050505b6107588a828151811061074757fe5b602002602001015160600151610d56565b915060008260070b126107de5789818151811061077157fe5b60200260200101516080015160018360070b8154811061078d57fe5b9060005260206000200160000160148282829054906101000a900467ffffffffffffffff160192506101000a81548167ffffffffffffffff021916908367ffffffffffffffff1602179055506108e1565b600160405180604001604052808c84815181106107f757fe5b60200260200101516060015173ffffffffffffffffffffffffffffffffffffffff1681526020018c848151811061082a57fe5b60200260200101516080015167ffffffffffffffff168152509080600181540180825580915050600190039060005260206000200160009091909190915060008201518160000160006101000a81548173ffffffffffffffffffffffffffffffffffffffff021916908373ffffffffffffffffffffffffffffffffffffffff16021790555060208201518160000160146101000a81548167ffffffffffffffff021916908367ffffffffffffffff16021790555050505b80806001019150506103cd565b50610903600080600160008054905003610e23565b610917600160006001808054905003610e23565b6000805480602002602001604051908101604052809291908181526020016000905b828210156109ef578382906000526020600020016040518060400160405290816000820160009054906101000a900473ffffffffffffffffffffffffffffffffffffffff1673ffffffffffffffffffffffffffffffffffffffff1673ffffffffffffffffffffffffffffffffffffffff1681526020016000820160149054906101000a900467ffffffffffffffff1667ffffffffffffffff1667ffffffffffffffff168152505081526020019060010190610939565b505050508661012001819052506001805480602002602001604051908101604052809291908181526020016000905b82821015610ad4578382906000526020600020016040518060400160405290816000820160009054906101000a900473ffffffffffffffffffffffffffffffffffffffff1673ffffffffffffffffffffffffffffffffffffffff1673ffffffffffffffffffffffffffffffffffffffff1681526020016000820160149054906101000a900467ffffffffffffffff1667ffffffffffffffff1667ffffffffffffffff168152505081526020019060010190610a1e565b5050505086610140018190525060006040518060400160405280600073ffffffffffffffffffffffffffffffffffffffff168152602001600067ffffffffffffffff168152509050600167ffffffffffffffff81118015610b3457600080fd5b50604051908082528060200260200182016040528015610b6e57816020015b610b5b61135e565b815260200190600190039081610b535790505b5087610160018190525080876101600151600081518110610b8b57fe5b60200260200101819052506040518060400160405280600460ff16815260200173b26820ee0c9b1276aac834cf457026a575dfce84604051602001610bd09190611cd4565b6040516020818303038152906040528152508761018001819052506001876101a0019060030b908160030b81525050600080610c0c9190611398565b60016000610c1a9190611398565b8697505050505050505092915050565b600080600a9050600084905060088460ff161115610c58576008840391508160ff16600a0a85029050610c7e565b60088460ff161015610c7d578360080391508160ff16600a0a8581610c7957fe5b0490505b5b809250505092915050565b600080600090505b60008054905067ffffffffffffffff16811015610d2c578273ffffffffffffffffffffffffffffffffffffffff1660008281548110610ccc57fe5b9060005260206000200160000160009054906101000a900473ffffffffffffffffffffffffffffffffffffffff1673ffffffffffffffffffffffffffffffffffffffff161415610d1f5780915050610d51565b8080600101915050610c91565b507fffffffffffffffffffffffffffffffffffffffffffffffffffffffffffffffff90505b919050565b600080600090505b60018054905067ffffffffffffffff16811015610df9578273ffffffffffffffffffffffffffffffffffffffff1660018281548110610d9957fe5b9060005260206000200160000160009054906101000a900473ffffffffffffffffffffffffffffffffffffffff1673ffffffffffffffffffffffffffffffffffffffff161415610dec5780915050610e1e565b8080600101915050610d5e565b507fffffffffffffffffffffffffffffffffffffffffffffffffffffffffffffffff90505b919050565b6000829050600082905080821415610e3c575050611282565b600085600286860381610e4b57fe5b05860173ffffffffffffffffffffffffffffffffffffffff1681548110610e6e57fe5b9060005260206000200160000160009054906101000a900473ffffffffffffffffffffffffffffffffffffffff1690505b818313611256575b8073ffffffffffffffffffffffffffffffffffffffff16868473ffffffffffffffffffffffffffffffffffffffff1681548110610ee057fe5b9060005260206000200160000160009054906101000a900473ffffffffffffffffffffffffffffffffffffffff1673ffffffffffffffffffffffffffffffffffffffff161015610f37578280600101935050610ea7565b5b858273ffffffffffffffffffffffffffffffffffffffff1681548110610f5a57fe5b9060005260206000200160000160009054906101000a900473ffffffffffffffffffffffffffffffffffffffff1673ffffffffffffffffffffffffffffffffffffffff168173ffffffffffffffffffffffffffffffffffffffff161015610fc957818060019003925050610f38565b818313611251576000868473ffffffffffffffffffffffffffffffffffffffff1681548110610ff457fe5b906000526020600020016040518060400160405290816000820160009054906101000a900473ffffffffffffffffffffffffffffffffffffffff1673ffffffffffffffffffffffffffffffffffffffff1673ffffffffffffffffffffffffffffffffffffffff1681526020016000820160149054906101000a900467ffffffffffffffff1667ffffffffffffffff1667ffffffffffffffff16815250509050868373ffffffffffffffffffffffffffffffffffffffff16815481106110b557fe5b90600052602060002001878573ffffffffffffffffffffffffffffffffffffffff16815481106110e157fe5b906000526020600020016000820160009054906101000a900473ffffffffffffffffffffffffffffffffffffffff168160000160006101000a81548173ffffffffffffffffffffffffffffffffffffffff021916908373ffffffffffffffffffffffffffffffffffffffff1602179055506000820160149054906101000a900467ffffffffffffffff168160000160146101000a81548167ffffffffffffffff021916908367ffffffffffffffff16021790555090505080878473ffffffffffffffffffffffffffffffffffffffff16815481106111bb57fe5b9060005260206000200160008201518160000160006101000a81548173ffffffffffffffffffffffffffffffffffffffff021916908373ffffffffffffffffffffffffffffffffffffffff16021790555060208201518160000160146101000a81548167ffffffffffffffff021916908367ffffffffffffffff1602179055509050508380600101945050828060019003935050505b610e9f565b8185121561126a57611269868684610e23565b5b8383121561127e5761127d868486610e23565b5b5050505b505050565b604051806101c00160405280600061ffff168152602001600061ffff168152602001600073ffffffffffffffffffffffffffffffffffffffff16815260200160008019168152602001600063ffffffff168152602001600063ffffffff168152602001600073ffffffffffffffffffffffffffffffffffffffff168152602001600073ffffffffffffffffffffffffffffffffffffffff168152602001600063ffffffff16815260200160608152602001606081526020016060815260200161134e6113b9565b8152602001600060030b81525090565b6040518060400160405280600073ffffffffffffffffffffffffffffffffffffffff168152602001600067ffffffffffffffff1681525090565b50805460008255906000526020600020908101906113b691906113d6565b50565b6040518060400160405280600060ff168152602001606081525090565b5b8082111561142b57600080820160006101000a81549073ffffffffffffffffffffffffffffffffffffffff02191690556000820160146101000a81549067ffffffffffffffff0219169055506001016113d7565b5090565b600061144261143d84611d8d565b611d5c565b9050808382526020820190508260005b85811015611482578135850161146888826115fc565b845260208401935060208301925050600181019050611452565b5050509392505050565b600061149f61149a84611db9565b611d5c565b9050828152602081018484840111156114b757600080fd5b6114c2848285611f15565b509392505050565b60006114dd6114d884611db9565b611d5c565b9050828152602081018484840111156114f557600080fd5b611500848285611f24565b509392505050565b60008135905061151781611f9b565b92915050565b600082601f83011261152e57600080fd5b813561153e84826020860161142f565b91505092915050565b60008135905061155681611fb2565b92915050565b600082601f83011261156d57600080fd5b813561157d84826020860161148c565b91505092915050565b600082601f83011261159757600080fd5b81516115a78482602086016114ca565b91505092915050565b6000604082840312156115c257600080fd5b6115cc6040611d5c565b905060006115dc84828501611508565b60008301525060206115f08482850161177f565b60208301525092915050565b6000610140828403121561160f57600080fd5b61161a610120611d5c565b9050600061162a8482850161176a565b600083015250602061163e848285016115b0565b60208301525060606116528482850161176a565b604083015250608061166684828501611508565b60608301525060a061167a84828501611755565b60808301525060c082013567ffffffffffffffff81111561169a57600080fd5b6116a6848285016116f1565b60a08301525060e06116ba84828501611508565b60c0830152506101006116cf84828501611508565b60e0830152506101206116e484828501611508565b6101008301525092915050565b60006040828403121561170357600080fd5b61170d6040611d5c565b9050600061171d84828501611794565b600083015250602082013567ffffffffffffffff81111561173d57600080fd5b6117498482850161155c565b60208301525092915050565b60008135905061176481611fc9565b92915050565b60008135905061177981611fe0565b92915050565b60008135905061178e81611ff7565b92915050565b6000813590506117a38161200e565b92915050565b600080604083850312156117bc57600080fd5b600083013567ffffffffffffffff8111156117d657600080fd5b6117e28582860161151d565b92505060206117f385828601611547565b9150509250929050565b60006020828403121561180f57600080fd5b600082015167ffffffffffffffff81111561182957600080fd5b61183584828501611586565b91505092915050565b6000806040838503121561185157600080fd5b600061185f85828601611755565b925050602061187085828601611794565b9150509250929050565b60006118868383611b48565b60408301905092915050565b600061189e8383611b77565b905092915050565b6118af81611e77565b82525050565b6118c66118c182611e77565b611f57565b82525050565b60006118d782611e09565b6118e18185611e44565b93506118ec83611de9565b8060005b8381101561191d578151611904888261187a565b975061190f83611e2a565b9250506001810190506118f0565b5085935050505092915050565b600061193582611e14565b61193f8185611e55565b93508360208202850161195185611df9565b8060005b8581101561198d578484038952815161196e8582611892565b945061197983611e37565b925060208a01995050600181019050611955565b50829750879550505050505092915050565b6119a881611e89565b82525050565b6119b781611e95565b82525050565b60006119c882611e1f565b6119d28185611e66565b93506119e2818560208601611f24565b6119eb81611f7d565b840191505092915050565b6119ff81611e9f565b82525050565b60006101c083016000830151611a1e6000860182611c7a565b506020830151611a316020860182611c7a565b506040830151611a4460408601826118a6565b506060830151611a5760608601826119ae565b506080830151611a6a6080860182611ca7565b5060a0830151611a7d60a0860182611ca7565b5060c0830151611a9060c08601826118a6565b5060e0830151611aa360e08601826118a6565b50610100830151611ab8610100860182611ca7565b50610120830151848203610120860152611ad282826118cc565b915050610140830151848203610140860152611aee82826118cc565b915050610160830151848203610160860152611b0a82826118cc565b915050610180830151848203610180860152611b268282611c3d565b9150506101a0830151611b3d6101a08601826119f6565b508091505092915050565b604082016000820151611b5e60008501826118a6565b506020820151611b716020850182611cb6565b50505050565b600061014083016000830151611b906000860182611ca7565b506020830151611ba36020860182611b48565b506040830151611bb66060860182611ca7565b506060830151611bc960808601826118a6565b506080830151611bdc60a0860182611c89565b5060a083015184820360c0860152611bf48282611c3d565b91505060c0830151611c0960e08601826118a6565b5060e0830151611c1d6101008601826118a6565b50610100830151611c326101208601826118a6565b508091505092915050565b6000604083016000830151611c556000860182611cc5565b5060208301518482036020860152611c6d82826119bd565b9150508091505092915050565b611c8381611eac565b82525050565b611c9281611eda565b82525050565b611ca181611eda565b82525050565b611cb081611ee4565b82525050565b611cbf81611ef4565b82525050565b611cce81611f08565b82525050565b6000611ce082846118b5565b60148201915081905092915050565b60006040820190508181036000830152611d09818561192a565b9050611d18602083018461199f565b9392505050565b60006020820190508181036000830152611d398184611a05565b905092915050565b6000602082019050611d566000830184611c98565b92915050565b6000604051905081810181811067ffffffffffffffff82111715611d8357611d82611f7b565b5b8060405250919050565b600067ffffffffffffffff821115611da857611da7611f7b565b5b602082029050602081019050919050565b600067ffffffffffffffff821115611dd457611dd3611f7b565b5b601f19601f8301169050602081019050919050565b6000819050602082019050919050565b6000819050602082019050919050565b600081519050919050565b600081519050919050565b600081519050919050565b6000602082019050919050565b6000602082019050919050565b600082825260208201905092915050565b600082825260208201905092915050565b600082825260208201905092915050565b6000611e8282611eba565b9050919050565b60008115159050919050565b6000819050919050565b60008160030b9050919050565b600061ffff82169050919050565b600073ffffffffffffffffffffffffffffffffffffffff82169050919050565b6000819050919050565b600063ffffffff82169050919050565b600067ffffffffffffffff82169050919050565b600060ff82169050919050565b82818337600083830152505050565b60005b83811015611f42578082015181840152602081019050611f27565b83811115611f51576000848401525b50505050565b6000611f6282611f69565b9050919050565b6000611f7482611f8e565b9050919050565bfe5b6000601f19601f8301169050919050565b60008160601b9050919050565b611fa481611e77565b8114611faf57600080fd5b50565b611fbb81611e89565b8114611fc657600080fd5b50565b611fd281611eda565b8114611fdd57600080fd5b50565b611fe981611ee4565b8114611ff457600080fd5b50565b61200081611ef4565b811461200b57600080fd5b50565b61201781611f08565b811461202257600080fd5b5056fea26469706673582212203b63451fe1984d5647829d24930cdf66384b9ec8563d43f46202bbe5d3c33be264736f6c63430007060033",
  "immutableReferences": {},
  "source": "// SPDX-License-Identifier: MIT\n// Bridge between ethereum and verus\n\npragma solidity >=0.6.0 <0.9.0;\npragma experimental ABIEncoderV2;\n\nimport \"../Libraries/VerusObjects.sol\";\nimport \"../Libraries/VerusConstants.sol\";\nimport \"../VerusBridge/VerusSerializer.sol\";\n\ncontract VerusCrossChainExport{\n\n    VerusObjects.CCurrencyValueMap[] currencies;\n    VerusObjects.CCurrencyValueMap[] fees;\n    VerusSerializer verusSerializer;\n    //   event test1(VerusObjects.CCrossChainExport ted);\n\n    function quickSort(VerusObjects.CCurrencyValueMap[] storage currencey, int left, int right) private {\n        int i = left;\n        int j = right;\n        if (i == j) return;\n        uint160 pivot = uint160(currencey[uint160(left + (right - left) / 2)].currency);\n        while (i <= j) {\n            while (uint160(currencey[uint160(i)].currency) < pivot) i++;\n            while (pivot < uint160(currencey[uint160(j)].currency)) j--;\n            if (i <= j) {\n                VerusObjects.CCurrencyValueMap memory temp = currencey[uint160(i)];\n\n                currencey[uint160(i)] = currencey[uint160(j)];\n                currencey[uint160(j)] = temp;\n                i++;\n                j--;\n            }\n        }\n        if (left < j)\n            quickSort(currencey, left, j);\n        if (i < right)\n            quickSort(currencey, i, right);\n    }\n\n    constructor(address _verusSerializerAddress) {\n        verusSerializer = VerusSerializer(_verusSerializerAddress);\n    }\n\n    function inCurrencies(address checkCurrency) private view returns(int64){\n        for(uint i = 0; i < uint64(currencies.length); i++){\n            if(currencies[i].currency == checkCurrency) return int64(i);\n        }\n        return -1;\n    }\n\n    function inFees(address checkFeesCurrency) private view returns(int64){\n        for(uint i = 0; i < uint64(fees.length); i++){\n            if(fees[i].currency == checkFeesCurrency) return int64(i);\n        }\n        return -1;\n    }\n\n    function generateCCE(VerusObjects.CReserveTransfer[] memory transfers, bool bridgeReady) public returns(VerusObjects.CCrossChainExport memory){\n\n        VerusObjects.CCrossChainExport memory workingCCE;\n        //create a hash of the transfers and then \n        bytes memory serializedTransfers = verusSerializer.serializeCReserveTransfers(transfers, false);\n        bytes32 hashedTransfers = keccak256(serializedTransfers);\n\n        //create the Cross ChainExport to then serialize and hash\n        \n        workingCCE.version = 1;\n        workingCCE.flags = 2;\n        workingCCE.sourceheightstart = uint32(block.number);\n        workingCCE.sourceheightend = uint32(block.number);\n        workingCCE.sourcesystemid = VerusConstants.VEth;\n        workingCCE.hashtransfers = hashedTransfers;\n        workingCCE.destinationsystemid = VerusConstants.VerusSystemId;\n\n        if (bridgeReady) { // RESERVETORESERVE FLAG\n            workingCCE.destinationcurrencyid = VerusConstants.VerusBridgeAddress;  //TODO:transfers are bundled by type\n        } else {\n            workingCCE.destinationcurrencyid = VerusConstants.VerusCurrencyId; //TODO:transfers are bundled by type\n        }\n\n        workingCCE.numinputs = uint32(transfers.length);\n        //loop through the array and create totals of the amounts and fees\n        \n        int64 currencyExists;\n        int64 feeExistsInTotals;\n        int64 feeExists;\n\n        for(uint i = 0; i < transfers.length; i++){\n            currencyExists = inCurrencies(transfers[i].currencyvalue.currency);\n            if(currencyExists >= 0){\n                currencies[uint256(currencyExists)].amount += transfers[i].currencyvalue.amount;\n            } else {\n                currencies.push(VerusObjects.CCurrencyValueMap(transfers[i].currencyvalue.currency,transfers[i].currencyvalue.amount));\n            }\n            \n            //add the fees into the totalamounts too \n            feeExistsInTotals = inCurrencies(transfers[i].feecurrencyid); \n            if(feeExistsInTotals >= 0){\n                currencies[uint256(feeExistsInTotals)].amount += uint64(transfers[i].fees);\n            } else {\n                currencies.push(VerusObjects.CCurrencyValueMap(transfers[i].feecurrencyid,uint64(transfers[i].fees)));\n            }\n\n            feeExists = inFees(transfers[i].feecurrencyid); \n            if(feeExists >= 0){\n                fees[uint256(feeExists)].amount += uint64(transfers[i].fees);\n            } else {\n                fees.push(VerusObjects.CCurrencyValueMap(transfers[i].feecurrencyid,uint64(transfers[i].fees)));\n            }\n            \n        }\n        \n        quickSort(currencies, int(0), int(currencies.length - 1));\n        quickSort(fees, int(0), int(fees.length - 1));\n               \n        workingCCE.totalamounts = currencies;\n        workingCCE.totalfees = fees; \n\n        VerusObjects.CCurrencyValueMap memory totalburnedCCVM = VerusObjects.CCurrencyValueMap(0x0000000000000000000000000000000000000000,0);\n\n        workingCCE.totalburned = new VerusObjects.CCurrencyValueMap[](1);\n        workingCCE.totalburned[0] = totalburnedCCVM;\n        workingCCE.rewardaddress = VerusObjectsCommon.CTransferDestination(VerusConstants.RewardAddressType, abi.encodePacked(VerusConstants.RewardAddress));\n        workingCCE.firstinput = 1;\n\n        // clear the arrays\n        delete currencies;\n        delete fees;\n\n        // emit test1(workingCCE);\n        return workingCCE;\n\n    }\n    \n    function convertFromVerusNumber(uint256 a,uint8 decimals) public pure returns (uint256) {\n         uint8 power = 10; //default value for 18\n         uint256 c = a;\n        if(decimals > 8 ) {\n            power = decimals - 8;// number of decimals in verus\n            c = a * (10 ** power);\n        }else if(decimals < 8){\n            power = 8 - decimals;// number of decimals in verus\n            c = a / (10 ** power);\n        }\n      \n        return c;\n    }\n\n    function convertToVerusNumber(uint256 a,uint8 decimals) public pure returns (uint256) {\n         uint8 power = 10; //default value for 18\n         uint256 c = a;\n        if(decimals > 8 ) {\n            power = decimals - 8;// number of decimals in verus\n            c = a / (10 ** power);\n        }else if(decimals < 8){\n            power = 8 - decimals;// number of decimals in verus\n            c = a * (10 ** power);\n        }\n      \n        return c;\n    }\n\n}",
  "sourcePath": "/home/chris/Verus-Ethereum-contracts/contracts/VerusBridge/VerusCrossChainExport.sol",
  "compiler": {
    "name": "solc",
    "version": "0.7.6+commit.7338295f.Emscripten.clang"
  },
  "schemaVersion": "3.4.4",
  "updatedAt": "2022-02-23T14:37:02.107Z",
  "networkType": "ethereum",
  "devdoc": {
    "kind": "dev",
    "methods": {},
    "version": 1
  },
  "userdoc": {
    "kind": "user",
    "methods": {},
    "version": 1
  }
}